{
  "contractName": "AhoraCoin",
  "abi": [
    {
      "inputs": [],
      "stateMutability": "nonpayable",
      "type": "constructor"
    },
    {
      "anonymous": false,
      "inputs": [
        {
          "indexed": true,
          "internalType": "address",
          "name": "owner",
          "type": "address"
        },
        {
          "indexed": true,
          "internalType": "address",
          "name": "spender",
          "type": "address"
        },
        {
          "indexed": false,
          "internalType": "uint256",
          "name": "value",
          "type": "uint256"
        }
      ],
      "name": "Approval",
      "type": "event"
    },
    {
      "anonymous": false,
      "inputs": [
        {
          "indexed": true,
          "internalType": "address",
          "name": "previousOwner",
          "type": "address"
        },
        {
          "indexed": true,
          "internalType": "address",
          "name": "newOwner",
          "type": "address"
        }
      ],
      "name": "OwnershipTransferred",
      "type": "event"
    },
    {
      "anonymous": false,
      "inputs": [
        {
          "indexed": true,
          "internalType": "address",
          "name": "from",
          "type": "address"
        },
        {
          "indexed": true,
          "internalType": "address",
          "name": "to",
          "type": "address"
        },
        {
          "indexed": false,
          "internalType": "uint256",
          "name": "value",
          "type": "uint256"
        }
      ],
      "name": "Transfer",
      "type": "event"
    },
    {
      "inputs": [
        {
          "internalType": "address",
          "name": "owner",
          "type": "address"
        },
        {
          "internalType": "address",
          "name": "spender",
          "type": "address"
        }
      ],
      "name": "allowance",
      "outputs": [
        {
          "internalType": "uint256",
          "name": "",
          "type": "uint256"
        }
      ],
      "stateMutability": "view",
      "type": "function"
    },
    {
      "inputs": [
        {
          "internalType": "address",
          "name": "spender",
          "type": "address"
        },
        {
          "internalType": "uint256",
          "name": "amount",
          "type": "uint256"
        }
      ],
      "name": "approve",
      "outputs": [
        {
          "internalType": "bool",
          "name": "",
          "type": "bool"
        }
      ],
      "stateMutability": "nonpayable",
      "type": "function"
    },
    {
      "inputs": [
        {
          "internalType": "address",
          "name": "account",
          "type": "address"
        }
      ],
      "name": "balanceOf",
      "outputs": [
        {
          "internalType": "uint256",
          "name": "",
          "type": "uint256"
        }
      ],
      "stateMutability": "view",
      "type": "function"
    },
    {
      "inputs": [],
      "name": "decimals",
      "outputs": [
        {
          "internalType": "uint8",
          "name": "",
          "type": "uint8"
        }
      ],
      "stateMutability": "view",
      "type": "function"
    },
    {
      "inputs": [
        {
          "internalType": "address",
          "name": "spender",
          "type": "address"
        },
        {
          "internalType": "uint256",
          "name": "subtractedValue",
          "type": "uint256"
        }
      ],
      "name": "decreaseAllowance",
      "outputs": [
        {
          "internalType": "bool",
          "name": "",
          "type": "bool"
        }
      ],
      "stateMutability": "nonpayable",
      "type": "function"
    },
    {
      "inputs": [
        {
          "internalType": "address",
          "name": "spender",
          "type": "address"
        },
        {
          "internalType": "uint256",
          "name": "addedValue",
          "type": "uint256"
        }
      ],
      "name": "increaseAllowance",
      "outputs": [
        {
          "internalType": "bool",
          "name": "",
          "type": "bool"
        }
      ],
      "stateMutability": "nonpayable",
      "type": "function"
    },
    {
      "inputs": [],
      "name": "mainContractAddress",
      "outputs": [
        {
          "internalType": "address",
          "name": "",
          "type": "address"
        }
      ],
      "stateMutability": "view",
      "type": "function"
    },
    {
      "inputs": [],
      "name": "name",
      "outputs": [
        {
          "internalType": "string",
          "name": "",
          "type": "string"
        }
      ],
      "stateMutability": "view",
      "type": "function"
    },
    {
      "inputs": [],
      "name": "owner",
      "outputs": [
        {
          "internalType": "address",
          "name": "",
          "type": "address"
        }
      ],
      "stateMutability": "view",
      "type": "function"
    },
    {
      "inputs": [],
      "name": "renounceOwnership",
      "outputs": [],
      "stateMutability": "nonpayable",
      "type": "function"
    },
    {
      "inputs": [],
      "name": "symbol",
      "outputs": [
        {
          "internalType": "string",
          "name": "",
          "type": "string"
        }
      ],
      "stateMutability": "view",
      "type": "function"
    },
    {
      "inputs": [],
      "name": "totalSupply",
      "outputs": [
        {
          "internalType": "uint256",
          "name": "",
          "type": "uint256"
        }
      ],
      "stateMutability": "view",
      "type": "function"
    },
    {
      "inputs": [
        {
          "internalType": "address",
          "name": "recipient",
          "type": "address"
        },
        {
          "internalType": "uint256",
          "name": "amount",
          "type": "uint256"
        }
      ],
      "name": "transfer",
      "outputs": [
        {
          "internalType": "bool",
          "name": "",
          "type": "bool"
        }
      ],
      "stateMutability": "nonpayable",
      "type": "function"
    },
    {
      "inputs": [
        {
          "internalType": "address",
          "name": "sender",
          "type": "address"
        },
        {
          "internalType": "address",
          "name": "recipient",
          "type": "address"
        },
        {
          "internalType": "uint256",
          "name": "amount",
          "type": "uint256"
        }
      ],
      "name": "transferFrom",
      "outputs": [
        {
          "internalType": "bool",
          "name": "",
          "type": "bool"
        }
      ],
      "stateMutability": "nonpayable",
      "type": "function"
    },
    {
      "inputs": [
        {
          "internalType": "address",
          "name": "newOwner",
          "type": "address"
        }
      ],
      "name": "transferOwnership",
      "outputs": [],
      "stateMutability": "nonpayable",
      "type": "function"
    },
    {
      "inputs": [
        {
          "internalType": "address",
          "name": "_mainContractAddress",
          "type": "address"
        }
      ],
      "name": "setMainContractAddress",
      "outputs": [],
      "stateMutability": "nonpayable",
      "type": "function"
    },
    {
      "inputs": [
        {
          "internalType": "address",
          "name": "to",
          "type": "address"
        },
        {
          "internalType": "uint256",
          "name": "amount",
          "type": "uint256"
        }
      ],
      "name": "mint",
      "outputs": [],
      "stateMutability": "nonpayable",
      "type": "function"
    },
    {
      "inputs": [
        {
          "internalType": "uint256",
          "name": "amount",
          "type": "uint256"
        }
      ],
      "name": "burn",
      "outputs": [],
      "stateMutability": "nonpayable",
      "type": "function"
    },
    {
      "inputs": [
        {
          "internalType": "address",
          "name": "_to",
          "type": "address"
        },
        {
          "internalType": "uint256",
          "name": "_amount",
          "type": "uint256"
        }
      ],
      "name": "transferSenderToUser",
      "outputs": [
        {
          "internalType": "bool",
          "name": "",
          "type": "bool"
        }
      ],
      "stateMutability": "nonpayable",
      "type": "function"
    },
    {
      "inputs": [
        {
          "internalType": "address",
          "name": "_from",
          "type": "address"
        },
        {
          "internalType": "address",
          "name": "_to",
          "type": "address"
        },
        {
          "internalType": "uint256",
          "name": "_amount",
          "type": "uint256"
        }
      ],
      "name": "transferUserToSystem",
      "outputs": [
        {
          "internalType": "bool",
          "name": "",
          "type": "bool"
        }
      ],
      "stateMutability": "nonpayable",
      "type": "function"
    }
  ],
  "bytecode": "0x60806040523480156200001157600080fd5b506040518060400160405280600581526020017f41686f72610000000000000000000000000000000000000000000000000000008152506040518060400160405280600381526020017f41484f00000000000000000000000000000000000000000000000000000000008152508160039080519060200190620000969291906200034d565b508060049080519060200190620000af9291906200034d565b505050620000d2620000c6620000fc60201b60201c565b6200010460201b60201c565b6001600681905550620000f63369d3c21bcecceda1000000620001ca60201b60201c565b620005a9565b600033905090565b6000600560009054906101000a900473ffffffffffffffffffffffffffffffffffffffff16905081600560006101000a81548173ffffffffffffffffffffffffffffffffffffffff021916908373ffffffffffffffffffffffffffffffffffffffff1602179055508173ffffffffffffffffffffffffffffffffffffffff168173ffffffffffffffffffffffffffffffffffffffff167f8be0079c531659141344cd1fd0a4f28419497f9722a3daafe3b4186f6b6457e060405160405180910390a35050565b600073ffffffffffffffffffffffffffffffffffffffff168273ffffffffffffffffffffffffffffffffffffffff1614156200023d576040517f08c379a0000000000000000000000000000000000000000000000000000000008152600401620002349062000435565b60405180910390fd5b62000251600083836200034360201b60201c565b806002600082825462000265919062000485565b92505081905550806000808473ffffffffffffffffffffffffffffffffffffffff1673ffffffffffffffffffffffffffffffffffffffff1681526020019081526020016000206000828254620002bc919062000485565b925050819055508173ffffffffffffffffffffffffffffffffffffffff16600073ffffffffffffffffffffffffffffffffffffffff167fddf252ad1be2c89b69c2b068fc378daa952ba7f163c4a11628f55a4df523b3ef8360405162000323919062000457565b60405180910390a36200033f600083836200034860201b60201c565b5050565b505050565b505050565b8280546200035b90620004ec565b90600052602060002090601f0160209004810192826200037f5760008555620003cb565b82601f106200039a57805160ff1916838001178555620003cb565b82800160010185558215620003cb579182015b82811115620003ca578251825591602001919060010190620003ad565b5b509050620003da9190620003de565b5090565b5b80821115620003f9576000816000905550600101620003df565b5090565b60006200040c601f8362000474565b9150620004198262000580565b602082019050919050565b6200042f81620004e2565b82525050565b600060208201905081810360008301526200045081620003fd565b9050919050565b60006020820190506200046e600083018462000424565b92915050565b600082825260208201905092915050565b60006200049282620004e2565b91506200049f83620004e2565b9250827fffffffffffffffffffffffffffffffffffffffffffffffffffffffffffffffff03821115620004d757620004d662000522565b5b828201905092915050565b6000819050919050565b600060028204905060018216806200050557607f821691505b602082108114156200051c576200051b62000551565b5b50919050565b7f4e487b7100000000000000000000000000000000000000000000000000000000600052601160045260246000fd5b7f4e487b7100000000000000000000000000000000000000000000000000000000600052602260045260246000fd5b7f45524332303a206d696e7420746f20746865207a65726f206164647265737300600082015250565b61254580620005b96000396000f3fe608060405234801561001057600080fd5b506004361061012c5760003560e01c8063715018a6116100ad578063da6b735611610071578063da6b735614610359578063dd62ed3e14610377578063ec9da59e146103a7578063f2fde38b146103c3578063f67ac38c146103df5761012c565b8063715018a6146102b35780638da5cb5b146102bd57806395d89b41146102db578063a457c2d7146102f9578063a9059cbb146103295761012c565b8063313ce567116100f4578063313ce567146101fd578063395093511461021b57806340c10f191461024b57806342966c681461026757806370a08231146102835761012c565b806306fdde0314610131578063095ea7b31461014f57806318160ddd1461017f5780631b33a8db1461019d57806323b872dd146101cd575b600080fd5b61013961040f565b6040516101469190611bf1565b60405180910390f35b61016960048036038101906101649190611863565b6104a1565b6040516101769190611bd6565b60405180910390f35b6101876104bf565b6040516101949190611e53565b60405180910390f35b6101b760048036038101906101b29190611863565b6104c9565b6040516101c49190611bd6565b60405180910390f35b6101e760048036038101906101e29190611810565b610581565b6040516101f49190611bd6565b60405180910390f35b610205610679565b6040516102129190611e6e565b60405180910390f35b61023560048036038101906102309190611863565b610682565b6040516102429190611bd6565b60405180910390f35b61026560048036038101906102609190611863565b61072e565b005b610281600480360381019061027c91906118a3565b6107b8565b005b61029d600480360381019061029891906117a3565b6107c5565b6040516102aa9190611e53565b60405180910390f35b6102bb61080d565b005b6102c5610895565b6040516102d29190611bbb565b60405180910390f35b6102e36108bf565b6040516102f09190611bf1565b60405180910390f35b610313600480360381019061030e9190611863565b610951565b6040516103209190611bd6565b60405180910390f35b610343600480360381019061033e9190611863565b610a3c565b6040516103509190611bd6565b60405180910390f35b610361610a5a565b60405161036e9190611bbb565b60405180910390f35b610391600480360381019061038c91906117d0565b610a80565b60405161039e9190611e53565b60405180910390f35b6103c160048036038101906103bc91906117a3565b610b07565b005b6103dd60048036038101906103d891906117a3565b610c4c565b005b6103f960048036038101906103f49190611810565b610d44565b6040516104069190611bd6565b60405180910390f35b60606003805461041e90611fb7565b80601f016020809104026020016040519081016040528092919081815260200182805461044a90611fb7565b80156104975780601f1061046c57610100808354040283529160200191610497565b820191906000526020600020905b81548152906001019060200180831161047a57829003601f168201915b5050505050905090565b60006104b56104ae610f1e565b8484610f26565b6001905092915050565b6000600254905090565b600060026006541415610511576040517f08c379a000000000000000000000000000000000000000000000000000000000815260040161050890611df3565b60405180910390fd5b600260068190555081610523336107c5565b1015610564576040517f08c379a000000000000000000000000000000000000000000000000000000000815260040161055b90611d13565b60405180910390fd5b61056f3384846110f1565b60019050600160068190555092915050565b600061058e8484846110f1565b6000600160008673ffffffffffffffffffffffffffffffffffffffff1673ffffffffffffffffffffffffffffffffffffffff16815260200190815260200160002060006105d9610f1e565b73ffffffffffffffffffffffffffffffffffffffff1673ffffffffffffffffffffffffffffffffffffffff16815260200190815260200160002054905082811015610659576040517f08c379a000000000000000000000000000000000000000000000000000000000815260040161065090611d53565b60405180910390fd5b61066d85610665610f1e565b858403610f26565b60019150509392505050565b60006012905090565b600061072461068f610f1e565b84846001600061069d610f1e565b73ffffffffffffffffffffffffffffffffffffffff1673ffffffffffffffffffffffffffffffffffffffff16815260200190815260200160002060008873ffffffffffffffffffffffffffffffffffffffff1673ffffffffffffffffffffffffffffffffffffffff1681526020019081526020016000205461071f9190611ea5565b610f26565b6001905092915050565b610736610f1e565b73ffffffffffffffffffffffffffffffffffffffff16610754610895565b73ffffffffffffffffffffffffffffffffffffffff16146107aa576040517f08c379a00000000000000000000000000000000000000000000000000000000081526004016107a190611d73565b60405180910390fd5b6107b48282611372565b5050565b6107c233826114d2565b50565b60008060008373ffffffffffffffffffffffffffffffffffffffff1673ffffffffffffffffffffffffffffffffffffffff168152602001908152602001600020549050919050565b610815610f1e565b73ffffffffffffffffffffffffffffffffffffffff16610833610895565b73ffffffffffffffffffffffffffffffffffffffff1614610889576040517f08c379a000000000000000000000000000000000000000000000000000000000815260040161088090611d73565b60405180910390fd5b61089360006116a9565b565b6000600560009054906101000a900473ffffffffffffffffffffffffffffffffffffffff16905090565b6060600480546108ce90611fb7565b80601f01602080910402602001604051908101604052809291908181526020018280546108fa90611fb7565b80156109475780601f1061091c57610100808354040283529160200191610947565b820191906000526020600020905b81548152906001019060200180831161092a57829003601f168201915b5050505050905090565b60008060016000610960610f1e565b73ffffffffffffffffffffffffffffffffffffffff1673ffffffffffffffffffffffffffffffffffffffff16815260200190815260200160002060008573ffffffffffffffffffffffffffffffffffffffff1673ffffffffffffffffffffffffffffffffffffffff16815260200190815260200160002054905082811015610a1d576040517f08c379a0000000000000000000000000000000000000000000000000000000008152600401610a1490611e13565b60405180910390fd5b610a31610a28610f1e565b85858403610f26565b600191505092915050565b6000610a50610a49610f1e565b84846110f1565b6001905092915050565b600760009054906101000a900473ffffffffffffffffffffffffffffffffffffffff1681565b6000600160008473ffffffffffffffffffffffffffffffffffffffff1673ffffffffffffffffffffffffffffffffffffffff16815260200190815260200160002060008373ffffffffffffffffffffffffffffffffffffffff1673ffffffffffffffffffffffffffffffffffffffff16815260200190815260200160002054905092915050565b600073ffffffffffffffffffffffffffffffffffffffff16600760009054906101000a900473ffffffffffffffffffffffffffffffffffffffff1673ffffffffffffffffffffffffffffffffffffffff1614610b98576040517f08c379a0000000000000000000000000000000000000000000000000000000008152600401610b8f90611cf3565b60405180910390fd5b600073ffffffffffffffffffffffffffffffffffffffff168173ffffffffffffffffffffffffffffffffffffffff161415610c08576040517f08c379a0000000000000000000000000000000000000000000000000000000008152600401610bff90611cb3565b60405180910390fd5b80600760006101000a81548173ffffffffffffffffffffffffffffffffffffffff021916908373ffffffffffffffffffffffffffffffffffffffff16021790555050565b610c54610f1e565b73ffffffffffffffffffffffffffffffffffffffff16610c72610895565b73ffffffffffffffffffffffffffffffffffffffff1614610cc8576040517f08c379a0000000000000000000000000000000000000000000000000000000008152600401610cbf90611d73565b60405180910390fd5b600073ffffffffffffffffffffffffffffffffffffffff168173ffffffffffffffffffffffffffffffffffffffff161415610d38576040517f08c379a0000000000000000000000000000000000000000000000000000000008152600401610d2f90611c73565b60405180910390fd5b610d41816116a9565b50565b60008073ffffffffffffffffffffffffffffffffffffffff16600760009054906101000a900473ffffffffffffffffffffffffffffffffffffffff1673ffffffffffffffffffffffffffffffffffffffff161415610dd7576040517f08c379a0000000000000000000000000000000000000000000000000000000008152600401610dce90611d33565b60405180910390fd5b600760009054906101000a900473ffffffffffffffffffffffffffffffffffffffff1673ffffffffffffffffffffffffffffffffffffffff163373ffffffffffffffffffffffffffffffffffffffff1614610e67576040517f08c379a0000000000000000000000000000000000000000000000000000000008152600401610e5e90611c53565b60405180910390fd5b60026006541415610ead576040517f08c379a0000000000000000000000000000000000000000000000000000000008152600401610ea490611df3565b60405180910390fd5b600260068190555081610ebf856107c5565b1015610f00576040517f08c379a0000000000000000000000000000000000000000000000000000000008152600401610ef790611d13565b60405180910390fd5b610f0b8484846110f1565b6001905060016006819055509392505050565b600033905090565b600073ffffffffffffffffffffffffffffffffffffffff168373ffffffffffffffffffffffffffffffffffffffff161415610f96576040517f08c379a0000000000000000000000000000000000000000000000000000000008152600401610f8d90611dd3565b60405180910390fd5b600073ffffffffffffffffffffffffffffffffffffffff168273ffffffffffffffffffffffffffffffffffffffff161415611006576040517f08c379a0000000000000000000000000000000000000000000000000000000008152600401610ffd90611c93565b60405180910390fd5b80600160008573ffffffffffffffffffffffffffffffffffffffff1673ffffffffffffffffffffffffffffffffffffffff16815260200190815260200160002060008473ffffffffffffffffffffffffffffffffffffffff1673ffffffffffffffffffffffffffffffffffffffff168152602001908152602001600020819055508173ffffffffffffffffffffffffffffffffffffffff168373ffffffffffffffffffffffffffffffffffffffff167f8c5be1e5ebec7d5bd14f71427d1e84f3dd0314c0f7b2291e5b200ac8c7c3b925836040516110e49190611e53565b60405180910390a3505050565b600073ffffffffffffffffffffffffffffffffffffffff168373ffffffffffffffffffffffffffffffffffffffff161415611161576040517f08c379a000000000000000000000000000000000000000000000000000000000815260040161115890611db3565b60405180910390fd5b600073ffffffffffffffffffffffffffffffffffffffff168273ffffffffffffffffffffffffffffffffffffffff1614156111d1576040517f08c379a00000000000000000000000000000000000000000000000000000000081526004016111c890611c13565b60405180910390fd5b6111dc83838361176f565b60008060008573ffffffffffffffffffffffffffffffffffffffff1673ffffffffffffffffffffffffffffffffffffffff16815260200190815260200160002054905081811015611262576040517f08c379a000000000000000000000000000000000000000000000000000000000815260040161125990611cd3565b60405180910390fd5b8181036000808673ffffffffffffffffffffffffffffffffffffffff1673ffffffffffffffffffffffffffffffffffffffff16815260200190815260200160002081905550816000808573ffffffffffffffffffffffffffffffffffffffff1673ffffffffffffffffffffffffffffffffffffffff16815260200190815260200160002060008282546112f59190611ea5565b925050819055508273ffffffffffffffffffffffffffffffffffffffff168473ffffffffffffffffffffffffffffffffffffffff167fddf252ad1be2c89b69c2b068fc378daa952ba7f163c4a11628f55a4df523b3ef846040516113599190611e53565b60405180910390a361136c848484611774565b50505050565b600073ffffffffffffffffffffffffffffffffffffffff168273ffffffffffffffffffffffffffffffffffffffff1614156113e2576040517f08c379a00000000000000000000000000000000000000000000000000000000081526004016113d990611e33565b60405180910390fd5b6113ee6000838361176f565b80600260008282546114009190611ea5565b92505081905550806000808473ffffffffffffffffffffffffffffffffffffffff1673ffffffffffffffffffffffffffffffffffffffff16815260200190815260200160002060008282546114559190611ea5565b925050819055508173ffffffffffffffffffffffffffffffffffffffff16600073ffffffffffffffffffffffffffffffffffffffff167fddf252ad1be2c89b69c2b068fc378daa952ba7f163c4a11628f55a4df523b3ef836040516114ba9190611e53565b60405180910390a36114ce60008383611774565b5050565b600073ffffffffffffffffffffffffffffffffffffffff168273ffffffffffffffffffffffffffffffffffffffff161415611542576040517f08c379a000000000000000000000000000000000000000000000000000000000815260040161153990611d93565b60405180910390fd5b61154e8260008361176f565b60008060008473ffffffffffffffffffffffffffffffffffffffff1673ffffffffffffffffffffffffffffffffffffffff168152602001908152602001600020549050818110156115d4576040517f08c379a00000000000000000000000000000000000000000000000000000000081526004016115cb90611c33565b60405180910390fd5b8181036000808573ffffffffffffffffffffffffffffffffffffffff1673ffffffffffffffffffffffffffffffffffffffff16815260200190815260200160002081905550816002600082825461162b9190611efb565b92505081905550600073ffffffffffffffffffffffffffffffffffffffff168373ffffffffffffffffffffffffffffffffffffffff167fddf252ad1be2c89b69c2b068fc378daa952ba7f163c4a11628f55a4df523b3ef846040516116909190611e53565b60405180910390a36116a483600084611774565b505050565b6000600560009054906101000a900473ffffffffffffffffffffffffffffffffffffffff16905081600560006101000a81548173ffffffffffffffffffffffffffffffffffffffff021916908373ffffffffffffffffffffffffffffffffffffffff1602179055508173ffffffffffffffffffffffffffffffffffffffff168173ffffffffffffffffffffffffffffffffffffffff167f8be0079c531659141344cd1fd0a4f28419497f9722a3daafe3b4186f6b6457e060405160405180910390a35050565b505050565b505050565b600081359050611788816124e1565b92915050565b60008135905061179d816124f8565b92915050565b6000602082840312156117b9576117b8612047565b5b60006117c784828501611779565b91505092915050565b600080604083850312156117e7576117e6612047565b5b60006117f585828601611779565b925050602061180685828601611779565b9150509250929050565b60008060006060848603121561182957611828612047565b5b600061183786828701611779565b935050602061184886828701611779565b92505060406118598682870161178e565b9150509250925092565b6000806040838503121561187a57611879612047565b5b600061188885828601611779565b92505060206118998582860161178e565b9150509250929050565b6000602082840312156118b9576118b8612047565b5b60006118c78482850161178e565b91505092915050565b6118d981611f2f565b82525050565b6118e881611f41565b82525050565b60006118f982611e89565b6119038185611e94565b9350611913818560208601611f84565b61191c8161204c565b840191505092915050565b6000611934602383611e94565b915061193f8261205d565b604082019050919050565b6000611957602283611e94565b9150611962826120ac565b604082019050919050565b600061197a601f83611e94565b9150611985826120fb565b602082019050919050565b600061199d602683611e94565b91506119a882612124565b604082019050919050565b60006119c0602283611e94565b91506119cb82612173565b604082019050919050565b60006119e3601d83611e94565b91506119ee826121c2565b602082019050919050565b6000611a06602683611e94565b9150611a11826121eb565b604082019050919050565b6000611a29602a83611e94565b9150611a348261223a565b604082019050919050565b6000611a4c601283611e94565b9150611a5782612289565b602082019050919050565b6000611a6f601583611e94565b9150611a7a826122b2565b602082019050919050565b6000611a92602883611e94565b9150611a9d826122db565b604082019050919050565b6000611ab5602083611e94565b9150611ac08261232a565b602082019050919050565b6000611ad8602183611e94565b9150611ae382612353565b604082019050919050565b6000611afb602583611e94565b9150611b06826123a2565b604082019050919050565b6000611b1e602483611e94565b9150611b29826123f1565b604082019050919050565b6000611b41601f83611e94565b9150611b4c82612440565b602082019050919050565b6000611b64602583611e94565b9150611b6f82612469565b604082019050919050565b6000611b87601f83611e94565b9150611b92826124b8565b602082019050919050565b611ba681611f6d565b82525050565b611bb581611f77565b82525050565b6000602082019050611bd060008301846118d0565b92915050565b6000602082019050611beb60008301846118df565b92915050565b60006020820190508181036000830152611c0b81846118ee565b905092915050565b60006020820190508181036000830152611c2c81611927565b9050919050565b60006020820190508181036000830152611c4c8161194a565b9050919050565b60006020820190508181036000830152611c6c8161196d565b9050919050565b60006020820190508181036000830152611c8c81611990565b9050919050565b60006020820190508181036000830152611cac816119b3565b9050919050565b60006020820190508181036000830152611ccc816119d6565b9050919050565b60006020820190508181036000830152611cec816119f9565b9050919050565b60006020820190508181036000830152611d0c81611a1c565b9050919050565b60006020820190508181036000830152611d2c81611a3f565b9050919050565b60006020820190508181036000830152611d4c81611a62565b9050919050565b60006020820190508181036000830152611d6c81611a85565b9050919050565b60006020820190508181036000830152611d8c81611aa8565b9050919050565b60006020820190508181036000830152611dac81611acb565b9050919050565b60006020820190508181036000830152611dcc81611aee565b9050919050565b60006020820190508181036000830152611dec81611b11565b9050919050565b60006020820190508181036000830152611e0c81611b34565b9050919050565b60006020820190508181036000830152611e2c81611b57565b9050919050565b60006020820190508181036000830152611e4c81611b7a565b9050919050565b6000602082019050611e686000830184611b9d565b92915050565b6000602082019050611e836000830184611bac565b92915050565b600081519050919050565b600082825260208201905092915050565b6000611eb082611f6d565b9150611ebb83611f6d565b9250827fffffffffffffffffffffffffffffffffffffffffffffffffffffffffffffffff03821115611ef057611eef611fe9565b5b828201905092915050565b6000611f0682611f6d565b9150611f1183611f6d565b925082821015611f2457611f23611fe9565b5b828203905092915050565b6000611f3a82611f4d565b9050919050565b60008115159050919050565b600073ffffffffffffffffffffffffffffffffffffffff82169050919050565b6000819050919050565b600060ff82169050919050565b60005b83811015611fa2578082015181840152602081019050611f87565b83811115611fb1576000848401525b50505050565b60006002820490506001821680611fcf57607f821691505b60208210811415611fe357611fe2612018565b5b50919050565b7f4e487b7100000000000000000000000000000000000000000000000000000000600052601160045260246000fd5b7f4e487b7100000000000000000000000000000000000000000000000000000000600052602260045260246000fd5b600080fd5b6000601f19601f8301169050919050565b7f45524332303a207472616e7366657220746f20746865207a65726f206164647260008201527f6573730000000000000000000000000000000000000000000000000000000000602082015250565b7f45524332303a206275726e20616d6f756e7420657863656564732062616c616e60008201527f6365000000000000000000000000000000000000000000000000000000000000602082015250565b7f43616c6c6572206973206e6f7420746865206d61696e20636f6e747261637400600082015250565b7f4f776e61626c653a206e6577206f776e657220697320746865207a65726f206160008201527f6464726573730000000000000000000000000000000000000000000000000000602082015250565b7f45524332303a20617070726f766520746f20746865207a65726f20616464726560008201527f7373000000000000000000000000000000000000000000000000000000000000602082015250565b7f496e76616c6964206d61696e20636f6e74726163742061646472657373000000600082015250565b7f45524332303a207472616e7366657220616d6f756e742065786365656473206260008201527f616c616e63650000000000000000000000000000000000000000000000000000602082015250565b7f4d61696e20636f6e747261637420616464726573732063616e206f6e6c79206260008201527f6520736574206f6e636500000000000000000000000000000000000000000000602082015250565b7f4e6f7420656e6f7567682062616c616e63650000000000000000000000000000600082015250565b7f4d61696e20636f6e7472616374206e6f74207365740000000000000000000000600082015250565b7f45524332303a207472616e7366657220616d6f756e742065786365656473206160008201527f6c6c6f77616e6365000000000000000000000000000000000000000000000000602082015250565b7f4f776e61626c653a2063616c6c6572206973206e6f7420746865206f776e6572600082015250565b7f45524332303a206275726e2066726f6d20746865207a65726f2061646472657360008201527f7300000000000000000000000000000000000000000000000000000000000000602082015250565b7f45524332303a207472616e736665722066726f6d20746865207a65726f20616460008201527f6472657373000000000000000000000000000000000000000000000000000000602082015250565b7f45524332303a20617070726f76652066726f6d20746865207a65726f2061646460008201527f7265737300000000000000000000000000000000000000000000000000000000602082015250565b7f5265656e7472616e637947756172643a207265656e7472616e742063616c6c00600082015250565b7f45524332303a2064656372656173656420616c6c6f77616e63652062656c6f7760008201527f207a65726f000000000000000000000000000000000000000000000000000000602082015250565b7f45524332303a206d696e7420746f20746865207a65726f206164647265737300600082015250565b6124ea81611f2f565b81146124f557600080fd5b50565b61250181611f6d565b811461250c57600080fd5b5056fea2646970667358221220d4137d4f38cbacb4c9fd6981a4501c9d774feeb0c12092ae1248b1c638be3ef664736f6c63430008070033",
  "immutableReferences": {},
  "source": "// SPDX-License-Identifier: MIT\r\npragma solidity ^0.8.7;\r\n\r\nimport \"@openzeppelin/contracts/token/ERC20/ERC20.sol\";\r\nimport \"@openzeppelin/contracts/access/Ownable.sol\";\r\nimport \"@openzeppelin/contracts/security/ReentrancyGuard.sol\";\r\n\r\ncontract AhoraCoin is ERC20, Ownable, ReentrancyGuard {\r\n    //   \r\n    uint256 private constant INITIAL_SUPPLY = 1000000 * 10**18; //  \r\n\r\n    // main contract   \r\n    address public mainContractAddress;\r\n\r\n    // main contract   \r\n    function setMainContractAddress(address _mainContractAddress) public {\r\n        require(mainContractAddress == address(0), \"Main contract address can only be set once\");\r\n        require(_mainContractAddress != address(0), \"Invalid main contract address\");\r\n        mainContractAddress = _mainContractAddress;\r\n    }\r\n\r\n    // main contract   modifier\r\n    modifier onlyMainContract() {\r\n        require(mainContractAddress != address(0), \"Main contract not set\");\r\n        require(msg.sender == mainContractAddress, \"Caller is not the main contract\");\r\n        _;\r\n    }\r\n\r\n    constructor() ERC20(\"Ahora\", \"AHO\") {\r\n        _mint(msg.sender, INITIAL_SUPPLY);\r\n    }\r\n\r\n    //   (Owner)\r\n    function mint(address to, uint256 amount) public onlyOwner {\r\n        _mint(to, amount);\r\n    }\r\n\r\n    //   \r\n    function burn(uint256 amount) public {\r\n        _burn(msg.sender, amount);\r\n    }\r\n\r\n    //   \r\n    function transferSenderToUser(address _to, uint256 _amount) public nonReentrant returns (bool) {\r\n        require(balanceOf(msg.sender) >= _amount, \"Not enough balance\");\r\n        _transfer(msg.sender, _to, _amount);\r\n        return true;\r\n    }\r\n\r\n    //     (  )\r\n    function transferUserToSystem(address _from, address _to, uint256 _amount) public onlyMainContract nonReentrant returns (bool) {\r\n      require(balanceOf(_from) >= _amount, \"Not enough balance\");\r\n      _transfer(_from, _to, _amount);\r\n      return true;\r\n    }\r\n}",
  "sourcePath": "C:\\Users\\SSAFY\\Desktop\\semonemo\\backend\\blockchain-server\\smartcontract\\contracts\\AhoraCoin.sol",
  "compiler": {
    "name": "solc",
    "version": "0.8.7+commit.e28d00a7.Emscripten.clang"
  },
  "schemaVersion": "3.4.16",
  "updatedAt": "2024-09-27T00:57:20.632Z",
  "devdoc": {
    "kind": "dev",
    "methods": {
      "allowance(address,address)": {
        "details": "See {IERC20-allowance}."
      },
      "approve(address,uint256)": {
        "details": "See {IERC20-approve}. Requirements: - `spender` cannot be the zero address."
      },
      "balanceOf(address)": {
        "details": "See {IERC20-balanceOf}."
      },
      "decimals()": {
        "details": "Returns the number of decimals used to get its user representation. For example, if `decimals` equals `2`, a balance of `505` tokens should be displayed to a user as `5.05` (`505 / 10 ** 2`). Tokens usually opt for a value of 18, imitating the relationship between Ether and Wei. This is the value {ERC20} uses, unless this function is overridden; NOTE: This information is only used for _display_ purposes: it in no way affects any of the arithmetic of the contract, including {IERC20-balanceOf} and {IERC20-transfer}."
      },
      "decreaseAllowance(address,uint256)": {
        "details": "Atomically decreases the allowance granted to `spender` by the caller. This is an alternative to {approve} that can be used as a mitigation for problems described in {IERC20-approve}. Emits an {Approval} event indicating the updated allowance. Requirements: - `spender` cannot be the zero address. - `spender` must have allowance for the caller of at least `subtractedValue`."
      },
      "increaseAllowance(address,uint256)": {
        "details": "Atomically increases the allowance granted to `spender` by the caller. This is an alternative to {approve} that can be used as a mitigation for problems described in {IERC20-approve}. Emits an {Approval} event indicating the updated allowance. Requirements: - `spender` cannot be the zero address."
      },
      "name()": {
        "details": "Returns the name of the token."
      },
      "owner()": {
        "details": "Returns the address of the current owner."
      },
      "renounceOwnership()": {
        "details": "Leaves the contract without owner. It will not be possible to call `onlyOwner` functions anymore. Can only be called by the current owner. NOTE: Renouncing ownership will leave the contract without an owner, thereby removing any functionality that is only available to the owner."
      },
      "symbol()": {
        "details": "Returns the symbol of the token, usually a shorter version of the name."
      },
      "totalSupply()": {
        "details": "See {IERC20-totalSupply}."
      },
      "transfer(address,uint256)": {
        "details": "See {IERC20-transfer}. Requirements: - `recipient` cannot be the zero address. - the caller must have a balance of at least `amount`."
      },
      "transferFrom(address,address,uint256)": {
        "details": "See {IERC20-transferFrom}. Emits an {Approval} event indicating the updated allowance. This is not required by the EIP. See the note at the beginning of {ERC20}. Requirements: - `sender` and `recipient` cannot be the zero address. - `sender` must have a balance of at least `amount`. - the caller must have allowance for ``sender``'s tokens of at least `amount`."
      },
      "transferOwnership(address)": {
        "details": "Transfers ownership of the contract to a new account (`newOwner`). Can only be called by the current owner."
      }
    },
    "version": 1
  },
  "userdoc": {
    "kind": "user",
    "methods": {},
    "version": 1
  }
}