{
  "contractName": "AhoraCoin",
  "abi": [
    {
      "inputs": [],
      "stateMutability": "nonpayable",
      "type": "constructor"
    },
    {
      "anonymous": false,
      "inputs": [
        {
          "indexed": true,
          "internalType": "address",
          "name": "owner",
          "type": "address"
        },
        {
          "indexed": true,
          "internalType": "address",
          "name": "spender",
          "type": "address"
        },
        {
          "indexed": false,
          "internalType": "uint256",
          "name": "value",
          "type": "uint256"
        }
      ],
      "name": "Approval",
      "type": "event"
    },
    {
      "anonymous": false,
      "inputs": [
        {
          "indexed": true,
          "internalType": "address",
          "name": "previousOwner",
          "type": "address"
        },
        {
          "indexed": true,
          "internalType": "address",
          "name": "newOwner",
          "type": "address"
        }
      ],
      "name": "OwnershipTransferred",
      "type": "event"
    },
    {
      "anonymous": false,
      "inputs": [
        {
          "indexed": true,
          "internalType": "address",
          "name": "to",
          "type": "address"
        },
        {
          "indexed": false,
          "internalType": "uint256",
          "name": "amount",
          "type": "uint256"
        },
        {
          "indexed": false,
          "internalType": "uint256",
          "name": "newBalance",
          "type": "uint256"
        }
      ],
      "name": "TokensBurned",
      "type": "event"
    },
    {
      "anonymous": false,
      "inputs": [
        {
          "indexed": true,
          "internalType": "address",
          "name": "to",
          "type": "address"
        },
        {
          "indexed": false,
          "internalType": "uint256",
          "name": "amount",
          "type": "uint256"
        },
        {
          "indexed": false,
          "internalType": "uint256",
          "name": "newBalance",
          "type": "uint256"
        }
      ],
      "name": "TokensMinted",
      "type": "event"
    },
    {
      "anonymous": false,
      "inputs": [
        {
          "indexed": true,
          "internalType": "address",
          "name": "from",
          "type": "address"
        },
        {
          "indexed": true,
          "internalType": "address",
          "name": "to",
          "type": "address"
        },
        {
          "indexed": false,
          "internalType": "uint256",
          "name": "value",
          "type": "uint256"
        }
      ],
      "name": "Transfer",
      "type": "event"
    },
    {
      "inputs": [
        {
          "internalType": "address",
          "name": "owner",
          "type": "address"
        },
        {
          "internalType": "address",
          "name": "spender",
          "type": "address"
        }
      ],
      "name": "allowance",
      "outputs": [
        {
          "internalType": "uint256",
          "name": "",
          "type": "uint256"
        }
      ],
      "stateMutability": "view",
      "type": "function",
      "constant": true
    },
    {
      "inputs": [
        {
          "internalType": "address",
          "name": "spender",
          "type": "address"
        },
        {
          "internalType": "uint256",
          "name": "amount",
          "type": "uint256"
        }
      ],
      "name": "approve",
      "outputs": [
        {
          "internalType": "bool",
          "name": "",
          "type": "bool"
        }
      ],
      "stateMutability": "nonpayable",
      "type": "function"
    },
    {
      "inputs": [
        {
          "internalType": "address",
          "name": "account",
          "type": "address"
        }
      ],
      "name": "balanceOf",
      "outputs": [
        {
          "internalType": "uint256",
          "name": "",
          "type": "uint256"
        }
      ],
      "stateMutability": "view",
      "type": "function",
      "constant": true
    },
    {
      "inputs": [],
      "name": "decimals",
      "outputs": [
        {
          "internalType": "uint8",
          "name": "",
          "type": "uint8"
        }
      ],
      "stateMutability": "view",
      "type": "function",
      "constant": true
    },
    {
      "inputs": [
        {
          "internalType": "address",
          "name": "spender",
          "type": "address"
        },
        {
          "internalType": "uint256",
          "name": "subtractedValue",
          "type": "uint256"
        }
      ],
      "name": "decreaseAllowance",
      "outputs": [
        {
          "internalType": "bool",
          "name": "",
          "type": "bool"
        }
      ],
      "stateMutability": "nonpayable",
      "type": "function"
    },
    {
      "inputs": [
        {
          "internalType": "address",
          "name": "spender",
          "type": "address"
        },
        {
          "internalType": "uint256",
          "name": "addedValue",
          "type": "uint256"
        }
      ],
      "name": "increaseAllowance",
      "outputs": [
        {
          "internalType": "bool",
          "name": "",
          "type": "bool"
        }
      ],
      "stateMutability": "nonpayable",
      "type": "function"
    },
    {
      "inputs": [],
      "name": "mainContractAddress",
      "outputs": [
        {
          "internalType": "address",
          "name": "",
          "type": "address"
        }
      ],
      "stateMutability": "view",
      "type": "function",
      "constant": true
    },
    {
      "inputs": [],
      "name": "name",
      "outputs": [
        {
          "internalType": "string",
          "name": "",
          "type": "string"
        }
      ],
      "stateMutability": "view",
      "type": "function",
      "constant": true
    },
    {
      "inputs": [],
      "name": "owner",
      "outputs": [
        {
          "internalType": "address",
          "name": "",
          "type": "address"
        }
      ],
      "stateMutability": "view",
      "type": "function",
      "constant": true
    },
    {
      "inputs": [],
      "name": "renounceOwnership",
      "outputs": [],
      "stateMutability": "nonpayable",
      "type": "function"
    },
    {
      "inputs": [],
      "name": "symbol",
      "outputs": [
        {
          "internalType": "string",
          "name": "",
          "type": "string"
        }
      ],
      "stateMutability": "view",
      "type": "function",
      "constant": true
    },
    {
      "inputs": [],
      "name": "totalSupply",
      "outputs": [
        {
          "internalType": "uint256",
          "name": "",
          "type": "uint256"
        }
      ],
      "stateMutability": "view",
      "type": "function",
      "constant": true
    },
    {
      "inputs": [
        {
          "internalType": "address",
          "name": "recipient",
          "type": "address"
        },
        {
          "internalType": "uint256",
          "name": "amount",
          "type": "uint256"
        }
      ],
      "name": "transfer",
      "outputs": [
        {
          "internalType": "bool",
          "name": "",
          "type": "bool"
        }
      ],
      "stateMutability": "nonpayable",
      "type": "function"
    },
    {
      "inputs": [
        {
          "internalType": "address",
          "name": "sender",
          "type": "address"
        },
        {
          "internalType": "address",
          "name": "recipient",
          "type": "address"
        },
        {
          "internalType": "uint256",
          "name": "amount",
          "type": "uint256"
        }
      ],
      "name": "transferFrom",
      "outputs": [
        {
          "internalType": "bool",
          "name": "",
          "type": "bool"
        }
      ],
      "stateMutability": "nonpayable",
      "type": "function"
    },
    {
      "inputs": [
        {
          "internalType": "address",
          "name": "newOwner",
          "type": "address"
        }
      ],
      "name": "transferOwnership",
      "outputs": [],
      "stateMutability": "nonpayable",
      "type": "function"
    },
    {
      "inputs": [
        {
          "internalType": "address",
          "name": "_mainContractAddress",
          "type": "address"
        }
      ],
      "name": "setMainContractAddress",
      "outputs": [],
      "stateMutability": "nonpayable",
      "type": "function"
    },
    {
      "inputs": [
        {
          "internalType": "address",
          "name": "to",
          "type": "address"
        },
        {
          "internalType": "uint256",
          "name": "amount",
          "type": "uint256"
        }
      ],
      "name": "mint",
      "outputs": [],
      "stateMutability": "nonpayable",
      "type": "function"
    },
    {
      "inputs": [
        {
          "internalType": "uint256",
          "name": "amount",
          "type": "uint256"
        }
      ],
      "name": "burn",
      "outputs": [],
      "stateMutability": "nonpayable",
      "type": "function"
    },
    {
      "inputs": [
        {
          "internalType": "address",
          "name": "_from",
          "type": "address"
        },
        {
          "internalType": "address",
          "name": "_to",
          "type": "address"
        },
        {
          "internalType": "uint256",
          "name": "_amount",
          "type": "uint256"
        }
      ],
      "name": "transferCoinByAdmin",
      "outputs": [
        {
          "internalType": "bool",
          "name": "",
          "type": "bool"
        }
      ],
      "stateMutability": "nonpayable",
      "type": "function"
    }
  ],
  "bytecode": "0x60806040523480156200001157600080fd5b506040518060400160405280600581526020017f41686f72610000000000000000000000000000000000000000000000000000008152506040518060400160405280600381526020017f41484f00000000000000000000000000000000000000000000000000000000008152508160039080519060200190620000969291906200034d565b508060049080519060200190620000af9291906200034d565b505050620000d2620000c6620000fc60201b60201c565b6200010460201b60201c565b6001600681905550620000f63369d3c21bcecceda1000000620001ca60201b60201c565b620005a9565b600033905090565b6000600560009054906101000a900473ffffffffffffffffffffffffffffffffffffffff16905081600560006101000a81548173ffffffffffffffffffffffffffffffffffffffff021916908373ffffffffffffffffffffffffffffffffffffffff1602179055508173ffffffffffffffffffffffffffffffffffffffff168173ffffffffffffffffffffffffffffffffffffffff167f8be0079c531659141344cd1fd0a4f28419497f9722a3daafe3b4186f6b6457e060405160405180910390a35050565b600073ffffffffffffffffffffffffffffffffffffffff168273ffffffffffffffffffffffffffffffffffffffff1614156200023d576040517f08c379a0000000000000000000000000000000000000000000000000000000008152600401620002349062000435565b60405180910390fd5b62000251600083836200034360201b60201c565b806002600082825462000265919062000485565b92505081905550806000808473ffffffffffffffffffffffffffffffffffffffff1673ffffffffffffffffffffffffffffffffffffffff1681526020019081526020016000206000828254620002bc919062000485565b925050819055508173ffffffffffffffffffffffffffffffffffffffff16600073ffffffffffffffffffffffffffffffffffffffff167fddf252ad1be2c89b69c2b068fc378daa952ba7f163c4a11628f55a4df523b3ef8360405162000323919062000457565b60405180910390a36200033f600083836200034860201b60201c565b5050565b505050565b505050565b8280546200035b90620004ec565b90600052602060002090601f0160209004810192826200037f5760008555620003cb565b82601f106200039a57805160ff1916838001178555620003cb565b82800160010185558215620003cb579182015b82811115620003ca578251825591602001919060010190620003ad565b5b509050620003da9190620003de565b5090565b5b80821115620003f9576000816000905550600101620003df565b5090565b60006200040c601f8362000474565b9150620004198262000580565b602082019050919050565b6200042f81620004e2565b82525050565b600060208201905081810360008301526200045081620003fd565b9050919050565b60006020820190506200046e600083018462000424565b92915050565b600082825260208201905092915050565b60006200049282620004e2565b91506200049f83620004e2565b9250827fffffffffffffffffffffffffffffffffffffffffffffffffffffffffffffffff03821115620004d757620004d662000522565b5b828201905092915050565b6000819050919050565b600060028204905060018216806200050557607f821691505b602082108114156200051c576200051b62000551565b5b50919050565b7f4e487b7100000000000000000000000000000000000000000000000000000000600052601160045260246000fd5b7f4e487b7100000000000000000000000000000000000000000000000000000000600052602260045260246000fd5b7f45524332303a206d696e7420746f20746865207a65726f206164647265737300600082015250565b61253780620005b96000396000f3fe608060405234801561001057600080fd5b50600436106101215760003560e01c806370a08231116100ad578063a9059cbb11610071578063a9059cbb1461031e578063da6b73561461034e578063dd62ed3e1461036c578063ec9da59e1461039c578063f2fde38b146103b857610121565b806370a0823114610278578063715018a6146102a85780638da5cb5b146102b257806395d89b41146102d0578063a457c2d7146102ee57610121565b8063313ce567116100f4578063313ce567146101c257806339509351146101e057806340c10f191461021057806342966c681461022c5780636153fced1461024857610121565b806306fdde0314610126578063095ea7b31461014457806318160ddd1461017457806323b872dd14610192575b600080fd5b61012e6103d4565b60405161013b9190611bba565b60405180910390f35b61015e6004803603810190610159919061182c565b610466565b60405161016b9190611b9f565b60405180910390f35b61017c610484565b6040516101899190611e1c565b60405180910390f35b6101ac60048036038101906101a791906117d9565b61048e565b6040516101b99190611b9f565b60405180910390f35b6101ca610586565b6040516101d79190611e60565b60405180910390f35b6101fa60048036038101906101f5919061182c565b61058f565b6040516102079190611b9f565b60405180910390f35b61022a6004803603810190610225919061182c565b61063b565b005b6102466004803603810190610241919061186c565b610723565b005b610262600480360381019061025d91906117d9565b61078e565b60405161026f9190611b9f565b60405180910390f35b610292600480360381019061028d919061176c565b610968565b60405161029f9190611e1c565b60405180910390f35b6102b06109b0565b005b6102ba610a38565b6040516102c79190611b84565b60405180910390f35b6102d8610a62565b6040516102e59190611bba565b60405180910390f35b6103086004803603810190610303919061182c565b610af4565b6040516103159190611b9f565b60405180910390f35b6103386004803603810190610333919061182c565b610bdf565b6040516103459190611b9f565b60405180910390f35b610356610bfd565b6040516103639190611b84565b60405180910390f35b61038660048036038101906103819190611799565b610c23565b6040516103939190611e1c565b60405180910390f35b6103b660048036038101906103b1919061176c565b610caa565b005b6103d260048036038101906103cd919061176c565b610def565b005b6060600380546103e390611fa9565b80601f016020809104026020016040519081016040528092919081815260200182805461040f90611fa9565b801561045c5780601f106104315761010080835404028352916020019161045c565b820191906000526020600020905b81548152906001019060200180831161043f57829003601f168201915b5050505050905090565b600061047a610473610ee7565b8484610eef565b6001905092915050565b6000600254905090565b600061049b8484846110ba565b6000600160008673ffffffffffffffffffffffffffffffffffffffff1673ffffffffffffffffffffffffffffffffffffffff16815260200190815260200160002060006104e6610ee7565b73ffffffffffffffffffffffffffffffffffffffff1673ffffffffffffffffffffffffffffffffffffffff16815260200190815260200160002054905082811015610566576040517f08c379a000000000000000000000000000000000000000000000000000000000815260040161055d90611d1c565b60405180910390fd5b61057a85610572610ee7565b858403610eef565b60019150509392505050565b60006012905090565b600061063161059c610ee7565b8484600160006105aa610ee7565b73ffffffffffffffffffffffffffffffffffffffff1673ffffffffffffffffffffffffffffffffffffffff16815260200190815260200160002060008873ffffffffffffffffffffffffffffffffffffffff1673ffffffffffffffffffffffffffffffffffffffff1681526020019081526020016000205461062c9190611e97565b610eef565b6001905092915050565b610643610ee7565b73ffffffffffffffffffffffffffffffffffffffff16610661610a38565b73ffffffffffffffffffffffffffffffffffffffff16146106b7576040517f08c379a00000000000000000000000000000000000000000000000000000000081526004016106ae90611d3c565b60405180910390fd5b6106c1828261133b565b60006106cc83610968565b90508273ffffffffffffffffffffffffffffffffffffffff167f2e8ac5177a616f2aec08c3048f5021e4e9743ece034e8d83ba5caf76688bb4758383604051610716929190611e37565b60405180910390a2505050565b61072d338261149b565b600061073833610968565b90503373ffffffffffffffffffffffffffffffffffffffff167fccbea4088a3b7ae9ca2d15fab9a9742a4075b4d7247768a1eecea917565aba008383604051610782929190611e37565b60405180910390a25050565b60008073ffffffffffffffffffffffffffffffffffffffff16600760009054906101000a900473ffffffffffffffffffffffffffffffffffffffff1673ffffffffffffffffffffffffffffffffffffffff161415610821576040517f08c379a000000000000000000000000000000000000000000000000000000000815260040161081890611cfc565b60405180910390fd5b600760009054906101000a900473ffffffffffffffffffffffffffffffffffffffff1673ffffffffffffffffffffffffffffffffffffffff163373ffffffffffffffffffffffffffffffffffffffff16146108b1576040517f08c379a00000000000000000000000000000000000000000000000000000000081526004016108a890611c1c565b60405180910390fd5b600260065414156108f7576040517f08c379a00000000000000000000000000000000000000000000000000000000081526004016108ee90611dbc565b60405180910390fd5b60026006819055508161090985610968565b101561094a576040517f08c379a000000000000000000000000000000000000000000000000000000000815260040161094190611cdc565b60405180910390fd5b6109558484846110ba565b6001905060016006819055509392505050565b60008060008373ffffffffffffffffffffffffffffffffffffffff1673ffffffffffffffffffffffffffffffffffffffff168152602001908152602001600020549050919050565b6109b8610ee7565b73ffffffffffffffffffffffffffffffffffffffff166109d6610a38565b73ffffffffffffffffffffffffffffffffffffffff1614610a2c576040517f08c379a0000000000000000000000000000000000000000000000000000000008152600401610a2390611d3c565b60405180910390fd5b610a366000611672565b565b6000600560009054906101000a900473ffffffffffffffffffffffffffffffffffffffff16905090565b606060048054610a7190611fa9565b80601f0160208091040260200160405190810160405280929190818152602001828054610a9d90611fa9565b8015610aea5780601f10610abf57610100808354040283529160200191610aea565b820191906000526020600020905b815481529060010190602001808311610acd57829003601f168201915b5050505050905090565b60008060016000610b03610ee7565b73ffffffffffffffffffffffffffffffffffffffff1673ffffffffffffffffffffffffffffffffffffffff16815260200190815260200160002060008573ffffffffffffffffffffffffffffffffffffffff1673ffffffffffffffffffffffffffffffffffffffff16815260200190815260200160002054905082811015610bc0576040517f08c379a0000000000000000000000000000000000000000000000000000000008152600401610bb790611ddc565b60405180910390fd5b610bd4610bcb610ee7565b85858403610eef565b600191505092915050565b6000610bf3610bec610ee7565b84846110ba565b6001905092915050565b600760009054906101000a900473ffffffffffffffffffffffffffffffffffffffff1681565b6000600160008473ffffffffffffffffffffffffffffffffffffffff1673ffffffffffffffffffffffffffffffffffffffff16815260200190815260200160002060008373ffffffffffffffffffffffffffffffffffffffff1673ffffffffffffffffffffffffffffffffffffffff16815260200190815260200160002054905092915050565b600073ffffffffffffffffffffffffffffffffffffffff16600760009054906101000a900473ffffffffffffffffffffffffffffffffffffffff1673ffffffffffffffffffffffffffffffffffffffff1614610d3b576040517f08c379a0000000000000000000000000000000000000000000000000000000008152600401610d3290611cbc565b60405180910390fd5b600073ffffffffffffffffffffffffffffffffffffffff168173ffffffffffffffffffffffffffffffffffffffff161415610dab576040517f08c379a0000000000000000000000000000000000000000000000000000000008152600401610da290611c7c565b60405180910390fd5b80600760006101000a81548173ffffffffffffffffffffffffffffffffffffffff021916908373ffffffffffffffffffffffffffffffffffffffff16021790555050565b610df7610ee7565b73ffffffffffffffffffffffffffffffffffffffff16610e15610a38565b73ffffffffffffffffffffffffffffffffffffffff1614610e6b576040517f08c379a0000000000000000000000000000000000000000000000000000000008152600401610e6290611d3c565b60405180910390fd5b600073ffffffffffffffffffffffffffffffffffffffff168173ffffffffffffffffffffffffffffffffffffffff161415610edb576040517f08c379a0000000000000000000000000000000000000000000000000000000008152600401610ed290611c3c565b60405180910390fd5b610ee481611672565b50565b600033905090565b600073ffffffffffffffffffffffffffffffffffffffff168373ffffffffffffffffffffffffffffffffffffffff161415610f5f576040517f08c379a0000000000000000000000000000000000000000000000000000000008152600401610f5690611d9c565b60405180910390fd5b600073ffffffffffffffffffffffffffffffffffffffff168273ffffffffffffffffffffffffffffffffffffffff161415610fcf576040517f08c379a0000000000000000000000000000000000000000000000000000000008152600401610fc690611c5c565b60405180910390fd5b80600160008573ffffffffffffffffffffffffffffffffffffffff1673ffffffffffffffffffffffffffffffffffffffff16815260200190815260200160002060008473ffffffffffffffffffffffffffffffffffffffff1673ffffffffffffffffffffffffffffffffffffffff168152602001908152602001600020819055508173ffffffffffffffffffffffffffffffffffffffff168373ffffffffffffffffffffffffffffffffffffffff167f8c5be1e5ebec7d5bd14f71427d1e84f3dd0314c0f7b2291e5b200ac8c7c3b925836040516110ad9190611e1c565b60405180910390a3505050565b600073ffffffffffffffffffffffffffffffffffffffff168373ffffffffffffffffffffffffffffffffffffffff16141561112a576040517f08c379a000000000000000000000000000000000000000000000000000000000815260040161112190611d7c565b60405180910390fd5b600073ffffffffffffffffffffffffffffffffffffffff168273ffffffffffffffffffffffffffffffffffffffff16141561119a576040517f08c379a000000000000000000000000000000000000000000000000000000000815260040161119190611bdc565b60405180910390fd5b6111a5838383611738565b60008060008573ffffffffffffffffffffffffffffffffffffffff1673ffffffffffffffffffffffffffffffffffffffff1681526020019081526020016000205490508181101561122b576040517f08c379a000000000000000000000000000000000000000000000000000000000815260040161122290611c9c565b60405180910390fd5b8181036000808673ffffffffffffffffffffffffffffffffffffffff1673ffffffffffffffffffffffffffffffffffffffff16815260200190815260200160002081905550816000808573ffffffffffffffffffffffffffffffffffffffff1673ffffffffffffffffffffffffffffffffffffffff16815260200190815260200160002060008282546112be9190611e97565b925050819055508273ffffffffffffffffffffffffffffffffffffffff168473ffffffffffffffffffffffffffffffffffffffff167fddf252ad1be2c89b69c2b068fc378daa952ba7f163c4a11628f55a4df523b3ef846040516113229190611e1c565b60405180910390a361133584848461173d565b50505050565b600073ffffffffffffffffffffffffffffffffffffffff168273ffffffffffffffffffffffffffffffffffffffff1614156113ab576040517f08c379a00000000000000000000000000000000000000000000000000000000081526004016113a290611dfc565b60405180910390fd5b6113b760008383611738565b80600260008282546113c99190611e97565b92505081905550806000808473ffffffffffffffffffffffffffffffffffffffff1673ffffffffffffffffffffffffffffffffffffffff168152602001908152602001600020600082825461141e9190611e97565b925050819055508173ffffffffffffffffffffffffffffffffffffffff16600073ffffffffffffffffffffffffffffffffffffffff167fddf252ad1be2c89b69c2b068fc378daa952ba7f163c4a11628f55a4df523b3ef836040516114839190611e1c565b60405180910390a36114976000838361173d565b5050565b600073ffffffffffffffffffffffffffffffffffffffff168273ffffffffffffffffffffffffffffffffffffffff16141561150b576040517f08c379a000000000000000000000000000000000000000000000000000000000815260040161150290611d5c565b60405180910390fd5b61151782600083611738565b60008060008473ffffffffffffffffffffffffffffffffffffffff1673ffffffffffffffffffffffffffffffffffffffff1681526020019081526020016000205490508181101561159d576040517f08c379a000000000000000000000000000000000000000000000000000000000815260040161159490611bfc565b60405180910390fd5b8181036000808573ffffffffffffffffffffffffffffffffffffffff1673ffffffffffffffffffffffffffffffffffffffff1681526020019081526020016000208190555081600260008282546115f49190611eed565b92505081905550600073ffffffffffffffffffffffffffffffffffffffff168373ffffffffffffffffffffffffffffffffffffffff167fddf252ad1be2c89b69c2b068fc378daa952ba7f163c4a11628f55a4df523b3ef846040516116599190611e1c565b60405180910390a361166d8360008461173d565b505050565b6000600560009054906101000a900473ffffffffffffffffffffffffffffffffffffffff16905081600560006101000a81548173ffffffffffffffffffffffffffffffffffffffff021916908373ffffffffffffffffffffffffffffffffffffffff1602179055508173ffffffffffffffffffffffffffffffffffffffff168173ffffffffffffffffffffffffffffffffffffffff167f8be0079c531659141344cd1fd0a4f28419497f9722a3daafe3b4186f6b6457e060405160405180910390a35050565b505050565b505050565b600081359050611751816124d3565b92915050565b600081359050611766816124ea565b92915050565b60006020828403121561178257611781612039565b5b600061179084828501611742565b91505092915050565b600080604083850312156117b0576117af612039565b5b60006117be85828601611742565b92505060206117cf85828601611742565b9150509250929050565b6000806000606084860312156117f2576117f1612039565b5b600061180086828701611742565b935050602061181186828701611742565b925050604061182286828701611757565b9150509250925092565b6000806040838503121561184357611842612039565b5b600061185185828601611742565b925050602061186285828601611757565b9150509250929050565b60006020828403121561188257611881612039565b5b600061189084828501611757565b91505092915050565b6118a281611f21565b82525050565b6118b181611f33565b82525050565b60006118c282611e7b565b6118cc8185611e86565b93506118dc818560208601611f76565b6118e58161203e565b840191505092915050565b60006118fd602383611e86565b91506119088261204f565b604082019050919050565b6000611920602283611e86565b915061192b8261209e565b604082019050919050565b6000611943601f83611e86565b915061194e826120ed565b602082019050919050565b6000611966602683611e86565b915061197182612116565b604082019050919050565b6000611989602283611e86565b915061199482612165565b604082019050919050565b60006119ac601d83611e86565b91506119b7826121b4565b602082019050919050565b60006119cf602683611e86565b91506119da826121dd565b604082019050919050565b60006119f2602a83611e86565b91506119fd8261222c565b604082019050919050565b6000611a15601283611e86565b9150611a208261227b565b602082019050919050565b6000611a38601583611e86565b9150611a43826122a4565b602082019050919050565b6000611a5b602883611e86565b9150611a66826122cd565b604082019050919050565b6000611a7e602083611e86565b9150611a898261231c565b602082019050919050565b6000611aa1602183611e86565b9150611aac82612345565b604082019050919050565b6000611ac4602583611e86565b9150611acf82612394565b604082019050919050565b6000611ae7602483611e86565b9150611af2826123e3565b604082019050919050565b6000611b0a601f83611e86565b9150611b1582612432565b602082019050919050565b6000611b2d602583611e86565b9150611b388261245b565b604082019050919050565b6000611b50601f83611e86565b9150611b5b826124aa565b602082019050919050565b611b6f81611f5f565b82525050565b611b7e81611f69565b82525050565b6000602082019050611b996000830184611899565b92915050565b6000602082019050611bb460008301846118a8565b92915050565b60006020820190508181036000830152611bd481846118b7565b905092915050565b60006020820190508181036000830152611bf5816118f0565b9050919050565b60006020820190508181036000830152611c1581611913565b9050919050565b60006020820190508181036000830152611c3581611936565b9050919050565b60006020820190508181036000830152611c5581611959565b9050919050565b60006020820190508181036000830152611c758161197c565b9050919050565b60006020820190508181036000830152611c958161199f565b9050919050565b60006020820190508181036000830152611cb5816119c2565b9050919050565b60006020820190508181036000830152611cd5816119e5565b9050919050565b60006020820190508181036000830152611cf581611a08565b9050919050565b60006020820190508181036000830152611d1581611a2b565b9050919050565b60006020820190508181036000830152611d3581611a4e565b9050919050565b60006020820190508181036000830152611d5581611a71565b9050919050565b60006020820190508181036000830152611d7581611a94565b9050919050565b60006020820190508181036000830152611d9581611ab7565b9050919050565b60006020820190508181036000830152611db581611ada565b9050919050565b60006020820190508181036000830152611dd581611afd565b9050919050565b60006020820190508181036000830152611df581611b20565b9050919050565b60006020820190508181036000830152611e1581611b43565b9050919050565b6000602082019050611e316000830184611b66565b92915050565b6000604082019050611e4c6000830185611b66565b611e596020830184611b66565b9392505050565b6000602082019050611e756000830184611b75565b92915050565b600081519050919050565b600082825260208201905092915050565b6000611ea282611f5f565b9150611ead83611f5f565b9250827fffffffffffffffffffffffffffffffffffffffffffffffffffffffffffffffff03821115611ee257611ee1611fdb565b5b828201905092915050565b6000611ef882611f5f565b9150611f0383611f5f565b925082821015611f1657611f15611fdb565b5b828203905092915050565b6000611f2c82611f3f565b9050919050565b60008115159050919050565b600073ffffffffffffffffffffffffffffffffffffffff82169050919050565b6000819050919050565b600060ff82169050919050565b60005b83811015611f94578082015181840152602081019050611f79565b83811115611fa3576000848401525b50505050565b60006002820490506001821680611fc157607f821691505b60208210811415611fd557611fd461200a565b5b50919050565b7f4e487b7100000000000000000000000000000000000000000000000000000000600052601160045260246000fd5b7f4e487b7100000000000000000000000000000000000000000000000000000000600052602260045260246000fd5b600080fd5b6000601f19601f8301169050919050565b7f45524332303a207472616e7366657220746f20746865207a65726f206164647260008201527f6573730000000000000000000000000000000000000000000000000000000000602082015250565b7f45524332303a206275726e20616d6f756e7420657863656564732062616c616e60008201527f6365000000000000000000000000000000000000000000000000000000000000602082015250565b7f43616c6c6572206973206e6f7420746865206d61696e20636f6e747261637400600082015250565b7f4f776e61626c653a206e6577206f776e657220697320746865207a65726f206160008201527f6464726573730000000000000000000000000000000000000000000000000000602082015250565b7f45524332303a20617070726f766520746f20746865207a65726f20616464726560008201527f7373000000000000000000000000000000000000000000000000000000000000602082015250565b7f496e76616c6964206d61696e20636f6e74726163742061646472657373000000600082015250565b7f45524332303a207472616e7366657220616d6f756e742065786365656473206260008201527f616c616e63650000000000000000000000000000000000000000000000000000602082015250565b7f4d61696e20636f6e747261637420616464726573732063616e206f6e6c79206260008201527f6520736574206f6e636500000000000000000000000000000000000000000000602082015250565b7f4e6f7420656e6f7567682062616c616e63650000000000000000000000000000600082015250565b7f4d61696e20636f6e7472616374206e6f74207365740000000000000000000000600082015250565b7f45524332303a207472616e7366657220616d6f756e742065786365656473206160008201527f6c6c6f77616e6365000000000000000000000000000000000000000000000000602082015250565b7f4f776e61626c653a2063616c6c6572206973206e6f7420746865206f776e6572600082015250565b7f45524332303a206275726e2066726f6d20746865207a65726f2061646472657360008201527f7300000000000000000000000000000000000000000000000000000000000000602082015250565b7f45524332303a207472616e736665722066726f6d20746865207a65726f20616460008201527f6472657373000000000000000000000000000000000000000000000000000000602082015250565b7f45524332303a20617070726f76652066726f6d20746865207a65726f2061646460008201527f7265737300000000000000000000000000000000000000000000000000000000602082015250565b7f5265656e7472616e637947756172643a207265656e7472616e742063616c6c00600082015250565b7f45524332303a2064656372656173656420616c6c6f77616e63652062656c6f7760008201527f207a65726f000000000000000000000000000000000000000000000000000000602082015250565b7f45524332303a206d696e7420746f20746865207a65726f206164647265737300600082015250565b6124dc81611f21565b81146124e757600080fd5b50565b6124f381611f5f565b81146124fe57600080fd5b5056fea26469706673582212200b41fbfc2ea81bfc6c287c98851d1f6694acc76e3a45483030ff6e038547a49b64736f6c63430008070033",
  "immutableReferences": {},
  "source": "// SPDX-License-Identifier: MIT\r\npragma solidity ^0.8.7;\r\n\r\nimport \"@openzeppelin/contracts/token/ERC20/ERC20.sol\";\r\nimport \"@openzeppelin/contracts/access/Ownable.sol\";\r\nimport \"@openzeppelin/contracts/security/ReentrancyGuard.sol\";\r\n\r\ncontract AhoraCoin is ERC20, Ownable, ReentrancyGuard {\r\n    //   \r\n    uint256 private constant INITIAL_SUPPLY = 1000000 * 10**18; //  \r\n\r\n    // main contract   \r\n    address public mainContractAddress;\r\n\r\n    // Minting  \r\n    event TokensMinted(address indexed to, uint256 amount, uint256 newBalance);\r\n    event TokensBurned(address indexed to, uint256 amount, uint256 newBalance);\r\n\r\n    // main contract   \r\n    function setMainContractAddress(address _mainContractAddress) public {\r\n        require(mainContractAddress == address(0), \"Main contract address can only be set once\");\r\n        require(_mainContractAddress != address(0), \"Invalid main contract address\");\r\n        mainContractAddress = _mainContractAddress;\r\n    }\r\n\r\n    // main contract   modifier\r\n    modifier onlyMainContract() {\r\n        require(mainContractAddress != address(0), \"Main contract not set\");\r\n        require(msg.sender == mainContractAddress, \"Caller is not the main contract\");\r\n        _;\r\n    }\r\n\r\n    constructor() ERC20(\"Ahora\", \"AHO\") {\r\n        _mint(msg.sender, INITIAL_SUPPLY);\r\n    }\r\n\r\n    //   (Owner)\r\n    function mint(address to, uint256 amount) public onlyOwner {\r\n        _mint(to, amount);\r\n        uint256 newBalance = balanceOf(to);\r\n        emit TokensMinted(to, amount, newBalance);\r\n    }\r\n\r\n    //   \r\n    function burn(uint256 amount) public {\r\n        _burn(msg.sender, amount);\r\n        uint256 newBalance = balanceOf(msg.sender);\r\n        emit TokensBurned(msg.sender, amount, newBalance);\r\n    }\r\n\r\n    //     (  )\r\n    function transferCoinByAdmin(address _from, address _to, uint256 _amount) public onlyMainContract nonReentrant returns (bool) {\r\n      require(balanceOf(_from) >= _amount, \"Not enough balance\");\r\n      _transfer(_from, _to, _amount);\r\n      return true;\r\n    }\r\n}",
  "sourcePath": "C:\\Users\\SSAFY\\Desktop\\semonemo\\backend\\blockchain-server\\smartcontract\\contracts\\AhoraCoin.sol",
  "compiler": {
    "name": "solc",
    "version": "0.8.7+commit.e28d00a7.Emscripten.clang"
  },
  "schemaVersion": "3.4.16",
  "updatedAt": "2024-10-07T06:34:55.063Z",
  "networkType": "ethereum",
  "devdoc": {
    "kind": "dev",
    "methods": {
      "allowance(address,address)": {
        "details": "See {IERC20-allowance}."
      },
      "approve(address,uint256)": {
        "details": "See {IERC20-approve}. Requirements: - `spender` cannot be the zero address."
      },
      "balanceOf(address)": {
        "details": "See {IERC20-balanceOf}."
      },
      "decimals()": {
        "details": "Returns the number of decimals used to get its user representation. For example, if `decimals` equals `2`, a balance of `505` tokens should be displayed to a user as `5.05` (`505 / 10 ** 2`). Tokens usually opt for a value of 18, imitating the relationship between Ether and Wei. This is the value {ERC20} uses, unless this function is overridden; NOTE: This information is only used for _display_ purposes: it in no way affects any of the arithmetic of the contract, including {IERC20-balanceOf} and {IERC20-transfer}."
      },
      "decreaseAllowance(address,uint256)": {
        "details": "Atomically decreases the allowance granted to `spender` by the caller. This is an alternative to {approve} that can be used as a mitigation for problems described in {IERC20-approve}. Emits an {Approval} event indicating the updated allowance. Requirements: - `spender` cannot be the zero address. - `spender` must have allowance for the caller of at least `subtractedValue`."
      },
      "increaseAllowance(address,uint256)": {
        "details": "Atomically increases the allowance granted to `spender` by the caller. This is an alternative to {approve} that can be used as a mitigation for problems described in {IERC20-approve}. Emits an {Approval} event indicating the updated allowance. Requirements: - `spender` cannot be the zero address."
      },
      "name()": {
        "details": "Returns the name of the token."
      },
      "owner()": {
        "details": "Returns the address of the current owner."
      },
      "renounceOwnership()": {
        "details": "Leaves the contract without owner. It will not be possible to call `onlyOwner` functions anymore. Can only be called by the current owner. NOTE: Renouncing ownership will leave the contract without an owner, thereby removing any functionality that is only available to the owner."
      },
      "symbol()": {
        "details": "Returns the symbol of the token, usually a shorter version of the name."
      },
      "totalSupply()": {
        "details": "See {IERC20-totalSupply}."
      },
      "transfer(address,uint256)": {
        "details": "See {IERC20-transfer}. Requirements: - `recipient` cannot be the zero address. - the caller must have a balance of at least `amount`."
      },
      "transferFrom(address,address,uint256)": {
        "details": "See {IERC20-transferFrom}. Emits an {Approval} event indicating the updated allowance. This is not required by the EIP. See the note at the beginning of {ERC20}. Requirements: - `sender` and `recipient` cannot be the zero address. - `sender` must have a balance of at least `amount`. - the caller must have allowance for ``sender``'s tokens of at least `amount`."
      },
      "transferOwnership(address)": {
        "details": "Transfers ownership of the contract to a new account (`newOwner`). Can only be called by the current owner."
      }
    },
    "version": 1
  },
  "userdoc": {
    "kind": "user",
    "methods": {},
    "version": 1
  }
}