{
  "contractName": "AhoraCoin",
  "abi": [
    {
      "inputs": [],
      "stateMutability": "nonpayable",
      "type": "constructor"
    },
    {
      "anonymous": false,
      "inputs": [
        {
          "indexed": true,
          "internalType": "address",
          "name": "owner",
          "type": "address"
        },
        {
          "indexed": true,
          "internalType": "address",
          "name": "spender",
          "type": "address"
        },
        {
          "indexed": false,
          "internalType": "uint256",
          "name": "value",
          "type": "uint256"
        }
      ],
      "name": "Approval",
      "type": "event"
    },
    {
      "anonymous": false,
      "inputs": [
        {
          "indexed": true,
          "internalType": "address",
          "name": "previousOwner",
          "type": "address"
        },
        {
          "indexed": true,
          "internalType": "address",
          "name": "newOwner",
          "type": "address"
        }
      ],
      "name": "OwnershipTransferred",
      "type": "event"
    },
    {
      "anonymous": false,
      "inputs": [
        {
          "indexed": true,
          "internalType": "address",
          "name": "from",
          "type": "address"
        },
        {
          "indexed": true,
          "internalType": "address",
          "name": "to",
          "type": "address"
        },
        {
          "indexed": false,
          "internalType": "uint256",
          "name": "value",
          "type": "uint256"
        }
      ],
      "name": "Transfer",
      "type": "event"
    },
    {
      "inputs": [
        {
          "internalType": "address",
          "name": "owner",
          "type": "address"
        },
        {
          "internalType": "address",
          "name": "spender",
          "type": "address"
        }
      ],
      "name": "allowance",
      "outputs": [
        {
          "internalType": "uint256",
          "name": "",
          "type": "uint256"
        }
      ],
      "stateMutability": "view",
      "type": "function",
      "constant": true
    },
    {
      "inputs": [
        {
          "internalType": "address",
          "name": "spender",
          "type": "address"
        },
        {
          "internalType": "uint256",
          "name": "amount",
          "type": "uint256"
        }
      ],
      "name": "approve",
      "outputs": [
        {
          "internalType": "bool",
          "name": "",
          "type": "bool"
        }
      ],
      "stateMutability": "nonpayable",
      "type": "function"
    },
    {
      "inputs": [
        {
          "internalType": "address",
          "name": "account",
          "type": "address"
        }
      ],
      "name": "balanceOf",
      "outputs": [
        {
          "internalType": "uint256",
          "name": "",
          "type": "uint256"
        }
      ],
      "stateMutability": "view",
      "type": "function",
      "constant": true
    },
    {
      "inputs": [],
      "name": "decimals",
      "outputs": [
        {
          "internalType": "uint8",
          "name": "",
          "type": "uint8"
        }
      ],
      "stateMutability": "view",
      "type": "function",
      "constant": true
    },
    {
      "inputs": [
        {
          "internalType": "address",
          "name": "spender",
          "type": "address"
        },
        {
          "internalType": "uint256",
          "name": "subtractedValue",
          "type": "uint256"
        }
      ],
      "name": "decreaseAllowance",
      "outputs": [
        {
          "internalType": "bool",
          "name": "",
          "type": "bool"
        }
      ],
      "stateMutability": "nonpayable",
      "type": "function"
    },
    {
      "inputs": [
        {
          "internalType": "address",
          "name": "spender",
          "type": "address"
        },
        {
          "internalType": "uint256",
          "name": "addedValue",
          "type": "uint256"
        }
      ],
      "name": "increaseAllowance",
      "outputs": [
        {
          "internalType": "bool",
          "name": "",
          "type": "bool"
        }
      ],
      "stateMutability": "nonpayable",
      "type": "function"
    },
    {
      "inputs": [],
      "name": "name",
      "outputs": [
        {
          "internalType": "string",
          "name": "",
          "type": "string"
        }
      ],
      "stateMutability": "view",
      "type": "function",
      "constant": true
    },
    {
      "inputs": [],
      "name": "owner",
      "outputs": [
        {
          "internalType": "address",
          "name": "",
          "type": "address"
        }
      ],
      "stateMutability": "view",
      "type": "function",
      "constant": true
    },
    {
      "inputs": [],
      "name": "renounceOwnership",
      "outputs": [],
      "stateMutability": "nonpayable",
      "type": "function"
    },
    {
      "inputs": [],
      "name": "symbol",
      "outputs": [
        {
          "internalType": "string",
          "name": "",
          "type": "string"
        }
      ],
      "stateMutability": "view",
      "type": "function",
      "constant": true
    },
    {
      "inputs": [],
      "name": "totalSupply",
      "outputs": [
        {
          "internalType": "uint256",
          "name": "",
          "type": "uint256"
        }
      ],
      "stateMutability": "view",
      "type": "function",
      "constant": true
    },
    {
      "inputs": [
        {
          "internalType": "address",
          "name": "recipient",
          "type": "address"
        },
        {
          "internalType": "uint256",
          "name": "amount",
          "type": "uint256"
        }
      ],
      "name": "transfer",
      "outputs": [
        {
          "internalType": "bool",
          "name": "",
          "type": "bool"
        }
      ],
      "stateMutability": "nonpayable",
      "type": "function"
    },
    {
      "inputs": [
        {
          "internalType": "address",
          "name": "sender",
          "type": "address"
        },
        {
          "internalType": "address",
          "name": "recipient",
          "type": "address"
        },
        {
          "internalType": "uint256",
          "name": "amount",
          "type": "uint256"
        }
      ],
      "name": "transferFrom",
      "outputs": [
        {
          "internalType": "bool",
          "name": "",
          "type": "bool"
        }
      ],
      "stateMutability": "nonpayable",
      "type": "function"
    },
    {
      "inputs": [
        {
          "internalType": "address",
          "name": "newOwner",
          "type": "address"
        }
      ],
      "name": "transferOwnership",
      "outputs": [],
      "stateMutability": "nonpayable",
      "type": "function"
    },
    {
      "inputs": [
        {
          "internalType": "address",
          "name": "to",
          "type": "address"
        },
        {
          "internalType": "uint256",
          "name": "amount",
          "type": "uint256"
        }
      ],
      "name": "mint",
      "outputs": [],
      "stateMutability": "nonpayable",
      "type": "function"
    },
    {
      "inputs": [
        {
          "internalType": "uint256",
          "name": "amount",
          "type": "uint256"
        }
      ],
      "name": "burn",
      "outputs": [],
      "stateMutability": "nonpayable",
      "type": "function"
    },
    {
      "inputs": [
        {
          "internalType": "address",
          "name": "delegatee",
          "type": "address"
        }
      ],
      "name": "delegateChange",
      "outputs": [],
      "stateMutability": "nonpayable",
      "type": "function"
    },
    {
      "inputs": [],
      "name": "delegateRemove",
      "outputs": [],
      "stateMutability": "nonpayable",
      "type": "function"
    },
    {
      "inputs": [
        {
          "internalType": "address",
          "name": "_to",
          "type": "address"
        },
        {
          "internalType": "uint256",
          "name": "_amount",
          "type": "uint256"
        }
      ],
      "name": "transferSenderToUser",
      "outputs": [
        {
          "internalType": "bool",
          "name": "",
          "type": "bool"
        }
      ],
      "stateMutability": "nonpayable",
      "type": "function"
    },
    {
      "inputs": [
        {
          "internalType": "address",
          "name": "_from",
          "type": "address"
        },
        {
          "internalType": "address",
          "name": "_to",
          "type": "address"
        },
        {
          "internalType": "uint256",
          "name": "_amount",
          "type": "uint256"
        }
      ],
      "name": "transferUserToUser",
      "outputs": [
        {
          "internalType": "bool",
          "name": "",
          "type": "bool"
        }
      ],
      "stateMutability": "nonpayable",
      "type": "function"
    }
  ],
  "bytecode": "0x60806040523480156200001157600080fd5b506040518060400160405280600581526020017f41686f72610000000000000000000000000000000000000000000000000000008152506040518060400160405280600381526020017f41484f00000000000000000000000000000000000000000000000000000000008152508160039080519060200190620000969291906200034d565b508060049080519060200190620000af9291906200034d565b505050620000d2620000c6620000fc60201b60201c565b6200010460201b60201c565b6001600681905550620000f63369d3c21bcecceda1000000620001ca60201b60201c565b620005a9565b600033905090565b6000600560009054906101000a900473ffffffffffffffffffffffffffffffffffffffff16905081600560006101000a81548173ffffffffffffffffffffffffffffffffffffffff021916908373ffffffffffffffffffffffffffffffffffffffff1602179055508173ffffffffffffffffffffffffffffffffffffffff168173ffffffffffffffffffffffffffffffffffffffff167f8be0079c531659141344cd1fd0a4f28419497f9722a3daafe3b4186f6b6457e060405160405180910390a35050565b600073ffffffffffffffffffffffffffffffffffffffff168273ffffffffffffffffffffffffffffffffffffffff1614156200023d576040517f08c379a0000000000000000000000000000000000000000000000000000000008152600401620002349062000435565b60405180910390fd5b62000251600083836200034360201b60201c565b806002600082825462000265919062000485565b92505081905550806000808473ffffffffffffffffffffffffffffffffffffffff1673ffffffffffffffffffffffffffffffffffffffff1681526020019081526020016000206000828254620002bc919062000485565b925050819055508173ffffffffffffffffffffffffffffffffffffffff16600073ffffffffffffffffffffffffffffffffffffffff167fddf252ad1be2c89b69c2b068fc378daa952ba7f163c4a11628f55a4df523b3ef8360405162000323919062000457565b60405180910390a36200033f600083836200034860201b60201c565b5050565b505050565b505050565b8280546200035b90620004ec565b90600052602060002090601f0160209004810192826200037f5760008555620003cb565b82601f106200039a57805160ff1916838001178555620003cb565b82800160010185558215620003cb579182015b82811115620003ca578251825591602001919060010190620003ad565b5b509050620003da9190620003de565b5090565b5b80821115620003f9576000816000905550600101620003df565b5090565b60006200040c601f8362000474565b9150620004198262000580565b602082019050919050565b6200042f81620004e2565b82525050565b600060208201905081810360008301526200045081620003fd565b9050919050565b60006020820190506200046e600083018462000424565b92915050565b600082825260208201905092915050565b60006200049282620004e2565b91506200049f83620004e2565b9250827fffffffffffffffffffffffffffffffffffffffffffffffffffffffffffffffff03821115620004d757620004d662000522565b5b828201905092915050565b6000819050919050565b600060028204905060018216806200050557607f821691505b602082108114156200051c576200051b62000551565b5b50919050565b7f4e487b7100000000000000000000000000000000000000000000000000000000600052601160045260246000fd5b7f4e487b7100000000000000000000000000000000000000000000000000000000600052602260045260246000fd5b7f45524332303a206d696e7420746f20746865207a65726f206164647265737300600082015250565b61234080620005b96000396000f3fe608060405234801561001057600080fd5b506004361061012c5760003560e01c806370a08231116100ad578063a9059cbb11610071578063a9059cbb14610345578063c18bce5a14610375578063dd62ed3e1461037f578063f2fde38b146103af578063f57886e0146103cb5761012c565b806370a082311461029f578063715018a6146102cf5780638da5cb5b146102d957806395d89b41146102f7578063a457c2d7146103155761012c565b8063313ce567116100f4578063313ce567146101fd578063395093511461021b57806340c10f191461024b57806342966c6814610267578063594166d5146102835761012c565b806306fdde0314610131578063095ea7b31461014f57806318160ddd1461017f5780631b33a8db1461019d57806323b872dd146101cd575b600080fd5b6101396103fb565b6040516101469190611aed565b60405180910390f35b610169600480360381019061016491906117c8565b61048d565b6040516101769190611ad2565b60405180910390f35b6101876104ab565b6040516101949190611cef565b60405180910390f35b6101b760048036038101906101b291906117c8565b6104b5565b6040516101c49190611ad2565b60405180910390f35b6101e760048036038101906101e29190611775565b61056d565b6040516101f49190611ad2565b60405180910390f35b610205610665565b6040516102129190611d0a565b60405180910390f35b610235600480360381019061023091906117c8565b61066e565b6040516102429190611ad2565b60405180910390f35b610265600480360381019061026091906117c8565b61071a565b005b610281600480360381019061027c9190611808565b6107a4565b005b61029d60048036038101906102989190611708565b6107b1565b005b6102b960048036038101906102b49190611708565b610832565b6040516102c69190611cef565b60405180910390f35b6102d761087a565b005b6102e1610902565b6040516102ee9190611ab7565b60405180910390f35b6102ff61092c565b60405161030c9190611aed565b60405180910390f35b61032f600480360381019061032a91906117c8565b6109be565b60405161033c9190611ad2565b60405180910390f35b61035f600480360381019061035a91906117c8565b610aa9565b60405161036c9190611ad2565b60405180910390f35b61037d610ac7565b005b61039960048036038101906103949190611735565b610b48565b6040516103a69190611cef565b60405180910390f35b6103c960048036038101906103c49190611708565b610bcf565b005b6103e560048036038101906103e09190611775565b610cc7565b6040516103f29190611ad2565b60405180910390f35b60606003805461040a90611e53565b80601f016020809104026020016040519081016040528092919081815260200182805461043690611e53565b80156104835780601f1061045857610100808354040283529160200191610483565b820191906000526020600020905b81548152906001019060200180831161046657829003601f168201915b5050505050905090565b60006104a161049a610e83565b8484610e8b565b6001905092915050565b6000600254905090565b6000600260065414156104fd576040517f08c379a00000000000000000000000000000000000000000000000000000000081526004016104f490611c8f565b60405180910390fd5b60026006819055508161050f33610832565b1015610550576040517f08c379a000000000000000000000000000000000000000000000000000000000815260040161054790611baf565b60405180910390fd5b61055b338484611056565b60019050600160068190555092915050565b600061057a848484611056565b6000600160008673ffffffffffffffffffffffffffffffffffffffff1673ffffffffffffffffffffffffffffffffffffffff16815260200190815260200160002060006105c5610e83565b73ffffffffffffffffffffffffffffffffffffffff1673ffffffffffffffffffffffffffffffffffffffff16815260200190815260200160002054905082811015610645576040517f08c379a000000000000000000000000000000000000000000000000000000000815260040161063c90611bef565b60405180910390fd5b61065985610651610e83565b858403610e8b565b60019150509392505050565b60006012905090565b600061071061067b610e83565b848460016000610689610e83565b73ffffffffffffffffffffffffffffffffffffffff1673ffffffffffffffffffffffffffffffffffffffff16815260200190815260200160002060008873ffffffffffffffffffffffffffffffffffffffff1673ffffffffffffffffffffffffffffffffffffffff1681526020019081526020016000205461070b9190611d41565b610e8b565b6001905092915050565b610722610e83565b73ffffffffffffffffffffffffffffffffffffffff16610740610902565b73ffffffffffffffffffffffffffffffffffffffff1614610796576040517f08c379a000000000000000000000000000000000000000000000000000000000815260040161078d90611c0f565b60405180910390fd5b6107a082826112d7565b5050565b6107ae3382611437565b50565b80600760003373ffffffffffffffffffffffffffffffffffffffff1673ffffffffffffffffffffffffffffffffffffffff16815260200190815260200160002060006101000a81548173ffffffffffffffffffffffffffffffffffffffff021916908373ffffffffffffffffffffffffffffffffffffffff16021790555050565b60008060008373ffffffffffffffffffffffffffffffffffffffff1673ffffffffffffffffffffffffffffffffffffffff168152602001908152602001600020549050919050565b610882610e83565b73ffffffffffffffffffffffffffffffffffffffff166108a0610902565b73ffffffffffffffffffffffffffffffffffffffff16146108f6576040517f08c379a00000000000000000000000000000000000000000000000000000000081526004016108ed90611c0f565b60405180910390fd5b610900600061160e565b565b6000600560009054906101000a900473ffffffffffffffffffffffffffffffffffffffff16905090565b60606004805461093b90611e53565b80601f016020809104026020016040519081016040528092919081815260200182805461096790611e53565b80156109b45780601f10610989576101008083540402835291602001916109b4565b820191906000526020600020905b81548152906001019060200180831161099757829003601f168201915b5050505050905090565b600080600160006109cd610e83565b73ffffffffffffffffffffffffffffffffffffffff1673ffffffffffffffffffffffffffffffffffffffff16815260200190815260200160002060008573ffffffffffffffffffffffffffffffffffffffff1673ffffffffffffffffffffffffffffffffffffffff16815260200190815260200160002054905082811015610a8a576040517f08c379a0000000000000000000000000000000000000000000000000000000008152600401610a8190611caf565b60405180910390fd5b610a9e610a95610e83565b85858403610e8b565b600191505092915050565b6000610abd610ab6610e83565b8484611056565b6001905092915050565b6000600760003373ffffffffffffffffffffffffffffffffffffffff1673ffffffffffffffffffffffffffffffffffffffff16815260200190815260200160002060006101000a81548173ffffffffffffffffffffffffffffffffffffffff021916908373ffffffffffffffffffffffffffffffffffffffff160217905550565b6000600160008473ffffffffffffffffffffffffffffffffffffffff1673ffffffffffffffffffffffffffffffffffffffff16815260200190815260200160002060008373ffffffffffffffffffffffffffffffffffffffff1673ffffffffffffffffffffffffffffffffffffffff16815260200190815260200160002054905092915050565b610bd7610e83565b73ffffffffffffffffffffffffffffffffffffffff16610bf5610902565b73ffffffffffffffffffffffffffffffffffffffff1614610c4b576040517f08c379a0000000000000000000000000000000000000000000000000000000008152600401610c4290611c0f565b60405180910390fd5b600073ffffffffffffffffffffffffffffffffffffffff168173ffffffffffffffffffffffffffffffffffffffff161415610cbb576040517f08c379a0000000000000000000000000000000000000000000000000000000008152600401610cb290611b4f565b60405180910390fd5b610cc48161160e565b50565b600060026006541415610d0f576040517f08c379a0000000000000000000000000000000000000000000000000000000008152600401610d0690611c8f565b60405180910390fd5b60026006819055508373ffffffffffffffffffffffffffffffffffffffff163373ffffffffffffffffffffffffffffffffffffffff161480610ddb57503373ffffffffffffffffffffffffffffffffffffffff16600760008673ffffffffffffffffffffffffffffffffffffffff1673ffffffffffffffffffffffffffffffffffffffff16815260200190815260200160002060009054906101000a900473ffffffffffffffffffffffffffffffffffffffff1673ffffffffffffffffffffffffffffffffffffffff16145b610e1a576040517f08c379a0000000000000000000000000000000000000000000000000000000008152600401610e1190611bcf565b60405180910390fd5b81610e2485610832565b1015610e65576040517f08c379a0000000000000000000000000000000000000000000000000000000008152600401610e5c90611baf565b60405180910390fd5b610e70848484611056565b6001905060016006819055509392505050565b600033905090565b600073ffffffffffffffffffffffffffffffffffffffff168373ffffffffffffffffffffffffffffffffffffffff161415610efb576040517f08c379a0000000000000000000000000000000000000000000000000000000008152600401610ef290611c6f565b60405180910390fd5b600073ffffffffffffffffffffffffffffffffffffffff168273ffffffffffffffffffffffffffffffffffffffff161415610f6b576040517f08c379a0000000000000000000000000000000000000000000000000000000008152600401610f6290611b6f565b60405180910390fd5b80600160008573ffffffffffffffffffffffffffffffffffffffff1673ffffffffffffffffffffffffffffffffffffffff16815260200190815260200160002060008473ffffffffffffffffffffffffffffffffffffffff1673ffffffffffffffffffffffffffffffffffffffff168152602001908152602001600020819055508173ffffffffffffffffffffffffffffffffffffffff168373ffffffffffffffffffffffffffffffffffffffff167f8c5be1e5ebec7d5bd14f71427d1e84f3dd0314c0f7b2291e5b200ac8c7c3b925836040516110499190611cef565b60405180910390a3505050565b600073ffffffffffffffffffffffffffffffffffffffff168373ffffffffffffffffffffffffffffffffffffffff1614156110c6576040517f08c379a00000000000000000000000000000000000000000000000000000000081526004016110bd90611c4f565b60405180910390fd5b600073ffffffffffffffffffffffffffffffffffffffff168273ffffffffffffffffffffffffffffffffffffffff161415611136576040517f08c379a000000000000000000000000000000000000000000000000000000000815260040161112d90611b0f565b60405180910390fd5b6111418383836116d4565b60008060008573ffffffffffffffffffffffffffffffffffffffff1673ffffffffffffffffffffffffffffffffffffffff168152602001908152602001600020549050818110156111c7576040517f08c379a00000000000000000000000000000000000000000000000000000000081526004016111be90611b8f565b60405180910390fd5b8181036000808673ffffffffffffffffffffffffffffffffffffffff1673ffffffffffffffffffffffffffffffffffffffff16815260200190815260200160002081905550816000808573ffffffffffffffffffffffffffffffffffffffff1673ffffffffffffffffffffffffffffffffffffffff168152602001908152602001600020600082825461125a9190611d41565b925050819055508273ffffffffffffffffffffffffffffffffffffffff168473ffffffffffffffffffffffffffffffffffffffff167fddf252ad1be2c89b69c2b068fc378daa952ba7f163c4a11628f55a4df523b3ef846040516112be9190611cef565b60405180910390a36112d18484846116d9565b50505050565b600073ffffffffffffffffffffffffffffffffffffffff168273ffffffffffffffffffffffffffffffffffffffff161415611347576040517f08c379a000000000000000000000000000000000000000000000000000000000815260040161133e90611ccf565b60405180910390fd5b611353600083836116d4565b80600260008282546113659190611d41565b92505081905550806000808473ffffffffffffffffffffffffffffffffffffffff1673ffffffffffffffffffffffffffffffffffffffff16815260200190815260200160002060008282546113ba9190611d41565b925050819055508173ffffffffffffffffffffffffffffffffffffffff16600073ffffffffffffffffffffffffffffffffffffffff167fddf252ad1be2c89b69c2b068fc378daa952ba7f163c4a11628f55a4df523b3ef8360405161141f9190611cef565b60405180910390a3611433600083836116d9565b5050565b600073ffffffffffffffffffffffffffffffffffffffff168273ffffffffffffffffffffffffffffffffffffffff1614156114a7576040517f08c379a000000000000000000000000000000000000000000000000000000000815260040161149e90611c2f565b60405180910390fd5b6114b3826000836116d4565b60008060008473ffffffffffffffffffffffffffffffffffffffff1673ffffffffffffffffffffffffffffffffffffffff16815260200190815260200160002054905081811015611539576040517f08c379a000000000000000000000000000000000000000000000000000000000815260040161153090611b2f565b60405180910390fd5b8181036000808573ffffffffffffffffffffffffffffffffffffffff1673ffffffffffffffffffffffffffffffffffffffff1681526020019081526020016000208190555081600260008282546115909190611d97565b92505081905550600073ffffffffffffffffffffffffffffffffffffffff168373ffffffffffffffffffffffffffffffffffffffff167fddf252ad1be2c89b69c2b068fc378daa952ba7f163c4a11628f55a4df523b3ef846040516115f59190611cef565b60405180910390a3611609836000846116d9565b505050565b6000600560009054906101000a900473ffffffffffffffffffffffffffffffffffffffff16905081600560006101000a81548173ffffffffffffffffffffffffffffffffffffffff021916908373ffffffffffffffffffffffffffffffffffffffff1602179055508173ffffffffffffffffffffffffffffffffffffffff168173ffffffffffffffffffffffffffffffffffffffff167f8be0079c531659141344cd1fd0a4f28419497f9722a3daafe3b4186f6b6457e060405160405180910390a35050565b505050565b505050565b6000813590506116ed816122dc565b92915050565b600081359050611702816122f3565b92915050565b60006020828403121561171e5761171d611ee3565b5b600061172c848285016116de565b91505092915050565b6000806040838503121561174c5761174b611ee3565b5b600061175a858286016116de565b925050602061176b858286016116de565b9150509250929050565b60008060006060848603121561178e5761178d611ee3565b5b600061179c868287016116de565b93505060206117ad868287016116de565b92505060406117be868287016116f3565b9150509250925092565b600080604083850312156117df576117de611ee3565b5b60006117ed858286016116de565b92505060206117fe858286016116f3565b9150509250929050565b60006020828403121561181e5761181d611ee3565b5b600061182c848285016116f3565b91505092915050565b61183e81611dcb565b82525050565b61184d81611ddd565b82525050565b600061185e82611d25565b6118688185611d30565b9350611878818560208601611e20565b61188181611ee8565b840191505092915050565b6000611899602383611d30565b91506118a482611ef9565b604082019050919050565b60006118bc602283611d30565b91506118c782611f48565b604082019050919050565b60006118df602683611d30565b91506118ea82611f97565b604082019050919050565b6000611902602283611d30565b915061190d82611fe6565b604082019050919050565b6000611925602683611d30565b915061193082612035565b604082019050919050565b6000611948601283611d30565b915061195382612084565b602082019050919050565b600061196b601a83611d30565b9150611976826120ad565b602082019050919050565b600061198e602883611d30565b9150611999826120d6565b604082019050919050565b60006119b1602083611d30565b91506119bc82612125565b602082019050919050565b60006119d4602183611d30565b91506119df8261214e565b604082019050919050565b60006119f7602583611d30565b9150611a028261219d565b604082019050919050565b6000611a1a602483611d30565b9150611a25826121ec565b604082019050919050565b6000611a3d601f83611d30565b9150611a488261223b565b602082019050919050565b6000611a60602583611d30565b9150611a6b82612264565b604082019050919050565b6000611a83601f83611d30565b9150611a8e826122b3565b602082019050919050565b611aa281611e09565b82525050565b611ab181611e13565b82525050565b6000602082019050611acc6000830184611835565b92915050565b6000602082019050611ae76000830184611844565b92915050565b60006020820190508181036000830152611b078184611853565b905092915050565b60006020820190508181036000830152611b288161188c565b9050919050565b60006020820190508181036000830152611b48816118af565b9050919050565b60006020820190508181036000830152611b68816118d2565b9050919050565b60006020820190508181036000830152611b88816118f5565b9050919050565b60006020820190508181036000830152611ba881611918565b9050919050565b60006020820190508181036000830152611bc88161193b565b9050919050565b60006020820190508181036000830152611be88161195e565b9050919050565b60006020820190508181036000830152611c0881611981565b9050919050565b60006020820190508181036000830152611c28816119a4565b9050919050565b60006020820190508181036000830152611c48816119c7565b9050919050565b60006020820190508181036000830152611c68816119ea565b9050919050565b60006020820190508181036000830152611c8881611a0d565b9050919050565b60006020820190508181036000830152611ca881611a30565b9050919050565b60006020820190508181036000830152611cc881611a53565b9050919050565b60006020820190508181036000830152611ce881611a76565b9050919050565b6000602082019050611d046000830184611a99565b92915050565b6000602082019050611d1f6000830184611aa8565b92915050565b600081519050919050565b600082825260208201905092915050565b6000611d4c82611e09565b9150611d5783611e09565b9250827fffffffffffffffffffffffffffffffffffffffffffffffffffffffffffffffff03821115611d8c57611d8b611e85565b5b828201905092915050565b6000611da282611e09565b9150611dad83611e09565b925082821015611dc057611dbf611e85565b5b828203905092915050565b6000611dd682611de9565b9050919050565b60008115159050919050565b600073ffffffffffffffffffffffffffffffffffffffff82169050919050565b6000819050919050565b600060ff82169050919050565b60005b83811015611e3e578082015181840152602081019050611e23565b83811115611e4d576000848401525b50505050565b60006002820490506001821680611e6b57607f821691505b60208210811415611e7f57611e7e611eb4565b5b50919050565b7f4e487b7100000000000000000000000000000000000000000000000000000000600052601160045260246000fd5b7f4e487b7100000000000000000000000000000000000000000000000000000000600052602260045260246000fd5b600080fd5b6000601f19601f8301169050919050565b7f45524332303a207472616e7366657220746f20746865207a65726f206164647260008201527f6573730000000000000000000000000000000000000000000000000000000000602082015250565b7f45524332303a206275726e20616d6f756e7420657863656564732062616c616e60008201527f6365000000000000000000000000000000000000000000000000000000000000602082015250565b7f4f776e61626c653a206e6577206f776e657220697320746865207a65726f206160008201527f6464726573730000000000000000000000000000000000000000000000000000602082015250565b7f45524332303a20617070726f766520746f20746865207a65726f20616464726560008201527f7373000000000000000000000000000000000000000000000000000000000000602082015250565b7f45524332303a207472616e7366657220616d6f756e742065786365656473206260008201527f616c616e63650000000000000000000000000000000000000000000000000000602082015250565b7f4e6f7420656e6f7567682062616c616e63650000000000000000000000000000600082015250565b7f4e6f7420617574686f72697a656420746f207472616e73666572000000000000600082015250565b7f45524332303a207472616e7366657220616d6f756e742065786365656473206160008201527f6c6c6f77616e6365000000000000000000000000000000000000000000000000602082015250565b7f4f776e61626c653a2063616c6c6572206973206e6f7420746865206f776e6572600082015250565b7f45524332303a206275726e2066726f6d20746865207a65726f2061646472657360008201527f7300000000000000000000000000000000000000000000000000000000000000602082015250565b7f45524332303a207472616e736665722066726f6d20746865207a65726f20616460008201527f6472657373000000000000000000000000000000000000000000000000000000602082015250565b7f45524332303a20617070726f76652066726f6d20746865207a65726f2061646460008201527f7265737300000000000000000000000000000000000000000000000000000000602082015250565b7f5265656e7472616e637947756172643a207265656e7472616e742063616c6c00600082015250565b7f45524332303a2064656372656173656420616c6c6f77616e63652062656c6f7760008201527f207a65726f000000000000000000000000000000000000000000000000000000602082015250565b7f45524332303a206d696e7420746f20746865207a65726f206164647265737300600082015250565b6122e581611dcb565b81146122f057600080fd5b50565b6122fc81611e09565b811461230757600080fd5b5056fea2646970667358221220d4b343edfd5387430ca484e79a477bffbb2bb6f28ea1abb195e41061f22d6afc64736f6c63430008070033",
  "immutableReferences": {},
  "source": "// SPDX-License-Identifier: MIT\r\npragma solidity ^0.8.7;\r\n\r\nimport \"@openzeppelin/contracts/token/ERC20/ERC20.sol\";\r\nimport \"@openzeppelin/contracts/access/Ownable.sol\";\r\nimport \"@openzeppelin/contracts/security/ReentrancyGuard.sol\";\r\n\r\ncontract AhoraCoin is ERC20, Ownable, ReentrancyGuard {\r\n    uint256 private constant INITIAL_SUPPLY = 1000000 * 10**18; //  \r\n\r\n    //     \r\n    mapping(address => address) private _delegates;\r\n\r\n    constructor() ERC20(\"Ahora\", \"AHO\") {\r\n        _mint(msg.sender, INITIAL_SUPPLY);\r\n    }\r\n\r\n    function mint(address to, uint256 amount) public onlyOwner {\r\n        _mint(to, amount);\r\n    }\r\n\r\n    function burn(uint256 amount) public {\r\n        _burn(msg.sender, amount);\r\n    }\r\n\r\n    //     \r\n    function delegateChange(address delegatee) public {\r\n        _delegates[msg.sender] = delegatee;\r\n    }\r\n\r\n    //     \r\n    function delegateRemove() public {\r\n        _delegates[msg.sender] = address(0);\r\n    }\r\n\r\n    //   \r\n    function transferSenderToUser(address _to, uint256 _amount) public nonReentrant returns (bool) {\r\n        require(balanceOf(msg.sender) >= _amount, \"Not enough balance\");\r\n        _transfer(msg.sender, _to, _amount);\r\n        return true;\r\n    }\r\n\r\n    //    \r\n    function transferUserToUser(address _from, address _to, uint256 _amount) public nonReentrant returns (bool) {\r\n      require(msg.sender == _from || _delegates[_from] == msg.sender, \"Not authorized to transfer\");\r\n      require(balanceOf(_from) >= _amount, \"Not enough balance\");\r\n      _transfer(_from, _to, _amount);\r\n      return true;\r\n    }\r\n}",
  "sourcePath": "C:\\Users\\SSAFY\\Desktop\\semonemo\\backend\\blockchain-server\\smartcontract\\contracts\\Coin.sol",
  "compiler": {
    "name": "solc",
    "version": "0.8.7+commit.e28d00a7.Emscripten.clang"
  },
  "schemaVersion": "3.4.16",
  "updatedAt": "2024-09-11T07:30:10.948Z",
  "networkType": "ethereum",
  "devdoc": {
    "kind": "dev",
    "methods": {
      "allowance(address,address)": {
        "details": "See {IERC20-allowance}."
      },
      "approve(address,uint256)": {
        "details": "See {IERC20-approve}. Requirements: - `spender` cannot be the zero address."
      },
      "balanceOf(address)": {
        "details": "See {IERC20-balanceOf}."
      },
      "decimals()": {
        "details": "Returns the number of decimals used to get its user representation. For example, if `decimals` equals `2`, a balance of `505` tokens should be displayed to a user as `5.05` (`505 / 10 ** 2`). Tokens usually opt for a value of 18, imitating the relationship between Ether and Wei. This is the value {ERC20} uses, unless this function is overridden; NOTE: This information is only used for _display_ purposes: it in no way affects any of the arithmetic of the contract, including {IERC20-balanceOf} and {IERC20-transfer}."
      },
      "decreaseAllowance(address,uint256)": {
        "details": "Atomically decreases the allowance granted to `spender` by the caller. This is an alternative to {approve} that can be used as a mitigation for problems described in {IERC20-approve}. Emits an {Approval} event indicating the updated allowance. Requirements: - `spender` cannot be the zero address. - `spender` must have allowance for the caller of at least `subtractedValue`."
      },
      "increaseAllowance(address,uint256)": {
        "details": "Atomically increases the allowance granted to `spender` by the caller. This is an alternative to {approve} that can be used as a mitigation for problems described in {IERC20-approve}. Emits an {Approval} event indicating the updated allowance. Requirements: - `spender` cannot be the zero address."
      },
      "name()": {
        "details": "Returns the name of the token."
      },
      "owner()": {
        "details": "Returns the address of the current owner."
      },
      "renounceOwnership()": {
        "details": "Leaves the contract without owner. It will not be possible to call `onlyOwner` functions anymore. Can only be called by the current owner. NOTE: Renouncing ownership will leave the contract without an owner, thereby removing any functionality that is only available to the owner."
      },
      "symbol()": {
        "details": "Returns the symbol of the token, usually a shorter version of the name."
      },
      "totalSupply()": {
        "details": "See {IERC20-totalSupply}."
      },
      "transfer(address,uint256)": {
        "details": "See {IERC20-transfer}. Requirements: - `recipient` cannot be the zero address. - the caller must have a balance of at least `amount`."
      },
      "transferFrom(address,address,uint256)": {
        "details": "See {IERC20-transferFrom}. Emits an {Approval} event indicating the updated allowance. This is not required by the EIP. See the note at the beginning of {ERC20}. Requirements: - `sender` and `recipient` cannot be the zero address. - `sender` must have a balance of at least `amount`. - the caller must have allowance for ``sender``'s tokens of at least `amount`."
      },
      "transferOwnership(address)": {
        "details": "Transfers ownership of the contract to a new account (`newOwner`). Can only be called by the current owner."
      }
    },
    "version": 1
  },
  "userdoc": {
    "kind": "user",
    "methods": {},
    "version": 1
  }
}