{
  "contractName": "IntegratedNFTSystem",
  "abi": [
    {
      "inputs": [
        {
          "internalType": "address",
          "name": "_nftContractAddress",
          "type": "address"
        },
        {
          "internalType": "address",
          "name": "_tokenContractAddress",
          "type": "address"
        }
      ],
      "stateMutability": "nonpayable",
      "type": "constructor"
    },
    {
      "anonymous": false,
      "inputs": [
        {
          "indexed": true,
          "internalType": "uint256",
          "name": "nftId",
          "type": "uint256"
        },
        {
          "indexed": true,
          "internalType": "address",
          "name": "seller",
          "type": "address"
        }
      ],
      "name": "AuctionCancelled",
      "type": "event"
    },
    {
      "anonymous": false,
      "inputs": [
        {
          "indexed": true,
          "internalType": "uint256",
          "name": "nftId",
          "type": "uint256"
        },
        {
          "indexed": true,
          "internalType": "address",
          "name": "seller",
          "type": "address"
        },
        {
          "indexed": true,
          "internalType": "address",
          "name": "buyer",
          "type": "address"
        },
        {
          "indexed": false,
          "internalType": "uint256",
          "name": "price",
          "type": "uint256"
        }
      ],
      "name": "AuctionClosed",
      "type": "event"
    },
    {
      "anonymous": false,
      "inputs": [
        {
          "indexed": true,
          "internalType": "uint256",
          "name": "nftId",
          "type": "uint256"
        },
        {
          "indexed": true,
          "internalType": "address",
          "name": "seller",
          "type": "address"
        },
        {
          "indexed": false,
          "internalType": "uint256",
          "name": "price",
          "type": "uint256"
        }
      ],
      "name": "AuctionStarted",
      "type": "event"
    },
    {
      "anonymous": false,
      "inputs": [
        {
          "indexed": true,
          "internalType": "address",
          "name": "from",
          "type": "address"
        },
        {
          "indexed": true,
          "internalType": "address",
          "name": "to",
          "type": "address"
        },
        {
          "indexed": false,
          "internalType": "uint256",
          "name": "amount",
          "type": "uint256"
        }
      ],
      "name": "BalanceAdjusted",
      "type": "event"
    },
    {
      "anonymous": false,
      "inputs": [
        {
          "indexed": true,
          "internalType": "address",
          "name": "user",
          "type": "address"
        },
        {
          "indexed": false,
          "internalType": "uint256",
          "name": "amount",
          "type": "uint256"
        }
      ],
      "name": "Deposit",
      "type": "event"
    },
    {
      "anonymous": false,
      "inputs": [
        {
          "indexed": true,
          "internalType": "uint256",
          "name": "nftId",
          "type": "uint256"
        },
        {
          "indexed": true,
          "internalType": "address",
          "name": "seller",
          "type": "address"
        }
      ],
      "name": "MarketCancelled",
      "type": "event"
    },
    {
      "anonymous": false,
      "inputs": [
        {
          "indexed": true,
          "internalType": "uint256",
          "name": "nftId",
          "type": "uint256"
        },
        {
          "indexed": true,
          "internalType": "address",
          "name": "seller",
          "type": "address"
        },
        {
          "indexed": false,
          "internalType": "uint256",
          "name": "price",
          "type": "uint256"
        }
      ],
      "name": "MarketCreated",
      "type": "event"
    },
    {
      "anonymous": false,
      "inputs": [
        {
          "indexed": true,
          "internalType": "uint256",
          "name": "nftId",
          "type": "uint256"
        },
        {
          "indexed": true,
          "internalType": "address",
          "name": "seller",
          "type": "address"
        },
        {
          "indexed": true,
          "internalType": "address",
          "name": "buyer",
          "type": "address"
        },
        {
          "indexed": false,
          "internalType": "uint256",
          "name": "price",
          "type": "uint256"
        }
      ],
      "name": "MarketSold",
      "type": "event"
    },
    {
      "anonymous": false,
      "inputs": [
        {
          "indexed": true,
          "internalType": "address",
          "name": "previousOwner",
          "type": "address"
        },
        {
          "indexed": true,
          "internalType": "address",
          "name": "newOwner",
          "type": "address"
        }
      ],
      "name": "OwnershipTransferred",
      "type": "event"
    },
    {
      "anonymous": false,
      "inputs": [
        {
          "indexed": true,
          "internalType": "address",
          "name": "user",
          "type": "address"
        },
        {
          "indexed": false,
          "internalType": "uint256",
          "name": "amount",
          "type": "uint256"
        }
      ],
      "name": "Withdrawal",
      "type": "event"
    },
    {
      "inputs": [
        {
          "internalType": "uint256",
          "name": "",
          "type": "uint256"
        }
      ],
      "name": "auctions",
      "outputs": [
        {
          "internalType": "uint256",
          "name": "nftId",
          "type": "uint256"
        },
        {
          "internalType": "address",
          "name": "seller",
          "type": "address"
        },
        {
          "internalType": "uint256",
          "name": "price",
          "type": "uint256"
        }
      ],
      "stateMutability": "view",
      "type": "function",
      "constant": true
    },
    {
      "inputs": [
        {
          "internalType": "uint256",
          "name": "_nftId",
          "type": "uint256"
        }
      ],
      "name": "buyMarket",
      "outputs": [],
      "stateMutability": "nonpayable",
      "type": "function"
    },
    {
      "inputs": [
        {
          "internalType": "uint256",
          "name": "_nftId",
          "type": "uint256"
        }
      ],
      "name": "cancelAuction",
      "outputs": [],
      "stateMutability": "nonpayable",
      "type": "function"
    },
    {
      "inputs": [
        {
          "internalType": "uint256",
          "name": "_nftId",
          "type": "uint256"
        }
      ],
      "name": "cancelMarket",
      "outputs": [],
      "stateMutability": "nonpayable",
      "type": "function"
    },
    {
      "inputs": [
        {
          "internalType": "uint256",
          "name": "_nftId",
          "type": "uint256"
        },
        {
          "internalType": "address",
          "name": "buyer",
          "type": "address"
        }
      ],
      "name": "closeAuction",
      "outputs": [],
      "stateMutability": "nonpayable",
      "type": "function"
    },
    {
      "inputs": [
        {
          "internalType": "uint256",
          "name": "_nftId",
          "type": "uint256"
        },
        {
          "internalType": "uint256",
          "name": "price",
          "type": "uint256"
        }
      ],
      "name": "createMarket",
      "outputs": [],
      "stateMutability": "nonpayable",
      "type": "function"
    },
    {
      "inputs": [
        {
          "internalType": "uint256",
          "name": "amount",
          "type": "uint256"
        }
      ],
      "name": "deposit",
      "outputs": [],
      "stateMutability": "nonpayable",
      "type": "function"
    },
    {
      "inputs": [
        {
          "internalType": "uint256",
          "name": "_nftId",
          "type": "uint256"
        }
      ],
      "name": "getAuctionInfo",
      "outputs": [
        {
          "components": [
            {
              "internalType": "uint256",
              "name": "nftId",
              "type": "uint256"
            },
            {
              "internalType": "address",
              "name": "seller",
              "type": "address"
            },
            {
              "internalType": "uint256",
              "name": "price",
              "type": "uint256"
            }
          ],
          "internalType": "struct NFTAuction.Auction",
          "name": "",
          "type": "tuple"
        }
      ],
      "stateMutability": "view",
      "type": "function",
      "constant": true
    },
    {
      "inputs": [],
      "name": "getContractBalance",
      "outputs": [
        {
          "internalType": "uint256",
          "name": "",
          "type": "uint256"
        }
      ],
      "stateMutability": "view",
      "type": "function",
      "constant": true
    },
    {
      "inputs": [],
      "name": "getContractOwnedNFTs",
      "outputs": [
        {
          "internalType": "uint256[]",
          "name": "",
          "type": "uint256[]"
        }
      ],
      "stateMutability": "view",
      "type": "function",
      "constant": true
    },
    {
      "inputs": [
        {
          "internalType": "uint256",
          "name": "_nftId",
          "type": "uint256"
        }
      ],
      "name": "getMarketInfo",
      "outputs": [
        {
          "components": [
            {
              "internalType": "uint256",
              "name": "nftId",
              "type": "uint256"
            },
            {
              "internalType": "address",
              "name": "seller",
              "type": "address"
            },
            {
              "internalType": "uint256",
              "name": "price",
              "type": "uint256"
            }
          ],
          "internalType": "struct NFTMarket.Market",
          "name": "",
          "type": "tuple"
        }
      ],
      "stateMutability": "view",
      "type": "function",
      "constant": true
    },
    {
      "inputs": [
        {
          "internalType": "address",
          "name": "user",
          "type": "address"
        }
      ],
      "name": "getUserBalance",
      "outputs": [
        {
          "internalType": "uint256",
          "name": "",
          "type": "uint256"
        }
      ],
      "stateMutability": "view",
      "type": "function",
      "constant": true
    },
    {
      "inputs": [
        {
          "internalType": "uint256",
          "name": "",
          "type": "uint256"
        }
      ],
      "name": "markets",
      "outputs": [
        {
          "internalType": "uint256",
          "name": "nftId",
          "type": "uint256"
        },
        {
          "internalType": "address",
          "name": "seller",
          "type": "address"
        },
        {
          "internalType": "uint256",
          "name": "price",
          "type": "uint256"
        }
      ],
      "stateMutability": "view",
      "type": "function",
      "constant": true
    },
    {
      "inputs": [],
      "name": "nftContract",
      "outputs": [
        {
          "internalType": "contract NFTFrame",
          "name": "",
          "type": "address"
        }
      ],
      "stateMutability": "view",
      "type": "function",
      "constant": true
    },
    {
      "inputs": [],
      "name": "owner",
      "outputs": [
        {
          "internalType": "address",
          "name": "",
          "type": "address"
        }
      ],
      "stateMutability": "view",
      "type": "function",
      "constant": true
    },
    {
      "inputs": [],
      "name": "renounceOwnership",
      "outputs": [],
      "stateMutability": "nonpayable",
      "type": "function"
    },
    {
      "inputs": [
        {
          "internalType": "uint256",
          "name": "_nftId",
          "type": "uint256"
        },
        {
          "internalType": "uint256",
          "name": "price",
          "type": "uint256"
        }
      ],
      "name": "startAuction",
      "outputs": [],
      "stateMutability": "nonpayable",
      "type": "function"
    },
    {
      "inputs": [],
      "name": "tokenContract",
      "outputs": [
        {
          "internalType": "contract AhoraCoin",
          "name": "",
          "type": "address"
        }
      ],
      "stateMutability": "view",
      "type": "function",
      "constant": true
    },
    {
      "inputs": [
        {
          "internalType": "address",
          "name": "newOwner",
          "type": "address"
        }
      ],
      "name": "transferOwnership",
      "outputs": [],
      "stateMutability": "nonpayable",
      "type": "function"
    },
    {
      "inputs": [
        {
          "internalType": "uint256",
          "name": "amount",
          "type": "uint256"
        }
      ],
      "name": "withdraw",
      "outputs": [],
      "stateMutability": "nonpayable",
      "type": "function"
    },
    {
      "inputs": [],
      "name": "getAllContractOwnedNFTs",
      "outputs": [
        {
          "internalType": "uint256[]",
          "name": "",
          "type": "uint256[]"
        }
      ],
      "stateMutability": "view",
      "type": "function",
      "constant": true
    },
    {
      "inputs": [],
      "name": "getTotalContractBalance",
      "outputs": [
        {
          "internalType": "uint256",
          "name": "",
          "type": "uint256"
        }
      ],
      "stateMutability": "view",
      "type": "function",
      "constant": true
    },
    {
      "inputs": [],
      "name": "getCombinedOwnedAssets",
      "outputs": [
        {
          "internalType": "uint256[]",
          "name": "nftIds",
          "type": "uint256[]"
        },
        {
          "internalType": "uint256",
          "name": "totalCoins",
          "type": "uint256"
        }
      ],
      "stateMutability": "view",
      "type": "function",
      "constant": true
    }
  ],
  "bytecode": "0x60806040523480156200001157600080fd5b5060405162003f9738038062003f978339818101604052810190620000379190620003f2565b620000576200004b6200019a60201b60201c565b620001a260201b60201c565b600180819055506200007082826200026660201b60201c565b600260009054906101000a900473ffffffffffffffffffffffffffffffffffffffff1673ffffffffffffffffffffffffffffffffffffffff1663ec9da59e306040518263ffffffff1660e01b8152600401620000cd919062000471565b600060405180830381600087803b158015620000e857600080fd5b505af1158015620000fd573d6000803e3d6000fd5b50505050600360009054906101000a900473ffffffffffffffffffffffffffffffffffffffff1673ffffffffffffffffffffffffffffffffffffffff1663ec9da59e306040518263ffffffff1660e01b81526004016200015e919062000471565b600060405180830381600087803b1580156200017957600080fd5b505af11580156200018e573d6000803e3d6000fd5b5050505050506200053d565b600033905090565b60008060009054906101000a900473ffffffffffffffffffffffffffffffffffffffff169050816000806101000a81548173ffffffffffffffffffffffffffffffffffffffff021916908373ffffffffffffffffffffffffffffffffffffffff1602179055508173ffffffffffffffffffffffffffffffffffffffff168173ffffffffffffffffffffffffffffffffffffffff167f8be0079c531659141344cd1fd0a4f28419497f9722a3daafe3b4186f6b6457e060405160405180910390a35050565b600073ffffffffffffffffffffffffffffffffffffffff16600260009054906101000a900473ffffffffffffffffffffffffffffffffffffffff1673ffffffffffffffffffffffffffffffffffffffff16148015620003135750600073ffffffffffffffffffffffffffffffffffffffff16600360009054906101000a900473ffffffffffffffffffffffffffffffffffffffff1673ffffffffffffffffffffffffffffffffffffffff16145b62000355576040517f08c379a00000000000000000000000000000000000000000000000000000000081526004016200034c906200048e565b60405180910390fd5b81600260006101000a81548173ffffffffffffffffffffffffffffffffffffffff021916908373ffffffffffffffffffffffffffffffffffffffff16021790555080600360006101000a81548173ffffffffffffffffffffffffffffffffffffffff021916908373ffffffffffffffffffffffffffffffffffffffff1602179055505050565b600081519050620003ec8162000523565b92915050565b600080604083850312156200040c576200040b620004f5565b5b60006200041c85828601620003db565b92505060206200042f85828601620003db565b9150509250929050565b6200044481620004c1565b82525050565b600062000459601d83620004b0565b91506200046682620004fa565b602082019050919050565b600060208201905062000488600083018462000439565b92915050565b60006020820190508181036000830152620004a9816200044a565b9050919050565b600082825260208201905092915050565b6000620004ce82620004d5565b9050919050565b600073ffffffffffffffffffffffffffffffffffffffff82169050919050565b600080fd5b7f436f6e74726163747320616c726561647920696e697469616c697a6564000000600082015250565b6200052e81620004c1565b81146200053a57600080fd5b50565b613a4a806200054d6000396000f3fe608060405234801561001057600080fd5b506004361061014d5760003560e01c80638da5cb5b116100c3578063d3e6fa191161007c578063d3e6fa191461037b578063d56d229d14610399578063d9e3fd64146103b7578063f2fde38b146103d5578063f90852c7146103f1578063fc3fc4ed1461040d5761014d565b80638da5cb5b146102b857806396b5a755146102d6578063a6c7523a146102f2578063b1283e7714610311578063b6b55f2514610343578063c7604fec1461035f5761014d565b8063571a26a011610115578063571a26a0146102085780636bab66ae1461023a5780636f9fb98a14610256578063715018a61461027457806373ddccb51461027e5780637c16cd9e1461029c5761014d565b80632e1a7d4d146101525780633ec791931461016e578063477348921461019e5780634fee13fc146101ce57806355a373d6146101ea575b600080fd5b61016c60048036038101906101679190612ab1565b61043d565b005b61018860048036038101906101839190612ab1565b6106ec565b60405161019591906132f6565b60405180910390f35b6101b860048036038101906101b391906129e1565b6107fd565b6040516101c59190613311565b60405180910390f35b6101e860048036038101906101e39190612b4b565b610846565b005b6101f2610b7c565b6040516101ff9190613045565b60405180910390f35b610222600480360381019061021d9190612ab1565b610ba2565b6040516102319392919061338c565b60405180910390f35b610254600480360381019061024f9190612b0b565b610bec565b005b61025e61102b565b60405161026b9190613311565b60405180910390f35b61027c6110dd565b005b610286611165565b6040516102939190612ff3565b60405180910390f35b6102b660048036038101906102b19190612ab1565b611174565b005b6102c0611563565b6040516102cd9190612f78565b60405180910390f35b6102f060048036038101906102eb9190612ab1565b61158c565b005b6102fa61197b565b604051610308929190613015565b60405180910390f35b61032b60048036038101906103269190612ab1565b6119a2565b60405161033a9392919061338c565b60405180910390f35b61035d60048036038101906103589190612ab1565b6119ec565b005b61037960048036038101906103749190612b4b565b611c1b565b005b610383611f51565b6040516103909190612ff3565b60405180910390f35b6103a1612008565b6040516103ae9190613060565b60405180910390f35b6103bf61202e565b6040516103cc9190613311565b60405180910390f35b6103ef60048036038101906103ea91906129e1565b61203d565b005b61040b60048036038101906104069190612ab1565b612135565b005b61042760048036038101906104229190612ab1565b6124f7565b60405161043491906132db565b60405180910390f35b60026001541415610483576040517f08c379a000000000000000000000000000000000000000000000000000000000815260040161047a9061329b565b60405180910390fd5b6002600181905550600081116104ce576040517f08c379a00000000000000000000000000000000000000000000000000000000081526004016104c5906131db565b60405180910390fd5b80600460003373ffffffffffffffffffffffffffffffffffffffff1673ffffffffffffffffffffffffffffffffffffffff168152602001908152602001600020541015610550576040517f08c379a00000000000000000000000000000000000000000000000000000000081526004016105479061315b565b60405180910390fd5b80600460003373ffffffffffffffffffffffffffffffffffffffff1673ffffffffffffffffffffffffffffffffffffffff168152602001908152602001600020600082825461059f91906134b4565b92505081905550600360009054906101000a900473ffffffffffffffffffffffffffffffffffffffff1673ffffffffffffffffffffffffffffffffffffffff16631b33a8db33836040518363ffffffff1660e01b8152600401610603929190612fca565b602060405180830381600087803b15801561061d57600080fd5b505af1158015610631573d6000803e3d6000fd5b505050506040513d601f19601f820116820180604052508101906106559190612a84565b610694576040517f08c379a000000000000000000000000000000000000000000000000000000000815260040161068b9061311b565b60405180910390fd5b3373ffffffffffffffffffffffffffffffffffffffff167f7fcf532c15f0a6db0bd6d0e038bea71d30d808c7d98cb3bf7268a95bf5081b65826040516106da9190613311565b60405180910390a26001808190555050565b6106f461286c565b600060066000848152602001908152602001600020604051806060016040529081600082015481526020016001820160009054906101000a900473ffffffffffffffffffffffffffffffffffffffff1673ffffffffffffffffffffffffffffffffffffffff1673ffffffffffffffffffffffffffffffffffffffff1681526020016002820154815250509050600073ffffffffffffffffffffffffffffffffffffffff16816020015173ffffffffffffffffffffffffffffffffffffffff1614156107f4576040517f08c379a00000000000000000000000000000000000000000000000000000000081526004016107eb9061307b565b60405180910390fd5b80915050919050565b6000600460008373ffffffffffffffffffffffffffffffffffffffff1673ffffffffffffffffffffffffffffffffffffffff168152602001908152602001600020549050919050565b6002600154141561088c576040517f08c379a00000000000000000000000000000000000000000000000000000000081526004016108839061329b565b60405180910390fd5b60026001819055503373ffffffffffffffffffffffffffffffffffffffff16600260009054906101000a900473ffffffffffffffffffffffffffffffffffffffff1673ffffffffffffffffffffffffffffffffffffffff16636352211e846040518263ffffffff1660e01b81526004016109069190613311565b60206040518083038186803b15801561091e57600080fd5b505afa158015610932573d6000803e3d6000fd5b505050506040513d601f19601f820116820180604052508101906109569190612a0e565b73ffffffffffffffffffffffffffffffffffffffff16146109ac576040517f08c379a00000000000000000000000000000000000000000000000000000000081526004016109a39061317b565b60405180910390fd5b600081116109ef576040517f08c379a00000000000000000000000000000000000000000000000000000000081526004016109e6906130db565b60405180910390fd5b600260009054906101000a900473ffffffffffffffffffffffffffffffffffffffff1673ffffffffffffffffffffffffffffffffffffffff16634f89cea68333306040518463ffffffff1660e01b8152600401610a4e93929190613355565b600060405180830381600087803b158015610a6857600080fd5b505af1158015610a7c573d6000803e3d6000fd5b5050505060405180606001604052808381526020013373ffffffffffffffffffffffffffffffffffffffff16815260200182815250600560008481526020019081526020016000206000820151816000015560208201518160010160006101000a81548173ffffffffffffffffffffffffffffffffffffffff021916908373ffffffffffffffffffffffffffffffffffffffff160217905550604082015181600201559050503373ffffffffffffffffffffffffffffffffffffffff16827fd7d053b3d3fc9e8145896f8940adeb377f6735866f2161ef1660dae9f049247583604051610b699190613311565b60405180910390a3600180819055505050565b600360009054906101000a900473ffffffffffffffffffffffffffffffffffffffff1681565b60056020528060005260406000206000915090508060000154908060010160009054906101000a900473ffffffffffffffffffffffffffffffffffffffff16908060020154905083565b60026001541415610c32576040517f08c379a0000000000000000000000000000000000000000000000000000000008152600401610c299061329b565b60405180910390fd5b6002600181905550610c42612608565b73ffffffffffffffffffffffffffffffffffffffff16610c60611563565b73ffffffffffffffffffffffffffffffffffffffff1614610cb6576040517f08c379a0000000000000000000000000000000000000000000000000000000008152600401610cad906131bb565b60405180910390fd5b6000600560008481526020019081526020016000209050600073ffffffffffffffffffffffffffffffffffffffff168160010160009054906101000a900473ffffffffffffffffffffffffffffffffffffffff1673ffffffffffffffffffffffffffffffffffffffff161415610d61576040517f08c379a0000000000000000000000000000000000000000000000000000000008152600401610d58906132bb565b60405180910390fd5b8060010160009054906101000a900473ffffffffffffffffffffffffffffffffffffffff1673ffffffffffffffffffffffffffffffffffffffff168273ffffffffffffffffffffffffffffffffffffffff161415610df4576040517f08c379a0000000000000000000000000000000000000000000000000000000008152600401610deb9061321b565b60405180910390fd5b60008160020154905060008260010160009054906101000a900473ffffffffffffffffffffffffffffffffffffffff16905081610e30856107fd565b1015610e71576040517f08c379a0000000000000000000000000000000000000000000000000000000008152600401610e689061315b565b60405180910390fd5b610e7c848284612610565b600260009054906101000a900473ffffffffffffffffffffffffffffffffffffffff1673ffffffffffffffffffffffffffffffffffffffff16639036c05086866040518363ffffffff1660e01b8152600401610ed992919061332c565b602060405180830381600087803b158015610ef357600080fd5b505af1158015610f07573d6000803e3d6000fd5b505050506040513d601f19601f82011682018060405250810190610f2b9190612a84565b610f6a576040517f08c379a0000000000000000000000000000000000000000000000000000000008152600401610f619061325b565b60405180910390fd5b600560008681526020019081526020016000206000808201600090556001820160006101000a81549073ffffffffffffffffffffffffffffffffffffffff0219169055600282016000905550508373ffffffffffffffffffffffffffffffffffffffff168173ffffffffffffffffffffffffffffffffffffffff16867f7787e67b4b8529b1aa2c1a59dbf0f0e766d63860956b86f33f5d870088235501856040516110159190613311565b60405180910390a4505050600180819055505050565b6000600360009054906101000a900473ffffffffffffffffffffffffffffffffffffffff1673ffffffffffffffffffffffffffffffffffffffff166370a08231306040518263ffffffff1660e01b81526004016110889190612f78565b60206040518083038186803b1580156110a057600080fd5b505afa1580156110b4573d6000803e3d6000fd5b505050506040513d601f19601f820116820180604052508101906110d89190612ade565b905090565b6110e5612608565b73ffffffffffffffffffffffffffffffffffffffff16611103611563565b73ffffffffffffffffffffffffffffffffffffffff1614611159576040517f08c379a0000000000000000000000000000000000000000000000000000000008152600401611150906131bb565b60405180910390fd5b61116360006127a8565b565b606061116f611f51565b905090565b600260015414156111ba576040517f08c379a00000000000000000000000000000000000000000000000000000000081526004016111b19061329b565b60405180910390fd5b600260018190555060006006600083815260200190815260200160002090503073ffffffffffffffffffffffffffffffffffffffff16600260009054906101000a900473ffffffffffffffffffffffffffffffffffffffff1673ffffffffffffffffffffffffffffffffffffffff16636352211e846040518263ffffffff1660e01b815260040161124b9190613311565b60206040518083038186803b15801561126357600080fd5b505afa158015611277573d6000803e3d6000fd5b505050506040513d601f19601f8201168201806040525081019061129b9190612a0e565b73ffffffffffffffffffffffffffffffffffffffff16146112f1576040517f08c379a00000000000000000000000000000000000000000000000000000000081526004016112e89061327b565b60405180910390fd5b3373ffffffffffffffffffffffffffffffffffffffff168160010160009054906101000a900473ffffffffffffffffffffffffffffffffffffffff1673ffffffffffffffffffffffffffffffffffffffff1614611383576040517f08c379a000000000000000000000000000000000000000000000000000000000815260040161137a9061317b565b60405180910390fd5b600073ffffffffffffffffffffffffffffffffffffffff168160010160009054906101000a900473ffffffffffffffffffffffffffffffffffffffff1673ffffffffffffffffffffffffffffffffffffffff161415611417576040517f08c379a000000000000000000000000000000000000000000000000000000000815260040161140e906131fb565b60405180910390fd5b600260009054906101000a900473ffffffffffffffffffffffffffffffffffffffff1673ffffffffffffffffffffffffffffffffffffffff16639036c05083336040518363ffffffff1660e01b815260040161147492919061332c565b602060405180830381600087803b15801561148e57600080fd5b505af11580156114a2573d6000803e3d6000fd5b505050506040513d601f19601f820116820180604052508101906114c69190612a84565b50600660008381526020019081526020016000206000808201600090556001820160006101000a81549073ffffffffffffffffffffffffffffffffffffffff0219169055600282016000905550503373ffffffffffffffffffffffffffffffffffffffff16827f80cbe856a464968c63953aeb2dd84c12de3a0715985cae2ea35d3ed87e39ddc360405160405180910390a3506001808190555050565b60008060009054906101000a900473ffffffffffffffffffffffffffffffffffffffff16905090565b600260015414156115d2576040517f08c379a00000000000000000000000000000000000000000000000000000000081526004016115c99061329b565b60405180910390fd5b600260018190555060006005600083815260200190815260200160002090503073ffffffffffffffffffffffffffffffffffffffff16600260009054906101000a900473ffffffffffffffffffffffffffffffffffffffff1673ffffffffffffffffffffffffffffffffffffffff16636352211e846040518263ffffffff1660e01b81526004016116639190613311565b60206040518083038186803b15801561167b57600080fd5b505afa15801561168f573d6000803e3d6000fd5b505050506040513d601f19601f820116820180604052508101906116b39190612a0e565b73ffffffffffffffffffffffffffffffffffffffff1614611709576040517f08c379a00000000000000000000000000000000000000000000000000000000081526004016117009061319b565b60405180910390fd5b3373ffffffffffffffffffffffffffffffffffffffff168160010160009054906101000a900473ffffffffffffffffffffffffffffffffffffffff1673ffffffffffffffffffffffffffffffffffffffff161461179b576040517f08c379a00000000000000000000000000000000000000000000000000000000081526004016117929061317b565b60405180910390fd5b600073ffffffffffffffffffffffffffffffffffffffff168160010160009054906101000a900473ffffffffffffffffffffffffffffffffffffffff1673ffffffffffffffffffffffffffffffffffffffff16141561182f576040517f08c379a0000000000000000000000000000000000000000000000000000000008152600401611826906132bb565b60405180910390fd5b600260009054906101000a900473ffffffffffffffffffffffffffffffffffffffff1673ffffffffffffffffffffffffffffffffffffffff16639036c05083336040518363ffffffff1660e01b815260040161188c92919061332c565b602060405180830381600087803b1580156118a657600080fd5b505af11580156118ba573d6000803e3d6000fd5b505050506040513d601f19601f820116820180604052508101906118de9190612a84565b50600560008381526020019081526020016000206000808201600090556001820160006101000a81549073ffffffffffffffffffffffffffffffffffffffff0219169055600282016000905550503373ffffffffffffffffffffffffffffffffffffffff16827f10ac9f0bb365b5d22d7bec500408692f23fdf83eadfec71615ef88b4c1134f0e60405160405180910390a3506001808190555050565b6060600080611988611165565b9050600061199461202e565b905081819350935050509091565b60066020528060005260406000206000915090508060000154908060010160009054906101000a900473ffffffffffffffffffffffffffffffffffffffff16908060020154905083565b60026001541415611a32576040517f08c379a0000000000000000000000000000000000000000000000000000000008152600401611a299061329b565b60405180910390fd5b600260018190555060008111611a7d576040517f08c379a0000000000000000000000000000000000000000000000000000000008152600401611a74906130bb565b60405180910390fd5b600360009054906101000a900473ffffffffffffffffffffffffffffffffffffffff1673ffffffffffffffffffffffffffffffffffffffff1663f67ac38c3330846040518463ffffffff1660e01b8152600401611adc93929190612f93565b602060405180830381600087803b158015611af657600080fd5b505af1158015611b0a573d6000803e3d6000fd5b505050506040513d601f19601f82011682018060405250810190611b2e9190612a84565b611b6d576040517f08c379a0000000000000000000000000000000000000000000000000000000008152600401611b649061311b565b60405180910390fd5b80600460003373ffffffffffffffffffffffffffffffffffffffff1673ffffffffffffffffffffffffffffffffffffffff1681526020019081526020016000206000828254611bbc919061345e565b925050819055503373ffffffffffffffffffffffffffffffffffffffff167fe1fffcc4923d04b559f4d29a8bfc6cda04eb5b0d3c460751c2402c5c5cc9109c82604051611c099190613311565b60405180910390a26001808190555050565b60026001541415611c61576040517f08c379a0000000000000000000000000000000000000000000000000000000008152600401611c589061329b565b60405180910390fd5b60026001819055503373ffffffffffffffffffffffffffffffffffffffff16600260009054906101000a900473ffffffffffffffffffffffffffffffffffffffff1673ffffffffffffffffffffffffffffffffffffffff16636352211e846040518263ffffffff1660e01b8152600401611cdb9190613311565b60206040518083038186803b158015611cf357600080fd5b505afa158015611d07573d6000803e3d6000fd5b505050506040513d601f19601f82011682018060405250810190611d2b9190612a0e565b73ffffffffffffffffffffffffffffffffffffffff1614611d81576040517f08c379a0000000000000000000000000000000000000000000000000000000008152600401611d789061317b565b60405180910390fd5b60008111611dc4576040517f08c379a0000000000000000000000000000000000000000000000000000000008152600401611dbb906130db565b60405180910390fd5b600260009054906101000a900473ffffffffffffffffffffffffffffffffffffffff1673ffffffffffffffffffffffffffffffffffffffff16634f89cea68333306040518463ffffffff1660e01b8152600401611e2393929190613355565b600060405180830381600087803b158015611e3d57600080fd5b505af1158015611e51573d6000803e3d6000fd5b5050505060405180606001604052808381526020013373ffffffffffffffffffffffffffffffffffffffff16815260200182815250600660008481526020019081526020016000206000820151816000015560208201518160010160006101000a81548173ffffffffffffffffffffffffffffffffffffffff021916908373ffffffffffffffffffffffffffffffffffffffff160217905550604082015181600201559050503373ffffffffffffffffffffffffffffffffffffffff16827f557e20be357a3ff3fc08cf2b8e6986333057886a281d0409a7e751c3fd700ec083604051611f3e9190613311565b60405180910390a3600180819055505050565b6060600260009054906101000a900473ffffffffffffffffffffffffffffffffffffffff1673ffffffffffffffffffffffffffffffffffffffff1663e6b1fa2a306040518263ffffffff1660e01b8152600401611fae9190612f78565b60006040518083038186803b158015611fc657600080fd5b505afa158015611fda573d6000803e3d6000fd5b505050506040513d6000823e3d601f19601f820116820180604052508101906120039190612a3b565b905090565b600260009054906101000a900473ffffffffffffffffffffffffffffffffffffffff1681565b600061203861102b565b905090565b612045612608565b73ffffffffffffffffffffffffffffffffffffffff16612063611563565b73ffffffffffffffffffffffffffffffffffffffff16146120b9576040517f08c379a00000000000000000000000000000000000000000000000000000000081526004016120b0906131bb565b60405180910390fd5b600073ffffffffffffffffffffffffffffffffffffffff168173ffffffffffffffffffffffffffffffffffffffff161415612129576040517f08c379a0000000000000000000000000000000000000000000000000000000008152600401612120906130fb565b60405180910390fd5b612132816127a8565b50565b6002600154141561217b576040517f08c379a00000000000000000000000000000000000000000000000000000000081526004016121729061329b565b60405180910390fd5b60026001819055506000600660008381526020019081526020016000209050600073ffffffffffffffffffffffffffffffffffffffff168160010160009054906101000a900473ffffffffffffffffffffffffffffffffffffffff1673ffffffffffffffffffffffffffffffffffffffff16141561222e576040517f08c379a00000000000000000000000000000000000000000000000000000000081526004016122259061313b565b60405180910390fd5b8060010160009054906101000a900473ffffffffffffffffffffffffffffffffffffffff1673ffffffffffffffffffffffffffffffffffffffff163373ffffffffffffffffffffffffffffffffffffffff1614156122c1576040517f08c379a00000000000000000000000000000000000000000000000000000000081526004016122b89061323b565b60405180910390fd5b60008160020154905060008260010160009054906101000a900473ffffffffffffffffffffffffffffffffffffffff169050816122fd336107fd565b101561233e576040517f08c379a00000000000000000000000000000000000000000000000000000000081526004016123359061315b565b60405180910390fd5b612349338284612610565b600260009054906101000a900473ffffffffffffffffffffffffffffffffffffffff1673ffffffffffffffffffffffffffffffffffffffff16639036c05085336040518363ffffffff1660e01b81526004016123a692919061332c565b602060405180830381600087803b1580156123c057600080fd5b505af11580156123d4573d6000803e3d6000fd5b505050506040513d601f19601f820116820180604052508101906123f89190612a84565b612437576040517f08c379a000000000000000000000000000000000000000000000000000000000815260040161242e9061325b565b60405180910390fd5b600660008581526020019081526020016000206000808201600090556001820160006101000a81549073ffffffffffffffffffffffffffffffffffffffff0219169055600282016000905550503373ffffffffffffffffffffffffffffffffffffffff168173ffffffffffffffffffffffffffffffffffffffff16857f94ddf8232f3af1f844abb74cd56287ba5507090df04bf3c2e006bf74e904a283856040516124e29190613311565b60405180910390a45050506001808190555050565b6124ff6128a3565b600060056000848152602001908152602001600020604051806060016040529081600082015481526020016001820160009054906101000a900473ffffffffffffffffffffffffffffffffffffffff1673ffffffffffffffffffffffffffffffffffffffff1673ffffffffffffffffffffffffffffffffffffffff1681526020016002820154815250509050600073ffffffffffffffffffffffffffffffffffffffff16816020015173ffffffffffffffffffffffffffffffffffffffff1614156125ff576040517f08c379a00000000000000000000000000000000000000000000000000000000081526004016125f69061309b565b60405180910390fd5b80915050919050565b600033905090565b80600460008573ffffffffffffffffffffffffffffffffffffffff1673ffffffffffffffffffffffffffffffffffffffff168152602001908152602001600020541015612692576040517f08c379a00000000000000000000000000000000000000000000000000000000081526004016126899061315b565b60405180910390fd5b80600460008573ffffffffffffffffffffffffffffffffffffffff1673ffffffffffffffffffffffffffffffffffffffff16815260200190815260200160002060008282546126e191906134b4565b9250508190555080600460008473ffffffffffffffffffffffffffffffffffffffff1673ffffffffffffffffffffffffffffffffffffffff1681526020019081526020016000206000828254612737919061345e565b925050819055508173ffffffffffffffffffffffffffffffffffffffff168373ffffffffffffffffffffffffffffffffffffffff167f69d14b96c06609a8976851e9503b0a6b1c60b96a8ba6e5a1a313e8a290138e158360405161279b9190613311565b60405180910390a3505050565b60008060009054906101000a900473ffffffffffffffffffffffffffffffffffffffff169050816000806101000a81548173ffffffffffffffffffffffffffffffffffffffff021916908373ffffffffffffffffffffffffffffffffffffffff1602179055508173ffffffffffffffffffffffffffffffffffffffff168173ffffffffffffffffffffffffffffffffffffffff167f8be0079c531659141344cd1fd0a4f28419497f9722a3daafe3b4186f6b6457e060405160405180910390a35050565b604051806060016040528060008152602001600073ffffffffffffffffffffffffffffffffffffffff168152602001600081525090565b604051806060016040528060008152602001600073ffffffffffffffffffffffffffffffffffffffff168152602001600081525090565b60006128ed6128e8846133e8565b6133c3565b905080838252602082019050828560208602820111156129105761290f61360c565b5b60005b85811015612940578161292688826129cc565b845260208401935060208301925050600181019050612913565b5050509392505050565b600081359050612959816139cf565b92915050565b60008151905061296e816139cf565b92915050565b600082601f83011261298957612988613607565b5b81516129998482602086016128da565b91505092915050565b6000815190506129b1816139e6565b92915050565b6000813590506129c6816139fd565b92915050565b6000815190506129db816139fd565b92915050565b6000602082840312156129f7576129f6613616565b5b6000612a058482850161294a565b91505092915050565b600060208284031215612a2457612a23613616565b5b6000612a328482850161295f565b91505092915050565b600060208284031215612a5157612a50613616565b5b600082015167ffffffffffffffff811115612a6f57612a6e613611565b5b612a7b84828501612974565b91505092915050565b600060208284031215612a9a57612a99613616565b5b6000612aa8848285016129a2565b91505092915050565b600060208284031215612ac757612ac6613616565b5b6000612ad5848285016129b7565b91505092915050565b600060208284031215612af457612af3613616565b5b6000612b02848285016129cc565b91505092915050565b60008060408385031215612b2257612b21613616565b5b6000612b30858286016129b7565b9250506020612b418582860161294a565b9150509250929050565b60008060408385031215612b6257612b61613616565b5b6000612b70858286016129b7565b9250506020612b81858286016129b7565b9150509250929050565b6000612b978383612f5a565b60208301905092915050565b612bac816134e8565b82525050565b612bbb816134e8565b82525050565b6000612bcc82613424565b612bd6818561343c565b9350612be183613414565b8060005b83811015612c12578151612bf98882612b8b565b9750612c048361342f565b925050600181019050612be5565b5085935050505092915050565b612c2881613530565b82525050565b612c3781613542565b82525050565b6000612c4a60208361344d565b9150612c558261362c565b602082019050919050565b6000612c6d60238361344d565b9150612c7882613655565b604082019050919050565b6000612c9060258361344d565b9150612c9b826136a4565b604082019050919050565b6000612cb3601f8361344d565b9150612cbe826136f3565b602082019050919050565b6000612cd660268361344d565b9150612ce18261371c565b604082019050919050565b6000612cf9600f8361344d565b9150612d048261376b565b602082019050919050565b6000612d1c60188361344d565b9150612d2782613794565b602082019050919050565b6000612d3f60148361344d565b9150612d4a826137bd565b602082019050919050565b6000612d6260168361344d565b9150612d6d826137e6565b602082019050919050565b6000612d8560128361344d565b9150612d908261380f565b602082019050919050565b6000612da860208361344d565b9150612db382613838565b602082019050919050565b6000612dcb60288361344d565b9150612dd682613861565b604082019050919050565b6000612dee601a8361344d565b9150612df9826138b0565b602082019050919050565b6000612e11601a8361344d565b9150612e1c826138d9565b602082019050919050565b6000612e34601a8361344d565b9150612e3f82613902565b602082019050919050565b6000612e5760138361344d565b9150612e628261392b565b602082019050919050565b6000612e7a60118361344d565b9150612e8582613954565b602082019050919050565b6000612e9d601f8361344d565b9150612ea88261397d565b602082019050919050565b6000612ec0601b8361344d565b9150612ecb826139a6565b602082019050919050565b606082016000820151612eec6000850182612f5a565b506020820151612eff6020850182612ba3565b506040820151612f126040850182612f5a565b50505050565b606082016000820151612f2e6000850182612f5a565b506020820151612f416020850182612ba3565b506040820151612f546040850182612f5a565b50505050565b612f6381613526565b82525050565b612f7281613526565b82525050565b6000602082019050612f8d6000830184612bb2565b92915050565b6000606082019050612fa86000830186612bb2565b612fb56020830185612bb2565b612fc26040830184612f69565b949350505050565b6000604082019050612fdf6000830185612bb2565b612fec6020830184612f69565b9392505050565b6000602082019050818103600083015261300d8184612bc1565b905092915050565b6000604082019050818103600083015261302f8185612bc1565b905061303e6020830184612f69565b9392505050565b600060208201905061305a6000830184612c1f565b92915050565b60006020820190506130756000830184612c2e565b92915050565b6000602082019050818103600083015261309481612c3d565b9050919050565b600060208201905081810360008301526130b481612c60565b9050919050565b600060208201905081810360008301526130d481612c83565b9050919050565b600060208201905081810360008301526130f481612ca6565b9050919050565b6000602082019050818103600083015261311481612cc9565b9050919050565b6000602082019050818103600083015261313481612cec565b9050919050565b6000602082019050818103600083015261315481612d0f565b9050919050565b6000602082019050818103600083015261317481612d32565b9050919050565b6000602082019050818103600083015261319481612d55565b9050919050565b600060208201905081810360008301526131b481612d78565b9050919050565b600060208201905081810360008301526131d481612d9b565b9050919050565b600060208201905081810360008301526131f481612dbe565b9050919050565b6000602082019050818103600083015261321481612de1565b9050919050565b6000602082019050818103600083015261323481612e04565b9050919050565b6000602082019050818103600083015261325481612e27565b9050919050565b6000602082019050818103600083015261327481612e4a565b9050919050565b6000602082019050818103600083015261329481612e6d565b9050919050565b600060208201905081810360008301526132b481612e90565b9050919050565b600060208201905081810360008301526132d481612eb3565b9050919050565b60006060820190506132f06000830184612ed6565b92915050565b600060608201905061330b6000830184612f18565b92915050565b60006020820190506133266000830184612f69565b92915050565b60006040820190506133416000830185612f69565b61334e6020830184612bb2565b9392505050565b600060608201905061336a6000830186612f69565b6133776020830185612bb2565b6133846040830184612bb2565b949350505050565b60006060820190506133a16000830186612f69565b6133ae6020830185612bb2565b6133bb6040830184612f69565b949350505050565b60006133cd6133de565b90506133d98282613578565b919050565b6000604051905090565b600067ffffffffffffffff821115613403576134026135d8565b5b602082029050602081019050919050565b6000819050602082019050919050565b600081519050919050565b6000602082019050919050565b600082825260208201905092915050565b600082825260208201905092915050565b600061346982613526565b915061347483613526565b9250827fffffffffffffffffffffffffffffffffffffffffffffffffffffffffffffffff038211156134a9576134a86135a9565b5b828201905092915050565b60006134bf82613526565b91506134ca83613526565b9250828210156134dd576134dc6135a9565b5b828203905092915050565b60006134f382613506565b9050919050565b60008115159050919050565b600073ffffffffffffffffffffffffffffffffffffffff82169050919050565b6000819050919050565b600061353b82613554565b9050919050565b600061354d82613554565b9050919050565b600061355f82613566565b9050919050565b600061357182613506565b9050919050565b6135818261361b565b810181811067ffffffffffffffff821117156135a05761359f6135d8565b5b80604052505050565b7f4e487b7100000000000000000000000000000000000000000000000000000000600052601160045260246000fd5b7f4e487b7100000000000000000000000000000000000000000000000000000000600052604160045260246000fd5b600080fd5b600080fd5b600080fd5b600080fd5b6000601f19601f8301169050919050565b7f53656c6c20646f6573206e6f7420657869737420666f722074686973204e4654600082015250565b7f41756374696f6e20646f6573206e6f7420657869737420666f7220746869732060008201527f4e46540000000000000000000000000000000000000000000000000000000000602082015250565b7f4465706f73697420616d6f756e74206d7573742062652067726561746572207460008201527f68616e2030000000000000000000000000000000000000000000000000000000602082015250565b7f5072696365206d7573742062652067726561746572207468616e207a65726f00600082015250565b7f4f776e61626c653a206e6577206f776e657220697320746865207a65726f206160008201527f6464726573730000000000000000000000000000000000000000000000000000602082015250565b7f5472616e73666572206661696c65640000000000000000000000000000000000600082015250565b7f54686973204e4654206973206e6f7420666f722073616c650000000000000000600082015250565b7f496e73756666696369656e742062616c616e6365000000000000000000000000600082015250565b7f596f7520646f6e2774206f776e2074686973204e465400000000000000000000600082015250565b7f4e4654206e6f7420696e2041756374696f6e0000000000000000000000000000600082015250565b7f4f776e61626c653a2063616c6c6572206973206e6f7420746865206f776e6572600082015250565b7f5769746864726177616c20616d6f756e74206d7573742062652067726561746560008201527f72207468616e2030000000000000000000000000000000000000000000000000602082015250565b7f54686973206d61726b657420646f6573206e6f74206578697374000000000000600082015250565b7f53656c6c65722063616e6e6f7420626520746865206275796572000000000000600082015250565b7f596f752063616e27742062757920796f7572206f776e204e4654000000000000600082015250565b7f4e4654207472616e73666572206661696c656400000000000000000000000000600082015250565b7f4e4654206e6f7420696e206d61726b6574000000000000000000000000000000600082015250565b7f5265656e7472616e637947756172643a207265656e7472616e742063616c6c00600082015250565b7f546869732061756374696f6e20646f6573206e6f742065786973740000000000600082015250565b6139d8816134e8565b81146139e357600080fd5b50565b6139ef816134fa565b81146139fa57600080fd5b50565b613a0681613526565b8114613a1157600080fd5b5056fea26469706673582212201c8cf2830a3de87a3422dcefc8bc7442bb269f43b927207da6dfc233338f045f64736f6c63430008070033",
  "immutableReferences": {},
  "source": "// SPDX-License-Identifier: MIT\r\npragma solidity ^0.8.7;\r\n\r\nimport \"./NFTAuction.sol\";\r\nimport \"./NFTMarket.sol\";\r\nimport \"./TradeBase.sol\";\r\n\r\ncontract IntegratedNFTSystem is NFTAuction, NFTMarket {\r\n    // \r\n    constructor(address _nftContractAddress, address _tokenContractAddress) {\r\n        initializeContracts(_nftContractAddress, _tokenContractAddress);\r\n        nftContract.setMainContractAddress(address(this));\r\n        tokenContract.setMainContractAddress(address(this));\r\n    }\r\n\r\n    //   NFT (   NFT)\r\n    function getAllContractOwnedNFTs() public view returns (uint256[] memory) {\r\n        return getContractOwnedNFTs();\r\n    }\r\n\r\n    //    ( )\r\n    function getTotalContractBalance() public view returns (uint256) {\r\n        return getContractBalance();\r\n    }\r\n\r\n    // NFT   \r\n    function getCombinedOwnedAssets() public view returns (uint256[] memory nftIds, uint256 totalCoins) {\r\n        uint256[] memory allNFTs = getAllContractOwnedNFTs();\r\n        uint256 totalBalance = getTotalContractBalance();\r\n\r\n        return (allNFTs, totalBalance);\r\n    }\r\n}",
  "sourcePath": "C:\\Users\\SSAFY\\Desktop\\semonemo\\backend\\blockchain-server\\smartcontract\\contracts\\System.sol",
  "compiler": {
    "name": "solc",
    "version": "0.8.7+commit.e28d00a7.Emscripten.clang"
  },
  "schemaVersion": "3.4.16",
  "updatedAt": "2024-09-20T08:54:01.921Z",
  "networkType": "ethereum",
  "devdoc": {
    "kind": "dev",
    "methods": {
      "owner()": {
        "details": "Returns the address of the current owner."
      },
      "renounceOwnership()": {
        "details": "Leaves the contract without owner. It will not be possible to call `onlyOwner` functions anymore. Can only be called by the current owner. NOTE: Renouncing ownership will leave the contract without an owner, thereby removing any functionality that is only available to the owner."
      },
      "transferOwnership(address)": {
        "details": "Transfers ownership of the contract to a new account (`newOwner`). Can only be called by the current owner."
      }
    },
    "version": 1
  },
  "userdoc": {
    "kind": "user",
    "methods": {},
    "version": 1
  }
}