{
  "contractName": "IntegratedNFTSystem",
  "abi": [
    {
      "inputs": [
        {
          "internalType": "address",
          "name": "_nftContractAddress",
          "type": "address"
        },
        {
          "internalType": "address",
          "name": "_tokenContractAddress",
          "type": "address"
        }
      ],
      "stateMutability": "nonpayable",
      "type": "constructor"
    },
    {
      "anonymous": false,
      "inputs": [
        {
          "indexed": true,
          "internalType": "uint256",
          "name": "nftId",
          "type": "uint256"
        },
        {
          "indexed": true,
          "internalType": "address",
          "name": "seller",
          "type": "address"
        }
      ],
      "name": "AuctionCancelled",
      "type": "event"
    },
    {
      "anonymous": false,
      "inputs": [
        {
          "indexed": true,
          "internalType": "uint256",
          "name": "nftId",
          "type": "uint256"
        },
        {
          "indexed": true,
          "internalType": "address",
          "name": "seller",
          "type": "address"
        },
        {
          "indexed": true,
          "internalType": "address",
          "name": "buyer",
          "type": "address"
        },
        {
          "indexed": false,
          "internalType": "uint256",
          "name": "price",
          "type": "uint256"
        }
      ],
      "name": "AuctionClosed",
      "type": "event"
    },
    {
      "anonymous": false,
      "inputs": [
        {
          "indexed": true,
          "internalType": "uint256",
          "name": "nftId",
          "type": "uint256"
        },
        {
          "indexed": true,
          "internalType": "address",
          "name": "seller",
          "type": "address"
        },
        {
          "indexed": false,
          "internalType": "uint256",
          "name": "price",
          "type": "uint256"
        }
      ],
      "name": "AuctionStarted",
      "type": "event"
    },
    {
      "anonymous": false,
      "inputs": [
        {
          "indexed": true,
          "internalType": "address",
          "name": "from",
          "type": "address"
        },
        {
          "indexed": true,
          "internalType": "address",
          "name": "to",
          "type": "address"
        },
        {
          "indexed": false,
          "internalType": "uint256",
          "name": "amount",
          "type": "uint256"
        }
      ],
      "name": "BalanceAdjusted",
      "type": "event"
    },
    {
      "anonymous": false,
      "inputs": [
        {
          "indexed": true,
          "internalType": "address",
          "name": "from",
          "type": "address"
        },
        {
          "indexed": true,
          "internalType": "address",
          "name": "to",
          "type": "address"
        },
        {
          "indexed": false,
          "internalType": "uint256",
          "name": "amount",
          "type": "uint256"
        }
      ],
      "name": "BalanceTransferred",
      "type": "event"
    },
    {
      "anonymous": false,
      "inputs": [
        {
          "indexed": true,
          "internalType": "address",
          "name": "user",
          "type": "address"
        },
        {
          "indexed": false,
          "internalType": "uint256",
          "name": "amount",
          "type": "uint256"
        }
      ],
      "name": "Deposit",
      "type": "event"
    },
    {
      "anonymous": false,
      "inputs": [
        {
          "indexed": true,
          "internalType": "uint256",
          "name": "nftId",
          "type": "uint256"
        },
        {
          "indexed": true,
          "internalType": "address",
          "name": "seller",
          "type": "address"
        }
      ],
      "name": "MarketCancelled",
      "type": "event"
    },
    {
      "anonymous": false,
      "inputs": [
        {
          "indexed": true,
          "internalType": "uint256",
          "name": "nftId",
          "type": "uint256"
        },
        {
          "indexed": true,
          "internalType": "address",
          "name": "seller",
          "type": "address"
        },
        {
          "indexed": false,
          "internalType": "uint256",
          "name": "price",
          "type": "uint256"
        }
      ],
      "name": "MarketCreated",
      "type": "event"
    },
    {
      "anonymous": false,
      "inputs": [
        {
          "indexed": true,
          "internalType": "uint256",
          "name": "nftId",
          "type": "uint256"
        },
        {
          "indexed": true,
          "internalType": "address",
          "name": "seller",
          "type": "address"
        },
        {
          "indexed": true,
          "internalType": "address",
          "name": "buyer",
          "type": "address"
        },
        {
          "indexed": false,
          "internalType": "uint256",
          "name": "price",
          "type": "uint256"
        }
      ],
      "name": "MarketSold",
      "type": "event"
    },
    {
      "anonymous": false,
      "inputs": [
        {
          "indexed": true,
          "internalType": "address",
          "name": "previousOwner",
          "type": "address"
        },
        {
          "indexed": true,
          "internalType": "address",
          "name": "newOwner",
          "type": "address"
        }
      ],
      "name": "OwnershipTransferred",
      "type": "event"
    },
    {
      "anonymous": false,
      "inputs": [
        {
          "indexed": true,
          "internalType": "uint256",
          "name": "tradeId",
          "type": "uint256"
        },
        {
          "indexed": false,
          "internalType": "address",
          "name": "from",
          "type": "address"
        },
        {
          "indexed": false,
          "internalType": "address",
          "name": "to",
          "type": "address"
        },
        {
          "indexed": false,
          "internalType": "uint256",
          "name": "amount",
          "type": "uint256"
        },
        {
          "indexed": false,
          "internalType": "uint256",
          "name": "timestamp",
          "type": "uint256"
        }
      ],
      "name": "TradeRecorded",
      "type": "event"
    },
    {
      "anonymous": false,
      "inputs": [
        {
          "indexed": true,
          "internalType": "address",
          "name": "user",
          "type": "address"
        },
        {
          "indexed": false,
          "internalType": "uint256",
          "name": "amount",
          "type": "uint256"
        }
      ],
      "name": "Withdrawal",
      "type": "event"
    },
    {
      "inputs": [
        {
          "internalType": "uint256",
          "name": "",
          "type": "uint256"
        }
      ],
      "name": "auctions",
      "outputs": [
        {
          "internalType": "uint256",
          "name": "nftId",
          "type": "uint256"
        },
        {
          "internalType": "address",
          "name": "seller",
          "type": "address"
        },
        {
          "internalType": "uint256",
          "name": "price",
          "type": "uint256"
        }
      ],
      "stateMutability": "view",
      "type": "function",
      "constant": true
    },
    {
      "inputs": [
        {
          "internalType": "uint256",
          "name": "_nftId",
          "type": "uint256"
        }
      ],
      "name": "buyMarket",
      "outputs": [],
      "stateMutability": "nonpayable",
      "type": "function"
    },
    {
      "inputs": [
        {
          "internalType": "uint256",
          "name": "_nftId",
          "type": "uint256"
        }
      ],
      "name": "cancelAuction",
      "outputs": [],
      "stateMutability": "nonpayable",
      "type": "function"
    },
    {
      "inputs": [
        {
          "internalType": "uint256",
          "name": "_nftId",
          "type": "uint256"
        }
      ],
      "name": "cancelMarket",
      "outputs": [],
      "stateMutability": "nonpayable",
      "type": "function"
    },
    {
      "inputs": [
        {
          "internalType": "uint256",
          "name": "_nftId",
          "type": "uint256"
        },
        {
          "internalType": "address",
          "name": "buyer",
          "type": "address"
        }
      ],
      "name": "closeAuction",
      "outputs": [],
      "stateMutability": "nonpayable",
      "type": "function"
    },
    {
      "inputs": [
        {
          "internalType": "uint256",
          "name": "_nftId",
          "type": "uint256"
        },
        {
          "internalType": "uint256",
          "name": "price",
          "type": "uint256"
        }
      ],
      "name": "createMarket",
      "outputs": [],
      "stateMutability": "nonpayable",
      "type": "function"
    },
    {
      "inputs": [
        {
          "internalType": "uint256",
          "name": "amount",
          "type": "uint256"
        }
      ],
      "name": "deposit",
      "outputs": [],
      "stateMutability": "nonpayable",
      "type": "function"
    },
    {
      "inputs": [
        {
          "internalType": "uint256",
          "name": "_nftId",
          "type": "uint256"
        }
      ],
      "name": "getAuctionInfo",
      "outputs": [
        {
          "components": [
            {
              "internalType": "uint256",
              "name": "nftId",
              "type": "uint256"
            },
            {
              "internalType": "address",
              "name": "seller",
              "type": "address"
            },
            {
              "internalType": "uint256",
              "name": "price",
              "type": "uint256"
            }
          ],
          "internalType": "struct NFTAuction.Auction",
          "name": "",
          "type": "tuple"
        }
      ],
      "stateMutability": "view",
      "type": "function",
      "constant": true
    },
    {
      "inputs": [],
      "name": "getContractBalance",
      "outputs": [
        {
          "internalType": "uint256",
          "name": "",
          "type": "uint256"
        }
      ],
      "stateMutability": "view",
      "type": "function",
      "constant": true
    },
    {
      "inputs": [],
      "name": "getContractOwnedNFTs",
      "outputs": [
        {
          "internalType": "uint256[]",
          "name": "",
          "type": "uint256[]"
        }
      ],
      "stateMutability": "view",
      "type": "function",
      "constant": true
    },
    {
      "inputs": [
        {
          "internalType": "uint256",
          "name": "_nftId",
          "type": "uint256"
        }
      ],
      "name": "getMarketInfo",
      "outputs": [
        {
          "components": [
            {
              "internalType": "uint256",
              "name": "nftId",
              "type": "uint256"
            },
            {
              "internalType": "address",
              "name": "seller",
              "type": "address"
            },
            {
              "internalType": "uint256",
              "name": "price",
              "type": "uint256"
            }
          ],
          "internalType": "struct NFTMarket.Market",
          "name": "",
          "type": "tuple"
        }
      ],
      "stateMutability": "view",
      "type": "function",
      "constant": true
    },
    {
      "inputs": [
        {
          "internalType": "address",
          "name": "user",
          "type": "address"
        },
        {
          "internalType": "uint256",
          "name": "page",
          "type": "uint256"
        },
        {
          "internalType": "uint256",
          "name": "size",
          "type": "uint256"
        }
      ],
      "name": "getTradesByAddress",
      "outputs": [
        {
          "components": [
            {
              "components": [
                {
                  "internalType": "address",
                  "name": "from",
                  "type": "address"
                },
                {
                  "internalType": "address",
                  "name": "to",
                  "type": "address"
                },
                {
                  "internalType": "uint256",
                  "name": "amount",
                  "type": "uint256"
                },
                {
                  "internalType": "uint256",
                  "name": "timestamp",
                  "type": "uint256"
                }
              ],
              "internalType": "struct TradeBase.TradeInfo[]",
              "name": "trades",
              "type": "tuple[]"
            },
            {
              "internalType": "uint256",
              "name": "totalTrades",
              "type": "uint256"
            },
            {
              "internalType": "bool",
              "name": "hasNext",
              "type": "bool"
            }
          ],
          "internalType": "struct TradeBase.TradeResult",
          "name": "",
          "type": "tuple"
        }
      ],
      "stateMutability": "view",
      "type": "function",
      "constant": true
    },
    {
      "inputs": [
        {
          "internalType": "address",
          "name": "user",
          "type": "address"
        }
      ],
      "name": "getUserBalance",
      "outputs": [
        {
          "internalType": "uint256",
          "name": "",
          "type": "uint256"
        }
      ],
      "stateMutability": "view",
      "type": "function",
      "constant": true
    },
    {
      "inputs": [
        {
          "internalType": "uint256",
          "name": "",
          "type": "uint256"
        }
      ],
      "name": "markets",
      "outputs": [
        {
          "internalType": "uint256",
          "name": "nftId",
          "type": "uint256"
        },
        {
          "internalType": "address",
          "name": "seller",
          "type": "address"
        },
        {
          "internalType": "uint256",
          "name": "price",
          "type": "uint256"
        }
      ],
      "stateMutability": "view",
      "type": "function",
      "constant": true
    },
    {
      "inputs": [],
      "name": "nftContract",
      "outputs": [
        {
          "internalType": "contract NFTFrame",
          "name": "",
          "type": "address"
        }
      ],
      "stateMutability": "view",
      "type": "function",
      "constant": true
    },
    {
      "inputs": [],
      "name": "owner",
      "outputs": [
        {
          "internalType": "address",
          "name": "",
          "type": "address"
        }
      ],
      "stateMutability": "view",
      "type": "function",
      "constant": true
    },
    {
      "inputs": [],
      "name": "renounceOwnership",
      "outputs": [],
      "stateMutability": "nonpayable",
      "type": "function"
    },
    {
      "inputs": [
        {
          "internalType": "uint256",
          "name": "_nftId",
          "type": "uint256"
        },
        {
          "internalType": "uint256",
          "name": "price",
          "type": "uint256"
        }
      ],
      "name": "startAuction",
      "outputs": [],
      "stateMutability": "nonpayable",
      "type": "function"
    },
    {
      "inputs": [],
      "name": "tokenContract",
      "outputs": [
        {
          "internalType": "contract AhoraCoin",
          "name": "",
          "type": "address"
        }
      ],
      "stateMutability": "view",
      "type": "function",
      "constant": true
    },
    {
      "inputs": [],
      "name": "tradeId",
      "outputs": [
        {
          "internalType": "uint256",
          "name": "",
          "type": "uint256"
        }
      ],
      "stateMutability": "view",
      "type": "function",
      "constant": true
    },
    {
      "inputs": [
        {
          "internalType": "uint256",
          "name": "",
          "type": "uint256"
        }
      ],
      "name": "trades",
      "outputs": [
        {
          "internalType": "address",
          "name": "from",
          "type": "address"
        },
        {
          "internalType": "address",
          "name": "to",
          "type": "address"
        },
        {
          "internalType": "uint256",
          "name": "amount",
          "type": "uint256"
        },
        {
          "internalType": "uint256",
          "name": "timestamp",
          "type": "uint256"
        }
      ],
      "stateMutability": "view",
      "type": "function",
      "constant": true
    },
    {
      "inputs": [
        {
          "internalType": "address",
          "name": "from",
          "type": "address"
        },
        {
          "internalType": "address",
          "name": "to",
          "type": "address"
        },
        {
          "internalType": "uint256",
          "name": "amount",
          "type": "uint256"
        }
      ],
      "name": "transferBalance",
      "outputs": [],
      "stateMutability": "nonpayable",
      "type": "function"
    },
    {
      "inputs": [
        {
          "internalType": "address",
          "name": "newOwner",
          "type": "address"
        }
      ],
      "name": "transferOwnership",
      "outputs": [],
      "stateMutability": "nonpayable",
      "type": "function"
    },
    {
      "inputs": [
        {
          "internalType": "uint256",
          "name": "amount",
          "type": "uint256"
        }
      ],
      "name": "withdraw",
      "outputs": [],
      "stateMutability": "nonpayable",
      "type": "function"
    },
    {
      "inputs": [],
      "name": "getAllContractOwnedNFTs",
      "outputs": [
        {
          "internalType": "uint256[]",
          "name": "",
          "type": "uint256[]"
        }
      ],
      "stateMutability": "view",
      "type": "function",
      "constant": true
    },
    {
      "inputs": [],
      "name": "getTotalContractBalance",
      "outputs": [
        {
          "internalType": "uint256",
          "name": "",
          "type": "uint256"
        }
      ],
      "stateMutability": "view",
      "type": "function",
      "constant": true
    },
    {
      "inputs": [],
      "name": "getCombinedOwnedAssets",
      "outputs": [
        {
          "internalType": "uint256[]",
          "name": "nftIds",
          "type": "uint256[]"
        },
        {
          "internalType": "uint256",
          "name": "totalCoins",
          "type": "uint256"
        }
      ],
      "stateMutability": "view",
      "type": "function",
      "constant": true
    }
  ],
  "bytecode": "0x60806040523480156200001157600080fd5b5060405162004d9b38038062004d9b8339818101604052810190620000379190620003f2565b620000576200004b6200019a60201b60201c565b620001a260201b60201c565b600180819055506200007082826200026660201b60201c565b600260009054906101000a900473ffffffffffffffffffffffffffffffffffffffff1673ffffffffffffffffffffffffffffffffffffffff1663ec9da59e306040518263ffffffff1660e01b8152600401620000cd919062000471565b600060405180830381600087803b158015620000e857600080fd5b505af1158015620000fd573d6000803e3d6000fd5b50505050600360009054906101000a900473ffffffffffffffffffffffffffffffffffffffff1673ffffffffffffffffffffffffffffffffffffffff1663ec9da59e306040518263ffffffff1660e01b81526004016200015e919062000471565b600060405180830381600087803b1580156200017957600080fd5b505af11580156200018e573d6000803e3d6000fd5b5050505050506200053d565b600033905090565b60008060009054906101000a900473ffffffffffffffffffffffffffffffffffffffff169050816000806101000a81548173ffffffffffffffffffffffffffffffffffffffff021916908373ffffffffffffffffffffffffffffffffffffffff1602179055508173ffffffffffffffffffffffffffffffffffffffff168173ffffffffffffffffffffffffffffffffffffffff167f8be0079c531659141344cd1fd0a4f28419497f9722a3daafe3b4186f6b6457e060405160405180910390a35050565b600073ffffffffffffffffffffffffffffffffffffffff16600260009054906101000a900473ffffffffffffffffffffffffffffffffffffffff1673ffffffffffffffffffffffffffffffffffffffff16148015620003135750600073ffffffffffffffffffffffffffffffffffffffff16600360009054906101000a900473ffffffffffffffffffffffffffffffffffffffff1673ffffffffffffffffffffffffffffffffffffffff16145b62000355576040517f08c379a00000000000000000000000000000000000000000000000000000000081526004016200034c906200048e565b60405180910390fd5b81600260006101000a81548173ffffffffffffffffffffffffffffffffffffffff021916908373ffffffffffffffffffffffffffffffffffffffff16021790555080600360006101000a81548173ffffffffffffffffffffffffffffffffffffffff021916908373ffffffffffffffffffffffffffffffffffffffff1602179055505050565b600081519050620003ec8162000523565b92915050565b600080604083850312156200040c576200040b620004f5565b5b60006200041c85828601620003db565b92505060206200042f85828601620003db565b9150509250929050565b6200044481620004c1565b82525050565b600062000459601d83620004b0565b91506200046682620004fa565b602082019050919050565b600060208201905062000488600083018462000439565b92915050565b60006020820190508181036000830152620004a9816200044a565b9050919050565b600082825260208201905092915050565b6000620004ce82620004d5565b9050919050565b600073ffffffffffffffffffffffffffffffffffffffff82169050919050565b600080fd5b7f436f6e74726163747320616c726561647920696e697469616c697a6564000000600082015250565b6200052e81620004c1565b81146200053a57600080fd5b50565b61484e806200054d6000396000f3fe608060405234801561001057600080fd5b50600436106101a95760003560e01c80638da5cb5b116100f9578063d3e6fa1911610097578063d9e3fd6411610071578063d9e3fd64146104b0578063f2fde38b146104ce578063f90852c7146104ea578063fc3fc4ed14610506576101a9565b8063d3e6fa1914610444578063d56d229d14610462578063d750558f14610480576101a9565b8063a6c7523a116100d3578063a6c7523a146103bb578063b1283e77146103da578063b6b55f251461040c578063c7604fec14610428576101a9565b80638da5cb5b1461036557806396b5a75514610383578063a606b94a1461039f576101a9565b806355a373d6116101665780636f9fb98a116101405780636f9fb98a14610303578063715018a61461032157806373ddccb51461032b5780637c16cd9e14610349576101a9565b806355a373d614610297578063571a26a0146102b55780636bab66ae146102e7576101a9565b806302c5115b146101ae5780631e6c598e146101cc5780632e1a7d4d146101ff5780633ec791931461021b578063477348921461024b5780634fee13fc1461027b575b600080fd5b6101b6610536565b6040516101c39190613fbb565b60405180910390f35b6101e660048036038101906101e1919061356d565b61053c565b6040516101f69493929190613bf6565b60405180910390f35b6102196004803603810190610214919061356d565b6105ac565b005b6102356004803603810190610230919061356d565b61085d565b6040516102429190613f7e565b60405180910390f35b610265600480360381019061026091906133f7565b61096e565b6040516102729190613fbb565b60405180910390f35b61029560048036038101906102909190613607565b6109b7565b005b61029f610ced565b6040516102ac9190613c8d565b60405180910390f35b6102cf60048036038101906102ca919061356d565b610d13565b6040516102de9392919061400d565b60405180910390f35b61030160048036038101906102fc91906135c7565b610d5d565b005b61030b61113f565b6040516103189190613fbb565b60405180910390f35b6103296111f1565b005b610333611279565b6040516103409190613c3b565b60405180910390f35b610363600480360381019061035e919061356d565b611288565b005b61036d611658565b60405161037a9190613ba4565b60405180910390f35b61039d6004803603810190610398919061356d565b611681565b005b6103b960048036038101906103b49190613451565b611a51565b005b6103c3611de7565b6040516103d1929190613c5d565b60405180910390f35b6103f460048036038101906103ef919061356d565b611e0e565b6040516104039392919061400d565b60405180910390f35b6104266004803603810190610421919061356d565b611e58565b005b610442600480360381019061043d9190613607565b612087565b005b61044c6123bd565b6040516104599190613c3b565b60405180910390f35b61046a612474565b6040516104779190613ca8565b60405180910390f35b61049a600480360381019061049591906134a4565b61249a565b6040516104a79190613f99565b60405180910390f35b6104b86127eb565b6040516104c59190613fbb565b60405180910390f35b6104e860048036038101906104e391906133f7565b6127fa565b005b61050460048036038101906104ff919061356d565b6128f2565b005b610520600480360381019061051b919061356d565b612c57565b60405161052d9190613f63565b60405180910390f35b60065481565b60056020528060005260406000206000915090508060000160009054906101000a900473ffffffffffffffffffffffffffffffffffffffff16908060010160009054906101000a900473ffffffffffffffffffffffffffffffffffffffff16908060020154908060030154905084565b600260015414156105f2576040517f08c379a00000000000000000000000000000000000000000000000000000000081526004016105e990613f23565b60405180910390fd5b60026001819055506000811161063d576040517f08c379a000000000000000000000000000000000000000000000000000000000815260040161063490613e43565b60405180910390fd5b80600460003373ffffffffffffffffffffffffffffffffffffffff1673ffffffffffffffffffffffffffffffffffffffff1681526020019081526020016000205410156106bf576040517f08c379a00000000000000000000000000000000000000000000000000000000081526004016106b690613da3565b60405180910390fd5b80600460003373ffffffffffffffffffffffffffffffffffffffff1673ffffffffffffffffffffffffffffffffffffffff168152602001908152602001600020600082825461070e91906141c8565b92505081905550600360009054906101000a900473ffffffffffffffffffffffffffffffffffffffff1673ffffffffffffffffffffffffffffffffffffffff16636153fced3033846040518463ffffffff1660e01b815260040161077493929190613bbf565b602060405180830381600087803b15801561078e57600080fd5b505af11580156107a2573d6000803e3d6000fd5b505050506040513d601f19601f820116820180604052508101906107c69190613540565b610805576040517f08c379a00000000000000000000000000000000000000000000000000000000081526004016107fc90613d63565b60405180910390fd5b3373ffffffffffffffffffffffffffffffffffffffff167f7fcf532c15f0a6db0bd6d0e038bea71d30d808c7d98cb3bf7268a95bf5081b658260405161084b9190613fbb565b60405180910390a26001808190555050565b61086561320b565b600060096000848152602001908152602001600020604051806060016040529081600082015481526020016001820160009054906101000a900473ffffffffffffffffffffffffffffffffffffffff1673ffffffffffffffffffffffffffffffffffffffff1673ffffffffffffffffffffffffffffffffffffffff1681526020016002820154815250509050600073ffffffffffffffffffffffffffffffffffffffff16816020015173ffffffffffffffffffffffffffffffffffffffff161415610965576040517f08c379a000000000000000000000000000000000000000000000000000000000815260040161095c90613cc3565b60405180910390fd5b80915050919050565b6000600460008373ffffffffffffffffffffffffffffffffffffffff1673ffffffffffffffffffffffffffffffffffffffff168152602001908152602001600020549050919050565b600260015414156109fd576040517f08c379a00000000000000000000000000000000000000000000000000000000081526004016109f490613f23565b60405180910390fd5b60026001819055503373ffffffffffffffffffffffffffffffffffffffff16600260009054906101000a900473ffffffffffffffffffffffffffffffffffffffff1673ffffffffffffffffffffffffffffffffffffffff16636352211e846040518263ffffffff1660e01b8152600401610a779190613fbb565b60206040518083038186803b158015610a8f57600080fd5b505afa158015610aa3573d6000803e3d6000fd5b505050506040513d601f19601f82011682018060405250810190610ac79190613424565b73ffffffffffffffffffffffffffffffffffffffff1614610b1d576040517f08c379a0000000000000000000000000000000000000000000000000000000008152600401610b1490613dc3565b60405180910390fd5b60008111610b60576040517f08c379a0000000000000000000000000000000000000000000000000000000008152600401610b5790613d23565b60405180910390fd5b600260009054906101000a900473ffffffffffffffffffffffffffffffffffffffff1673ffffffffffffffffffffffffffffffffffffffff166335b9594c8333306040518463ffffffff1660e01b8152600401610bbf93929190613fd6565b600060405180830381600087803b158015610bd957600080fd5b505af1158015610bed573d6000803e3d6000fd5b5050505060405180606001604052808381526020013373ffffffffffffffffffffffffffffffffffffffff16815260200182815250600860008481526020019081526020016000206000820151816000015560208201518160010160006101000a81548173ffffffffffffffffffffffffffffffffffffffff021916908373ffffffffffffffffffffffffffffffffffffffff160217905550604082015181600201559050503373ffffffffffffffffffffffffffffffffffffffff16827fd7d053b3d3fc9e8145896f8940adeb377f6735866f2161ef1660dae9f049247583604051610cda9190613fbb565b60405180910390a3600180819055505050565b600360009054906101000a900473ffffffffffffffffffffffffffffffffffffffff1681565b60086020528060005260406000206000915090508060000154908060010160009054906101000a900473ffffffffffffffffffffffffffffffffffffffff16908060020154905083565b60026001541415610da3576040517f08c379a0000000000000000000000000000000000000000000000000000000008152600401610d9a90613f23565b60405180910390fd5b6002600181905550610db3612d68565b73ffffffffffffffffffffffffffffffffffffffff16610dd1611658565b73ffffffffffffffffffffffffffffffffffffffff1614610e27576040517f08c379a0000000000000000000000000000000000000000000000000000000008152600401610e1e90613e23565b60405180910390fd5b6000600860008481526020019081526020016000209050600073ffffffffffffffffffffffffffffffffffffffff168160010160009054906101000a900473ffffffffffffffffffffffffffffffffffffffff1673ffffffffffffffffffffffffffffffffffffffff161415610ed2576040517f08c379a0000000000000000000000000000000000000000000000000000000008152600401610ec990613f43565b60405180910390fd5b8060010160009054906101000a900473ffffffffffffffffffffffffffffffffffffffff1673ffffffffffffffffffffffffffffffffffffffff168273ffffffffffffffffffffffffffffffffffffffff161415610f65576040517f08c379a0000000000000000000000000000000000000000000000000000000008152600401610f5c90613e83565b60405180910390fd5b60008160020154905060008260010160009054906101000a900473ffffffffffffffffffffffffffffffffffffffff16905081610fa18561096e565b1015610fe2576040517f08c379a0000000000000000000000000000000000000000000000000000000008152600401610fd990613da3565b60405180910390fd5b610fed848284612d70565b600260009054906101000a900473ffffffffffffffffffffffffffffffffffffffff1673ffffffffffffffffffffffffffffffffffffffff166335b9594c8630336040518463ffffffff1660e01b815260040161104c93929190613fd6565b600060405180830381600087803b15801561106657600080fd5b505af115801561107a573d6000803e3d6000fd5b50505050600860008681526020019081526020016000206000808201600090556001820160006101000a81549073ffffffffffffffffffffffffffffffffffffffff0219169055600282016000905550508373ffffffffffffffffffffffffffffffffffffffff168173ffffffffffffffffffffffffffffffffffffffff16867f7787e67b4b8529b1aa2c1a59dbf0f0e766d63860956b86f33f5d870088235501856040516111299190613fbb565b60405180910390a4505050600180819055505050565b6000600360009054906101000a900473ffffffffffffffffffffffffffffffffffffffff1673ffffffffffffffffffffffffffffffffffffffff166370a08231306040518263ffffffff1660e01b815260040161119c9190613ba4565b60206040518083038186803b1580156111b457600080fd5b505afa1580156111c8573d6000803e3d6000fd5b505050506040513d601f19601f820116820180604052508101906111ec919061359a565b905090565b6111f9612d68565b73ffffffffffffffffffffffffffffffffffffffff16611217611658565b73ffffffffffffffffffffffffffffffffffffffff161461126d576040517f08c379a000000000000000000000000000000000000000000000000000000000815260040161126490613e23565b60405180910390fd5b6112776000612f13565b565b60606112836123bd565b905090565b600260015414156112ce576040517f08c379a00000000000000000000000000000000000000000000000000000000081526004016112c590613f23565b60405180910390fd5b600260018190555060006009600083815260200190815260200160002090503073ffffffffffffffffffffffffffffffffffffffff16600260009054906101000a900473ffffffffffffffffffffffffffffffffffffffff1673ffffffffffffffffffffffffffffffffffffffff16636352211e846040518263ffffffff1660e01b815260040161135f9190613fbb565b60206040518083038186803b15801561137757600080fd5b505afa15801561138b573d6000803e3d6000fd5b505050506040513d601f19601f820116820180604052508101906113af9190613424565b73ffffffffffffffffffffffffffffffffffffffff1614611405576040517f08c379a00000000000000000000000000000000000000000000000000000000081526004016113fc90613ee3565b60405180910390fd5b3373ffffffffffffffffffffffffffffffffffffffff168160010160009054906101000a900473ffffffffffffffffffffffffffffffffffffffff1673ffffffffffffffffffffffffffffffffffffffff1614611497576040517f08c379a000000000000000000000000000000000000000000000000000000000815260040161148e90613dc3565b60405180910390fd5b600073ffffffffffffffffffffffffffffffffffffffff168160010160009054906101000a900473ffffffffffffffffffffffffffffffffffffffff1673ffffffffffffffffffffffffffffffffffffffff16141561152b576040517f08c379a000000000000000000000000000000000000000000000000000000000815260040161152290613e63565b60405180910390fd5b600260009054906101000a900473ffffffffffffffffffffffffffffffffffffffff1673ffffffffffffffffffffffffffffffffffffffff166335b9594c8330336040518463ffffffff1660e01b815260040161158a93929190613fd6565b600060405180830381600087803b1580156115a457600080fd5b505af11580156115b8573d6000803e3d6000fd5b50505050600960008381526020019081526020016000206000808201600090556001820160006101000a81549073ffffffffffffffffffffffffffffffffffffffff0219169055600282016000905550503373ffffffffffffffffffffffffffffffffffffffff16827f80cbe856a464968c63953aeb2dd84c12de3a0715985cae2ea35d3ed87e39ddc360405160405180910390a3506001808190555050565b60008060009054906101000a900473ffffffffffffffffffffffffffffffffffffffff16905090565b600260015414156116c7576040517f08c379a00000000000000000000000000000000000000000000000000000000081526004016116be90613f23565b60405180910390fd5b600260018190555060006008600083815260200190815260200160002090503073ffffffffffffffffffffffffffffffffffffffff16600260009054906101000a900473ffffffffffffffffffffffffffffffffffffffff1673ffffffffffffffffffffffffffffffffffffffff16636352211e846040518263ffffffff1660e01b81526004016117589190613fbb565b60206040518083038186803b15801561177057600080fd5b505afa158015611784573d6000803e3d6000fd5b505050506040513d601f19601f820116820180604052508101906117a89190613424565b73ffffffffffffffffffffffffffffffffffffffff16146117fe576040517f08c379a00000000000000000000000000000000000000000000000000000000081526004016117f590613de3565b60405180910390fd5b3373ffffffffffffffffffffffffffffffffffffffff168160010160009054906101000a900473ffffffffffffffffffffffffffffffffffffffff1673ffffffffffffffffffffffffffffffffffffffff1614611890576040517f08c379a000000000000000000000000000000000000000000000000000000000815260040161188790613dc3565b60405180910390fd5b600073ffffffffffffffffffffffffffffffffffffffff168160010160009054906101000a900473ffffffffffffffffffffffffffffffffffffffff1673ffffffffffffffffffffffffffffffffffffffff161415611924576040517f08c379a000000000000000000000000000000000000000000000000000000000815260040161191b90613f43565b60405180910390fd5b600260009054906101000a900473ffffffffffffffffffffffffffffffffffffffff1673ffffffffffffffffffffffffffffffffffffffff166335b9594c8330336040518463ffffffff1660e01b815260040161198393929190613fd6565b600060405180830381600087803b15801561199d57600080fd5b505af11580156119b1573d6000803e3d6000fd5b50505050600860008381526020019081526020016000206000808201600090556001820160006101000a81549073ffffffffffffffffffffffffffffffffffffffff0219169055600282016000905550503373ffffffffffffffffffffffffffffffffffffffff16827f10ac9f0bb365b5d22d7bec500408692f23fdf83eadfec71615ef88b4c1134f0e60405160405180910390a3506001808190555050565b611a59612d68565b73ffffffffffffffffffffffffffffffffffffffff16611a77611658565b73ffffffffffffffffffffffffffffffffffffffff1614611acd576040517f08c379a0000000000000000000000000000000000000000000000000000000008152600401611ac490613e23565b60405180910390fd5b60026001541415611b13576040517f08c379a0000000000000000000000000000000000000000000000000000000008152600401611b0a90613f23565b60405180910390fd5b6002600181905550600073ffffffffffffffffffffffffffffffffffffffff168273ffffffffffffffffffffffffffffffffffffffff161415611b8b576040517f08c379a0000000000000000000000000000000000000000000000000000000008152600401611b8290613e03565b60405180910390fd5b8273ffffffffffffffffffffffffffffffffffffffff168273ffffffffffffffffffffffffffffffffffffffff161415611bfa576040517f08c379a0000000000000000000000000000000000000000000000000000000008152600401611bf190613ea3565b60405180910390fd5b60008111611c3d576040517f08c379a0000000000000000000000000000000000000000000000000000000008152600401611c3490613f03565b60405180910390fd5b80600460008573ffffffffffffffffffffffffffffffffffffffff1673ffffffffffffffffffffffffffffffffffffffff168152602001908152602001600020541015611cbf576040517f08c379a0000000000000000000000000000000000000000000000000000000008152600401611cb690613da3565b60405180910390fd5b80600460008573ffffffffffffffffffffffffffffffffffffffff1673ffffffffffffffffffffffffffffffffffffffff1681526020019081526020016000206000828254611d0e91906141c8565b9250508190555080600460008473ffffffffffffffffffffffffffffffffffffffff1673ffffffffffffffffffffffffffffffffffffffff1681526020019081526020016000206000828254611d649190614118565b92505081905550611d76838383612fd7565b8173ffffffffffffffffffffffffffffffffffffffff168373ffffffffffffffffffffffffffffffffffffffff167f4163d0b06696468b3d7903f482bcd0097bd38a9a9086157479fd6c6561d2426183604051611dd39190613fbb565b60405180910390a360018081905550505050565b6060600080611df4611279565b90506000611e006127eb565b905081819350935050509091565b60096020528060005260406000206000915090508060000154908060010160009054906101000a900473ffffffffffffffffffffffffffffffffffffffff16908060020154905083565b60026001541415611e9e576040517f08c379a0000000000000000000000000000000000000000000000000000000008152600401611e9590613f23565b60405180910390fd5b600260018190555060008111611ee9576040517f08c379a0000000000000000000000000000000000000000000000000000000008152600401611ee090613d03565b60405180910390fd5b600360009054906101000a900473ffffffffffffffffffffffffffffffffffffffff1673ffffffffffffffffffffffffffffffffffffffff16636153fced3330846040518463ffffffff1660e01b8152600401611f4893929190613bbf565b602060405180830381600087803b158015611f6257600080fd5b505af1158015611f76573d6000803e3d6000fd5b505050506040513d601f19601f82011682018060405250810190611f9a9190613540565b611fd9576040517f08c379a0000000000000000000000000000000000000000000000000000000008152600401611fd090613d63565b60405180910390fd5b80600460003373ffffffffffffffffffffffffffffffffffffffff1673ffffffffffffffffffffffffffffffffffffffff16815260200190815260200160002060008282546120289190614118565b925050819055503373ffffffffffffffffffffffffffffffffffffffff167fe1fffcc4923d04b559f4d29a8bfc6cda04eb5b0d3c460751c2402c5c5cc9109c826040516120759190613fbb565b60405180910390a26001808190555050565b600260015414156120cd576040517f08c379a00000000000000000000000000000000000000000000000000000000081526004016120c490613f23565b60405180910390fd5b60026001819055503373ffffffffffffffffffffffffffffffffffffffff16600260009054906101000a900473ffffffffffffffffffffffffffffffffffffffff1673ffffffffffffffffffffffffffffffffffffffff16636352211e846040518263ffffffff1660e01b81526004016121479190613fbb565b60206040518083038186803b15801561215f57600080fd5b505afa158015612173573d6000803e3d6000fd5b505050506040513d601f19601f820116820180604052508101906121979190613424565b73ffffffffffffffffffffffffffffffffffffffff16146121ed576040517f08c379a00000000000000000000000000000000000000000000000000000000081526004016121e490613dc3565b60405180910390fd5b60008111612230576040517f08c379a000000000000000000000000000000000000000000000000000000000815260040161222790613d23565b60405180910390fd5b600260009054906101000a900473ffffffffffffffffffffffffffffffffffffffff1673ffffffffffffffffffffffffffffffffffffffff166335b9594c8333306040518463ffffffff1660e01b815260040161228f93929190613fd6565b600060405180830381600087803b1580156122a957600080fd5b505af11580156122bd573d6000803e3d6000fd5b5050505060405180606001604052808381526020013373ffffffffffffffffffffffffffffffffffffffff16815260200182815250600960008481526020019081526020016000206000820151816000015560208201518160010160006101000a81548173ffffffffffffffffffffffffffffffffffffffff021916908373ffffffffffffffffffffffffffffffffffffffff160217905550604082015181600201559050503373ffffffffffffffffffffffffffffffffffffffff16827f557e20be357a3ff3fc08cf2b8e6986333057886a281d0409a7e751c3fd700ec0836040516123aa9190613fbb565b60405180910390a3600180819055505050565b6060600260009054906101000a900473ffffffffffffffffffffffffffffffffffffffff1673ffffffffffffffffffffffffffffffffffffffff1663e6b1fa2a306040518263ffffffff1660e01b815260040161241a9190613ba4565b60006040518083038186803b15801561243257600080fd5b505afa158015612446573d6000803e3d6000fd5b505050506040513d6000823e3d601f19601f8201168201806040525081019061246f91906134f7565b905090565b600260009054906101000a900473ffffffffffffffffffffffffffffffffffffffff1681565b6124a2613242565b6000600760008673ffffffffffffffffffffffffffffffffffffffff1673ffffffffffffffffffffffffffffffffffffffff1681526020019081526020016000209050600081805490509050600084866124fc919061416e565b821161250957600061252d565b846001876125179190614118565b612521919061416e565b8261252c91906141c8565b5b90506000858761253d919061416e565b8361254891906141c8565b9050828211806125585750600082105b1561256257600091505b60008111158061257d575082868861257a919061416e565b10155b156125ff576040518060600160405280600067ffffffffffffffff8111156125a8576125a7614364565b5b6040519080825280602002602001820160405280156125e157816020015b6125ce613265565b8152602001906001900390816125c65790505b508152602001848152602001600015158152509450505050506127e4565b6000828261260d91906141c8565b905060008167ffffffffffffffff81111561262b5761262a614364565b5b60405190808252806020026020018201604052801561266457816020015b612651613265565b8152602001906001900390816126495790505b50905060005b828110156127b55760056000888360018861268591906141c8565b61268f91906141c8565b815481106126a05761269f614335565b5b906000526020600020015481526020019081526020016000206040518060800160405290816000820160009054906101000a900473ffffffffffffffffffffffffffffffffffffffff1673ffffffffffffffffffffffffffffffffffffffff1673ffffffffffffffffffffffffffffffffffffffff1681526020016001820160009054906101000a900473ffffffffffffffffffffffffffffffffffffffff1673ffffffffffffffffffffffffffffffffffffffff1673ffffffffffffffffffffffffffffffffffffffff1681526020016002820154815260200160038201548152505082828151811061279757612796614335565b5b602002602001018190525080806127ad906142bd565b91505061266a565b506000808511905060405180606001604052808381526020018781526020018215158152509750505050505050505b9392505050565b60006127f561113f565b905090565b612802612d68565b73ffffffffffffffffffffffffffffffffffffffff16612820611658565b73ffffffffffffffffffffffffffffffffffffffff1614612876576040517f08c379a000000000000000000000000000000000000000000000000000000000815260040161286d90613e23565b60405180910390fd5b600073ffffffffffffffffffffffffffffffffffffffff168173ffffffffffffffffffffffffffffffffffffffff1614156128e6576040517f08c379a00000000000000000000000000000000000000000000000000000000081526004016128dd90613d43565b60405180910390fd5b6128ef81612f13565b50565b60026001541415612938576040517f08c379a000000000000000000000000000000000000000000000000000000000815260040161292f90613f23565b60405180910390fd5b60026001819055506000600960008381526020019081526020016000209050600073ffffffffffffffffffffffffffffffffffffffff168160010160009054906101000a900473ffffffffffffffffffffffffffffffffffffffff1673ffffffffffffffffffffffffffffffffffffffff1614156129eb576040517f08c379a00000000000000000000000000000000000000000000000000000000081526004016129e290613d83565b60405180910390fd5b8060010160009054906101000a900473ffffffffffffffffffffffffffffffffffffffff1673ffffffffffffffffffffffffffffffffffffffff163373ffffffffffffffffffffffffffffffffffffffff161415612a7e576040517f08c379a0000000000000000000000000000000000000000000000000000000008152600401612a7590613ec3565b60405180910390fd5b60008160020154905060008260010160009054906101000a900473ffffffffffffffffffffffffffffffffffffffff16905081612aba3361096e565b1015612afb576040517f08c379a0000000000000000000000000000000000000000000000000000000008152600401612af290613da3565b60405180910390fd5b612b06338284612d70565b600260009054906101000a900473ffffffffffffffffffffffffffffffffffffffff1673ffffffffffffffffffffffffffffffffffffffff166335b9594c8530336040518463ffffffff1660e01b8152600401612b6593929190613fd6565b600060405180830381600087803b158015612b7f57600080fd5b505af1158015612b93573d6000803e3d6000fd5b50505050600960008581526020019081526020016000206000808201600090556001820160006101000a81549073ffffffffffffffffffffffffffffffffffffffff0219169055600282016000905550503373ffffffffffffffffffffffffffffffffffffffff168173ffffffffffffffffffffffffffffffffffffffff16857f94ddf8232f3af1f844abb74cd56287ba5507090df04bf3c2e006bf74e904a28385604051612c429190613fbb565b60405180910390a45050506001808190555050565b612c5f6132b9565b600060086000848152602001908152602001600020604051806060016040529081600082015481526020016001820160009054906101000a900473ffffffffffffffffffffffffffffffffffffffff1673ffffffffffffffffffffffffffffffffffffffff1673ffffffffffffffffffffffffffffffffffffffff1681526020016002820154815250509050600073ffffffffffffffffffffffffffffffffffffffff16816020015173ffffffffffffffffffffffffffffffffffffffff161415612d5f576040517f08c379a0000000000000000000000000000000000000000000000000000000008152600401612d5690613ce3565b60405180910390fd5b80915050919050565b600033905090565b80600460008573ffffffffffffffffffffffffffffffffffffffff1673ffffffffffffffffffffffffffffffffffffffff168152602001908152602001600020541015612df2576040517f08c379a0000000000000000000000000000000000000000000000000000000008152600401612de990613da3565b60405180910390fd5b80600460008573ffffffffffffffffffffffffffffffffffffffff1673ffffffffffffffffffffffffffffffffffffffff1681526020019081526020016000206000828254612e4191906141c8565b9250508190555080600460008473ffffffffffffffffffffffffffffffffffffffff1673ffffffffffffffffffffffffffffffffffffffff1681526020019081526020016000206000828254612e979190614118565b92505081905550612ea9838383612fd7565b8173ffffffffffffffffffffffffffffffffffffffff168373ffffffffffffffffffffffffffffffffffffffff167f69d14b96c06609a8976851e9503b0a6b1c60b96a8ba6e5a1a313e8a290138e1583604051612f069190613fbb565b60405180910390a3505050565b60008060009054906101000a900473ffffffffffffffffffffffffffffffffffffffff169050816000806101000a81548173ffffffffffffffffffffffffffffffffffffffff021916908373ffffffffffffffffffffffffffffffffffffffff1602179055508173ffffffffffffffffffffffffffffffffffffffff168173ffffffffffffffffffffffffffffffffffffffff167f8be0079c531659141344cd1fd0a4f28419497f9722a3daafe3b4186f6b6457e060405160405180910390a35050565b60066000815480929190612fea906142bd565b919050555060405180608001604052808473ffffffffffffffffffffffffffffffffffffffff1681526020018373ffffffffffffffffffffffffffffffffffffffff1681526020018281526020014281525060056000600654815260200190815260200160002060008201518160000160006101000a81548173ffffffffffffffffffffffffffffffffffffffff021916908373ffffffffffffffffffffffffffffffffffffffff16021790555060208201518160010160006101000a81548173ffffffffffffffffffffffffffffffffffffffff021916908373ffffffffffffffffffffffffffffffffffffffff1602179055506040820151816002015560608201518160030155905050600760008473ffffffffffffffffffffffffffffffffffffffff1673ffffffffffffffffffffffffffffffffffffffff1681526020019081526020016000206006549080600181540180825580915050600190039060005260206000200160009091909190915055600760008373ffffffffffffffffffffffffffffffffffffffff1673ffffffffffffffffffffffffffffffffffffffff16815260200190815260200160002060065490806001815401808255809150506001900390600052602060002001600090919091909150556006547f753ae2aaaf39e14f83785986367e2865dbbccf8c9b24ce246f61939bc0f5d7a8848484426040516131fe9493929190613bf6565b60405180910390a2505050565b604051806060016040528060008152602001600073ffffffffffffffffffffffffffffffffffffffff168152602001600081525090565b604051806060016040528060608152602001600081526020016000151581525090565b6040518060800160405280600073ffffffffffffffffffffffffffffffffffffffff168152602001600073ffffffffffffffffffffffffffffffffffffffff16815260200160008152602001600081525090565b604051806060016040528060008152602001600073ffffffffffffffffffffffffffffffffffffffff168152602001600081525090565b60006133036132fe84614069565b614044565b9050808382526020820190508285602086028201111561332657613325614398565b5b60005b85811015613356578161333c88826133e2565b845260208401935060208301925050600181019050613329565b5050509392505050565b60008135905061336f816147d3565b92915050565b600081519050613384816147d3565b92915050565b600082601f83011261339f5761339e614393565b5b81516133af8482602086016132f0565b91505092915050565b6000815190506133c7816147ea565b92915050565b6000813590506133dc81614801565b92915050565b6000815190506133f181614801565b92915050565b60006020828403121561340d5761340c6143a2565b5b600061341b84828501613360565b91505092915050565b60006020828403121561343a576134396143a2565b5b600061344884828501613375565b91505092915050565b60008060006060848603121561346a576134696143a2565b5b600061347886828701613360565b935050602061348986828701613360565b925050604061349a868287016133cd565b9150509250925092565b6000806000606084860312156134bd576134bc6143a2565b5b60006134cb86828701613360565b93505060206134dc868287016133cd565b92505060406134ed868287016133cd565b9150509250925092565b60006020828403121561350d5761350c6143a2565b5b600082015167ffffffffffffffff81111561352b5761352a61439d565b5b6135378482850161338a565b91505092915050565b600060208284031215613556576135556143a2565b5b6000613564848285016133b8565b91505092915050565b600060208284031215613583576135826143a2565b5b6000613591848285016133cd565b91505092915050565b6000602082840312156135b0576135af6143a2565b5b60006135be848285016133e2565b91505092915050565b600080604083850312156135de576135dd6143a2565b5b60006135ec858286016133cd565b92505060206135fd85828601613360565b9150509250929050565b6000806040838503121561361e5761361d6143a2565b5b600061362c858286016133cd565b925050602061363d858286016133cd565b9150509250929050565b60006136538383613ae1565b60808301905092915050565b600061366b8383613b86565b60208301905092915050565b613680816141fc565b82525050565b61368f816141fc565b82525050565b60006136a0826140b5565b6136aa81856140e5565b93506136b583614095565b8060005b838110156136e65781516136cd8882613647565b97506136d8836140cb565b9250506001810190506136b9565b5085935050505092915050565b60006136fe826140c0565b61370881856140f6565b9350613713836140a5565b8060005b8381101561374457815161372b888261365f565b9750613736836140d8565b925050600181019050613717565b5085935050505092915050565b61375a8161420e565b82525050565b61376981614244565b82525050565b61377881614256565b82525050565b600061378b602083614107565b9150613796826143b8565b602082019050919050565b60006137ae602383614107565b91506137b9826143e1565b604082019050919050565b60006137d1602583614107565b91506137dc82614430565b604082019050919050565b60006137f4601f83614107565b91506137ff8261447f565b602082019050919050565b6000613817602683614107565b9150613822826144a8565b604082019050919050565b600061383a600f83614107565b9150613845826144f7565b602082019050919050565b600061385d601883614107565b915061386882614520565b602082019050919050565b6000613880601483614107565b915061388b82614549565b602082019050919050565b60006138a3601683614107565b91506138ae82614572565b602082019050919050565b60006138c6601283614107565b91506138d18261459b565b602082019050919050565b60006138e9601983614107565b91506138f4826145c4565b602082019050919050565b600061390c602083614107565b9150613917826145ed565b602082019050919050565b600061392f602883614107565b915061393a82614616565b604082019050919050565b6000613952601a83614107565b915061395d82614665565b602082019050919050565b6000613975601a83614107565b91506139808261468e565b602082019050919050565b6000613998601b83614107565b91506139a3826146b7565b602082019050919050565b60006139bb601a83614107565b91506139c6826146e0565b602082019050919050565b60006139de601183614107565b91506139e982614709565b602082019050919050565b6000613a01602683614107565b9150613a0c82614732565b604082019050919050565b6000613a24601f83614107565b9150613a2f82614781565b602082019050919050565b6000613a47601b83614107565b9150613a52826147aa565b602082019050919050565b606082016000820151613a736000850182613b86565b506020820151613a866020850182613677565b506040820151613a996040850182613b86565b50505050565b606082016000820151613ab56000850182613b86565b506020820151613ac86020850182613677565b506040820151613adb6040850182613b86565b50505050565b608082016000820151613af76000850182613677565b506020820151613b0a6020850182613677565b506040820151613b1d6040850182613b86565b506060820151613b306060850182613b86565b50505050565b60006060830160008301518482036000860152613b538282613695565b9150506020830151613b686020860182613b86565b506040830151613b7b6040860182613751565b508091505092915050565b613b8f8161423a565b82525050565b613b9e8161423a565b82525050565b6000602082019050613bb96000830184613686565b92915050565b6000606082019050613bd46000830186613686565b613be16020830185613686565b613bee6040830184613b95565b949350505050565b6000608082019050613c0b6000830187613686565b613c186020830186613686565b613c256040830185613b95565b613c326060830184613b95565b95945050505050565b60006020820190508181036000830152613c5581846136f3565b905092915050565b60006040820190508181036000830152613c7781856136f3565b9050613c866020830184613b95565b9392505050565b6000602082019050613ca26000830184613760565b92915050565b6000602082019050613cbd600083018461376f565b92915050565b60006020820190508181036000830152613cdc8161377e565b9050919050565b60006020820190508181036000830152613cfc816137a1565b9050919050565b60006020820190508181036000830152613d1c816137c4565b9050919050565b60006020820190508181036000830152613d3c816137e7565b9050919050565b60006020820190508181036000830152613d5c8161380a565b9050919050565b60006020820190508181036000830152613d7c8161382d565b9050919050565b60006020820190508181036000830152613d9c81613850565b9050919050565b60006020820190508181036000830152613dbc81613873565b9050919050565b60006020820190508181036000830152613ddc81613896565b9050919050565b60006020820190508181036000830152613dfc816138b9565b9050919050565b60006020820190508181036000830152613e1c816138dc565b9050919050565b60006020820190508181036000830152613e3c816138ff565b9050919050565b60006020820190508181036000830152613e5c81613922565b9050919050565b60006020820190508181036000830152613e7c81613945565b9050919050565b60006020820190508181036000830152613e9c81613968565b9050919050565b60006020820190508181036000830152613ebc8161398b565b9050919050565b60006020820190508181036000830152613edc816139ae565b9050919050565b60006020820190508181036000830152613efc816139d1565b9050919050565b60006020820190508181036000830152613f1c816139f4565b9050919050565b60006020820190508181036000830152613f3c81613a17565b9050919050565b60006020820190508181036000830152613f5c81613a3a565b9050919050565b6000606082019050613f786000830184613a5d565b92915050565b6000606082019050613f936000830184613a9f565b92915050565b60006020820190508181036000830152613fb38184613b36565b905092915050565b6000602082019050613fd06000830184613b95565b92915050565b6000606082019050613feb6000830186613b95565b613ff86020830185613686565b6140056040830184613686565b949350505050565b60006060820190506140226000830186613b95565b61402f6020830185613686565b61403c6040830184613b95565b949350505050565b600061404e61405f565b905061405a828261428c565b919050565b6000604051905090565b600067ffffffffffffffff82111561408457614083614364565b5b602082029050602081019050919050565b6000819050602082019050919050565b6000819050602082019050919050565b600081519050919050565b600081519050919050565b6000602082019050919050565b6000602082019050919050565b600082825260208201905092915050565b600082825260208201905092915050565b600082825260208201905092915050565b60006141238261423a565b915061412e8361423a565b9250827fffffffffffffffffffffffffffffffffffffffffffffffffffffffffffffffff0382111561416357614162614306565b5b828201905092915050565b60006141798261423a565b91506141848361423a565b9250817fffffffffffffffffffffffffffffffffffffffffffffffffffffffffffffffff04831182151516156141bd576141bc614306565b5b828202905092915050565b60006141d38261423a565b91506141de8361423a565b9250828210156141f1576141f0614306565b5b828203905092915050565b60006142078261421a565b9050919050565b60008115159050919050565b600073ffffffffffffffffffffffffffffffffffffffff82169050919050565b6000819050919050565b600061424f82614268565b9050919050565b600061426182614268565b9050919050565b60006142738261427a565b9050919050565b60006142858261421a565b9050919050565b614295826143a7565b810181811067ffffffffffffffff821117156142b4576142b3614364565b5b80604052505050565b60006142c88261423a565b91507fffffffffffffffffffffffffffffffffffffffffffffffffffffffffffffffff8214156142fb576142fa614306565b5b600182019050919050565b7f4e487b7100000000000000000000000000000000000000000000000000000000600052601160045260246000fd5b7f4e487b7100000000000000000000000000000000000000000000000000000000600052603260045260246000fd5b7f4e487b7100000000000000000000000000000000000000000000000000000000600052604160045260246000fd5b600080fd5b600080fd5b600080fd5b600080fd5b6000601f19601f8301169050919050565b7f53656c6c20646f6573206e6f7420657869737420666f722074686973204e4654600082015250565b7f41756374696f6e20646f6573206e6f7420657869737420666f7220746869732060008201527f4e46540000000000000000000000000000000000000000000000000000000000602082015250565b7f4465706f73697420616d6f756e74206d7573742062652067726561746572207460008201527f68616e2030000000000000000000000000000000000000000000000000000000602082015250565b7f5072696365206d7573742062652067726561746572207468616e207a65726f00600082015250565b7f4f776e61626c653a206e6577206f776e657220697320746865207a65726f206160008201527f6464726573730000000000000000000000000000000000000000000000000000602082015250565b7f5472616e73666572206661696c65640000000000000000000000000000000000600082015250565b7f54686973204e4654206973206e6f7420666f722073616c650000000000000000600082015250565b7f496e73756666696369656e742062616c616e6365000000000000000000000000600082015250565b7f596f7520646f6e2774206f776e2074686973204e465400000000000000000000600082015250565b7f4e4654206e6f7420696e2041756374696f6e0000000000000000000000000000600082015250565b7f496e76616c696420726563697069656e74206164647265737300000000000000600082015250565b7f4f776e61626c653a2063616c6c6572206973206e6f7420746865206f776e6572600082015250565b7f5769746864726177616c20616d6f756e74206d7573742062652067726561746560008201527f72207468616e2030000000000000000000000000000000000000000000000000602082015250565b7f54686973206d61726b657420646f6573206e6f74206578697374000000000000600082015250565b7f53656c6c65722063616e6e6f7420626520746865206275796572000000000000600082015250565b7f43616e6e6f74207472616e7366657220746f20796f757273656c660000000000600082015250565b7f596f752063616e27742062757920796f7572206f776e204e4654000000000000600082015250565b7f4e4654206e6f7420696e206d61726b6574000000000000000000000000000000600082015250565b7f5472616e7366657220616d6f756e74206d75737420626520677265617465722060008201527f7468616e20300000000000000000000000000000000000000000000000000000602082015250565b7f5265656e7472616e637947756172643a207265656e7472616e742063616c6c00600082015250565b7f546869732061756374696f6e20646f6573206e6f742065786973740000000000600082015250565b6147dc816141fc565b81146147e757600080fd5b50565b6147f38161420e565b81146147fe57600080fd5b50565b61480a8161423a565b811461481557600080fd5b5056fea264697066735822122052a7340e5702ac24113ab25306cf83fad6e8fb34c6fe6d0a4cffe2d0c3acc38364736f6c63430008070033",
  "immutableReferences": {},
  "source": "// SPDX-License-Identifier: MIT\r\npragma solidity ^0.8.7;\r\n\r\nimport \"./NFTAuction.sol\";\r\nimport \"./NFTMarket.sol\";\r\nimport \"./TradeBase.sol\";\r\n\r\ncontract IntegratedNFTSystem is NFTAuction, NFTMarket {\r\n    // \r\n    constructor(address _nftContractAddress, address _tokenContractAddress) {\r\n        initializeContracts(_nftContractAddress, _tokenContractAddress);\r\n        nftContract.setMainContractAddress(address(this));\r\n        tokenContract.setMainContractAddress(address(this));\r\n    }\r\n\r\n    //   NFT (   NFT)\r\n    function getAllContractOwnedNFTs() public view returns (uint256[] memory) {\r\n        return getContractOwnedNFTs();\r\n    }\r\n\r\n    //    ( )\r\n    function getTotalContractBalance() public view returns (uint256) {\r\n        return getContractBalance();\r\n    }\r\n\r\n    // NFT   \r\n    function getCombinedOwnedAssets() public view returns (uint256[] memory nftIds, uint256 totalCoins) {\r\n        uint256[] memory allNFTs = getAllContractOwnedNFTs();\r\n        uint256 totalBalance = getTotalContractBalance();\r\n\r\n        return (allNFTs, totalBalance);\r\n    }\r\n}",
  "sourcePath": "C:\\Users\\SSAFY\\Desktop\\semonemo\\backend\\blockchain-server\\smartcontract\\contracts\\System.sol",
  "compiler": {
    "name": "solc",
    "version": "0.8.7+commit.e28d00a7.Emscripten.clang"
  },
  "schemaVersion": "3.4.16",
  "updatedAt": "2024-10-03T07:17:34.356Z",
  "networkType": "ethereum",
  "devdoc": {
    "kind": "dev",
    "methods": {
      "owner()": {
        "details": "Returns the address of the current owner."
      },
      "renounceOwnership()": {
        "details": "Leaves the contract without owner. It will not be possible to call `onlyOwner` functions anymore. Can only be called by the current owner. NOTE: Renouncing ownership will leave the contract without an owner, thereby removing any functionality that is only available to the owner."
      },
      "transferOwnership(address)": {
        "details": "Transfers ownership of the contract to a new account (`newOwner`). Can only be called by the current owner."
      }
    },
    "version": 1
  },
  "userdoc": {
    "kind": "user",
    "methods": {},
    "version": 1
  }
}