{
  "contractName": "IntegratedNFTSystem",
  "abi": [
    {
      "inputs": [
        {
          "internalType": "address",
          "name": "_nftContractAddress",
          "type": "address"
        },
        {
          "internalType": "address",
          "name": "_tokenContractAddress",
          "type": "address"
        }
      ],
      "stateMutability": "nonpayable",
      "type": "constructor"
    },
    {
      "anonymous": false,
      "inputs": [
        {
          "indexed": true,
          "internalType": "uint256",
          "name": "nftId",
          "type": "uint256"
        },
        {
          "indexed": true,
          "internalType": "address",
          "name": "seller",
          "type": "address"
        }
      ],
      "name": "AuctionCancelled",
      "type": "event"
    },
    {
      "anonymous": false,
      "inputs": [
        {
          "indexed": true,
          "internalType": "uint256",
          "name": "nftId",
          "type": "uint256"
        },
        {
          "indexed": true,
          "internalType": "address",
          "name": "seller",
          "type": "address"
        },
        {
          "indexed": true,
          "internalType": "address",
          "name": "buyer",
          "type": "address"
        },
        {
          "indexed": false,
          "internalType": "uint256",
          "name": "price",
          "type": "uint256"
        }
      ],
      "name": "AuctionClosed",
      "type": "event"
    },
    {
      "anonymous": false,
      "inputs": [
        {
          "indexed": true,
          "internalType": "uint256",
          "name": "nftId",
          "type": "uint256"
        },
        {
          "indexed": true,
          "internalType": "address",
          "name": "seller",
          "type": "address"
        },
        {
          "indexed": false,
          "internalType": "uint256",
          "name": "price",
          "type": "uint256"
        }
      ],
      "name": "AuctionStarted",
      "type": "event"
    },
    {
      "anonymous": false,
      "inputs": [
        {
          "indexed": true,
          "internalType": "address",
          "name": "from",
          "type": "address"
        },
        {
          "indexed": true,
          "internalType": "address",
          "name": "to",
          "type": "address"
        },
        {
          "indexed": false,
          "internalType": "uint256",
          "name": "amount",
          "type": "uint256"
        }
      ],
      "name": "BalanceAdjusted",
      "type": "event"
    },
    {
      "anonymous": false,
      "inputs": [
        {
          "indexed": true,
          "internalType": "address",
          "name": "from",
          "type": "address"
        },
        {
          "indexed": true,
          "internalType": "address",
          "name": "to",
          "type": "address"
        },
        {
          "indexed": false,
          "internalType": "uint256",
          "name": "amount",
          "type": "uint256"
        }
      ],
      "name": "BalanceTransferred",
      "type": "event"
    },
    {
      "anonymous": false,
      "inputs": [
        {
          "indexed": true,
          "internalType": "address",
          "name": "user",
          "type": "address"
        },
        {
          "indexed": false,
          "internalType": "uint256",
          "name": "amount",
          "type": "uint256"
        }
      ],
      "name": "Deposit",
      "type": "event"
    },
    {
      "anonymous": false,
      "inputs": [
        {
          "indexed": true,
          "internalType": "uint256",
          "name": "nftId",
          "type": "uint256"
        },
        {
          "indexed": true,
          "internalType": "address",
          "name": "seller",
          "type": "address"
        }
      ],
      "name": "MarketCancelled",
      "type": "event"
    },
    {
      "anonymous": false,
      "inputs": [
        {
          "indexed": true,
          "internalType": "uint256",
          "name": "nftId",
          "type": "uint256"
        },
        {
          "indexed": true,
          "internalType": "address",
          "name": "seller",
          "type": "address"
        },
        {
          "indexed": false,
          "internalType": "uint256",
          "name": "price",
          "type": "uint256"
        }
      ],
      "name": "MarketCreated",
      "type": "event"
    },
    {
      "anonymous": false,
      "inputs": [
        {
          "indexed": true,
          "internalType": "uint256",
          "name": "nftId",
          "type": "uint256"
        },
        {
          "indexed": true,
          "internalType": "address",
          "name": "seller",
          "type": "address"
        },
        {
          "indexed": true,
          "internalType": "address",
          "name": "buyer",
          "type": "address"
        },
        {
          "indexed": false,
          "internalType": "uint256",
          "name": "price",
          "type": "uint256"
        }
      ],
      "name": "MarketSold",
      "type": "event"
    },
    {
      "anonymous": false,
      "inputs": [
        {
          "indexed": true,
          "internalType": "address",
          "name": "previousOwner",
          "type": "address"
        },
        {
          "indexed": true,
          "internalType": "address",
          "name": "newOwner",
          "type": "address"
        }
      ],
      "name": "OwnershipTransferred",
      "type": "event"
    },
    {
      "anonymous": false,
      "inputs": [
        {
          "indexed": true,
          "internalType": "address",
          "name": "user",
          "type": "address"
        },
        {
          "indexed": false,
          "internalType": "uint256",
          "name": "amount",
          "type": "uint256"
        }
      ],
      "name": "Withdrawal",
      "type": "event"
    },
    {
      "inputs": [
        {
          "internalType": "uint256",
          "name": "",
          "type": "uint256"
        }
      ],
      "name": "auctions",
      "outputs": [
        {
          "internalType": "uint256",
          "name": "nftId",
          "type": "uint256"
        },
        {
          "internalType": "address",
          "name": "seller",
          "type": "address"
        },
        {
          "internalType": "uint256",
          "name": "price",
          "type": "uint256"
        }
      ],
      "stateMutability": "view",
      "type": "function"
    },
    {
      "inputs": [
        {
          "internalType": "uint256",
          "name": "_nftId",
          "type": "uint256"
        }
      ],
      "name": "buyMarket",
      "outputs": [],
      "stateMutability": "nonpayable",
      "type": "function"
    },
    {
      "inputs": [
        {
          "internalType": "uint256",
          "name": "_nftId",
          "type": "uint256"
        }
      ],
      "name": "cancelAuction",
      "outputs": [],
      "stateMutability": "nonpayable",
      "type": "function"
    },
    {
      "inputs": [
        {
          "internalType": "uint256",
          "name": "_nftId",
          "type": "uint256"
        }
      ],
      "name": "cancelMarket",
      "outputs": [],
      "stateMutability": "nonpayable",
      "type": "function"
    },
    {
      "inputs": [
        {
          "internalType": "uint256",
          "name": "_nftId",
          "type": "uint256"
        },
        {
          "internalType": "address",
          "name": "buyer",
          "type": "address"
        }
      ],
      "name": "closeAuction",
      "outputs": [],
      "stateMutability": "nonpayable",
      "type": "function"
    },
    {
      "inputs": [
        {
          "internalType": "uint256",
          "name": "_nftId",
          "type": "uint256"
        },
        {
          "internalType": "uint256",
          "name": "price",
          "type": "uint256"
        }
      ],
      "name": "createMarket",
      "outputs": [],
      "stateMutability": "nonpayable",
      "type": "function"
    },
    {
      "inputs": [
        {
          "internalType": "uint256",
          "name": "amount",
          "type": "uint256"
        }
      ],
      "name": "deposit",
      "outputs": [],
      "stateMutability": "nonpayable",
      "type": "function"
    },
    {
      "inputs": [
        {
          "internalType": "uint256",
          "name": "_nftId",
          "type": "uint256"
        }
      ],
      "name": "getAuctionInfo",
      "outputs": [
        {
          "components": [
            {
              "internalType": "uint256",
              "name": "nftId",
              "type": "uint256"
            },
            {
              "internalType": "address",
              "name": "seller",
              "type": "address"
            },
            {
              "internalType": "uint256",
              "name": "price",
              "type": "uint256"
            }
          ],
          "internalType": "struct NFTAuction.Auction",
          "name": "",
          "type": "tuple"
        }
      ],
      "stateMutability": "view",
      "type": "function"
    },
    {
      "inputs": [],
      "name": "getContractBalance",
      "outputs": [
        {
          "internalType": "uint256",
          "name": "",
          "type": "uint256"
        }
      ],
      "stateMutability": "view",
      "type": "function"
    },
    {
      "inputs": [],
      "name": "getContractOwnedNFTs",
      "outputs": [
        {
          "internalType": "uint256[]",
          "name": "",
          "type": "uint256[]"
        }
      ],
      "stateMutability": "view",
      "type": "function"
    },
    {
      "inputs": [
        {
          "internalType": "uint256",
          "name": "_nftId",
          "type": "uint256"
        }
      ],
      "name": "getMarketInfo",
      "outputs": [
        {
          "components": [
            {
              "internalType": "uint256",
              "name": "nftId",
              "type": "uint256"
            },
            {
              "internalType": "address",
              "name": "seller",
              "type": "address"
            },
            {
              "internalType": "uint256",
              "name": "price",
              "type": "uint256"
            }
          ],
          "internalType": "struct NFTMarket.Market",
          "name": "",
          "type": "tuple"
        }
      ],
      "stateMutability": "view",
      "type": "function"
    },
    {
      "inputs": [
        {
          "internalType": "address",
          "name": "user",
          "type": "address"
        }
      ],
      "name": "getUserBalance",
      "outputs": [
        {
          "internalType": "uint256",
          "name": "",
          "type": "uint256"
        }
      ],
      "stateMutability": "view",
      "type": "function"
    },
    {
      "inputs": [
        {
          "internalType": "uint256",
          "name": "",
          "type": "uint256"
        }
      ],
      "name": "markets",
      "outputs": [
        {
          "internalType": "uint256",
          "name": "nftId",
          "type": "uint256"
        },
        {
          "internalType": "address",
          "name": "seller",
          "type": "address"
        },
        {
          "internalType": "uint256",
          "name": "price",
          "type": "uint256"
        }
      ],
      "stateMutability": "view",
      "type": "function"
    },
    {
      "inputs": [],
      "name": "nftContract",
      "outputs": [
        {
          "internalType": "contract NFTFrame",
          "name": "",
          "type": "address"
        }
      ],
      "stateMutability": "view",
      "type": "function"
    },
    {
      "inputs": [],
      "name": "owner",
      "outputs": [
        {
          "internalType": "address",
          "name": "",
          "type": "address"
        }
      ],
      "stateMutability": "view",
      "type": "function"
    },
    {
      "inputs": [],
      "name": "renounceOwnership",
      "outputs": [],
      "stateMutability": "nonpayable",
      "type": "function"
    },
    {
      "inputs": [
        {
          "internalType": "uint256",
          "name": "_nftId",
          "type": "uint256"
        },
        {
          "internalType": "uint256",
          "name": "price",
          "type": "uint256"
        }
      ],
      "name": "startAuction",
      "outputs": [],
      "stateMutability": "nonpayable",
      "type": "function"
    },
    {
      "inputs": [],
      "name": "tokenContract",
      "outputs": [
        {
          "internalType": "contract AhoraCoin",
          "name": "",
          "type": "address"
        }
      ],
      "stateMutability": "view",
      "type": "function"
    },
    {
      "inputs": [
        {
          "internalType": "address",
          "name": "to",
          "type": "address"
        },
        {
          "internalType": "uint256",
          "name": "amount",
          "type": "uint256"
        }
      ],
      "name": "transferBalance",
      "outputs": [],
      "stateMutability": "nonpayable",
      "type": "function"
    },
    {
      "inputs": [
        {
          "internalType": "address",
          "name": "newOwner",
          "type": "address"
        }
      ],
      "name": "transferOwnership",
      "outputs": [],
      "stateMutability": "nonpayable",
      "type": "function"
    },
    {
      "inputs": [
        {
          "internalType": "uint256",
          "name": "amount",
          "type": "uint256"
        }
      ],
      "name": "withdraw",
      "outputs": [],
      "stateMutability": "nonpayable",
      "type": "function"
    },
    {
      "inputs": [],
      "name": "getAllContractOwnedNFTs",
      "outputs": [
        {
          "internalType": "uint256[]",
          "name": "",
          "type": "uint256[]"
        }
      ],
      "stateMutability": "view",
      "type": "function"
    },
    {
      "inputs": [],
      "name": "getTotalContractBalance",
      "outputs": [
        {
          "internalType": "uint256",
          "name": "",
          "type": "uint256"
        }
      ],
      "stateMutability": "view",
      "type": "function"
    },
    {
      "inputs": [],
      "name": "getCombinedOwnedAssets",
      "outputs": [
        {
          "internalType": "uint256[]",
          "name": "nftIds",
          "type": "uint256[]"
        },
        {
          "internalType": "uint256",
          "name": "totalCoins",
          "type": "uint256"
        }
      ],
      "stateMutability": "view",
      "type": "function"
    }
  ],
  "bytecode": "0x60806040523480156200001157600080fd5b5060405162004476380380620044768339818101604052810190620000379190620003f2565b620000576200004b6200019a60201b60201c565b620001a260201b60201c565b600180819055506200007082826200026660201b60201c565b600260009054906101000a900473ffffffffffffffffffffffffffffffffffffffff1673ffffffffffffffffffffffffffffffffffffffff1663ec9da59e306040518263ffffffff1660e01b8152600401620000cd919062000471565b600060405180830381600087803b158015620000e857600080fd5b505af1158015620000fd573d6000803e3d6000fd5b50505050600360009054906101000a900473ffffffffffffffffffffffffffffffffffffffff1673ffffffffffffffffffffffffffffffffffffffff1663ec9da59e306040518263ffffffff1660e01b81526004016200015e919062000471565b600060405180830381600087803b1580156200017957600080fd5b505af11580156200018e573d6000803e3d6000fd5b5050505050506200053d565b600033905090565b60008060009054906101000a900473ffffffffffffffffffffffffffffffffffffffff169050816000806101000a81548173ffffffffffffffffffffffffffffffffffffffff021916908373ffffffffffffffffffffffffffffffffffffffff1602179055508173ffffffffffffffffffffffffffffffffffffffff168173ffffffffffffffffffffffffffffffffffffffff167f8be0079c531659141344cd1fd0a4f28419497f9722a3daafe3b4186f6b6457e060405160405180910390a35050565b600073ffffffffffffffffffffffffffffffffffffffff16600260009054906101000a900473ffffffffffffffffffffffffffffffffffffffff1673ffffffffffffffffffffffffffffffffffffffff16148015620003135750600073ffffffffffffffffffffffffffffffffffffffff16600360009054906101000a900473ffffffffffffffffffffffffffffffffffffffff1673ffffffffffffffffffffffffffffffffffffffff16145b62000355576040517f08c379a00000000000000000000000000000000000000000000000000000000081526004016200034c906200048e565b60405180910390fd5b81600260006101000a81548173ffffffffffffffffffffffffffffffffffffffff021916908373ffffffffffffffffffffffffffffffffffffffff16021790555080600360006101000a81548173ffffffffffffffffffffffffffffffffffffffff021916908373ffffffffffffffffffffffffffffffffffffffff1602179055505050565b600081519050620003ec8162000523565b92915050565b600080604083850312156200040c576200040b620004f5565b5b60006200041c85828601620003db565b92505060206200042f85828601620003db565b9150509250929050565b6200044481620004c1565b82525050565b600062000459601d83620004b0565b91506200046682620004fa565b602082019050919050565b600060208201905062000488600083018462000439565b92915050565b60006020820190508181036000830152620004a9816200044a565b9050919050565b600082825260208201905092915050565b6000620004ce82620004d5565b9050919050565b600073ffffffffffffffffffffffffffffffffffffffff82169050919050565b600080fd5b7f436f6e74726163747320616c726561647920696e697469616c697a6564000000600082015250565b6200052e81620004c1565b81146200053a57600080fd5b50565b613f29806200054d6000396000f3fe608060405234801561001057600080fd5b50600436106101585760003560e01c80638da5cb5b116100c3578063d3e6fa191161007c578063d3e6fa19146103a2578063d56d229d146103c0578063d9e3fd64146103de578063f2fde38b146103fc578063f90852c714610418578063fc3fc4ed1461043457610158565b80638da5cb5b146102df57806396b5a755146102fd578063a6c7523a14610319578063b1283e7714610338578063b6b55f251461036a578063c7604fec1461038657610158565b8063571a26a011610115578063571a26a01461022f5780636bab66ae146102615780636f9fb98a1461027d578063715018a61461029b57806373ddccb5146102a55780637c16cd9e146102c357610158565b80632e1a7d4d1461015d5780633ec791931461017957806347734892146101a95780634fee13fc146101d957806355a373d6146101f557806356a6d9ef14610213575b600080fd5b61017760048036038101906101729190612e26565b610464565b005b610193600480360381019061018e9190612e26565b610713565b6040516101a09190613734565b60405180910390f35b6101c360048036038101906101be9190612d16565b610824565b6040516101d0919061374f565b60405180910390f35b6101f360048036038101906101ee9190612ec0565b61086d565b005b6101fd610ba3565b60405161020a9190613423565b60405180910390f35b61022d60048036038101906102289190612d70565b610bc9565b005b61024960048036038101906102449190612e26565b610ed7565b604051610258939291906137ca565b60405180910390f35b61027b60048036038101906102769190612e80565b610f21565b005b610285611360565b604051610292919061374f565b60405180910390f35b6102a3611412565b005b6102ad61149a565b6040516102ba91906133d1565b60405180910390f35b6102dd60048036038101906102d89190612e26565b6114a9565b005b6102e7611898565b6040516102f49190613356565b60405180910390f35b61031760048036038101906103129190612e26565b6118c1565b005b610321611cb0565b60405161032f9291906133f3565b60405180910390f35b610352600480360381019061034d9190612e26565b611cd7565b604051610361939291906137ca565b60405180910390f35b610384600480360381019061037f9190612e26565b611d21565b005b6103a0600480360381019061039b9190612ec0565b611f50565b005b6103aa612286565b6040516103b791906133d1565b60405180910390f35b6103c861233d565b6040516103d5919061343e565b60405180910390f35b6103e6612363565b6040516103f3919061374f565b60405180910390f35b61041660048036038101906104119190612d16565b612372565b005b610432600480360381019061042d9190612e26565b61246a565b005b61044e60048036038101906104499190612e26565b61282c565b60405161045b9190613719565b60405180910390f35b600260015414156104aa576040517f08c379a00000000000000000000000000000000000000000000000000000000081526004016104a1906136d9565b60405180910390fd5b6002600181905550600081116104f5576040517f08c379a00000000000000000000000000000000000000000000000000000000081526004016104ec906135d9565b60405180910390fd5b80600460003373ffffffffffffffffffffffffffffffffffffffff1673ffffffffffffffffffffffffffffffffffffffff168152602001908152602001600020541015610577576040517f08c379a000000000000000000000000000000000000000000000000000000000815260040161056e90613539565b60405180910390fd5b80600460003373ffffffffffffffffffffffffffffffffffffffff1673ffffffffffffffffffffffffffffffffffffffff16815260200190815260200160002060008282546105c691906138f2565b92505081905550600360009054906101000a900473ffffffffffffffffffffffffffffffffffffffff1673ffffffffffffffffffffffffffffffffffffffff16631b33a8db33836040518363ffffffff1660e01b815260040161062a9291906133a8565b602060405180830381600087803b15801561064457600080fd5b505af1158015610658573d6000803e3d6000fd5b505050506040513d601f19601f8201168201806040525081019061067c9190612df9565b6106bb576040517f08c379a00000000000000000000000000000000000000000000000000000000081526004016106b2906134f9565b60405180910390fd5b3373ffffffffffffffffffffffffffffffffffffffff167f7fcf532c15f0a6db0bd6d0e038bea71d30d808c7d98cb3bf7268a95bf5081b6582604051610701919061374f565b60405180910390a26001808190555050565b61071b612ba1565b600060066000848152602001908152602001600020604051806060016040529081600082015481526020016001820160009054906101000a900473ffffffffffffffffffffffffffffffffffffffff1673ffffffffffffffffffffffffffffffffffffffff1673ffffffffffffffffffffffffffffffffffffffff1681526020016002820154815250509050600073ffffffffffffffffffffffffffffffffffffffff16816020015173ffffffffffffffffffffffffffffffffffffffff16141561081b576040517f08c379a000000000000000000000000000000000000000000000000000000000815260040161081290613459565b60405180910390fd5b80915050919050565b6000600460008373ffffffffffffffffffffffffffffffffffffffff1673ffffffffffffffffffffffffffffffffffffffff168152602001908152602001600020549050919050565b600260015414156108b3576040517f08c379a00000000000000000000000000000000000000000000000000000000081526004016108aa906136d9565b60405180910390fd5b60026001819055503373ffffffffffffffffffffffffffffffffffffffff16600260009054906101000a900473ffffffffffffffffffffffffffffffffffffffff1673ffffffffffffffffffffffffffffffffffffffff16636352211e846040518263ffffffff1660e01b815260040161092d919061374f565b60206040518083038186803b15801561094557600080fd5b505afa158015610959573d6000803e3d6000fd5b505050506040513d601f19601f8201168201806040525081019061097d9190612d43565b73ffffffffffffffffffffffffffffffffffffffff16146109d3576040517f08c379a00000000000000000000000000000000000000000000000000000000081526004016109ca90613559565b60405180910390fd5b60008111610a16576040517f08c379a0000000000000000000000000000000000000000000000000000000008152600401610a0d906134b9565b60405180910390fd5b600260009054906101000a900473ffffffffffffffffffffffffffffffffffffffff1673ffffffffffffffffffffffffffffffffffffffff16634f89cea68333306040518463ffffffff1660e01b8152600401610a7593929190613793565b600060405180830381600087803b158015610a8f57600080fd5b505af1158015610aa3573d6000803e3d6000fd5b5050505060405180606001604052808381526020013373ffffffffffffffffffffffffffffffffffffffff16815260200182815250600560008481526020019081526020016000206000820151816000015560208201518160010160006101000a81548173ffffffffffffffffffffffffffffffffffffffff021916908373ffffffffffffffffffffffffffffffffffffffff160217905550604082015181600201559050503373ffffffffffffffffffffffffffffffffffffffff16827fd7d053b3d3fc9e8145896f8940adeb377f6735866f2161ef1660dae9f049247583604051610b90919061374f565b60405180910390a3600180819055505050565b600360009054906101000a900473ffffffffffffffffffffffffffffffffffffffff1681565b60026001541415610c0f576040517f08c379a0000000000000000000000000000000000000000000000000000000008152600401610c06906136d9565b60405180910390fd5b6002600181905550600073ffffffffffffffffffffffffffffffffffffffff168273ffffffffffffffffffffffffffffffffffffffff161415610c87576040517f08c379a0000000000000000000000000000000000000000000000000000000008152600401610c7e90613599565b60405180910390fd5b3373ffffffffffffffffffffffffffffffffffffffff168273ffffffffffffffffffffffffffffffffffffffff161415610cf6576040517f08c379a0000000000000000000000000000000000000000000000000000000008152600401610ced90613639565b60405180910390fd5b60008111610d39576040517f08c379a0000000000000000000000000000000000000000000000000000000008152600401610d30906136b9565b60405180910390fd5b80600460003373ffffffffffffffffffffffffffffffffffffffff1673ffffffffffffffffffffffffffffffffffffffff168152602001908152602001600020541015610dbb576040517f08c379a0000000000000000000000000000000000000000000000000000000008152600401610db290613539565b60405180910390fd5b80600460003373ffffffffffffffffffffffffffffffffffffffff1673ffffffffffffffffffffffffffffffffffffffff1681526020019081526020016000206000828254610e0a91906138f2565b9250508190555080600460008473ffffffffffffffffffffffffffffffffffffffff1673ffffffffffffffffffffffffffffffffffffffff1681526020019081526020016000206000828254610e60919061389c565b925050819055508173ffffffffffffffffffffffffffffffffffffffff163373ffffffffffffffffffffffffffffffffffffffff167f4163d0b06696468b3d7903f482bcd0097bd38a9a9086157479fd6c6561d2426183604051610ec4919061374f565b60405180910390a3600180819055505050565b60056020528060005260406000206000915090508060000154908060010160009054906101000a900473ffffffffffffffffffffffffffffffffffffffff16908060020154905083565b60026001541415610f67576040517f08c379a0000000000000000000000000000000000000000000000000000000008152600401610f5e906136d9565b60405180910390fd5b6002600181905550610f7761293d565b73ffffffffffffffffffffffffffffffffffffffff16610f95611898565b73ffffffffffffffffffffffffffffffffffffffff1614610feb576040517f08c379a0000000000000000000000000000000000000000000000000000000008152600401610fe2906135b9565b60405180910390fd5b6000600560008481526020019081526020016000209050600073ffffffffffffffffffffffffffffffffffffffff168160010160009054906101000a900473ffffffffffffffffffffffffffffffffffffffff1673ffffffffffffffffffffffffffffffffffffffff161415611096576040517f08c379a000000000000000000000000000000000000000000000000000000000815260040161108d906136f9565b60405180910390fd5b8060010160009054906101000a900473ffffffffffffffffffffffffffffffffffffffff1673ffffffffffffffffffffffffffffffffffffffff168273ffffffffffffffffffffffffffffffffffffffff161415611129576040517f08c379a000000000000000000000000000000000000000000000000000000000815260040161112090613619565b60405180910390fd5b60008160020154905060008260010160009054906101000a900473ffffffffffffffffffffffffffffffffffffffff1690508161116585610824565b10156111a6576040517f08c379a000000000000000000000000000000000000000000000000000000000815260040161119d90613539565b60405180910390fd5b6111b1848284612945565b600260009054906101000a900473ffffffffffffffffffffffffffffffffffffffff1673ffffffffffffffffffffffffffffffffffffffff16639036c05086866040518363ffffffff1660e01b815260040161120e92919061376a565b602060405180830381600087803b15801561122857600080fd5b505af115801561123c573d6000803e3d6000fd5b505050506040513d601f19601f820116820180604052508101906112609190612df9565b61129f576040517f08c379a000000000000000000000000000000000000000000000000000000000815260040161129690613679565b60405180910390fd5b600560008681526020019081526020016000206000808201600090556001820160006101000a81549073ffffffffffffffffffffffffffffffffffffffff0219169055600282016000905550508373ffffffffffffffffffffffffffffffffffffffff168173ffffffffffffffffffffffffffffffffffffffff16867f7787e67b4b8529b1aa2c1a59dbf0f0e766d63860956b86f33f5d8700882355018560405161134a919061374f565b60405180910390a4505050600180819055505050565b6000600360009054906101000a900473ffffffffffffffffffffffffffffffffffffffff1673ffffffffffffffffffffffffffffffffffffffff166370a08231306040518263ffffffff1660e01b81526004016113bd9190613356565b60206040518083038186803b1580156113d557600080fd5b505afa1580156113e9573d6000803e3d6000fd5b505050506040513d601f19601f8201168201806040525081019061140d9190612e53565b905090565b61141a61293d565b73ffffffffffffffffffffffffffffffffffffffff16611438611898565b73ffffffffffffffffffffffffffffffffffffffff161461148e576040517f08c379a0000000000000000000000000000000000000000000000000000000008152600401611485906135b9565b60405180910390fd5b6114986000612add565b565b60606114a4612286565b905090565b600260015414156114ef576040517f08c379a00000000000000000000000000000000000000000000000000000000081526004016114e6906136d9565b60405180910390fd5b600260018190555060006006600083815260200190815260200160002090503073ffffffffffffffffffffffffffffffffffffffff16600260009054906101000a900473ffffffffffffffffffffffffffffffffffffffff1673ffffffffffffffffffffffffffffffffffffffff16636352211e846040518263ffffffff1660e01b8152600401611580919061374f565b60206040518083038186803b15801561159857600080fd5b505afa1580156115ac573d6000803e3d6000fd5b505050506040513d601f19601f820116820180604052508101906115d09190612d43565b73ffffffffffffffffffffffffffffffffffffffff1614611626576040517f08c379a000000000000000000000000000000000000000000000000000000000815260040161161d90613699565b60405180910390fd5b3373ffffffffffffffffffffffffffffffffffffffff168160010160009054906101000a900473ffffffffffffffffffffffffffffffffffffffff1673ffffffffffffffffffffffffffffffffffffffff16146116b8576040517f08c379a00000000000000000000000000000000000000000000000000000000081526004016116af90613559565b60405180910390fd5b600073ffffffffffffffffffffffffffffffffffffffff168160010160009054906101000a900473ffffffffffffffffffffffffffffffffffffffff1673ffffffffffffffffffffffffffffffffffffffff16141561174c576040517f08c379a0000000000000000000000000000000000000000000000000000000008152600401611743906135f9565b60405180910390fd5b600260009054906101000a900473ffffffffffffffffffffffffffffffffffffffff1673ffffffffffffffffffffffffffffffffffffffff16639036c05083336040518363ffffffff1660e01b81526004016117a992919061376a565b602060405180830381600087803b1580156117c357600080fd5b505af11580156117d7573d6000803e3d6000fd5b505050506040513d601f19601f820116820180604052508101906117fb9190612df9565b50600660008381526020019081526020016000206000808201600090556001820160006101000a81549073ffffffffffffffffffffffffffffffffffffffff0219169055600282016000905550503373ffffffffffffffffffffffffffffffffffffffff16827f80cbe856a464968c63953aeb2dd84c12de3a0715985cae2ea35d3ed87e39ddc360405160405180910390a3506001808190555050565b60008060009054906101000a900473ffffffffffffffffffffffffffffffffffffffff16905090565b60026001541415611907576040517f08c379a00000000000000000000000000000000000000000000000000000000081526004016118fe906136d9565b60405180910390fd5b600260018190555060006005600083815260200190815260200160002090503073ffffffffffffffffffffffffffffffffffffffff16600260009054906101000a900473ffffffffffffffffffffffffffffffffffffffff1673ffffffffffffffffffffffffffffffffffffffff16636352211e846040518263ffffffff1660e01b8152600401611998919061374f565b60206040518083038186803b1580156119b057600080fd5b505afa1580156119c4573d6000803e3d6000fd5b505050506040513d601f19601f820116820180604052508101906119e89190612d43565b73ffffffffffffffffffffffffffffffffffffffff1614611a3e576040517f08c379a0000000000000000000000000000000000000000000000000000000008152600401611a3590613579565b60405180910390fd5b3373ffffffffffffffffffffffffffffffffffffffff168160010160009054906101000a900473ffffffffffffffffffffffffffffffffffffffff1673ffffffffffffffffffffffffffffffffffffffff1614611ad0576040517f08c379a0000000000000000000000000000000000000000000000000000000008152600401611ac790613559565b60405180910390fd5b600073ffffffffffffffffffffffffffffffffffffffff168160010160009054906101000a900473ffffffffffffffffffffffffffffffffffffffff1673ffffffffffffffffffffffffffffffffffffffff161415611b64576040517f08c379a0000000000000000000000000000000000000000000000000000000008152600401611b5b906136f9565b60405180910390fd5b600260009054906101000a900473ffffffffffffffffffffffffffffffffffffffff1673ffffffffffffffffffffffffffffffffffffffff16639036c05083336040518363ffffffff1660e01b8152600401611bc192919061376a565b602060405180830381600087803b158015611bdb57600080fd5b505af1158015611bef573d6000803e3d6000fd5b505050506040513d601f19601f82011682018060405250810190611c139190612df9565b50600560008381526020019081526020016000206000808201600090556001820160006101000a81549073ffffffffffffffffffffffffffffffffffffffff0219169055600282016000905550503373ffffffffffffffffffffffffffffffffffffffff16827f10ac9f0bb365b5d22d7bec500408692f23fdf83eadfec71615ef88b4c1134f0e60405160405180910390a3506001808190555050565b6060600080611cbd61149a565b90506000611cc9612363565b905081819350935050509091565b60066020528060005260406000206000915090508060000154908060010160009054906101000a900473ffffffffffffffffffffffffffffffffffffffff16908060020154905083565b60026001541415611d67576040517f08c379a0000000000000000000000000000000000000000000000000000000008152600401611d5e906136d9565b60405180910390fd5b600260018190555060008111611db2576040517f08c379a0000000000000000000000000000000000000000000000000000000008152600401611da990613499565b60405180910390fd5b600360009054906101000a900473ffffffffffffffffffffffffffffffffffffffff1673ffffffffffffffffffffffffffffffffffffffff1663f67ac38c3330846040518463ffffffff1660e01b8152600401611e1193929190613371565b602060405180830381600087803b158015611e2b57600080fd5b505af1158015611e3f573d6000803e3d6000fd5b505050506040513d601f19601f82011682018060405250810190611e639190612df9565b611ea2576040517f08c379a0000000000000000000000000000000000000000000000000000000008152600401611e99906134f9565b60405180910390fd5b80600460003373ffffffffffffffffffffffffffffffffffffffff1673ffffffffffffffffffffffffffffffffffffffff1681526020019081526020016000206000828254611ef1919061389c565b925050819055503373ffffffffffffffffffffffffffffffffffffffff167fe1fffcc4923d04b559f4d29a8bfc6cda04eb5b0d3c460751c2402c5c5cc9109c82604051611f3e919061374f565b60405180910390a26001808190555050565b60026001541415611f96576040517f08c379a0000000000000000000000000000000000000000000000000000000008152600401611f8d906136d9565b60405180910390fd5b60026001819055503373ffffffffffffffffffffffffffffffffffffffff16600260009054906101000a900473ffffffffffffffffffffffffffffffffffffffff1673ffffffffffffffffffffffffffffffffffffffff16636352211e846040518263ffffffff1660e01b8152600401612010919061374f565b60206040518083038186803b15801561202857600080fd5b505afa15801561203c573d6000803e3d6000fd5b505050506040513d601f19601f820116820180604052508101906120609190612d43565b73ffffffffffffffffffffffffffffffffffffffff16146120b6576040517f08c379a00000000000000000000000000000000000000000000000000000000081526004016120ad90613559565b60405180910390fd5b600081116120f9576040517f08c379a00000000000000000000000000000000000000000000000000000000081526004016120f0906134b9565b60405180910390fd5b600260009054906101000a900473ffffffffffffffffffffffffffffffffffffffff1673ffffffffffffffffffffffffffffffffffffffff16634f89cea68333306040518463ffffffff1660e01b815260040161215893929190613793565b600060405180830381600087803b15801561217257600080fd5b505af1158015612186573d6000803e3d6000fd5b5050505060405180606001604052808381526020013373ffffffffffffffffffffffffffffffffffffffff16815260200182815250600660008481526020019081526020016000206000820151816000015560208201518160010160006101000a81548173ffffffffffffffffffffffffffffffffffffffff021916908373ffffffffffffffffffffffffffffffffffffffff160217905550604082015181600201559050503373ffffffffffffffffffffffffffffffffffffffff16827f557e20be357a3ff3fc08cf2b8e6986333057886a281d0409a7e751c3fd700ec083604051612273919061374f565b60405180910390a3600180819055505050565b6060600260009054906101000a900473ffffffffffffffffffffffffffffffffffffffff1673ffffffffffffffffffffffffffffffffffffffff1663e6b1fa2a306040518263ffffffff1660e01b81526004016122e39190613356565b60006040518083038186803b1580156122fb57600080fd5b505afa15801561230f573d6000803e3d6000fd5b505050506040513d6000823e3d601f19601f820116820180604052508101906123389190612db0565b905090565b600260009054906101000a900473ffffffffffffffffffffffffffffffffffffffff1681565b600061236d611360565b905090565b61237a61293d565b73ffffffffffffffffffffffffffffffffffffffff16612398611898565b73ffffffffffffffffffffffffffffffffffffffff16146123ee576040517f08c379a00000000000000000000000000000000000000000000000000000000081526004016123e5906135b9565b60405180910390fd5b600073ffffffffffffffffffffffffffffffffffffffff168173ffffffffffffffffffffffffffffffffffffffff16141561245e576040517f08c379a0000000000000000000000000000000000000000000000000000000008152600401612455906134d9565b60405180910390fd5b61246781612add565b50565b600260015414156124b0576040517f08c379a00000000000000000000000000000000000000000000000000000000081526004016124a7906136d9565b60405180910390fd5b60026001819055506000600660008381526020019081526020016000209050600073ffffffffffffffffffffffffffffffffffffffff168160010160009054906101000a900473ffffffffffffffffffffffffffffffffffffffff1673ffffffffffffffffffffffffffffffffffffffff161415612563576040517f08c379a000000000000000000000000000000000000000000000000000000000815260040161255a90613519565b60405180910390fd5b8060010160009054906101000a900473ffffffffffffffffffffffffffffffffffffffff1673ffffffffffffffffffffffffffffffffffffffff163373ffffffffffffffffffffffffffffffffffffffff1614156125f6576040517f08c379a00000000000000000000000000000000000000000000000000000000081526004016125ed90613659565b60405180910390fd5b60008160020154905060008260010160009054906101000a900473ffffffffffffffffffffffffffffffffffffffff1690508161263233610824565b1015612673576040517f08c379a000000000000000000000000000000000000000000000000000000000815260040161266a90613539565b60405180910390fd5b61267e338284612945565b600260009054906101000a900473ffffffffffffffffffffffffffffffffffffffff1673ffffffffffffffffffffffffffffffffffffffff16639036c05085336040518363ffffffff1660e01b81526004016126db92919061376a565b602060405180830381600087803b1580156126f557600080fd5b505af1158015612709573d6000803e3d6000fd5b505050506040513d601f19601f8201168201806040525081019061272d9190612df9565b61276c576040517f08c379a000000000000000000000000000000000000000000000000000000000815260040161276390613679565b60405180910390fd5b600660008581526020019081526020016000206000808201600090556001820160006101000a81549073ffffffffffffffffffffffffffffffffffffffff0219169055600282016000905550503373ffffffffffffffffffffffffffffffffffffffff168173ffffffffffffffffffffffffffffffffffffffff16857f94ddf8232f3af1f844abb74cd56287ba5507090df04bf3c2e006bf74e904a28385604051612817919061374f565b60405180910390a45050506001808190555050565b612834612bd8565b600060056000848152602001908152602001600020604051806060016040529081600082015481526020016001820160009054906101000a900473ffffffffffffffffffffffffffffffffffffffff1673ffffffffffffffffffffffffffffffffffffffff1673ffffffffffffffffffffffffffffffffffffffff1681526020016002820154815250509050600073ffffffffffffffffffffffffffffffffffffffff16816020015173ffffffffffffffffffffffffffffffffffffffff161415612934576040517f08c379a000000000000000000000000000000000000000000000000000000000815260040161292b90613479565b60405180910390fd5b80915050919050565b600033905090565b80600460008573ffffffffffffffffffffffffffffffffffffffff1673ffffffffffffffffffffffffffffffffffffffff1681526020019081526020016000205410156129c7576040517f08c379a00000000000000000000000000000000000000000000000000000000081526004016129be90613539565b60405180910390fd5b80600460008573ffffffffffffffffffffffffffffffffffffffff1673ffffffffffffffffffffffffffffffffffffffff1681526020019081526020016000206000828254612a1691906138f2565b9250508190555080600460008473ffffffffffffffffffffffffffffffffffffffff1673ffffffffffffffffffffffffffffffffffffffff1681526020019081526020016000206000828254612a6c919061389c565b925050819055508173ffffffffffffffffffffffffffffffffffffffff168373ffffffffffffffffffffffffffffffffffffffff167f69d14b96c06609a8976851e9503b0a6b1c60b96a8ba6e5a1a313e8a290138e1583604051612ad0919061374f565b60405180910390a3505050565b60008060009054906101000a900473ffffffffffffffffffffffffffffffffffffffff169050816000806101000a81548173ffffffffffffffffffffffffffffffffffffffff021916908373ffffffffffffffffffffffffffffffffffffffff1602179055508173ffffffffffffffffffffffffffffffffffffffff168173ffffffffffffffffffffffffffffffffffffffff167f8be0079c531659141344cd1fd0a4f28419497f9722a3daafe3b4186f6b6457e060405160405180910390a35050565b604051806060016040528060008152602001600073ffffffffffffffffffffffffffffffffffffffff168152602001600081525090565b604051806060016040528060008152602001600073ffffffffffffffffffffffffffffffffffffffff168152602001600081525090565b6000612c22612c1d84613826565b613801565b90508083825260208201905082856020860282011115612c4557612c44613a4a565b5b60005b85811015612c755781612c5b8882612d01565b845260208401935060208301925050600181019050612c48565b5050509392505050565b600081359050612c8e81613eae565b92915050565b600081519050612ca381613eae565b92915050565b600082601f830112612cbe57612cbd613a45565b5b8151612cce848260208601612c0f565b91505092915050565b600081519050612ce681613ec5565b92915050565b600081359050612cfb81613edc565b92915050565b600081519050612d1081613edc565b92915050565b600060208284031215612d2c57612d2b613a54565b5b6000612d3a84828501612c7f565b91505092915050565b600060208284031215612d5957612d58613a54565b5b6000612d6784828501612c94565b91505092915050565b60008060408385031215612d8757612d86613a54565b5b6000612d9585828601612c7f565b9250506020612da685828601612cec565b9150509250929050565b600060208284031215612dc657612dc5613a54565b5b600082015167ffffffffffffffff811115612de457612de3613a4f565b5b612df084828501612ca9565b91505092915050565b600060208284031215612e0f57612e0e613a54565b5b6000612e1d84828501612cd7565b91505092915050565b600060208284031215612e3c57612e3b613a54565b5b6000612e4a84828501612cec565b91505092915050565b600060208284031215612e6957612e68613a54565b5b6000612e7784828501612d01565b91505092915050565b60008060408385031215612e9757612e96613a54565b5b6000612ea585828601612cec565b9250506020612eb685828601612c7f565b9150509250929050565b60008060408385031215612ed757612ed6613a54565b5b6000612ee585828601612cec565b9250506020612ef685828601612cec565b9150509250929050565b6000612f0c8383613338565b60208301905092915050565b612f2181613926565b82525050565b612f3081613926565b82525050565b6000612f4182613862565b612f4b818561387a565b9350612f5683613852565b8060005b83811015612f87578151612f6e8882612f00565b9750612f798361386d565b925050600181019050612f5a565b5085935050505092915050565b612f9d8161396e565b82525050565b612fac81613980565b82525050565b6000612fbf60208361388b565b9150612fca82613a6a565b602082019050919050565b6000612fe260238361388b565b9150612fed82613a93565b604082019050919050565b600061300560258361388b565b915061301082613ae2565b604082019050919050565b6000613028601f8361388b565b915061303382613b31565b602082019050919050565b600061304b60268361388b565b915061305682613b5a565b604082019050919050565b600061306e600f8361388b565b915061307982613ba9565b602082019050919050565b600061309160188361388b565b915061309c82613bd2565b602082019050919050565b60006130b460148361388b565b91506130bf82613bfb565b602082019050919050565b60006130d760168361388b565b91506130e282613c24565b602082019050919050565b60006130fa60128361388b565b915061310582613c4d565b602082019050919050565b600061311d60198361388b565b915061312882613c76565b602082019050919050565b600061314060208361388b565b915061314b82613c9f565b602082019050919050565b600061316360288361388b565b915061316e82613cc8565b604082019050919050565b6000613186601a8361388b565b915061319182613d17565b602082019050919050565b60006131a9601a8361388b565b91506131b482613d40565b602082019050919050565b60006131cc601b8361388b565b91506131d782613d69565b602082019050919050565b60006131ef601a8361388b565b91506131fa82613d92565b602082019050919050565b600061321260138361388b565b915061321d82613dbb565b602082019050919050565b600061323560118361388b565b915061324082613de4565b602082019050919050565b600061325860268361388b565b915061326382613e0d565b604082019050919050565b600061327b601f8361388b565b915061328682613e5c565b602082019050919050565b600061329e601b8361388b565b91506132a982613e85565b602082019050919050565b6060820160008201516132ca6000850182613338565b5060208201516132dd6020850182612f18565b5060408201516132f06040850182613338565b50505050565b60608201600082015161330c6000850182613338565b50602082015161331f6020850182612f18565b5060408201516133326040850182613338565b50505050565b61334181613964565b82525050565b61335081613964565b82525050565b600060208201905061336b6000830184612f27565b92915050565b60006060820190506133866000830186612f27565b6133936020830185612f27565b6133a06040830184613347565b949350505050565b60006040820190506133bd6000830185612f27565b6133ca6020830184613347565b9392505050565b600060208201905081810360008301526133eb8184612f36565b905092915050565b6000604082019050818103600083015261340d8185612f36565b905061341c6020830184613347565b9392505050565b60006020820190506134386000830184612f94565b92915050565b60006020820190506134536000830184612fa3565b92915050565b6000602082019050818103600083015261347281612fb2565b9050919050565b6000602082019050818103600083015261349281612fd5565b9050919050565b600060208201905081810360008301526134b281612ff8565b9050919050565b600060208201905081810360008301526134d28161301b565b9050919050565b600060208201905081810360008301526134f28161303e565b9050919050565b6000602082019050818103600083015261351281613061565b9050919050565b6000602082019050818103600083015261353281613084565b9050919050565b60006020820190508181036000830152613552816130a7565b9050919050565b60006020820190508181036000830152613572816130ca565b9050919050565b60006020820190508181036000830152613592816130ed565b9050919050565b600060208201905081810360008301526135b281613110565b9050919050565b600060208201905081810360008301526135d281613133565b9050919050565b600060208201905081810360008301526135f281613156565b9050919050565b6000602082019050818103600083015261361281613179565b9050919050565b600060208201905081810360008301526136328161319c565b9050919050565b60006020820190508181036000830152613652816131bf565b9050919050565b60006020820190508181036000830152613672816131e2565b9050919050565b6000602082019050818103600083015261369281613205565b9050919050565b600060208201905081810360008301526136b281613228565b9050919050565b600060208201905081810360008301526136d28161324b565b9050919050565b600060208201905081810360008301526136f28161326e565b9050919050565b6000602082019050818103600083015261371281613291565b9050919050565b600060608201905061372e60008301846132b4565b92915050565b600060608201905061374960008301846132f6565b92915050565b60006020820190506137646000830184613347565b92915050565b600060408201905061377f6000830185613347565b61378c6020830184612f27565b9392505050565b60006060820190506137a86000830186613347565b6137b56020830185612f27565b6137c26040830184612f27565b949350505050565b60006060820190506137df6000830186613347565b6137ec6020830185612f27565b6137f96040830184613347565b949350505050565b600061380b61381c565b905061381782826139b6565b919050565b6000604051905090565b600067ffffffffffffffff82111561384157613840613a16565b5b602082029050602081019050919050565b6000819050602082019050919050565b600081519050919050565b6000602082019050919050565b600082825260208201905092915050565b600082825260208201905092915050565b60006138a782613964565b91506138b283613964565b9250827fffffffffffffffffffffffffffffffffffffffffffffffffffffffffffffffff038211156138e7576138e66139e7565b5b828201905092915050565b60006138fd82613964565b915061390883613964565b92508282101561391b5761391a6139e7565b5b828203905092915050565b600061393182613944565b9050919050565b60008115159050919050565b600073ffffffffffffffffffffffffffffffffffffffff82169050919050565b6000819050919050565b600061397982613992565b9050919050565b600061398b82613992565b9050919050565b600061399d826139a4565b9050919050565b60006139af82613944565b9050919050565b6139bf82613a59565b810181811067ffffffffffffffff821117156139de576139dd613a16565b5b80604052505050565b7f4e487b7100000000000000000000000000000000000000000000000000000000600052601160045260246000fd5b7f4e487b7100000000000000000000000000000000000000000000000000000000600052604160045260246000fd5b600080fd5b600080fd5b600080fd5b600080fd5b6000601f19601f8301169050919050565b7f53656c6c20646f6573206e6f7420657869737420666f722074686973204e4654600082015250565b7f41756374696f6e20646f6573206e6f7420657869737420666f7220746869732060008201527f4e46540000000000000000000000000000000000000000000000000000000000602082015250565b7f4465706f73697420616d6f756e74206d7573742062652067726561746572207460008201527f68616e2030000000000000000000000000000000000000000000000000000000602082015250565b7f5072696365206d7573742062652067726561746572207468616e207a65726f00600082015250565b7f4f776e61626c653a206e6577206f776e657220697320746865207a65726f206160008201527f6464726573730000000000000000000000000000000000000000000000000000602082015250565b7f5472616e73666572206661696c65640000000000000000000000000000000000600082015250565b7f54686973204e4654206973206e6f7420666f722073616c650000000000000000600082015250565b7f496e73756666696369656e742062616c616e6365000000000000000000000000600082015250565b7f596f7520646f6e2774206f776e2074686973204e465400000000000000000000600082015250565b7f4e4654206e6f7420696e2041756374696f6e0000000000000000000000000000600082015250565b7f496e76616c696420726563697069656e74206164647265737300000000000000600082015250565b7f4f776e61626c653a2063616c6c6572206973206e6f7420746865206f776e6572600082015250565b7f5769746864726177616c20616d6f756e74206d7573742062652067726561746560008201527f72207468616e2030000000000000000000000000000000000000000000000000602082015250565b7f54686973206d61726b657420646f6573206e6f74206578697374000000000000600082015250565b7f53656c6c65722063616e6e6f7420626520746865206275796572000000000000600082015250565b7f43616e6e6f74207472616e7366657220746f20796f757273656c660000000000600082015250565b7f596f752063616e27742062757920796f7572206f776e204e4654000000000000600082015250565b7f4e4654207472616e73666572206661696c656400000000000000000000000000600082015250565b7f4e4654206e6f7420696e206d61726b6574000000000000000000000000000000600082015250565b7f5472616e7366657220616d6f756e74206d75737420626520677265617465722060008201527f7468616e20300000000000000000000000000000000000000000000000000000602082015250565b7f5265656e7472616e637947756172643a207265656e7472616e742063616c6c00600082015250565b7f546869732061756374696f6e20646f6573206e6f742065786973740000000000600082015250565b613eb781613926565b8114613ec257600080fd5b50565b613ece81613938565b8114613ed957600080fd5b50565b613ee581613964565b8114613ef057600080fd5b5056fea2646970667358221220dd458a71f5b47e7191265f86dc3fe589904957c4432d5d6d7c9fa2ce68baccb664736f6c63430008070033",
  "immutableReferences": {},
  "source": "// SPDX-License-Identifier: MIT\r\npragma solidity ^0.8.7;\r\n\r\nimport \"./NFTAuction.sol\";\r\nimport \"./NFTMarket.sol\";\r\nimport \"./TradeBase.sol\";\r\n\r\ncontract IntegratedNFTSystem is NFTAuction, NFTMarket {\r\n    // \r\n    constructor(address _nftContractAddress, address _tokenContractAddress) {\r\n        initializeContracts(_nftContractAddress, _tokenContractAddress);\r\n        nftContract.setMainContractAddress(address(this));\r\n        tokenContract.setMainContractAddress(address(this));\r\n    }\r\n\r\n    //   NFT (   NFT)\r\n    function getAllContractOwnedNFTs() public view returns (uint256[] memory) {\r\n        return getContractOwnedNFTs();\r\n    }\r\n\r\n    //    ( )\r\n    function getTotalContractBalance() public view returns (uint256) {\r\n        return getContractBalance();\r\n    }\r\n\r\n    // NFT   \r\n    function getCombinedOwnedAssets() public view returns (uint256[] memory nftIds, uint256 totalCoins) {\r\n        uint256[] memory allNFTs = getAllContractOwnedNFTs();\r\n        uint256 totalBalance = getTotalContractBalance();\r\n\r\n        return (allNFTs, totalBalance);\r\n    }\r\n}",
  "sourcePath": "C:\\Users\\SSAFY\\Desktop\\semonemo\\backend\\blockchain-server\\smartcontract\\contracts\\System.sol",
  "compiler": {
    "name": "solc",
    "version": "0.8.7+commit.e28d00a7.Emscripten.clang"
  },
  "schemaVersion": "3.4.16",
  "updatedAt": "2024-09-27T00:57:20.650Z",
  "devdoc": {
    "kind": "dev",
    "methods": {
      "owner()": {
        "details": "Returns the address of the current owner."
      },
      "renounceOwnership()": {
        "details": "Leaves the contract without owner. It will not be possible to call `onlyOwner` functions anymore. Can only be called by the current owner. NOTE: Renouncing ownership will leave the contract without an owner, thereby removing any functionality that is only available to the owner."
      },
      "transferOwnership(address)": {
        "details": "Transfers ownership of the contract to a new account (`newOwner`). Can only be called by the current owner."
      }
    },
    "version": 1
  },
  "userdoc": {
    "kind": "user",
    "methods": {},
    "version": 1
  }
}