{
  "contractName": "IntegratedNFTSystem",
  "abi": [
    {
      "inputs": [
        {
          "internalType": "address",
          "name": "_nftContractAddress",
          "type": "address"
        },
        {
          "internalType": "address",
          "name": "_tokenContractAddress",
          "type": "address"
        }
      ],
      "stateMutability": "nonpayable",
      "type": "constructor"
    },
    {
      "anonymous": false,
      "inputs": [
        {
          "indexed": true,
          "internalType": "uint256",
          "name": "nftId",
          "type": "uint256"
        },
        {
          "indexed": true,
          "internalType": "address",
          "name": "seller",
          "type": "address"
        }
      ],
      "name": "AuctionCancelled",
      "type": "event"
    },
    {
      "anonymous": false,
      "inputs": [
        {
          "indexed": true,
          "internalType": "uint256",
          "name": "nftId",
          "type": "uint256"
        },
        {
          "indexed": true,
          "internalType": "address",
          "name": "seller",
          "type": "address"
        },
        {
          "indexed": true,
          "internalType": "address",
          "name": "buyer",
          "type": "address"
        },
        {
          "indexed": false,
          "internalType": "uint256",
          "name": "price",
          "type": "uint256"
        }
      ],
      "name": "AuctionClosed",
      "type": "event"
    },
    {
      "anonymous": false,
      "inputs": [
        {
          "indexed": true,
          "internalType": "uint256",
          "name": "nftId",
          "type": "uint256"
        },
        {
          "indexed": true,
          "internalType": "address",
          "name": "seller",
          "type": "address"
        },
        {
          "indexed": false,
          "internalType": "uint256",
          "name": "price",
          "type": "uint256"
        }
      ],
      "name": "AuctionStarted",
      "type": "event"
    },
    {
      "anonymous": false,
      "inputs": [
        {
          "indexed": true,
          "internalType": "address",
          "name": "from",
          "type": "address"
        },
        {
          "indexed": true,
          "internalType": "address",
          "name": "to",
          "type": "address"
        },
        {
          "indexed": false,
          "internalType": "uint256",
          "name": "amount",
          "type": "uint256"
        },
        {
          "indexed": false,
          "internalType": "uint256",
          "name": "fromBalance",
          "type": "uint256"
        },
        {
          "indexed": false,
          "internalType": "uint256",
          "name": "toBalance",
          "type": "uint256"
        }
      ],
      "name": "BalanceAdjusted",
      "type": "event"
    },
    {
      "anonymous": false,
      "inputs": [
        {
          "indexed": true,
          "internalType": "address",
          "name": "from",
          "type": "address"
        },
        {
          "indexed": true,
          "internalType": "address",
          "name": "to",
          "type": "address"
        },
        {
          "indexed": false,
          "internalType": "uint256",
          "name": "amount",
          "type": "uint256"
        },
        {
          "indexed": false,
          "internalType": "uint256",
          "name": "fromBalance",
          "type": "uint256"
        },
        {
          "indexed": false,
          "internalType": "uint256",
          "name": "toBalance",
          "type": "uint256"
        }
      ],
      "name": "BalanceTransferred",
      "type": "event"
    },
    {
      "anonymous": false,
      "inputs": [
        {
          "indexed": true,
          "internalType": "address",
          "name": "user",
          "type": "address"
        },
        {
          "indexed": false,
          "internalType": "uint256",
          "name": "amount",
          "type": "uint256"
        },
        {
          "indexed": false,
          "internalType": "uint256",
          "name": "coinBalance",
          "type": "uint256"
        },
        {
          "indexed": false,
          "internalType": "uint256",
          "name": "payableBalance",
          "type": "uint256"
        }
      ],
      "name": "Deposit",
      "type": "event"
    },
    {
      "anonymous": false,
      "inputs": [
        {
          "indexed": true,
          "internalType": "uint256",
          "name": "nftId",
          "type": "uint256"
        },
        {
          "indexed": true,
          "internalType": "address",
          "name": "seller",
          "type": "address"
        }
      ],
      "name": "MarketCancelled",
      "type": "event"
    },
    {
      "anonymous": false,
      "inputs": [
        {
          "indexed": true,
          "internalType": "uint256",
          "name": "nftId",
          "type": "uint256"
        },
        {
          "indexed": true,
          "internalType": "address",
          "name": "seller",
          "type": "address"
        },
        {
          "indexed": false,
          "internalType": "uint256",
          "name": "price",
          "type": "uint256"
        }
      ],
      "name": "MarketCreated",
      "type": "event"
    },
    {
      "anonymous": false,
      "inputs": [
        {
          "indexed": true,
          "internalType": "uint256",
          "name": "nftId",
          "type": "uint256"
        },
        {
          "indexed": true,
          "internalType": "address",
          "name": "seller",
          "type": "address"
        },
        {
          "indexed": true,
          "internalType": "address",
          "name": "buyer",
          "type": "address"
        },
        {
          "indexed": false,
          "internalType": "uint256",
          "name": "price",
          "type": "uint256"
        }
      ],
      "name": "MarketSold",
      "type": "event"
    },
    {
      "anonymous": false,
      "inputs": [
        {
          "indexed": true,
          "internalType": "address",
          "name": "previousOwner",
          "type": "address"
        },
        {
          "indexed": true,
          "internalType": "address",
          "name": "newOwner",
          "type": "address"
        }
      ],
      "name": "OwnershipTransferred",
      "type": "event"
    },
    {
      "anonymous": false,
      "inputs": [
        {
          "indexed": true,
          "internalType": "uint256",
          "name": "tradeId",
          "type": "uint256"
        },
        {
          "indexed": false,
          "internalType": "address",
          "name": "from",
          "type": "address"
        },
        {
          "indexed": false,
          "internalType": "address",
          "name": "to",
          "type": "address"
        },
        {
          "indexed": false,
          "internalType": "uint256",
          "name": "amount",
          "type": "uint256"
        },
        {
          "indexed": false,
          "internalType": "uint256",
          "name": "timestamp",
          "type": "uint256"
        },
        {
          "indexed": false,
          "internalType": "uint256",
          "name": "fromBalance",
          "type": "uint256"
        },
        {
          "indexed": false,
          "internalType": "uint256",
          "name": "toBalance",
          "type": "uint256"
        }
      ],
      "name": "TradeRecorded",
      "type": "event"
    },
    {
      "anonymous": false,
      "inputs": [
        {
          "indexed": true,
          "internalType": "address",
          "name": "user",
          "type": "address"
        },
        {
          "indexed": false,
          "internalType": "uint256",
          "name": "amount",
          "type": "uint256"
        },
        {
          "indexed": false,
          "internalType": "uint256",
          "name": "coinBalance",
          "type": "uint256"
        },
        {
          "indexed": false,
          "internalType": "uint256",
          "name": "payableBalance",
          "type": "uint256"
        }
      ],
      "name": "Withdrawal",
      "type": "event"
    },
    {
      "inputs": [
        {
          "internalType": "uint256",
          "name": "",
          "type": "uint256"
        }
      ],
      "name": "auctions",
      "outputs": [
        {
          "internalType": "uint256",
          "name": "nftId",
          "type": "uint256"
        },
        {
          "internalType": "address",
          "name": "seller",
          "type": "address"
        },
        {
          "internalType": "uint256",
          "name": "price",
          "type": "uint256"
        }
      ],
      "stateMutability": "view",
      "type": "function",
      "constant": true
    },
    {
      "inputs": [
        {
          "internalType": "uint256",
          "name": "_nftId",
          "type": "uint256"
        }
      ],
      "name": "buyMarket",
      "outputs": [],
      "stateMutability": "nonpayable",
      "type": "function"
    },
    {
      "inputs": [
        {
          "internalType": "uint256",
          "name": "_nftId",
          "type": "uint256"
        }
      ],
      "name": "cancelAuction",
      "outputs": [],
      "stateMutability": "nonpayable",
      "type": "function"
    },
    {
      "inputs": [
        {
          "internalType": "uint256",
          "name": "_nftId",
          "type": "uint256"
        }
      ],
      "name": "cancelMarket",
      "outputs": [],
      "stateMutability": "nonpayable",
      "type": "function"
    },
    {
      "inputs": [
        {
          "internalType": "uint256",
          "name": "_nftId",
          "type": "uint256"
        },
        {
          "internalType": "address",
          "name": "buyer",
          "type": "address"
        }
      ],
      "name": "closeAuction",
      "outputs": [],
      "stateMutability": "nonpayable",
      "type": "function"
    },
    {
      "inputs": [
        {
          "internalType": "uint256",
          "name": "_nftId",
          "type": "uint256"
        },
        {
          "internalType": "uint256",
          "name": "price",
          "type": "uint256"
        }
      ],
      "name": "createMarket",
      "outputs": [],
      "stateMutability": "nonpayable",
      "type": "function"
    },
    {
      "inputs": [
        {
          "internalType": "uint256",
          "name": "amount",
          "type": "uint256"
        }
      ],
      "name": "deposit",
      "outputs": [],
      "stateMutability": "nonpayable",
      "type": "function"
    },
    {
      "inputs": [
        {
          "internalType": "uint256",
          "name": "_nftId",
          "type": "uint256"
        }
      ],
      "name": "getAuctionInfo",
      "outputs": [
        {
          "components": [
            {
              "internalType": "uint256",
              "name": "nftId",
              "type": "uint256"
            },
            {
              "internalType": "address",
              "name": "seller",
              "type": "address"
            },
            {
              "internalType": "uint256",
              "name": "price",
              "type": "uint256"
            }
          ],
          "internalType": "struct NFTAuction.Auction",
          "name": "",
          "type": "tuple"
        }
      ],
      "stateMutability": "view",
      "type": "function",
      "constant": true
    },
    {
      "inputs": [],
      "name": "getContractBalance",
      "outputs": [
        {
          "internalType": "uint256",
          "name": "",
          "type": "uint256"
        }
      ],
      "stateMutability": "view",
      "type": "function",
      "constant": true
    },
    {
      "inputs": [],
      "name": "getContractOwnedNFTs",
      "outputs": [
        {
          "internalType": "uint256[]",
          "name": "",
          "type": "uint256[]"
        }
      ],
      "stateMutability": "view",
      "type": "function",
      "constant": true
    },
    {
      "inputs": [
        {
          "internalType": "uint256",
          "name": "_nftId",
          "type": "uint256"
        }
      ],
      "name": "getMarketInfo",
      "outputs": [
        {
          "components": [
            {
              "internalType": "uint256",
              "name": "nftId",
              "type": "uint256"
            },
            {
              "internalType": "address",
              "name": "seller",
              "type": "address"
            },
            {
              "internalType": "uint256",
              "name": "price",
              "type": "uint256"
            }
          ],
          "internalType": "struct NFTMarket.Market",
          "name": "",
          "type": "tuple"
        }
      ],
      "stateMutability": "view",
      "type": "function",
      "constant": true
    },
    {
      "inputs": [
        {
          "internalType": "uint256",
          "name": "_tradeId",
          "type": "uint256"
        }
      ],
      "name": "getTradeInfo",
      "outputs": [
        {
          "components": [
            {
              "internalType": "address",
              "name": "from",
              "type": "address"
            },
            {
              "internalType": "address",
              "name": "to",
              "type": "address"
            },
            {
              "internalType": "uint256",
              "name": "amount",
              "type": "uint256"
            },
            {
              "internalType": "uint256",
              "name": "timestamp",
              "type": "uint256"
            }
          ],
          "internalType": "struct TradeBase.TradeInfo",
          "name": "",
          "type": "tuple"
        }
      ],
      "stateMutability": "view",
      "type": "function",
      "constant": true
    },
    {
      "inputs": [
        {
          "internalType": "address",
          "name": "user",
          "type": "address"
        },
        {
          "internalType": "uint256",
          "name": "page",
          "type": "uint256"
        },
        {
          "internalType": "uint256",
          "name": "size",
          "type": "uint256"
        }
      ],
      "name": "getTradesByAddress",
      "outputs": [
        {
          "components": [
            {
              "components": [
                {
                  "internalType": "address",
                  "name": "from",
                  "type": "address"
                },
                {
                  "internalType": "address",
                  "name": "to",
                  "type": "address"
                },
                {
                  "internalType": "uint256",
                  "name": "amount",
                  "type": "uint256"
                },
                {
                  "internalType": "uint256",
                  "name": "timestamp",
                  "type": "uint256"
                }
              ],
              "internalType": "struct TradeBase.TradeInfo[]",
              "name": "trades",
              "type": "tuple[]"
            },
            {
              "internalType": "uint256",
              "name": "totalTrades",
              "type": "uint256"
            },
            {
              "internalType": "bool",
              "name": "hasNext",
              "type": "bool"
            }
          ],
          "internalType": "struct TradeBase.TradeResult",
          "name": "",
          "type": "tuple"
        }
      ],
      "stateMutability": "view",
      "type": "function",
      "constant": true
    },
    {
      "inputs": [
        {
          "internalType": "address",
          "name": "user",
          "type": "address"
        }
      ],
      "name": "getUserBalance",
      "outputs": [
        {
          "internalType": "uint256",
          "name": "",
          "type": "uint256"
        }
      ],
      "stateMutability": "view",
      "type": "function",
      "constant": true
    },
    {
      "inputs": [
        {
          "internalType": "uint256",
          "name": "",
          "type": "uint256"
        }
      ],
      "name": "markets",
      "outputs": [
        {
          "internalType": "uint256",
          "name": "nftId",
          "type": "uint256"
        },
        {
          "internalType": "address",
          "name": "seller",
          "type": "address"
        },
        {
          "internalType": "uint256",
          "name": "price",
          "type": "uint256"
        }
      ],
      "stateMutability": "view",
      "type": "function",
      "constant": true
    },
    {
      "inputs": [],
      "name": "nftContract",
      "outputs": [
        {
          "internalType": "contract NFTFrame",
          "name": "",
          "type": "address"
        }
      ],
      "stateMutability": "view",
      "type": "function",
      "constant": true
    },
    {
      "inputs": [],
      "name": "owner",
      "outputs": [
        {
          "internalType": "address",
          "name": "",
          "type": "address"
        }
      ],
      "stateMutability": "view",
      "type": "function",
      "constant": true
    },
    {
      "inputs": [],
      "name": "renounceOwnership",
      "outputs": [],
      "stateMutability": "nonpayable",
      "type": "function"
    },
    {
      "inputs": [
        {
          "internalType": "uint256",
          "name": "_nftId",
          "type": "uint256"
        },
        {
          "internalType": "uint256",
          "name": "price",
          "type": "uint256"
        }
      ],
      "name": "startAuction",
      "outputs": [],
      "stateMutability": "nonpayable",
      "type": "function"
    },
    {
      "inputs": [],
      "name": "tokenContract",
      "outputs": [
        {
          "internalType": "contract AhoraCoin",
          "name": "",
          "type": "address"
        }
      ],
      "stateMutability": "view",
      "type": "function",
      "constant": true
    },
    {
      "inputs": [],
      "name": "tradeId",
      "outputs": [
        {
          "internalType": "uint256",
          "name": "",
          "type": "uint256"
        }
      ],
      "stateMutability": "view",
      "type": "function",
      "constant": true
    },
    {
      "inputs": [
        {
          "internalType": "uint256",
          "name": "",
          "type": "uint256"
        }
      ],
      "name": "trades",
      "outputs": [
        {
          "internalType": "address",
          "name": "from",
          "type": "address"
        },
        {
          "internalType": "address",
          "name": "to",
          "type": "address"
        },
        {
          "internalType": "uint256",
          "name": "amount",
          "type": "uint256"
        },
        {
          "internalType": "uint256",
          "name": "timestamp",
          "type": "uint256"
        }
      ],
      "stateMutability": "view",
      "type": "function",
      "constant": true
    },
    {
      "inputs": [
        {
          "internalType": "address",
          "name": "from",
          "type": "address"
        },
        {
          "internalType": "address",
          "name": "to",
          "type": "address"
        },
        {
          "internalType": "uint256",
          "name": "amount",
          "type": "uint256"
        }
      ],
      "name": "transferBalance",
      "outputs": [],
      "stateMutability": "nonpayable",
      "type": "function"
    },
    {
      "inputs": [
        {
          "internalType": "address",
          "name": "newOwner",
          "type": "address"
        }
      ],
      "name": "transferOwnership",
      "outputs": [],
      "stateMutability": "nonpayable",
      "type": "function"
    },
    {
      "inputs": [
        {
          "internalType": "uint256",
          "name": "amount",
          "type": "uint256"
        }
      ],
      "name": "withdraw",
      "outputs": [],
      "stateMutability": "nonpayable",
      "type": "function"
    },
    {
      "inputs": [],
      "name": "getAllContractOwnedNFTs",
      "outputs": [
        {
          "internalType": "uint256[]",
          "name": "",
          "type": "uint256[]"
        }
      ],
      "stateMutability": "view",
      "type": "function",
      "constant": true
    },
    {
      "inputs": [],
      "name": "getTotalContractBalance",
      "outputs": [
        {
          "internalType": "uint256",
          "name": "",
          "type": "uint256"
        }
      ],
      "stateMutability": "view",
      "type": "function",
      "constant": true
    },
    {
      "inputs": [],
      "name": "getCombinedOwnedAssets",
      "outputs": [
        {
          "internalType": "uint256[]",
          "name": "nftIds",
          "type": "uint256[]"
        },
        {
          "internalType": "uint256",
          "name": "totalCoins",
          "type": "uint256"
        }
      ],
      "stateMutability": "view",
      "type": "function",
      "constant": true
    }
  ],
  "bytecode": "0x60806040523480156200001157600080fd5b5060405162005410380380620054108339818101604052810190620000379190620003f2565b620000576200004b6200019a60201b60201c565b620001a260201b60201c565b600180819055506200007082826200026660201b60201c565b600260009054906101000a900473ffffffffffffffffffffffffffffffffffffffff1673ffffffffffffffffffffffffffffffffffffffff1663ec9da59e306040518263ffffffff1660e01b8152600401620000cd919062000471565b600060405180830381600087803b158015620000e857600080fd5b505af1158015620000fd573d6000803e3d6000fd5b50505050600360009054906101000a900473ffffffffffffffffffffffffffffffffffffffff1673ffffffffffffffffffffffffffffffffffffffff1663ec9da59e306040518263ffffffff1660e01b81526004016200015e919062000471565b600060405180830381600087803b1580156200017957600080fd5b505af11580156200018e573d6000803e3d6000fd5b5050505050506200053d565b600033905090565b60008060009054906101000a900473ffffffffffffffffffffffffffffffffffffffff169050816000806101000a81548173ffffffffffffffffffffffffffffffffffffffff021916908373ffffffffffffffffffffffffffffffffffffffff1602179055508173ffffffffffffffffffffffffffffffffffffffff168173ffffffffffffffffffffffffffffffffffffffff167f8be0079c531659141344cd1fd0a4f28419497f9722a3daafe3b4186f6b6457e060405160405180910390a35050565b600073ffffffffffffffffffffffffffffffffffffffff16600260009054906101000a900473ffffffffffffffffffffffffffffffffffffffff1673ffffffffffffffffffffffffffffffffffffffff16148015620003135750600073ffffffffffffffffffffffffffffffffffffffff16600360009054906101000a900473ffffffffffffffffffffffffffffffffffffffff1673ffffffffffffffffffffffffffffffffffffffff16145b62000355576040517f08c379a00000000000000000000000000000000000000000000000000000000081526004016200034c906200048e565b60405180910390fd5b81600260006101000a81548173ffffffffffffffffffffffffffffffffffffffff021916908373ffffffffffffffffffffffffffffffffffffffff16021790555080600360006101000a81548173ffffffffffffffffffffffffffffffffffffffff021916908373ffffffffffffffffffffffffffffffffffffffff1602179055505050565b600081519050620003ec8162000523565b92915050565b600080604083850312156200040c576200040b620004f5565b5b60006200041c85828601620003db565b92505060206200042f85828601620003db565b9150509250929050565b6200044481620004c1565b82525050565b600062000459601d83620004b0565b91506200046682620004fa565b602082019050919050565b600060208201905062000488600083018462000439565b92915050565b60006020820190508181036000830152620004a9816200044a565b9050919050565b600082825260208201905092915050565b6000620004ce82620004d5565b9050919050565b600073ffffffffffffffffffffffffffffffffffffffff82169050919050565b600080fd5b7f436f6e74726163747320616c726561647920696e697469616c697a6564000000600082015250565b6200052e81620004c1565b81146200053a57600080fd5b50565b614ec3806200054d6000396000f3fe608060405234801561001057600080fd5b50600436106101c45760003560e01c80638da5cb5b116100f9578063d3e6fa1911610097578063d9e3fd6411610071578063d9e3fd64146104fb578063f2fde38b14610519578063f90852c714610535578063fc3fc4ed14610551576101c4565b8063d3e6fa191461048f578063d56d229d146104ad578063d750558f146104cb576101c4565b8063a6c7523a116100d3578063a6c7523a14610406578063b1283e7714610425578063b6b55f2514610457578063c7604fec14610473576101c4565b80638da5cb5b146103b057806396b5a755146103ce578063a606b94a146103ea576101c4565b806355a373d6116101665780636f9fb98a116101405780636f9fb98a1461034e578063715018a61461036c57806373ddccb5146103765780637c16cd9e14610394576101c4565b806355a373d6146102e2578063571a26a0146103005780636bab66ae14610332576101c4565b806336c67897116101a257806336c67897146102365780633ec791931461026657806347734892146102965780634fee13fc146102c6576101c4565b806302c5115b146101c95780631e6c598e146101e75780632e1a7d4d1461021a575b600080fd5b6101d1610581565b6040516101de91906145d0565b60405180910390f35b61020160048036038101906101fc9190613a6e565b610587565b604051610211949392919061416f565b60405180910390f35b610234600480360381019061022f9190613a6e565b6105f7565b005b610250600480360381019061024b9190613a6e565b6109a1565b60405161025d9190614593565b60405180910390f35b610280600480360381019061027b9190613a6e565b610adf565b60405161028d9190614578565b60405180910390f35b6102b060048036038101906102ab91906138f8565b610bf0565b6040516102bd91906145d0565b60405180910390f35b6102e060048036038101906102db9190613b08565b610c39565b005b6102ea610f6f565b6040516102f79190614267565b60405180910390f35b61031a60048036038101906103159190613a6e565b610f95565b60405161032993929190614622565b60405180910390f35b61034c60048036038101906103479190613ac8565b610fdf565b005b6103566113c1565b60405161036391906145d0565b60405180910390f35b610374611473565b005b61037e6114fb565b60405161038b9190614215565b60405180910390f35b6103ae60048036038101906103a99190613a6e565b61150a565b005b6103b86118da565b6040516103c5919061411d565b60405180910390f35b6103e860048036038101906103e39190613a6e565b611903565b005b61040460048036038101906103ff9190613952565b611cd3565b005b61040e6120eb565b60405161041c929190614237565b60405180910390f35b61043f600480360381019061043a9190613a6e565b612112565b60405161044e93929190614622565b60405180910390f35b610471600480360381019061046c9190613a6e565b61215c565b005b61048d60048036038101906104889190613b08565b612484565b005b6104976127ba565b6040516104a49190614215565b60405180910390f35b6104b5612871565b6040516104c29190614282565b60405180910390f35b6104e560048036038101906104e091906139a5565b612897565b6040516104f291906145ae565b60405180910390f35b610503612be8565b60405161051091906145d0565b60405180910390f35b610533600480360381019061052e91906138f8565b612bf7565b005b61054f600480360381019061054a9190613a6e565b612cef565b005b61056b60048036038101906105669190613a6e565b613054565b604051610578919061455d565b60405180910390f35b60065481565b60056020528060005260406000206000915090508060000160009054906101000a900473ffffffffffffffffffffffffffffffffffffffff16908060010160009054906101000a900473ffffffffffffffffffffffffffffffffffffffff16908060020154908060030154905084565b6002600154141561063d576040517f08c379a00000000000000000000000000000000000000000000000000000000081526004016106349061451d565b60405180910390fd5b600260018190555060008111610688576040517f08c379a000000000000000000000000000000000000000000000000000000000815260040161067f9061441d565b60405180910390fd5b80600460003373ffffffffffffffffffffffffffffffffffffffff1673ffffffffffffffffffffffffffffffffffffffff16815260200190815260200160002054101561070a576040517f08c379a00000000000000000000000000000000000000000000000000000000081526004016107019061437d565b60405180910390fd5b600360009054906101000a900473ffffffffffffffffffffffffffffffffffffffff1673ffffffffffffffffffffffffffffffffffffffff16636153fced3033846040518463ffffffff1660e01b815260040161076993929190614138565b602060405180830381600087803b15801561078357600080fd5b505af1158015610797573d6000803e3d6000fd5b505050506040513d601f19601f820116820180604052508101906107bb9190613a41565b6107fa576040517f08c379a00000000000000000000000000000000000000000000000000000000081526004016107f19061433d565b60405180910390fd5b80600460003373ffffffffffffffffffffffffffffffffffffffff1673ffffffffffffffffffffffffffffffffffffffff16815260200190815260200160002060008282546108499190614814565b9250508190555061085c33600083613165565b3373ffffffffffffffffffffffffffffffffffffffff167f650fdf669e93aa6c8ff3defe2da9c12b64f1548e5e1e54e803f4c1beb6466c8e82600360009054906101000a900473ffffffffffffffffffffffffffffffffffffffff1673ffffffffffffffffffffffffffffffffffffffff166370a08231336040518263ffffffff1660e01b81526004016108f0919061411d565b60206040518083038186803b15801561090857600080fd5b505afa15801561091c573d6000803e3d6000fd5b505050506040513d601f19601f820116820180604052508101906109409190613a9b565b600460003373ffffffffffffffffffffffffffffffffffffffff1673ffffffffffffffffffffffffffffffffffffffff1681526020019081526020016000205460405161098f93929190614659565b60405180910390a26001808190555050565b6109a961370c565b6000821180156109bb57506006548211155b6109fa576040517f08c379a00000000000000000000000000000000000000000000000000000000081526004016109f1906144dd565b60405180910390fd5b600560008381526020019081526020016000206040518060800160405290816000820160009054906101000a900473ffffffffffffffffffffffffffffffffffffffff1673ffffffffffffffffffffffffffffffffffffffff1673ffffffffffffffffffffffffffffffffffffffff1681526020016001820160009054906101000a900473ffffffffffffffffffffffffffffffffffffffff1673ffffffffffffffffffffffffffffffffffffffff1673ffffffffffffffffffffffffffffffffffffffff168152602001600282015481526020016003820154815250509050919050565b610ae7613760565b600060096000848152602001908152602001600020604051806060016040529081600082015481526020016001820160009054906101000a900473ffffffffffffffffffffffffffffffffffffffff1673ffffffffffffffffffffffffffffffffffffffff1673ffffffffffffffffffffffffffffffffffffffff1681526020016002820154815250509050600073ffffffffffffffffffffffffffffffffffffffff16816020015173ffffffffffffffffffffffffffffffffffffffff161415610be7576040517f08c379a0000000000000000000000000000000000000000000000000000000008152600401610bde9061429d565b60405180910390fd5b80915050919050565b6000600460008373ffffffffffffffffffffffffffffffffffffffff1673ffffffffffffffffffffffffffffffffffffffff168152602001908152602001600020549050919050565b60026001541415610c7f576040517f08c379a0000000000000000000000000000000000000000000000000000000008152600401610c769061451d565b60405180910390fd5b60026001819055503373ffffffffffffffffffffffffffffffffffffffff16600260009054906101000a900473ffffffffffffffffffffffffffffffffffffffff1673ffffffffffffffffffffffffffffffffffffffff16636352211e846040518263ffffffff1660e01b8152600401610cf991906145d0565b60206040518083038186803b158015610d1157600080fd5b505afa158015610d25573d6000803e3d6000fd5b505050506040513d601f19601f82011682018060405250810190610d499190613925565b73ffffffffffffffffffffffffffffffffffffffff1614610d9f576040517f08c379a0000000000000000000000000000000000000000000000000000000008152600401610d969061439d565b60405180910390fd5b60008111610de2576040517f08c379a0000000000000000000000000000000000000000000000000000000008152600401610dd9906142fd565b60405180910390fd5b600260009054906101000a900473ffffffffffffffffffffffffffffffffffffffff1673ffffffffffffffffffffffffffffffffffffffff166335b9594c8333306040518463ffffffff1660e01b8152600401610e41939291906145eb565b600060405180830381600087803b158015610e5b57600080fd5b505af1158015610e6f573d6000803e3d6000fd5b5050505060405180606001604052808381526020013373ffffffffffffffffffffffffffffffffffffffff16815260200182815250600860008481526020019081526020016000206000820151816000015560208201518160010160006101000a81548173ffffffffffffffffffffffffffffffffffffffff021916908373ffffffffffffffffffffffffffffffffffffffff160217905550604082015181600201559050503373ffffffffffffffffffffffffffffffffffffffff16827fd7d053b3d3fc9e8145896f8940adeb377f6735866f2161ef1660dae9f049247583604051610f5c91906145d0565b60405180910390a3600180819055505050565b600360009054906101000a900473ffffffffffffffffffffffffffffffffffffffff1681565b60086020528060005260406000206000915090508060000154908060010160009054906101000a900473ffffffffffffffffffffffffffffffffffffffff16908060020154905083565b60026001541415611025576040517f08c379a000000000000000000000000000000000000000000000000000000000815260040161101c9061451d565b60405180910390fd5b600260018190555061103561341b565b73ffffffffffffffffffffffffffffffffffffffff166110536118da565b73ffffffffffffffffffffffffffffffffffffffff16146110a9576040517f08c379a00000000000000000000000000000000000000000000000000000000081526004016110a0906143fd565b60405180910390fd5b6000600860008481526020019081526020016000209050600073ffffffffffffffffffffffffffffffffffffffff168160010160009054906101000a900473ffffffffffffffffffffffffffffffffffffffff1673ffffffffffffffffffffffffffffffffffffffff161415611154576040517f08c379a000000000000000000000000000000000000000000000000000000000815260040161114b9061453d565b60405180910390fd5b8060010160009054906101000a900473ffffffffffffffffffffffffffffffffffffffff1673ffffffffffffffffffffffffffffffffffffffff168273ffffffffffffffffffffffffffffffffffffffff1614156111e7576040517f08c379a00000000000000000000000000000000000000000000000000000000081526004016111de9061445d565b60405180910390fd5b60008160020154905060008260010160009054906101000a900473ffffffffffffffffffffffffffffffffffffffff1690508161122385610bf0565b1015611264576040517f08c379a000000000000000000000000000000000000000000000000000000000815260040161125b9061437d565b60405180910390fd5b61126f848284613423565b600260009054906101000a900473ffffffffffffffffffffffffffffffffffffffff1673ffffffffffffffffffffffffffffffffffffffff166335b9594c8630336040518463ffffffff1660e01b81526004016112ce939291906145eb565b600060405180830381600087803b1580156112e857600080fd5b505af11580156112fc573d6000803e3d6000fd5b50505050600860008681526020019081526020016000206000808201600090556001820160006101000a81549073ffffffffffffffffffffffffffffffffffffffff0219169055600282016000905550508373ffffffffffffffffffffffffffffffffffffffff168173ffffffffffffffffffffffffffffffffffffffff16867f7787e67b4b8529b1aa2c1a59dbf0f0e766d63860956b86f33f5d870088235501856040516113ab91906145d0565b60405180910390a4505050600180819055505050565b6000600360009054906101000a900473ffffffffffffffffffffffffffffffffffffffff1673ffffffffffffffffffffffffffffffffffffffff166370a08231306040518263ffffffff1660e01b815260040161141e919061411d565b60206040518083038186803b15801561143657600080fd5b505afa15801561144a573d6000803e3d6000fd5b505050506040513d601f19601f8201168201806040525081019061146e9190613a9b565b905090565b61147b61341b565b73ffffffffffffffffffffffffffffffffffffffff166114996118da565b73ffffffffffffffffffffffffffffffffffffffff16146114ef576040517f08c379a00000000000000000000000000000000000000000000000000000000081526004016114e6906143fd565b60405180910390fd5b6114f96000613648565b565b60606115056127ba565b905090565b60026001541415611550576040517f08c379a00000000000000000000000000000000000000000000000000000000081526004016115479061451d565b60405180910390fd5b600260018190555060006009600083815260200190815260200160002090503073ffffffffffffffffffffffffffffffffffffffff16600260009054906101000a900473ffffffffffffffffffffffffffffffffffffffff1673ffffffffffffffffffffffffffffffffffffffff16636352211e846040518263ffffffff1660e01b81526004016115e191906145d0565b60206040518083038186803b1580156115f957600080fd5b505afa15801561160d573d6000803e3d6000fd5b505050506040513d601f19601f820116820180604052508101906116319190613925565b73ffffffffffffffffffffffffffffffffffffffff1614611687576040517f08c379a000000000000000000000000000000000000000000000000000000000815260040161167e906144bd565b60405180910390fd5b3373ffffffffffffffffffffffffffffffffffffffff168160010160009054906101000a900473ffffffffffffffffffffffffffffffffffffffff1673ffffffffffffffffffffffffffffffffffffffff1614611719576040517f08c379a00000000000000000000000000000000000000000000000000000000081526004016117109061439d565b60405180910390fd5b600073ffffffffffffffffffffffffffffffffffffffff168160010160009054906101000a900473ffffffffffffffffffffffffffffffffffffffff1673ffffffffffffffffffffffffffffffffffffffff1614156117ad576040517f08c379a00000000000000000000000000000000000000000000000000000000081526004016117a49061443d565b60405180910390fd5b600260009054906101000a900473ffffffffffffffffffffffffffffffffffffffff1673ffffffffffffffffffffffffffffffffffffffff166335b9594c8330336040518463ffffffff1660e01b815260040161180c939291906145eb565b600060405180830381600087803b15801561182657600080fd5b505af115801561183a573d6000803e3d6000fd5b50505050600960008381526020019081526020016000206000808201600090556001820160006101000a81549073ffffffffffffffffffffffffffffffffffffffff0219169055600282016000905550503373ffffffffffffffffffffffffffffffffffffffff16827f80cbe856a464968c63953aeb2dd84c12de3a0715985cae2ea35d3ed87e39ddc360405160405180910390a3506001808190555050565b60008060009054906101000a900473ffffffffffffffffffffffffffffffffffffffff16905090565b60026001541415611949576040517f08c379a00000000000000000000000000000000000000000000000000000000081526004016119409061451d565b60405180910390fd5b600260018190555060006008600083815260200190815260200160002090503073ffffffffffffffffffffffffffffffffffffffff16600260009054906101000a900473ffffffffffffffffffffffffffffffffffffffff1673ffffffffffffffffffffffffffffffffffffffff16636352211e846040518263ffffffff1660e01b81526004016119da91906145d0565b60206040518083038186803b1580156119f257600080fd5b505afa158015611a06573d6000803e3d6000fd5b505050506040513d601f19601f82011682018060405250810190611a2a9190613925565b73ffffffffffffffffffffffffffffffffffffffff1614611a80576040517f08c379a0000000000000000000000000000000000000000000000000000000008152600401611a77906143bd565b60405180910390fd5b3373ffffffffffffffffffffffffffffffffffffffff168160010160009054906101000a900473ffffffffffffffffffffffffffffffffffffffff1673ffffffffffffffffffffffffffffffffffffffff1614611b12576040517f08c379a0000000000000000000000000000000000000000000000000000000008152600401611b099061439d565b60405180910390fd5b600073ffffffffffffffffffffffffffffffffffffffff168160010160009054906101000a900473ffffffffffffffffffffffffffffffffffffffff1673ffffffffffffffffffffffffffffffffffffffff161415611ba6576040517f08c379a0000000000000000000000000000000000000000000000000000000008152600401611b9d9061453d565b60405180910390fd5b600260009054906101000a900473ffffffffffffffffffffffffffffffffffffffff1673ffffffffffffffffffffffffffffffffffffffff166335b9594c8330336040518463ffffffff1660e01b8152600401611c05939291906145eb565b600060405180830381600087803b158015611c1f57600080fd5b505af1158015611c33573d6000803e3d6000fd5b50505050600860008381526020019081526020016000206000808201600090556001820160006101000a81549073ffffffffffffffffffffffffffffffffffffffff0219169055600282016000905550503373ffffffffffffffffffffffffffffffffffffffff16827f10ac9f0bb365b5d22d7bec500408692f23fdf83eadfec71615ef88b4c1134f0e60405160405180910390a3506001808190555050565b611cdb61341b565b73ffffffffffffffffffffffffffffffffffffffff16611cf96118da565b73ffffffffffffffffffffffffffffffffffffffff1614611d4f576040517f08c379a0000000000000000000000000000000000000000000000000000000008152600401611d46906143fd565b60405180910390fd5b60026001541415611d95576040517f08c379a0000000000000000000000000000000000000000000000000000000008152600401611d8c9061451d565b60405180910390fd5b6002600181905550600073ffffffffffffffffffffffffffffffffffffffff168273ffffffffffffffffffffffffffffffffffffffff161415611e0d576040517f08c379a0000000000000000000000000000000000000000000000000000000008152600401611e04906143dd565b60405180910390fd5b8273ffffffffffffffffffffffffffffffffffffffff168273ffffffffffffffffffffffffffffffffffffffff161415611e7c576040517f08c379a0000000000000000000000000000000000000000000000000000000008152600401611e739061447d565b60405180910390fd5b60008111611ebf576040517f08c379a0000000000000000000000000000000000000000000000000000000008152600401611eb6906144fd565b60405180910390fd5b80600460008573ffffffffffffffffffffffffffffffffffffffff1673ffffffffffffffffffffffffffffffffffffffff168152602001908152602001600020541015611f41576040517f08c379a0000000000000000000000000000000000000000000000000000000008152600401611f389061437d565b60405180910390fd5b80600460008573ffffffffffffffffffffffffffffffffffffffff1673ffffffffffffffffffffffffffffffffffffffff1681526020019081526020016000206000828254611f909190614814565b9250508190555080600460008473ffffffffffffffffffffffffffffffffffffffff1673ffffffffffffffffffffffffffffffffffffffff1681526020019081526020016000206000828254611fe69190614764565b92505081905550611ff8838383613165565b8173ffffffffffffffffffffffffffffffffffffffff168373ffffffffffffffffffffffffffffffffffffffff167f941baa54585e364d2377b71ffcd6321c9e8b3d1b46e3db66121ee5b08bf12acf83600460008873ffffffffffffffffffffffffffffffffffffffff1673ffffffffffffffffffffffffffffffffffffffff16815260200190815260200160002054600460008873ffffffffffffffffffffffffffffffffffffffff1673ffffffffffffffffffffffffffffffffffffffff168152602001908152602001600020546040516120d793929190614659565b60405180910390a360018081905550505050565b60606000806120f86114fb565b90506000612104612be8565b905081819350935050509091565b60096020528060005260406000206000915090508060000154908060010160009054906101000a900473ffffffffffffffffffffffffffffffffffffffff16908060020154905083565b600260015414156121a2576040517f08c379a00000000000000000000000000000000000000000000000000000000081526004016121999061451d565b60405180910390fd5b6002600181905550600081116121ed576040517f08c379a00000000000000000000000000000000000000000000000000000000081526004016121e4906142dd565b60405180910390fd5b600360009054906101000a900473ffffffffffffffffffffffffffffffffffffffff1673ffffffffffffffffffffffffffffffffffffffff16636153fced3330846040518463ffffffff1660e01b815260040161224c93929190614138565b602060405180830381600087803b15801561226657600080fd5b505af115801561227a573d6000803e3d6000fd5b505050506040513d601f19601f8201168201806040525081019061229e9190613a41565b6122dd576040517f08c379a00000000000000000000000000000000000000000000000000000000081526004016122d49061433d565b60405180910390fd5b80600460003373ffffffffffffffffffffffffffffffffffffffff1673ffffffffffffffffffffffffffffffffffffffff168152602001908152602001600020600082825461232c9190614764565b9250508190555061233f60003383613165565b3373ffffffffffffffffffffffffffffffffffffffff167f36af321ec8d3c75236829c5317affd40ddb308863a1236d2d277a4025cccee1e82600360009054906101000a900473ffffffffffffffffffffffffffffffffffffffff1673ffffffffffffffffffffffffffffffffffffffff166370a08231336040518263ffffffff1660e01b81526004016123d3919061411d565b60206040518083038186803b1580156123eb57600080fd5b505afa1580156123ff573d6000803e3d6000fd5b505050506040513d601f19601f820116820180604052508101906124239190613a9b565b600460003373ffffffffffffffffffffffffffffffffffffffff1673ffffffffffffffffffffffffffffffffffffffff1681526020019081526020016000205460405161247293929190614659565b60405180910390a26001808190555050565b600260015414156124ca576040517f08c379a00000000000000000000000000000000000000000000000000000000081526004016124c19061451d565b60405180910390fd5b60026001819055503373ffffffffffffffffffffffffffffffffffffffff16600260009054906101000a900473ffffffffffffffffffffffffffffffffffffffff1673ffffffffffffffffffffffffffffffffffffffff16636352211e846040518263ffffffff1660e01b815260040161254491906145d0565b60206040518083038186803b15801561255c57600080fd5b505afa158015612570573d6000803e3d6000fd5b505050506040513d601f19601f820116820180604052508101906125949190613925565b73ffffffffffffffffffffffffffffffffffffffff16146125ea576040517f08c379a00000000000000000000000000000000000000000000000000000000081526004016125e19061439d565b60405180910390fd5b6000811161262d576040517f08c379a0000000000000000000000000000000000000000000000000000000008152600401612624906142fd565b60405180910390fd5b600260009054906101000a900473ffffffffffffffffffffffffffffffffffffffff1673ffffffffffffffffffffffffffffffffffffffff166335b9594c8333306040518463ffffffff1660e01b815260040161268c939291906145eb565b600060405180830381600087803b1580156126a657600080fd5b505af11580156126ba573d6000803e3d6000fd5b5050505060405180606001604052808381526020013373ffffffffffffffffffffffffffffffffffffffff16815260200182815250600960008481526020019081526020016000206000820151816000015560208201518160010160006101000a81548173ffffffffffffffffffffffffffffffffffffffff021916908373ffffffffffffffffffffffffffffffffffffffff160217905550604082015181600201559050503373ffffffffffffffffffffffffffffffffffffffff16827f557e20be357a3ff3fc08cf2b8e6986333057886a281d0409a7e751c3fd700ec0836040516127a791906145d0565b60405180910390a3600180819055505050565b6060600260009054906101000a900473ffffffffffffffffffffffffffffffffffffffff1673ffffffffffffffffffffffffffffffffffffffff1663e6b1fa2a306040518263ffffffff1660e01b8152600401612817919061411d565b60006040518083038186803b15801561282f57600080fd5b505afa158015612843573d6000803e3d6000fd5b505050506040513d6000823e3d601f19601f8201168201806040525081019061286c91906139f8565b905090565b600260009054906101000a900473ffffffffffffffffffffffffffffffffffffffff1681565b61289f613797565b6000600760008673ffffffffffffffffffffffffffffffffffffffff1673ffffffffffffffffffffffffffffffffffffffff1681526020019081526020016000209050600081805490509050600084866128f991906147ba565b821161290657600061292a565b846001876129149190614764565b61291e91906147ba565b826129299190614814565b5b90506000858761293a91906147ba565b836129459190614814565b9050828211806129555750600082105b1561295f57600091505b60008111158061297a575082868861297791906147ba565b10155b156129fc576040518060600160405280600067ffffffffffffffff8111156129a5576129a46149b0565b5b6040519080825280602002602001820160405280156129de57816020015b6129cb61370c565b8152602001906001900390816129c35790505b50815260200184815260200160001515815250945050505050612be1565b60008282612a0a9190614814565b905060008167ffffffffffffffff811115612a2857612a276149b0565b5b604051908082528060200260200182016040528015612a6157816020015b612a4e61370c565b815260200190600190039081612a465790505b50905060005b82811015612bb257600560008883600188612a829190614814565b612a8c9190614814565b81548110612a9d57612a9c614981565b5b906000526020600020015481526020019081526020016000206040518060800160405290816000820160009054906101000a900473ffffffffffffffffffffffffffffffffffffffff1673ffffffffffffffffffffffffffffffffffffffff1673ffffffffffffffffffffffffffffffffffffffff1681526020016001820160009054906101000a900473ffffffffffffffffffffffffffffffffffffffff1673ffffffffffffffffffffffffffffffffffffffff1673ffffffffffffffffffffffffffffffffffffffff16815260200160028201548152602001600382015481525050828281518110612b9457612b93614981565b5b60200260200101819052508080612baa90614909565b915050612a67565b506000808511905060405180606001604052808381526020018781526020018215158152509750505050505050505b9392505050565b6000612bf26113c1565b905090565b612bff61341b565b73ffffffffffffffffffffffffffffffffffffffff16612c1d6118da565b73ffffffffffffffffffffffffffffffffffffffff1614612c73576040517f08c379a0000000000000000000000000000000000000000000000000000000008152600401612c6a906143fd565b60405180910390fd5b600073ffffffffffffffffffffffffffffffffffffffff168173ffffffffffffffffffffffffffffffffffffffff161415612ce3576040517f08c379a0000000000000000000000000000000000000000000000000000000008152600401612cda9061431d565b60405180910390fd5b612cec81613648565b50565b60026001541415612d35576040517f08c379a0000000000000000000000000000000000000000000000000000000008152600401612d2c9061451d565b60405180910390fd5b60026001819055506000600960008381526020019081526020016000209050600073ffffffffffffffffffffffffffffffffffffffff168160010160009054906101000a900473ffffffffffffffffffffffffffffffffffffffff1673ffffffffffffffffffffffffffffffffffffffff161415612de8576040517f08c379a0000000000000000000000000000000000000000000000000000000008152600401612ddf9061435d565b60405180910390fd5b8060010160009054906101000a900473ffffffffffffffffffffffffffffffffffffffff1673ffffffffffffffffffffffffffffffffffffffff163373ffffffffffffffffffffffffffffffffffffffff161415612e7b576040517f08c379a0000000000000000000000000000000000000000000000000000000008152600401612e729061449d565b60405180910390fd5b60008160020154905060008260010160009054906101000a900473ffffffffffffffffffffffffffffffffffffffff16905081612eb733610bf0565b1015612ef8576040517f08c379a0000000000000000000000000000000000000000000000000000000008152600401612eef9061437d565b60405180910390fd5b612f03338284613423565b600260009054906101000a900473ffffffffffffffffffffffffffffffffffffffff1673ffffffffffffffffffffffffffffffffffffffff166335b9594c8530336040518463ffffffff1660e01b8152600401612f62939291906145eb565b600060405180830381600087803b158015612f7c57600080fd5b505af1158015612f90573d6000803e3d6000fd5b50505050600960008581526020019081526020016000206000808201600090556001820160006101000a81549073ffffffffffffffffffffffffffffffffffffffff0219169055600282016000905550503373ffffffffffffffffffffffffffffffffffffffff168173ffffffffffffffffffffffffffffffffffffffff16857f94ddf8232f3af1f844abb74cd56287ba5507090df04bf3c2e006bf74e904a2838560405161303f91906145d0565b60405180910390a45050506001808190555050565b61305c6137ba565b600060086000848152602001908152602001600020604051806060016040529081600082015481526020016001820160009054906101000a900473ffffffffffffffffffffffffffffffffffffffff1673ffffffffffffffffffffffffffffffffffffffff1673ffffffffffffffffffffffffffffffffffffffff1681526020016002820154815250509050600073ffffffffffffffffffffffffffffffffffffffff16816020015173ffffffffffffffffffffffffffffffffffffffff16141561315c576040517f08c379a0000000000000000000000000000000000000000000000000000000008152600401613153906142bd565b60405180910390fd5b80915050919050565b6006600081548092919061317890614909565b919050555060405180608001604052808473ffffffffffffffffffffffffffffffffffffffff1681526020018373ffffffffffffffffffffffffffffffffffffffff1681526020018281526020014281525060056000600654815260200190815260200160002060008201518160000160006101000a81548173ffffffffffffffffffffffffffffffffffffffff021916908373ffffffffffffffffffffffffffffffffffffffff16021790555060208201518160010160006101000a81548173ffffffffffffffffffffffffffffffffffffffff021916908373ffffffffffffffffffffffffffffffffffffffff1602179055506040820151816002015560608201518160030155905050600760008473ffffffffffffffffffffffffffffffffffffffff1673ffffffffffffffffffffffffffffffffffffffff1681526020019081526020016000206006549080600181540180825580915050600190039060005260206000200160009091909190915055600760008373ffffffffffffffffffffffffffffffffffffffff1673ffffffffffffffffffffffffffffffffffffffff16815260200190815260200160002060065490806001815401808255809150506001900390600052602060002001600090919091909150556006547fc09ae797f474a8568a060562997bd2e2f8dc85b50a348036d10095b3dbbfeeba84848442600460008a73ffffffffffffffffffffffffffffffffffffffff1673ffffffffffffffffffffffffffffffffffffffff16815260200190815260200160002054600460008a73ffffffffffffffffffffffffffffffffffffffff1673ffffffffffffffffffffffffffffffffffffffff1681526020019081526020016000205460405161340e969594939291906141b4565b60405180910390a2505050565b600033905090565b80600460008573ffffffffffffffffffffffffffffffffffffffff1673ffffffffffffffffffffffffffffffffffffffff1681526020019081526020016000205410156134a5576040517f08c379a000000000000000000000000000000000000000000000000000000000815260040161349c9061437d565b60405180910390fd5b80600460008573ffffffffffffffffffffffffffffffffffffffff1673ffffffffffffffffffffffffffffffffffffffff16815260200190815260200160002060008282546134f49190614814565b9250508190555080600460008473ffffffffffffffffffffffffffffffffffffffff1673ffffffffffffffffffffffffffffffffffffffff168152602001908152602001600020600082825461354a9190614764565b9250508190555061355c838383613165565b8173ffffffffffffffffffffffffffffffffffffffff168373ffffffffffffffffffffffffffffffffffffffff167f545d69fe7f063ec653f15db654097f27f5cadbe11750199a40fd55b2504c6b4d83600460008873ffffffffffffffffffffffffffffffffffffffff1673ffffffffffffffffffffffffffffffffffffffff16815260200190815260200160002054600460008873ffffffffffffffffffffffffffffffffffffffff1673ffffffffffffffffffffffffffffffffffffffff1681526020019081526020016000205460405161363b93929190614659565b60405180910390a3505050565b60008060009054906101000a900473ffffffffffffffffffffffffffffffffffffffff169050816000806101000a81548173ffffffffffffffffffffffffffffffffffffffff021916908373ffffffffffffffffffffffffffffffffffffffff1602179055508173ffffffffffffffffffffffffffffffffffffffff168173ffffffffffffffffffffffffffffffffffffffff167f8be0079c531659141344cd1fd0a4f28419497f9722a3daafe3b4186f6b6457e060405160405180910390a35050565b6040518060800160405280600073ffffffffffffffffffffffffffffffffffffffff168152602001600073ffffffffffffffffffffffffffffffffffffffff16815260200160008152602001600081525090565b604051806060016040528060008152602001600073ffffffffffffffffffffffffffffffffffffffff168152602001600081525090565b604051806060016040528060608152602001600081526020016000151581525090565b604051806060016040528060008152602001600073ffffffffffffffffffffffffffffffffffffffff168152602001600081525090565b60006138046137ff846146b5565b614690565b90508083825260208201905082856020860282011115613827576138266149e4565b5b60005b85811015613857578161383d88826138e3565b84526020840193506020830192505060018101905061382a565b5050509392505050565b60008135905061387081614e48565b92915050565b60008151905061388581614e48565b92915050565b600082601f8301126138a05761389f6149df565b5b81516138b08482602086016137f1565b91505092915050565b6000815190506138c881614e5f565b92915050565b6000813590506138dd81614e76565b92915050565b6000815190506138f281614e76565b92915050565b60006020828403121561390e5761390d6149ee565b5b600061391c84828501613861565b91505092915050565b60006020828403121561393b5761393a6149ee565b5b600061394984828501613876565b91505092915050565b60008060006060848603121561396b5761396a6149ee565b5b600061397986828701613861565b935050602061398a86828701613861565b925050604061399b868287016138ce565b9150509250925092565b6000806000606084860312156139be576139bd6149ee565b5b60006139cc86828701613861565b93505060206139dd868287016138ce565b92505060406139ee868287016138ce565b9150509250925092565b600060208284031215613a0e57613a0d6149ee565b5b600082015167ffffffffffffffff811115613a2c57613a2b6149e9565b5b613a388482850161388b565b91505092915050565b600060208284031215613a5757613a566149ee565b5b6000613a65848285016138b9565b91505092915050565b600060208284031215613a8457613a836149ee565b5b6000613a92848285016138ce565b91505092915050565b600060208284031215613ab157613ab06149ee565b5b6000613abf848285016138e3565b91505092915050565b60008060408385031215613adf57613ade6149ee565b5b6000613aed858286016138ce565b9250506020613afe85828601613861565b9150509250929050565b60008060408385031215613b1f57613b1e6149ee565b5b6000613b2d858286016138ce565b9250506020613b3e858286016138ce565b9150509250929050565b6000613b548383614005565b60808301905092915050565b6000613b6c83836140ff565b60208301905092915050565b613b8181614848565b82525050565b613b9081614848565b82525050565b6000613ba182614701565b613bab8185614731565b9350613bb6836146e1565b8060005b83811015613be7578151613bce8882613b48565b9750613bd983614717565b925050600181019050613bba565b5085935050505092915050565b6000613bff8261470c565b613c098185614742565b9350613c14836146f1565b8060005b83811015613c45578151613c2c8882613b60565b9750613c3783614724565b925050600181019050613c18565b5085935050505092915050565b613c5b8161485a565b82525050565b613c6a81614890565b82525050565b613c79816148a2565b82525050565b6000613c8c602083614753565b9150613c9782614a04565b602082019050919050565b6000613caf602383614753565b9150613cba82614a2d565b604082019050919050565b6000613cd2602583614753565b9150613cdd82614a7c565b604082019050919050565b6000613cf5601f83614753565b9150613d0082614acb565b602082019050919050565b6000613d18602683614753565b9150613d2382614af4565b604082019050919050565b6000613d3b600f83614753565b9150613d4682614b43565b602082019050919050565b6000613d5e601883614753565b9150613d6982614b6c565b602082019050919050565b6000613d81601483614753565b9150613d8c82614b95565b602082019050919050565b6000613da4601683614753565b9150613daf82614bbe565b602082019050919050565b6000613dc7601283614753565b9150613dd282614be7565b602082019050919050565b6000613dea601983614753565b9150613df582614c10565b602082019050919050565b6000613e0d602083614753565b9150613e1882614c39565b602082019050919050565b6000613e30602883614753565b9150613e3b82614c62565b604082019050919050565b6000613e53601a83614753565b9150613e5e82614cb1565b602082019050919050565b6000613e76601a83614753565b9150613e8182614cda565b602082019050919050565b6000613e99601b83614753565b9150613ea482614d03565b602082019050919050565b6000613ebc601a83614753565b9150613ec782614d2c565b602082019050919050565b6000613edf601183614753565b9150613eea82614d55565b602082019050919050565b6000613f02601083614753565b9150613f0d82614d7e565b602082019050919050565b6000613f25602683614753565b9150613f3082614da7565b604082019050919050565b6000613f48601f83614753565b9150613f5382614df6565b602082019050919050565b6000613f6b601b83614753565b9150613f7682614e1f565b602082019050919050565b606082016000820151613f9760008501826140ff565b506020820151613faa6020850182613b78565b506040820151613fbd60408501826140ff565b50505050565b606082016000820151613fd960008501826140ff565b506020820151613fec6020850182613b78565b506040820151613fff60408501826140ff565b50505050565b60808201600082015161401b6000850182613b78565b50602082015161402e6020850182613b78565b50604082015161404160408501826140ff565b50606082015161405460608501826140ff565b50505050565b6080820160008201516140706000850182613b78565b5060208201516140836020850182613b78565b50604082015161409660408501826140ff565b5060608201516140a960608501826140ff565b50505050565b600060608301600083015184820360008601526140cc8282613b96565b91505060208301516140e160208601826140ff565b5060408301516140f46040860182613c52565b508091505092915050565b61410881614886565b82525050565b61411781614886565b82525050565b60006020820190506141326000830184613b87565b92915050565b600060608201905061414d6000830186613b87565b61415a6020830185613b87565b614167604083018461410e565b949350505050565b60006080820190506141846000830187613b87565b6141916020830186613b87565b61419e604083018561410e565b6141ab606083018461410e565b95945050505050565b600060c0820190506141c96000830189613b87565b6141d66020830188613b87565b6141e3604083018761410e565b6141f0606083018661410e565b6141fd608083018561410e565b61420a60a083018461410e565b979650505050505050565b6000602082019050818103600083015261422f8184613bf4565b905092915050565b600060408201905081810360008301526142518185613bf4565b9050614260602083018461410e565b9392505050565b600060208201905061427c6000830184613c61565b92915050565b60006020820190506142976000830184613c70565b92915050565b600060208201905081810360008301526142b681613c7f565b9050919050565b600060208201905081810360008301526142d681613ca2565b9050919050565b600060208201905081810360008301526142f681613cc5565b9050919050565b6000602082019050818103600083015261431681613ce8565b9050919050565b6000602082019050818103600083015261433681613d0b565b9050919050565b6000602082019050818103600083015261435681613d2e565b9050919050565b6000602082019050818103600083015261437681613d51565b9050919050565b6000602082019050818103600083015261439681613d74565b9050919050565b600060208201905081810360008301526143b681613d97565b9050919050565b600060208201905081810360008301526143d681613dba565b9050919050565b600060208201905081810360008301526143f681613ddd565b9050919050565b6000602082019050818103600083015261441681613e00565b9050919050565b6000602082019050818103600083015261443681613e23565b9050919050565b6000602082019050818103600083015261445681613e46565b9050919050565b6000602082019050818103600083015261447681613e69565b9050919050565b6000602082019050818103600083015261449681613e8c565b9050919050565b600060208201905081810360008301526144b681613eaf565b9050919050565b600060208201905081810360008301526144d681613ed2565b9050919050565b600060208201905081810360008301526144f681613ef5565b9050919050565b6000602082019050818103600083015261451681613f18565b9050919050565b6000602082019050818103600083015261453681613f3b565b9050919050565b6000602082019050818103600083015261455681613f5e565b9050919050565b60006060820190506145726000830184613f81565b92915050565b600060608201905061458d6000830184613fc3565b92915050565b60006080820190506145a8600083018461405a565b92915050565b600060208201905081810360008301526145c881846140af565b905092915050565b60006020820190506145e5600083018461410e565b92915050565b6000606082019050614600600083018661410e565b61460d6020830185613b87565b61461a6040830184613b87565b949350505050565b6000606082019050614637600083018661410e565b6146446020830185613b87565b614651604083018461410e565b949350505050565b600060608201905061466e600083018661410e565b61467b602083018561410e565b614688604083018461410e565b949350505050565b600061469a6146ab565b90506146a682826148d8565b919050565b6000604051905090565b600067ffffffffffffffff8211156146d0576146cf6149b0565b5b602082029050602081019050919050565b6000819050602082019050919050565b6000819050602082019050919050565b600081519050919050565b600081519050919050565b6000602082019050919050565b6000602082019050919050565b600082825260208201905092915050565b600082825260208201905092915050565b600082825260208201905092915050565b600061476f82614886565b915061477a83614886565b9250827fffffffffffffffffffffffffffffffffffffffffffffffffffffffffffffffff038211156147af576147ae614952565b5b828201905092915050565b60006147c582614886565b91506147d083614886565b9250817fffffffffffffffffffffffffffffffffffffffffffffffffffffffffffffffff048311821515161561480957614808614952565b5b828202905092915050565b600061481f82614886565b915061482a83614886565b92508282101561483d5761483c614952565b5b828203905092915050565b600061485382614866565b9050919050565b60008115159050919050565b600073ffffffffffffffffffffffffffffffffffffffff82169050919050565b6000819050919050565b600061489b826148b4565b9050919050565b60006148ad826148b4565b9050919050565b60006148bf826148c6565b9050919050565b60006148d182614866565b9050919050565b6148e1826149f3565b810181811067ffffffffffffffff82111715614900576148ff6149b0565b5b80604052505050565b600061491482614886565b91507fffffffffffffffffffffffffffffffffffffffffffffffffffffffffffffffff82141561494757614946614952565b5b600182019050919050565b7f4e487b7100000000000000000000000000000000000000000000000000000000600052601160045260246000fd5b7f4e487b7100000000000000000000000000000000000000000000000000000000600052603260045260246000fd5b7f4e487b7100000000000000000000000000000000000000000000000000000000600052604160045260246000fd5b600080fd5b600080fd5b600080fd5b600080fd5b6000601f19601f8301169050919050565b7f53656c6c20646f6573206e6f7420657869737420666f722074686973204e4654600082015250565b7f41756374696f6e20646f6573206e6f7420657869737420666f7220746869732060008201527f4e46540000000000000000000000000000000000000000000000000000000000602082015250565b7f4465706f73697420616d6f756e74206d7573742062652067726561746572207460008201527f68616e2030000000000000000000000000000000000000000000000000000000602082015250565b7f5072696365206d7573742062652067726561746572207468616e207a65726f00600082015250565b7f4f776e61626c653a206e6577206f776e657220697320746865207a65726f206160008201527f6464726573730000000000000000000000000000000000000000000000000000602082015250565b7f5472616e73666572206661696c65640000000000000000000000000000000000600082015250565b7f54686973204e4654206973206e6f7420666f722073616c650000000000000000600082015250565b7f496e73756666696369656e742062616c616e6365000000000000000000000000600082015250565b7f596f7520646f6e2774206f776e2074686973204e465400000000000000000000600082015250565b7f4e4654206e6f7420696e2041756374696f6e0000000000000000000000000000600082015250565b7f496e76616c696420726563697069656e74206164647265737300000000000000600082015250565b7f4f776e61626c653a2063616c6c6572206973206e6f7420746865206f776e6572600082015250565b7f5769746864726177616c20616d6f756e74206d7573742062652067726561746560008201527f72207468616e2030000000000000000000000000000000000000000000000000602082015250565b7f54686973206d61726b657420646f6573206e6f74206578697374000000000000600082015250565b7f53656c6c65722063616e6e6f7420626520746865206275796572000000000000600082015250565b7f43616e6e6f74207472616e7366657220746f20796f757273656c660000000000600082015250565b7f596f752063616e27742062757920796f7572206f776e204e4654000000000000600082015250565b7f4e4654206e6f7420696e206d61726b6574000000000000000000000000000000600082015250565b7f496e76616c696420747261646520494400000000000000000000000000000000600082015250565b7f5472616e7366657220616d6f756e74206d75737420626520677265617465722060008201527f7468616e20300000000000000000000000000000000000000000000000000000602082015250565b7f5265656e7472616e637947756172643a207265656e7472616e742063616c6c00600082015250565b7f546869732061756374696f6e20646f6573206e6f742065786973740000000000600082015250565b614e5181614848565b8114614e5c57600080fd5b50565b614e688161485a565b8114614e7357600080fd5b50565b614e7f81614886565b8114614e8a57600080fd5b5056fea26469706673582212203813844e7e704be4f96f89ba6af8494ea35d78ebfff750b6e0d38db3403eef9c64736f6c63430008070033",
  "immutableReferences": {},
  "source": "// SPDX-License-Identifier: MIT\r\npragma solidity ^0.8.7;\r\n\r\nimport \"./NFTAuction.sol\";\r\nimport \"./NFTMarket.sol\";\r\nimport \"./TradeBase.sol\";\r\n\r\ncontract IntegratedNFTSystem is NFTAuction, NFTMarket {\r\n    // \r\n    constructor(address _nftContractAddress, address _tokenContractAddress) {\r\n        initializeContracts(_nftContractAddress, _tokenContractAddress);\r\n        nftContract.setMainContractAddress(address(this));\r\n        tokenContract.setMainContractAddress(address(this));\r\n    }\r\n\r\n    //   NFT (   NFT)\r\n    function getAllContractOwnedNFTs() public view returns (uint256[] memory) {\r\n        return getContractOwnedNFTs();\r\n    }\r\n\r\n    //    ( )\r\n    function getTotalContractBalance() public view returns (uint256) {\r\n        return getContractBalance();\r\n    }\r\n\r\n    // NFT   \r\n    function getCombinedOwnedAssets() public view returns (uint256[] memory nftIds, uint256 totalCoins) {\r\n        uint256[] memory allNFTs = getAllContractOwnedNFTs();\r\n        uint256 totalBalance = getTotalContractBalance();\r\n\r\n        return (allNFTs, totalBalance);\r\n    }\r\n}",
  "sourcePath": "C:\\Users\\SSAFY\\Desktop\\semonemo\\backend\\blockchain-server\\smartcontract\\contracts\\System.sol",
  "compiler": {
    "name": "solc",
    "version": "0.8.7+commit.e28d00a7.Emscripten.clang"
  },
  "schemaVersion": "3.4.16",
  "updatedAt": "2024-10-05T08:15:31.186Z",
  "networkType": "ethereum",
  "devdoc": {
    "kind": "dev",
    "methods": {
      "owner()": {
        "details": "Returns the address of the current owner."
      },
      "renounceOwnership()": {
        "details": "Leaves the contract without owner. It will not be possible to call `onlyOwner` functions anymore. Can only be called by the current owner. NOTE: Renouncing ownership will leave the contract without an owner, thereby removing any functionality that is only available to the owner."
      },
      "transferOwnership(address)": {
        "details": "Transfers ownership of the contract to a new account (`newOwner`). Can only be called by the current owner."
      }
    },
    "version": 1
  },
  "userdoc": {
    "kind": "user",
    "methods": {},
    "version": 1
  }
}