{
  "contractName": "IntegratedNFTSystem",
  "abi": [
    {
      "inputs": [
        {
          "internalType": "address",
          "name": "_nftContractAddress",
          "type": "address"
        },
        {
          "internalType": "address",
          "name": "_tokenContractAddress",
          "type": "address"
        }
      ],
      "stateMutability": "nonpayable",
      "type": "constructor"
    },
    {
      "anonymous": false,
      "inputs": [
        {
          "indexed": true,
          "internalType": "uint256",
          "name": "nftId",
          "type": "uint256"
        },
        {
          "indexed": true,
          "internalType": "address",
          "name": "seller",
          "type": "address"
        },
        {
          "indexed": false,
          "internalType": "uint256",
          "name": "startingPrice",
          "type": "uint256"
        }
      ],
      "name": "AuctionCreated",
      "type": "event"
    },
    {
      "anonymous": false,
      "inputs": [
        {
          "indexed": true,
          "internalType": "uint256",
          "name": "nftId",
          "type": "uint256"
        },
        {
          "indexed": true,
          "internalType": "address",
          "name": "winner",
          "type": "address"
        },
        {
          "indexed": false,
          "internalType": "uint256",
          "name": "winningBid",
          "type": "uint256"
        }
      ],
      "name": "AuctionFinalized",
      "type": "event"
    },
    {
      "anonymous": false,
      "inputs": [
        {
          "indexed": true,
          "internalType": "uint256",
          "name": "nftId",
          "type": "uint256"
        },
        {
          "indexed": true,
          "internalType": "address",
          "name": "bidder",
          "type": "address"
        },
        {
          "indexed": false,
          "internalType": "uint256",
          "name": "bidAmount",
          "type": "uint256"
        }
      ],
      "name": "BidPlaced",
      "type": "event"
    },
    {
      "anonymous": false,
      "inputs": [
        {
          "indexed": true,
          "internalType": "uint256",
          "name": "nftId",
          "type": "uint256"
        },
        {
          "indexed": true,
          "internalType": "address",
          "name": "seller",
          "type": "address"
        },
        {
          "indexed": true,
          "internalType": "address",
          "name": "buyer",
          "type": "address"
        },
        {
          "indexed": false,
          "internalType": "uint256",
          "name": "price",
          "type": "uint256"
        }
      ],
      "name": "FrameSold",
      "type": "event"
    },
    {
      "anonymous": false,
      "inputs": [
        {
          "indexed": true,
          "internalType": "address",
          "name": "previousOwner",
          "type": "address"
        },
        {
          "indexed": true,
          "internalType": "address",
          "name": "newOwner",
          "type": "address"
        }
      ],
      "name": "OwnershipTransferred",
      "type": "event"
    },
    {
      "anonymous": false,
      "inputs": [
        {
          "indexed": true,
          "internalType": "uint256",
          "name": "nftId",
          "type": "uint256"
        },
        {
          "indexed": true,
          "internalType": "address",
          "name": "seller",
          "type": "address"
        }
      ],
      "name": "SellCancelled",
      "type": "event"
    },
    {
      "anonymous": false,
      "inputs": [
        {
          "indexed": true,
          "internalType": "uint256",
          "name": "nftId",
          "type": "uint256"
        },
        {
          "indexed": true,
          "internalType": "address",
          "name": "seller",
          "type": "address"
        },
        {
          "indexed": false,
          "internalType": "uint256",
          "name": "price",
          "type": "uint256"
        }
      ],
      "name": "SellCreated",
      "type": "event"
    },
    {
      "inputs": [
        {
          "internalType": "uint256",
          "name": "",
          "type": "uint256"
        }
      ],
      "name": "auctions",
      "outputs": [
        {
          "internalType": "uint256",
          "name": "nftId",
          "type": "uint256"
        },
        {
          "internalType": "address",
          "name": "seller",
          "type": "address"
        },
        {
          "internalType": "uint256",
          "name": "startingPrice",
          "type": "uint256"
        },
        {
          "internalType": "uint256",
          "name": "highestBid",
          "type": "uint256"
        },
        {
          "internalType": "address",
          "name": "highestBidder",
          "type": "address"
        },
        {
          "internalType": "bool",
          "name": "isFinished",
          "type": "bool"
        }
      ],
      "stateMutability": "view",
      "type": "function",
      "constant": true
    },
    {
      "inputs": [
        {
          "internalType": "uint256",
          "name": "_nftId",
          "type": "uint256"
        }
      ],
      "name": "buyFrame",
      "outputs": [],
      "stateMutability": "nonpayable",
      "type": "function"
    },
    {
      "inputs": [
        {
          "internalType": "uint256",
          "name": "_nftId",
          "type": "uint256"
        }
      ],
      "name": "cancelSell",
      "outputs": [],
      "stateMutability": "nonpayable",
      "type": "function"
    },
    {
      "inputs": [
        {
          "internalType": "uint256",
          "name": "_nftId",
          "type": "uint256"
        },
        {
          "internalType": "uint256",
          "name": "_startingPrice",
          "type": "uint256"
        }
      ],
      "name": "createAuction",
      "outputs": [],
      "stateMutability": "nonpayable",
      "type": "function"
    },
    {
      "inputs": [
        {
          "internalType": "uint256",
          "name": "_nftId",
          "type": "uint256"
        },
        {
          "internalType": "uint256",
          "name": "price",
          "type": "uint256"
        }
      ],
      "name": "createSell",
      "outputs": [],
      "stateMutability": "nonpayable",
      "type": "function"
    },
    {
      "inputs": [
        {
          "internalType": "uint256",
          "name": "_nftId",
          "type": "uint256"
        }
      ],
      "name": "finalizeAuction",
      "outputs": [],
      "stateMutability": "nonpayable",
      "type": "function"
    },
    {
      "inputs": [
        {
          "internalType": "uint256",
          "name": "",
          "type": "uint256"
        }
      ],
      "name": "frames",
      "outputs": [
        {
          "internalType": "uint256",
          "name": "nftId",
          "type": "uint256"
        },
        {
          "internalType": "address",
          "name": "seller",
          "type": "address"
        },
        {
          "internalType": "uint256",
          "name": "price",
          "type": "uint256"
        },
        {
          "internalType": "bool",
          "name": "isFinished",
          "type": "bool"
        }
      ],
      "stateMutability": "view",
      "type": "function",
      "constant": true
    },
    {
      "inputs": [
        {
          "internalType": "uint256",
          "name": "_nftId",
          "type": "uint256"
        }
      ],
      "name": "getAuctionInfo",
      "outputs": [
        {
          "components": [
            {
              "internalType": "uint256",
              "name": "nftId",
              "type": "uint256"
            },
            {
              "internalType": "address",
              "name": "seller",
              "type": "address"
            },
            {
              "internalType": "uint256",
              "name": "startingPrice",
              "type": "uint256"
            },
            {
              "internalType": "uint256",
              "name": "highestBid",
              "type": "uint256"
            },
            {
              "internalType": "address",
              "name": "highestBidder",
              "type": "address"
            },
            {
              "internalType": "bool",
              "name": "isFinished",
              "type": "bool"
            }
          ],
          "internalType": "struct NFTAuction.Auction",
          "name": "",
          "type": "tuple"
        }
      ],
      "stateMutability": "view",
      "type": "function",
      "constant": true
    },
    {
      "inputs": [],
      "name": "getContractBalance",
      "outputs": [
        {
          "internalType": "uint256",
          "name": "",
          "type": "uint256"
        }
      ],
      "stateMutability": "view",
      "type": "function",
      "constant": true
    },
    {
      "inputs": [],
      "name": "getContractOwnedNFTs",
      "outputs": [
        {
          "internalType": "uint256[]",
          "name": "",
          "type": "uint256[]"
        }
      ],
      "stateMutability": "view",
      "type": "function",
      "constant": true
    },
    {
      "inputs": [
        {
          "internalType": "uint256",
          "name": "_nftId",
          "type": "uint256"
        }
      ],
      "name": "getSellInfo",
      "outputs": [
        {
          "components": [
            {
              "internalType": "uint256",
              "name": "nftId",
              "type": "uint256"
            },
            {
              "internalType": "address",
              "name": "seller",
              "type": "address"
            },
            {
              "internalType": "uint256",
              "name": "price",
              "type": "uint256"
            },
            {
              "internalType": "bool",
              "name": "isFinished",
              "type": "bool"
            }
          ],
          "internalType": "struct NFTMarket.Frame",
          "name": "",
          "type": "tuple"
        }
      ],
      "stateMutability": "view",
      "type": "function",
      "constant": true
    },
    {
      "inputs": [],
      "name": "nftContract",
      "outputs": [
        {
          "internalType": "contract NFTFrame",
          "name": "",
          "type": "address"
        }
      ],
      "stateMutability": "view",
      "type": "function",
      "constant": true
    },
    {
      "inputs": [],
      "name": "owner",
      "outputs": [
        {
          "internalType": "address",
          "name": "",
          "type": "address"
        }
      ],
      "stateMutability": "view",
      "type": "function",
      "constant": true
    },
    {
      "inputs": [
        {
          "internalType": "uint256",
          "name": "_nftId",
          "type": "uint256"
        },
        {
          "internalType": "uint256",
          "name": "_bidAmount",
          "type": "uint256"
        }
      ],
      "name": "placeBid",
      "outputs": [],
      "stateMutability": "nonpayable",
      "type": "function"
    },
    {
      "inputs": [],
      "name": "renounceOwnership",
      "outputs": [],
      "stateMutability": "nonpayable",
      "type": "function"
    },
    {
      "inputs": [],
      "name": "tokenContract",
      "outputs": [
        {
          "internalType": "contract AhoraCoin",
          "name": "",
          "type": "address"
        }
      ],
      "stateMutability": "view",
      "type": "function",
      "constant": true
    },
    {
      "inputs": [
        {
          "internalType": "address",
          "name": "newOwner",
          "type": "address"
        }
      ],
      "name": "transferOwnership",
      "outputs": [],
      "stateMutability": "nonpayable",
      "type": "function"
    },
    {
      "inputs": [],
      "name": "getAllContractOwnedNFTs",
      "outputs": [
        {
          "internalType": "uint256[]",
          "name": "",
          "type": "uint256[]"
        }
      ],
      "stateMutability": "view",
      "type": "function",
      "constant": true
    },
    {
      "inputs": [],
      "name": "getTotalContractBalance",
      "outputs": [
        {
          "internalType": "uint256",
          "name": "",
          "type": "uint256"
        }
      ],
      "stateMutability": "view",
      "type": "function",
      "constant": true
    },
    {
      "inputs": [],
      "name": "getCombinedOwnedAssets",
      "outputs": [
        {
          "internalType": "uint256[]",
          "name": "nftIds",
          "type": "uint256[]"
        },
        {
          "internalType": "uint256",
          "name": "totalCoins",
          "type": "uint256"
        }
      ],
      "stateMutability": "view",
      "type": "function",
      "constant": true
    }
  ],
  "bytecode": "0x60806040523480156200001157600080fd5b5060405162003e9938038062003e998339818101604052810190620000379190620003f2565b620000576200004b6200019a60201b60201c565b620001a260201b60201c565b600180819055506200007082826200026660201b60201c565b600260009054906101000a900473ffffffffffffffffffffffffffffffffffffffff1673ffffffffffffffffffffffffffffffffffffffff1663ec9da59e306040518263ffffffff1660e01b8152600401620000cd919062000471565b600060405180830381600087803b158015620000e857600080fd5b505af1158015620000fd573d6000803e3d6000fd5b50505050600360009054906101000a900473ffffffffffffffffffffffffffffffffffffffff1673ffffffffffffffffffffffffffffffffffffffff1663ec9da59e306040518263ffffffff1660e01b81526004016200015e919062000471565b600060405180830381600087803b1580156200017957600080fd5b505af11580156200018e573d6000803e3d6000fd5b5050505050506200053d565b600033905090565b60008060009054906101000a900473ffffffffffffffffffffffffffffffffffffffff169050816000806101000a81548173ffffffffffffffffffffffffffffffffffffffff021916908373ffffffffffffffffffffffffffffffffffffffff1602179055508173ffffffffffffffffffffffffffffffffffffffff168173ffffffffffffffffffffffffffffffffffffffff167f8be0079c531659141344cd1fd0a4f28419497f9722a3daafe3b4186f6b6457e060405160405180910390a35050565b600073ffffffffffffffffffffffffffffffffffffffff16600260009054906101000a900473ffffffffffffffffffffffffffffffffffffffff1673ffffffffffffffffffffffffffffffffffffffff16148015620003135750600073ffffffffffffffffffffffffffffffffffffffff16600360009054906101000a900473ffffffffffffffffffffffffffffffffffffffff1673ffffffffffffffffffffffffffffffffffffffff16145b62000355576040517f08c379a00000000000000000000000000000000000000000000000000000000081526004016200034c906200048e565b60405180910390fd5b81600260006101000a81548173ffffffffffffffffffffffffffffffffffffffff021916908373ffffffffffffffffffffffffffffffffffffffff16021790555080600360006101000a81548173ffffffffffffffffffffffffffffffffffffffff021916908373ffffffffffffffffffffffffffffffffffffffff1602179055505050565b600081519050620003ec8162000523565b92915050565b600080604083850312156200040c576200040b620004f5565b5b60006200041c85828601620003db565b92505060206200042f85828601620003db565b9150509250929050565b6200044481620004c1565b82525050565b600062000459601d83620004b0565b91506200046682620004fa565b602082019050919050565b600060208201905062000488600083018462000439565b92915050565b60006020820190508181036000830152620004a9816200044a565b9050919050565b600082825260208201905092915050565b6000620004ce82620004d5565b9050919050565b600073ffffffffffffffffffffffffffffffffffffffff82169050919050565b600080fd5b7f436f6e74726163747320616c726561647920696e697469616c697a6564000000600082015250565b6200052e81620004c1565b81146200053a57600080fd5b50565b61394c806200054d6000396000f3fe608060405234801561001057600080fd5b506004361061012c5760003560e01c8063a10340bc116100ad578063d9e3fd6411610071578063d9e3fd6414610302578063e808386314610320578063e9bc63f71461033c578063f2fde38b1461036c578063fc3fc4ed146103885761012c565b8063a10340bc14610258578063a4144ed21461028b578063a6c7523a146102a7578063d3e6fa19146102c6578063d56d229d146102e45761012c565b80636f9fb98a116100f45780636f9fb98a146101d8578063715018a6146101f657806373ddccb5146102005780638da5cb5b1461021e5780639a6644a71461023c5761012c565b80630121683f1461013157806307c9cd451461014d57806355a373d614610169578063571a26a01461018757806357c90de5146101bc575b600080fd5b61014b600480360381019061014691906128c3565b6103b8565b005b61016760048036038101906101629190612869565b61078c565b005b610171610b09565b60405161017e9190612e90565b60405180910390f35b6101a1600480360381019061019c9190612869565b610b2f565b6040516101b39695949392919061327c565b60405180910390f35b6101d660048036038101906101d191906128c3565b610bb8565b005b6101e0611002565b6040516101ed91906131bc565b60405180910390f35b6101fe6110b4565b005b61020861113c565b6040516102159190612e3e565b60405180910390f35b61022661114b565b6040516102339190612dc3565b60405180910390f35b61025660048036038101906102519190612869565b611174565b005b610272600480360381019061026d9190612869565b611739565b6040516102829493929190613237565b60405180910390f35b6102a560048036038101906102a091906128c3565b611796565b005b6102af611af5565b6040516102bd929190612e60565b60405180910390f35b6102ce611b1c565b6040516102db9190612e3e565b60405180910390f35b6102ec611bd3565b6040516102f99190612eab565b60405180910390f35b61030a611bf9565b60405161031791906131bc565b60405180910390f35b61033a60048036038101906103359190612869565b611c08565b005b61035660048036038101906103519190612869565b612172565b60405161036391906131a1565b60405180910390f35b61038660048036038101906103819190612799565b61229e565b005b6103a2600480360381019061039d9190612869565b612396565b6040516103af9190613186565b60405180910390f35b600260015414156103fe576040517f08c379a00000000000000000000000000000000000000000000000000000000081526004016103f590613126565b60405180910390fd5b60026001819055503373ffffffffffffffffffffffffffffffffffffffff16600260009054906101000a900473ffffffffffffffffffffffffffffffffffffffff1673ffffffffffffffffffffffffffffffffffffffff16636352211e846040518263ffffffff1660e01b815260040161047891906131bc565b60206040518083038186803b15801561049057600080fd5b505afa1580156104a4573d6000803e3d6000fd5b505050506040513d601f19601f820116820180604052508101906104c891906127c6565b73ffffffffffffffffffffffffffffffffffffffff161461051e576040517f08c379a000000000000000000000000000000000000000000000000000000000815260040161051590612f86565b60405180910390fd5b60008111610561576040517f08c379a000000000000000000000000000000000000000000000000000000000815260040161055890613166565b60405180910390fd5b600260009054906101000a900473ffffffffffffffffffffffffffffffffffffffff1673ffffffffffffffffffffffffffffffffffffffff16634f89cea68333306040518463ffffffff1660e01b81526004016105c093929190613200565b600060405180830381600087803b1580156105da57600080fd5b505af11580156105ee573d6000803e3d6000fd5b505050506040518060c001604052808381526020013373ffffffffffffffffffffffffffffffffffffffff16815260200182815260200160008152602001600073ffffffffffffffffffffffffffffffffffffffff16815260200160001515815250600460008481526020019081526020016000206000820151816000015560208201518160010160006101000a81548173ffffffffffffffffffffffffffffffffffffffff021916908373ffffffffffffffffffffffffffffffffffffffff160217905550604082015181600201556060820151816003015560808201518160040160006101000a81548173ffffffffffffffffffffffffffffffffffffffff021916908373ffffffffffffffffffffffffffffffffffffffff16021790555060a08201518160040160146101000a81548160ff0219169083151502179055509050503373ffffffffffffffffffffffffffffffffffffffff16827f6ff530872708bbb51bad8ea341564e4ea039807ad1331f61ab4c906a66875daf8360405161077991906131bc565b60405180910390a3600180819055505050565b600260015414156107d2576040517f08c379a00000000000000000000000000000000000000000000000000000000081526004016107c990613126565b60405180910390fd5b600260018190555060006005600083815260200190815260200160002090503073ffffffffffffffffffffffffffffffffffffffff16600260009054906101000a900473ffffffffffffffffffffffffffffffffffffffff1673ffffffffffffffffffffffffffffffffffffffff16636352211e846040518263ffffffff1660e01b815260040161086391906131bc565b60206040518083038186803b15801561087b57600080fd5b505afa15801561088f573d6000803e3d6000fd5b505050506040513d601f19601f820116820180604052508101906108b391906127c6565b73ffffffffffffffffffffffffffffffffffffffff1614610909576040517f08c379a0000000000000000000000000000000000000000000000000000000008152600401610900906130e6565b60405180910390fd5b3373ffffffffffffffffffffffffffffffffffffffff168160010160009054906101000a900473ffffffffffffffffffffffffffffffffffffffff1673ffffffffffffffffffffffffffffffffffffffff161461099b576040517f08c379a000000000000000000000000000000000000000000000000000000000815260040161099290612f86565b60405180910390fd5b8060030160009054906101000a900460ff16156109ed576040517f08c379a00000000000000000000000000000000000000000000000000000000081526004016109e490613046565b60405180910390fd5b60018160030160006101000a81548160ff021916908315150217905550600260009054906101000a900473ffffffffffffffffffffffffffffffffffffffff1673ffffffffffffffffffffffffffffffffffffffff16639036c05083336040518363ffffffff1660e01b8152600401610a679291906131d7565b602060405180830381600087803b158015610a8157600080fd5b505af1158015610a95573d6000803e3d6000fd5b505050506040513d601f19601f82011682018060405250810190610ab9919061283c565b503373ffffffffffffffffffffffffffffffffffffffff16827f83cd1f5660a61dd1ba8c7e138c184aa49f5d000c3818d7d3e47678f6ccbe8f9c60405160405180910390a3506001808190555050565b600360009054906101000a900473ffffffffffffffffffffffffffffffffffffffff1681565b60046020528060005260406000206000915090508060000154908060010160009054906101000a900473ffffffffffffffffffffffffffffffffffffffff16908060020154908060030154908060040160009054906101000a900473ffffffffffffffffffffffffffffffffffffffff16908060040160149054906101000a900460ff16905086565b60026001541415610bfe576040517f08c379a0000000000000000000000000000000000000000000000000000000008152600401610bf590613126565b60405180910390fd5b600260018190555060006004600084815260200190815260200160002090508060040160149054906101000a900460ff1615610c6f576040517f08c379a0000000000000000000000000000000000000000000000000000000008152600401610c66906130a6565b60405180910390fd5b80600301548211610cb5576040517f08c379a0000000000000000000000000000000000000000000000000000000008152600401610cac90612f46565b60405180910390fd5b8060020154821015610cfc576040517f08c379a0000000000000000000000000000000000000000000000000000000008152600401610cf390612f66565b60405180910390fd5b600073ffffffffffffffffffffffffffffffffffffffff168160040160009054906101000a900473ffffffffffffffffffffffffffffffffffffffff1673ffffffffffffffffffffffffffffffffffffffff1614610e6b57600360009054906101000a900473ffffffffffffffffffffffffffffffffffffffff1673ffffffffffffffffffffffffffffffffffffffff16631b33a8db8260040160009054906101000a900473ffffffffffffffffffffffffffffffffffffffff1683600301546040518363ffffffff1660e01b8152600401610dd9929190612e15565b602060405180830381600087803b158015610df357600080fd5b505af1158015610e07573d6000803e3d6000fd5b505050506040513d601f19601f82011682018060405250810190610e2b919061283c565b610e6a576040517f08c379a0000000000000000000000000000000000000000000000000000000008152600401610e6190613106565b60405180910390fd5b5b600360009054906101000a900473ffffffffffffffffffffffffffffffffffffffff1673ffffffffffffffffffffffffffffffffffffffff1663f67ac38c3330856040518463ffffffff1660e01b8152600401610eca93929190612dde565b602060405180830381600087803b158015610ee457600080fd5b505af1158015610ef8573d6000803e3d6000fd5b505050506040513d601f19601f82011682018060405250810190610f1c919061283c565b610f5b576040517f08c379a0000000000000000000000000000000000000000000000000000000008152600401610f5290612fe6565b60405180910390fd5b818160030181905550338160040160006101000a81548173ffffffffffffffffffffffffffffffffffffffff021916908373ffffffffffffffffffffffffffffffffffffffff1602179055503373ffffffffffffffffffffffffffffffffffffffff16837f0e54eff26401bf69b81b26f60bd85ef47f5d85275c1d268d84f68d6897431c4784604051610fee91906131bc565b60405180910390a350600180819055505050565b6000600360009054906101000a900473ffffffffffffffffffffffffffffffffffffffff1673ffffffffffffffffffffffffffffffffffffffff166370a08231306040518263ffffffff1660e01b815260040161105f9190612dc3565b60206040518083038186803b15801561107757600080fd5b505afa15801561108b573d6000803e3d6000fd5b505050506040513d601f19601f820116820180604052508101906110af9190612896565b905090565b6110bc612522565b73ffffffffffffffffffffffffffffffffffffffff166110da61114b565b73ffffffffffffffffffffffffffffffffffffffff1614611130576040517f08c379a000000000000000000000000000000000000000000000000000000000815260040161112790613026565b60405180910390fd5b61113a600061252a565b565b6060611146611b1c565b905090565b60008060009054906101000a900473ffffffffffffffffffffffffffffffffffffffff16905090565b600260015414156111ba576040517f08c379a00000000000000000000000000000000000000000000000000000000081526004016111b190613126565b60405180910390fd5b600260018190555060006005600083815260200190815260200160002090508060030160009054906101000a900460ff161561122b576040517f08c379a000000000000000000000000000000000000000000000000000000000815260040161122290612fc6565b60405180910390fd5b8060010160009054906101000a900473ffffffffffffffffffffffffffffffffffffffff1673ffffffffffffffffffffffffffffffffffffffff163373ffffffffffffffffffffffffffffffffffffffff1614156112be576040517f08c379a00000000000000000000000000000000000000000000000000000000081526004016112b590613086565b60405180910390fd5b60008160020154905060008260010160009054906101000a900473ffffffffffffffffffffffffffffffffffffffff16905081600360009054906101000a900473ffffffffffffffffffffffffffffffffffffffff1673ffffffffffffffffffffffffffffffffffffffff166370a08231336040518263ffffffff1660e01b815260040161134c9190612dc3565b60206040518083038186803b15801561136457600080fd5b505afa158015611378573d6000803e3d6000fd5b505050506040513d601f19601f8201168201806040525081019061139c9190612896565b10156113dd576040517f08c379a00000000000000000000000000000000000000000000000000000000081526004016113d490613066565b60405180910390fd5b60018360030160006101000a81548160ff021916908315150217905550600360009054906101000a900473ffffffffffffffffffffffffffffffffffffffff1673ffffffffffffffffffffffffffffffffffffffff1663f67ac38c3330856040518463ffffffff1660e01b815260040161145993929190612dde565b602060405180830381600087803b15801561147357600080fd5b505af1158015611487573d6000803e3d6000fd5b505050506040513d601f19601f820116820180604052508101906114ab919061283c565b6114ea576040517f08c379a00000000000000000000000000000000000000000000000000000000081526004016114e190612fa6565b60405180910390fd5b600260009054906101000a900473ffffffffffffffffffffffffffffffffffffffff1673ffffffffffffffffffffffffffffffffffffffff16639036c05085336040518363ffffffff1660e01b81526004016115479291906131d7565b602060405180830381600087803b15801561156157600080fd5b505af1158015611575573d6000803e3d6000fd5b505050506040513d601f19601f82011682018060405250810190611599919061283c565b6115d8576040517f08c379a00000000000000000000000000000000000000000000000000000000081526004016115cf906130c6565b60405180910390fd5b600360009054906101000a900473ffffffffffffffffffffffffffffffffffffffff1673ffffffffffffffffffffffffffffffffffffffff16631b33a8db82846040518363ffffffff1660e01b8152600401611635929190612e15565b602060405180830381600087803b15801561164f57600080fd5b505af1158015611663573d6000803e3d6000fd5b505050506040513d601f19601f82011682018060405250810190611687919061283c565b6116c6576040517f08c379a00000000000000000000000000000000000000000000000000000000081526004016116bd90613146565b60405180910390fd5b3373ffffffffffffffffffffffffffffffffffffffff168173ffffffffffffffffffffffffffffffffffffffff16857f941afdcf08abb4015f6e843f6084fa42396d6720a4d250813184c8d875085fb28560405161172491906131bc565b60405180910390a45050506001808190555050565b60056020528060005260406000206000915090508060000154908060010160009054906101000a900473ffffffffffffffffffffffffffffffffffffffff16908060020154908060030160009054906101000a900460ff16905084565b600260015414156117dc576040517f08c379a00000000000000000000000000000000000000000000000000000000081526004016117d390613126565b60405180910390fd5b60026001819055503373ffffffffffffffffffffffffffffffffffffffff16600260009054906101000a900473ffffffffffffffffffffffffffffffffffffffff1673ffffffffffffffffffffffffffffffffffffffff16636352211e846040518263ffffffff1660e01b815260040161185691906131bc565b60206040518083038186803b15801561186e57600080fd5b505afa158015611882573d6000803e3d6000fd5b505050506040513d601f19601f820116820180604052508101906118a691906127c6565b73ffffffffffffffffffffffffffffffffffffffff16146118fc576040517f08c379a00000000000000000000000000000000000000000000000000000000081526004016118f390612f86565b60405180910390fd5b6000811161193f576040517f08c379a000000000000000000000000000000000000000000000000000000000815260040161193690612f06565b60405180910390fd5b600260009054906101000a900473ffffffffffffffffffffffffffffffffffffffff1673ffffffffffffffffffffffffffffffffffffffff16634f89cea68333306040518463ffffffff1660e01b815260040161199e93929190613200565b600060405180830381600087803b1580156119b857600080fd5b505af11580156119cc573d6000803e3d6000fd5b5050505060405180608001604052808381526020013373ffffffffffffffffffffffffffffffffffffffff16815260200182815260200160001515815250600560008481526020019081526020016000206000820151816000015560208201518160010160006101000a81548173ffffffffffffffffffffffffffffffffffffffff021916908373ffffffffffffffffffffffffffffffffffffffff1602179055506040820151816002015560608201518160030160006101000a81548160ff0219169083151502179055509050503373ffffffffffffffffffffffffffffffffffffffff16827ffad9d47b108f1b2b6057bbb319d748fe40813edb424d8dd7410f458db370f50383604051611ae291906131bc565b60405180910390a3600180819055505050565b6060600080611b0261113c565b90506000611b0e611bf9565b905081819350935050509091565b6060600260009054906101000a900473ffffffffffffffffffffffffffffffffffffffff1673ffffffffffffffffffffffffffffffffffffffff1663e6b1fa2a306040518263ffffffff1660e01b8152600401611b799190612dc3565b60006040518083038186803b158015611b9157600080fd5b505afa158015611ba5573d6000803e3d6000fd5b505050506040513d6000823e3d601f19601f82011682018060405250810190611bce91906127f3565b905090565b600260009054906101000a900473ffffffffffffffffffffffffffffffffffffffff1681565b6000611c03611002565b905090565b611c10612522565b73ffffffffffffffffffffffffffffffffffffffff16611c2e61114b565b73ffffffffffffffffffffffffffffffffffffffff1614611c84576040517f08c379a0000000000000000000000000000000000000000000000000000000008152600401611c7b90613026565b60405180910390fd5b60026001541415611cca576040517f08c379a0000000000000000000000000000000000000000000000000000000008152600401611cc190613126565b60405180910390fd5b600260018190555060006004600083815260200190815260200160002090508060040160149054906101000a900460ff1615611d3b576040517f08c379a0000000000000000000000000000000000000000000000000000000008152600401611d32906130a6565b60405180910390fd5b60018160040160146101000a81548160ff021916908315150217905550600073ffffffffffffffffffffffffffffffffffffffff168160040160009054906101000a900473ffffffffffffffffffffffffffffffffffffffff1673ffffffffffffffffffffffffffffffffffffffff161461205457600260009054906101000a900473ffffffffffffffffffffffffffffffffffffffff1673ffffffffffffffffffffffffffffffffffffffff16639036c050838360040160009054906101000a900473ffffffffffffffffffffffffffffffffffffffff166040518363ffffffff1660e01b8152600401611e319291906131d7565b602060405180830381600087803b158015611e4b57600080fd5b505af1158015611e5f573d6000803e3d6000fd5b505050506040513d601f19601f82011682018060405250810190611e83919061283c565b611ec2576040517f08c379a0000000000000000000000000000000000000000000000000000000008152600401611eb9906130c6565b60405180910390fd5b600360009054906101000a900473ffffffffffffffffffffffffffffffffffffffff1673ffffffffffffffffffffffffffffffffffffffff16631b33a8db8260010160009054906101000a900473ffffffffffffffffffffffffffffffffffffffff1683600301546040518363ffffffff1660e01b8152600401611f47929190612e15565b602060405180830381600087803b158015611f6157600080fd5b505af1158015611f75573d6000803e3d6000fd5b505050506040513d601f19601f82011682018060405250810190611f99919061283c565b611fd8576040517f08c379a0000000000000000000000000000000000000000000000000000000008152600401611fcf90613006565b60405180910390fd5b8060040160009054906101000a900473ffffffffffffffffffffffffffffffffffffffff1673ffffffffffffffffffffffffffffffffffffffff16827f4d9113a1377d665eaa1f9168a9c9080f2e488cb820b10149de3d6d2e0f2780c7836003015460405161204791906131bc565b60405180910390a3612167565b600260009054906101000a900473ffffffffffffffffffffffffffffffffffffffff1673ffffffffffffffffffffffffffffffffffffffff16639036c050838360010160009054906101000a900473ffffffffffffffffffffffffffffffffffffffff166040518363ffffffff1660e01b81526004016120d59291906131d7565b602060405180830381600087803b1580156120ef57600080fd5b505af1158015612103573d6000803e3d6000fd5b505050506040513d601f19601f82011682018060405250810190612127919061283c565b612166576040517f08c379a000000000000000000000000000000000000000000000000000000000815260040161215d906130c6565b60405180910390fd5b5b506001808190555050565b61217a6125ee565b600060056000848152602001908152602001600020604051806080016040529081600082015481526020016001820160009054906101000a900473ffffffffffffffffffffffffffffffffffffffff1673ffffffffffffffffffffffffffffffffffffffff1673ffffffffffffffffffffffffffffffffffffffff168152602001600282015481526020016003820160009054906101000a900460ff1615151515815250509050600073ffffffffffffffffffffffffffffffffffffffff16816020015173ffffffffffffffffffffffffffffffffffffffff161415612295576040517f08c379a000000000000000000000000000000000000000000000000000000000815260040161228c90612ec6565b60405180910390fd5b80915050919050565b6122a6612522565b73ffffffffffffffffffffffffffffffffffffffff166122c461114b565b73ffffffffffffffffffffffffffffffffffffffff161461231a576040517f08c379a000000000000000000000000000000000000000000000000000000000815260040161231190613026565b60405180910390fd5b600073ffffffffffffffffffffffffffffffffffffffff168173ffffffffffffffffffffffffffffffffffffffff16141561238a576040517f08c379a000000000000000000000000000000000000000000000000000000000815260040161238190612f26565b60405180910390fd5b6123938161252a565b50565b61239e61262e565b6000600460008481526020019081526020016000206040518060c0016040529081600082015481526020016001820160009054906101000a900473ffffffffffffffffffffffffffffffffffffffff1673ffffffffffffffffffffffffffffffffffffffff1673ffffffffffffffffffffffffffffffffffffffff16815260200160028201548152602001600382015481526020016004820160009054906101000a900473ffffffffffffffffffffffffffffffffffffffff1673ffffffffffffffffffffffffffffffffffffffff1673ffffffffffffffffffffffffffffffffffffffff1681526020016004820160149054906101000a900460ff1615151515815250509050600073ffffffffffffffffffffffffffffffffffffffff16816020015173ffffffffffffffffffffffffffffffffffffffff161415612519576040517f08c379a000000000000000000000000000000000000000000000000000000000815260040161251090612ee6565b60405180910390fd5b80915050919050565b600033905090565b60008060009054906101000a900473ffffffffffffffffffffffffffffffffffffffff169050816000806101000a81548173ffffffffffffffffffffffffffffffffffffffff021916908373ffffffffffffffffffffffffffffffffffffffff1602179055508173ffffffffffffffffffffffffffffffffffffffff168173ffffffffffffffffffffffffffffffffffffffff167f8be0079c531659141344cd1fd0a4f28419497f9722a3daafe3b4186f6b6457e060405160405180910390a35050565b604051806080016040528060008152602001600073ffffffffffffffffffffffffffffffffffffffff168152602001600081526020016000151581525090565b6040518060c0016040528060008152602001600073ffffffffffffffffffffffffffffffffffffffff1681526020016000815260200160008152602001600073ffffffffffffffffffffffffffffffffffffffff1681526020016000151581525090565b60006126a56126a084613302565b6132dd565b905080838252602082019050828560208602820111156126c8576126c761346d565b5b60005b858110156126f857816126de8882612784565b8452602084019350602083019250506001810190506126cb565b5050509392505050565b600081359050612711816138d1565b92915050565b600081519050612726816138d1565b92915050565b600082601f83011261274157612740613468565b5b8151612751848260208601612692565b91505092915050565b600081519050612769816138e8565b92915050565b60008135905061277e816138ff565b92915050565b600081519050612793816138ff565b92915050565b6000602082840312156127af576127ae613477565b5b60006127bd84828501612702565b91505092915050565b6000602082840312156127dc576127db613477565b5b60006127ea84828501612717565b91505092915050565b60006020828403121561280957612808613477565b5b600082015167ffffffffffffffff81111561282757612826613472565b5b6128338482850161272c565b91505092915050565b60006020828403121561285257612851613477565b5b60006128608482850161275a565b91505092915050565b60006020828403121561287f5761287e613477565b5b600061288d8482850161276f565b91505092915050565b6000602082840312156128ac576128ab613477565b5b60006128ba84828501612784565b91505092915050565b600080604083850312156128da576128d9613477565b5b60006128e88582860161276f565b92505060206128f98582860161276f565b9150509250929050565b600061290f8383612da5565b60208301905092915050565b61292481613378565b82525050565b61293381613378565b82525050565b60006129448261333e565b61294e8185613356565b93506129598361332e565b8060005b8381101561298a5781516129718882612903565b975061297c83613349565b92505060018101905061295d565b5085935050505092915050565b6129a08161338a565b82525050565b6129af8161338a565b82525050565b6129be816133c0565b82525050565b6129cd816133d2565b82525050565b60006129e0602083613367565b91506129eb8261348d565b602082019050919050565b6000612a03602383613367565b9150612a0e826134b6565b604082019050919050565b6000612a26601f83613367565b9150612a3182613505565b602082019050919050565b6000612a49602683613367565b9150612a548261352e565b604082019050919050565b6000612a6c602b83613367565b9150612a778261357d565b604082019050919050565b6000612a8f602783613367565b9150612a9a826135cc565b604082019050919050565b6000612ab2601683613367565b9150612abd8261361b565b602082019050919050565b6000612ad5601583613367565b9150612ae082613644565b602082019050919050565b6000612af8601d83613367565b9150612b038261366d565b602082019050919050565b6000612b1b601383613367565b9150612b2682613696565b602082019050919050565b6000612b3e601983613367565b9150612b49826136bf565b602082019050919050565b6000612b61602083613367565b9150612b6c826136e8565b602082019050919050565b6000612b84601d83613367565b9150612b8f82613711565b602082019050919050565b6000612ba7601a83613367565b9150612bb28261373a565b602082019050919050565b6000612bca601a83613367565b9150612bd582613763565b602082019050919050565b6000612bed601b83613367565b9150612bf88261378c565b602082019050919050565b6000612c10601383613367565b9150612c1b826137b5565b602082019050919050565b6000612c33601183613367565b9150612c3e826137de565b602082019050919050565b6000612c56601683613367565b9150612c6182613807565b602082019050919050565b6000612c79601f83613367565b9150612c8482613830565b602082019050919050565b6000612c9c601f83613367565b9150612ca782613859565b602082019050919050565b6000612cbf602883613367565b9150612cca82613882565b604082019050919050565b60c082016000820151612ceb6000850182612da5565b506020820151612cfe602085018261291b565b506040820151612d116040850182612da5565b506060820151612d246060850182612da5565b506080820151612d37608085018261291b565b5060a0820151612d4a60a0850182612997565b50505050565b608082016000820151612d666000850182612da5565b506020820151612d79602085018261291b565b506040820151612d8c6040850182612da5565b506060820151612d9f6060850182612997565b50505050565b612dae816133b6565b82525050565b612dbd816133b6565b82525050565b6000602082019050612dd8600083018461292a565b92915050565b6000606082019050612df3600083018661292a565b612e00602083018561292a565b612e0d6040830184612db4565b949350505050565b6000604082019050612e2a600083018561292a565b612e376020830184612db4565b9392505050565b60006020820190508181036000830152612e588184612939565b905092915050565b60006040820190508181036000830152612e7a8185612939565b9050612e896020830184612db4565b9392505050565b6000602082019050612ea560008301846129b5565b92915050565b6000602082019050612ec060008301846129c4565b92915050565b60006020820190508181036000830152612edf816129d3565b9050919050565b60006020820190508181036000830152612eff816129f6565b9050919050565b60006020820190508181036000830152612f1f81612a19565b9050919050565b60006020820190508181036000830152612f3f81612a3c565b9050919050565b60006020820190508181036000830152612f5f81612a5f565b9050919050565b60006020820190508181036000830152612f7f81612a82565b9050919050565b60006020820190508181036000830152612f9f81612aa5565b9050919050565b60006020820190508181036000830152612fbf81612ac8565b9050919050565b60006020820190508181036000830152612fdf81612aeb565b9050919050565b60006020820190508181036000830152612fff81612b0e565b9050919050565b6000602082019050818103600083015261301f81612b31565b9050919050565b6000602082019050818103600083015261303f81612b54565b9050919050565b6000602082019050818103600083015261305f81612b77565b9050919050565b6000602082019050818103600083015261307f81612b9a565b9050919050565b6000602082019050818103600083015261309f81612bbd565b9050919050565b600060208201905081810360008301526130bf81612be0565b9050919050565b600060208201905081810360008301526130df81612c03565b9050919050565b600060208201905081810360008301526130ff81612c26565b9050919050565b6000602082019050818103600083015261311f81612c49565b9050919050565b6000602082019050818103600083015261313f81612c6c565b9050919050565b6000602082019050818103600083015261315f81612c8f565b9050919050565b6000602082019050818103600083015261317f81612cb2565b9050919050565b600060c08201905061319b6000830184612cd5565b92915050565b60006080820190506131b66000830184612d50565b92915050565b60006020820190506131d16000830184612db4565b92915050565b60006040820190506131ec6000830185612db4565b6131f9602083018461292a565b9392505050565b60006060820190506132156000830186612db4565b613222602083018561292a565b61322f604083018461292a565b949350505050565b600060808201905061324c6000830187612db4565b613259602083018661292a565b6132666040830185612db4565b61327360608301846129a6565b95945050505050565b600060c0820190506132916000830189612db4565b61329e602083018861292a565b6132ab6040830187612db4565b6132b86060830186612db4565b6132c5608083018561292a565b6132d260a08301846129a6565b979650505050505050565b60006132e76132f8565b90506132f38282613408565b919050565b6000604051905090565b600067ffffffffffffffff82111561331d5761331c613439565b5b602082029050602081019050919050565b6000819050602082019050919050565b600081519050919050565b6000602082019050919050565b600082825260208201905092915050565b600082825260208201905092915050565b600061338382613396565b9050919050565b60008115159050919050565b600073ffffffffffffffffffffffffffffffffffffffff82169050919050565b6000819050919050565b60006133cb826133e4565b9050919050565b60006133dd826133e4565b9050919050565b60006133ef826133f6565b9050919050565b600061340182613396565b9050919050565b6134118261347c565b810181811067ffffffffffffffff821117156134305761342f613439565b5b80604052505050565b7f4e487b7100000000000000000000000000000000000000000000000000000000600052604160045260246000fd5b600080fd5b600080fd5b600080fd5b600080fd5b6000601f19601f8301169050919050565b7f53656c6c20646f6573206e6f7420657869737420666f722074686973204e4654600082015250565b7f41756374696f6e20646f6573206e6f7420657869737420666f7220746869732060008201527f4e46540000000000000000000000000000000000000000000000000000000000602082015250565b7f5072696365206d7573742062652067726561746572207468616e207a65726f00600082015250565b7f4f776e61626c653a206e6577206f776e657220697320746865207a65726f206160008201527f6464726573730000000000000000000000000000000000000000000000000000602082015250565b7f426964206d75737420626520686967686572207468616e2063757272656e742060008201527f6869676865737420626964000000000000000000000000000000000000000000602082015250565b7f426964206d757374206265206174206c6561737420746865207374617274696e60008201527f6720707269636500000000000000000000000000000000000000000000000000602082015250565b7f596f7520646f6e2774206f776e2074686973204e465400000000000000000000600082015250565b7f546f6b656e207472616e73666572206661696c65640000000000000000000000600082015250565b7f546869732073616c6520697320616c72656164792066696e6973686564000000600082015250565b7f426964207472616e73666572206661696c656400000000000000000000000000600082015250565b7f5472616e7366657220746f2073656c6c6572206661696c656400000000000000600082015250565b7f4f776e61626c653a2063616c6c6572206973206e6f7420746865206f776e6572600082015250565b7f546869732053656c6c20697320616c72656164792066696e6973686564000000600082015250565b7f496e73756666696369656e7420746f6b656e2062616c616e6365000000000000600082015250565b7f596f752063616e27742062757920796f7572206f776e204e4654000000000000600082015250565b7f41756374696f6e20697320616c72656164792066696e69736865640000000000600082015250565b7f4e4654207472616e73666572206661696c656400000000000000000000000000600082015250565b7f4e4654206e6f7420696e206d61726b6574000000000000000000000000000000600082015250565b7f526566756e64207472616e73666572206661696c656400000000000000000000600082015250565b7f5265656e7472616e637947756172643a207265656e7472616e742063616c6c00600082015250565b7f546f6b656e207472616e7366657220746f2073656c6c6572206661696c656400600082015250565b7f5374617274696e67207072696365206d7573742062652067726561746572207460008201527f68616e207a65726f000000000000000000000000000000000000000000000000602082015250565b6138da81613378565b81146138e557600080fd5b50565b6138f18161338a565b81146138fc57600080fd5b50565b613908816133b6565b811461391357600080fd5b5056fea26469706673582212206eb34b88a66d6343b2d7f0f80e56f13c819d1d8cf63b85e78943eb5be32c13ef64736f6c63430008070033",
  "immutableReferences": {},
  "source": "// SPDX-License-Identifier: MIT\r\npragma solidity ^0.8.7;\r\n\r\nimport \"./Auction.sol\";\r\nimport \"./Market.sol\";\r\nimport \"./Base.sol\";\r\n\r\ncontract IntegratedNFTSystem is NFTAuction, NFTMarket {\r\n    constructor(address _nftContractAddress, address _tokenContractAddress) {\r\n        initializeContracts(_nftContractAddress, _tokenContractAddress);\r\n        nftContract.setMainContractAddress(address(this));\r\n        tokenContract.setMainContractAddress(address(this));\r\n    }\r\n\r\n    function getAllContractOwnedNFTs() public view returns (uint256[] memory) {\r\n        return getContractOwnedNFTs();\r\n    }\r\n\r\n    function getTotalContractBalance() public view returns (uint256) {\r\n        return getContractBalance();\r\n    }\r\n\r\n    function getCombinedOwnedAssets() public view returns (uint256[] memory nftIds, uint256 totalCoins) {\r\n        uint256[] memory allNFTs = getAllContractOwnedNFTs();\r\n        uint256 totalBalance = getTotalContractBalance();\r\n\r\n        return (allNFTs, totalBalance);\r\n    }\r\n}",
  "sourcePath": "C:\\Users\\SSAFY\\Desktop\\semonemo\\backend\\blockchain-server\\smartcontract\\contracts\\System.sol",
  "compiler": {
    "name": "solc",
    "version": "0.8.7+commit.e28d00a7.Emscripten.clang"
  },
  "schemaVersion": "3.4.16",
  "updatedAt": "2024-09-14T16:49:44.751Z",
  "networkType": "ethereum",
  "devdoc": {
    "kind": "dev",
    "methods": {
      "owner()": {
        "details": "Returns the address of the current owner."
      },
      "renounceOwnership()": {
        "details": "Leaves the contract without owner. It will not be possible to call `onlyOwner` functions anymore. Can only be called by the current owner. NOTE: Renouncing ownership will leave the contract without an owner, thereby removing any functionality that is only available to the owner."
      },
      "transferOwnership(address)": {
        "details": "Transfers ownership of the contract to a new account (`newOwner`). Can only be called by the current owner."
      }
    },
    "version": 1
  },
  "userdoc": {
    "kind": "user",
    "methods": {},
    "version": 1
  }
}