{
  "contractName": "IntegratedNFTSystem",
  "abi": [
    {
      "inputs": [
        {
          "internalType": "address",
          "name": "_nftContractAddress",
          "type": "address"
        },
        {
          "internalType": "address",
          "name": "_tokenContractAddress",
          "type": "address"
        }
      ],
      "stateMutability": "nonpayable",
      "type": "constructor"
    },
    {
      "anonymous": false,
      "inputs": [
        {
          "indexed": true,
          "internalType": "uint256",
          "name": "nftId",
          "type": "uint256"
        },
        {
          "indexed": true,
          "internalType": "address",
          "name": "seller",
          "type": "address"
        }
      ],
      "name": "AuctionCancelled",
      "type": "event"
    },
    {
      "anonymous": false,
      "inputs": [
        {
          "indexed": true,
          "internalType": "uint256",
          "name": "nftId",
          "type": "uint256"
        },
        {
          "indexed": true,
          "internalType": "address",
          "name": "seller",
          "type": "address"
        },
        {
          "indexed": true,
          "internalType": "address",
          "name": "buyer",
          "type": "address"
        },
        {
          "indexed": false,
          "internalType": "uint256",
          "name": "price",
          "type": "uint256"
        }
      ],
      "name": "AuctionClosed",
      "type": "event"
    },
    {
      "anonymous": false,
      "inputs": [
        {
          "indexed": true,
          "internalType": "uint256",
          "name": "nftId",
          "type": "uint256"
        },
        {
          "indexed": true,
          "internalType": "address",
          "name": "seller",
          "type": "address"
        }
      ],
      "name": "AuctionStarted",
      "type": "event"
    },
    {
      "anonymous": false,
      "inputs": [
        {
          "indexed": true,
          "internalType": "address",
          "name": "from",
          "type": "address"
        },
        {
          "indexed": true,
          "internalType": "address",
          "name": "to",
          "type": "address"
        },
        {
          "indexed": false,
          "internalType": "uint256",
          "name": "amount",
          "type": "uint256"
        },
        {
          "indexed": false,
          "internalType": "uint256",
          "name": "fromBalance",
          "type": "uint256"
        },
        {
          "indexed": false,
          "internalType": "uint256",
          "name": "toBalance",
          "type": "uint256"
        }
      ],
      "name": "BalanceAdjusted",
      "type": "event"
    },
    {
      "anonymous": false,
      "inputs": [
        {
          "indexed": true,
          "internalType": "address",
          "name": "from",
          "type": "address"
        },
        {
          "indexed": true,
          "internalType": "address",
          "name": "to",
          "type": "address"
        },
        {
          "indexed": false,
          "internalType": "uint256",
          "name": "amount",
          "type": "uint256"
        },
        {
          "indexed": false,
          "internalType": "uint256",
          "name": "fromBalance",
          "type": "uint256"
        },
        {
          "indexed": false,
          "internalType": "uint256",
          "name": "toBalance",
          "type": "uint256"
        }
      ],
      "name": "BalanceTransferred",
      "type": "event"
    },
    {
      "anonymous": false,
      "inputs": [
        {
          "indexed": true,
          "internalType": "address",
          "name": "user",
          "type": "address"
        },
        {
          "indexed": false,
          "internalType": "uint256",
          "name": "amount",
          "type": "uint256"
        },
        {
          "indexed": false,
          "internalType": "uint256",
          "name": "coinBalance",
          "type": "uint256"
        },
        {
          "indexed": false,
          "internalType": "uint256",
          "name": "payableBalance",
          "type": "uint256"
        }
      ],
      "name": "Deposit",
      "type": "event"
    },
    {
      "anonymous": false,
      "inputs": [
        {
          "indexed": true,
          "internalType": "uint256",
          "name": "nftId",
          "type": "uint256"
        },
        {
          "indexed": true,
          "internalType": "address",
          "name": "seller",
          "type": "address"
        }
      ],
      "name": "MarketCancelled",
      "type": "event"
    },
    {
      "anonymous": false,
      "inputs": [
        {
          "indexed": true,
          "internalType": "uint256",
          "name": "nftId",
          "type": "uint256"
        },
        {
          "indexed": true,
          "internalType": "address",
          "name": "seller",
          "type": "address"
        },
        {
          "indexed": false,
          "internalType": "uint256",
          "name": "price",
          "type": "uint256"
        }
      ],
      "name": "MarketCreated",
      "type": "event"
    },
    {
      "anonymous": false,
      "inputs": [
        {
          "indexed": true,
          "internalType": "uint256",
          "name": "nftId",
          "type": "uint256"
        },
        {
          "indexed": true,
          "internalType": "address",
          "name": "seller",
          "type": "address"
        },
        {
          "indexed": true,
          "internalType": "address",
          "name": "buyer",
          "type": "address"
        },
        {
          "indexed": false,
          "internalType": "uint256",
          "name": "price",
          "type": "uint256"
        }
      ],
      "name": "MarketSold",
      "type": "event"
    },
    {
      "anonymous": false,
      "inputs": [
        {
          "indexed": true,
          "internalType": "address",
          "name": "previousOwner",
          "type": "address"
        },
        {
          "indexed": true,
          "internalType": "address",
          "name": "newOwner",
          "type": "address"
        }
      ],
      "name": "OwnershipTransferred",
      "type": "event"
    },
    {
      "anonymous": false,
      "inputs": [
        {
          "indexed": true,
          "internalType": "uint256",
          "name": "tradeId",
          "type": "uint256"
        },
        {
          "indexed": false,
          "internalType": "address",
          "name": "from",
          "type": "address"
        },
        {
          "indexed": false,
          "internalType": "address",
          "name": "to",
          "type": "address"
        },
        {
          "indexed": false,
          "internalType": "uint256",
          "name": "amount",
          "type": "uint256"
        },
        {
          "indexed": false,
          "internalType": "uint256",
          "name": "timestamp",
          "type": "uint256"
        },
        {
          "indexed": false,
          "internalType": "uint256",
          "name": "fromBalance",
          "type": "uint256"
        },
        {
          "indexed": false,
          "internalType": "uint256",
          "name": "toBalance",
          "type": "uint256"
        }
      ],
      "name": "TradeRecorded",
      "type": "event"
    },
    {
      "anonymous": false,
      "inputs": [
        {
          "indexed": true,
          "internalType": "address",
          "name": "user",
          "type": "address"
        },
        {
          "indexed": false,
          "internalType": "uint256",
          "name": "amount",
          "type": "uint256"
        },
        {
          "indexed": false,
          "internalType": "uint256",
          "name": "coinBalance",
          "type": "uint256"
        },
        {
          "indexed": false,
          "internalType": "uint256",
          "name": "payableBalance",
          "type": "uint256"
        }
      ],
      "name": "Withdrawal",
      "type": "event"
    },
    {
      "inputs": [
        {
          "internalType": "uint256",
          "name": "",
          "type": "uint256"
        }
      ],
      "name": "auctions",
      "outputs": [
        {
          "internalType": "uint256",
          "name": "nftId",
          "type": "uint256"
        },
        {
          "internalType": "address",
          "name": "seller",
          "type": "address"
        }
      ],
      "stateMutability": "view",
      "type": "function",
      "constant": true
    },
    {
      "inputs": [
        {
          "internalType": "uint256",
          "name": "_nftId",
          "type": "uint256"
        }
      ],
      "name": "buyMarket",
      "outputs": [],
      "stateMutability": "nonpayable",
      "type": "function"
    },
    {
      "inputs": [
        {
          "internalType": "uint256",
          "name": "_nftId",
          "type": "uint256"
        }
      ],
      "name": "cancelAuction",
      "outputs": [],
      "stateMutability": "nonpayable",
      "type": "function"
    },
    {
      "inputs": [
        {
          "internalType": "uint256",
          "name": "_nftId",
          "type": "uint256"
        }
      ],
      "name": "cancelMarket",
      "outputs": [],
      "stateMutability": "nonpayable",
      "type": "function"
    },
    {
      "inputs": [
        {
          "internalType": "uint256",
          "name": "_nftId",
          "type": "uint256"
        },
        {
          "internalType": "address",
          "name": "buyer",
          "type": "address"
        },
        {
          "internalType": "uint256",
          "name": "amount",
          "type": "uint256"
        }
      ],
      "name": "closeAuction",
      "outputs": [],
      "stateMutability": "nonpayable",
      "type": "function"
    },
    {
      "inputs": [
        {
          "internalType": "uint256",
          "name": "_nftId",
          "type": "uint256"
        },
        {
          "internalType": "uint256",
          "name": "price",
          "type": "uint256"
        }
      ],
      "name": "createMarket",
      "outputs": [],
      "stateMutability": "nonpayable",
      "type": "function"
    },
    {
      "inputs": [
        {
          "internalType": "uint256",
          "name": "amount",
          "type": "uint256"
        }
      ],
      "name": "deposit",
      "outputs": [],
      "stateMutability": "nonpayable",
      "type": "function"
    },
    {
      "inputs": [
        {
          "internalType": "uint256",
          "name": "_nftId",
          "type": "uint256"
        }
      ],
      "name": "getAuctionInfo",
      "outputs": [
        {
          "components": [
            {
              "internalType": "uint256",
              "name": "nftId",
              "type": "uint256"
            },
            {
              "internalType": "address",
              "name": "seller",
              "type": "address"
            }
          ],
          "internalType": "struct NFTAuction.Auction",
          "name": "",
          "type": "tuple"
        }
      ],
      "stateMutability": "view",
      "type": "function",
      "constant": true
    },
    {
      "inputs": [],
      "name": "getContractBalance",
      "outputs": [
        {
          "internalType": "uint256",
          "name": "",
          "type": "uint256"
        }
      ],
      "stateMutability": "view",
      "type": "function",
      "constant": true
    },
    {
      "inputs": [],
      "name": "getContractOwnedNFTs",
      "outputs": [
        {
          "internalType": "uint256[]",
          "name": "",
          "type": "uint256[]"
        }
      ],
      "stateMutability": "view",
      "type": "function",
      "constant": true
    },
    {
      "inputs": [
        {
          "internalType": "uint256",
          "name": "_nftId",
          "type": "uint256"
        }
      ],
      "name": "getMarketInfo",
      "outputs": [
        {
          "components": [
            {
              "internalType": "uint256",
              "name": "nftId",
              "type": "uint256"
            },
            {
              "internalType": "address",
              "name": "seller",
              "type": "address"
            },
            {
              "internalType": "uint256",
              "name": "price",
              "type": "uint256"
            }
          ],
          "internalType": "struct NFTMarket.Market",
          "name": "",
          "type": "tuple"
        }
      ],
      "stateMutability": "view",
      "type": "function",
      "constant": true
    },
    {
      "inputs": [
        {
          "internalType": "uint256",
          "name": "_tradeId",
          "type": "uint256"
        }
      ],
      "name": "getTradeInfo",
      "outputs": [
        {
          "components": [
            {
              "internalType": "address",
              "name": "from",
              "type": "address"
            },
            {
              "internalType": "address",
              "name": "to",
              "type": "address"
            },
            {
              "internalType": "uint256",
              "name": "amount",
              "type": "uint256"
            },
            {
              "internalType": "uint256",
              "name": "timestamp",
              "type": "uint256"
            }
          ],
          "internalType": "struct TradeBase.TradeInfo",
          "name": "",
          "type": "tuple"
        }
      ],
      "stateMutability": "view",
      "type": "function",
      "constant": true
    },
    {
      "inputs": [
        {
          "internalType": "address",
          "name": "user",
          "type": "address"
        },
        {
          "internalType": "uint256",
          "name": "page",
          "type": "uint256"
        },
        {
          "internalType": "uint256",
          "name": "size",
          "type": "uint256"
        }
      ],
      "name": "getTradesByAddress",
      "outputs": [
        {
          "components": [
            {
              "components": [
                {
                  "internalType": "address",
                  "name": "from",
                  "type": "address"
                },
                {
                  "internalType": "address",
                  "name": "to",
                  "type": "address"
                },
                {
                  "internalType": "uint256",
                  "name": "amount",
                  "type": "uint256"
                },
                {
                  "internalType": "uint256",
                  "name": "timestamp",
                  "type": "uint256"
                }
              ],
              "internalType": "struct TradeBase.TradeInfo[]",
              "name": "trades",
              "type": "tuple[]"
            },
            {
              "internalType": "uint256",
              "name": "totalTrades",
              "type": "uint256"
            },
            {
              "internalType": "bool",
              "name": "hasNext",
              "type": "bool"
            }
          ],
          "internalType": "struct TradeBase.TradeResult",
          "name": "",
          "type": "tuple"
        }
      ],
      "stateMutability": "view",
      "type": "function",
      "constant": true
    },
    {
      "inputs": [
        {
          "internalType": "address",
          "name": "user",
          "type": "address"
        }
      ],
      "name": "getUserBalance",
      "outputs": [
        {
          "internalType": "uint256",
          "name": "",
          "type": "uint256"
        }
      ],
      "stateMutability": "view",
      "type": "function",
      "constant": true
    },
    {
      "inputs": [
        {
          "internalType": "uint256",
          "name": "",
          "type": "uint256"
        }
      ],
      "name": "markets",
      "outputs": [
        {
          "internalType": "uint256",
          "name": "nftId",
          "type": "uint256"
        },
        {
          "internalType": "address",
          "name": "seller",
          "type": "address"
        },
        {
          "internalType": "uint256",
          "name": "price",
          "type": "uint256"
        }
      ],
      "stateMutability": "view",
      "type": "function",
      "constant": true
    },
    {
      "inputs": [],
      "name": "nftContract",
      "outputs": [
        {
          "internalType": "contract NFTFrame",
          "name": "",
          "type": "address"
        }
      ],
      "stateMutability": "view",
      "type": "function",
      "constant": true
    },
    {
      "inputs": [],
      "name": "owner",
      "outputs": [
        {
          "internalType": "address",
          "name": "",
          "type": "address"
        }
      ],
      "stateMutability": "view",
      "type": "function",
      "constant": true
    },
    {
      "inputs": [],
      "name": "renounceOwnership",
      "outputs": [],
      "stateMutability": "nonpayable",
      "type": "function"
    },
    {
      "inputs": [
        {
          "internalType": "uint256",
          "name": "_nftId",
          "type": "uint256"
        }
      ],
      "name": "startAuction",
      "outputs": [],
      "stateMutability": "nonpayable",
      "type": "function"
    },
    {
      "inputs": [],
      "name": "tokenContract",
      "outputs": [
        {
          "internalType": "contract AhoraCoin",
          "name": "",
          "type": "address"
        }
      ],
      "stateMutability": "view",
      "type": "function",
      "constant": true
    },
    {
      "inputs": [],
      "name": "tradeId",
      "outputs": [
        {
          "internalType": "uint256",
          "name": "",
          "type": "uint256"
        }
      ],
      "stateMutability": "view",
      "type": "function",
      "constant": true
    },
    {
      "inputs": [
        {
          "internalType": "uint256",
          "name": "",
          "type": "uint256"
        }
      ],
      "name": "trades",
      "outputs": [
        {
          "internalType": "address",
          "name": "from",
          "type": "address"
        },
        {
          "internalType": "address",
          "name": "to",
          "type": "address"
        },
        {
          "internalType": "uint256",
          "name": "amount",
          "type": "uint256"
        },
        {
          "internalType": "uint256",
          "name": "timestamp",
          "type": "uint256"
        }
      ],
      "stateMutability": "view",
      "type": "function",
      "constant": true
    },
    {
      "inputs": [
        {
          "internalType": "address",
          "name": "to",
          "type": "address"
        },
        {
          "internalType": "uint256",
          "name": "amount",
          "type": "uint256"
        }
      ],
      "name": "transferBalance",
      "outputs": [],
      "stateMutability": "nonpayable",
      "type": "function"
    },
    {
      "inputs": [
        {
          "internalType": "address",
          "name": "from",
          "type": "address"
        },
        {
          "internalType": "address",
          "name": "to",
          "type": "address"
        },
        {
          "internalType": "uint256",
          "name": "amount",
          "type": "uint256"
        }
      ],
      "name": "transferBalanceByAdmin",
      "outputs": [],
      "stateMutability": "nonpayable",
      "type": "function"
    },
    {
      "inputs": [
        {
          "internalType": "address",
          "name": "newOwner",
          "type": "address"
        }
      ],
      "name": "transferOwnership",
      "outputs": [],
      "stateMutability": "nonpayable",
      "type": "function"
    },
    {
      "inputs": [
        {
          "internalType": "uint256",
          "name": "amount",
          "type": "uint256"
        }
      ],
      "name": "withdraw",
      "outputs": [],
      "stateMutability": "nonpayable",
      "type": "function"
    },
    {
      "inputs": [],
      "name": "getAllContractOwnedNFTs",
      "outputs": [
        {
          "internalType": "uint256[]",
          "name": "",
          "type": "uint256[]"
        }
      ],
      "stateMutability": "view",
      "type": "function",
      "constant": true
    },
    {
      "inputs": [],
      "name": "getTotalContractBalance",
      "outputs": [
        {
          "internalType": "uint256",
          "name": "",
          "type": "uint256"
        }
      ],
      "stateMutability": "view",
      "type": "function",
      "constant": true
    },
    {
      "inputs": [],
      "name": "getCombinedOwnedAssets",
      "outputs": [
        {
          "internalType": "uint256[]",
          "name": "nftIds",
          "type": "uint256[]"
        },
        {
          "internalType": "uint256",
          "name": "totalCoins",
          "type": "uint256"
        }
      ],
      "stateMutability": "view",
      "type": "function",
      "constant": true
    }
  ],
  "bytecode": "0x60806040523480156200001157600080fd5b50604051620057dd380380620057dd8339818101604052810190620000379190620003f2565b620000576200004b6200019a60201b60201c565b620001a260201b60201c565b600180819055506200007082826200026660201b60201c565b600260009054906101000a900473ffffffffffffffffffffffffffffffffffffffff1673ffffffffffffffffffffffffffffffffffffffff1663ec9da59e306040518263ffffffff1660e01b8152600401620000cd919062000471565b600060405180830381600087803b158015620000e857600080fd5b505af1158015620000fd573d6000803e3d6000fd5b50505050600360009054906101000a900473ffffffffffffffffffffffffffffffffffffffff1673ffffffffffffffffffffffffffffffffffffffff1663ec9da59e306040518263ffffffff1660e01b81526004016200015e919062000471565b600060405180830381600087803b1580156200017957600080fd5b505af11580156200018e573d6000803e3d6000fd5b5050505050506200053d565b600033905090565b60008060009054906101000a900473ffffffffffffffffffffffffffffffffffffffff169050816000806101000a81548173ffffffffffffffffffffffffffffffffffffffff021916908373ffffffffffffffffffffffffffffffffffffffff1602179055508173ffffffffffffffffffffffffffffffffffffffff168173ffffffffffffffffffffffffffffffffffffffff167f8be0079c531659141344cd1fd0a4f28419497f9722a3daafe3b4186f6b6457e060405160405180910390a35050565b600073ffffffffffffffffffffffffffffffffffffffff16600260009054906101000a900473ffffffffffffffffffffffffffffffffffffffff1673ffffffffffffffffffffffffffffffffffffffff16148015620003135750600073ffffffffffffffffffffffffffffffffffffffff16600360009054906101000a900473ffffffffffffffffffffffffffffffffffffffff1673ffffffffffffffffffffffffffffffffffffffff16145b62000355576040517f08c379a00000000000000000000000000000000000000000000000000000000081526004016200034c906200048e565b60405180910390fd5b81600260006101000a81548173ffffffffffffffffffffffffffffffffffffffff021916908373ffffffffffffffffffffffffffffffffffffffff16021790555080600360006101000a81548173ffffffffffffffffffffffffffffffffffffffff021916908373ffffffffffffffffffffffffffffffffffffffff1602179055505050565b600081519050620003ec8162000523565b92915050565b600080604083850312156200040c576200040b620004f5565b5b60006200041c85828601620003db565b92505060206200042f85828601620003db565b9150509250929050565b6200044481620004c1565b82525050565b600062000459601d83620004b0565b91506200046682620004fa565b602082019050919050565b600060208201905062000488600083018462000439565b92915050565b60006020820190508181036000830152620004a9816200044a565b9050919050565b600082825260208201905092915050565b6000620004ce82620004d5565b9050919050565b600073ffffffffffffffffffffffffffffffffffffffff82169050919050565b600080fd5b7f436f6e74726163747320616c726561647920696e697469616c697a6564000000600082015250565b6200052e81620004c1565b81146200053a57600080fd5b50565b615290806200054d6000396000f3fe608060405234801561001057600080fd5b50600436106101cf5760003560e01c80638109b00511610104578063c7604fec116100a2578063d9e3fd6411610071578063d9e3fd6414610521578063f2fde38b1461053f578063f90852c71461055b578063fc3fc4ed14610577576101cf565b8063c7604fec14610499578063d3e6fa19146104b5578063d56d229d146104d3578063d750558f146104f1576101cf565b806396b5a755116100de57806396b5a75514610410578063a6c7523a1461042c578063b1283e771461044b578063b6b55f251461047d576101cf565b80638109b005146103ba57806389666664146103d65780638da5cb5b146103f2576101cf565b806355a373d6116101715780636f9fb98a1161014b5780636f9fb98a14610358578063715018a61461037657806373ddccb5146103805780637c16cd9e1461039e576101cf565b806355a373d6146102ed57806356a6d9ef1461030b578063571a26a014610327576101cf565b80632e1a7d4d116101ad5780632e1a7d4d1461024157806336c678971461025d5780633ec791931461028d57806347734892146102bd576101cf565b806302c5115b146101d4578063065de74c146101f25780631e6c598e1461020e575b600080fd5b6101dc6105a7565b6040516101e99190614974565b60405180910390f35b61020c60048036038101906102079190613e12565b6105ad565b005b61022860048036038101906102239190613e12565b610884565b6040516102389493929190614513565b60405180910390f35b61025b60048036038101906102569190613e12565b6108f4565b005b61027760048036038101906102729190613e12565b610c9e565b6040516102849190614937565b60405180910390f35b6102a760048036038101906102a29190613e12565b610ddc565b6040516102b4919061491c565b60405180910390f35b6102d760048036038101906102d29190613c5c565b610eed565b6040516102e49190614974565b60405180910390f35b6102f5610f36565b604051610302919061460b565b60405180910390f35b61032560048036038101906103209190613d09565b610f5c565b005b610341600480360381019061033c9190613e12565b6112f7565b60405161034f92919061498f565b60405180910390f35b61036061133b565b60405161036d9190614974565b60405180910390f35b61037e6113ed565b005b610388611475565b60405161039591906145b9565b60405180910390f35b6103b860048036038101906103b39190613e12565b611484565b005b6103d460048036038101906103cf9190613e6c565b611854565b005b6103f060048036038101906103eb9190613cb6565b611c25565b005b6103fa61203d565b60405161040791906144c1565b60405180910390f35b61042a60048036038101906104259190613e12565b612066565b005b610434612460565b6040516104429291906145db565b60405180910390f35b61046560048036038101906104609190613e12565b612487565b604051610474939291906149ef565b60405180910390f35b61049760048036038101906104929190613e12565b6124d1565b005b6104b360048036038101906104ae9190613ebf565b6127f9565b005b6104bd612b2f565b6040516104ca91906145b9565b60405180910390f35b6104db612be6565b6040516104e89190614626565b60405180910390f35b61050b60048036038101906105069190613d49565b612c0c565b6040516105189190614952565b60405180910390f35b610529612f5d565b6040516105369190614974565b60405180910390f35b61055960048036038101906105549190613c5c565b612f6c565b005b61057560048036038101906105709190613e12565b613064565b005b610591600480360381019061058c9190613e12565b6133c9565b60405161059e9190614901565b60405180910390f35b60065481565b600260015414156105f3576040517f08c379a00000000000000000000000000000000000000000000000000000000081526004016105ea906148c1565b60405180910390fd5b60026001819055503373ffffffffffffffffffffffffffffffffffffffff16600260009054906101000a900473ffffffffffffffffffffffffffffffffffffffff1673ffffffffffffffffffffffffffffffffffffffff16636352211e836040518263ffffffff1660e01b815260040161066d9190614974565b60206040518083038186803b15801561068557600080fd5b505afa158015610699573d6000803e3d6000fd5b505050506040513d601f19601f820116820180604052508101906106bd9190613c89565b73ffffffffffffffffffffffffffffffffffffffff1614610713576040517f08c379a000000000000000000000000000000000000000000000000000000000815260040161070a90614741565b60405180910390fd5b600260009054906101000a900473ffffffffffffffffffffffffffffffffffffffff1673ffffffffffffffffffffffffffffffffffffffff166335b9594c8233306040518463ffffffff1660e01b8152600401610772939291906149b8565b600060405180830381600087803b15801561078c57600080fd5b505af11580156107a0573d6000803e3d6000fd5b5050505060405180604001604052808281526020013373ffffffffffffffffffffffffffffffffffffffff16815250600860008381526020019081526020016000206000820151816000015560208201518160010160006101000a81548173ffffffffffffffffffffffffffffffffffffffff021916908373ffffffffffffffffffffffffffffffffffffffff1602179055509050503373ffffffffffffffffffffffffffffffffffffffff16817f16da476d7265fc95576888b93de4fa4849d6cea1228235887f569c6530ddfec160405160405180910390a36001808190555050565b60056020528060005260406000206000915090508060000160009054906101000a900473ffffffffffffffffffffffffffffffffffffffff16908060010160009054906101000a900473ffffffffffffffffffffffffffffffffffffffff16908060020154908060030154905084565b6002600154141561093a576040517f08c379a0000000000000000000000000000000000000000000000000000000008152600401610931906148c1565b60405180910390fd5b600260018190555060008111610985576040517f08c379a000000000000000000000000000000000000000000000000000000000815260040161097c906147c1565b60405180910390fd5b80600460003373ffffffffffffffffffffffffffffffffffffffff1673ffffffffffffffffffffffffffffffffffffffff168152602001908152602001600020541015610a07576040517f08c379a00000000000000000000000000000000000000000000000000000000081526004016109fe90614721565b60405180910390fd5b600360009054906101000a900473ffffffffffffffffffffffffffffffffffffffff1673ffffffffffffffffffffffffffffffffffffffff16636153fced3033846040518463ffffffff1660e01b8152600401610a66939291906144dc565b602060405180830381600087803b158015610a8057600080fd5b505af1158015610a94573d6000803e3d6000fd5b505050506040513d601f19601f82011682018060405250810190610ab89190613de5565b610af7576040517f08c379a0000000000000000000000000000000000000000000000000000000008152600401610aee906146e1565b60405180910390fd5b80600460003373ffffffffffffffffffffffffffffffffffffffff1673ffffffffffffffffffffffffffffffffffffffff1681526020019081526020016000206000828254610b469190614be1565b92505081905550610b59336000836134d0565b3373ffffffffffffffffffffffffffffffffffffffff167f650fdf669e93aa6c8ff3defe2da9c12b64f1548e5e1e54e803f4c1beb6466c8e82600360009054906101000a900473ffffffffffffffffffffffffffffffffffffffff1673ffffffffffffffffffffffffffffffffffffffff166370a08231336040518263ffffffff1660e01b8152600401610bed91906144c1565b60206040518083038186803b158015610c0557600080fd5b505afa158015610c19573d6000803e3d6000fd5b505050506040513d601f19601f82011682018060405250810190610c3d9190613e3f565b600460003373ffffffffffffffffffffffffffffffffffffffff1673ffffffffffffffffffffffffffffffffffffffff16815260200190815260200160002054604051610c8c93929190614a26565b60405180910390a26001808190555050565b610ca6613a77565b600082118015610cb857506006548211155b610cf7576040517f08c379a0000000000000000000000000000000000000000000000000000000008152600401610cee90614881565b60405180910390fd5b600560008381526020019081526020016000206040518060800160405290816000820160009054906101000a900473ffffffffffffffffffffffffffffffffffffffff1673ffffffffffffffffffffffffffffffffffffffff1673ffffffffffffffffffffffffffffffffffffffff1681526020016001820160009054906101000a900473ffffffffffffffffffffffffffffffffffffffff1673ffffffffffffffffffffffffffffffffffffffff1673ffffffffffffffffffffffffffffffffffffffff168152602001600282015481526020016003820154815250509050919050565b610de4613acb565b600060096000848152602001908152602001600020604051806060016040529081600082015481526020016001820160009054906101000a900473ffffffffffffffffffffffffffffffffffffffff1673ffffffffffffffffffffffffffffffffffffffff1673ffffffffffffffffffffffffffffffffffffffff1681526020016002820154815250509050600073ffffffffffffffffffffffffffffffffffffffff16816020015173ffffffffffffffffffffffffffffffffffffffff161415610ee4576040517f08c379a0000000000000000000000000000000000000000000000000000000008152600401610edb90614641565b60405180910390fd5b80915050919050565b6000600460008373ffffffffffffffffffffffffffffffffffffffff1673ffffffffffffffffffffffffffffffffffffffff168152602001908152602001600020549050919050565b600360009054906101000a900473ffffffffffffffffffffffffffffffffffffffff1681565b60026001541415610fa2576040517f08c379a0000000000000000000000000000000000000000000000000000000008152600401610f99906148c1565b60405180910390fd5b6002600181905550600073ffffffffffffffffffffffffffffffffffffffff168273ffffffffffffffffffffffffffffffffffffffff16141561101a576040517f08c379a000000000000000000000000000000000000000000000000000000000815260040161101190614781565b60405180910390fd5b3373ffffffffffffffffffffffffffffffffffffffff168273ffffffffffffffffffffffffffffffffffffffff161415611089576040517f08c379a000000000000000000000000000000000000000000000000000000000815260040161108090614821565b60405180910390fd5b600081116110cc576040517f08c379a00000000000000000000000000000000000000000000000000000000081526004016110c3906148a1565b60405180910390fd5b80600460003373ffffffffffffffffffffffffffffffffffffffff1673ffffffffffffffffffffffffffffffffffffffff16815260200190815260200160002054101561114e576040517f08c379a000000000000000000000000000000000000000000000000000000000815260040161114590614721565b60405180910390fd5b80600460003373ffffffffffffffffffffffffffffffffffffffff1673ffffffffffffffffffffffffffffffffffffffff168152602001908152602001600020600082825461119d9190614be1565b9250508190555080600460008473ffffffffffffffffffffffffffffffffffffffff1673ffffffffffffffffffffffffffffffffffffffff16815260200190815260200160002060008282546111f39190614b31565b925050819055506112053383836134d0565b8173ffffffffffffffffffffffffffffffffffffffff163373ffffffffffffffffffffffffffffffffffffffff167f941baa54585e364d2377b71ffcd6321c9e8b3d1b46e3db66121ee5b08bf12acf83600460003373ffffffffffffffffffffffffffffffffffffffff1673ffffffffffffffffffffffffffffffffffffffff16815260200190815260200160002054600460008873ffffffffffffffffffffffffffffffffffffffff1673ffffffffffffffffffffffffffffffffffffffff168152602001908152602001600020546040516112e493929190614a26565b60405180910390a3600180819055505050565b60086020528060005260406000206000915090508060000154908060010160009054906101000a900473ffffffffffffffffffffffffffffffffffffffff16905082565b6000600360009054906101000a900473ffffffffffffffffffffffffffffffffffffffff1673ffffffffffffffffffffffffffffffffffffffff166370a08231306040518263ffffffff1660e01b815260040161139891906144c1565b60206040518083038186803b1580156113b057600080fd5b505afa1580156113c4573d6000803e3d6000fd5b505050506040513d601f19601f820116820180604052508101906113e89190613e3f565b905090565b6113f5613786565b73ffffffffffffffffffffffffffffffffffffffff1661141361203d565b73ffffffffffffffffffffffffffffffffffffffff1614611469576040517f08c379a0000000000000000000000000000000000000000000000000000000008152600401611460906147a1565b60405180910390fd5b611473600061378e565b565b606061147f612b2f565b905090565b600260015414156114ca576040517f08c379a00000000000000000000000000000000000000000000000000000000081526004016114c1906148c1565b60405180910390fd5b600260018190555060006009600083815260200190815260200160002090503073ffffffffffffffffffffffffffffffffffffffff16600260009054906101000a900473ffffffffffffffffffffffffffffffffffffffff1673ffffffffffffffffffffffffffffffffffffffff16636352211e846040518263ffffffff1660e01b815260040161155b9190614974565b60206040518083038186803b15801561157357600080fd5b505afa158015611587573d6000803e3d6000fd5b505050506040513d601f19601f820116820180604052508101906115ab9190613c89565b73ffffffffffffffffffffffffffffffffffffffff1614611601576040517f08c379a00000000000000000000000000000000000000000000000000000000081526004016115f890614861565b60405180910390fd5b3373ffffffffffffffffffffffffffffffffffffffff168160010160009054906101000a900473ffffffffffffffffffffffffffffffffffffffff1673ffffffffffffffffffffffffffffffffffffffff1614611693576040517f08c379a000000000000000000000000000000000000000000000000000000000815260040161168a90614741565b60405180910390fd5b600073ffffffffffffffffffffffffffffffffffffffff168160010160009054906101000a900473ffffffffffffffffffffffffffffffffffffffff1673ffffffffffffffffffffffffffffffffffffffff161415611727576040517f08c379a000000000000000000000000000000000000000000000000000000000815260040161171e906147e1565b60405180910390fd5b600260009054906101000a900473ffffffffffffffffffffffffffffffffffffffff1673ffffffffffffffffffffffffffffffffffffffff166335b9594c8330336040518463ffffffff1660e01b8152600401611786939291906149b8565b600060405180830381600087803b1580156117a057600080fd5b505af11580156117b4573d6000803e3d6000fd5b50505050600960008381526020019081526020016000206000808201600090556001820160006101000a81549073ffffffffffffffffffffffffffffffffffffffff0219169055600282016000905550503373ffffffffffffffffffffffffffffffffffffffff16827f80cbe856a464968c63953aeb2dd84c12de3a0715985cae2ea35d3ed87e39ddc360405160405180910390a3506001808190555050565b6002600154141561189a576040517f08c379a0000000000000000000000000000000000000000000000000000000008152600401611891906148c1565b60405180910390fd5b60026001819055506118aa613786565b73ffffffffffffffffffffffffffffffffffffffff166118c861203d565b73ffffffffffffffffffffffffffffffffffffffff161461191e576040517f08c379a0000000000000000000000000000000000000000000000000000000008152600401611915906147a1565b60405180910390fd5b6000600860008581526020019081526020016000209050600073ffffffffffffffffffffffffffffffffffffffff168160010160009054906101000a900473ffffffffffffffffffffffffffffffffffffffff1673ffffffffffffffffffffffffffffffffffffffff1614156119c9576040517f08c379a00000000000000000000000000000000000000000000000000000000081526004016119c0906148e1565b60405180910390fd5b8060010160009054906101000a900473ffffffffffffffffffffffffffffffffffffffff1673ffffffffffffffffffffffffffffffffffffffff168373ffffffffffffffffffffffffffffffffffffffff161415611a5c576040517f08c379a0000000000000000000000000000000000000000000000000000000008152600401611a5390614801565b60405180910390fd5b60008160010160009054906101000a900473ffffffffffffffffffffffffffffffffffffffff16905082611a8f85610eed565b1015611ad0576040517f08c379a0000000000000000000000000000000000000000000000000000000008152600401611ac790614721565b60405180910390fd5b611adb848285613852565b600260009054906101000a900473ffffffffffffffffffffffffffffffffffffffff1673ffffffffffffffffffffffffffffffffffffffff166335b9594c8630336040518463ffffffff1660e01b8152600401611b3a939291906149b8565b600060405180830381600087803b158015611b5457600080fd5b505af1158015611b68573d6000803e3d6000fd5b50505050600860008681526020019081526020016000206000808201600090556001820160006101000a81549073ffffffffffffffffffffffffffffffffffffffff021916905550508373ffffffffffffffffffffffffffffffffffffffff168173ffffffffffffffffffffffffffffffffffffffff16867f7787e67b4b8529b1aa2c1a59dbf0f0e766d63860956b86f33f5d87008823550186604051611c0f9190614974565b60405180910390a4505060018081905550505050565b611c2d613786565b73ffffffffffffffffffffffffffffffffffffffff16611c4b61203d565b73ffffffffffffffffffffffffffffffffffffffff1614611ca1576040517f08c379a0000000000000000000000000000000000000000000000000000000008152600401611c98906147a1565b60405180910390fd5b60026001541415611ce7576040517f08c379a0000000000000000000000000000000000000000000000000000000008152600401611cde906148c1565b60405180910390fd5b6002600181905550600073ffffffffffffffffffffffffffffffffffffffff168273ffffffffffffffffffffffffffffffffffffffff161415611d5f576040517f08c379a0000000000000000000000000000000000000000000000000000000008152600401611d5690614781565b60405180910390fd5b8273ffffffffffffffffffffffffffffffffffffffff168273ffffffffffffffffffffffffffffffffffffffff161415611dce576040517f08c379a0000000000000000000000000000000000000000000000000000000008152600401611dc590614821565b60405180910390fd5b60008111611e11576040517f08c379a0000000000000000000000000000000000000000000000000000000008152600401611e08906148a1565b60405180910390fd5b80600460008573ffffffffffffffffffffffffffffffffffffffff1673ffffffffffffffffffffffffffffffffffffffff168152602001908152602001600020541015611e93576040517f08c379a0000000000000000000000000000000000000000000000000000000008152600401611e8a90614721565b60405180910390fd5b80600460008573ffffffffffffffffffffffffffffffffffffffff1673ffffffffffffffffffffffffffffffffffffffff1681526020019081526020016000206000828254611ee29190614be1565b9250508190555080600460008473ffffffffffffffffffffffffffffffffffffffff1673ffffffffffffffffffffffffffffffffffffffff1681526020019081526020016000206000828254611f389190614b31565b92505081905550611f4a8383836134d0565b8173ffffffffffffffffffffffffffffffffffffffff168373ffffffffffffffffffffffffffffffffffffffff167f941baa54585e364d2377b71ffcd6321c9e8b3d1b46e3db66121ee5b08bf12acf83600460008873ffffffffffffffffffffffffffffffffffffffff1673ffffffffffffffffffffffffffffffffffffffff16815260200190815260200160002054600460008873ffffffffffffffffffffffffffffffffffffffff1673ffffffffffffffffffffffffffffffffffffffff1681526020019081526020016000205460405161202993929190614a26565b60405180910390a360018081905550505050565b60008060009054906101000a900473ffffffffffffffffffffffffffffffffffffffff16905090565b600260015414156120ac576040517f08c379a00000000000000000000000000000000000000000000000000000000081526004016120a3906148c1565b60405180910390fd5b60026001819055506120bc613786565b73ffffffffffffffffffffffffffffffffffffffff166120da61203d565b73ffffffffffffffffffffffffffffffffffffffff1614612130576040517f08c379a0000000000000000000000000000000000000000000000000000000008152600401612127906147a1565b60405180910390fd5b60006008600083815260200190815260200160002090503073ffffffffffffffffffffffffffffffffffffffff16600260009054906101000a900473ffffffffffffffffffffffffffffffffffffffff1673ffffffffffffffffffffffffffffffffffffffff16636352211e846040518263ffffffff1660e01b81526004016121b99190614974565b60206040518083038186803b1580156121d157600080fd5b505afa1580156121e5573d6000803e3d6000fd5b505050506040513d601f19601f820116820180604052508101906122099190613c89565b73ffffffffffffffffffffffffffffffffffffffff161461225f576040517f08c379a000000000000000000000000000000000000000000000000000000000815260040161225690614761565b60405180910390fd5b600073ffffffffffffffffffffffffffffffffffffffff168160010160009054906101000a900473ffffffffffffffffffffffffffffffffffffffff1673ffffffffffffffffffffffffffffffffffffffff1614156122f3576040517f08c379a00000000000000000000000000000000000000000000000000000000081526004016122ea906148e1565b60405180910390fd5b600260009054906101000a900473ffffffffffffffffffffffffffffffffffffffff1673ffffffffffffffffffffffffffffffffffffffff166335b9594c83308460010160009054906101000a900473ffffffffffffffffffffffffffffffffffffffff166040518463ffffffff1660e01b8152600401612376939291906149b8565b600060405180830381600087803b15801561239057600080fd5b505af11580156123a4573d6000803e3d6000fd5b50505050600860008381526020019081526020016000206000808201600090556001820160006101000a81549073ffffffffffffffffffffffffffffffffffffffff021916905550508060010160009054906101000a900473ffffffffffffffffffffffffffffffffffffffff1673ffffffffffffffffffffffffffffffffffffffff16827f10ac9f0bb365b5d22d7bec500408692f23fdf83eadfec71615ef88b4c1134f0e60405160405180910390a3506001808190555050565b606060008061246d611475565b90506000612479612f5d565b905081819350935050509091565b60096020528060005260406000206000915090508060000154908060010160009054906101000a900473ffffffffffffffffffffffffffffffffffffffff16908060020154905083565b60026001541415612517576040517f08c379a000000000000000000000000000000000000000000000000000000000815260040161250e906148c1565b60405180910390fd5b600260018190555060008111612562576040517f08c379a000000000000000000000000000000000000000000000000000000000815260040161255990614681565b60405180910390fd5b600360009054906101000a900473ffffffffffffffffffffffffffffffffffffffff1673ffffffffffffffffffffffffffffffffffffffff16636153fced3330846040518463ffffffff1660e01b81526004016125c1939291906144dc565b602060405180830381600087803b1580156125db57600080fd5b505af11580156125ef573d6000803e3d6000fd5b505050506040513d601f19601f820116820180604052508101906126139190613de5565b612652576040517f08c379a0000000000000000000000000000000000000000000000000000000008152600401612649906146e1565b60405180910390fd5b80600460003373ffffffffffffffffffffffffffffffffffffffff1673ffffffffffffffffffffffffffffffffffffffff16815260200190815260200160002060008282546126a19190614b31565b925050819055506126b4600033836134d0565b3373ffffffffffffffffffffffffffffffffffffffff167f36af321ec8d3c75236829c5317affd40ddb308863a1236d2d277a4025cccee1e82600360009054906101000a900473ffffffffffffffffffffffffffffffffffffffff1673ffffffffffffffffffffffffffffffffffffffff166370a08231336040518263ffffffff1660e01b815260040161274891906144c1565b60206040518083038186803b15801561276057600080fd5b505afa158015612774573d6000803e3d6000fd5b505050506040513d601f19601f820116820180604052508101906127989190613e3f565b600460003373ffffffffffffffffffffffffffffffffffffffff1673ffffffffffffffffffffffffffffffffffffffff168152602001908152602001600020546040516127e793929190614a26565b60405180910390a26001808190555050565b6002600154141561283f576040517f08c379a0000000000000000000000000000000000000000000000000000000008152600401612836906148c1565b60405180910390fd5b60026001819055503373ffffffffffffffffffffffffffffffffffffffff16600260009054906101000a900473ffffffffffffffffffffffffffffffffffffffff1673ffffffffffffffffffffffffffffffffffffffff16636352211e846040518263ffffffff1660e01b81526004016128b99190614974565b60206040518083038186803b1580156128d157600080fd5b505afa1580156128e5573d6000803e3d6000fd5b505050506040513d601f19601f820116820180604052508101906129099190613c89565b73ffffffffffffffffffffffffffffffffffffffff161461295f576040517f08c379a000000000000000000000000000000000000000000000000000000000815260040161295690614741565b60405180910390fd5b600081116129a2576040517f08c379a0000000000000000000000000000000000000000000000000000000008152600401612999906146a1565b60405180910390fd5b600260009054906101000a900473ffffffffffffffffffffffffffffffffffffffff1673ffffffffffffffffffffffffffffffffffffffff166335b9594c8333306040518463ffffffff1660e01b8152600401612a01939291906149b8565b600060405180830381600087803b158015612a1b57600080fd5b505af1158015612a2f573d6000803e3d6000fd5b5050505060405180606001604052808381526020013373ffffffffffffffffffffffffffffffffffffffff16815260200182815250600960008481526020019081526020016000206000820151816000015560208201518160010160006101000a81548173ffffffffffffffffffffffffffffffffffffffff021916908373ffffffffffffffffffffffffffffffffffffffff160217905550604082015181600201559050503373ffffffffffffffffffffffffffffffffffffffff16827f557e20be357a3ff3fc08cf2b8e6986333057886a281d0409a7e751c3fd700ec083604051612b1c9190614974565b60405180910390a3600180819055505050565b6060600260009054906101000a900473ffffffffffffffffffffffffffffffffffffffff1673ffffffffffffffffffffffffffffffffffffffff1663e6b1fa2a306040518263ffffffff1660e01b8152600401612b8c91906144c1565b60006040518083038186803b158015612ba457600080fd5b505afa158015612bb8573d6000803e3d6000fd5b505050506040513d6000823e3d601f19601f82011682018060405250810190612be19190613d9c565b905090565b600260009054906101000a900473ffffffffffffffffffffffffffffffffffffffff1681565b612c14613b02565b6000600760008673ffffffffffffffffffffffffffffffffffffffff1673ffffffffffffffffffffffffffffffffffffffff168152602001908152602001600020905060008180549050905060008486612c6e9190614b87565b8211612c7b576000612c9f565b84600187612c899190614b31565b612c939190614b87565b82612c9e9190614be1565b5b905060008587612caf9190614b87565b83612cba9190614be1565b905082821180612cca5750600082105b15612cd457600091505b600081111580612cef5750828688612cec9190614b87565b10155b15612d71576040518060600160405280600067ffffffffffffffff811115612d1a57612d19614d7d565b5b604051908082528060200260200182016040528015612d5357816020015b612d40613a77565b815260200190600190039081612d385790505b50815260200184815260200160001515815250945050505050612f56565b60008282612d7f9190614be1565b905060008167ffffffffffffffff811115612d9d57612d9c614d7d565b5b604051908082528060200260200182016040528015612dd657816020015b612dc3613a77565b815260200190600190039081612dbb5790505b50905060005b82811015612f2757600560008883600188612df79190614be1565b612e019190614be1565b81548110612e1257612e11614d4e565b5b906000526020600020015481526020019081526020016000206040518060800160405290816000820160009054906101000a900473ffffffffffffffffffffffffffffffffffffffff1673ffffffffffffffffffffffffffffffffffffffff1673ffffffffffffffffffffffffffffffffffffffff1681526020016001820160009054906101000a900473ffffffffffffffffffffffffffffffffffffffff1673ffffffffffffffffffffffffffffffffffffffff1673ffffffffffffffffffffffffffffffffffffffff16815260200160028201548152602001600382015481525050828281518110612f0957612f08614d4e565b5b60200260200101819052508080612f1f90614cd6565b915050612ddc565b506000808511905060405180606001604052808381526020018781526020018215158152509750505050505050505b9392505050565b6000612f6761133b565b905090565b612f74613786565b73ffffffffffffffffffffffffffffffffffffffff16612f9261203d565b73ffffffffffffffffffffffffffffffffffffffff1614612fe8576040517f08c379a0000000000000000000000000000000000000000000000000000000008152600401612fdf906147a1565b60405180910390fd5b600073ffffffffffffffffffffffffffffffffffffffff168173ffffffffffffffffffffffffffffffffffffffff161415613058576040517f08c379a000000000000000000000000000000000000000000000000000000000815260040161304f906146c1565b60405180910390fd5b6130618161378e565b50565b600260015414156130aa576040517f08c379a00000000000000000000000000000000000000000000000000000000081526004016130a1906148c1565b60405180910390fd5b60026001819055506000600960008381526020019081526020016000209050600073ffffffffffffffffffffffffffffffffffffffff168160010160009054906101000a900473ffffffffffffffffffffffffffffffffffffffff1673ffffffffffffffffffffffffffffffffffffffff16141561315d576040517f08c379a000000000000000000000000000000000000000000000000000000000815260040161315490614701565b60405180910390fd5b8060010160009054906101000a900473ffffffffffffffffffffffffffffffffffffffff1673ffffffffffffffffffffffffffffffffffffffff163373ffffffffffffffffffffffffffffffffffffffff1614156131f0576040517f08c379a00000000000000000000000000000000000000000000000000000000081526004016131e790614841565b60405180910390fd5b60008160020154905060008260010160009054906101000a900473ffffffffffffffffffffffffffffffffffffffff1690508161322c33610eed565b101561326d576040517f08c379a000000000000000000000000000000000000000000000000000000000815260040161326490614721565b60405180910390fd5b613278338284613852565b600260009054906101000a900473ffffffffffffffffffffffffffffffffffffffff1673ffffffffffffffffffffffffffffffffffffffff166335b9594c8530336040518463ffffffff1660e01b81526004016132d7939291906149b8565b600060405180830381600087803b1580156132f157600080fd5b505af1158015613305573d6000803e3d6000fd5b50505050600960008581526020019081526020016000206000808201600090556001820160006101000a81549073ffffffffffffffffffffffffffffffffffffffff0219169055600282016000905550503373ffffffffffffffffffffffffffffffffffffffff168173ffffffffffffffffffffffffffffffffffffffff16857f94ddf8232f3af1f844abb74cd56287ba5507090df04bf3c2e006bf74e904a283856040516133b49190614974565b60405180910390a45050506001808190555050565b6133d1613b25565b600060086000848152602001908152602001600020604051806040016040529081600082015481526020016001820160009054906101000a900473ffffffffffffffffffffffffffffffffffffffff1673ffffffffffffffffffffffffffffffffffffffff1673ffffffffffffffffffffffffffffffffffffffff16815250509050600073ffffffffffffffffffffffffffffffffffffffff16816020015173ffffffffffffffffffffffffffffffffffffffff1614156134c7576040517f08c379a00000000000000000000000000000000000000000000000000000000081526004016134be90614661565b60405180910390fd5b80915050919050565b600660008154809291906134e390614cd6565b919050555060405180608001604052808473ffffffffffffffffffffffffffffffffffffffff1681526020018373ffffffffffffffffffffffffffffffffffffffff1681526020018281526020014281525060056000600654815260200190815260200160002060008201518160000160006101000a81548173ffffffffffffffffffffffffffffffffffffffff021916908373ffffffffffffffffffffffffffffffffffffffff16021790555060208201518160010160006101000a81548173ffffffffffffffffffffffffffffffffffffffff021916908373ffffffffffffffffffffffffffffffffffffffff1602179055506040820151816002015560608201518160030155905050600760008473ffffffffffffffffffffffffffffffffffffffff1673ffffffffffffffffffffffffffffffffffffffff1681526020019081526020016000206006549080600181540180825580915050600190039060005260206000200160009091909190915055600760008373ffffffffffffffffffffffffffffffffffffffff1673ffffffffffffffffffffffffffffffffffffffff16815260200190815260200160002060065490806001815401808255809150506001900390600052602060002001600090919091909150556006547fc09ae797f474a8568a060562997bd2e2f8dc85b50a348036d10095b3dbbfeeba84848442600460008a73ffffffffffffffffffffffffffffffffffffffff1673ffffffffffffffffffffffffffffffffffffffff16815260200190815260200160002054600460008a73ffffffffffffffffffffffffffffffffffffffff1673ffffffffffffffffffffffffffffffffffffffff1681526020019081526020016000205460405161377996959493929190614558565b60405180910390a2505050565b600033905090565b60008060009054906101000a900473ffffffffffffffffffffffffffffffffffffffff169050816000806101000a81548173ffffffffffffffffffffffffffffffffffffffff021916908373ffffffffffffffffffffffffffffffffffffffff1602179055508173ffffffffffffffffffffffffffffffffffffffff168173ffffffffffffffffffffffffffffffffffffffff167f8be0079c531659141344cd1fd0a4f28419497f9722a3daafe3b4186f6b6457e060405160405180910390a35050565b80600460008573ffffffffffffffffffffffffffffffffffffffff1673ffffffffffffffffffffffffffffffffffffffff1681526020019081526020016000205410156138d4576040517f08c379a00000000000000000000000000000000000000000000000000000000081526004016138cb90614721565b60405180910390fd5b80600460008573ffffffffffffffffffffffffffffffffffffffff1673ffffffffffffffffffffffffffffffffffffffff16815260200190815260200160002060008282546139239190614be1565b9250508190555080600460008473ffffffffffffffffffffffffffffffffffffffff1673ffffffffffffffffffffffffffffffffffffffff16815260200190815260200160002060008282546139799190614b31565b9250508190555061398b8383836134d0565b8173ffffffffffffffffffffffffffffffffffffffff168373ffffffffffffffffffffffffffffffffffffffff167f545d69fe7f063ec653f15db654097f27f5cadbe11750199a40fd55b2504c6b4d83600460008873ffffffffffffffffffffffffffffffffffffffff1673ffffffffffffffffffffffffffffffffffffffff16815260200190815260200160002054600460008873ffffffffffffffffffffffffffffffffffffffff1673ffffffffffffffffffffffffffffffffffffffff16815260200190815260200160002054604051613a6a93929190614a26565b60405180910390a3505050565b6040518060800160405280600073ffffffffffffffffffffffffffffffffffffffff168152602001600073ffffffffffffffffffffffffffffffffffffffff16815260200160008152602001600081525090565b604051806060016040528060008152602001600073ffffffffffffffffffffffffffffffffffffffff168152602001600081525090565b604051806060016040528060608152602001600081526020016000151581525090565b604051806040016040528060008152602001600073ffffffffffffffffffffffffffffffffffffffff1681525090565b6000613b68613b6384614a82565b614a5d565b90508083825260208201905082856020860282011115613b8b57613b8a614db1565b5b60005b85811015613bbb5781613ba18882613c47565b845260208401935060208301925050600181019050613b8e565b5050509392505050565b600081359050613bd481615215565b92915050565b600081519050613be981615215565b92915050565b600082601f830112613c0457613c03614dac565b5b8151613c14848260208601613b55565b91505092915050565b600081519050613c2c8161522c565b92915050565b600081359050613c4181615243565b92915050565b600081519050613c5681615243565b92915050565b600060208284031215613c7257613c71614dbb565b5b6000613c8084828501613bc5565b91505092915050565b600060208284031215613c9f57613c9e614dbb565b5b6000613cad84828501613bda565b91505092915050565b600080600060608486031215613ccf57613cce614dbb565b5b6000613cdd86828701613bc5565b9350506020613cee86828701613bc5565b9250506040613cff86828701613c32565b9150509250925092565b60008060408385031215613d2057613d1f614dbb565b5b6000613d2e85828601613bc5565b9250506020613d3f85828601613c32565b9150509250929050565b600080600060608486031215613d6257613d61614dbb565b5b6000613d7086828701613bc5565b9350506020613d8186828701613c32565b9250506040613d9286828701613c32565b9150509250925092565b600060208284031215613db257613db1614dbb565b5b600082015167ffffffffffffffff811115613dd057613dcf614db6565b5b613ddc84828501613bef565b91505092915050565b600060208284031215613dfb57613dfa614dbb565b5b6000613e0984828501613c1d565b91505092915050565b600060208284031215613e2857613e27614dbb565b5b6000613e3684828501613c32565b91505092915050565b600060208284031215613e5557613e54614dbb565b5b6000613e6384828501613c47565b91505092915050565b600080600060608486031215613e8557613e84614dbb565b5b6000613e9386828701613c32565b9350506020613ea486828701613bc5565b9250506040613eb586828701613c32565b9150509250925092565b60008060408385031215613ed657613ed5614dbb565b5b6000613ee485828601613c32565b9250506020613ef585828601613c32565b9150509250929050565b6000613f0b83836143a9565b60808301905092915050565b6000613f2383836144a3565b60208301905092915050565b613f3881614c15565b82525050565b613f4781614c15565b82525050565b6000613f5882614ace565b613f628185614afe565b9350613f6d83614aae565b8060005b83811015613f9e578151613f858882613eff565b9750613f9083614ae4565b925050600181019050613f71565b5085935050505092915050565b6000613fb682614ad9565b613fc08185614b0f565b9350613fcb83614abe565b8060005b83811015613ffc578151613fe38882613f17565b9750613fee83614af1565b925050600181019050613fcf565b5085935050505092915050565b61401281614c27565b82525050565b61402181614c5d565b82525050565b61403081614c6f565b82525050565b6000614043602083614b20565b915061404e82614dd1565b602082019050919050565b6000614066602383614b20565b915061407182614dfa565b604082019050919050565b6000614089602583614b20565b915061409482614e49565b604082019050919050565b60006140ac601f83614b20565b91506140b782614e98565b602082019050919050565b60006140cf602683614b20565b91506140da82614ec1565b604082019050919050565b60006140f2600f83614b20565b91506140fd82614f10565b602082019050919050565b6000614115601883614b20565b915061412082614f39565b602082019050919050565b6000614138601483614b20565b915061414382614f62565b602082019050919050565b600061415b601683614b20565b915061416682614f8b565b602082019050919050565b600061417e601283614b20565b915061418982614fb4565b602082019050919050565b60006141a1601983614b20565b91506141ac82614fdd565b602082019050919050565b60006141c4602083614b20565b91506141cf82615006565b602082019050919050565b60006141e7602883614b20565b91506141f28261502f565b604082019050919050565b600061420a601a83614b20565b91506142158261507e565b602082019050919050565b600061422d601a83614b20565b9150614238826150a7565b602082019050919050565b6000614250601b83614b20565b915061425b826150d0565b602082019050919050565b6000614273601a83614b20565b915061427e826150f9565b602082019050919050565b6000614296601183614b20565b91506142a182615122565b602082019050919050565b60006142b9601083614b20565b91506142c48261514b565b602082019050919050565b60006142dc602683614b20565b91506142e782615174565b604082019050919050565b60006142ff601f83614b20565b915061430a826151c3565b602082019050919050565b6000614322601b83614b20565b915061432d826151ec565b602082019050919050565b60408201600082015161434e60008501826144a3565b5060208201516143616020850182613f2f565b50505050565b60608201600082015161437d60008501826144a3565b5060208201516143906020850182613f2f565b5060408201516143a360408501826144a3565b50505050565b6080820160008201516143bf6000850182613f2f565b5060208201516143d26020850182613f2f565b5060408201516143e560408501826144a3565b5060608201516143f860608501826144a3565b50505050565b6080820160008201516144146000850182613f2f565b5060208201516144276020850182613f2f565b50604082015161443a60408501826144a3565b50606082015161444d60608501826144a3565b50505050565b600060608301600083015184820360008601526144708282613f4d565b915050602083015161448560208601826144a3565b5060408301516144986040860182614009565b508091505092915050565b6144ac81614c53565b82525050565b6144bb81614c53565b82525050565b60006020820190506144d66000830184613f3e565b92915050565b60006060820190506144f16000830186613f3e565b6144fe6020830185613f3e565b61450b60408301846144b2565b949350505050565b60006080820190506145286000830187613f3e565b6145356020830186613f3e565b61454260408301856144b2565b61454f60608301846144b2565b95945050505050565b600060c08201905061456d6000830189613f3e565b61457a6020830188613f3e565b61458760408301876144b2565b61459460608301866144b2565b6145a160808301856144b2565b6145ae60a08301846144b2565b979650505050505050565b600060208201905081810360008301526145d38184613fab565b905092915050565b600060408201905081810360008301526145f58185613fab565b905061460460208301846144b2565b9392505050565b60006020820190506146206000830184614018565b92915050565b600060208201905061463b6000830184614027565b92915050565b6000602082019050818103600083015261465a81614036565b9050919050565b6000602082019050818103600083015261467a81614059565b9050919050565b6000602082019050818103600083015261469a8161407c565b9050919050565b600060208201905081810360008301526146ba8161409f565b9050919050565b600060208201905081810360008301526146da816140c2565b9050919050565b600060208201905081810360008301526146fa816140e5565b9050919050565b6000602082019050818103600083015261471a81614108565b9050919050565b6000602082019050818103600083015261473a8161412b565b9050919050565b6000602082019050818103600083015261475a8161414e565b9050919050565b6000602082019050818103600083015261477a81614171565b9050919050565b6000602082019050818103600083015261479a81614194565b9050919050565b600060208201905081810360008301526147ba816141b7565b9050919050565b600060208201905081810360008301526147da816141da565b9050919050565b600060208201905081810360008301526147fa816141fd565b9050919050565b6000602082019050818103600083015261481a81614220565b9050919050565b6000602082019050818103600083015261483a81614243565b9050919050565b6000602082019050818103600083015261485a81614266565b9050919050565b6000602082019050818103600083015261487a81614289565b9050919050565b6000602082019050818103600083015261489a816142ac565b9050919050565b600060208201905081810360008301526148ba816142cf565b9050919050565b600060208201905081810360008301526148da816142f2565b9050919050565b600060208201905081810360008301526148fa81614315565b9050919050565b60006040820190506149166000830184614338565b92915050565b60006060820190506149316000830184614367565b92915050565b600060808201905061494c60008301846143fe565b92915050565b6000602082019050818103600083015261496c8184614453565b905092915050565b600060208201905061498960008301846144b2565b92915050565b60006040820190506149a460008301856144b2565b6149b16020830184613f3e565b9392505050565b60006060820190506149cd60008301866144b2565b6149da6020830185613f3e565b6149e76040830184613f3e565b949350505050565b6000606082019050614a0460008301866144b2565b614a116020830185613f3e565b614a1e60408301846144b2565b949350505050565b6000606082019050614a3b60008301866144b2565b614a4860208301856144b2565b614a5560408301846144b2565b949350505050565b6000614a67614a78565b9050614a738282614ca5565b919050565b6000604051905090565b600067ffffffffffffffff821115614a9d57614a9c614d7d565b5b602082029050602081019050919050565b6000819050602082019050919050565b6000819050602082019050919050565b600081519050919050565b600081519050919050565b6000602082019050919050565b6000602082019050919050565b600082825260208201905092915050565b600082825260208201905092915050565b600082825260208201905092915050565b6000614b3c82614c53565b9150614b4783614c53565b9250827fffffffffffffffffffffffffffffffffffffffffffffffffffffffffffffffff03821115614b7c57614b7b614d1f565b5b828201905092915050565b6000614b9282614c53565b9150614b9d83614c53565b9250817fffffffffffffffffffffffffffffffffffffffffffffffffffffffffffffffff0483118215151615614bd657614bd5614d1f565b5b828202905092915050565b6000614bec82614c53565b9150614bf783614c53565b925082821015614c0a57614c09614d1f565b5b828203905092915050565b6000614c2082614c33565b9050919050565b60008115159050919050565b600073ffffffffffffffffffffffffffffffffffffffff82169050919050565b6000819050919050565b6000614c6882614c81565b9050919050565b6000614c7a82614c81565b9050919050565b6000614c8c82614c93565b9050919050565b6000614c9e82614c33565b9050919050565b614cae82614dc0565b810181811067ffffffffffffffff82111715614ccd57614ccc614d7d565b5b80604052505050565b6000614ce182614c53565b91507fffffffffffffffffffffffffffffffffffffffffffffffffffffffffffffffff821415614d1457614d13614d1f565b5b600182019050919050565b7f4e487b7100000000000000000000000000000000000000000000000000000000600052601160045260246000fd5b7f4e487b7100000000000000000000000000000000000000000000000000000000600052603260045260246000fd5b7f4e487b7100000000000000000000000000000000000000000000000000000000600052604160045260246000fd5b600080fd5b600080fd5b600080fd5b600080fd5b6000601f19601f8301169050919050565b7f53656c6c20646f6573206e6f7420657869737420666f722074686973204e4654600082015250565b7f41756374696f6e20646f6573206e6f7420657869737420666f7220746869732060008201527f4e46540000000000000000000000000000000000000000000000000000000000602082015250565b7f4465706f73697420616d6f756e74206d7573742062652067726561746572207460008201527f68616e2030000000000000000000000000000000000000000000000000000000602082015250565b7f5072696365206d7573742062652067726561746572207468616e207a65726f00600082015250565b7f4f776e61626c653a206e6577206f776e657220697320746865207a65726f206160008201527f6464726573730000000000000000000000000000000000000000000000000000602082015250565b7f5472616e73666572206661696c65640000000000000000000000000000000000600082015250565b7f54686973204e4654206973206e6f7420666f722073616c650000000000000000600082015250565b7f496e73756666696369656e742062616c616e6365000000000000000000000000600082015250565b7f596f7520646f6e2774206f776e2074686973204e465400000000000000000000600082015250565b7f4e4654206e6f7420696e2041756374696f6e0000000000000000000000000000600082015250565b7f496e76616c696420726563697069656e74206164647265737300000000000000600082015250565b7f4f776e61626c653a2063616c6c6572206973206e6f7420746865206f776e6572600082015250565b7f5769746864726177616c20616d6f756e74206d7573742062652067726561746560008201527f72207468616e2030000000000000000000000000000000000000000000000000602082015250565b7f54686973206d61726b657420646f6573206e6f74206578697374000000000000600082015250565b7f53656c6c65722063616e6e6f7420626520746865206275796572000000000000600082015250565b7f43616e6e6f74207472616e7366657220746f20796f757273656c660000000000600082015250565b7f596f752063616e27742062757920796f7572206f776e204e4654000000000000600082015250565b7f4e4654206e6f7420696e206d61726b6574000000000000000000000000000000600082015250565b7f496e76616c696420747261646520494400000000000000000000000000000000600082015250565b7f5472616e7366657220616d6f756e74206d75737420626520677265617465722060008201527f7468616e20300000000000000000000000000000000000000000000000000000602082015250565b7f5265656e7472616e637947756172643a207265656e7472616e742063616c6c00600082015250565b7f546869732061756374696f6e20646f6573206e6f742065786973740000000000600082015250565b61521e81614c15565b811461522957600080fd5b50565b61523581614c27565b811461524057600080fd5b50565b61524c81614c53565b811461525757600080fd5b5056fea26469706673582212205d503ee1028628319e33202d032491e8caf0e2af7afeedcfd674c424e88c300a64736f6c63430008070033",
  "immutableReferences": {},
  "source": "// SPDX-License-Identifier: MIT\r\npragma solidity ^0.8.7;\r\n\r\nimport \"./NFTAuction.sol\";\r\nimport \"./NFTMarket.sol\";\r\nimport \"./TradeBase.sol\";\r\n\r\ncontract IntegratedNFTSystem is NFTAuction, NFTMarket {\r\n    // \r\n    constructor(address _nftContractAddress, address _tokenContractAddress) {\r\n        initializeContracts(_nftContractAddress, _tokenContractAddress);\r\n        nftContract.setMainContractAddress(address(this));\r\n        tokenContract.setMainContractAddress(address(this));\r\n    }\r\n\r\n    //   NFT (   NFT)\r\n    function getAllContractOwnedNFTs() public view returns (uint256[] memory) {\r\n        return getContractOwnedNFTs();\r\n    }\r\n\r\n    //    ( )\r\n    function getTotalContractBalance() public view returns (uint256) {\r\n        return getContractBalance();\r\n    }\r\n\r\n    // NFT   \r\n    function getCombinedOwnedAssets() public view returns (uint256[] memory nftIds, uint256 totalCoins) {\r\n        uint256[] memory allNFTs = getAllContractOwnedNFTs();\r\n        uint256 totalBalance = getTotalContractBalance();\r\n\r\n        return (allNFTs, totalBalance);\r\n    }\r\n}",
  "sourcePath": "C:\\Users\\SSAFY\\Desktop\\semonemo\\backend\\blockchain-server\\smartcontract\\contracts\\System.sol",
  "compiler": {
    "name": "solc",
    "version": "0.8.7+commit.e28d00a7.Emscripten.clang"
  },
  "schemaVersion": "3.4.16",
  "updatedAt": "2024-10-07T06:34:55.072Z",
  "networkType": "ethereum",
  "devdoc": {
    "kind": "dev",
    "methods": {
      "owner()": {
        "details": "Returns the address of the current owner."
      },
      "renounceOwnership()": {
        "details": "Leaves the contract without owner. It will not be possible to call `onlyOwner` functions anymore. Can only be called by the current owner. NOTE: Renouncing ownership will leave the contract without an owner, thereby removing any functionality that is only available to the owner."
      },
      "transferOwnership(address)": {
        "details": "Transfers ownership of the contract to a new account (`newOwner`). Can only be called by the current owner."
      }
    },
    "version": 1
  },
  "userdoc": {
    "kind": "user",
    "methods": {},
    "version": 1
  }
}