{
  "contractName": "NFTAuction",
  "abi": [
    {
      "anonymous": false,
      "inputs": [
        {
          "indexed": true,
          "internalType": "uint256",
          "name": "nftId",
          "type": "uint256"
        },
        {
          "indexed": true,
          "internalType": "address",
          "name": "seller",
          "type": "address"
        }
      ],
      "name": "AuctionCancelled",
      "type": "event"
    },
    {
      "anonymous": false,
      "inputs": [
        {
          "indexed": true,
          "internalType": "uint256",
          "name": "nftId",
          "type": "uint256"
        },
        {
          "indexed": true,
          "internalType": "address",
          "name": "seller",
          "type": "address"
        },
        {
          "indexed": true,
          "internalType": "address",
          "name": "buyer",
          "type": "address"
        },
        {
          "indexed": false,
          "internalType": "uint256",
          "name": "price",
          "type": "uint256"
        }
      ],
      "name": "AuctionClosed",
      "type": "event"
    },
    {
      "anonymous": false,
      "inputs": [
        {
          "indexed": true,
          "internalType": "uint256",
          "name": "nftId",
          "type": "uint256"
        },
        {
          "indexed": true,
          "internalType": "address",
          "name": "seller",
          "type": "address"
        },
        {
          "indexed": false,
          "internalType": "uint256",
          "name": "price",
          "type": "uint256"
        }
      ],
      "name": "AuctionStarted",
      "type": "event"
    },
    {
      "anonymous": false,
      "inputs": [
        {
          "indexed": true,
          "internalType": "address",
          "name": "from",
          "type": "address"
        },
        {
          "indexed": true,
          "internalType": "address",
          "name": "to",
          "type": "address"
        },
        {
          "indexed": false,
          "internalType": "uint256",
          "name": "amount",
          "type": "uint256"
        }
      ],
      "name": "BalanceAdjusted",
      "type": "event"
    },
    {
      "anonymous": false,
      "inputs": [
        {
          "indexed": true,
          "internalType": "address",
          "name": "user",
          "type": "address"
        },
        {
          "indexed": false,
          "internalType": "uint256",
          "name": "amount",
          "type": "uint256"
        }
      ],
      "name": "Deposit",
      "type": "event"
    },
    {
      "anonymous": false,
      "inputs": [
        {
          "indexed": true,
          "internalType": "address",
          "name": "previousOwner",
          "type": "address"
        },
        {
          "indexed": true,
          "internalType": "address",
          "name": "newOwner",
          "type": "address"
        }
      ],
      "name": "OwnershipTransferred",
      "type": "event"
    },
    {
      "anonymous": false,
      "inputs": [
        {
          "indexed": true,
          "internalType": "address",
          "name": "user",
          "type": "address"
        },
        {
          "indexed": false,
          "internalType": "uint256",
          "name": "amount",
          "type": "uint256"
        }
      ],
      "name": "Withdrawal",
      "type": "event"
    },
    {
      "inputs": [
        {
          "internalType": "uint256",
          "name": "",
          "type": "uint256"
        }
      ],
      "name": "auctions",
      "outputs": [
        {
          "internalType": "uint256",
          "name": "nftId",
          "type": "uint256"
        },
        {
          "internalType": "address",
          "name": "seller",
          "type": "address"
        },
        {
          "internalType": "uint256",
          "name": "price",
          "type": "uint256"
        }
      ],
      "stateMutability": "view",
      "type": "function"
    },
    {
      "inputs": [
        {
          "internalType": "uint256",
          "name": "amount",
          "type": "uint256"
        }
      ],
      "name": "deposit",
      "outputs": [],
      "stateMutability": "nonpayable",
      "type": "function"
    },
    {
      "inputs": [],
      "name": "getContractBalance",
      "outputs": [
        {
          "internalType": "uint256",
          "name": "",
          "type": "uint256"
        }
      ],
      "stateMutability": "view",
      "type": "function"
    },
    {
      "inputs": [],
      "name": "getContractOwnedNFTs",
      "outputs": [
        {
          "internalType": "uint256[]",
          "name": "",
          "type": "uint256[]"
        }
      ],
      "stateMutability": "view",
      "type": "function"
    },
    {
      "inputs": [
        {
          "internalType": "address",
          "name": "user",
          "type": "address"
        }
      ],
      "name": "getUserBalance",
      "outputs": [
        {
          "internalType": "uint256",
          "name": "",
          "type": "uint256"
        }
      ],
      "stateMutability": "view",
      "type": "function"
    },
    {
      "inputs": [],
      "name": "nftContract",
      "outputs": [
        {
          "internalType": "contract NFTFrame",
          "name": "",
          "type": "address"
        }
      ],
      "stateMutability": "view",
      "type": "function"
    },
    {
      "inputs": [],
      "name": "owner",
      "outputs": [
        {
          "internalType": "address",
          "name": "",
          "type": "address"
        }
      ],
      "stateMutability": "view",
      "type": "function"
    },
    {
      "inputs": [],
      "name": "renounceOwnership",
      "outputs": [],
      "stateMutability": "nonpayable",
      "type": "function"
    },
    {
      "inputs": [],
      "name": "tokenContract",
      "outputs": [
        {
          "internalType": "contract AhoraCoin",
          "name": "",
          "type": "address"
        }
      ],
      "stateMutability": "view",
      "type": "function"
    },
    {
      "inputs": [
        {
          "internalType": "address",
          "name": "newOwner",
          "type": "address"
        }
      ],
      "name": "transferOwnership",
      "outputs": [],
      "stateMutability": "nonpayable",
      "type": "function"
    },
    {
      "inputs": [
        {
          "internalType": "uint256",
          "name": "amount",
          "type": "uint256"
        }
      ],
      "name": "withdraw",
      "outputs": [],
      "stateMutability": "nonpayable",
      "type": "function"
    },
    {
      "inputs": [
        {
          "internalType": "uint256",
          "name": "_nftId",
          "type": "uint256"
        },
        {
          "internalType": "uint256",
          "name": "price",
          "type": "uint256"
        }
      ],
      "name": "startAuction",
      "outputs": [],
      "stateMutability": "nonpayable",
      "type": "function"
    },
    {
      "inputs": [
        {
          "internalType": "uint256",
          "name": "_nftId",
          "type": "uint256"
        }
      ],
      "name": "cancelAuction",
      "outputs": [],
      "stateMutability": "nonpayable",
      "type": "function"
    },
    {
      "inputs": [
        {
          "internalType": "uint256",
          "name": "_nftId",
          "type": "uint256"
        },
        {
          "internalType": "address",
          "name": "buyer",
          "type": "address"
        }
      ],
      "name": "closeAuction",
      "outputs": [],
      "stateMutability": "nonpayable",
      "type": "function"
    },
    {
      "inputs": [
        {
          "internalType": "uint256",
          "name": "_nftId",
          "type": "uint256"
        }
      ],
      "name": "getAuctionInfo",
      "outputs": [
        {
          "components": [
            {
              "internalType": "uint256",
              "name": "nftId",
              "type": "uint256"
            },
            {
              "internalType": "address",
              "name": "seller",
              "type": "address"
            },
            {
              "internalType": "uint256",
              "name": "price",
              "type": "uint256"
            }
          ],
          "internalType": "struct NFTAuction.Auction",
          "name": "",
          "type": "tuple"
        }
      ],
      "stateMutability": "view",
      "type": "function"
    }
  ],
  "bytecode": "0x60806040523480156200001157600080fd5b5062000032620000266200003f60201b60201c565b6200004760201b60201c565b600180819055506200010b565b600033905090565b60008060009054906101000a900473ffffffffffffffffffffffffffffffffffffffff169050816000806101000a81548173ffffffffffffffffffffffffffffffffffffffff021916908373ffffffffffffffffffffffffffffffffffffffff1602179055508173ffffffffffffffffffffffffffffffffffffffff168173ffffffffffffffffffffffffffffffffffffffff167f8be0079c531659141344cd1fd0a4f28419497f9722a3daafe3b4186f6b6457e060405160405180910390a35050565b61297a806200011b6000396000f3fe608060405234801561001057600080fd5b50600436106100f55760003560e01c8063715018a611610097578063d3e6fa1911610066578063d3e6fa191461024c578063d56d229d1461026a578063f2fde38b14610288578063fc3fc4ed146102a4576100f5565b8063715018a6146101ec5780638da5cb5b146101f657806396b5a75514610214578063b6b55f2514610230576100f5565b806355a373d6116100d357806355a373d614610162578063571a26a0146101805780636bab66ae146101b25780636f9fb98a146101ce576100f5565b80632e1a7d4d146100fa57806347734892146101165780634fee13fc14610146575b600080fd5b610114600480360381019061010f9190611c8a565b6102d4565b005b610130600480360381019061012b9190611bba565b610583565b60405161013d919061230e565b60405180910390f35b610160600480360381019061015b9190611d24565b6105cc565b005b61016a610902565b60405161017791906120fd565b60405180910390f35b61019a60048036038101906101959190611c8a565b610928565b6040516101a993929190612389565b60405180910390f35b6101cc60048036038101906101c79190611ce4565b610972565b005b6101d6610db1565b6040516101e3919061230e565b60405180910390f35b6101f4610e63565b005b6101fe610eeb565b60405161020b9190612060565b60405180910390f35b61022e60048036038101906102299190611c8a565b610f14565b005b61024a60048036038101906102459190611c8a565b611303565b005b610254611532565b60405161026191906120db565b60405180910390f35b6102726115e9565b60405161027f9190612118565b60405180910390f35b6102a2600480360381019061029d9190611bba565b61160f565b005b6102be60048036038101906102b99190611c8a565b611707565b6040516102cb91906122f3565b60405180910390f35b6002600154141561031a576040517f08c379a0000000000000000000000000000000000000000000000000000000008152600401610311906122b3565b60405180910390fd5b600260018190555060008111610365576040517f08c379a000000000000000000000000000000000000000000000000000000000815260040161035c90612253565b60405180910390fd5b80600460003373ffffffffffffffffffffffffffffffffffffffff1673ffffffffffffffffffffffffffffffffffffffff1681526020019081526020016000205410156103e7576040517f08c379a00000000000000000000000000000000000000000000000000000000081526004016103de906121d3565b60405180910390fd5b80600460003373ffffffffffffffffffffffffffffffffffffffff1673ffffffffffffffffffffffffffffffffffffffff168152602001908152602001600020600082825461043691906124b1565b92505081905550600360009054906101000a900473ffffffffffffffffffffffffffffffffffffffff1673ffffffffffffffffffffffffffffffffffffffff16631b33a8db33836040518363ffffffff1660e01b815260040161049a9291906120b2565b602060405180830381600087803b1580156104b457600080fd5b505af11580156104c8573d6000803e3d6000fd5b505050506040513d601f19601f820116820180604052508101906104ec9190611c5d565b61052b576040517f08c379a0000000000000000000000000000000000000000000000000000000008152600401610522906121b3565b60405180910390fd5b3373ffffffffffffffffffffffffffffffffffffffff167f7fcf532c15f0a6db0bd6d0e038bea71d30d808c7d98cb3bf7268a95bf5081b6582604051610571919061230e565b60405180910390a26001808190555050565b6000600460008373ffffffffffffffffffffffffffffffffffffffff1673ffffffffffffffffffffffffffffffffffffffff168152602001908152602001600020549050919050565b60026001541415610612576040517f08c379a0000000000000000000000000000000000000000000000000000000008152600401610609906122b3565b60405180910390fd5b60026001819055503373ffffffffffffffffffffffffffffffffffffffff16600260009054906101000a900473ffffffffffffffffffffffffffffffffffffffff1673ffffffffffffffffffffffffffffffffffffffff16636352211e846040518263ffffffff1660e01b815260040161068c919061230e565b60206040518083038186803b1580156106a457600080fd5b505afa1580156106b8573d6000803e3d6000fd5b505050506040513d601f19601f820116820180604052508101906106dc9190611be7565b73ffffffffffffffffffffffffffffffffffffffff1614610732576040517f08c379a0000000000000000000000000000000000000000000000000000000008152600401610729906121f3565b60405180910390fd5b60008111610775576040517f08c379a000000000000000000000000000000000000000000000000000000000815260040161076c90612173565b60405180910390fd5b600260009054906101000a900473ffffffffffffffffffffffffffffffffffffffff1673ffffffffffffffffffffffffffffffffffffffff16634f89cea68333306040518463ffffffff1660e01b81526004016107d493929190612352565b600060405180830381600087803b1580156107ee57600080fd5b505af1158015610802573d6000803e3d6000fd5b5050505060405180606001604052808381526020013373ffffffffffffffffffffffffffffffffffffffff16815260200182815250600560008481526020019081526020016000206000820151816000015560208201518160010160006101000a81548173ffffffffffffffffffffffffffffffffffffffff021916908373ffffffffffffffffffffffffffffffffffffffff160217905550604082015181600201559050503373ffffffffffffffffffffffffffffffffffffffff16827fd7d053b3d3fc9e8145896f8940adeb377f6735866f2161ef1660dae9f0492475836040516108ef919061230e565b60405180910390a3600180819055505050565b600360009054906101000a900473ffffffffffffffffffffffffffffffffffffffff1681565b60056020528060005260406000206000915090508060000154908060010160009054906101000a900473ffffffffffffffffffffffffffffffffffffffff16908060020154905083565b600260015414156109b8576040517f08c379a00000000000000000000000000000000000000000000000000000000081526004016109af906122b3565b60405180910390fd5b60026001819055506109c8611818565b73ffffffffffffffffffffffffffffffffffffffff166109e6610eeb565b73ffffffffffffffffffffffffffffffffffffffff1614610a3c576040517f08c379a0000000000000000000000000000000000000000000000000000000008152600401610a3390612233565b60405180910390fd5b6000600560008481526020019081526020016000209050600073ffffffffffffffffffffffffffffffffffffffff168160010160009054906101000a900473ffffffffffffffffffffffffffffffffffffffff1673ffffffffffffffffffffffffffffffffffffffff161415610ae7576040517f08c379a0000000000000000000000000000000000000000000000000000000008152600401610ade906122d3565b60405180910390fd5b8060010160009054906101000a900473ffffffffffffffffffffffffffffffffffffffff1673ffffffffffffffffffffffffffffffffffffffff168273ffffffffffffffffffffffffffffffffffffffff161415610b7a576040517f08c379a0000000000000000000000000000000000000000000000000000000008152600401610b7190612273565b60405180910390fd5b60008160020154905060008260010160009054906101000a900473ffffffffffffffffffffffffffffffffffffffff16905081610bb685610583565b1015610bf7576040517f08c379a0000000000000000000000000000000000000000000000000000000008152600401610bee906121d3565b60405180910390fd5b610c02848284611820565b600260009054906101000a900473ffffffffffffffffffffffffffffffffffffffff1673ffffffffffffffffffffffffffffffffffffffff16639036c05086866040518363ffffffff1660e01b8152600401610c5f929190612329565b602060405180830381600087803b158015610c7957600080fd5b505af1158015610c8d573d6000803e3d6000fd5b505050506040513d601f19601f82011682018060405250810190610cb19190611c5d565b610cf0576040517f08c379a0000000000000000000000000000000000000000000000000000000008152600401610ce790612293565b60405180910390fd5b600560008681526020019081526020016000206000808201600090556001820160006101000a81549073ffffffffffffffffffffffffffffffffffffffff0219169055600282016000905550508373ffffffffffffffffffffffffffffffffffffffff168173ffffffffffffffffffffffffffffffffffffffff16867f7787e67b4b8529b1aa2c1a59dbf0f0e766d63860956b86f33f5d87008823550185604051610d9b919061230e565b60405180910390a4505050600180819055505050565b6000600360009054906101000a900473ffffffffffffffffffffffffffffffffffffffff1673ffffffffffffffffffffffffffffffffffffffff166370a08231306040518263ffffffff1660e01b8152600401610e0e9190612060565b60206040518083038186803b158015610e2657600080fd5b505afa158015610e3a573d6000803e3d6000fd5b505050506040513d601f19601f82011682018060405250810190610e5e9190611cb7565b905090565b610e6b611818565b73ffffffffffffffffffffffffffffffffffffffff16610e89610eeb565b73ffffffffffffffffffffffffffffffffffffffff1614610edf576040517f08c379a0000000000000000000000000000000000000000000000000000000008152600401610ed690612233565b60405180910390fd5b610ee960006119b8565b565b60008060009054906101000a900473ffffffffffffffffffffffffffffffffffffffff16905090565b60026001541415610f5a576040517f08c379a0000000000000000000000000000000000000000000000000000000008152600401610f51906122b3565b60405180910390fd5b600260018190555060006005600083815260200190815260200160002090503073ffffffffffffffffffffffffffffffffffffffff16600260009054906101000a900473ffffffffffffffffffffffffffffffffffffffff1673ffffffffffffffffffffffffffffffffffffffff16636352211e846040518263ffffffff1660e01b8152600401610feb919061230e565b60206040518083038186803b15801561100357600080fd5b505afa158015611017573d6000803e3d6000fd5b505050506040513d601f19601f8201168201806040525081019061103b9190611be7565b73ffffffffffffffffffffffffffffffffffffffff1614611091576040517f08c379a000000000000000000000000000000000000000000000000000000000815260040161108890612213565b60405180910390fd5b3373ffffffffffffffffffffffffffffffffffffffff168160010160009054906101000a900473ffffffffffffffffffffffffffffffffffffffff1673ffffffffffffffffffffffffffffffffffffffff1614611123576040517f08c379a000000000000000000000000000000000000000000000000000000000815260040161111a906121f3565b60405180910390fd5b600073ffffffffffffffffffffffffffffffffffffffff168160010160009054906101000a900473ffffffffffffffffffffffffffffffffffffffff1673ffffffffffffffffffffffffffffffffffffffff1614156111b7576040517f08c379a00000000000000000000000000000000000000000000000000000000081526004016111ae906122d3565b60405180910390fd5b600260009054906101000a900473ffffffffffffffffffffffffffffffffffffffff1673ffffffffffffffffffffffffffffffffffffffff16639036c05083336040518363ffffffff1660e01b8152600401611214929190612329565b602060405180830381600087803b15801561122e57600080fd5b505af1158015611242573d6000803e3d6000fd5b505050506040513d601f19601f820116820180604052508101906112669190611c5d565b50600560008381526020019081526020016000206000808201600090556001820160006101000a81549073ffffffffffffffffffffffffffffffffffffffff0219169055600282016000905550503373ffffffffffffffffffffffffffffffffffffffff16827f10ac9f0bb365b5d22d7bec500408692f23fdf83eadfec71615ef88b4c1134f0e60405160405180910390a3506001808190555050565b60026001541415611349576040517f08c379a0000000000000000000000000000000000000000000000000000000008152600401611340906122b3565b60405180910390fd5b600260018190555060008111611394576040517f08c379a000000000000000000000000000000000000000000000000000000000815260040161138b90612153565b60405180910390fd5b600360009054906101000a900473ffffffffffffffffffffffffffffffffffffffff1673ffffffffffffffffffffffffffffffffffffffff1663f67ac38c3330846040518463ffffffff1660e01b81526004016113f39392919061207b565b602060405180830381600087803b15801561140d57600080fd5b505af1158015611421573d6000803e3d6000fd5b505050506040513d601f19601f820116820180604052508101906114459190611c5d565b611484576040517f08c379a000000000000000000000000000000000000000000000000000000000815260040161147b906121b3565b60405180910390fd5b80600460003373ffffffffffffffffffffffffffffffffffffffff1673ffffffffffffffffffffffffffffffffffffffff16815260200190815260200160002060008282546114d3919061245b565b925050819055503373ffffffffffffffffffffffffffffffffffffffff167fe1fffcc4923d04b559f4d29a8bfc6cda04eb5b0d3c460751c2402c5c5cc9109c82604051611520919061230e565b60405180910390a26001808190555050565b6060600260009054906101000a900473ffffffffffffffffffffffffffffffffffffffff1673ffffffffffffffffffffffffffffffffffffffff1663e6b1fa2a306040518263ffffffff1660e01b815260040161158f9190612060565b60006040518083038186803b1580156115a757600080fd5b505afa1580156115bb573d6000803e3d6000fd5b505050506040513d6000823e3d601f19601f820116820180604052508101906115e49190611c14565b905090565b600260009054906101000a900473ffffffffffffffffffffffffffffffffffffffff1681565b611617611818565b73ffffffffffffffffffffffffffffffffffffffff16611635610eeb565b73ffffffffffffffffffffffffffffffffffffffff161461168b576040517f08c379a000000000000000000000000000000000000000000000000000000000815260040161168290612233565b60405180910390fd5b600073ffffffffffffffffffffffffffffffffffffffff168173ffffffffffffffffffffffffffffffffffffffff1614156116fb576040517f08c379a00000000000000000000000000000000000000000000000000000000081526004016116f290612193565b60405180910390fd5b611704816119b8565b50565b61170f611a7c565b600060056000848152602001908152602001600020604051806060016040529081600082015481526020016001820160009054906101000a900473ffffffffffffffffffffffffffffffffffffffff1673ffffffffffffffffffffffffffffffffffffffff1673ffffffffffffffffffffffffffffffffffffffff1681526020016002820154815250509050600073ffffffffffffffffffffffffffffffffffffffff16816020015173ffffffffffffffffffffffffffffffffffffffff16141561180f576040517f08c379a000000000000000000000000000000000000000000000000000000000815260040161180690612133565b60405180910390fd5b80915050919050565b600033905090565b80600460008573ffffffffffffffffffffffffffffffffffffffff1673ffffffffffffffffffffffffffffffffffffffff1681526020019081526020016000205410156118a2576040517f08c379a0000000000000000000000000000000000000000000000000000000008152600401611899906121d3565b60405180910390fd5b80600460008573ffffffffffffffffffffffffffffffffffffffff1673ffffffffffffffffffffffffffffffffffffffff16815260200190815260200160002060008282546118f191906124b1565b9250508190555080600460008473ffffffffffffffffffffffffffffffffffffffff1673ffffffffffffffffffffffffffffffffffffffff1681526020019081526020016000206000828254611947919061245b565b925050819055508173ffffffffffffffffffffffffffffffffffffffff168373ffffffffffffffffffffffffffffffffffffffff167f69d14b96c06609a8976851e9503b0a6b1c60b96a8ba6e5a1a313e8a290138e15836040516119ab919061230e565b60405180910390a3505050565b60008060009054906101000a900473ffffffffffffffffffffffffffffffffffffffff169050816000806101000a81548173ffffffffffffffffffffffffffffffffffffffff021916908373ffffffffffffffffffffffffffffffffffffffff1602179055508173ffffffffffffffffffffffffffffffffffffffff168173ffffffffffffffffffffffffffffffffffffffff167f8be0079c531659141344cd1fd0a4f28419497f9722a3daafe3b4186f6b6457e060405160405180910390a35050565b604051806060016040528060008152602001600073ffffffffffffffffffffffffffffffffffffffff168152602001600081525090565b6000611ac6611ac1846123e5565b6123c0565b90508083825260208201905082856020860282011115611ae957611ae8612609565b5b60005b85811015611b195781611aff8882611ba5565b845260208401935060208301925050600181019050611aec565b5050509392505050565b600081359050611b32816128ff565b92915050565b600081519050611b47816128ff565b92915050565b600082601f830112611b6257611b61612604565b5b8151611b72848260208601611ab3565b91505092915050565b600081519050611b8a81612916565b92915050565b600081359050611b9f8161292d565b92915050565b600081519050611bb48161292d565b92915050565b600060208284031215611bd057611bcf612613565b5b6000611bde84828501611b23565b91505092915050565b600060208284031215611bfd57611bfc612613565b5b6000611c0b84828501611b38565b91505092915050565b600060208284031215611c2a57611c29612613565b5b600082015167ffffffffffffffff811115611c4857611c4761260e565b5b611c5484828501611b4d565b91505092915050565b600060208284031215611c7357611c72612613565b5b6000611c8184828501611b7b565b91505092915050565b600060208284031215611ca057611c9f612613565b5b6000611cae84828501611b90565b91505092915050565b600060208284031215611ccd57611ccc612613565b5b6000611cdb84828501611ba5565b91505092915050565b60008060408385031215611cfb57611cfa612613565b5b6000611d0985828601611b90565b9250506020611d1a85828601611b23565b9150509250929050565b60008060408385031215611d3b57611d3a612613565b5b6000611d4985828601611b90565b9250506020611d5a85828601611b90565b9150509250929050565b6000611d708383612042565b60208301905092915050565b611d85816124e5565b82525050565b611d94816124e5565b82525050565b6000611da582612421565b611daf8185612439565b9350611dba83612411565b8060005b83811015611deb578151611dd28882611d64565b9750611ddd8361242c565b925050600181019050611dbe565b5085935050505092915050565b611e018161252d565b82525050565b611e108161253f565b82525050565b6000611e2360238361244a565b9150611e2e82612629565b604082019050919050565b6000611e4660258361244a565b9150611e5182612678565b604082019050919050565b6000611e69601f8361244a565b9150611e74826126c7565b602082019050919050565b6000611e8c60268361244a565b9150611e97826126f0565b604082019050919050565b6000611eaf600f8361244a565b9150611eba8261273f565b602082019050919050565b6000611ed260148361244a565b9150611edd82612768565b602082019050919050565b6000611ef560168361244a565b9150611f0082612791565b602082019050919050565b6000611f1860128361244a565b9150611f23826127ba565b602082019050919050565b6000611f3b60208361244a565b9150611f46826127e3565b602082019050919050565b6000611f5e60288361244a565b9150611f698261280c565b604082019050919050565b6000611f81601a8361244a565b9150611f8c8261285b565b602082019050919050565b6000611fa460138361244a565b9150611faf82612884565b602082019050919050565b6000611fc7601f8361244a565b9150611fd2826128ad565b602082019050919050565b6000611fea601b8361244a565b9150611ff5826128d6565b602082019050919050565b6060820160008201516120166000850182612042565b5060208201516120296020850182611d7c565b50604082015161203c6040850182612042565b50505050565b61204b81612523565b82525050565b61205a81612523565b82525050565b60006020820190506120756000830184611d8b565b92915050565b60006060820190506120906000830186611d8b565b61209d6020830185611d8b565b6120aa6040830184612051565b949350505050565b60006040820190506120c76000830185611d8b565b6120d46020830184612051565b9392505050565b600060208201905081810360008301526120f58184611d9a565b905092915050565b60006020820190506121126000830184611df8565b92915050565b600060208201905061212d6000830184611e07565b92915050565b6000602082019050818103600083015261214c81611e16565b9050919050565b6000602082019050818103600083015261216c81611e39565b9050919050565b6000602082019050818103600083015261218c81611e5c565b9050919050565b600060208201905081810360008301526121ac81611e7f565b9050919050565b600060208201905081810360008301526121cc81611ea2565b9050919050565b600060208201905081810360008301526121ec81611ec5565b9050919050565b6000602082019050818103600083015261220c81611ee8565b9050919050565b6000602082019050818103600083015261222c81611f0b565b9050919050565b6000602082019050818103600083015261224c81611f2e565b9050919050565b6000602082019050818103600083015261226c81611f51565b9050919050565b6000602082019050818103600083015261228c81611f74565b9050919050565b600060208201905081810360008301526122ac81611f97565b9050919050565b600060208201905081810360008301526122cc81611fba565b9050919050565b600060208201905081810360008301526122ec81611fdd565b9050919050565b60006060820190506123086000830184612000565b92915050565b60006020820190506123236000830184612051565b92915050565b600060408201905061233e6000830185612051565b61234b6020830184611d8b565b9392505050565b60006060820190506123676000830186612051565b6123746020830185611d8b565b6123816040830184611d8b565b949350505050565b600060608201905061239e6000830186612051565b6123ab6020830185611d8b565b6123b86040830184612051565b949350505050565b60006123ca6123db565b90506123d68282612575565b919050565b6000604051905090565b600067ffffffffffffffff821115612400576123ff6125d5565b5b602082029050602081019050919050565b6000819050602082019050919050565b600081519050919050565b6000602082019050919050565b600082825260208201905092915050565b600082825260208201905092915050565b600061246682612523565b915061247183612523565b9250827fffffffffffffffffffffffffffffffffffffffffffffffffffffffffffffffff038211156124a6576124a56125a6565b5b828201905092915050565b60006124bc82612523565b91506124c783612523565b9250828210156124da576124d96125a6565b5b828203905092915050565b60006124f082612503565b9050919050565b60008115159050919050565b600073ffffffffffffffffffffffffffffffffffffffff82169050919050565b6000819050919050565b600061253882612551565b9050919050565b600061254a82612551565b9050919050565b600061255c82612563565b9050919050565b600061256e82612503565b9050919050565b61257e82612618565b810181811067ffffffffffffffff8211171561259d5761259c6125d5565b5b80604052505050565b7f4e487b7100000000000000000000000000000000000000000000000000000000600052601160045260246000fd5b7f4e487b7100000000000000000000000000000000000000000000000000000000600052604160045260246000fd5b600080fd5b600080fd5b600080fd5b600080fd5b6000601f19601f8301169050919050565b7f41756374696f6e20646f6573206e6f7420657869737420666f7220746869732060008201527f4e46540000000000000000000000000000000000000000000000000000000000602082015250565b7f4465706f73697420616d6f756e74206d7573742062652067726561746572207460008201527f68616e2030000000000000000000000000000000000000000000000000000000602082015250565b7f5072696365206d7573742062652067726561746572207468616e207a65726f00600082015250565b7f4f776e61626c653a206e6577206f776e657220697320746865207a65726f206160008201527f6464726573730000000000000000000000000000000000000000000000000000602082015250565b7f5472616e73666572206661696c65640000000000000000000000000000000000600082015250565b7f496e73756666696369656e742062616c616e6365000000000000000000000000600082015250565b7f596f7520646f6e2774206f776e2074686973204e465400000000000000000000600082015250565b7f4e4654206e6f7420696e2041756374696f6e0000000000000000000000000000600082015250565b7f4f776e61626c653a2063616c6c6572206973206e6f7420746865206f776e6572600082015250565b7f5769746864726177616c20616d6f756e74206d7573742062652067726561746560008201527f72207468616e2030000000000000000000000000000000000000000000000000602082015250565b7f53656c6c65722063616e6e6f7420626520746865206275796572000000000000600082015250565b7f4e4654207472616e73666572206661696c656400000000000000000000000000600082015250565b7f5265656e7472616e637947756172643a207265656e7472616e742063616c6c00600082015250565b7f546869732061756374696f6e20646f6573206e6f742065786973740000000000600082015250565b612908816124e5565b811461291357600080fd5b50565b61291f816124f7565b811461292a57600080fd5b50565b61293681612523565b811461294157600080fd5b5056fea2646970667358221220beadb403af8c83cba12ba55839610c3a4ee1e992e5df23fa0bef6f882038c47764736f6c63430008070033",
  "immutableReferences": {},
  "source": "// SPDX-License-Identifier: MIT\r\npragma solidity ^0.8.7;\r\n\r\nimport \"./TradeBase.sol\";\r\n\r\ncontract NFTAuction is TradeBase {\r\n    struct Auction {\r\n        uint256 nftId;\r\n        address seller;\r\n        uint256 price;\r\n    }\r\n\r\n    mapping(uint256 => Auction) public auctions;\r\n\r\n    event AuctionStarted(uint256 indexed nftId, address indexed seller, uint256 price);\r\n    event AuctionCancelled(uint256 indexed nftId, address indexed seller);\r\n    event AuctionClosed(uint256 indexed nftId, address indexed seller, address indexed buyer, uint256 price);\r\n\r\n    //   \r\n    function startAuction(uint256 _nftId, uint256 price) external nonReentrant {\r\n        require(nftContract.ownerOf(_nftId) == msg.sender, \"You don't own this NFT\");\r\n        require(price > 0, \"Price must be greater than zero\");\r\n        \r\n        nftContract.transferNFTUserToSystem(_nftId, msg.sender, address(this));\r\n\r\n        auctions[_nftId] = Auction({\r\n            nftId: _nftId,\r\n            seller: msg.sender,\r\n            price: price\r\n        });\r\n\r\n        emit AuctionStarted(_nftId, msg.sender, price);\r\n    }\r\n\r\n    //    \r\n    function cancelAuction(uint256 _nftId) external nonReentrant {\r\n        Auction storage auction = auctions[_nftId];\r\n        require(nftContract.ownerOf(_nftId) == address(this), \"NFT not in Auction\");\r\n        require(auction.seller == msg.sender, \"You don't own this NFT\");\r\n        require(auction.seller != address(0), \"This auction does not exist\");\r\n        \r\n        nftContract.transferNFT(_nftId, msg.sender);\r\n\r\n        delete auctions[_nftId];\r\n\r\n        emit AuctionCancelled(_nftId, msg.sender);\r\n    }\r\n\r\n    //    ( )\r\n    function closeAuction(uint256 _nftId, address buyer) external nonReentrant onlyOwner {\r\n        Auction storage auction = auctions[_nftId];\r\n        require(auction.seller != address(0), \"This auction does not exist\");\r\n        require(buyer != auction.seller, \"Seller cannot be the buyer\");\r\n\r\n        uint256 price = auction.price;\r\n        address seller = auction.seller;\r\n\r\n        require(getUserBalance(buyer) >= price, \"Insufficient balance\");\r\n\r\n        _adjustBalances(buyer, seller, price);\r\n\r\n        require(nftContract.transferNFT(_nftId, buyer), \"NFT transfer failed\");\r\n\r\n        delete auctions[_nftId];\r\n\r\n        emit AuctionClosed(_nftId, seller, buyer, price);\r\n    }\r\n\r\n    function getAuctionInfo(uint256 _nftId) public view returns (Auction memory) {\r\n        Auction memory auction = auctions[_nftId];\r\n        require(auction.seller != address(0), \"Auction does not exist for this NFT\");\r\n        return auction;\r\n    }\r\n}",
  "sourcePath": "C:\\Users\\SSAFY\\Desktop\\semonemo\\backend\\blockchain-server\\smartcontract\\contracts\\NFTAuction.sol",
  "compiler": {
    "name": "solc",
    "version": "0.8.7+commit.e28d00a7.Emscripten.clang"
  },
  "schemaVersion": "3.4.16",
  "updatedAt": "2024-09-23T01:45:14.764Z",
  "devdoc": {
    "kind": "dev",
    "methods": {
      "owner()": {
        "details": "Returns the address of the current owner."
      },
      "renounceOwnership()": {
        "details": "Leaves the contract without owner. It will not be possible to call `onlyOwner` functions anymore. Can only be called by the current owner. NOTE: Renouncing ownership will leave the contract without an owner, thereby removing any functionality that is only available to the owner."
      },
      "transferOwnership(address)": {
        "details": "Transfers ownership of the contract to a new account (`newOwner`). Can only be called by the current owner."
      }
    },
    "version": 1
  },
  "userdoc": {
    "kind": "user",
    "methods": {},
    "version": 1
  }
}