{
  "contractName": "NFTAuction",
  "abi": [
    {
      "anonymous": false,
      "inputs": [
        {
          "indexed": true,
          "internalType": "uint256",
          "name": "nftId",
          "type": "uint256"
        },
        {
          "indexed": true,
          "internalType": "address",
          "name": "seller",
          "type": "address"
        }
      ],
      "name": "AuctionCancelled",
      "type": "event"
    },
    {
      "anonymous": false,
      "inputs": [
        {
          "indexed": true,
          "internalType": "uint256",
          "name": "nftId",
          "type": "uint256"
        },
        {
          "indexed": true,
          "internalType": "address",
          "name": "seller",
          "type": "address"
        },
        {
          "indexed": true,
          "internalType": "address",
          "name": "buyer",
          "type": "address"
        },
        {
          "indexed": false,
          "internalType": "uint256",
          "name": "price",
          "type": "uint256"
        }
      ],
      "name": "AuctionClosed",
      "type": "event"
    },
    {
      "anonymous": false,
      "inputs": [
        {
          "indexed": true,
          "internalType": "uint256",
          "name": "nftId",
          "type": "uint256"
        },
        {
          "indexed": true,
          "internalType": "address",
          "name": "seller",
          "type": "address"
        },
        {
          "indexed": false,
          "internalType": "uint256",
          "name": "price",
          "type": "uint256"
        }
      ],
      "name": "AuctionStarted",
      "type": "event"
    },
    {
      "anonymous": false,
      "inputs": [
        {
          "indexed": true,
          "internalType": "address",
          "name": "from",
          "type": "address"
        },
        {
          "indexed": true,
          "internalType": "address",
          "name": "to",
          "type": "address"
        },
        {
          "indexed": false,
          "internalType": "uint256",
          "name": "amount",
          "type": "uint256"
        }
      ],
      "name": "BalanceAdjusted",
      "type": "event"
    },
    {
      "anonymous": false,
      "inputs": [
        {
          "indexed": true,
          "internalType": "address",
          "name": "from",
          "type": "address"
        },
        {
          "indexed": true,
          "internalType": "address",
          "name": "to",
          "type": "address"
        },
        {
          "indexed": false,
          "internalType": "uint256",
          "name": "amount",
          "type": "uint256"
        }
      ],
      "name": "BalanceTransferred",
      "type": "event"
    },
    {
      "anonymous": false,
      "inputs": [
        {
          "indexed": true,
          "internalType": "address",
          "name": "user",
          "type": "address"
        },
        {
          "indexed": false,
          "internalType": "uint256",
          "name": "amount",
          "type": "uint256"
        }
      ],
      "name": "Deposit",
      "type": "event"
    },
    {
      "anonymous": false,
      "inputs": [
        {
          "indexed": true,
          "internalType": "address",
          "name": "previousOwner",
          "type": "address"
        },
        {
          "indexed": true,
          "internalType": "address",
          "name": "newOwner",
          "type": "address"
        }
      ],
      "name": "OwnershipTransferred",
      "type": "event"
    },
    {
      "anonymous": false,
      "inputs": [
        {
          "indexed": true,
          "internalType": "uint256",
          "name": "tradeId",
          "type": "uint256"
        },
        {
          "indexed": false,
          "internalType": "address",
          "name": "from",
          "type": "address"
        },
        {
          "indexed": false,
          "internalType": "address",
          "name": "to",
          "type": "address"
        },
        {
          "indexed": false,
          "internalType": "uint256",
          "name": "amount",
          "type": "uint256"
        },
        {
          "indexed": false,
          "internalType": "uint256",
          "name": "timestamp",
          "type": "uint256"
        }
      ],
      "name": "TradeRecorded",
      "type": "event"
    },
    {
      "anonymous": false,
      "inputs": [
        {
          "indexed": true,
          "internalType": "address",
          "name": "user",
          "type": "address"
        },
        {
          "indexed": false,
          "internalType": "uint256",
          "name": "amount",
          "type": "uint256"
        }
      ],
      "name": "Withdrawal",
      "type": "event"
    },
    {
      "inputs": [
        {
          "internalType": "uint256",
          "name": "",
          "type": "uint256"
        }
      ],
      "name": "auctions",
      "outputs": [
        {
          "internalType": "uint256",
          "name": "nftId",
          "type": "uint256"
        },
        {
          "internalType": "address",
          "name": "seller",
          "type": "address"
        },
        {
          "internalType": "uint256",
          "name": "price",
          "type": "uint256"
        }
      ],
      "stateMutability": "view",
      "type": "function"
    },
    {
      "inputs": [
        {
          "internalType": "uint256",
          "name": "amount",
          "type": "uint256"
        }
      ],
      "name": "deposit",
      "outputs": [],
      "stateMutability": "nonpayable",
      "type": "function"
    },
    {
      "inputs": [],
      "name": "getContractBalance",
      "outputs": [
        {
          "internalType": "uint256",
          "name": "",
          "type": "uint256"
        }
      ],
      "stateMutability": "view",
      "type": "function"
    },
    {
      "inputs": [],
      "name": "getContractOwnedNFTs",
      "outputs": [
        {
          "internalType": "uint256[]",
          "name": "",
          "type": "uint256[]"
        }
      ],
      "stateMutability": "view",
      "type": "function"
    },
    {
      "inputs": [
        {
          "internalType": "address",
          "name": "user",
          "type": "address"
        },
        {
          "internalType": "uint256",
          "name": "page",
          "type": "uint256"
        },
        {
          "internalType": "uint256",
          "name": "size",
          "type": "uint256"
        }
      ],
      "name": "getTradesByAddress",
      "outputs": [
        {
          "components": [
            {
              "components": [
                {
                  "internalType": "address",
                  "name": "from",
                  "type": "address"
                },
                {
                  "internalType": "address",
                  "name": "to",
                  "type": "address"
                },
                {
                  "internalType": "uint256",
                  "name": "amount",
                  "type": "uint256"
                },
                {
                  "internalType": "uint256",
                  "name": "timestamp",
                  "type": "uint256"
                }
              ],
              "internalType": "struct TradeBase.TradeInfo[]",
              "name": "trades",
              "type": "tuple[]"
            },
            {
              "internalType": "uint256",
              "name": "totalTrades",
              "type": "uint256"
            },
            {
              "internalType": "bool",
              "name": "hasNext",
              "type": "bool"
            }
          ],
          "internalType": "struct TradeBase.TradeResult",
          "name": "",
          "type": "tuple"
        }
      ],
      "stateMutability": "view",
      "type": "function"
    },
    {
      "inputs": [
        {
          "internalType": "address",
          "name": "user",
          "type": "address"
        }
      ],
      "name": "getUserBalance",
      "outputs": [
        {
          "internalType": "uint256",
          "name": "",
          "type": "uint256"
        }
      ],
      "stateMutability": "view",
      "type": "function"
    },
    {
      "inputs": [],
      "name": "nftContract",
      "outputs": [
        {
          "internalType": "contract NFTFrame",
          "name": "",
          "type": "address"
        }
      ],
      "stateMutability": "view",
      "type": "function"
    },
    {
      "inputs": [],
      "name": "owner",
      "outputs": [
        {
          "internalType": "address",
          "name": "",
          "type": "address"
        }
      ],
      "stateMutability": "view",
      "type": "function"
    },
    {
      "inputs": [],
      "name": "renounceOwnership",
      "outputs": [],
      "stateMutability": "nonpayable",
      "type": "function"
    },
    {
      "inputs": [],
      "name": "tokenContract",
      "outputs": [
        {
          "internalType": "contract AhoraCoin",
          "name": "",
          "type": "address"
        }
      ],
      "stateMutability": "view",
      "type": "function"
    },
    {
      "inputs": [],
      "name": "tradeId",
      "outputs": [
        {
          "internalType": "uint256",
          "name": "",
          "type": "uint256"
        }
      ],
      "stateMutability": "view",
      "type": "function"
    },
    {
      "inputs": [
        {
          "internalType": "uint256",
          "name": "",
          "type": "uint256"
        }
      ],
      "name": "trades",
      "outputs": [
        {
          "internalType": "address",
          "name": "from",
          "type": "address"
        },
        {
          "internalType": "address",
          "name": "to",
          "type": "address"
        },
        {
          "internalType": "uint256",
          "name": "amount",
          "type": "uint256"
        },
        {
          "internalType": "uint256",
          "name": "timestamp",
          "type": "uint256"
        }
      ],
      "stateMutability": "view",
      "type": "function"
    },
    {
      "inputs": [
        {
          "internalType": "address",
          "name": "from",
          "type": "address"
        },
        {
          "internalType": "address",
          "name": "to",
          "type": "address"
        },
        {
          "internalType": "uint256",
          "name": "amount",
          "type": "uint256"
        }
      ],
      "name": "transferBalance",
      "outputs": [],
      "stateMutability": "nonpayable",
      "type": "function"
    },
    {
      "inputs": [
        {
          "internalType": "address",
          "name": "newOwner",
          "type": "address"
        }
      ],
      "name": "transferOwnership",
      "outputs": [],
      "stateMutability": "nonpayable",
      "type": "function"
    },
    {
      "inputs": [
        {
          "internalType": "uint256",
          "name": "amount",
          "type": "uint256"
        }
      ],
      "name": "withdraw",
      "outputs": [],
      "stateMutability": "nonpayable",
      "type": "function"
    },
    {
      "inputs": [
        {
          "internalType": "uint256",
          "name": "_nftId",
          "type": "uint256"
        },
        {
          "internalType": "uint256",
          "name": "price",
          "type": "uint256"
        }
      ],
      "name": "startAuction",
      "outputs": [],
      "stateMutability": "nonpayable",
      "type": "function"
    },
    {
      "inputs": [
        {
          "internalType": "uint256",
          "name": "_nftId",
          "type": "uint256"
        }
      ],
      "name": "cancelAuction",
      "outputs": [],
      "stateMutability": "nonpayable",
      "type": "function"
    },
    {
      "inputs": [
        {
          "internalType": "uint256",
          "name": "_nftId",
          "type": "uint256"
        },
        {
          "internalType": "address",
          "name": "buyer",
          "type": "address"
        }
      ],
      "name": "closeAuction",
      "outputs": [],
      "stateMutability": "nonpayable",
      "type": "function"
    },
    {
      "inputs": [
        {
          "internalType": "uint256",
          "name": "_nftId",
          "type": "uint256"
        }
      ],
      "name": "getAuctionInfo",
      "outputs": [
        {
          "components": [
            {
              "internalType": "uint256",
              "name": "nftId",
              "type": "uint256"
            },
            {
              "internalType": "address",
              "name": "seller",
              "type": "address"
            },
            {
              "internalType": "uint256",
              "name": "price",
              "type": "uint256"
            }
          ],
          "internalType": "struct NFTAuction.Auction",
          "name": "",
          "type": "tuple"
        }
      ],
      "stateMutability": "view",
      "type": "function"
    }
  ],
  "bytecode": "0x60806040523480156200001157600080fd5b5062000032620000266200003f60201b60201c565b6200004760201b60201c565b600180819055506200010b565b600033905090565b60008060009054906101000a900473ffffffffffffffffffffffffffffffffffffffff169050816000806101000a81548173ffffffffffffffffffffffffffffffffffffffff021916908373ffffffffffffffffffffffffffffffffffffffff1602179055508173ffffffffffffffffffffffffffffffffffffffff168173ffffffffffffffffffffffffffffffffffffffff167f8be0079c531659141344cd1fd0a4f28419497f9722a3daafe3b4186f6b6457e060405160405180910390a35050565b6137ca806200011b6000396000f3fe608060405234801561001057600080fd5b50600436106101215760003560e01c8063715018a6116100ad578063d3e6fa1911610071578063d3e6fa19146102e5578063d56d229d14610303578063d750558f14610321578063f2fde38b14610351578063fc3fc4ed1461036d57610121565b8063715018a6146102695780638da5cb5b1461027357806396b5a75514610291578063a606b94a146102ad578063b6b55f25146102c957610121565b80634fee13fc116100f45780634fee13fc146101c357806355a373d6146101df578063571a26a0146101fd5780636bab66ae1461022f5780636f9fb98a1461024b57610121565b806302c5115b146101265780631e6c598e146101445780632e1a7d4d146101775780634773489214610193575b600080fd5b61012e61039d565b60405161013b9190613004565b60405180910390f35b61015e60048036038101906101599190612792565b6103a3565b60405161016e9493929190612d2a565b60405180910390f35b610191600480360381019061018c9190612792565b610413565b005b6101ad60048036038101906101a8919061261c565b6106c4565b6040516101ba9190613004565b60405180910390f35b6101dd60048036038101906101d8919061282c565b61070d565b005b6101e7610a43565b6040516101f49190612d91565b60405180910390f35b61021760048036038101906102129190612792565b610a69565b60405161022693929190613056565b60405180910390f35b610249600480360381019061024491906127ec565b610ab3565b005b610253610e95565b6040516102609190613004565b60405180910390f35b610271610f47565b005b61027b610fcf565b6040516102889190612cd8565b60405180910390f35b6102ab60048036038101906102a69190612792565b610ff8565b005b6102c760048036038101906102c29190612676565b6113c8565b005b6102e360048036038101906102de9190612792565b61175e565b005b6102ed61198d565b6040516102fa9190612d6f565b60405180910390f35b61030b611a44565b6040516103189190612dac565b60405180910390f35b61033b600480360381019061033691906126c9565b611a6a565b6040516103489190612fe2565b60405180910390f35b61036b6004803603810190610366919061261c565b611dbb565b005b61038760048036038101906103829190612792565b611eb3565b6040516103949190612fc7565b60405180910390f35b60065481565b60056020528060005260406000206000915090508060000160009054906101000a900473ffffffffffffffffffffffffffffffffffffffff16908060010160009054906101000a900473ffffffffffffffffffffffffffffffffffffffff16908060020154908060030154905084565b60026001541415610459576040517f08c379a000000000000000000000000000000000000000000000000000000000815260040161045090612f87565b60405180910390fd5b6002600181905550600081116104a4576040517f08c379a000000000000000000000000000000000000000000000000000000000815260040161049b90612f07565b60405180910390fd5b80600460003373ffffffffffffffffffffffffffffffffffffffff1673ffffffffffffffffffffffffffffffffffffffff168152602001908152602001600020541015610526576040517f08c379a000000000000000000000000000000000000000000000000000000000815260040161051d90612e67565b60405180910390fd5b80600460003373ffffffffffffffffffffffffffffffffffffffff1673ffffffffffffffffffffffffffffffffffffffff16815260200190815260200160002060008282546105759190613211565b92505081905550600360009054906101000a900473ffffffffffffffffffffffffffffffffffffffff1673ffffffffffffffffffffffffffffffffffffffff16636153fced3033846040518463ffffffff1660e01b81526004016105db93929190612cf3565b602060405180830381600087803b1580156105f557600080fd5b505af1158015610609573d6000803e3d6000fd5b505050506040513d601f19601f8201168201806040525081019061062d9190612765565b61066c576040517f08c379a000000000000000000000000000000000000000000000000000000000815260040161066390612e47565b60405180910390fd5b3373ffffffffffffffffffffffffffffffffffffffff167f7fcf532c15f0a6db0bd6d0e038bea71d30d808c7d98cb3bf7268a95bf5081b65826040516106b29190613004565b60405180910390a26001808190555050565b6000600460008373ffffffffffffffffffffffffffffffffffffffff1673ffffffffffffffffffffffffffffffffffffffff168152602001908152602001600020549050919050565b60026001541415610753576040517f08c379a000000000000000000000000000000000000000000000000000000000815260040161074a90612f87565b60405180910390fd5b60026001819055503373ffffffffffffffffffffffffffffffffffffffff16600260009054906101000a900473ffffffffffffffffffffffffffffffffffffffff1673ffffffffffffffffffffffffffffffffffffffff16636352211e846040518263ffffffff1660e01b81526004016107cd9190613004565b60206040518083038186803b1580156107e557600080fd5b505afa1580156107f9573d6000803e3d6000fd5b505050506040513d601f19601f8201168201806040525081019061081d9190612649565b73ffffffffffffffffffffffffffffffffffffffff1614610873576040517f08c379a000000000000000000000000000000000000000000000000000000000815260040161086a90612e87565b60405180910390fd5b600081116108b6576040517f08c379a00000000000000000000000000000000000000000000000000000000081526004016108ad90612e07565b60405180910390fd5b600260009054906101000a900473ffffffffffffffffffffffffffffffffffffffff1673ffffffffffffffffffffffffffffffffffffffff166335b9594c8333306040518463ffffffff1660e01b81526004016109159392919061301f565b600060405180830381600087803b15801561092f57600080fd5b505af1158015610943573d6000803e3d6000fd5b5050505060405180606001604052808381526020013373ffffffffffffffffffffffffffffffffffffffff16815260200182815250600860008481526020019081526020016000206000820151816000015560208201518160010160006101000a81548173ffffffffffffffffffffffffffffffffffffffff021916908373ffffffffffffffffffffffffffffffffffffffff160217905550604082015181600201559050503373ffffffffffffffffffffffffffffffffffffffff16827fd7d053b3d3fc9e8145896f8940adeb377f6735866f2161ef1660dae9f049247583604051610a309190613004565b60405180910390a3600180819055505050565b600360009054906101000a900473ffffffffffffffffffffffffffffffffffffffff1681565b60086020528060005260406000206000915090508060000154908060010160009054906101000a900473ffffffffffffffffffffffffffffffffffffffff16908060020154905083565b60026001541415610af9576040517f08c379a0000000000000000000000000000000000000000000000000000000008152600401610af090612f87565b60405180910390fd5b6002600181905550610b09611fc4565b73ffffffffffffffffffffffffffffffffffffffff16610b27610fcf565b73ffffffffffffffffffffffffffffffffffffffff1614610b7d576040517f08c379a0000000000000000000000000000000000000000000000000000000008152600401610b7490612ee7565b60405180910390fd5b6000600860008481526020019081526020016000209050600073ffffffffffffffffffffffffffffffffffffffff168160010160009054906101000a900473ffffffffffffffffffffffffffffffffffffffff1673ffffffffffffffffffffffffffffffffffffffff161415610c28576040517f08c379a0000000000000000000000000000000000000000000000000000000008152600401610c1f90612fa7565b60405180910390fd5b8060010160009054906101000a900473ffffffffffffffffffffffffffffffffffffffff1673ffffffffffffffffffffffffffffffffffffffff168273ffffffffffffffffffffffffffffffffffffffff161415610cbb576040517f08c379a0000000000000000000000000000000000000000000000000000000008152600401610cb290612f27565b60405180910390fd5b60008160020154905060008260010160009054906101000a900473ffffffffffffffffffffffffffffffffffffffff16905081610cf7856106c4565b1015610d38576040517f08c379a0000000000000000000000000000000000000000000000000000000008152600401610d2f90612e67565b60405180910390fd5b610d43848284611fcc565b600260009054906101000a900473ffffffffffffffffffffffffffffffffffffffff1673ffffffffffffffffffffffffffffffffffffffff166335b9594c8630336040518463ffffffff1660e01b8152600401610da29392919061301f565b600060405180830381600087803b158015610dbc57600080fd5b505af1158015610dd0573d6000803e3d6000fd5b50505050600860008681526020019081526020016000206000808201600090556001820160006101000a81549073ffffffffffffffffffffffffffffffffffffffff0219169055600282016000905550508373ffffffffffffffffffffffffffffffffffffffff168173ffffffffffffffffffffffffffffffffffffffff16867f7787e67b4b8529b1aa2c1a59dbf0f0e766d63860956b86f33f5d87008823550185604051610e7f9190613004565b60405180910390a4505050600180819055505050565b6000600360009054906101000a900473ffffffffffffffffffffffffffffffffffffffff1673ffffffffffffffffffffffffffffffffffffffff166370a08231306040518263ffffffff1660e01b8152600401610ef29190612cd8565b60206040518083038186803b158015610f0a57600080fd5b505afa158015610f1e573d6000803e3d6000fd5b505050506040513d601f19601f82011682018060405250810190610f4291906127bf565b905090565b610f4f611fc4565b73ffffffffffffffffffffffffffffffffffffffff16610f6d610fcf565b73ffffffffffffffffffffffffffffffffffffffff1614610fc3576040517f08c379a0000000000000000000000000000000000000000000000000000000008152600401610fba90612ee7565b60405180910390fd5b610fcd600061216f565b565b60008060009054906101000a900473ffffffffffffffffffffffffffffffffffffffff16905090565b6002600154141561103e576040517f08c379a000000000000000000000000000000000000000000000000000000000815260040161103590612f87565b60405180910390fd5b600260018190555060006008600083815260200190815260200160002090503073ffffffffffffffffffffffffffffffffffffffff16600260009054906101000a900473ffffffffffffffffffffffffffffffffffffffff1673ffffffffffffffffffffffffffffffffffffffff16636352211e846040518263ffffffff1660e01b81526004016110cf9190613004565b60206040518083038186803b1580156110e757600080fd5b505afa1580156110fb573d6000803e3d6000fd5b505050506040513d601f19601f8201168201806040525081019061111f9190612649565b73ffffffffffffffffffffffffffffffffffffffff1614611175576040517f08c379a000000000000000000000000000000000000000000000000000000000815260040161116c90612ea7565b60405180910390fd5b3373ffffffffffffffffffffffffffffffffffffffff168160010160009054906101000a900473ffffffffffffffffffffffffffffffffffffffff1673ffffffffffffffffffffffffffffffffffffffff1614611207576040517f08c379a00000000000000000000000000000000000000000000000000000000081526004016111fe90612e87565b60405180910390fd5b600073ffffffffffffffffffffffffffffffffffffffff168160010160009054906101000a900473ffffffffffffffffffffffffffffffffffffffff1673ffffffffffffffffffffffffffffffffffffffff16141561129b576040517f08c379a000000000000000000000000000000000000000000000000000000000815260040161129290612fa7565b60405180910390fd5b600260009054906101000a900473ffffffffffffffffffffffffffffffffffffffff1673ffffffffffffffffffffffffffffffffffffffff166335b9594c8330336040518463ffffffff1660e01b81526004016112fa9392919061301f565b600060405180830381600087803b15801561131457600080fd5b505af1158015611328573d6000803e3d6000fd5b50505050600860008381526020019081526020016000206000808201600090556001820160006101000a81549073ffffffffffffffffffffffffffffffffffffffff0219169055600282016000905550503373ffffffffffffffffffffffffffffffffffffffff16827f10ac9f0bb365b5d22d7bec500408692f23fdf83eadfec71615ef88b4c1134f0e60405160405180910390a3506001808190555050565b6113d0611fc4565b73ffffffffffffffffffffffffffffffffffffffff166113ee610fcf565b73ffffffffffffffffffffffffffffffffffffffff1614611444576040517f08c379a000000000000000000000000000000000000000000000000000000000815260040161143b90612ee7565b60405180910390fd5b6002600154141561148a576040517f08c379a000000000000000000000000000000000000000000000000000000000815260040161148190612f87565b60405180910390fd5b6002600181905550600073ffffffffffffffffffffffffffffffffffffffff168273ffffffffffffffffffffffffffffffffffffffff161415611502576040517f08c379a00000000000000000000000000000000000000000000000000000000081526004016114f990612ec7565b60405180910390fd5b8273ffffffffffffffffffffffffffffffffffffffff168273ffffffffffffffffffffffffffffffffffffffff161415611571576040517f08c379a000000000000000000000000000000000000000000000000000000000815260040161156890612f47565b60405180910390fd5b600081116115b4576040517f08c379a00000000000000000000000000000000000000000000000000000000081526004016115ab90612f67565b60405180910390fd5b80600460008573ffffffffffffffffffffffffffffffffffffffff1673ffffffffffffffffffffffffffffffffffffffff168152602001908152602001600020541015611636576040517f08c379a000000000000000000000000000000000000000000000000000000000815260040161162d90612e67565b60405180910390fd5b80600460008573ffffffffffffffffffffffffffffffffffffffff1673ffffffffffffffffffffffffffffffffffffffff16815260200190815260200160002060008282546116859190613211565b9250508190555080600460008473ffffffffffffffffffffffffffffffffffffffff1673ffffffffffffffffffffffffffffffffffffffff16815260200190815260200160002060008282546116db9190613161565b925050819055506116ed838383612233565b8173ffffffffffffffffffffffffffffffffffffffff168373ffffffffffffffffffffffffffffffffffffffff167f4163d0b06696468b3d7903f482bcd0097bd38a9a9086157479fd6c6561d242618360405161174a9190613004565b60405180910390a360018081905550505050565b600260015414156117a4576040517f08c379a000000000000000000000000000000000000000000000000000000000815260040161179b90612f87565b60405180910390fd5b6002600181905550600081116117ef576040517f08c379a00000000000000000000000000000000000000000000000000000000081526004016117e690612de7565b60405180910390fd5b600360009054906101000a900473ffffffffffffffffffffffffffffffffffffffff1673ffffffffffffffffffffffffffffffffffffffff16636153fced3330846040518463ffffffff1660e01b815260040161184e93929190612cf3565b602060405180830381600087803b15801561186857600080fd5b505af115801561187c573d6000803e3d6000fd5b505050506040513d601f19601f820116820180604052508101906118a09190612765565b6118df576040517f08c379a00000000000000000000000000000000000000000000000000000000081526004016118d690612e47565b60405180910390fd5b80600460003373ffffffffffffffffffffffffffffffffffffffff1673ffffffffffffffffffffffffffffffffffffffff168152602001908152602001600020600082825461192e9190613161565b925050819055503373ffffffffffffffffffffffffffffffffffffffff167fe1fffcc4923d04b559f4d29a8bfc6cda04eb5b0d3c460751c2402c5c5cc9109c8260405161197b9190613004565b60405180910390a26001808190555050565b6060600260009054906101000a900473ffffffffffffffffffffffffffffffffffffffff1673ffffffffffffffffffffffffffffffffffffffff1663e6b1fa2a306040518263ffffffff1660e01b81526004016119ea9190612cd8565b60006040518083038186803b158015611a0257600080fd5b505afa158015611a16573d6000803e3d6000fd5b505050506040513d6000823e3d601f19601f82011682018060405250810190611a3f919061271c565b905090565b600260009054906101000a900473ffffffffffffffffffffffffffffffffffffffff1681565b611a72612467565b6000600760008673ffffffffffffffffffffffffffffffffffffffff1673ffffffffffffffffffffffffffffffffffffffff168152602001908152602001600020905060008180549050905060008486611acc91906131b7565b8211611ad9576000611afd565b84600187611ae79190613161565b611af191906131b7565b82611afc9190613211565b5b905060008587611b0d91906131b7565b83611b189190613211565b905082821180611b285750600082105b15611b3257600091505b600081111580611b4d5750828688611b4a91906131b7565b10155b15611bcf576040518060600160405280600067ffffffffffffffff811115611b7857611b776133ad565b5b604051908082528060200260200182016040528015611bb157816020015b611b9e61248a565b815260200190600190039081611b965790505b50815260200184815260200160001515815250945050505050611db4565b60008282611bdd9190613211565b905060008167ffffffffffffffff811115611bfb57611bfa6133ad565b5b604051908082528060200260200182016040528015611c3457816020015b611c2161248a565b815260200190600190039081611c195790505b50905060005b82811015611d8557600560008883600188611c559190613211565b611c5f9190613211565b81548110611c7057611c6f61337e565b5b906000526020600020015481526020019081526020016000206040518060800160405290816000820160009054906101000a900473ffffffffffffffffffffffffffffffffffffffff1673ffffffffffffffffffffffffffffffffffffffff1673ffffffffffffffffffffffffffffffffffffffff1681526020016001820160009054906101000a900473ffffffffffffffffffffffffffffffffffffffff1673ffffffffffffffffffffffffffffffffffffffff1673ffffffffffffffffffffffffffffffffffffffff16815260200160028201548152602001600382015481525050828281518110611d6757611d6661337e565b5b60200260200101819052508080611d7d90613306565b915050611c3a565b506000808511905060405180606001604052808381526020018781526020018215158152509750505050505050505b9392505050565b611dc3611fc4565b73ffffffffffffffffffffffffffffffffffffffff16611de1610fcf565b73ffffffffffffffffffffffffffffffffffffffff1614611e37576040517f08c379a0000000000000000000000000000000000000000000000000000000008152600401611e2e90612ee7565b60405180910390fd5b600073ffffffffffffffffffffffffffffffffffffffff168173ffffffffffffffffffffffffffffffffffffffff161415611ea7576040517f08c379a0000000000000000000000000000000000000000000000000000000008152600401611e9e90612e27565b60405180910390fd5b611eb08161216f565b50565b611ebb6124de565b600060086000848152602001908152602001600020604051806060016040529081600082015481526020016001820160009054906101000a900473ffffffffffffffffffffffffffffffffffffffff1673ffffffffffffffffffffffffffffffffffffffff1673ffffffffffffffffffffffffffffffffffffffff1681526020016002820154815250509050600073ffffffffffffffffffffffffffffffffffffffff16816020015173ffffffffffffffffffffffffffffffffffffffff161415611fbb576040517f08c379a0000000000000000000000000000000000000000000000000000000008152600401611fb290612dc7565b60405180910390fd5b80915050919050565b600033905090565b80600460008573ffffffffffffffffffffffffffffffffffffffff1673ffffffffffffffffffffffffffffffffffffffff16815260200190815260200160002054101561204e576040517f08c379a000000000000000000000000000000000000000000000000000000000815260040161204590612e67565b60405180910390fd5b80600460008573ffffffffffffffffffffffffffffffffffffffff1673ffffffffffffffffffffffffffffffffffffffff168152602001908152602001600020600082825461209d9190613211565b9250508190555080600460008473ffffffffffffffffffffffffffffffffffffffff1673ffffffffffffffffffffffffffffffffffffffff16815260200190815260200160002060008282546120f39190613161565b92505081905550612105838383612233565b8173ffffffffffffffffffffffffffffffffffffffff168373ffffffffffffffffffffffffffffffffffffffff167f69d14b96c06609a8976851e9503b0a6b1c60b96a8ba6e5a1a313e8a290138e15836040516121629190613004565b60405180910390a3505050565b60008060009054906101000a900473ffffffffffffffffffffffffffffffffffffffff169050816000806101000a81548173ffffffffffffffffffffffffffffffffffffffff021916908373ffffffffffffffffffffffffffffffffffffffff1602179055508173ffffffffffffffffffffffffffffffffffffffff168173ffffffffffffffffffffffffffffffffffffffff167f8be0079c531659141344cd1fd0a4f28419497f9722a3daafe3b4186f6b6457e060405160405180910390a35050565b6006600081548092919061224690613306565b919050555060405180608001604052808473ffffffffffffffffffffffffffffffffffffffff1681526020018373ffffffffffffffffffffffffffffffffffffffff1681526020018281526020014281525060056000600654815260200190815260200160002060008201518160000160006101000a81548173ffffffffffffffffffffffffffffffffffffffff021916908373ffffffffffffffffffffffffffffffffffffffff16021790555060208201518160010160006101000a81548173ffffffffffffffffffffffffffffffffffffffff021916908373ffffffffffffffffffffffffffffffffffffffff1602179055506040820151816002015560608201518160030155905050600760008473ffffffffffffffffffffffffffffffffffffffff1673ffffffffffffffffffffffffffffffffffffffff1681526020019081526020016000206006549080600181540180825580915050600190039060005260206000200160009091909190915055600760008373ffffffffffffffffffffffffffffffffffffffff1673ffffffffffffffffffffffffffffffffffffffff16815260200190815260200160002060065490806001815401808255809150506001900390600052602060002001600090919091909150556006547f753ae2aaaf39e14f83785986367e2865dbbccf8c9b24ce246f61939bc0f5d7a88484844260405161245a9493929190612d2a565b60405180910390a2505050565b604051806060016040528060608152602001600081526020016000151581525090565b6040518060800160405280600073ffffffffffffffffffffffffffffffffffffffff168152602001600073ffffffffffffffffffffffffffffffffffffffff16815260200160008152602001600081525090565b604051806060016040528060008152602001600073ffffffffffffffffffffffffffffffffffffffff168152602001600081525090565b6000612528612523846130b2565b61308d565b9050808382526020820190508285602086028201111561254b5761254a6133e1565b5b60005b8581101561257b57816125618882612607565b84526020840193506020830192505060018101905061254e565b5050509392505050565b6000813590506125948161374f565b92915050565b6000815190506125a98161374f565b92915050565b600082601f8301126125c4576125c36133dc565b5b81516125d4848260208601612515565b91505092915050565b6000815190506125ec81613766565b92915050565b6000813590506126018161377d565b92915050565b6000815190506126168161377d565b92915050565b600060208284031215612632576126316133eb565b5b600061264084828501612585565b91505092915050565b60006020828403121561265f5761265e6133eb565b5b600061266d8482850161259a565b91505092915050565b60008060006060848603121561268f5761268e6133eb565b5b600061269d86828701612585565b93505060206126ae86828701612585565b92505060406126bf868287016125f2565b9150509250925092565b6000806000606084860312156126e2576126e16133eb565b5b60006126f086828701612585565b9350506020612701868287016125f2565b9250506040612712868287016125f2565b9150509250925092565b600060208284031215612732576127316133eb565b5b600082015167ffffffffffffffff8111156127505761274f6133e6565b5b61275c848285016125af565b91505092915050565b60006020828403121561277b5761277a6133eb565b5b6000612789848285016125dd565b91505092915050565b6000602082840312156127a8576127a76133eb565b5b60006127b6848285016125f2565b91505092915050565b6000602082840312156127d5576127d46133eb565b5b60006127e384828501612607565b91505092915050565b60008060408385031215612803576128026133eb565b5b6000612811858286016125f2565b925050602061282285828601612585565b9150509250929050565b60008060408385031215612843576128426133eb565b5b6000612851858286016125f2565b9250506020612862858286016125f2565b9150509250929050565b60006128788383612c15565b60808301905092915050565b60006128908383612cba565b60208301905092915050565b6128a581613245565b82525050565b6128b481613245565b82525050565b60006128c5826130fe565b6128cf818561312e565b93506128da836130de565b8060005b8381101561290b5781516128f2888261286c565b97506128fd83613114565b9250506001810190506128de565b5085935050505092915050565b600061292382613109565b61292d818561313f565b9350612938836130ee565b8060005b838110156129695781516129508882612884565b975061295b83613121565b92505060018101905061293c565b5085935050505092915050565b61297f81613257565b82525050565b61298e8161328d565b82525050565b61299d8161329f565b82525050565b60006129b0602383613150565b91506129bb82613401565b604082019050919050565b60006129d3602583613150565b91506129de82613450565b604082019050919050565b60006129f6601f83613150565b9150612a018261349f565b602082019050919050565b6000612a19602683613150565b9150612a24826134c8565b604082019050919050565b6000612a3c600f83613150565b9150612a4782613517565b602082019050919050565b6000612a5f601483613150565b9150612a6a82613540565b602082019050919050565b6000612a82601683613150565b9150612a8d82613569565b602082019050919050565b6000612aa5601283613150565b9150612ab082613592565b602082019050919050565b6000612ac8601983613150565b9150612ad3826135bb565b602082019050919050565b6000612aeb602083613150565b9150612af6826135e4565b602082019050919050565b6000612b0e602883613150565b9150612b198261360d565b604082019050919050565b6000612b31601a83613150565b9150612b3c8261365c565b602082019050919050565b6000612b54601b83613150565b9150612b5f82613685565b602082019050919050565b6000612b77602683613150565b9150612b82826136ae565b604082019050919050565b6000612b9a601f83613150565b9150612ba5826136fd565b602082019050919050565b6000612bbd601b83613150565b9150612bc882613726565b602082019050919050565b606082016000820151612be96000850182612cba565b506020820151612bfc602085018261289c565b506040820151612c0f6040850182612cba565b50505050565b608082016000820151612c2b600085018261289c565b506020820151612c3e602085018261289c565b506040820151612c516040850182612cba565b506060820151612c646060850182612cba565b50505050565b60006060830160008301518482036000860152612c8782826128ba565b9150506020830151612c9c6020860182612cba565b506040830151612caf6040860182612976565b508091505092915050565b612cc381613283565b82525050565b612cd281613283565b82525050565b6000602082019050612ced60008301846128ab565b92915050565b6000606082019050612d0860008301866128ab565b612d1560208301856128ab565b612d226040830184612cc9565b949350505050565b6000608082019050612d3f60008301876128ab565b612d4c60208301866128ab565b612d596040830185612cc9565b612d666060830184612cc9565b95945050505050565b60006020820190508181036000830152612d898184612918565b905092915050565b6000602082019050612da66000830184612985565b92915050565b6000602082019050612dc16000830184612994565b92915050565b60006020820190508181036000830152612de0816129a3565b9050919050565b60006020820190508181036000830152612e00816129c6565b9050919050565b60006020820190508181036000830152612e20816129e9565b9050919050565b60006020820190508181036000830152612e4081612a0c565b9050919050565b60006020820190508181036000830152612e6081612a2f565b9050919050565b60006020820190508181036000830152612e8081612a52565b9050919050565b60006020820190508181036000830152612ea081612a75565b9050919050565b60006020820190508181036000830152612ec081612a98565b9050919050565b60006020820190508181036000830152612ee081612abb565b9050919050565b60006020820190508181036000830152612f0081612ade565b9050919050565b60006020820190508181036000830152612f2081612b01565b9050919050565b60006020820190508181036000830152612f4081612b24565b9050919050565b60006020820190508181036000830152612f6081612b47565b9050919050565b60006020820190508181036000830152612f8081612b6a565b9050919050565b60006020820190508181036000830152612fa081612b8d565b9050919050565b60006020820190508181036000830152612fc081612bb0565b9050919050565b6000606082019050612fdc6000830184612bd3565b92915050565b60006020820190508181036000830152612ffc8184612c6a565b905092915050565b60006020820190506130196000830184612cc9565b92915050565b60006060820190506130346000830186612cc9565b61304160208301856128ab565b61304e60408301846128ab565b949350505050565b600060608201905061306b6000830186612cc9565b61307860208301856128ab565b6130856040830184612cc9565b949350505050565b60006130976130a8565b90506130a382826132d5565b919050565b6000604051905090565b600067ffffffffffffffff8211156130cd576130cc6133ad565b5b602082029050602081019050919050565b6000819050602082019050919050565b6000819050602082019050919050565b600081519050919050565b600081519050919050565b6000602082019050919050565b6000602082019050919050565b600082825260208201905092915050565b600082825260208201905092915050565b600082825260208201905092915050565b600061316c82613283565b915061317783613283565b9250827fffffffffffffffffffffffffffffffffffffffffffffffffffffffffffffffff038211156131ac576131ab61334f565b5b828201905092915050565b60006131c282613283565b91506131cd83613283565b9250817fffffffffffffffffffffffffffffffffffffffffffffffffffffffffffffffff04831182151516156132065761320561334f565b5b828202905092915050565b600061321c82613283565b915061322783613283565b92508282101561323a5761323961334f565b5b828203905092915050565b600061325082613263565b9050919050565b60008115159050919050565b600073ffffffffffffffffffffffffffffffffffffffff82169050919050565b6000819050919050565b6000613298826132b1565b9050919050565b60006132aa826132b1565b9050919050565b60006132bc826132c3565b9050919050565b60006132ce82613263565b9050919050565b6132de826133f0565b810181811067ffffffffffffffff821117156132fd576132fc6133ad565b5b80604052505050565b600061331182613283565b91507fffffffffffffffffffffffffffffffffffffffffffffffffffffffffffffffff8214156133445761334361334f565b5b600182019050919050565b7f4e487b7100000000000000000000000000000000000000000000000000000000600052601160045260246000fd5b7f4e487b7100000000000000000000000000000000000000000000000000000000600052603260045260246000fd5b7f4e487b7100000000000000000000000000000000000000000000000000000000600052604160045260246000fd5b600080fd5b600080fd5b600080fd5b600080fd5b6000601f19601f8301169050919050565b7f41756374696f6e20646f6573206e6f7420657869737420666f7220746869732060008201527f4e46540000000000000000000000000000000000000000000000000000000000602082015250565b7f4465706f73697420616d6f756e74206d7573742062652067726561746572207460008201527f68616e2030000000000000000000000000000000000000000000000000000000602082015250565b7f5072696365206d7573742062652067726561746572207468616e207a65726f00600082015250565b7f4f776e61626c653a206e6577206f776e657220697320746865207a65726f206160008201527f6464726573730000000000000000000000000000000000000000000000000000602082015250565b7f5472616e73666572206661696c65640000000000000000000000000000000000600082015250565b7f496e73756666696369656e742062616c616e6365000000000000000000000000600082015250565b7f596f7520646f6e2774206f776e2074686973204e465400000000000000000000600082015250565b7f4e4654206e6f7420696e2041756374696f6e0000000000000000000000000000600082015250565b7f496e76616c696420726563697069656e74206164647265737300000000000000600082015250565b7f4f776e61626c653a2063616c6c6572206973206e6f7420746865206f776e6572600082015250565b7f5769746864726177616c20616d6f756e74206d7573742062652067726561746560008201527f72207468616e2030000000000000000000000000000000000000000000000000602082015250565b7f53656c6c65722063616e6e6f7420626520746865206275796572000000000000600082015250565b7f43616e6e6f74207472616e7366657220746f20796f757273656c660000000000600082015250565b7f5472616e7366657220616d6f756e74206d75737420626520677265617465722060008201527f7468616e20300000000000000000000000000000000000000000000000000000602082015250565b7f5265656e7472616e637947756172643a207265656e7472616e742063616c6c00600082015250565b7f546869732061756374696f6e20646f6573206e6f742065786973740000000000600082015250565b61375881613245565b811461376357600080fd5b50565b61376f81613257565b811461377a57600080fd5b50565b61378681613283565b811461379157600080fd5b5056fea2646970667358221220e57ed5d85b3abf81e1f022ea61d7d0db6aabc555d2ac2791c551849989b3bde364736f6c63430008070033",
  "immutableReferences": {},
  "source": "// SPDX-License-Identifier: MIT\r\npragma solidity ^0.8.7;\r\n\r\nimport \"./TradeBase.sol\";\r\n\r\ncontract NFTAuction is TradeBase {\r\n    struct Auction {\r\n        uint256 nftId;\r\n        address seller;\r\n        uint256 price;\r\n    }\r\n\r\n    mapping(uint256 => Auction) public auctions;\r\n\r\n    event AuctionStarted(uint256 indexed nftId, address indexed seller, uint256 price);\r\n    event AuctionCancelled(uint256 indexed nftId, address indexed seller);\r\n    event AuctionClosed(uint256 indexed nftId, address indexed seller, address indexed buyer, uint256 price);\r\n\r\n    //   \r\n    function startAuction(uint256 _nftId, uint256 price) external nonReentrant {\r\n        require(nftContract.ownerOf(_nftId) == msg.sender, \"You don't own this NFT\");\r\n        require(price > 0, \"Price must be greater than zero\");\r\n        \r\n        nftContract.transferNFTByAdmin(_nftId, msg.sender, address(this));\r\n\r\n        auctions[_nftId] = Auction({\r\n            nftId: _nftId,\r\n            seller: msg.sender,\r\n            price: price\r\n        });\r\n\r\n        emit AuctionStarted(_nftId, msg.sender, price);\r\n    }\r\n\r\n    //    \r\n    function cancelAuction(uint256 _nftId) external nonReentrant {\r\n        Auction storage auction = auctions[_nftId];\r\n        require(nftContract.ownerOf(_nftId) == address(this), \"NFT not in Auction\");\r\n        require(auction.seller == msg.sender, \"You don't own this NFT\");\r\n        require(auction.seller != address(0), \"This auction does not exist\");\r\n        \r\n        nftContract.transferNFTByAdmin(_nftId, address(this), msg.sender);\r\n\r\n        delete auctions[_nftId];\r\n\r\n        emit AuctionCancelled(_nftId, msg.sender);\r\n    }\r\n\r\n    //    ( )\r\n    function closeAuction(uint256 _nftId, address buyer) external nonReentrant onlyOwner {\r\n        Auction storage auction = auctions[_nftId];\r\n        require(auction.seller != address(0), \"This auction does not exist\");\r\n        require(buyer != auction.seller, \"Seller cannot be the buyer\");\r\n\r\n        uint256 price = auction.price;\r\n        address seller = auction.seller;\r\n\r\n        require(getUserBalance(buyer) >= price, \"Insufficient balance\");\r\n\r\n        _adjustBalances(buyer, seller, price);\r\n\r\n        nftContract.transferNFTByAdmin(_nftId, address(this), msg.sender);\r\n\r\n        delete auctions[_nftId];\r\n\r\n        emit AuctionClosed(_nftId, seller, buyer, price);\r\n    }\r\n\r\n    function getAuctionInfo(uint256 _nftId) public view returns (Auction memory) {\r\n        Auction memory auction = auctions[_nftId];\r\n        require(auction.seller != address(0), \"Auction does not exist for this NFT\");\r\n        return auction;\r\n    }\r\n}",
  "sourcePath": "C:\\Users\\SSAFY\\Desktop\\semonemo\\backend\\blockchain-server\\smartcontract\\contracts\\NFTAuction.sol",
  "compiler": {
    "name": "solc",
    "version": "0.8.7+commit.e28d00a7.Emscripten.clang"
  },
  "schemaVersion": "3.4.16",
  "updatedAt": "2024-10-03T07:17:05.388Z",
  "devdoc": {
    "kind": "dev",
    "methods": {
      "owner()": {
        "details": "Returns the address of the current owner."
      },
      "renounceOwnership()": {
        "details": "Leaves the contract without owner. It will not be possible to call `onlyOwner` functions anymore. Can only be called by the current owner. NOTE: Renouncing ownership will leave the contract without an owner, thereby removing any functionality that is only available to the owner."
      },
      "transferOwnership(address)": {
        "details": "Transfers ownership of the contract to a new account (`newOwner`). Can only be called by the current owner."
      }
    },
    "version": 1
  },
  "userdoc": {
    "kind": "user",
    "methods": {},
    "version": 1
  }
}