{
  "contractName": "NFTAuction",
  "abi": [
    {
      "anonymous": false,
      "inputs": [
        {
          "indexed": true,
          "internalType": "uint256",
          "name": "nftId",
          "type": "uint256"
        },
        {
          "indexed": true,
          "internalType": "address",
          "name": "seller",
          "type": "address"
        }
      ],
      "name": "AuctionCancelled",
      "type": "event"
    },
    {
      "anonymous": false,
      "inputs": [
        {
          "indexed": true,
          "internalType": "uint256",
          "name": "nftId",
          "type": "uint256"
        },
        {
          "indexed": true,
          "internalType": "address",
          "name": "seller",
          "type": "address"
        },
        {
          "indexed": true,
          "internalType": "address",
          "name": "buyer",
          "type": "address"
        },
        {
          "indexed": false,
          "internalType": "uint256",
          "name": "price",
          "type": "uint256"
        }
      ],
      "name": "AuctionClosed",
      "type": "event"
    },
    {
      "anonymous": false,
      "inputs": [
        {
          "indexed": true,
          "internalType": "uint256",
          "name": "nftId",
          "type": "uint256"
        },
        {
          "indexed": true,
          "internalType": "address",
          "name": "seller",
          "type": "address"
        }
      ],
      "name": "AuctionStarted",
      "type": "event"
    },
    {
      "anonymous": false,
      "inputs": [
        {
          "indexed": true,
          "internalType": "address",
          "name": "from",
          "type": "address"
        },
        {
          "indexed": true,
          "internalType": "address",
          "name": "to",
          "type": "address"
        },
        {
          "indexed": false,
          "internalType": "uint256",
          "name": "amount",
          "type": "uint256"
        },
        {
          "indexed": false,
          "internalType": "uint256",
          "name": "fromBalance",
          "type": "uint256"
        },
        {
          "indexed": false,
          "internalType": "uint256",
          "name": "toBalance",
          "type": "uint256"
        }
      ],
      "name": "BalanceAdjusted",
      "type": "event"
    },
    {
      "anonymous": false,
      "inputs": [
        {
          "indexed": true,
          "internalType": "address",
          "name": "from",
          "type": "address"
        },
        {
          "indexed": true,
          "internalType": "address",
          "name": "to",
          "type": "address"
        },
        {
          "indexed": false,
          "internalType": "uint256",
          "name": "amount",
          "type": "uint256"
        },
        {
          "indexed": false,
          "internalType": "uint256",
          "name": "fromBalance",
          "type": "uint256"
        },
        {
          "indexed": false,
          "internalType": "uint256",
          "name": "toBalance",
          "type": "uint256"
        }
      ],
      "name": "BalanceTransferred",
      "type": "event"
    },
    {
      "anonymous": false,
      "inputs": [
        {
          "indexed": true,
          "internalType": "address",
          "name": "user",
          "type": "address"
        },
        {
          "indexed": false,
          "internalType": "uint256",
          "name": "amount",
          "type": "uint256"
        },
        {
          "indexed": false,
          "internalType": "uint256",
          "name": "coinBalance",
          "type": "uint256"
        },
        {
          "indexed": false,
          "internalType": "uint256",
          "name": "payableBalance",
          "type": "uint256"
        }
      ],
      "name": "Deposit",
      "type": "event"
    },
    {
      "anonymous": false,
      "inputs": [
        {
          "indexed": true,
          "internalType": "address",
          "name": "previousOwner",
          "type": "address"
        },
        {
          "indexed": true,
          "internalType": "address",
          "name": "newOwner",
          "type": "address"
        }
      ],
      "name": "OwnershipTransferred",
      "type": "event"
    },
    {
      "anonymous": false,
      "inputs": [
        {
          "indexed": true,
          "internalType": "uint256",
          "name": "tradeId",
          "type": "uint256"
        },
        {
          "indexed": false,
          "internalType": "address",
          "name": "from",
          "type": "address"
        },
        {
          "indexed": false,
          "internalType": "address",
          "name": "to",
          "type": "address"
        },
        {
          "indexed": false,
          "internalType": "uint256",
          "name": "amount",
          "type": "uint256"
        },
        {
          "indexed": false,
          "internalType": "uint256",
          "name": "timestamp",
          "type": "uint256"
        },
        {
          "indexed": false,
          "internalType": "uint256",
          "name": "fromBalance",
          "type": "uint256"
        },
        {
          "indexed": false,
          "internalType": "uint256",
          "name": "toBalance",
          "type": "uint256"
        }
      ],
      "name": "TradeRecorded",
      "type": "event"
    },
    {
      "anonymous": false,
      "inputs": [
        {
          "indexed": true,
          "internalType": "address",
          "name": "user",
          "type": "address"
        },
        {
          "indexed": false,
          "internalType": "uint256",
          "name": "amount",
          "type": "uint256"
        },
        {
          "indexed": false,
          "internalType": "uint256",
          "name": "coinBalance",
          "type": "uint256"
        },
        {
          "indexed": false,
          "internalType": "uint256",
          "name": "payableBalance",
          "type": "uint256"
        }
      ],
      "name": "Withdrawal",
      "type": "event"
    },
    {
      "inputs": [
        {
          "internalType": "uint256",
          "name": "",
          "type": "uint256"
        }
      ],
      "name": "auctions",
      "outputs": [
        {
          "internalType": "uint256",
          "name": "nftId",
          "type": "uint256"
        },
        {
          "internalType": "address",
          "name": "seller",
          "type": "address"
        }
      ],
      "stateMutability": "view",
      "type": "function"
    },
    {
      "inputs": [
        {
          "internalType": "uint256",
          "name": "amount",
          "type": "uint256"
        }
      ],
      "name": "deposit",
      "outputs": [],
      "stateMutability": "nonpayable",
      "type": "function"
    },
    {
      "inputs": [],
      "name": "getContractBalance",
      "outputs": [
        {
          "internalType": "uint256",
          "name": "",
          "type": "uint256"
        }
      ],
      "stateMutability": "view",
      "type": "function"
    },
    {
      "inputs": [],
      "name": "getContractOwnedNFTs",
      "outputs": [
        {
          "internalType": "uint256[]",
          "name": "",
          "type": "uint256[]"
        }
      ],
      "stateMutability": "view",
      "type": "function"
    },
    {
      "inputs": [
        {
          "internalType": "uint256",
          "name": "_tradeId",
          "type": "uint256"
        }
      ],
      "name": "getTradeInfo",
      "outputs": [
        {
          "components": [
            {
              "internalType": "address",
              "name": "from",
              "type": "address"
            },
            {
              "internalType": "address",
              "name": "to",
              "type": "address"
            },
            {
              "internalType": "uint256",
              "name": "amount",
              "type": "uint256"
            },
            {
              "internalType": "uint256",
              "name": "timestamp",
              "type": "uint256"
            }
          ],
          "internalType": "struct TradeBase.TradeInfo",
          "name": "",
          "type": "tuple"
        }
      ],
      "stateMutability": "view",
      "type": "function"
    },
    {
      "inputs": [
        {
          "internalType": "address",
          "name": "user",
          "type": "address"
        },
        {
          "internalType": "uint256",
          "name": "page",
          "type": "uint256"
        },
        {
          "internalType": "uint256",
          "name": "size",
          "type": "uint256"
        }
      ],
      "name": "getTradesByAddress",
      "outputs": [
        {
          "components": [
            {
              "components": [
                {
                  "internalType": "address",
                  "name": "from",
                  "type": "address"
                },
                {
                  "internalType": "address",
                  "name": "to",
                  "type": "address"
                },
                {
                  "internalType": "uint256",
                  "name": "amount",
                  "type": "uint256"
                },
                {
                  "internalType": "uint256",
                  "name": "timestamp",
                  "type": "uint256"
                }
              ],
              "internalType": "struct TradeBase.TradeInfo[]",
              "name": "trades",
              "type": "tuple[]"
            },
            {
              "internalType": "uint256",
              "name": "totalTrades",
              "type": "uint256"
            },
            {
              "internalType": "bool",
              "name": "hasNext",
              "type": "bool"
            }
          ],
          "internalType": "struct TradeBase.TradeResult",
          "name": "",
          "type": "tuple"
        }
      ],
      "stateMutability": "view",
      "type": "function"
    },
    {
      "inputs": [
        {
          "internalType": "address",
          "name": "user",
          "type": "address"
        }
      ],
      "name": "getUserBalance",
      "outputs": [
        {
          "internalType": "uint256",
          "name": "",
          "type": "uint256"
        }
      ],
      "stateMutability": "view",
      "type": "function"
    },
    {
      "inputs": [],
      "name": "nftContract",
      "outputs": [
        {
          "internalType": "contract NFTFrame",
          "name": "",
          "type": "address"
        }
      ],
      "stateMutability": "view",
      "type": "function"
    },
    {
      "inputs": [],
      "name": "owner",
      "outputs": [
        {
          "internalType": "address",
          "name": "",
          "type": "address"
        }
      ],
      "stateMutability": "view",
      "type": "function"
    },
    {
      "inputs": [],
      "name": "renounceOwnership",
      "outputs": [],
      "stateMutability": "nonpayable",
      "type": "function"
    },
    {
      "inputs": [],
      "name": "tokenContract",
      "outputs": [
        {
          "internalType": "contract AhoraCoin",
          "name": "",
          "type": "address"
        }
      ],
      "stateMutability": "view",
      "type": "function"
    },
    {
      "inputs": [],
      "name": "tradeId",
      "outputs": [
        {
          "internalType": "uint256",
          "name": "",
          "type": "uint256"
        }
      ],
      "stateMutability": "view",
      "type": "function"
    },
    {
      "inputs": [
        {
          "internalType": "uint256",
          "name": "",
          "type": "uint256"
        }
      ],
      "name": "trades",
      "outputs": [
        {
          "internalType": "address",
          "name": "from",
          "type": "address"
        },
        {
          "internalType": "address",
          "name": "to",
          "type": "address"
        },
        {
          "internalType": "uint256",
          "name": "amount",
          "type": "uint256"
        },
        {
          "internalType": "uint256",
          "name": "timestamp",
          "type": "uint256"
        }
      ],
      "stateMutability": "view",
      "type": "function"
    },
    {
      "inputs": [
        {
          "internalType": "address",
          "name": "to",
          "type": "address"
        },
        {
          "internalType": "uint256",
          "name": "amount",
          "type": "uint256"
        }
      ],
      "name": "transferBalance",
      "outputs": [],
      "stateMutability": "nonpayable",
      "type": "function"
    },
    {
      "inputs": [
        {
          "internalType": "address",
          "name": "from",
          "type": "address"
        },
        {
          "internalType": "address",
          "name": "to",
          "type": "address"
        },
        {
          "internalType": "uint256",
          "name": "amount",
          "type": "uint256"
        }
      ],
      "name": "transferBalanceByAdmin",
      "outputs": [],
      "stateMutability": "nonpayable",
      "type": "function"
    },
    {
      "inputs": [
        {
          "internalType": "address",
          "name": "newOwner",
          "type": "address"
        }
      ],
      "name": "transferOwnership",
      "outputs": [],
      "stateMutability": "nonpayable",
      "type": "function"
    },
    {
      "inputs": [
        {
          "internalType": "uint256",
          "name": "amount",
          "type": "uint256"
        }
      ],
      "name": "withdraw",
      "outputs": [],
      "stateMutability": "nonpayable",
      "type": "function"
    },
    {
      "inputs": [
        {
          "internalType": "uint256",
          "name": "_nftId",
          "type": "uint256"
        }
      ],
      "name": "startAuction",
      "outputs": [],
      "stateMutability": "nonpayable",
      "type": "function"
    },
    {
      "inputs": [
        {
          "internalType": "uint256",
          "name": "_nftId",
          "type": "uint256"
        }
      ],
      "name": "cancelAuction",
      "outputs": [],
      "stateMutability": "nonpayable",
      "type": "function"
    },
    {
      "inputs": [
        {
          "internalType": "uint256",
          "name": "_nftId",
          "type": "uint256"
        },
        {
          "internalType": "address",
          "name": "buyer",
          "type": "address"
        },
        {
          "internalType": "uint256",
          "name": "amount",
          "type": "uint256"
        }
      ],
      "name": "closeAuction",
      "outputs": [],
      "stateMutability": "nonpayable",
      "type": "function"
    },
    {
      "inputs": [
        {
          "internalType": "uint256",
          "name": "_nftId",
          "type": "uint256"
        }
      ],
      "name": "getAuctionInfo",
      "outputs": [
        {
          "components": [
            {
              "internalType": "uint256",
              "name": "nftId",
              "type": "uint256"
            },
            {
              "internalType": "address",
              "name": "seller",
              "type": "address"
            }
          ],
          "internalType": "struct NFTAuction.Auction",
          "name": "",
          "type": "tuple"
        }
      ],
      "stateMutability": "view",
      "type": "function"
    }
  ],
  "bytecode": "0x60806040523480156200001157600080fd5b5062000032620000266200003f60201b60201c565b6200004760201b60201c565b600180819055506200010b565b600033905090565b60008060009054906101000a900473ffffffffffffffffffffffffffffffffffffffff169050816000806101000a81548173ffffffffffffffffffffffffffffffffffffffff021916908373ffffffffffffffffffffffffffffffffffffffff1602179055508173ffffffffffffffffffffffffffffffffffffffff168173ffffffffffffffffffffffffffffffffffffffff167f8be0079c531659141344cd1fd0a4f28419497f9722a3daafe3b4186f6b6457e060405160405180910390a35050565b614119806200011b6000396000f3fe608060405234801561001057600080fd5b50600436106101375760003560e01c8063715018a6116100b8578063b6b55f251161007c578063b6b55f251461032a578063d3e6fa1914610346578063d56d229d14610364578063d750558f14610382578063f2fde38b146103b2578063fc3fc4ed146103ce57610137565b8063715018a6146102ae5780638109b005146102b857806389666664146102d45780638da5cb5b146102f057806396b5a7551461030e57610137565b806347734892116100ff57806347734892146101f557806355a373d61461022557806356a6d9ef14610243578063571a26a01461025f5780636f9fb98a1461029057610137565b806302c5115b1461013c578063065de74c1461015a5780631e6c598e146101765780632e1a7d4d146101a957806336c67897146101c5575b600080fd5b6101446103fe565b604051610151919061392a565b60405180910390f35b610174600480360381019061016f9190613027565b610404565b005b610190600480360381019061018b9190613027565b6106db565b6040516101a094939291906135d4565b60405180910390f35b6101c360048036038101906101be9190613027565b61074b565b005b6101df60048036038101906101da9190613027565b610af5565b6040516101ec91906138ed565b60405180910390f35b61020f600480360381019061020a9190612e71565b610c33565b60405161021c919061392a565b60405180910390f35b61022d610c7c565b60405161023a919061369c565b60405180910390f35b61025d60048036038101906102589190612f1e565b610ca2565b005b61027960048036038101906102749190613027565b61103d565b604051610287929190613945565b60405180910390f35b610298611081565b6040516102a5919061392a565b60405180910390f35b6102b6611133565b005b6102d260048036038101906102cd9190613081565b6111bb565b005b6102ee60048036038101906102e99190612ecb565b61158c565b005b6102f86119a4565b6040516103059190613582565b60405180910390f35b61032860048036038101906103239190613027565b6119cd565b005b610344600480360381019061033f9190613027565b611dc7565b005b61034e6120ef565b60405161035b919061367a565b60405180910390f35b61036c6121a6565b60405161037991906136b7565b60405180910390f35b61039c60048036038101906103979190612f5e565b6121cc565b6040516103a99190613908565b60405180910390f35b6103cc60048036038101906103c79190612e71565b61251d565b005b6103e860048036038101906103e39190613027565b612615565b6040516103f591906138d2565b60405180910390f35b60065481565b6002600154141561044a576040517f08c379a000000000000000000000000000000000000000000000000000000000815260040161044190613892565b60405180910390fd5b60026001819055503373ffffffffffffffffffffffffffffffffffffffff16600260009054906101000a900473ffffffffffffffffffffffffffffffffffffffff1673ffffffffffffffffffffffffffffffffffffffff16636352211e836040518263ffffffff1660e01b81526004016104c4919061392a565b60206040518083038186803b1580156104dc57600080fd5b505afa1580156104f0573d6000803e3d6000fd5b505050506040513d601f19601f820116820180604052508101906105149190612e9e565b73ffffffffffffffffffffffffffffffffffffffff161461056a576040517f08c379a000000000000000000000000000000000000000000000000000000000815260040161056190613772565b60405180910390fd5b600260009054906101000a900473ffffffffffffffffffffffffffffffffffffffff1673ffffffffffffffffffffffffffffffffffffffff166335b9594c8233306040518463ffffffff1660e01b81526004016105c99392919061396e565b600060405180830381600087803b1580156105e357600080fd5b505af11580156105f7573d6000803e3d6000fd5b5050505060405180604001604052808281526020013373ffffffffffffffffffffffffffffffffffffffff16815250600860008381526020019081526020016000206000820151816000015560208201518160010160006101000a81548173ffffffffffffffffffffffffffffffffffffffff021916908373ffffffffffffffffffffffffffffffffffffffff1602179055509050503373ffffffffffffffffffffffffffffffffffffffff16817f16da476d7265fc95576888b93de4fa4849d6cea1228235887f569c6530ddfec160405160405180910390a36001808190555050565b60056020528060005260406000206000915090508060000160009054906101000a900473ffffffffffffffffffffffffffffffffffffffff16908060010160009054906101000a900473ffffffffffffffffffffffffffffffffffffffff16908060020154908060030154905084565b60026001541415610791576040517f08c379a000000000000000000000000000000000000000000000000000000000815260040161078890613892565b60405180910390fd5b6002600181905550600081116107dc576040517f08c379a00000000000000000000000000000000000000000000000000000000081526004016107d3906137f2565b60405180910390fd5b80600460003373ffffffffffffffffffffffffffffffffffffffff1673ffffffffffffffffffffffffffffffffffffffff16815260200190815260200160002054101561085e576040517f08c379a000000000000000000000000000000000000000000000000000000000815260040161085590613752565b60405180910390fd5b600360009054906101000a900473ffffffffffffffffffffffffffffffffffffffff1673ffffffffffffffffffffffffffffffffffffffff16636153fced3033846040518463ffffffff1660e01b81526004016108bd9392919061359d565b602060405180830381600087803b1580156108d757600080fd5b505af11580156108eb573d6000803e3d6000fd5b505050506040513d601f19601f8201168201806040525081019061090f9190612ffa565b61094e576040517f08c379a000000000000000000000000000000000000000000000000000000000815260040161094590613732565b60405180910390fd5b80600460003373ffffffffffffffffffffffffffffffffffffffff1673ffffffffffffffffffffffffffffffffffffffff168152602001908152602001600020600082825461099d9190613b60565b925050819055506109b03360008361271c565b3373ffffffffffffffffffffffffffffffffffffffff167f650fdf669e93aa6c8ff3defe2da9c12b64f1548e5e1e54e803f4c1beb6466c8e82600360009054906101000a900473ffffffffffffffffffffffffffffffffffffffff1673ffffffffffffffffffffffffffffffffffffffff166370a08231336040518263ffffffff1660e01b8152600401610a449190613582565b60206040518083038186803b158015610a5c57600080fd5b505afa158015610a70573d6000803e3d6000fd5b505050506040513d601f19601f82011682018060405250810190610a949190613054565b600460003373ffffffffffffffffffffffffffffffffffffffff1673ffffffffffffffffffffffffffffffffffffffff16815260200190815260200160002054604051610ae3939291906139a5565b60405180910390a26001808190555050565b610afd612cc3565b600082118015610b0f57506006548211155b610b4e576040517f08c379a0000000000000000000000000000000000000000000000000000000008152600401610b4590613852565b60405180910390fd5b600560008381526020019081526020016000206040518060800160405290816000820160009054906101000a900473ffffffffffffffffffffffffffffffffffffffff1673ffffffffffffffffffffffffffffffffffffffff1673ffffffffffffffffffffffffffffffffffffffff1681526020016001820160009054906101000a900473ffffffffffffffffffffffffffffffffffffffff1673ffffffffffffffffffffffffffffffffffffffff1673ffffffffffffffffffffffffffffffffffffffff168152602001600282015481526020016003820154815250509050919050565b6000600460008373ffffffffffffffffffffffffffffffffffffffff1673ffffffffffffffffffffffffffffffffffffffff168152602001908152602001600020549050919050565b600360009054906101000a900473ffffffffffffffffffffffffffffffffffffffff1681565b60026001541415610ce8576040517f08c379a0000000000000000000000000000000000000000000000000000000008152600401610cdf90613892565b60405180910390fd5b6002600181905550600073ffffffffffffffffffffffffffffffffffffffff168273ffffffffffffffffffffffffffffffffffffffff161415610d60576040517f08c379a0000000000000000000000000000000000000000000000000000000008152600401610d57906137b2565b60405180910390fd5b3373ffffffffffffffffffffffffffffffffffffffff168273ffffffffffffffffffffffffffffffffffffffff161415610dcf576040517f08c379a0000000000000000000000000000000000000000000000000000000008152600401610dc690613832565b60405180910390fd5b60008111610e12576040517f08c379a0000000000000000000000000000000000000000000000000000000008152600401610e0990613872565b60405180910390fd5b80600460003373ffffffffffffffffffffffffffffffffffffffff1673ffffffffffffffffffffffffffffffffffffffff168152602001908152602001600020541015610e94576040517f08c379a0000000000000000000000000000000000000000000000000000000008152600401610e8b90613752565b60405180910390fd5b80600460003373ffffffffffffffffffffffffffffffffffffffff1673ffffffffffffffffffffffffffffffffffffffff1681526020019081526020016000206000828254610ee39190613b60565b9250508190555080600460008473ffffffffffffffffffffffffffffffffffffffff1673ffffffffffffffffffffffffffffffffffffffff1681526020019081526020016000206000828254610f399190613ab0565b92505081905550610f4b33838361271c565b8173ffffffffffffffffffffffffffffffffffffffff163373ffffffffffffffffffffffffffffffffffffffff167f941baa54585e364d2377b71ffcd6321c9e8b3d1b46e3db66121ee5b08bf12acf83600460003373ffffffffffffffffffffffffffffffffffffffff1673ffffffffffffffffffffffffffffffffffffffff16815260200190815260200160002054600460008873ffffffffffffffffffffffffffffffffffffffff1673ffffffffffffffffffffffffffffffffffffffff1681526020019081526020016000205460405161102a939291906139a5565b60405180910390a3600180819055505050565b60086020528060005260406000206000915090508060000154908060010160009054906101000a900473ffffffffffffffffffffffffffffffffffffffff16905082565b6000600360009054906101000a900473ffffffffffffffffffffffffffffffffffffffff1673ffffffffffffffffffffffffffffffffffffffff166370a08231306040518263ffffffff1660e01b81526004016110de9190613582565b60206040518083038186803b1580156110f657600080fd5b505afa15801561110a573d6000803e3d6000fd5b505050506040513d601f19601f8201168201806040525081019061112e9190613054565b905090565b61113b6129d2565b73ffffffffffffffffffffffffffffffffffffffff166111596119a4565b73ffffffffffffffffffffffffffffffffffffffff16146111af576040517f08c379a00000000000000000000000000000000000000000000000000000000081526004016111a6906137d2565b60405180910390fd5b6111b960006129da565b565b60026001541415611201576040517f08c379a00000000000000000000000000000000000000000000000000000000081526004016111f890613892565b60405180910390fd5b60026001819055506112116129d2565b73ffffffffffffffffffffffffffffffffffffffff1661122f6119a4565b73ffffffffffffffffffffffffffffffffffffffff1614611285576040517f08c379a000000000000000000000000000000000000000000000000000000000815260040161127c906137d2565b60405180910390fd5b6000600860008581526020019081526020016000209050600073ffffffffffffffffffffffffffffffffffffffff168160010160009054906101000a900473ffffffffffffffffffffffffffffffffffffffff1673ffffffffffffffffffffffffffffffffffffffff161415611330576040517f08c379a0000000000000000000000000000000000000000000000000000000008152600401611327906138b2565b60405180910390fd5b8060010160009054906101000a900473ffffffffffffffffffffffffffffffffffffffff1673ffffffffffffffffffffffffffffffffffffffff168373ffffffffffffffffffffffffffffffffffffffff1614156113c3576040517f08c379a00000000000000000000000000000000000000000000000000000000081526004016113ba90613812565b60405180910390fd5b60008160010160009054906101000a900473ffffffffffffffffffffffffffffffffffffffff169050826113f685610c33565b1015611437576040517f08c379a000000000000000000000000000000000000000000000000000000000815260040161142e90613752565b60405180910390fd5b611442848285612a9e565b600260009054906101000a900473ffffffffffffffffffffffffffffffffffffffff1673ffffffffffffffffffffffffffffffffffffffff166335b9594c8630336040518463ffffffff1660e01b81526004016114a19392919061396e565b600060405180830381600087803b1580156114bb57600080fd5b505af11580156114cf573d6000803e3d6000fd5b50505050600860008681526020019081526020016000206000808201600090556001820160006101000a81549073ffffffffffffffffffffffffffffffffffffffff021916905550508373ffffffffffffffffffffffffffffffffffffffff168173ffffffffffffffffffffffffffffffffffffffff16867f7787e67b4b8529b1aa2c1a59dbf0f0e766d63860956b86f33f5d87008823550186604051611576919061392a565b60405180910390a4505060018081905550505050565b6115946129d2565b73ffffffffffffffffffffffffffffffffffffffff166115b26119a4565b73ffffffffffffffffffffffffffffffffffffffff1614611608576040517f08c379a00000000000000000000000000000000000000000000000000000000081526004016115ff906137d2565b60405180910390fd5b6002600154141561164e576040517f08c379a000000000000000000000000000000000000000000000000000000000815260040161164590613892565b60405180910390fd5b6002600181905550600073ffffffffffffffffffffffffffffffffffffffff168273ffffffffffffffffffffffffffffffffffffffff1614156116c6576040517f08c379a00000000000000000000000000000000000000000000000000000000081526004016116bd906137b2565b60405180910390fd5b8273ffffffffffffffffffffffffffffffffffffffff168273ffffffffffffffffffffffffffffffffffffffff161415611735576040517f08c379a000000000000000000000000000000000000000000000000000000000815260040161172c90613832565b60405180910390fd5b60008111611778576040517f08c379a000000000000000000000000000000000000000000000000000000000815260040161176f90613872565b60405180910390fd5b80600460008573ffffffffffffffffffffffffffffffffffffffff1673ffffffffffffffffffffffffffffffffffffffff1681526020019081526020016000205410156117fa576040517f08c379a00000000000000000000000000000000000000000000000000000000081526004016117f190613752565b60405180910390fd5b80600460008573ffffffffffffffffffffffffffffffffffffffff1673ffffffffffffffffffffffffffffffffffffffff16815260200190815260200160002060008282546118499190613b60565b9250508190555080600460008473ffffffffffffffffffffffffffffffffffffffff1673ffffffffffffffffffffffffffffffffffffffff168152602001908152602001600020600082825461189f9190613ab0565b925050819055506118b183838361271c565b8173ffffffffffffffffffffffffffffffffffffffff168373ffffffffffffffffffffffffffffffffffffffff167f941baa54585e364d2377b71ffcd6321c9e8b3d1b46e3db66121ee5b08bf12acf83600460008873ffffffffffffffffffffffffffffffffffffffff1673ffffffffffffffffffffffffffffffffffffffff16815260200190815260200160002054600460008873ffffffffffffffffffffffffffffffffffffffff1673ffffffffffffffffffffffffffffffffffffffff16815260200190815260200160002054604051611990939291906139a5565b60405180910390a360018081905550505050565b60008060009054906101000a900473ffffffffffffffffffffffffffffffffffffffff16905090565b60026001541415611a13576040517f08c379a0000000000000000000000000000000000000000000000000000000008152600401611a0a90613892565b60405180910390fd5b6002600181905550611a236129d2565b73ffffffffffffffffffffffffffffffffffffffff16611a416119a4565b73ffffffffffffffffffffffffffffffffffffffff1614611a97576040517f08c379a0000000000000000000000000000000000000000000000000000000008152600401611a8e906137d2565b60405180910390fd5b60006008600083815260200190815260200160002090503073ffffffffffffffffffffffffffffffffffffffff16600260009054906101000a900473ffffffffffffffffffffffffffffffffffffffff1673ffffffffffffffffffffffffffffffffffffffff16636352211e846040518263ffffffff1660e01b8152600401611b20919061392a565b60206040518083038186803b158015611b3857600080fd5b505afa158015611b4c573d6000803e3d6000fd5b505050506040513d601f19601f82011682018060405250810190611b709190612e9e565b73ffffffffffffffffffffffffffffffffffffffff1614611bc6576040517f08c379a0000000000000000000000000000000000000000000000000000000008152600401611bbd90613792565b60405180910390fd5b600073ffffffffffffffffffffffffffffffffffffffff168160010160009054906101000a900473ffffffffffffffffffffffffffffffffffffffff1673ffffffffffffffffffffffffffffffffffffffff161415611c5a576040517f08c379a0000000000000000000000000000000000000000000000000000000008152600401611c51906138b2565b60405180910390fd5b600260009054906101000a900473ffffffffffffffffffffffffffffffffffffffff1673ffffffffffffffffffffffffffffffffffffffff166335b9594c83308460010160009054906101000a900473ffffffffffffffffffffffffffffffffffffffff166040518463ffffffff1660e01b8152600401611cdd9392919061396e565b600060405180830381600087803b158015611cf757600080fd5b505af1158015611d0b573d6000803e3d6000fd5b50505050600860008381526020019081526020016000206000808201600090556001820160006101000a81549073ffffffffffffffffffffffffffffffffffffffff021916905550508060010160009054906101000a900473ffffffffffffffffffffffffffffffffffffffff1673ffffffffffffffffffffffffffffffffffffffff16827f10ac9f0bb365b5d22d7bec500408692f23fdf83eadfec71615ef88b4c1134f0e60405160405180910390a3506001808190555050565b60026001541415611e0d576040517f08c379a0000000000000000000000000000000000000000000000000000000008152600401611e0490613892565b60405180910390fd5b600260018190555060008111611e58576040517f08c379a0000000000000000000000000000000000000000000000000000000008152600401611e4f906136f2565b60405180910390fd5b600360009054906101000a900473ffffffffffffffffffffffffffffffffffffffff1673ffffffffffffffffffffffffffffffffffffffff16636153fced3330846040518463ffffffff1660e01b8152600401611eb79392919061359d565b602060405180830381600087803b158015611ed157600080fd5b505af1158015611ee5573d6000803e3d6000fd5b505050506040513d601f19601f82011682018060405250810190611f099190612ffa565b611f48576040517f08c379a0000000000000000000000000000000000000000000000000000000008152600401611f3f90613732565b60405180910390fd5b80600460003373ffffffffffffffffffffffffffffffffffffffff1673ffffffffffffffffffffffffffffffffffffffff1681526020019081526020016000206000828254611f979190613ab0565b92505081905550611faa6000338361271c565b3373ffffffffffffffffffffffffffffffffffffffff167f36af321ec8d3c75236829c5317affd40ddb308863a1236d2d277a4025cccee1e82600360009054906101000a900473ffffffffffffffffffffffffffffffffffffffff1673ffffffffffffffffffffffffffffffffffffffff166370a08231336040518263ffffffff1660e01b815260040161203e9190613582565b60206040518083038186803b15801561205657600080fd5b505afa15801561206a573d6000803e3d6000fd5b505050506040513d601f19601f8201168201806040525081019061208e9190613054565b600460003373ffffffffffffffffffffffffffffffffffffffff1673ffffffffffffffffffffffffffffffffffffffff168152602001908152602001600020546040516120dd939291906139a5565b60405180910390a26001808190555050565b6060600260009054906101000a900473ffffffffffffffffffffffffffffffffffffffff1673ffffffffffffffffffffffffffffffffffffffff1663e6b1fa2a306040518263ffffffff1660e01b815260040161214c9190613582565b60006040518083038186803b15801561216457600080fd5b505afa158015612178573d6000803e3d6000fd5b505050506040513d6000823e3d601f19601f820116820180604052508101906121a19190612fb1565b905090565b600260009054906101000a900473ffffffffffffffffffffffffffffffffffffffff1681565b6121d4612d17565b6000600760008673ffffffffffffffffffffffffffffffffffffffff1673ffffffffffffffffffffffffffffffffffffffff16815260200190815260200160002090506000818054905090506000848661222e9190613b06565b821161223b57600061225f565b846001876122499190613ab0565b6122539190613b06565b8261225e9190613b60565b5b90506000858761226f9190613b06565b8361227a9190613b60565b90508282118061228a5750600082105b1561229457600091505b6000811115806122af57508286886122ac9190613b06565b10155b15612331576040518060600160405280600067ffffffffffffffff8111156122da576122d9613cfc565b5b60405190808252806020026020018201604052801561231357816020015b612300612cc3565b8152602001906001900390816122f85790505b50815260200184815260200160001515815250945050505050612516565b6000828261233f9190613b60565b905060008167ffffffffffffffff81111561235d5761235c613cfc565b5b60405190808252806020026020018201604052801561239657816020015b612383612cc3565b81526020019060019003908161237b5790505b50905060005b828110156124e7576005600088836001886123b79190613b60565b6123c19190613b60565b815481106123d2576123d1613ccd565b5b906000526020600020015481526020019081526020016000206040518060800160405290816000820160009054906101000a900473ffffffffffffffffffffffffffffffffffffffff1673ffffffffffffffffffffffffffffffffffffffff1673ffffffffffffffffffffffffffffffffffffffff1681526020016001820160009054906101000a900473ffffffffffffffffffffffffffffffffffffffff1673ffffffffffffffffffffffffffffffffffffffff1673ffffffffffffffffffffffffffffffffffffffff168152602001600282015481526020016003820154815250508282815181106124c9576124c8613ccd565b5b602002602001018190525080806124df90613c55565b91505061239c565b506000808511905060405180606001604052808381526020018781526020018215158152509750505050505050505b9392505050565b6125256129d2565b73ffffffffffffffffffffffffffffffffffffffff166125436119a4565b73ffffffffffffffffffffffffffffffffffffffff1614612599576040517f08c379a0000000000000000000000000000000000000000000000000000000008152600401612590906137d2565b60405180910390fd5b600073ffffffffffffffffffffffffffffffffffffffff168173ffffffffffffffffffffffffffffffffffffffff161415612609576040517f08c379a000000000000000000000000000000000000000000000000000000000815260040161260090613712565b60405180910390fd5b612612816129da565b50565b61261d612d3a565b600060086000848152602001908152602001600020604051806040016040529081600082015481526020016001820160009054906101000a900473ffffffffffffffffffffffffffffffffffffffff1673ffffffffffffffffffffffffffffffffffffffff1673ffffffffffffffffffffffffffffffffffffffff16815250509050600073ffffffffffffffffffffffffffffffffffffffff16816020015173ffffffffffffffffffffffffffffffffffffffff161415612713576040517f08c379a000000000000000000000000000000000000000000000000000000000815260040161270a906136d2565b60405180910390fd5b80915050919050565b6006600081548092919061272f90613c55565b919050555060405180608001604052808473ffffffffffffffffffffffffffffffffffffffff1681526020018373ffffffffffffffffffffffffffffffffffffffff1681526020018281526020014281525060056000600654815260200190815260200160002060008201518160000160006101000a81548173ffffffffffffffffffffffffffffffffffffffff021916908373ffffffffffffffffffffffffffffffffffffffff16021790555060208201518160010160006101000a81548173ffffffffffffffffffffffffffffffffffffffff021916908373ffffffffffffffffffffffffffffffffffffffff1602179055506040820151816002015560608201518160030155905050600760008473ffffffffffffffffffffffffffffffffffffffff1673ffffffffffffffffffffffffffffffffffffffff1681526020019081526020016000206006549080600181540180825580915050600190039060005260206000200160009091909190915055600760008373ffffffffffffffffffffffffffffffffffffffff1673ffffffffffffffffffffffffffffffffffffffff16815260200190815260200160002060065490806001815401808255809150506001900390600052602060002001600090919091909150556006547fc09ae797f474a8568a060562997bd2e2f8dc85b50a348036d10095b3dbbfeeba84848442600460008a73ffffffffffffffffffffffffffffffffffffffff1673ffffffffffffffffffffffffffffffffffffffff16815260200190815260200160002054600460008a73ffffffffffffffffffffffffffffffffffffffff1673ffffffffffffffffffffffffffffffffffffffff168152602001908152602001600020546040516129c596959493929190613619565b60405180910390a2505050565b600033905090565b60008060009054906101000a900473ffffffffffffffffffffffffffffffffffffffff169050816000806101000a81548173ffffffffffffffffffffffffffffffffffffffff021916908373ffffffffffffffffffffffffffffffffffffffff1602179055508173ffffffffffffffffffffffffffffffffffffffff168173ffffffffffffffffffffffffffffffffffffffff167f8be0079c531659141344cd1fd0a4f28419497f9722a3daafe3b4186f6b6457e060405160405180910390a35050565b80600460008573ffffffffffffffffffffffffffffffffffffffff1673ffffffffffffffffffffffffffffffffffffffff168152602001908152602001600020541015612b20576040517f08c379a0000000000000000000000000000000000000000000000000000000008152600401612b1790613752565b60405180910390fd5b80600460008573ffffffffffffffffffffffffffffffffffffffff1673ffffffffffffffffffffffffffffffffffffffff1681526020019081526020016000206000828254612b6f9190613b60565b9250508190555080600460008473ffffffffffffffffffffffffffffffffffffffff1673ffffffffffffffffffffffffffffffffffffffff1681526020019081526020016000206000828254612bc59190613ab0565b92505081905550612bd783838361271c565b8173ffffffffffffffffffffffffffffffffffffffff168373ffffffffffffffffffffffffffffffffffffffff167f545d69fe7f063ec653f15db654097f27f5cadbe11750199a40fd55b2504c6b4d83600460008873ffffffffffffffffffffffffffffffffffffffff1673ffffffffffffffffffffffffffffffffffffffff16815260200190815260200160002054600460008873ffffffffffffffffffffffffffffffffffffffff1673ffffffffffffffffffffffffffffffffffffffff16815260200190815260200160002054604051612cb6939291906139a5565b60405180910390a3505050565b6040518060800160405280600073ffffffffffffffffffffffffffffffffffffffff168152602001600073ffffffffffffffffffffffffffffffffffffffff16815260200160008152602001600081525090565b604051806060016040528060608152602001600081526020016000151581525090565b604051806040016040528060008152602001600073ffffffffffffffffffffffffffffffffffffffff1681525090565b6000612d7d612d7884613a01565b6139dc565b90508083825260208201905082856020860282011115612da057612d9f613d30565b5b60005b85811015612dd05781612db68882612e5c565b845260208401935060208301925050600181019050612da3565b5050509392505050565b600081359050612de98161409e565b92915050565b600081519050612dfe8161409e565b92915050565b600082601f830112612e1957612e18613d2b565b5b8151612e29848260208601612d6a565b91505092915050565b600081519050612e41816140b5565b92915050565b600081359050612e56816140cc565b92915050565b600081519050612e6b816140cc565b92915050565b600060208284031215612e8757612e86613d3a565b5b6000612e9584828501612dda565b91505092915050565b600060208284031215612eb457612eb3613d3a565b5b6000612ec284828501612def565b91505092915050565b600080600060608486031215612ee457612ee3613d3a565b5b6000612ef286828701612dda565b9350506020612f0386828701612dda565b9250506040612f1486828701612e47565b9150509250925092565b60008060408385031215612f3557612f34613d3a565b5b6000612f4385828601612dda565b9250506020612f5485828601612e47565b9150509250929050565b600080600060608486031215612f7757612f76613d3a565b5b6000612f8586828701612dda565b9350506020612f9686828701612e47565b9250506040612fa786828701612e47565b9150509250925092565b600060208284031215612fc757612fc6613d3a565b5b600082015167ffffffffffffffff811115612fe557612fe4613d35565b5b612ff184828501612e04565b91505092915050565b6000602082840312156130105761300f613d3a565b5b600061301e84828501612e32565b91505092915050565b60006020828403121561303d5761303c613d3a565b5b600061304b84828501612e47565b91505092915050565b60006020828403121561306a57613069613d3a565b5b600061307884828501612e5c565b91505092915050565b60008060006060848603121561309a57613099613d3a565b5b60006130a886828701612e47565b93505060206130b986828701612dda565b92505060406130ca86828701612e47565b9150509250925092565b60006130e0838361346a565b60808301905092915050565b60006130f88383613564565b60208301905092915050565b61310d81613b94565b82525050565b61311c81613b94565b82525050565b600061312d82613a4d565b6131378185613a7d565b935061314283613a2d565b8060005b8381101561317357815161315a88826130d4565b975061316583613a63565b925050600181019050613146565b5085935050505092915050565b600061318b82613a58565b6131958185613a8e565b93506131a083613a3d565b8060005b838110156131d15781516131b888826130ec565b97506131c383613a70565b9250506001810190506131a4565b5085935050505092915050565b6131e781613ba6565b82525050565b6131f681613bdc565b82525050565b61320581613bee565b82525050565b6000613218602383613a9f565b915061322382613d50565b604082019050919050565b600061323b602583613a9f565b915061324682613d9f565b604082019050919050565b600061325e602683613a9f565b915061326982613dee565b604082019050919050565b6000613281600f83613a9f565b915061328c82613e3d565b602082019050919050565b60006132a4601483613a9f565b91506132af82613e66565b602082019050919050565b60006132c7601683613a9f565b91506132d282613e8f565b602082019050919050565b60006132ea601283613a9f565b91506132f582613eb8565b602082019050919050565b600061330d601983613a9f565b915061331882613ee1565b602082019050919050565b6000613330602083613a9f565b915061333b82613f0a565b602082019050919050565b6000613353602883613a9f565b915061335e82613f33565b604082019050919050565b6000613376601a83613a9f565b915061338182613f82565b602082019050919050565b6000613399601b83613a9f565b91506133a482613fab565b602082019050919050565b60006133bc601083613a9f565b91506133c782613fd4565b602082019050919050565b60006133df602683613a9f565b91506133ea82613ffd565b604082019050919050565b6000613402601f83613a9f565b915061340d8261404c565b602082019050919050565b6000613425601b83613a9f565b915061343082614075565b602082019050919050565b6040820160008201516134516000850182613564565b5060208201516134646020850182613104565b50505050565b6080820160008201516134806000850182613104565b5060208201516134936020850182613104565b5060408201516134a66040850182613564565b5060608201516134b96060850182613564565b50505050565b6080820160008201516134d56000850182613104565b5060208201516134e86020850182613104565b5060408201516134fb6040850182613564565b50606082015161350e6060850182613564565b50505050565b600060608301600083015184820360008601526135318282613122565b91505060208301516135466020860182613564565b50604083015161355960408601826131de565b508091505092915050565b61356d81613bd2565b82525050565b61357c81613bd2565b82525050565b60006020820190506135976000830184613113565b92915050565b60006060820190506135b26000830186613113565b6135bf6020830185613113565b6135cc6040830184613573565b949350505050565b60006080820190506135e96000830187613113565b6135f66020830186613113565b6136036040830185613573565b6136106060830184613573565b95945050505050565b600060c08201905061362e6000830189613113565b61363b6020830188613113565b6136486040830187613573565b6136556060830186613573565b6136626080830185613573565b61366f60a0830184613573565b979650505050505050565b600060208201905081810360008301526136948184613180565b905092915050565b60006020820190506136b160008301846131ed565b92915050565b60006020820190506136cc60008301846131fc565b92915050565b600060208201905081810360008301526136eb8161320b565b9050919050565b6000602082019050818103600083015261370b8161322e565b9050919050565b6000602082019050818103600083015261372b81613251565b9050919050565b6000602082019050818103600083015261374b81613274565b9050919050565b6000602082019050818103600083015261376b81613297565b9050919050565b6000602082019050818103600083015261378b816132ba565b9050919050565b600060208201905081810360008301526137ab816132dd565b9050919050565b600060208201905081810360008301526137cb81613300565b9050919050565b600060208201905081810360008301526137eb81613323565b9050919050565b6000602082019050818103600083015261380b81613346565b9050919050565b6000602082019050818103600083015261382b81613369565b9050919050565b6000602082019050818103600083015261384b8161338c565b9050919050565b6000602082019050818103600083015261386b816133af565b9050919050565b6000602082019050818103600083015261388b816133d2565b9050919050565b600060208201905081810360008301526138ab816133f5565b9050919050565b600060208201905081810360008301526138cb81613418565b9050919050565b60006040820190506138e7600083018461343b565b92915050565b600060808201905061390260008301846134bf565b92915050565b600060208201905081810360008301526139228184613514565b905092915050565b600060208201905061393f6000830184613573565b92915050565b600060408201905061395a6000830185613573565b6139676020830184613113565b9392505050565b60006060820190506139836000830186613573565b6139906020830185613113565b61399d6040830184613113565b949350505050565b60006060820190506139ba6000830186613573565b6139c76020830185613573565b6139d46040830184613573565b949350505050565b60006139e66139f7565b90506139f28282613c24565b919050565b6000604051905090565b600067ffffffffffffffff821115613a1c57613a1b613cfc565b5b602082029050602081019050919050565b6000819050602082019050919050565b6000819050602082019050919050565b600081519050919050565b600081519050919050565b6000602082019050919050565b6000602082019050919050565b600082825260208201905092915050565b600082825260208201905092915050565b600082825260208201905092915050565b6000613abb82613bd2565b9150613ac683613bd2565b9250827fffffffffffffffffffffffffffffffffffffffffffffffffffffffffffffffff03821115613afb57613afa613c9e565b5b828201905092915050565b6000613b1182613bd2565b9150613b1c83613bd2565b9250817fffffffffffffffffffffffffffffffffffffffffffffffffffffffffffffffff0483118215151615613b5557613b54613c9e565b5b828202905092915050565b6000613b6b82613bd2565b9150613b7683613bd2565b925082821015613b8957613b88613c9e565b5b828203905092915050565b6000613b9f82613bb2565b9050919050565b60008115159050919050565b600073ffffffffffffffffffffffffffffffffffffffff82169050919050565b6000819050919050565b6000613be782613c00565b9050919050565b6000613bf982613c00565b9050919050565b6000613c0b82613c12565b9050919050565b6000613c1d82613bb2565b9050919050565b613c2d82613d3f565b810181811067ffffffffffffffff82111715613c4c57613c4b613cfc565b5b80604052505050565b6000613c6082613bd2565b91507fffffffffffffffffffffffffffffffffffffffffffffffffffffffffffffffff821415613c9357613c92613c9e565b5b600182019050919050565b7f4e487b7100000000000000000000000000000000000000000000000000000000600052601160045260246000fd5b7f4e487b7100000000000000000000000000000000000000000000000000000000600052603260045260246000fd5b7f4e487b7100000000000000000000000000000000000000000000000000000000600052604160045260246000fd5b600080fd5b600080fd5b600080fd5b600080fd5b6000601f19601f8301169050919050565b7f41756374696f6e20646f6573206e6f7420657869737420666f7220746869732060008201527f4e46540000000000000000000000000000000000000000000000000000000000602082015250565b7f4465706f73697420616d6f756e74206d7573742062652067726561746572207460008201527f68616e2030000000000000000000000000000000000000000000000000000000602082015250565b7f4f776e61626c653a206e6577206f776e657220697320746865207a65726f206160008201527f6464726573730000000000000000000000000000000000000000000000000000602082015250565b7f5472616e73666572206661696c65640000000000000000000000000000000000600082015250565b7f496e73756666696369656e742062616c616e6365000000000000000000000000600082015250565b7f596f7520646f6e2774206f776e2074686973204e465400000000000000000000600082015250565b7f4e4654206e6f7420696e2041756374696f6e0000000000000000000000000000600082015250565b7f496e76616c696420726563697069656e74206164647265737300000000000000600082015250565b7f4f776e61626c653a2063616c6c6572206973206e6f7420746865206f776e6572600082015250565b7f5769746864726177616c20616d6f756e74206d7573742062652067726561746560008201527f72207468616e2030000000000000000000000000000000000000000000000000602082015250565b7f53656c6c65722063616e6e6f7420626520746865206275796572000000000000600082015250565b7f43616e6e6f74207472616e7366657220746f20796f757273656c660000000000600082015250565b7f496e76616c696420747261646520494400000000000000000000000000000000600082015250565b7f5472616e7366657220616d6f756e74206d75737420626520677265617465722060008201527f7468616e20300000000000000000000000000000000000000000000000000000602082015250565b7f5265656e7472616e637947756172643a207265656e7472616e742063616c6c00600082015250565b7f546869732061756374696f6e20646f6573206e6f742065786973740000000000600082015250565b6140a781613b94565b81146140b257600080fd5b50565b6140be81613ba6565b81146140c957600080fd5b50565b6140d581613bd2565b81146140e057600080fd5b5056fea26469706673582212208e553c107425e6dbbfc46a0b11e8721f41258bb5102318dc81a6c69cf4cdac0064736f6c63430008070033",
  "immutableReferences": {},
  "source": "// SPDX-License-Identifier: MIT\r\npragma solidity ^0.8.7;\r\n\r\nimport \"./TradeBase.sol\";\r\n\r\ncontract NFTAuction is TradeBase {\r\n    struct Auction {\r\n        uint256 nftId;\r\n        address seller;\r\n    }\r\n\r\n    mapping(uint256 => Auction) public auctions;\r\n\r\n    event AuctionStarted(uint256 indexed nftId, address indexed seller);\r\n    event AuctionCancelled(uint256 indexed nftId, address indexed seller);\r\n    event AuctionClosed(uint256 indexed nftId, address indexed seller, address indexed buyer, uint256 price);\r\n\r\n    //   \r\n    function startAuction(uint256 _nftId) external nonReentrant {\r\n        require(nftContract.ownerOf(_nftId) == msg.sender, \"You don't own this NFT\");\r\n        \r\n        nftContract.transferNFTByAdmin(_nftId, msg.sender, address(this));\r\n\r\n        auctions[_nftId] = Auction({\r\n            nftId: _nftId,\r\n            seller: msg.sender\r\n        });\r\n\r\n        emit AuctionStarted(_nftId, msg.sender);\r\n    }\r\n\r\n    //    \r\n    function cancelAuction(uint256 _nftId) external nonReentrant onlyOwner {\r\n        Auction storage auction = auctions[_nftId];\r\n        require(nftContract.ownerOf(_nftId) == address(this), \"NFT not in Auction\");\r\n        require(auction.seller != address(0), \"This auction does not exist\");\r\n        \r\n        nftContract.transferNFTByAdmin(_nftId, address(this), auction.seller);\r\n\r\n        delete auctions[_nftId];\r\n\r\n        emit AuctionCancelled(_nftId, auction.seller);\r\n    }\r\n\r\n    //    ( )\r\n    function closeAuction(uint256 _nftId, address buyer, uint256 amount) external nonReentrant onlyOwner {\r\n        Auction storage auction = auctions[_nftId];\r\n        require(auction.seller != address(0), \"This auction does not exist\");\r\n        require(buyer != auction.seller, \"Seller cannot be the buyer\");\r\n\r\n        address seller = auction.seller;\r\n\r\n        require(getUserBalance(buyer) >= amount, \"Insufficient balance\");\r\n\r\n        _adjustBalances(buyer, seller, amount);\r\n\r\n        nftContract.transferNFTByAdmin(_nftId, address(this), msg.sender);\r\n\r\n        delete auctions[_nftId];\r\n\r\n        emit AuctionClosed(_nftId, seller, buyer, amount);\r\n    }\r\n\r\n    function getAuctionInfo(uint256 _nftId) public view returns (Auction memory) {\r\n        Auction memory auction = auctions[_nftId];\r\n        require(auction.seller != address(0), \"Auction does not exist for this NFT\");\r\n        return auction;\r\n    }\r\n}",
  "sourcePath": "C:\\Users\\SSAFY\\Desktop\\semonemo\\backend\\blockchain-server\\smartcontract\\contracts\\NFTAuction.sol",
  "compiler": {
    "name": "solc",
    "version": "0.8.7+commit.e28d00a7.Emscripten.clang"
  },
  "schemaVersion": "3.4.16",
  "updatedAt": "2024-10-07T06:34:24.306Z",
  "devdoc": {
    "kind": "dev",
    "methods": {
      "owner()": {
        "details": "Returns the address of the current owner."
      },
      "renounceOwnership()": {
        "details": "Leaves the contract without owner. It will not be possible to call `onlyOwner` functions anymore. Can only be called by the current owner. NOTE: Renouncing ownership will leave the contract without an owner, thereby removing any functionality that is only available to the owner."
      },
      "transferOwnership(address)": {
        "details": "Transfers ownership of the contract to a new account (`newOwner`). Can only be called by the current owner."
      }
    },
    "version": 1
  },
  "userdoc": {
    "kind": "user",
    "methods": {},
    "version": 1
  }
}