{
  "contractName": "NFTAuction",
  "abi": [
    {
      "inputs": [
        {
          "internalType": "address",
          "name": "_nftContractAddress",
          "type": "address"
        },
        {
          "internalType": "address",
          "name": "_tokenContractAddress",
          "type": "address"
        }
      ],
      "stateMutability": "nonpayable",
      "type": "constructor"
    },
    {
      "anonymous": false,
      "inputs": [
        {
          "indexed": true,
          "internalType": "uint256",
          "name": "nftId",
          "type": "uint256"
        },
        {
          "indexed": true,
          "internalType": "address",
          "name": "seller",
          "type": "address"
        },
        {
          "indexed": false,
          "internalType": "uint256",
          "name": "startingPrice",
          "type": "uint256"
        }
      ],
      "name": "AuctionCreated",
      "type": "event"
    },
    {
      "anonymous": false,
      "inputs": [
        {
          "indexed": true,
          "internalType": "uint256",
          "name": "nftId",
          "type": "uint256"
        },
        {
          "indexed": true,
          "internalType": "address",
          "name": "winner",
          "type": "address"
        },
        {
          "indexed": false,
          "internalType": "uint256",
          "name": "winningBid",
          "type": "uint256"
        }
      ],
      "name": "AuctionFinalized",
      "type": "event"
    },
    {
      "anonymous": false,
      "inputs": [
        {
          "indexed": true,
          "internalType": "uint256",
          "name": "nftId",
          "type": "uint256"
        },
        {
          "indexed": true,
          "internalType": "address",
          "name": "bidder",
          "type": "address"
        },
        {
          "indexed": false,
          "internalType": "uint256",
          "name": "bidAmount",
          "type": "uint256"
        }
      ],
      "name": "BidPlaced",
      "type": "event"
    },
    {
      "anonymous": false,
      "inputs": [
        {
          "indexed": true,
          "internalType": "address",
          "name": "previousOwner",
          "type": "address"
        },
        {
          "indexed": true,
          "internalType": "address",
          "name": "newOwner",
          "type": "address"
        }
      ],
      "name": "OwnershipTransferred",
      "type": "event"
    },
    {
      "inputs": [
        {
          "internalType": "uint256",
          "name": "",
          "type": "uint256"
        }
      ],
      "name": "auctions",
      "outputs": [
        {
          "internalType": "uint256",
          "name": "nftId",
          "type": "uint256"
        },
        {
          "internalType": "address",
          "name": "seller",
          "type": "address"
        },
        {
          "internalType": "uint256",
          "name": "startingPrice",
          "type": "uint256"
        },
        {
          "internalType": "uint256",
          "name": "highestBid",
          "type": "uint256"
        },
        {
          "internalType": "address",
          "name": "highestBidder",
          "type": "address"
        },
        {
          "internalType": "bool",
          "name": "isFinished",
          "type": "bool"
        }
      ],
      "stateMutability": "view",
      "type": "function",
      "constant": true
    },
    {
      "inputs": [],
      "name": "nftContract",
      "outputs": [
        {
          "internalType": "contract NFTFrame",
          "name": "",
          "type": "address"
        }
      ],
      "stateMutability": "view",
      "type": "function",
      "constant": true
    },
    {
      "inputs": [],
      "name": "owner",
      "outputs": [
        {
          "internalType": "address",
          "name": "",
          "type": "address"
        }
      ],
      "stateMutability": "view",
      "type": "function",
      "constant": true
    },
    {
      "inputs": [],
      "name": "renounceOwnership",
      "outputs": [],
      "stateMutability": "nonpayable",
      "type": "function"
    },
    {
      "inputs": [],
      "name": "tokenContract",
      "outputs": [
        {
          "internalType": "contract AhoraCoin",
          "name": "",
          "type": "address"
        }
      ],
      "stateMutability": "view",
      "type": "function",
      "constant": true
    },
    {
      "inputs": [
        {
          "internalType": "address",
          "name": "newOwner",
          "type": "address"
        }
      ],
      "name": "transferOwnership",
      "outputs": [],
      "stateMutability": "nonpayable",
      "type": "function"
    },
    {
      "inputs": [
        {
          "internalType": "uint256",
          "name": "_nftId",
          "type": "uint256"
        },
        {
          "internalType": "uint256",
          "name": "_startingPrice",
          "type": "uint256"
        }
      ],
      "name": "createAuction",
      "outputs": [],
      "stateMutability": "nonpayable",
      "type": "function"
    },
    {
      "inputs": [
        {
          "internalType": "uint256",
          "name": "_nftId",
          "type": "uint256"
        },
        {
          "internalType": "uint256",
          "name": "_bidAmount",
          "type": "uint256"
        }
      ],
      "name": "placeBid",
      "outputs": [],
      "stateMutability": "nonpayable",
      "type": "function"
    },
    {
      "inputs": [
        {
          "internalType": "uint256",
          "name": "_nftId",
          "type": "uint256"
        }
      ],
      "name": "finalizeAuction",
      "outputs": [],
      "stateMutability": "nonpayable",
      "type": "function"
    },
    {
      "inputs": [
        {
          "internalType": "uint256",
          "name": "_nftId",
          "type": "uint256"
        }
      ],
      "name": "getAuctionInfo",
      "outputs": [
        {
          "components": [
            {
              "internalType": "uint256",
              "name": "nftId",
              "type": "uint256"
            },
            {
              "internalType": "address",
              "name": "seller",
              "type": "address"
            },
            {
              "internalType": "uint256",
              "name": "startingPrice",
              "type": "uint256"
            },
            {
              "internalType": "uint256",
              "name": "highestBid",
              "type": "uint256"
            },
            {
              "internalType": "address",
              "name": "highestBidder",
              "type": "address"
            },
            {
              "internalType": "bool",
              "name": "isFinished",
              "type": "bool"
            }
          ],
          "internalType": "struct NFTAuction.Auction",
          "name": "",
          "type": "tuple"
        }
      ],
      "stateMutability": "view",
      "type": "function",
      "constant": true
    }
  ],
  "bytecode": "0x60806040523480156200001157600080fd5b5060405162002145380380620021458339818101604052810190620000379190620001cb565b620000576200004b620000e860201b60201c565b620000f060201b60201c565b6001808190555081600260006101000a81548173ffffffffffffffffffffffffffffffffffffffff021916908373ffffffffffffffffffffffffffffffffffffffff16021790555080600360006101000a81548173ffffffffffffffffffffffffffffffffffffffff021916908373ffffffffffffffffffffffffffffffffffffffff160217905550505062000265565b600033905090565b60008060009054906101000a900473ffffffffffffffffffffffffffffffffffffffff169050816000806101000a81548173ffffffffffffffffffffffffffffffffffffffff021916908373ffffffffffffffffffffffffffffffffffffffff1602179055508173ffffffffffffffffffffffffffffffffffffffff168173ffffffffffffffffffffffffffffffffffffffff167f8be0079c531659141344cd1fd0a4f28419497f9722a3daafe3b4186f6b6457e060405160405180910390a35050565b600081519050620001c5816200024b565b92915050565b60008060408385031215620001e557620001e462000246565b5b6000620001f585828601620001b4565b92505060206200020885828601620001b4565b9150509250929050565b60006200021f8262000226565b9050919050565b600073ffffffffffffffffffffffffffffffffffffffff82169050919050565b600080fd5b620002568162000212565b81146200026257600080fd5b50565b611ed080620002756000396000f3fe608060405234801561001057600080fd5b506004361061009e5760003560e01c80638da5cb5b116100665780638da5cb5b14610138578063d56d229d14610156578063e808386314610174578063f2fde38b14610190578063fc3fc4ed146101ac5761009e565b80630121683f146100a357806355a373d6146100bf578063571a26a0146100dd57806357c90de514610112578063715018a61461012e575b600080fd5b6100bd60048036038101906100b8919061152c565b6101dc565b005b6100c76105b0565b6040516100d4919061187e565b60405180910390f35b6100f760048036038101906100f291906114ff565b6105d6565b60405161010996959493929190611aca565b60405180910390f35b61012c6004803603810190610127919061152c565b61065f565b005b610136610aa9565b005b610140610b31565b60405161014d9190611803565b60405180910390f35b61015e610b5a565b60405161016b9190611899565b60405180910390f35b61018e600480360381019061018991906114ff565b610b80565b005b6101aa60048036038101906101a59190611478565b6110ea565b005b6101c660048036038101906101c191906114ff565b6111e2565b6040516101d39190611a34565b60405180910390f35b60026001541415610222576040517f08c379a0000000000000000000000000000000000000000000000000000000008152600401610219906119f4565b60405180910390fd5b60026001819055503373ffffffffffffffffffffffffffffffffffffffff16600260009054906101000a900473ffffffffffffffffffffffffffffffffffffffff1673ffffffffffffffffffffffffffffffffffffffff16636352211e846040518263ffffffff1660e01b815260040161029c9190611a4f565b60206040518083038186803b1580156102b457600080fd5b505afa1580156102c8573d6000803e3d6000fd5b505050506040513d601f19601f820116820180604052508101906102ec91906114a5565b73ffffffffffffffffffffffffffffffffffffffff1614610342576040517f08c379a000000000000000000000000000000000000000000000000000000000815260040161033990611914565b60405180910390fd5b60008111610385576040517f08c379a000000000000000000000000000000000000000000000000000000000815260040161037c90611a14565b60405180910390fd5b600260009054906101000a900473ffffffffffffffffffffffffffffffffffffffff1673ffffffffffffffffffffffffffffffffffffffff1663a70885208333306040518463ffffffff1660e01b81526004016103e493929190611a93565b600060405180830381600087803b1580156103fe57600080fd5b505af1158015610412573d6000803e3d6000fd5b505050506040518060c001604052808381526020013373ffffffffffffffffffffffffffffffffffffffff16815260200182815260200160008152602001600073ffffffffffffffffffffffffffffffffffffffff16815260200160001515815250600460008481526020019081526020016000206000820151816000015560208201518160010160006101000a81548173ffffffffffffffffffffffffffffffffffffffff021916908373ffffffffffffffffffffffffffffffffffffffff160217905550604082015181600201556060820151816003015560808201518160040160006101000a81548173ffffffffffffffffffffffffffffffffffffffff021916908373ffffffffffffffffffffffffffffffffffffffff16021790555060a08201518160040160146101000a81548160ff0219169083151502179055509050503373ffffffffffffffffffffffffffffffffffffffff16827f6ff530872708bbb51bad8ea341564e4ea039807ad1331f61ab4c906a66875daf8360405161059d9190611a4f565b60405180910390a3600180819055505050565b600360009054906101000a900473ffffffffffffffffffffffffffffffffffffffff1681565b60046020528060005260406000206000915090508060000154908060010160009054906101000a900473ffffffffffffffffffffffffffffffffffffffff16908060020154908060030154908060040160009054906101000a900473ffffffffffffffffffffffffffffffffffffffff16908060040160149054906101000a900460ff16905086565b600260015414156106a5576040517f08c379a000000000000000000000000000000000000000000000000000000000815260040161069c906119f4565b60405180910390fd5b600260018190555060006004600084815260200190815260200160002090508060040160149054906101000a900460ff1615610716576040517f08c379a000000000000000000000000000000000000000000000000000000000815260040161070d90611994565b60405180910390fd5b8060030154821161075c576040517f08c379a0000000000000000000000000000000000000000000000000000000008152600401610753906118d4565b60405180910390fd5b80600201548210156107a3576040517f08c379a000000000000000000000000000000000000000000000000000000000815260040161079a906118f4565b60405180910390fd5b600073ffffffffffffffffffffffffffffffffffffffff168160040160009054906101000a900473ffffffffffffffffffffffffffffffffffffffff1673ffffffffffffffffffffffffffffffffffffffff161461091257600360009054906101000a900473ffffffffffffffffffffffffffffffffffffffff1673ffffffffffffffffffffffffffffffffffffffff16631b33a8db8260040160009054906101000a900473ffffffffffffffffffffffffffffffffffffffff1683600301546040518363ffffffff1660e01b8152600401610880929190611855565b602060405180830381600087803b15801561089a57600080fd5b505af11580156108ae573d6000803e3d6000fd5b505050506040513d601f19601f820116820180604052508101906108d291906114d2565b610911576040517f08c379a0000000000000000000000000000000000000000000000000000000008152600401610908906119d4565b60405180910390fd5b5b600360009054906101000a900473ffffffffffffffffffffffffffffffffffffffff1673ffffffffffffffffffffffffffffffffffffffff1663f57886e03330856040518463ffffffff1660e01b81526004016109719392919061181e565b602060405180830381600087803b15801561098b57600080fd5b505af115801561099f573d6000803e3d6000fd5b505050506040513d601f19601f820116820180604052508101906109c391906114d2565b610a02576040517f08c379a00000000000000000000000000000000000000000000000000000000081526004016109f990611934565b60405180910390fd5b818160030181905550338160040160006101000a81548173ffffffffffffffffffffffffffffffffffffffff021916908373ffffffffffffffffffffffffffffffffffffffff1602179055503373ffffffffffffffffffffffffffffffffffffffff16837f0e54eff26401bf69b81b26f60bd85ef47f5d85275c1d268d84f68d6897431c4784604051610a959190611a4f565b60405180910390a350600180819055505050565b610ab16112f4565b73ffffffffffffffffffffffffffffffffffffffff16610acf610b31565b73ffffffffffffffffffffffffffffffffffffffff1614610b25576040517f08c379a0000000000000000000000000000000000000000000000000000000008152600401610b1c90611974565b60405180910390fd5b610b2f60006112fc565b565b60008060009054906101000a900473ffffffffffffffffffffffffffffffffffffffff16905090565b600260009054906101000a900473ffffffffffffffffffffffffffffffffffffffff1681565b610b886112f4565b73ffffffffffffffffffffffffffffffffffffffff16610ba6610b31565b73ffffffffffffffffffffffffffffffffffffffff1614610bfc576040517f08c379a0000000000000000000000000000000000000000000000000000000008152600401610bf390611974565b60405180910390fd5b60026001541415610c42576040517f08c379a0000000000000000000000000000000000000000000000000000000008152600401610c39906119f4565b60405180910390fd5b600260018190555060006004600083815260200190815260200160002090508060040160149054906101000a900460ff1615610cb3576040517f08c379a0000000000000000000000000000000000000000000000000000000008152600401610caa90611994565b60405180910390fd5b60018160040160146101000a81548160ff021916908315150217905550600073ffffffffffffffffffffffffffffffffffffffff168160040160009054906101000a900473ffffffffffffffffffffffffffffffffffffffff1673ffffffffffffffffffffffffffffffffffffffff1614610fcc57600260009054906101000a900473ffffffffffffffffffffffffffffffffffffffff1673ffffffffffffffffffffffffffffffffffffffff16639036c050838360040160009054906101000a900473ffffffffffffffffffffffffffffffffffffffff166040518363ffffffff1660e01b8152600401610da9929190611a6a565b602060405180830381600087803b158015610dc357600080fd5b505af1158015610dd7573d6000803e3d6000fd5b505050506040513d601f19601f82011682018060405250810190610dfb91906114d2565b610e3a576040517f08c379a0000000000000000000000000000000000000000000000000000000008152600401610e31906119b4565b60405180910390fd5b600360009054906101000a900473ffffffffffffffffffffffffffffffffffffffff1673ffffffffffffffffffffffffffffffffffffffff16631b33a8db8260010160009054906101000a900473ffffffffffffffffffffffffffffffffffffffff1683600301546040518363ffffffff1660e01b8152600401610ebf929190611855565b602060405180830381600087803b158015610ed957600080fd5b505af1158015610eed573d6000803e3d6000fd5b505050506040513d601f19601f82011682018060405250810190610f1191906114d2565b610f50576040517f08c379a0000000000000000000000000000000000000000000000000000000008152600401610f4790611954565b60405180910390fd5b8060040160009054906101000a900473ffffffffffffffffffffffffffffffffffffffff1673ffffffffffffffffffffffffffffffffffffffff16827f4d9113a1377d665eaa1f9168a9c9080f2e488cb820b10149de3d6d2e0f2780c78360030154604051610fbf9190611a4f565b60405180910390a36110df565b600260009054906101000a900473ffffffffffffffffffffffffffffffffffffffff1673ffffffffffffffffffffffffffffffffffffffff16639036c050838360010160009054906101000a900473ffffffffffffffffffffffffffffffffffffffff166040518363ffffffff1660e01b815260040161104d929190611a6a565b602060405180830381600087803b15801561106757600080fd5b505af115801561107b573d6000803e3d6000fd5b505050506040513d601f19601f8201168201806040525081019061109f91906114d2565b6110de576040517f08c379a00000000000000000000000000000000000000000000000000000000081526004016110d5906119b4565b60405180910390fd5b5b506001808190555050565b6110f26112f4565b73ffffffffffffffffffffffffffffffffffffffff16611110610b31565b73ffffffffffffffffffffffffffffffffffffffff1614611166576040517f08c379a000000000000000000000000000000000000000000000000000000000815260040161115d90611974565b60405180910390fd5b600073ffffffffffffffffffffffffffffffffffffffff168173ffffffffffffffffffffffffffffffffffffffff1614156111d6576040517f08c379a00000000000000000000000000000000000000000000000000000000081526004016111cd906118b4565b60405180910390fd5b6111df816112fc565b50565b6111ea6113c0565b600460008381526020019081526020016000206040518060c0016040529081600082015481526020016001820160009054906101000a900473ffffffffffffffffffffffffffffffffffffffff1673ffffffffffffffffffffffffffffffffffffffff1673ffffffffffffffffffffffffffffffffffffffff16815260200160028201548152602001600382015481526020016004820160009054906101000a900473ffffffffffffffffffffffffffffffffffffffff1673ffffffffffffffffffffffffffffffffffffffff1673ffffffffffffffffffffffffffffffffffffffff1681526020016004820160149054906101000a900460ff1615151515815250509050919050565b600033905090565b60008060009054906101000a900473ffffffffffffffffffffffffffffffffffffffff169050816000806101000a81548173ffffffffffffffffffffffffffffffffffffffff021916908373ffffffffffffffffffffffffffffffffffffffff1602179055508173ffffffffffffffffffffffffffffffffffffffff168173ffffffffffffffffffffffffffffffffffffffff167f8be0079c531659141344cd1fd0a4f28419497f9722a3daafe3b4186f6b6457e060405160405180910390a35050565b6040518060c0016040528060008152602001600073ffffffffffffffffffffffffffffffffffffffff1681526020016000815260200160008152602001600073ffffffffffffffffffffffffffffffffffffffff1681526020016000151581525090565b60008135905061143381611e55565b92915050565b60008151905061144881611e55565b92915050565b60008151905061145d81611e6c565b92915050565b60008135905061147281611e83565b92915050565b60006020828403121561148e5761148d611bcc565b5b600061149c84828501611424565b91505092915050565b6000602082840312156114bb576114ba611bcc565b5b60006114c984828501611439565b91505092915050565b6000602082840312156114e8576114e7611bcc565b5b60006114f68482850161144e565b91505092915050565b60006020828403121561151557611514611bcc565b5b600061152384828501611463565b91505092915050565b6000806040838503121561154357611542611bcc565b5b600061155185828601611463565b925050602061156285828601611463565b9150509250929050565b61157581611b3c565b82525050565b61158481611b3c565b82525050565b61159381611b4e565b82525050565b6115a281611b4e565b82525050565b6115b181611b84565b82525050565b6115c081611b96565b82525050565b60006115d3602683611b2b565b91506115de82611bd1565b604082019050919050565b60006115f6602b83611b2b565b915061160182611c20565b604082019050919050565b6000611619602783611b2b565b915061162482611c6f565b604082019050919050565b600061163c601683611b2b565b915061164782611cbe565b602082019050919050565b600061165f601383611b2b565b915061166a82611ce7565b602082019050919050565b6000611682601983611b2b565b915061168d82611d10565b602082019050919050565b60006116a5602083611b2b565b91506116b082611d39565b602082019050919050565b60006116c8601b83611b2b565b91506116d382611d62565b602082019050919050565b60006116eb601383611b2b565b91506116f682611d8b565b602082019050919050565b600061170e601683611b2b565b915061171982611db4565b602082019050919050565b6000611731601f83611b2b565b915061173c82611ddd565b602082019050919050565b6000611754602883611b2b565b915061175f82611e06565b604082019050919050565b60c08201600082015161178060008501826117e5565b506020820151611793602085018261156c565b5060408201516117a660408501826117e5565b5060608201516117b960608501826117e5565b5060808201516117cc608085018261156c565b5060a08201516117df60a085018261158a565b50505050565b6117ee81611b7a565b82525050565b6117fd81611b7a565b82525050565b6000602082019050611818600083018461157b565b92915050565b6000606082019050611833600083018661157b565b611840602083018561157b565b61184d60408301846117f4565b949350505050565b600060408201905061186a600083018561157b565b61187760208301846117f4565b9392505050565b600060208201905061189360008301846115a8565b92915050565b60006020820190506118ae60008301846115b7565b92915050565b600060208201905081810360008301526118cd816115c6565b9050919050565b600060208201905081810360008301526118ed816115e9565b9050919050565b6000602082019050818103600083015261190d8161160c565b9050919050565b6000602082019050818103600083015261192d8161162f565b9050919050565b6000602082019050818103600083015261194d81611652565b9050919050565b6000602082019050818103600083015261196d81611675565b9050919050565b6000602082019050818103600083015261198d81611698565b9050919050565b600060208201905081810360008301526119ad816116bb565b9050919050565b600060208201905081810360008301526119cd816116de565b9050919050565b600060208201905081810360008301526119ed81611701565b9050919050565b60006020820190508181036000830152611a0d81611724565b9050919050565b60006020820190508181036000830152611a2d81611747565b9050919050565b600060c082019050611a49600083018461176a565b92915050565b6000602082019050611a6460008301846117f4565b92915050565b6000604082019050611a7f60008301856117f4565b611a8c602083018461157b565b9392505050565b6000606082019050611aa860008301866117f4565b611ab5602083018561157b565b611ac2604083018461157b565b949350505050565b600060c082019050611adf60008301896117f4565b611aec602083018861157b565b611af960408301876117f4565b611b0660608301866117f4565b611b13608083018561157b565b611b2060a0830184611599565b979650505050505050565b600082825260208201905092915050565b6000611b4782611b5a565b9050919050565b60008115159050919050565b600073ffffffffffffffffffffffffffffffffffffffff82169050919050565b6000819050919050565b6000611b8f82611ba8565b9050919050565b6000611ba182611ba8565b9050919050565b6000611bb382611bba565b9050919050565b6000611bc582611b5a565b9050919050565b600080fd5b7f4f776e61626c653a206e6577206f776e657220697320746865207a65726f206160008201527f6464726573730000000000000000000000000000000000000000000000000000602082015250565b7f426964206d75737420626520686967686572207468616e2063757272656e742060008201527f6869676865737420626964000000000000000000000000000000000000000000602082015250565b7f426964206d757374206265206174206c6561737420746865207374617274696e60008201527f6720707269636500000000000000000000000000000000000000000000000000602082015250565b7f596f7520646f6e2774206f776e2074686973204e465400000000000000000000600082015250565b7f426964207472616e73666572206661696c656400000000000000000000000000600082015250565b7f5472616e7366657220746f2073656c6c6572206661696c656400000000000000600082015250565b7f4f776e61626c653a2063616c6c6572206973206e6f7420746865206f776e6572600082015250565b7f41756374696f6e20697320616c72656164792066696e69736865640000000000600082015250565b7f4e4654207472616e73666572206661696c656400000000000000000000000000600082015250565b7f526566756e64207472616e73666572206661696c656400000000000000000000600082015250565b7f5265656e7472616e637947756172643a207265656e7472616e742063616c6c00600082015250565b7f5374617274696e67207072696365206d7573742062652067726561746572207460008201527f68616e207a65726f000000000000000000000000000000000000000000000000602082015250565b611e5e81611b3c565b8114611e6957600080fd5b50565b611e7581611b4e565b8114611e8057600080fd5b50565b611e8c81611b7a565b8114611e9757600080fd5b5056fea26469706673582212207759b2a1c6ee5b8b9840c01278600b717b98cdea010ad5b11997c5cecbf01fbf64736f6c63430008070033",
  "immutableReferences": {},
  "source": "// SPDX-License-Identifier: MIT\r\npragma solidity ^0.8.7;\r\n\r\nimport \"./NFT.sol\";\r\nimport \"./Coin.sol\";\r\nimport \"@openzeppelin/contracts/access/Ownable.sol\";\r\nimport \"@openzeppelin/contracts/security/ReentrancyGuard.sol\";\r\n\r\ncontract NFTAuction is Ownable, ReentrancyGuard {\r\n    NFTFrame public nftContract;\r\n    AhoraCoin public tokenContract;\r\n\r\n    struct Auction {\r\n        uint256 nftId;\r\n        address seller;\r\n        uint256 startingPrice;\r\n        uint256 highestBid;\r\n        address highestBidder;\r\n        bool isFinished;\r\n    }\r\n\r\n    mapping(uint256 => Auction) public auctions;\r\n\r\n    event AuctionCreated(uint256 indexed nftId, address indexed seller, uint256 startingPrice);\r\n    event BidPlaced(uint256 indexed nftId, address indexed bidder, uint256 bidAmount);\r\n    event AuctionFinalized(uint256 indexed nftId, address indexed winner, uint256 winningBid);\r\n\r\n    constructor(address _nftContractAddress, address _tokenContractAddress) {\r\n        nftContract = NFTFrame(_nftContractAddress);\r\n        tokenContract = AhoraCoin(_tokenContractAddress);\r\n    }\r\n\r\n    function createAuction(uint256 _nftId, uint256 _startingPrice) external nonReentrant {\r\n        require(nftContract.ownerOf(_nftId) == msg.sender, \"You don't own this NFT\");\r\n        require(_startingPrice > 0, \"Starting price must be greater than zero\");\r\n        \r\n        nftContract.transferNFTUserToUser(_nftId, msg.sender, address(this));\r\n\r\n        auctions[_nftId] = Auction({\r\n            nftId: _nftId,\r\n            seller: msg.sender,\r\n            startingPrice: _startingPrice,\r\n            highestBid: 0,\r\n            highestBidder: address(0),\r\n            isFinished: false\r\n        });\r\n\r\n        emit AuctionCreated(_nftId, msg.sender, _startingPrice);\r\n    }\r\n\r\n    function placeBid(uint256 _nftId, uint256 _bidAmount) external nonReentrant {\r\n        Auction storage auction = auctions[_nftId];\r\n        require(!auction.isFinished, \"Auction is already finished\");\r\n        require(_bidAmount > auction.highestBid, \"Bid must be higher than current highest bid\");\r\n        require(_bidAmount >= auction.startingPrice, \"Bid must be at least the starting price\");\r\n\r\n        if (auction.highestBidder != address(0)) {\r\n            // Automatically refund the previous highest bidder\r\n            require(tokenContract.transferSenderToUser(auction.highestBidder, auction.highestBid), \"Refund transfer failed\");\r\n        }\r\n\r\n        require(tokenContract.transferUserToUser(msg.sender, address(this), _bidAmount), \"Bid transfer failed\");\r\n\r\n        auction.highestBid = _bidAmount;\r\n        auction.highestBidder = msg.sender;\r\n\r\n        emit BidPlaced(_nftId, msg.sender, _bidAmount);\r\n    }\r\n\r\n    function finalizeAuction(uint256 _nftId) external onlyOwner nonReentrant {\r\n        Auction storage auction = auctions[_nftId];\r\n        require(!auction.isFinished, \"Auction is already finished\");\r\n\r\n        auction.isFinished = true;\r\n\r\n        if (auction.highestBidder != address(0)) {\r\n            require(nftContract.transferNFT(_nftId, auction.highestBidder), \"NFT transfer failed\");\r\n            require(tokenContract.transferSenderToUser(auction.seller, auction.highestBid), \"Transfer to seller failed\");\r\n            emit AuctionFinalized(_nftId, auction.highestBidder, auction.highestBid);\r\n        } else {\r\n            require(nftContract.transferNFT(_nftId, auction.seller), \"NFT transfer failed\");\r\n        }\r\n    }\r\n\r\n    function getAuctionInfo(uint256 _nftId) public view returns (Auction memory) {\r\n        return auctions[_nftId];\r\n    }\r\n}",
  "sourcePath": "C:\\Users\\SSAFY\\Desktop\\semonemo\\backend\\blockchain-server\\smartcontract\\contracts\\Auction.sol",
  "compiler": {
    "name": "solc",
    "version": "0.8.7+commit.e28d00a7.Emscripten.clang"
  },
  "schemaVersion": "3.4.16",
  "updatedAt": "2024-09-11T07:30:10.953Z",
  "networkType": "ethereum",
  "devdoc": {
    "kind": "dev",
    "methods": {
      "owner()": {
        "details": "Returns the address of the current owner."
      },
      "renounceOwnership()": {
        "details": "Leaves the contract without owner. It will not be possible to call `onlyOwner` functions anymore. Can only be called by the current owner. NOTE: Renouncing ownership will leave the contract without an owner, thereby removing any functionality that is only available to the owner."
      },
      "transferOwnership(address)": {
        "details": "Transfers ownership of the contract to a new account (`newOwner`). Can only be called by the current owner."
      }
    },
    "version": 1
  },
  "userdoc": {
    "kind": "user",
    "methods": {},
    "version": 1
  }
}