{
  "contractName": "NFTAuction",
  "abi": [
    {
      "anonymous": false,
      "inputs": [
        {
          "indexed": true,
          "internalType": "uint256",
          "name": "nftId",
          "type": "uint256"
        },
        {
          "indexed": true,
          "internalType": "address",
          "name": "seller",
          "type": "address"
        }
      ],
      "name": "AuctionCancelled",
      "type": "event"
    },
    {
      "anonymous": false,
      "inputs": [
        {
          "indexed": true,
          "internalType": "uint256",
          "name": "nftId",
          "type": "uint256"
        },
        {
          "indexed": true,
          "internalType": "address",
          "name": "seller",
          "type": "address"
        },
        {
          "indexed": true,
          "internalType": "address",
          "name": "buyer",
          "type": "address"
        },
        {
          "indexed": false,
          "internalType": "uint256",
          "name": "price",
          "type": "uint256"
        }
      ],
      "name": "AuctionClosed",
      "type": "event"
    },
    {
      "anonymous": false,
      "inputs": [
        {
          "indexed": true,
          "internalType": "uint256",
          "name": "nftId",
          "type": "uint256"
        },
        {
          "indexed": true,
          "internalType": "address",
          "name": "seller",
          "type": "address"
        },
        {
          "indexed": false,
          "internalType": "uint256",
          "name": "price",
          "type": "uint256"
        }
      ],
      "name": "AuctionStarted",
      "type": "event"
    },
    {
      "anonymous": false,
      "inputs": [
        {
          "indexed": true,
          "internalType": "address",
          "name": "from",
          "type": "address"
        },
        {
          "indexed": true,
          "internalType": "address",
          "name": "to",
          "type": "address"
        },
        {
          "indexed": false,
          "internalType": "uint256",
          "name": "amount",
          "type": "uint256"
        },
        {
          "indexed": false,
          "internalType": "uint256",
          "name": "fromBalance",
          "type": "uint256"
        },
        {
          "indexed": false,
          "internalType": "uint256",
          "name": "toBalance",
          "type": "uint256"
        }
      ],
      "name": "BalanceAdjusted",
      "type": "event"
    },
    {
      "anonymous": false,
      "inputs": [
        {
          "indexed": true,
          "internalType": "address",
          "name": "from",
          "type": "address"
        },
        {
          "indexed": true,
          "internalType": "address",
          "name": "to",
          "type": "address"
        },
        {
          "indexed": false,
          "internalType": "uint256",
          "name": "amount",
          "type": "uint256"
        },
        {
          "indexed": false,
          "internalType": "uint256",
          "name": "fromBalance",
          "type": "uint256"
        },
        {
          "indexed": false,
          "internalType": "uint256",
          "name": "toBalance",
          "type": "uint256"
        }
      ],
      "name": "BalanceTransferred",
      "type": "event"
    },
    {
      "anonymous": false,
      "inputs": [
        {
          "indexed": true,
          "internalType": "address",
          "name": "user",
          "type": "address"
        },
        {
          "indexed": false,
          "internalType": "uint256",
          "name": "amount",
          "type": "uint256"
        },
        {
          "indexed": false,
          "internalType": "uint256",
          "name": "coinBalance",
          "type": "uint256"
        },
        {
          "indexed": false,
          "internalType": "uint256",
          "name": "payableBalance",
          "type": "uint256"
        }
      ],
      "name": "Deposit",
      "type": "event"
    },
    {
      "anonymous": false,
      "inputs": [
        {
          "indexed": true,
          "internalType": "address",
          "name": "previousOwner",
          "type": "address"
        },
        {
          "indexed": true,
          "internalType": "address",
          "name": "newOwner",
          "type": "address"
        }
      ],
      "name": "OwnershipTransferred",
      "type": "event"
    },
    {
      "anonymous": false,
      "inputs": [
        {
          "indexed": true,
          "internalType": "uint256",
          "name": "tradeId",
          "type": "uint256"
        },
        {
          "indexed": false,
          "internalType": "address",
          "name": "from",
          "type": "address"
        },
        {
          "indexed": false,
          "internalType": "address",
          "name": "to",
          "type": "address"
        },
        {
          "indexed": false,
          "internalType": "uint256",
          "name": "amount",
          "type": "uint256"
        },
        {
          "indexed": false,
          "internalType": "uint256",
          "name": "timestamp",
          "type": "uint256"
        },
        {
          "indexed": false,
          "internalType": "uint256",
          "name": "fromBalance",
          "type": "uint256"
        },
        {
          "indexed": false,
          "internalType": "uint256",
          "name": "toBalance",
          "type": "uint256"
        }
      ],
      "name": "TradeRecorded",
      "type": "event"
    },
    {
      "anonymous": false,
      "inputs": [
        {
          "indexed": true,
          "internalType": "address",
          "name": "user",
          "type": "address"
        },
        {
          "indexed": false,
          "internalType": "uint256",
          "name": "amount",
          "type": "uint256"
        },
        {
          "indexed": false,
          "internalType": "uint256",
          "name": "coinBalance",
          "type": "uint256"
        },
        {
          "indexed": false,
          "internalType": "uint256",
          "name": "payableBalance",
          "type": "uint256"
        }
      ],
      "name": "Withdrawal",
      "type": "event"
    },
    {
      "inputs": [
        {
          "internalType": "uint256",
          "name": "",
          "type": "uint256"
        }
      ],
      "name": "auctions",
      "outputs": [
        {
          "internalType": "uint256",
          "name": "nftId",
          "type": "uint256"
        },
        {
          "internalType": "address",
          "name": "seller",
          "type": "address"
        },
        {
          "internalType": "uint256",
          "name": "price",
          "type": "uint256"
        }
      ],
      "stateMutability": "view",
      "type": "function"
    },
    {
      "inputs": [
        {
          "internalType": "uint256",
          "name": "amount",
          "type": "uint256"
        }
      ],
      "name": "deposit",
      "outputs": [],
      "stateMutability": "nonpayable",
      "type": "function"
    },
    {
      "inputs": [],
      "name": "getContractBalance",
      "outputs": [
        {
          "internalType": "uint256",
          "name": "",
          "type": "uint256"
        }
      ],
      "stateMutability": "view",
      "type": "function"
    },
    {
      "inputs": [],
      "name": "getContractOwnedNFTs",
      "outputs": [
        {
          "internalType": "uint256[]",
          "name": "",
          "type": "uint256[]"
        }
      ],
      "stateMutability": "view",
      "type": "function"
    },
    {
      "inputs": [
        {
          "internalType": "uint256",
          "name": "_tradeId",
          "type": "uint256"
        }
      ],
      "name": "getTradeInfo",
      "outputs": [
        {
          "components": [
            {
              "internalType": "address",
              "name": "from",
              "type": "address"
            },
            {
              "internalType": "address",
              "name": "to",
              "type": "address"
            },
            {
              "internalType": "uint256",
              "name": "amount",
              "type": "uint256"
            },
            {
              "internalType": "uint256",
              "name": "timestamp",
              "type": "uint256"
            }
          ],
          "internalType": "struct TradeBase.TradeInfo",
          "name": "",
          "type": "tuple"
        }
      ],
      "stateMutability": "view",
      "type": "function"
    },
    {
      "inputs": [
        {
          "internalType": "address",
          "name": "user",
          "type": "address"
        },
        {
          "internalType": "uint256",
          "name": "page",
          "type": "uint256"
        },
        {
          "internalType": "uint256",
          "name": "size",
          "type": "uint256"
        }
      ],
      "name": "getTradesByAddress",
      "outputs": [
        {
          "components": [
            {
              "components": [
                {
                  "internalType": "address",
                  "name": "from",
                  "type": "address"
                },
                {
                  "internalType": "address",
                  "name": "to",
                  "type": "address"
                },
                {
                  "internalType": "uint256",
                  "name": "amount",
                  "type": "uint256"
                },
                {
                  "internalType": "uint256",
                  "name": "timestamp",
                  "type": "uint256"
                }
              ],
              "internalType": "struct TradeBase.TradeInfo[]",
              "name": "trades",
              "type": "tuple[]"
            },
            {
              "internalType": "uint256",
              "name": "totalTrades",
              "type": "uint256"
            },
            {
              "internalType": "bool",
              "name": "hasNext",
              "type": "bool"
            }
          ],
          "internalType": "struct TradeBase.TradeResult",
          "name": "",
          "type": "tuple"
        }
      ],
      "stateMutability": "view",
      "type": "function"
    },
    {
      "inputs": [
        {
          "internalType": "address",
          "name": "user",
          "type": "address"
        }
      ],
      "name": "getUserBalance",
      "outputs": [
        {
          "internalType": "uint256",
          "name": "",
          "type": "uint256"
        }
      ],
      "stateMutability": "view",
      "type": "function"
    },
    {
      "inputs": [],
      "name": "nftContract",
      "outputs": [
        {
          "internalType": "contract NFTFrame",
          "name": "",
          "type": "address"
        }
      ],
      "stateMutability": "view",
      "type": "function"
    },
    {
      "inputs": [],
      "name": "owner",
      "outputs": [
        {
          "internalType": "address",
          "name": "",
          "type": "address"
        }
      ],
      "stateMutability": "view",
      "type": "function"
    },
    {
      "inputs": [],
      "name": "renounceOwnership",
      "outputs": [],
      "stateMutability": "nonpayable",
      "type": "function"
    },
    {
      "inputs": [],
      "name": "tokenContract",
      "outputs": [
        {
          "internalType": "contract AhoraCoin",
          "name": "",
          "type": "address"
        }
      ],
      "stateMutability": "view",
      "type": "function"
    },
    {
      "inputs": [],
      "name": "tradeId",
      "outputs": [
        {
          "internalType": "uint256",
          "name": "",
          "type": "uint256"
        }
      ],
      "stateMutability": "view",
      "type": "function"
    },
    {
      "inputs": [
        {
          "internalType": "uint256",
          "name": "",
          "type": "uint256"
        }
      ],
      "name": "trades",
      "outputs": [
        {
          "internalType": "address",
          "name": "from",
          "type": "address"
        },
        {
          "internalType": "address",
          "name": "to",
          "type": "address"
        },
        {
          "internalType": "uint256",
          "name": "amount",
          "type": "uint256"
        },
        {
          "internalType": "uint256",
          "name": "timestamp",
          "type": "uint256"
        }
      ],
      "stateMutability": "view",
      "type": "function"
    },
    {
      "inputs": [
        {
          "internalType": "address",
          "name": "from",
          "type": "address"
        },
        {
          "internalType": "address",
          "name": "to",
          "type": "address"
        },
        {
          "internalType": "uint256",
          "name": "amount",
          "type": "uint256"
        }
      ],
      "name": "transferBalance",
      "outputs": [],
      "stateMutability": "nonpayable",
      "type": "function"
    },
    {
      "inputs": [
        {
          "internalType": "address",
          "name": "newOwner",
          "type": "address"
        }
      ],
      "name": "transferOwnership",
      "outputs": [],
      "stateMutability": "nonpayable",
      "type": "function"
    },
    {
      "inputs": [
        {
          "internalType": "uint256",
          "name": "amount",
          "type": "uint256"
        }
      ],
      "name": "withdraw",
      "outputs": [],
      "stateMutability": "nonpayable",
      "type": "function"
    },
    {
      "inputs": [
        {
          "internalType": "uint256",
          "name": "_nftId",
          "type": "uint256"
        },
        {
          "internalType": "uint256",
          "name": "price",
          "type": "uint256"
        }
      ],
      "name": "startAuction",
      "outputs": [],
      "stateMutability": "nonpayable",
      "type": "function"
    },
    {
      "inputs": [
        {
          "internalType": "uint256",
          "name": "_nftId",
          "type": "uint256"
        }
      ],
      "name": "cancelAuction",
      "outputs": [],
      "stateMutability": "nonpayable",
      "type": "function"
    },
    {
      "inputs": [
        {
          "internalType": "uint256",
          "name": "_nftId",
          "type": "uint256"
        },
        {
          "internalType": "address",
          "name": "buyer",
          "type": "address"
        }
      ],
      "name": "closeAuction",
      "outputs": [],
      "stateMutability": "nonpayable",
      "type": "function"
    },
    {
      "inputs": [
        {
          "internalType": "uint256",
          "name": "_nftId",
          "type": "uint256"
        }
      ],
      "name": "getAuctionInfo",
      "outputs": [
        {
          "components": [
            {
              "internalType": "uint256",
              "name": "nftId",
              "type": "uint256"
            },
            {
              "internalType": "address",
              "name": "seller",
              "type": "address"
            },
            {
              "internalType": "uint256",
              "name": "price",
              "type": "uint256"
            }
          ],
          "internalType": "struct NFTAuction.Auction",
          "name": "",
          "type": "tuple"
        }
      ],
      "stateMutability": "view",
      "type": "function"
    }
  ],
  "bytecode": "0x60806040523480156200001157600080fd5b5062000032620000266200003f60201b60201c565b6200004760201b60201c565b600180819055506200010b565b600033905090565b60008060009054906101000a900473ffffffffffffffffffffffffffffffffffffffff169050816000806101000a81548173ffffffffffffffffffffffffffffffffffffffff021916908373ffffffffffffffffffffffffffffffffffffffff1602179055508173ffffffffffffffffffffffffffffffffffffffff168173ffffffffffffffffffffffffffffffffffffffff167f8be0079c531659141344cd1fd0a4f28419497f9722a3daafe3b4186f6b6457e060405160405180910390a35050565b613e2f806200011b6000396000f3fe608060405234801561001057600080fd5b506004361061012c5760003560e01c8063715018a6116100ad578063d3e6fa1911610071578063d3e6fa1914610320578063d56d229d1461033e578063d750558f1461035c578063f2fde38b1461038c578063fc3fc4ed146103a85761012c565b8063715018a6146102a45780638da5cb5b146102ae57806396b5a755146102cc578063a606b94a146102e8578063b6b55f25146103045761012c565b80634fee13fc116100f45780634fee13fc146101fe57806355a373d61461021a578063571a26a0146102385780636bab66ae1461026a5780636f9fb98a146102865761012c565b806302c5115b146101315780631e6c598e1461014f5780632e1a7d4d1461018257806336c678971461019e57806347734892146101ce575b600080fd5b6101396103d8565b6040516101469190613609565b60405180910390f35b61016960048036038101906101649190612c83565b6103de565b6040516101799493929190613293565b60405180910390f35b61019c60048036038101906101979190612c83565b61044e565b005b6101b860048036038101906101b39190612c83565b6107f8565b6040516101c591906135cc565b60405180910390f35b6101e860048036038101906101e39190612b0d565b610936565b6040516101f59190613609565b60405180910390f35b61021860048036038101906102139190612d1d565b61097f565b005b610222610cb5565b60405161022f919061335b565b60405180910390f35b610252600480360381019061024d9190612c83565b610cdb565b6040516102619392919061365b565b60405180910390f35b610284600480360381019061027f9190612cdd565b610d25565b005b61028e611107565b60405161029b9190613609565b60405180910390f35b6102ac6111b9565b005b6102b6611241565b6040516102c39190613241565b60405180910390f35b6102e660048036038101906102e19190612c83565b61126a565b005b61030260048036038101906102fd9190612b67565b61163a565b005b61031e60048036038101906103199190612c83565b611a52565b005b610328611d7a565b6040516103359190613339565b60405180910390f35b610346611e31565b6040516103539190613376565b60405180910390f35b61037660048036038101906103719190612bba565b611e57565b60405161038391906135e7565b60405180910390f35b6103a660048036038101906103a19190612b0d565b6121a8565b005b6103c260048036038101906103bd9190612c83565b6122a0565b6040516103cf91906135b1565b60405180910390f35b60065481565b60056020528060005260406000206000915090508060000160009054906101000a900473ffffffffffffffffffffffffffffffffffffffff16908060010160009054906101000a900473ffffffffffffffffffffffffffffffffffffffff16908060020154908060030154905084565b60026001541415610494576040517f08c379a000000000000000000000000000000000000000000000000000000000815260040161048b90613571565b60405180910390fd5b6002600181905550600081116104df576040517f08c379a00000000000000000000000000000000000000000000000000000000081526004016104d6906134d1565b60405180910390fd5b80600460003373ffffffffffffffffffffffffffffffffffffffff1673ffffffffffffffffffffffffffffffffffffffff168152602001908152602001600020541015610561576040517f08c379a000000000000000000000000000000000000000000000000000000000815260040161055890613431565b60405180910390fd5b600360009054906101000a900473ffffffffffffffffffffffffffffffffffffffff1673ffffffffffffffffffffffffffffffffffffffff16636153fced3033846040518463ffffffff1660e01b81526004016105c09392919061325c565b602060405180830381600087803b1580156105da57600080fd5b505af11580156105ee573d6000803e3d6000fd5b505050506040513d601f19601f820116820180604052508101906106129190612c56565b610651576040517f08c379a000000000000000000000000000000000000000000000000000000000815260040161064890613411565b60405180910390fd5b80600460003373ffffffffffffffffffffffffffffffffffffffff1673ffffffffffffffffffffffffffffffffffffffff16815260200190815260200160002060008282546106a0919061384d565b925050819055506106b3336000836123b1565b3373ffffffffffffffffffffffffffffffffffffffff167f650fdf669e93aa6c8ff3defe2da9c12b64f1548e5e1e54e803f4c1beb6466c8e82600360009054906101000a900473ffffffffffffffffffffffffffffffffffffffff1673ffffffffffffffffffffffffffffffffffffffff166370a08231336040518263ffffffff1660e01b81526004016107479190613241565b60206040518083038186803b15801561075f57600080fd5b505afa158015610773573d6000803e3d6000fd5b505050506040513d601f19601f820116820180604052508101906107979190612cb0565b600460003373ffffffffffffffffffffffffffffffffffffffff1673ffffffffffffffffffffffffffffffffffffffff168152602001908152602001600020546040516107e693929190613692565b60405180910390a26001808190555050565b610800612958565b60008211801561081257506006548211155b610851576040517f08c379a000000000000000000000000000000000000000000000000000000000815260040161084890613531565b60405180910390fd5b600560008381526020019081526020016000206040518060800160405290816000820160009054906101000a900473ffffffffffffffffffffffffffffffffffffffff1673ffffffffffffffffffffffffffffffffffffffff1673ffffffffffffffffffffffffffffffffffffffff1681526020016001820160009054906101000a900473ffffffffffffffffffffffffffffffffffffffff1673ffffffffffffffffffffffffffffffffffffffff1673ffffffffffffffffffffffffffffffffffffffff168152602001600282015481526020016003820154815250509050919050565b6000600460008373ffffffffffffffffffffffffffffffffffffffff1673ffffffffffffffffffffffffffffffffffffffff168152602001908152602001600020549050919050565b600260015414156109c5576040517f08c379a00000000000000000000000000000000000000000000000000000000081526004016109bc90613571565b60405180910390fd5b60026001819055503373ffffffffffffffffffffffffffffffffffffffff16600260009054906101000a900473ffffffffffffffffffffffffffffffffffffffff1673ffffffffffffffffffffffffffffffffffffffff16636352211e846040518263ffffffff1660e01b8152600401610a3f9190613609565b60206040518083038186803b158015610a5757600080fd5b505afa158015610a6b573d6000803e3d6000fd5b505050506040513d601f19601f82011682018060405250810190610a8f9190612b3a565b73ffffffffffffffffffffffffffffffffffffffff1614610ae5576040517f08c379a0000000000000000000000000000000000000000000000000000000008152600401610adc90613451565b60405180910390fd5b60008111610b28576040517f08c379a0000000000000000000000000000000000000000000000000000000008152600401610b1f906133d1565b60405180910390fd5b600260009054906101000a900473ffffffffffffffffffffffffffffffffffffffff1673ffffffffffffffffffffffffffffffffffffffff166335b9594c8333306040518463ffffffff1660e01b8152600401610b8793929190613624565b600060405180830381600087803b158015610ba157600080fd5b505af1158015610bb5573d6000803e3d6000fd5b5050505060405180606001604052808381526020013373ffffffffffffffffffffffffffffffffffffffff16815260200182815250600860008481526020019081526020016000206000820151816000015560208201518160010160006101000a81548173ffffffffffffffffffffffffffffffffffffffff021916908373ffffffffffffffffffffffffffffffffffffffff160217905550604082015181600201559050503373ffffffffffffffffffffffffffffffffffffffff16827fd7d053b3d3fc9e8145896f8940adeb377f6735866f2161ef1660dae9f049247583604051610ca29190613609565b60405180910390a3600180819055505050565b600360009054906101000a900473ffffffffffffffffffffffffffffffffffffffff1681565b60086020528060005260406000206000915090508060000154908060010160009054906101000a900473ffffffffffffffffffffffffffffffffffffffff16908060020154905083565b60026001541415610d6b576040517f08c379a0000000000000000000000000000000000000000000000000000000008152600401610d6290613571565b60405180910390fd5b6002600181905550610d7b612667565b73ffffffffffffffffffffffffffffffffffffffff16610d99611241565b73ffffffffffffffffffffffffffffffffffffffff1614610def576040517f08c379a0000000000000000000000000000000000000000000000000000000008152600401610de6906134b1565b60405180910390fd5b6000600860008481526020019081526020016000209050600073ffffffffffffffffffffffffffffffffffffffff168160010160009054906101000a900473ffffffffffffffffffffffffffffffffffffffff1673ffffffffffffffffffffffffffffffffffffffff161415610e9a576040517f08c379a0000000000000000000000000000000000000000000000000000000008152600401610e9190613591565b60405180910390fd5b8060010160009054906101000a900473ffffffffffffffffffffffffffffffffffffffff1673ffffffffffffffffffffffffffffffffffffffff168273ffffffffffffffffffffffffffffffffffffffff161415610f2d576040517f08c379a0000000000000000000000000000000000000000000000000000000008152600401610f24906134f1565b60405180910390fd5b60008160020154905060008260010160009054906101000a900473ffffffffffffffffffffffffffffffffffffffff16905081610f6985610936565b1015610faa576040517f08c379a0000000000000000000000000000000000000000000000000000000008152600401610fa190613431565b60405180910390fd5b610fb584828461266f565b600260009054906101000a900473ffffffffffffffffffffffffffffffffffffffff1673ffffffffffffffffffffffffffffffffffffffff166335b9594c8630336040518463ffffffff1660e01b815260040161101493929190613624565b600060405180830381600087803b15801561102e57600080fd5b505af1158015611042573d6000803e3d6000fd5b50505050600860008681526020019081526020016000206000808201600090556001820160006101000a81549073ffffffffffffffffffffffffffffffffffffffff0219169055600282016000905550508373ffffffffffffffffffffffffffffffffffffffff168173ffffffffffffffffffffffffffffffffffffffff16867f7787e67b4b8529b1aa2c1a59dbf0f0e766d63860956b86f33f5d870088235501856040516110f19190613609565b60405180910390a4505050600180819055505050565b6000600360009054906101000a900473ffffffffffffffffffffffffffffffffffffffff1673ffffffffffffffffffffffffffffffffffffffff166370a08231306040518263ffffffff1660e01b81526004016111649190613241565b60206040518083038186803b15801561117c57600080fd5b505afa158015611190573d6000803e3d6000fd5b505050506040513d601f19601f820116820180604052508101906111b49190612cb0565b905090565b6111c1612667565b73ffffffffffffffffffffffffffffffffffffffff166111df611241565b73ffffffffffffffffffffffffffffffffffffffff1614611235576040517f08c379a000000000000000000000000000000000000000000000000000000000815260040161122c906134b1565b60405180910390fd5b61123f6000612894565b565b60008060009054906101000a900473ffffffffffffffffffffffffffffffffffffffff16905090565b600260015414156112b0576040517f08c379a00000000000000000000000000000000000000000000000000000000081526004016112a790613571565b60405180910390fd5b600260018190555060006008600083815260200190815260200160002090503073ffffffffffffffffffffffffffffffffffffffff16600260009054906101000a900473ffffffffffffffffffffffffffffffffffffffff1673ffffffffffffffffffffffffffffffffffffffff16636352211e846040518263ffffffff1660e01b81526004016113419190613609565b60206040518083038186803b15801561135957600080fd5b505afa15801561136d573d6000803e3d6000fd5b505050506040513d601f19601f820116820180604052508101906113919190612b3a565b73ffffffffffffffffffffffffffffffffffffffff16146113e7576040517f08c379a00000000000000000000000000000000000000000000000000000000081526004016113de90613471565b60405180910390fd5b3373ffffffffffffffffffffffffffffffffffffffff168160010160009054906101000a900473ffffffffffffffffffffffffffffffffffffffff1673ffffffffffffffffffffffffffffffffffffffff1614611479576040517f08c379a000000000000000000000000000000000000000000000000000000000815260040161147090613451565b60405180910390fd5b600073ffffffffffffffffffffffffffffffffffffffff168160010160009054906101000a900473ffffffffffffffffffffffffffffffffffffffff1673ffffffffffffffffffffffffffffffffffffffff16141561150d576040517f08c379a000000000000000000000000000000000000000000000000000000000815260040161150490613591565b60405180910390fd5b600260009054906101000a900473ffffffffffffffffffffffffffffffffffffffff1673ffffffffffffffffffffffffffffffffffffffff166335b9594c8330336040518463ffffffff1660e01b815260040161156c93929190613624565b600060405180830381600087803b15801561158657600080fd5b505af115801561159a573d6000803e3d6000fd5b50505050600860008381526020019081526020016000206000808201600090556001820160006101000a81549073ffffffffffffffffffffffffffffffffffffffff0219169055600282016000905550503373ffffffffffffffffffffffffffffffffffffffff16827f10ac9f0bb365b5d22d7bec500408692f23fdf83eadfec71615ef88b4c1134f0e60405160405180910390a3506001808190555050565b611642612667565b73ffffffffffffffffffffffffffffffffffffffff16611660611241565b73ffffffffffffffffffffffffffffffffffffffff16146116b6576040517f08c379a00000000000000000000000000000000000000000000000000000000081526004016116ad906134b1565b60405180910390fd5b600260015414156116fc576040517f08c379a00000000000000000000000000000000000000000000000000000000081526004016116f390613571565b60405180910390fd5b6002600181905550600073ffffffffffffffffffffffffffffffffffffffff168273ffffffffffffffffffffffffffffffffffffffff161415611774576040517f08c379a000000000000000000000000000000000000000000000000000000000815260040161176b90613491565b60405180910390fd5b8273ffffffffffffffffffffffffffffffffffffffff168273ffffffffffffffffffffffffffffffffffffffff1614156117e3576040517f08c379a00000000000000000000000000000000000000000000000000000000081526004016117da90613511565b60405180910390fd5b60008111611826576040517f08c379a000000000000000000000000000000000000000000000000000000000815260040161181d90613551565b60405180910390fd5b80600460008573ffffffffffffffffffffffffffffffffffffffff1673ffffffffffffffffffffffffffffffffffffffff1681526020019081526020016000205410156118a8576040517f08c379a000000000000000000000000000000000000000000000000000000000815260040161189f90613431565b60405180910390fd5b80600460008573ffffffffffffffffffffffffffffffffffffffff1673ffffffffffffffffffffffffffffffffffffffff16815260200190815260200160002060008282546118f7919061384d565b9250508190555080600460008473ffffffffffffffffffffffffffffffffffffffff1673ffffffffffffffffffffffffffffffffffffffff168152602001908152602001600020600082825461194d919061379d565b9250508190555061195f8383836123b1565b8173ffffffffffffffffffffffffffffffffffffffff168373ffffffffffffffffffffffffffffffffffffffff167f941baa54585e364d2377b71ffcd6321c9e8b3d1b46e3db66121ee5b08bf12acf83600460008873ffffffffffffffffffffffffffffffffffffffff1673ffffffffffffffffffffffffffffffffffffffff16815260200190815260200160002054600460008873ffffffffffffffffffffffffffffffffffffffff1673ffffffffffffffffffffffffffffffffffffffff16815260200190815260200160002054604051611a3e93929190613692565b60405180910390a360018081905550505050565b60026001541415611a98576040517f08c379a0000000000000000000000000000000000000000000000000000000008152600401611a8f90613571565b60405180910390fd5b600260018190555060008111611ae3576040517f08c379a0000000000000000000000000000000000000000000000000000000008152600401611ada906133b1565b60405180910390fd5b600360009054906101000a900473ffffffffffffffffffffffffffffffffffffffff1673ffffffffffffffffffffffffffffffffffffffff16636153fced3330846040518463ffffffff1660e01b8152600401611b429392919061325c565b602060405180830381600087803b158015611b5c57600080fd5b505af1158015611b70573d6000803e3d6000fd5b505050506040513d601f19601f82011682018060405250810190611b949190612c56565b611bd3576040517f08c379a0000000000000000000000000000000000000000000000000000000008152600401611bca90613411565b60405180910390fd5b80600460003373ffffffffffffffffffffffffffffffffffffffff1673ffffffffffffffffffffffffffffffffffffffff1681526020019081526020016000206000828254611c22919061379d565b92505081905550611c35600033836123b1565b3373ffffffffffffffffffffffffffffffffffffffff167f36af321ec8d3c75236829c5317affd40ddb308863a1236d2d277a4025cccee1e82600360009054906101000a900473ffffffffffffffffffffffffffffffffffffffff1673ffffffffffffffffffffffffffffffffffffffff166370a08231336040518263ffffffff1660e01b8152600401611cc99190613241565b60206040518083038186803b158015611ce157600080fd5b505afa158015611cf5573d6000803e3d6000fd5b505050506040513d601f19601f82011682018060405250810190611d199190612cb0565b600460003373ffffffffffffffffffffffffffffffffffffffff1673ffffffffffffffffffffffffffffffffffffffff16815260200190815260200160002054604051611d6893929190613692565b60405180910390a26001808190555050565b6060600260009054906101000a900473ffffffffffffffffffffffffffffffffffffffff1673ffffffffffffffffffffffffffffffffffffffff1663e6b1fa2a306040518263ffffffff1660e01b8152600401611dd79190613241565b60006040518083038186803b158015611def57600080fd5b505afa158015611e03573d6000803e3d6000fd5b505050506040513d6000823e3d601f19601f82011682018060405250810190611e2c9190612c0d565b905090565b600260009054906101000a900473ffffffffffffffffffffffffffffffffffffffff1681565b611e5f6129ac565b6000600760008673ffffffffffffffffffffffffffffffffffffffff1673ffffffffffffffffffffffffffffffffffffffff168152602001908152602001600020905060008180549050905060008486611eb991906137f3565b8211611ec6576000611eea565b84600187611ed4919061379d565b611ede91906137f3565b82611ee9919061384d565b5b905060008587611efa91906137f3565b83611f05919061384d565b905082821180611f155750600082105b15611f1f57600091505b600081111580611f3a5750828688611f3791906137f3565b10155b15611fbc576040518060600160405280600067ffffffffffffffff811115611f6557611f646139e9565b5b604051908082528060200260200182016040528015611f9e57816020015b611f8b612958565b815260200190600190039081611f835790505b508152602001848152602001600015158152509450505050506121a1565b60008282611fca919061384d565b905060008167ffffffffffffffff811115611fe857611fe76139e9565b5b60405190808252806020026020018201604052801561202157816020015b61200e612958565b8152602001906001900390816120065790505b50905060005b8281101561217257600560008883600188612042919061384d565b61204c919061384d565b8154811061205d5761205c6139ba565b5b906000526020600020015481526020019081526020016000206040518060800160405290816000820160009054906101000a900473ffffffffffffffffffffffffffffffffffffffff1673ffffffffffffffffffffffffffffffffffffffff1673ffffffffffffffffffffffffffffffffffffffff1681526020016001820160009054906101000a900473ffffffffffffffffffffffffffffffffffffffff1673ffffffffffffffffffffffffffffffffffffffff1673ffffffffffffffffffffffffffffffffffffffff16815260200160028201548152602001600382015481525050828281518110612154576121536139ba565b5b6020026020010181905250808061216a90613942565b915050612027565b506000808511905060405180606001604052808381526020018781526020018215158152509750505050505050505b9392505050565b6121b0612667565b73ffffffffffffffffffffffffffffffffffffffff166121ce611241565b73ffffffffffffffffffffffffffffffffffffffff1614612224576040517f08c379a000000000000000000000000000000000000000000000000000000000815260040161221b906134b1565b60405180910390fd5b600073ffffffffffffffffffffffffffffffffffffffff168173ffffffffffffffffffffffffffffffffffffffff161415612294576040517f08c379a000000000000000000000000000000000000000000000000000000000815260040161228b906133f1565b60405180910390fd5b61229d81612894565b50565b6122a86129cf565b600060086000848152602001908152602001600020604051806060016040529081600082015481526020016001820160009054906101000a900473ffffffffffffffffffffffffffffffffffffffff1673ffffffffffffffffffffffffffffffffffffffff1673ffffffffffffffffffffffffffffffffffffffff1681526020016002820154815250509050600073ffffffffffffffffffffffffffffffffffffffff16816020015173ffffffffffffffffffffffffffffffffffffffff1614156123a8576040517f08c379a000000000000000000000000000000000000000000000000000000000815260040161239f90613391565b60405180910390fd5b80915050919050565b600660008154809291906123c490613942565b919050555060405180608001604052808473ffffffffffffffffffffffffffffffffffffffff1681526020018373ffffffffffffffffffffffffffffffffffffffff1681526020018281526020014281525060056000600654815260200190815260200160002060008201518160000160006101000a81548173ffffffffffffffffffffffffffffffffffffffff021916908373ffffffffffffffffffffffffffffffffffffffff16021790555060208201518160010160006101000a81548173ffffffffffffffffffffffffffffffffffffffff021916908373ffffffffffffffffffffffffffffffffffffffff1602179055506040820151816002015560608201518160030155905050600760008473ffffffffffffffffffffffffffffffffffffffff1673ffffffffffffffffffffffffffffffffffffffff1681526020019081526020016000206006549080600181540180825580915050600190039060005260206000200160009091909190915055600760008373ffffffffffffffffffffffffffffffffffffffff1673ffffffffffffffffffffffffffffffffffffffff16815260200190815260200160002060065490806001815401808255809150506001900390600052602060002001600090919091909150556006547fc09ae797f474a8568a060562997bd2e2f8dc85b50a348036d10095b3dbbfeeba84848442600460008a73ffffffffffffffffffffffffffffffffffffffff1673ffffffffffffffffffffffffffffffffffffffff16815260200190815260200160002054600460008a73ffffffffffffffffffffffffffffffffffffffff1673ffffffffffffffffffffffffffffffffffffffff1681526020019081526020016000205460405161265a969594939291906132d8565b60405180910390a2505050565b600033905090565b80600460008573ffffffffffffffffffffffffffffffffffffffff1673ffffffffffffffffffffffffffffffffffffffff1681526020019081526020016000205410156126f1576040517f08c379a00000000000000000000000000000000000000000000000000000000081526004016126e890613431565b60405180910390fd5b80600460008573ffffffffffffffffffffffffffffffffffffffff1673ffffffffffffffffffffffffffffffffffffffff1681526020019081526020016000206000828254612740919061384d565b9250508190555080600460008473ffffffffffffffffffffffffffffffffffffffff1673ffffffffffffffffffffffffffffffffffffffff1681526020019081526020016000206000828254612796919061379d565b925050819055506127a88383836123b1565b8173ffffffffffffffffffffffffffffffffffffffff168373ffffffffffffffffffffffffffffffffffffffff167f545d69fe7f063ec653f15db654097f27f5cadbe11750199a40fd55b2504c6b4d83600460008873ffffffffffffffffffffffffffffffffffffffff1673ffffffffffffffffffffffffffffffffffffffff16815260200190815260200160002054600460008873ffffffffffffffffffffffffffffffffffffffff1673ffffffffffffffffffffffffffffffffffffffff1681526020019081526020016000205460405161288793929190613692565b60405180910390a3505050565b60008060009054906101000a900473ffffffffffffffffffffffffffffffffffffffff169050816000806101000a81548173ffffffffffffffffffffffffffffffffffffffff021916908373ffffffffffffffffffffffffffffffffffffffff1602179055508173ffffffffffffffffffffffffffffffffffffffff168173ffffffffffffffffffffffffffffffffffffffff167f8be0079c531659141344cd1fd0a4f28419497f9722a3daafe3b4186f6b6457e060405160405180910390a35050565b6040518060800160405280600073ffffffffffffffffffffffffffffffffffffffff168152602001600073ffffffffffffffffffffffffffffffffffffffff16815260200160008152602001600081525090565b604051806060016040528060608152602001600081526020016000151581525090565b604051806060016040528060008152602001600073ffffffffffffffffffffffffffffffffffffffff168152602001600081525090565b6000612a19612a14846136ee565b6136c9565b90508083825260208201905082856020860282011115612a3c57612a3b613a1d565b5b60005b85811015612a6c5781612a528882612af8565b845260208401935060208301925050600181019050612a3f565b5050509392505050565b600081359050612a8581613db4565b92915050565b600081519050612a9a81613db4565b92915050565b600082601f830112612ab557612ab4613a18565b5b8151612ac5848260208601612a06565b91505092915050565b600081519050612add81613dcb565b92915050565b600081359050612af281613de2565b92915050565b600081519050612b0781613de2565b92915050565b600060208284031215612b2357612b22613a27565b5b6000612b3184828501612a76565b91505092915050565b600060208284031215612b5057612b4f613a27565b5b6000612b5e84828501612a8b565b91505092915050565b600080600060608486031215612b8057612b7f613a27565b5b6000612b8e86828701612a76565b9350506020612b9f86828701612a76565b9250506040612bb086828701612ae3565b9150509250925092565b600080600060608486031215612bd357612bd2613a27565b5b6000612be186828701612a76565b9350506020612bf286828701612ae3565b9250506040612c0386828701612ae3565b9150509250925092565b600060208284031215612c2357612c22613a27565b5b600082015167ffffffffffffffff811115612c4157612c40613a22565b5b612c4d84828501612aa0565b91505092915050565b600060208284031215612c6c57612c6b613a27565b5b6000612c7a84828501612ace565b91505092915050565b600060208284031215612c9957612c98613a27565b5b6000612ca784828501612ae3565b91505092915050565b600060208284031215612cc657612cc5613a27565b5b6000612cd484828501612af8565b91505092915050565b60008060408385031215612cf457612cf3613a27565b5b6000612d0285828601612ae3565b9250506020612d1385828601612a76565b9150509250929050565b60008060408385031215612d3457612d33613a27565b5b6000612d4285828601612ae3565b9250506020612d5385828601612ae3565b9150509250929050565b6000612d698383613129565b60808301905092915050565b6000612d818383613223565b60208301905092915050565b612d9681613881565b82525050565b612da581613881565b82525050565b6000612db68261373a565b612dc0818561376a565b9350612dcb8361371a565b8060005b83811015612dfc578151612de38882612d5d565b9750612dee83613750565b925050600181019050612dcf565b5085935050505092915050565b6000612e1482613745565b612e1e818561377b565b9350612e298361372a565b8060005b83811015612e5a578151612e418882612d75565b9750612e4c8361375d565b925050600181019050612e2d565b5085935050505092915050565b612e7081613893565b82525050565b612e7f816138c9565b82525050565b612e8e816138db565b82525050565b6000612ea160238361378c565b9150612eac82613a3d565b604082019050919050565b6000612ec460258361378c565b9150612ecf82613a8c565b604082019050919050565b6000612ee7601f8361378c565b9150612ef282613adb565b602082019050919050565b6000612f0a60268361378c565b9150612f1582613b04565b604082019050919050565b6000612f2d600f8361378c565b9150612f3882613b53565b602082019050919050565b6000612f5060148361378c565b9150612f5b82613b7c565b602082019050919050565b6000612f7360168361378c565b9150612f7e82613ba5565b602082019050919050565b6000612f9660128361378c565b9150612fa182613bce565b602082019050919050565b6000612fb960198361378c565b9150612fc482613bf7565b602082019050919050565b6000612fdc60208361378c565b9150612fe782613c20565b602082019050919050565b6000612fff60288361378c565b915061300a82613c49565b604082019050919050565b6000613022601a8361378c565b915061302d82613c98565b602082019050919050565b6000613045601b8361378c565b915061305082613cc1565b602082019050919050565b600061306860108361378c565b915061307382613cea565b602082019050919050565b600061308b60268361378c565b915061309682613d13565b604082019050919050565b60006130ae601f8361378c565b91506130b982613d62565b602082019050919050565b60006130d1601b8361378c565b91506130dc82613d8b565b602082019050919050565b6060820160008201516130fd6000850182613223565b5060208201516131106020850182612d8d565b5060408201516131236040850182613223565b50505050565b60808201600082015161313f6000850182612d8d565b5060208201516131526020850182612d8d565b5060408201516131656040850182613223565b5060608201516131786060850182613223565b50505050565b6080820160008201516131946000850182612d8d565b5060208201516131a76020850182612d8d565b5060408201516131ba6040850182613223565b5060608201516131cd6060850182613223565b50505050565b600060608301600083015184820360008601526131f08282612dab565b91505060208301516132056020860182613223565b5060408301516132186040860182612e67565b508091505092915050565b61322c816138bf565b82525050565b61323b816138bf565b82525050565b60006020820190506132566000830184612d9c565b92915050565b60006060820190506132716000830186612d9c565b61327e6020830185612d9c565b61328b6040830184613232565b949350505050565b60006080820190506132a86000830187612d9c565b6132b56020830186612d9c565b6132c26040830185613232565b6132cf6060830184613232565b95945050505050565b600060c0820190506132ed6000830189612d9c565b6132fa6020830188612d9c565b6133076040830187613232565b6133146060830186613232565b6133216080830185613232565b61332e60a0830184613232565b979650505050505050565b600060208201905081810360008301526133538184612e09565b905092915050565b60006020820190506133706000830184612e76565b92915050565b600060208201905061338b6000830184612e85565b92915050565b600060208201905081810360008301526133aa81612e94565b9050919050565b600060208201905081810360008301526133ca81612eb7565b9050919050565b600060208201905081810360008301526133ea81612eda565b9050919050565b6000602082019050818103600083015261340a81612efd565b9050919050565b6000602082019050818103600083015261342a81612f20565b9050919050565b6000602082019050818103600083015261344a81612f43565b9050919050565b6000602082019050818103600083015261346a81612f66565b9050919050565b6000602082019050818103600083015261348a81612f89565b9050919050565b600060208201905081810360008301526134aa81612fac565b9050919050565b600060208201905081810360008301526134ca81612fcf565b9050919050565b600060208201905081810360008301526134ea81612ff2565b9050919050565b6000602082019050818103600083015261350a81613015565b9050919050565b6000602082019050818103600083015261352a81613038565b9050919050565b6000602082019050818103600083015261354a8161305b565b9050919050565b6000602082019050818103600083015261356a8161307e565b9050919050565b6000602082019050818103600083015261358a816130a1565b9050919050565b600060208201905081810360008301526135aa816130c4565b9050919050565b60006060820190506135c660008301846130e7565b92915050565b60006080820190506135e1600083018461317e565b92915050565b6000602082019050818103600083015261360181846131d3565b905092915050565b600060208201905061361e6000830184613232565b92915050565b60006060820190506136396000830186613232565b6136466020830185612d9c565b6136536040830184612d9c565b949350505050565b60006060820190506136706000830186613232565b61367d6020830185612d9c565b61368a6040830184613232565b949350505050565b60006060820190506136a76000830186613232565b6136b46020830185613232565b6136c16040830184613232565b949350505050565b60006136d36136e4565b90506136df8282613911565b919050565b6000604051905090565b600067ffffffffffffffff821115613709576137086139e9565b5b602082029050602081019050919050565b6000819050602082019050919050565b6000819050602082019050919050565b600081519050919050565b600081519050919050565b6000602082019050919050565b6000602082019050919050565b600082825260208201905092915050565b600082825260208201905092915050565b600082825260208201905092915050565b60006137a8826138bf565b91506137b3836138bf565b9250827fffffffffffffffffffffffffffffffffffffffffffffffffffffffffffffffff038211156137e8576137e761398b565b5b828201905092915050565b60006137fe826138bf565b9150613809836138bf565b9250817fffffffffffffffffffffffffffffffffffffffffffffffffffffffffffffffff04831182151516156138425761384161398b565b5b828202905092915050565b6000613858826138bf565b9150613863836138bf565b9250828210156138765761387561398b565b5b828203905092915050565b600061388c8261389f565b9050919050565b60008115159050919050565b600073ffffffffffffffffffffffffffffffffffffffff82169050919050565b6000819050919050565b60006138d4826138ed565b9050919050565b60006138e6826138ed565b9050919050565b60006138f8826138ff565b9050919050565b600061390a8261389f565b9050919050565b61391a82613a2c565b810181811067ffffffffffffffff82111715613939576139386139e9565b5b80604052505050565b600061394d826138bf565b91507fffffffffffffffffffffffffffffffffffffffffffffffffffffffffffffffff8214156139805761397f61398b565b5b600182019050919050565b7f4e487b7100000000000000000000000000000000000000000000000000000000600052601160045260246000fd5b7f4e487b7100000000000000000000000000000000000000000000000000000000600052603260045260246000fd5b7f4e487b7100000000000000000000000000000000000000000000000000000000600052604160045260246000fd5b600080fd5b600080fd5b600080fd5b600080fd5b6000601f19601f8301169050919050565b7f41756374696f6e20646f6573206e6f7420657869737420666f7220746869732060008201527f4e46540000000000000000000000000000000000000000000000000000000000602082015250565b7f4465706f73697420616d6f756e74206d7573742062652067726561746572207460008201527f68616e2030000000000000000000000000000000000000000000000000000000602082015250565b7f5072696365206d7573742062652067726561746572207468616e207a65726f00600082015250565b7f4f776e61626c653a206e6577206f776e657220697320746865207a65726f206160008201527f6464726573730000000000000000000000000000000000000000000000000000602082015250565b7f5472616e73666572206661696c65640000000000000000000000000000000000600082015250565b7f496e73756666696369656e742062616c616e6365000000000000000000000000600082015250565b7f596f7520646f6e2774206f776e2074686973204e465400000000000000000000600082015250565b7f4e4654206e6f7420696e2041756374696f6e0000000000000000000000000000600082015250565b7f496e76616c696420726563697069656e74206164647265737300000000000000600082015250565b7f4f776e61626c653a2063616c6c6572206973206e6f7420746865206f776e6572600082015250565b7f5769746864726177616c20616d6f756e74206d7573742062652067726561746560008201527f72207468616e2030000000000000000000000000000000000000000000000000602082015250565b7f53656c6c65722063616e6e6f7420626520746865206275796572000000000000600082015250565b7f43616e6e6f74207472616e7366657220746f20796f757273656c660000000000600082015250565b7f496e76616c696420747261646520494400000000000000000000000000000000600082015250565b7f5472616e7366657220616d6f756e74206d75737420626520677265617465722060008201527f7468616e20300000000000000000000000000000000000000000000000000000602082015250565b7f5265656e7472616e637947756172643a207265656e7472616e742063616c6c00600082015250565b7f546869732061756374696f6e20646f6573206e6f742065786973740000000000600082015250565b613dbd81613881565b8114613dc857600080fd5b50565b613dd481613893565b8114613ddf57600080fd5b50565b613deb816138bf565b8114613df657600080fd5b5056fea2646970667358221220a272b8f146868e89518b58cf377b309066f140aaae72778201a727716dcdc6eb64736f6c63430008070033",
  "immutableReferences": {},
  "source": "// SPDX-License-Identifier: MIT\r\npragma solidity ^0.8.7;\r\n\r\nimport \"./TradeBase.sol\";\r\n\r\ncontract NFTAuction is TradeBase {\r\n    struct Auction {\r\n        uint256 nftId;\r\n        address seller;\r\n        uint256 price;\r\n    }\r\n\r\n    mapping(uint256 => Auction) public auctions;\r\n\r\n    event AuctionStarted(uint256 indexed nftId, address indexed seller, uint256 price);\r\n    event AuctionCancelled(uint256 indexed nftId, address indexed seller);\r\n    event AuctionClosed(uint256 indexed nftId, address indexed seller, address indexed buyer, uint256 price);\r\n\r\n    //   \r\n    function startAuction(uint256 _nftId, uint256 price) external nonReentrant {\r\n        require(nftContract.ownerOf(_nftId) == msg.sender, \"You don't own this NFT\");\r\n        require(price > 0, \"Price must be greater than zero\");\r\n        \r\n        nftContract.transferNFTByAdmin(_nftId, msg.sender, address(this));\r\n\r\n        auctions[_nftId] = Auction({\r\n            nftId: _nftId,\r\n            seller: msg.sender,\r\n            price: price\r\n        });\r\n\r\n        emit AuctionStarted(_nftId, msg.sender, price);\r\n    }\r\n\r\n    //    \r\n    function cancelAuction(uint256 _nftId) external nonReentrant {\r\n        Auction storage auction = auctions[_nftId];\r\n        require(nftContract.ownerOf(_nftId) == address(this), \"NFT not in Auction\");\r\n        require(auction.seller == msg.sender, \"You don't own this NFT\");\r\n        require(auction.seller != address(0), \"This auction does not exist\");\r\n        \r\n        nftContract.transferNFTByAdmin(_nftId, address(this), msg.sender);\r\n\r\n        delete auctions[_nftId];\r\n\r\n        emit AuctionCancelled(_nftId, msg.sender);\r\n    }\r\n\r\n    //    ( )\r\n    function closeAuction(uint256 _nftId, address buyer) external nonReentrant onlyOwner {\r\n        Auction storage auction = auctions[_nftId];\r\n        require(auction.seller != address(0), \"This auction does not exist\");\r\n        require(buyer != auction.seller, \"Seller cannot be the buyer\");\r\n\r\n        uint256 price = auction.price;\r\n        address seller = auction.seller;\r\n\r\n        require(getUserBalance(buyer) >= price, \"Insufficient balance\");\r\n\r\n        _adjustBalances(buyer, seller, price);\r\n\r\n        nftContract.transferNFTByAdmin(_nftId, address(this), msg.sender);\r\n\r\n        delete auctions[_nftId];\r\n\r\n        emit AuctionClosed(_nftId, seller, buyer, price);\r\n    }\r\n\r\n    function getAuctionInfo(uint256 _nftId) public view returns (Auction memory) {\r\n        Auction memory auction = auctions[_nftId];\r\n        require(auction.seller != address(0), \"Auction does not exist for this NFT\");\r\n        return auction;\r\n    }\r\n}",
  "sourcePath": "C:\\Users\\SSAFY\\Desktop\\semonemo\\backend\\blockchain-server\\smartcontract\\contracts\\NFTAuction.sol",
  "compiler": {
    "name": "solc",
    "version": "0.8.7+commit.e28d00a7.Emscripten.clang"
  },
  "schemaVersion": "3.4.16",
  "updatedAt": "2024-10-05T08:15:00.665Z",
  "devdoc": {
    "kind": "dev",
    "methods": {
      "owner()": {
        "details": "Returns the address of the current owner."
      },
      "renounceOwnership()": {
        "details": "Leaves the contract without owner. It will not be possible to call `onlyOwner` functions anymore. Can only be called by the current owner. NOTE: Renouncing ownership will leave the contract without an owner, thereby removing any functionality that is only available to the owner."
      },
      "transferOwnership(address)": {
        "details": "Transfers ownership of the contract to a new account (`newOwner`). Can only be called by the current owner."
      }
    },
    "version": 1
  },
  "userdoc": {
    "kind": "user",
    "methods": {},
    "version": 1
  }
}