{
  "contractName": "NFTAuction",
  "abi": [
    {
      "anonymous": false,
      "inputs": [
        {
          "indexed": true,
          "internalType": "uint256",
          "name": "nftId",
          "type": "uint256"
        },
        {
          "indexed": true,
          "internalType": "address",
          "name": "seller",
          "type": "address"
        },
        {
          "indexed": false,
          "internalType": "uint256",
          "name": "startingPrice",
          "type": "uint256"
        }
      ],
      "name": "AuctionCreated",
      "type": "event"
    },
    {
      "anonymous": false,
      "inputs": [
        {
          "indexed": true,
          "internalType": "uint256",
          "name": "nftId",
          "type": "uint256"
        },
        {
          "indexed": true,
          "internalType": "address",
          "name": "winner",
          "type": "address"
        },
        {
          "indexed": false,
          "internalType": "uint256",
          "name": "winningBid",
          "type": "uint256"
        }
      ],
      "name": "AuctionFinalized",
      "type": "event"
    },
    {
      "anonymous": false,
      "inputs": [
        {
          "indexed": true,
          "internalType": "uint256",
          "name": "nftId",
          "type": "uint256"
        },
        {
          "indexed": true,
          "internalType": "address",
          "name": "bidder",
          "type": "address"
        },
        {
          "indexed": false,
          "internalType": "uint256",
          "name": "bidAmount",
          "type": "uint256"
        }
      ],
      "name": "BidPlaced",
      "type": "event"
    },
    {
      "anonymous": false,
      "inputs": [
        {
          "indexed": true,
          "internalType": "address",
          "name": "previousOwner",
          "type": "address"
        },
        {
          "indexed": true,
          "internalType": "address",
          "name": "newOwner",
          "type": "address"
        }
      ],
      "name": "OwnershipTransferred",
      "type": "event"
    },
    {
      "inputs": [
        {
          "internalType": "uint256",
          "name": "",
          "type": "uint256"
        }
      ],
      "name": "auctions",
      "outputs": [
        {
          "internalType": "uint256",
          "name": "nftId",
          "type": "uint256"
        },
        {
          "internalType": "address",
          "name": "seller",
          "type": "address"
        },
        {
          "internalType": "uint256",
          "name": "startingPrice",
          "type": "uint256"
        },
        {
          "internalType": "uint256",
          "name": "highestBid",
          "type": "uint256"
        },
        {
          "internalType": "address",
          "name": "highestBidder",
          "type": "address"
        },
        {
          "internalType": "bool",
          "name": "isFinished",
          "type": "bool"
        }
      ],
      "stateMutability": "view",
      "type": "function"
    },
    {
      "inputs": [],
      "name": "getContractBalance",
      "outputs": [
        {
          "internalType": "uint256",
          "name": "",
          "type": "uint256"
        }
      ],
      "stateMutability": "view",
      "type": "function"
    },
    {
      "inputs": [],
      "name": "getContractOwnedNFTs",
      "outputs": [
        {
          "internalType": "uint256[]",
          "name": "",
          "type": "uint256[]"
        }
      ],
      "stateMutability": "view",
      "type": "function"
    },
    {
      "inputs": [],
      "name": "nftContract",
      "outputs": [
        {
          "internalType": "contract NFTFrame",
          "name": "",
          "type": "address"
        }
      ],
      "stateMutability": "view",
      "type": "function"
    },
    {
      "inputs": [],
      "name": "owner",
      "outputs": [
        {
          "internalType": "address",
          "name": "",
          "type": "address"
        }
      ],
      "stateMutability": "view",
      "type": "function"
    },
    {
      "inputs": [],
      "name": "renounceOwnership",
      "outputs": [],
      "stateMutability": "nonpayable",
      "type": "function"
    },
    {
      "inputs": [],
      "name": "tokenContract",
      "outputs": [
        {
          "internalType": "contract AhoraCoin",
          "name": "",
          "type": "address"
        }
      ],
      "stateMutability": "view",
      "type": "function"
    },
    {
      "inputs": [
        {
          "internalType": "address",
          "name": "newOwner",
          "type": "address"
        }
      ],
      "name": "transferOwnership",
      "outputs": [],
      "stateMutability": "nonpayable",
      "type": "function"
    },
    {
      "inputs": [
        {
          "internalType": "uint256",
          "name": "_nftId",
          "type": "uint256"
        },
        {
          "internalType": "uint256",
          "name": "_startingPrice",
          "type": "uint256"
        }
      ],
      "name": "createAuction",
      "outputs": [],
      "stateMutability": "nonpayable",
      "type": "function"
    },
    {
      "inputs": [
        {
          "internalType": "uint256",
          "name": "_nftId",
          "type": "uint256"
        },
        {
          "internalType": "uint256",
          "name": "_bidAmount",
          "type": "uint256"
        }
      ],
      "name": "placeBid",
      "outputs": [],
      "stateMutability": "nonpayable",
      "type": "function"
    },
    {
      "inputs": [
        {
          "internalType": "uint256",
          "name": "_nftId",
          "type": "uint256"
        }
      ],
      "name": "finalizeAuction",
      "outputs": [],
      "stateMutability": "nonpayable",
      "type": "function"
    },
    {
      "inputs": [
        {
          "internalType": "uint256",
          "name": "_nftId",
          "type": "uint256"
        }
      ],
      "name": "getAuctionInfo",
      "outputs": [
        {
          "components": [
            {
              "internalType": "uint256",
              "name": "nftId",
              "type": "uint256"
            },
            {
              "internalType": "address",
              "name": "seller",
              "type": "address"
            },
            {
              "internalType": "uint256",
              "name": "startingPrice",
              "type": "uint256"
            },
            {
              "internalType": "uint256",
              "name": "highestBid",
              "type": "uint256"
            },
            {
              "internalType": "address",
              "name": "highestBidder",
              "type": "address"
            },
            {
              "internalType": "bool",
              "name": "isFinished",
              "type": "bool"
            }
          ],
          "internalType": "struct NFTAuction.Auction",
          "name": "",
          "type": "tuple"
        }
      ],
      "stateMutability": "view",
      "type": "function"
    }
  ],
  "bytecode": "0x608060405234801561001057600080fd5b5061002d61002261003960201b60201c565b61004160201b60201c565b60018081905550610105565b600033905090565b60008060009054906101000a900473ffffffffffffffffffffffffffffffffffffffff169050816000806101000a81548173ffffffffffffffffffffffffffffffffffffffff021916908373ffffffffffffffffffffffffffffffffffffffff1602179055508173ffffffffffffffffffffffffffffffffffffffff168173ffffffffffffffffffffffffffffffffffffffff167f8be0079c531659141344cd1fd0a4f28419497f9722a3daafe3b4186f6b6457e060405160405180910390a35050565b61246280620001156000396000f3fe608060405234801561001057600080fd5b50600436106100b45760003560e01c80638da5cb5b116100715780638da5cb5b1461016c578063d3e6fa191461018a578063d56d229d146101a8578063e8083863146101c6578063f2fde38b146101e2578063fc3fc4ed146101fe576100b4565b80630121683f146100b957806355a373d6146100d5578063571a26a0146100f357806357c90de5146101285780636f9fb98a14610144578063715018a614610162575b600080fd5b6100d360048036038101906100ce919061188a565b61022e565b005b6100dd610602565b6040516100ea9190611c97565b60405180910390f35b61010d60048036038101906101089190611830565b610628565b60405161011f96959493929190611f03565b60405180910390f35b610142600480360381019061013d919061188a565b6106b1565b005b61014c610afb565b6040516101599190611e88565b60405180910390f35b61016a610bad565b005b610174610c35565b6040516101819190611bfa565b60405180910390f35b610192610c5e565b60405161019f9190611c75565b60405180910390f35b6101b0610d15565b6040516101bd9190611cb2565b60405180910390f35b6101e060048036038101906101db9190611830565b610d3b565b005b6101fc60048036038101906101f79190611760565b6112a5565b005b61021860048036038101906102139190611830565b61139d565b6040516102259190611e6d565b60405180910390f35b60026001541415610274576040517f08c379a000000000000000000000000000000000000000000000000000000000815260040161026b90611e2d565b60405180910390fd5b60026001819055503373ffffffffffffffffffffffffffffffffffffffff16600260009054906101000a900473ffffffffffffffffffffffffffffffffffffffff1673ffffffffffffffffffffffffffffffffffffffff16636352211e846040518263ffffffff1660e01b81526004016102ee9190611e88565b60206040518083038186803b15801561030657600080fd5b505afa15801561031a573d6000803e3d6000fd5b505050506040513d601f19601f8201168201806040525081019061033e919061178d565b73ffffffffffffffffffffffffffffffffffffffff1614610394576040517f08c379a000000000000000000000000000000000000000000000000000000000815260040161038b90611d4d565b60405180910390fd5b600081116103d7576040517f08c379a00000000000000000000000000000000000000000000000000000000081526004016103ce90611e4d565b60405180910390fd5b600260009054906101000a900473ffffffffffffffffffffffffffffffffffffffff1673ffffffffffffffffffffffffffffffffffffffff16634f89cea68333306040518463ffffffff1660e01b815260040161043693929190611ecc565b600060405180830381600087803b15801561045057600080fd5b505af1158015610464573d6000803e3d6000fd5b505050506040518060c001604052808381526020013373ffffffffffffffffffffffffffffffffffffffff16815260200182815260200160008152602001600073ffffffffffffffffffffffffffffffffffffffff16815260200160001515815250600460008481526020019081526020016000206000820151816000015560208201518160010160006101000a81548173ffffffffffffffffffffffffffffffffffffffff021916908373ffffffffffffffffffffffffffffffffffffffff160217905550604082015181600201556060820151816003015560808201518160040160006101000a81548173ffffffffffffffffffffffffffffffffffffffff021916908373ffffffffffffffffffffffffffffffffffffffff16021790555060a08201518160040160146101000a81548160ff0219169083151502179055509050503373ffffffffffffffffffffffffffffffffffffffff16827f6ff530872708bbb51bad8ea341564e4ea039807ad1331f61ab4c906a66875daf836040516105ef9190611e88565b60405180910390a3600180819055505050565b600360009054906101000a900473ffffffffffffffffffffffffffffffffffffffff1681565b60046020528060005260406000206000915090508060000154908060010160009054906101000a900473ffffffffffffffffffffffffffffffffffffffff16908060020154908060030154908060040160009054906101000a900473ffffffffffffffffffffffffffffffffffffffff16908060040160149054906101000a900460ff16905086565b600260015414156106f7576040517f08c379a00000000000000000000000000000000000000000000000000000000081526004016106ee90611e2d565b60405180910390fd5b600260018190555060006004600084815260200190815260200160002090508060040160149054906101000a900460ff1615610768576040517f08c379a000000000000000000000000000000000000000000000000000000000815260040161075f90611dcd565b60405180910390fd5b806003015482116107ae576040517f08c379a00000000000000000000000000000000000000000000000000000000081526004016107a590611d0d565b60405180910390fd5b80600201548210156107f5576040517f08c379a00000000000000000000000000000000000000000000000000000000081526004016107ec90611d2d565b60405180910390fd5b600073ffffffffffffffffffffffffffffffffffffffff168160040160009054906101000a900473ffffffffffffffffffffffffffffffffffffffff1673ffffffffffffffffffffffffffffffffffffffff161461096457600360009054906101000a900473ffffffffffffffffffffffffffffffffffffffff1673ffffffffffffffffffffffffffffffffffffffff16631b33a8db8260040160009054906101000a900473ffffffffffffffffffffffffffffffffffffffff1683600301546040518363ffffffff1660e01b81526004016108d2929190611c4c565b602060405180830381600087803b1580156108ec57600080fd5b505af1158015610900573d6000803e3d6000fd5b505050506040513d601f19601f820116820180604052508101906109249190611803565b610963576040517f08c379a000000000000000000000000000000000000000000000000000000000815260040161095a90611e0d565b60405180910390fd5b5b600360009054906101000a900473ffffffffffffffffffffffffffffffffffffffff1673ffffffffffffffffffffffffffffffffffffffff1663f67ac38c3330856040518463ffffffff1660e01b81526004016109c393929190611c15565b602060405180830381600087803b1580156109dd57600080fd5b505af11580156109f1573d6000803e3d6000fd5b505050506040513d601f19601f82011682018060405250810190610a159190611803565b610a54576040517f08c379a0000000000000000000000000000000000000000000000000000000008152600401610a4b90611d6d565b60405180910390fd5b818160030181905550338160040160006101000a81548173ffffffffffffffffffffffffffffffffffffffff021916908373ffffffffffffffffffffffffffffffffffffffff1602179055503373ffffffffffffffffffffffffffffffffffffffff16837f0e54eff26401bf69b81b26f60bd85ef47f5d85275c1d268d84f68d6897431c4784604051610ae79190611e88565b60405180910390a350600180819055505050565b6000600360009054906101000a900473ffffffffffffffffffffffffffffffffffffffff1673ffffffffffffffffffffffffffffffffffffffff166370a08231306040518263ffffffff1660e01b8152600401610b589190611bfa565b60206040518083038186803b158015610b7057600080fd5b505afa158015610b84573d6000803e3d6000fd5b505050506040513d601f19601f82011682018060405250810190610ba8919061185d565b905090565b610bb5611529565b73ffffffffffffffffffffffffffffffffffffffff16610bd3610c35565b73ffffffffffffffffffffffffffffffffffffffff1614610c29576040517f08c379a0000000000000000000000000000000000000000000000000000000008152600401610c2090611dad565b60405180910390fd5b610c336000611531565b565b60008060009054906101000a900473ffffffffffffffffffffffffffffffffffffffff16905090565b6060600260009054906101000a900473ffffffffffffffffffffffffffffffffffffffff1673ffffffffffffffffffffffffffffffffffffffff1663e6b1fa2a306040518263ffffffff1660e01b8152600401610cbb9190611bfa565b60006040518083038186803b158015610cd357600080fd5b505afa158015610ce7573d6000803e3d6000fd5b505050506040513d6000823e3d601f19601f82011682018060405250810190610d1091906117ba565b905090565b600260009054906101000a900473ffffffffffffffffffffffffffffffffffffffff1681565b610d43611529565b73ffffffffffffffffffffffffffffffffffffffff16610d61610c35565b73ffffffffffffffffffffffffffffffffffffffff1614610db7576040517f08c379a0000000000000000000000000000000000000000000000000000000008152600401610dae90611dad565b60405180910390fd5b60026001541415610dfd576040517f08c379a0000000000000000000000000000000000000000000000000000000008152600401610df490611e2d565b60405180910390fd5b600260018190555060006004600083815260200190815260200160002090508060040160149054906101000a900460ff1615610e6e576040517f08c379a0000000000000000000000000000000000000000000000000000000008152600401610e6590611dcd565b60405180910390fd5b60018160040160146101000a81548160ff021916908315150217905550600073ffffffffffffffffffffffffffffffffffffffff168160040160009054906101000a900473ffffffffffffffffffffffffffffffffffffffff1673ffffffffffffffffffffffffffffffffffffffff161461118757600260009054906101000a900473ffffffffffffffffffffffffffffffffffffffff1673ffffffffffffffffffffffffffffffffffffffff16639036c050838360040160009054906101000a900473ffffffffffffffffffffffffffffffffffffffff166040518363ffffffff1660e01b8152600401610f64929190611ea3565b602060405180830381600087803b158015610f7e57600080fd5b505af1158015610f92573d6000803e3d6000fd5b505050506040513d601f19601f82011682018060405250810190610fb69190611803565b610ff5576040517f08c379a0000000000000000000000000000000000000000000000000000000008152600401610fec90611ded565b60405180910390fd5b600360009054906101000a900473ffffffffffffffffffffffffffffffffffffffff1673ffffffffffffffffffffffffffffffffffffffff16631b33a8db8260010160009054906101000a900473ffffffffffffffffffffffffffffffffffffffff1683600301546040518363ffffffff1660e01b815260040161107a929190611c4c565b602060405180830381600087803b15801561109457600080fd5b505af11580156110a8573d6000803e3d6000fd5b505050506040513d601f19601f820116820180604052508101906110cc9190611803565b61110b576040517f08c379a000000000000000000000000000000000000000000000000000000000815260040161110290611d8d565b60405180910390fd5b8060040160009054906101000a900473ffffffffffffffffffffffffffffffffffffffff1673ffffffffffffffffffffffffffffffffffffffff16827f4d9113a1377d665eaa1f9168a9c9080f2e488cb820b10149de3d6d2e0f2780c7836003015460405161117a9190611e88565b60405180910390a361129a565b600260009054906101000a900473ffffffffffffffffffffffffffffffffffffffff1673ffffffffffffffffffffffffffffffffffffffff16639036c050838360010160009054906101000a900473ffffffffffffffffffffffffffffffffffffffff166040518363ffffffff1660e01b8152600401611208929190611ea3565b602060405180830381600087803b15801561122257600080fd5b505af1158015611236573d6000803e3d6000fd5b505050506040513d601f19601f8201168201806040525081019061125a9190611803565b611299576040517f08c379a000000000000000000000000000000000000000000000000000000000815260040161129090611ded565b60405180910390fd5b5b506001808190555050565b6112ad611529565b73ffffffffffffffffffffffffffffffffffffffff166112cb610c35565b73ffffffffffffffffffffffffffffffffffffffff1614611321576040517f08c379a000000000000000000000000000000000000000000000000000000000815260040161131890611dad565b60405180910390fd5b600073ffffffffffffffffffffffffffffffffffffffff168173ffffffffffffffffffffffffffffffffffffffff161415611391576040517f08c379a000000000000000000000000000000000000000000000000000000000815260040161138890611ced565b60405180910390fd5b61139a81611531565b50565b6113a56115f5565b6000600460008481526020019081526020016000206040518060c0016040529081600082015481526020016001820160009054906101000a900473ffffffffffffffffffffffffffffffffffffffff1673ffffffffffffffffffffffffffffffffffffffff1673ffffffffffffffffffffffffffffffffffffffff16815260200160028201548152602001600382015481526020016004820160009054906101000a900473ffffffffffffffffffffffffffffffffffffffff1673ffffffffffffffffffffffffffffffffffffffff1673ffffffffffffffffffffffffffffffffffffffff1681526020016004820160149054906101000a900460ff1615151515815250509050600073ffffffffffffffffffffffffffffffffffffffff16816020015173ffffffffffffffffffffffffffffffffffffffff161415611520576040517f08c379a000000000000000000000000000000000000000000000000000000000815260040161151790611ccd565b60405180910390fd5b80915050919050565b600033905090565b60008060009054906101000a900473ffffffffffffffffffffffffffffffffffffffff169050816000806101000a81548173ffffffffffffffffffffffffffffffffffffffff021916908373ffffffffffffffffffffffffffffffffffffffff1602179055508173ffffffffffffffffffffffffffffffffffffffff168173ffffffffffffffffffffffffffffffffffffffff167f8be0079c531659141344cd1fd0a4f28419497f9722a3daafe3b4186f6b6457e060405160405180910390a35050565b6040518060c0016040528060008152602001600073ffffffffffffffffffffffffffffffffffffffff1681526020016000815260200160008152602001600073ffffffffffffffffffffffffffffffffffffffff1681526020016000151581525090565b600061166c61166784611f89565b611f64565b9050808382526020820190508285602086028201111561168f5761168e6120f4565b5b60005b858110156116bf57816116a5888261174b565b845260208401935060208301925050600181019050611692565b5050509392505050565b6000813590506116d8816123e7565b92915050565b6000815190506116ed816123e7565b92915050565b600082601f830112611708576117076120ef565b5b8151611718848260208601611659565b91505092915050565b600081519050611730816123fe565b92915050565b60008135905061174581612415565b92915050565b60008151905061175a81612415565b92915050565b600060208284031215611776576117756120fe565b5b6000611784848285016116c9565b91505092915050565b6000602082840312156117a3576117a26120fe565b5b60006117b1848285016116de565b91505092915050565b6000602082840312156117d0576117cf6120fe565b5b600082015167ffffffffffffffff8111156117ee576117ed6120f9565b5b6117fa848285016116f3565b91505092915050565b600060208284031215611819576118186120fe565b5b600061182784828501611721565b91505092915050565b600060208284031215611846576118456120fe565b5b600061185484828501611736565b91505092915050565b600060208284031215611873576118726120fe565b5b60006118818482850161174b565b91505092915050565b600080604083850312156118a1576118a06120fe565b5b60006118af85828601611736565b92505060206118c085828601611736565b9150509250929050565b60006118d68383611bdc565b60208301905092915050565b6118eb81611fff565b82525050565b6118fa81611fff565b82525050565b600061190b82611fc5565b6119158185611fdd565b935061192083611fb5565b8060005b8381101561195157815161193888826118ca565b975061194383611fd0565b925050600181019050611924565b5085935050505092915050565b61196781612011565b82525050565b61197681612011565b82525050565b61198581612047565b82525050565b61199481612059565b82525050565b60006119a7602383611fee565b91506119b282612114565b604082019050919050565b60006119ca602683611fee565b91506119d582612163565b604082019050919050565b60006119ed602b83611fee565b91506119f8826121b2565b604082019050919050565b6000611a10602783611fee565b9150611a1b82612201565b604082019050919050565b6000611a33601683611fee565b9150611a3e82612250565b602082019050919050565b6000611a56601383611fee565b9150611a6182612279565b602082019050919050565b6000611a79601983611fee565b9150611a84826122a2565b602082019050919050565b6000611a9c602083611fee565b9150611aa7826122cb565b602082019050919050565b6000611abf601b83611fee565b9150611aca826122f4565b602082019050919050565b6000611ae2601383611fee565b9150611aed8261231d565b602082019050919050565b6000611b05601683611fee565b9150611b1082612346565b602082019050919050565b6000611b28601f83611fee565b9150611b338261236f565b602082019050919050565b6000611b4b602883611fee565b9150611b5682612398565b604082019050919050565b60c082016000820151611b776000850182611bdc565b506020820151611b8a60208501826118e2565b506040820151611b9d6040850182611bdc565b506060820151611bb06060850182611bdc565b506080820151611bc360808501826118e2565b5060a0820151611bd660a085018261195e565b50505050565b611be58161203d565b82525050565b611bf48161203d565b82525050565b6000602082019050611c0f60008301846118f1565b92915050565b6000606082019050611c2a60008301866118f1565b611c3760208301856118f1565b611c446040830184611beb565b949350505050565b6000604082019050611c6160008301856118f1565b611c6e6020830184611beb565b9392505050565b60006020820190508181036000830152611c8f8184611900565b905092915050565b6000602082019050611cac600083018461197c565b92915050565b6000602082019050611cc7600083018461198b565b92915050565b60006020820190508181036000830152611ce68161199a565b9050919050565b60006020820190508181036000830152611d06816119bd565b9050919050565b60006020820190508181036000830152611d26816119e0565b9050919050565b60006020820190508181036000830152611d4681611a03565b9050919050565b60006020820190508181036000830152611d6681611a26565b9050919050565b60006020820190508181036000830152611d8681611a49565b9050919050565b60006020820190508181036000830152611da681611a6c565b9050919050565b60006020820190508181036000830152611dc681611a8f565b9050919050565b60006020820190508181036000830152611de681611ab2565b9050919050565b60006020820190508181036000830152611e0681611ad5565b9050919050565b60006020820190508181036000830152611e2681611af8565b9050919050565b60006020820190508181036000830152611e4681611b1b565b9050919050565b60006020820190508181036000830152611e6681611b3e565b9050919050565b600060c082019050611e826000830184611b61565b92915050565b6000602082019050611e9d6000830184611beb565b92915050565b6000604082019050611eb86000830185611beb565b611ec560208301846118f1565b9392505050565b6000606082019050611ee16000830186611beb565b611eee60208301856118f1565b611efb60408301846118f1565b949350505050565b600060c082019050611f186000830189611beb565b611f2560208301886118f1565b611f326040830187611beb565b611f3f6060830186611beb565b611f4c60808301856118f1565b611f5960a083018461196d565b979650505050505050565b6000611f6e611f7f565b9050611f7a828261208f565b919050565b6000604051905090565b600067ffffffffffffffff821115611fa457611fa36120c0565b5b602082029050602081019050919050565b6000819050602082019050919050565b600081519050919050565b6000602082019050919050565b600082825260208201905092915050565b600082825260208201905092915050565b600061200a8261201d565b9050919050565b60008115159050919050565b600073ffffffffffffffffffffffffffffffffffffffff82169050919050565b6000819050919050565b60006120528261206b565b9050919050565b60006120648261206b565b9050919050565b60006120768261207d565b9050919050565b60006120888261201d565b9050919050565b61209882612103565b810181811067ffffffffffffffff821117156120b7576120b66120c0565b5b80604052505050565b7f4e487b7100000000000000000000000000000000000000000000000000000000600052604160045260246000fd5b600080fd5b600080fd5b600080fd5b600080fd5b6000601f19601f8301169050919050565b7f41756374696f6e20646f6573206e6f7420657869737420666f7220746869732060008201527f4e46540000000000000000000000000000000000000000000000000000000000602082015250565b7f4f776e61626c653a206e6577206f776e657220697320746865207a65726f206160008201527f6464726573730000000000000000000000000000000000000000000000000000602082015250565b7f426964206d75737420626520686967686572207468616e2063757272656e742060008201527f6869676865737420626964000000000000000000000000000000000000000000602082015250565b7f426964206d757374206265206174206c6561737420746865207374617274696e60008201527f6720707269636500000000000000000000000000000000000000000000000000602082015250565b7f596f7520646f6e2774206f776e2074686973204e465400000000000000000000600082015250565b7f426964207472616e73666572206661696c656400000000000000000000000000600082015250565b7f5472616e7366657220746f2073656c6c6572206661696c656400000000000000600082015250565b7f4f776e61626c653a2063616c6c6572206973206e6f7420746865206f776e6572600082015250565b7f41756374696f6e20697320616c72656164792066696e69736865640000000000600082015250565b7f4e4654207472616e73666572206661696c656400000000000000000000000000600082015250565b7f526566756e64207472616e73666572206661696c656400000000000000000000600082015250565b7f5265656e7472616e637947756172643a207265656e7472616e742063616c6c00600082015250565b7f5374617274696e67207072696365206d7573742062652067726561746572207460008201527f68616e207a65726f000000000000000000000000000000000000000000000000602082015250565b6123f081611fff565b81146123fb57600080fd5b50565b61240781612011565b811461241257600080fd5b50565b61241e8161203d565b811461242957600080fd5b5056fea26469706673582212200dfea2e1043ee63b5bddcea5e43da2968faabba19cb3ed58e5c5002a40bcfcbe64736f6c63430008070033",
  "immutableReferences": {},
  "source": "// SPDX-License-Identifier: MIT\r\npragma solidity ^0.8.7;\r\n\r\nimport \"./Base.sol\";\r\n\r\ncontract NFTAuction is NFTBase {\r\n    struct Auction {\r\n        uint256 nftId;\r\n        address seller;\r\n        uint256 startingPrice;\r\n        uint256 highestBid;\r\n        address highestBidder;\r\n        bool isFinished;\r\n    }\r\n\r\n    mapping(uint256 => Auction) public auctions;\r\n\r\n    event AuctionCreated(uint256 indexed nftId, address indexed seller, uint256 startingPrice);\r\n    event BidPlaced(uint256 indexed nftId, address indexed bidder, uint256 bidAmount);\r\n    event AuctionFinalized(uint256 indexed nftId, address indexed winner, uint256 winningBid);\r\n\r\n    function createAuction(uint256 _nftId, uint256 _startingPrice) external nonReentrant {\r\n        require(nftContract.ownerOf(_nftId) == msg.sender, \"You don't own this NFT\");\r\n        require(_startingPrice > 0, \"Starting price must be greater than zero\");\r\n        \r\n        nftContract.transferNFTUserToSystem(_nftId, msg.sender, address(this));\r\n\r\n        auctions[_nftId] = Auction({\r\n            nftId: _nftId,\r\n            seller: msg.sender,\r\n            startingPrice: _startingPrice,\r\n            highestBid: 0,\r\n            highestBidder: address(0),\r\n            isFinished: false\r\n        });\r\n\r\n        emit AuctionCreated(_nftId, msg.sender, _startingPrice);\r\n    }\r\n\r\n    function placeBid(uint256 _nftId, uint256 _bidAmount) external nonReentrant {\r\n        Auction storage auction = auctions[_nftId];\r\n        require(!auction.isFinished, \"Auction is already finished\");\r\n        require(_bidAmount > auction.highestBid, \"Bid must be higher than current highest bid\");\r\n        require(_bidAmount >= auction.startingPrice, \"Bid must be at least the starting price\");\r\n\r\n        if (auction.highestBidder != address(0)) {\r\n            require(tokenContract.transferSenderToUser(auction.highestBidder, auction.highestBid), \"Refund transfer failed\");\r\n        }\r\n\r\n        require(tokenContract.transferUserToSystem(msg.sender, address(this), _bidAmount), \"Bid transfer failed\");\r\n\r\n        auction.highestBid = _bidAmount;\r\n        auction.highestBidder = msg.sender;\r\n\r\n        emit BidPlaced(_nftId, msg.sender, _bidAmount);\r\n    }\r\n\r\n    function finalizeAuction(uint256 _nftId) external onlyOwner nonReentrant {\r\n        Auction storage auction = auctions[_nftId];\r\n        require(!auction.isFinished, \"Auction is already finished\");\r\n\r\n        auction.isFinished = true;\r\n\r\n        if (auction.highestBidder != address(0)) {\r\n            require(nftContract.transferNFT(_nftId, auction.highestBidder), \"NFT transfer failed\");\r\n            require(tokenContract.transferSenderToUser(auction.seller, auction.highestBid), \"Transfer to seller failed\");\r\n            emit AuctionFinalized(_nftId, auction.highestBidder, auction.highestBid);\r\n        } else {\r\n            require(nftContract.transferNFT(_nftId, auction.seller), \"NFT transfer failed\");\r\n        }\r\n    }\r\n\r\n    function getAuctionInfo(uint256 _nftId) public view returns (Auction memory) {\r\n        Auction memory auction = auctions[_nftId];\r\n        require(auction.seller != address(0), \"Auction does not exist for this NFT\");\r\n        return auction;\r\n    }\r\n}",
  "sourcePath": "C:\\Users\\SSAFY\\Desktop\\semonemo\\backend\\blockchain-server\\smartcontract\\contracts\\Auction.sol",
  "compiler": {
    "name": "solc",
    "version": "0.8.7+commit.e28d00a7.Emscripten.clang"
  },
  "schemaVersion": "3.4.16",
  "updatedAt": "2024-09-14T16:49:14.334Z",
  "devdoc": {
    "kind": "dev",
    "methods": {
      "owner()": {
        "details": "Returns the address of the current owner."
      },
      "renounceOwnership()": {
        "details": "Leaves the contract without owner. It will not be possible to call `onlyOwner` functions anymore. Can only be called by the current owner. NOTE: Renouncing ownership will leave the contract without an owner, thereby removing any functionality that is only available to the owner."
      },
      "transferOwnership(address)": {
        "details": "Transfers ownership of the contract to a new account (`newOwner`). Can only be called by the current owner."
      }
    },
    "version": 1
  },
  "userdoc": {
    "kind": "user",
    "methods": {},
    "version": 1
  }
}