{
  "contractName": "NFTAuction",
  "abi": [
    {
      "anonymous": false,
      "inputs": [
        {
          "indexed": true,
          "internalType": "uint256",
          "name": "nftId",
          "type": "uint256"
        },
        {
          "indexed": true,
          "internalType": "address",
          "name": "seller",
          "type": "address"
        }
      ],
      "name": "AuctionCancelled",
      "type": "event"
    },
    {
      "anonymous": false,
      "inputs": [
        {
          "indexed": true,
          "internalType": "uint256",
          "name": "nftId",
          "type": "uint256"
        },
        {
          "indexed": true,
          "internalType": "address",
          "name": "seller",
          "type": "address"
        },
        {
          "indexed": true,
          "internalType": "address",
          "name": "buyer",
          "type": "address"
        },
        {
          "indexed": false,
          "internalType": "uint256",
          "name": "price",
          "type": "uint256"
        }
      ],
      "name": "AuctionClosed",
      "type": "event"
    },
    {
      "anonymous": false,
      "inputs": [
        {
          "indexed": true,
          "internalType": "uint256",
          "name": "nftId",
          "type": "uint256"
        },
        {
          "indexed": true,
          "internalType": "address",
          "name": "seller",
          "type": "address"
        },
        {
          "indexed": false,
          "internalType": "uint256",
          "name": "price",
          "type": "uint256"
        }
      ],
      "name": "AuctionStarted",
      "type": "event"
    },
    {
      "anonymous": false,
      "inputs": [
        {
          "indexed": true,
          "internalType": "address",
          "name": "from",
          "type": "address"
        },
        {
          "indexed": true,
          "internalType": "address",
          "name": "to",
          "type": "address"
        },
        {
          "indexed": false,
          "internalType": "uint256",
          "name": "amount",
          "type": "uint256"
        }
      ],
      "name": "BalanceAdjusted",
      "type": "event"
    },
    {
      "anonymous": false,
      "inputs": [
        {
          "indexed": true,
          "internalType": "address",
          "name": "from",
          "type": "address"
        },
        {
          "indexed": true,
          "internalType": "address",
          "name": "to",
          "type": "address"
        },
        {
          "indexed": false,
          "internalType": "uint256",
          "name": "amount",
          "type": "uint256"
        }
      ],
      "name": "BalanceTransferred",
      "type": "event"
    },
    {
      "anonymous": false,
      "inputs": [
        {
          "indexed": true,
          "internalType": "address",
          "name": "user",
          "type": "address"
        },
        {
          "indexed": false,
          "internalType": "uint256",
          "name": "amount",
          "type": "uint256"
        }
      ],
      "name": "Deposit",
      "type": "event"
    },
    {
      "anonymous": false,
      "inputs": [
        {
          "indexed": true,
          "internalType": "address",
          "name": "previousOwner",
          "type": "address"
        },
        {
          "indexed": true,
          "internalType": "address",
          "name": "newOwner",
          "type": "address"
        }
      ],
      "name": "OwnershipTransferred",
      "type": "event"
    },
    {
      "anonymous": false,
      "inputs": [
        {
          "indexed": true,
          "internalType": "address",
          "name": "user",
          "type": "address"
        },
        {
          "indexed": false,
          "internalType": "uint256",
          "name": "amount",
          "type": "uint256"
        }
      ],
      "name": "Withdrawal",
      "type": "event"
    },
    {
      "inputs": [
        {
          "internalType": "uint256",
          "name": "",
          "type": "uint256"
        }
      ],
      "name": "auctions",
      "outputs": [
        {
          "internalType": "uint256",
          "name": "nftId",
          "type": "uint256"
        },
        {
          "internalType": "address",
          "name": "seller",
          "type": "address"
        },
        {
          "internalType": "uint256",
          "name": "price",
          "type": "uint256"
        }
      ],
      "stateMutability": "view",
      "type": "function"
    },
    {
      "inputs": [
        {
          "internalType": "uint256",
          "name": "amount",
          "type": "uint256"
        }
      ],
      "name": "deposit",
      "outputs": [],
      "stateMutability": "nonpayable",
      "type": "function"
    },
    {
      "inputs": [],
      "name": "getContractBalance",
      "outputs": [
        {
          "internalType": "uint256",
          "name": "",
          "type": "uint256"
        }
      ],
      "stateMutability": "view",
      "type": "function"
    },
    {
      "inputs": [],
      "name": "getContractOwnedNFTs",
      "outputs": [
        {
          "internalType": "uint256[]",
          "name": "",
          "type": "uint256[]"
        }
      ],
      "stateMutability": "view",
      "type": "function"
    },
    {
      "inputs": [
        {
          "internalType": "address",
          "name": "user",
          "type": "address"
        }
      ],
      "name": "getUserBalance",
      "outputs": [
        {
          "internalType": "uint256",
          "name": "",
          "type": "uint256"
        }
      ],
      "stateMutability": "view",
      "type": "function"
    },
    {
      "inputs": [],
      "name": "nftContract",
      "outputs": [
        {
          "internalType": "contract NFTFrame",
          "name": "",
          "type": "address"
        }
      ],
      "stateMutability": "view",
      "type": "function"
    },
    {
      "inputs": [],
      "name": "owner",
      "outputs": [
        {
          "internalType": "address",
          "name": "",
          "type": "address"
        }
      ],
      "stateMutability": "view",
      "type": "function"
    },
    {
      "inputs": [],
      "name": "renounceOwnership",
      "outputs": [],
      "stateMutability": "nonpayable",
      "type": "function"
    },
    {
      "inputs": [],
      "name": "tokenContract",
      "outputs": [
        {
          "internalType": "contract AhoraCoin",
          "name": "",
          "type": "address"
        }
      ],
      "stateMutability": "view",
      "type": "function"
    },
    {
      "inputs": [
        {
          "internalType": "address",
          "name": "to",
          "type": "address"
        },
        {
          "internalType": "uint256",
          "name": "amount",
          "type": "uint256"
        }
      ],
      "name": "transferBalance",
      "outputs": [],
      "stateMutability": "nonpayable",
      "type": "function"
    },
    {
      "inputs": [
        {
          "internalType": "address",
          "name": "newOwner",
          "type": "address"
        }
      ],
      "name": "transferOwnership",
      "outputs": [],
      "stateMutability": "nonpayable",
      "type": "function"
    },
    {
      "inputs": [
        {
          "internalType": "uint256",
          "name": "amount",
          "type": "uint256"
        }
      ],
      "name": "withdraw",
      "outputs": [],
      "stateMutability": "nonpayable",
      "type": "function"
    },
    {
      "inputs": [
        {
          "internalType": "uint256",
          "name": "_nftId",
          "type": "uint256"
        },
        {
          "internalType": "uint256",
          "name": "price",
          "type": "uint256"
        }
      ],
      "name": "startAuction",
      "outputs": [],
      "stateMutability": "nonpayable",
      "type": "function"
    },
    {
      "inputs": [
        {
          "internalType": "uint256",
          "name": "_nftId",
          "type": "uint256"
        }
      ],
      "name": "cancelAuction",
      "outputs": [],
      "stateMutability": "nonpayable",
      "type": "function"
    },
    {
      "inputs": [
        {
          "internalType": "uint256",
          "name": "_nftId",
          "type": "uint256"
        },
        {
          "internalType": "address",
          "name": "buyer",
          "type": "address"
        }
      ],
      "name": "closeAuction",
      "outputs": [],
      "stateMutability": "nonpayable",
      "type": "function"
    },
    {
      "inputs": [
        {
          "internalType": "uint256",
          "name": "_nftId",
          "type": "uint256"
        }
      ],
      "name": "getAuctionInfo",
      "outputs": [
        {
          "components": [
            {
              "internalType": "uint256",
              "name": "nftId",
              "type": "uint256"
            },
            {
              "internalType": "address",
              "name": "seller",
              "type": "address"
            },
            {
              "internalType": "uint256",
              "name": "price",
              "type": "uint256"
            }
          ],
          "internalType": "struct NFTAuction.Auction",
          "name": "",
          "type": "tuple"
        }
      ],
      "stateMutability": "view",
      "type": "function"
    }
  ],
  "bytecode": "0x60806040523480156200001157600080fd5b5062000032620000266200003f60201b60201c565b6200004760201b60201c565b600180819055506200010b565b600033905090565b60008060009054906101000a900473ffffffffffffffffffffffffffffffffffffffff169050816000806101000a81548173ffffffffffffffffffffffffffffffffffffffff021916908373ffffffffffffffffffffffffffffffffffffffff1602179055508173ffffffffffffffffffffffffffffffffffffffff168173ffffffffffffffffffffffffffffffffffffffff167f8be0079c531659141344cd1fd0a4f28419497f9722a3daafe3b4186f6b6457e060405160405180910390a35050565b612e59806200011b6000396000f3fe608060405234801561001057600080fd5b50600436106101005760003560e01c8063715018a611610097578063d3e6fa1911610066578063d3e6fa1914610273578063d56d229d14610291578063f2fde38b146102af578063fc3fc4ed146102cb57610100565b8063715018a6146102135780638da5cb5b1461021d57806396b5a7551461023b578063b6b55f251461025757610100565b806356a6d9ef116100d357806356a6d9ef1461018b578063571a26a0146101a75780636bab66ae146101d95780636f9fb98a146101f557610100565b80632e1a7d4d1461010557806347734892146101215780634fee13fc1461015157806355a373d61461016d575b600080fd5b61011f600480360381019061011a9190611fff565b6102fb565b005b61013b60048036038101906101369190611eef565b6105aa565b604051610148919061274c565b60405180910390f35b61016b60048036038101906101669190612099565b6105f3565b005b610175610929565b60405161018291906124db565b60405180910390f35b6101a560048036038101906101a09190611f49565b61094f565b005b6101c160048036038101906101bc9190611fff565b610c5d565b6040516101d0939291906127c7565b60405180910390f35b6101f360048036038101906101ee9190612059565b610ca7565b005b6101fd6110e6565b60405161020a919061274c565b60405180910390f35b61021b611198565b005b610225611220565b604051610232919061243e565b60405180910390f35b61025560048036038101906102509190611fff565b611249565b005b610271600480360381019061026c9190611fff565b611638565b005b61027b611867565b60405161028891906124b9565b60405180910390f35b61029961191e565b6040516102a691906124f6565b60405180910390f35b6102c960048036038101906102c49190611eef565b611944565b005b6102e560048036038101906102e09190611fff565b611a3c565b6040516102f29190612731565b60405180910390f35b60026001541415610341576040517f08c379a0000000000000000000000000000000000000000000000000000000008152600401610338906126f1565b60405180910390fd5b60026001819055506000811161038c576040517f08c379a000000000000000000000000000000000000000000000000000000000815260040161038390612651565b60405180910390fd5b80600460003373ffffffffffffffffffffffffffffffffffffffff1673ffffffffffffffffffffffffffffffffffffffff16815260200190815260200160002054101561040e576040517f08c379a0000000000000000000000000000000000000000000000000000000008152600401610405906125b1565b60405180910390fd5b80600460003373ffffffffffffffffffffffffffffffffffffffff1673ffffffffffffffffffffffffffffffffffffffff168152602001908152602001600020600082825461045d91906128ef565b92505081905550600360009054906101000a900473ffffffffffffffffffffffffffffffffffffffff1673ffffffffffffffffffffffffffffffffffffffff16631b33a8db33836040518363ffffffff1660e01b81526004016104c1929190612490565b602060405180830381600087803b1580156104db57600080fd5b505af11580156104ef573d6000803e3d6000fd5b505050506040513d601f19601f820116820180604052508101906105139190611fd2565b610552576040517f08c379a000000000000000000000000000000000000000000000000000000000815260040161054990612591565b60405180910390fd5b3373ffffffffffffffffffffffffffffffffffffffff167f7fcf532c15f0a6db0bd6d0e038bea71d30d808c7d98cb3bf7268a95bf5081b6582604051610598919061274c565b60405180910390a26001808190555050565b6000600460008373ffffffffffffffffffffffffffffffffffffffff1673ffffffffffffffffffffffffffffffffffffffff168152602001908152602001600020549050919050565b60026001541415610639576040517f08c379a0000000000000000000000000000000000000000000000000000000008152600401610630906126f1565b60405180910390fd5b60026001819055503373ffffffffffffffffffffffffffffffffffffffff16600260009054906101000a900473ffffffffffffffffffffffffffffffffffffffff1673ffffffffffffffffffffffffffffffffffffffff16636352211e846040518263ffffffff1660e01b81526004016106b3919061274c565b60206040518083038186803b1580156106cb57600080fd5b505afa1580156106df573d6000803e3d6000fd5b505050506040513d601f19601f820116820180604052508101906107039190611f1c565b73ffffffffffffffffffffffffffffffffffffffff1614610759576040517f08c379a0000000000000000000000000000000000000000000000000000000008152600401610750906125d1565b60405180910390fd5b6000811161079c576040517f08c379a000000000000000000000000000000000000000000000000000000000815260040161079390612551565b60405180910390fd5b600260009054906101000a900473ffffffffffffffffffffffffffffffffffffffff1673ffffffffffffffffffffffffffffffffffffffff16634f89cea68333306040518463ffffffff1660e01b81526004016107fb93929190612790565b600060405180830381600087803b15801561081557600080fd5b505af1158015610829573d6000803e3d6000fd5b5050505060405180606001604052808381526020013373ffffffffffffffffffffffffffffffffffffffff16815260200182815250600560008481526020019081526020016000206000820151816000015560208201518160010160006101000a81548173ffffffffffffffffffffffffffffffffffffffff021916908373ffffffffffffffffffffffffffffffffffffffff160217905550604082015181600201559050503373ffffffffffffffffffffffffffffffffffffffff16827fd7d053b3d3fc9e8145896f8940adeb377f6735866f2161ef1660dae9f049247583604051610916919061274c565b60405180910390a3600180819055505050565b600360009054906101000a900473ffffffffffffffffffffffffffffffffffffffff1681565b60026001541415610995576040517f08c379a000000000000000000000000000000000000000000000000000000000815260040161098c906126f1565b60405180910390fd5b6002600181905550600073ffffffffffffffffffffffffffffffffffffffff168273ffffffffffffffffffffffffffffffffffffffff161415610a0d576040517f08c379a0000000000000000000000000000000000000000000000000000000008152600401610a0490612611565b60405180910390fd5b3373ffffffffffffffffffffffffffffffffffffffff168273ffffffffffffffffffffffffffffffffffffffff161415610a7c576040517f08c379a0000000000000000000000000000000000000000000000000000000008152600401610a7390612691565b60405180910390fd5b60008111610abf576040517f08c379a0000000000000000000000000000000000000000000000000000000008152600401610ab6906126d1565b60405180910390fd5b80600460003373ffffffffffffffffffffffffffffffffffffffff1673ffffffffffffffffffffffffffffffffffffffff168152602001908152602001600020541015610b41576040517f08c379a0000000000000000000000000000000000000000000000000000000008152600401610b38906125b1565b60405180910390fd5b80600460003373ffffffffffffffffffffffffffffffffffffffff1673ffffffffffffffffffffffffffffffffffffffff1681526020019081526020016000206000828254610b9091906128ef565b9250508190555080600460008473ffffffffffffffffffffffffffffffffffffffff1673ffffffffffffffffffffffffffffffffffffffff1681526020019081526020016000206000828254610be69190612899565b925050819055508173ffffffffffffffffffffffffffffffffffffffff163373ffffffffffffffffffffffffffffffffffffffff167f4163d0b06696468b3d7903f482bcd0097bd38a9a9086157479fd6c6561d2426183604051610c4a919061274c565b60405180910390a3600180819055505050565b60056020528060005260406000206000915090508060000154908060010160009054906101000a900473ffffffffffffffffffffffffffffffffffffffff16908060020154905083565b60026001541415610ced576040517f08c379a0000000000000000000000000000000000000000000000000000000008152600401610ce4906126f1565b60405180910390fd5b6002600181905550610cfd611b4d565b73ffffffffffffffffffffffffffffffffffffffff16610d1b611220565b73ffffffffffffffffffffffffffffffffffffffff1614610d71576040517f08c379a0000000000000000000000000000000000000000000000000000000008152600401610d6890612631565b60405180910390fd5b6000600560008481526020019081526020016000209050600073ffffffffffffffffffffffffffffffffffffffff168160010160009054906101000a900473ffffffffffffffffffffffffffffffffffffffff1673ffffffffffffffffffffffffffffffffffffffff161415610e1c576040517f08c379a0000000000000000000000000000000000000000000000000000000008152600401610e1390612711565b60405180910390fd5b8060010160009054906101000a900473ffffffffffffffffffffffffffffffffffffffff1673ffffffffffffffffffffffffffffffffffffffff168273ffffffffffffffffffffffffffffffffffffffff161415610eaf576040517f08c379a0000000000000000000000000000000000000000000000000000000008152600401610ea690612671565b60405180910390fd5b60008160020154905060008260010160009054906101000a900473ffffffffffffffffffffffffffffffffffffffff16905081610eeb856105aa565b1015610f2c576040517f08c379a0000000000000000000000000000000000000000000000000000000008152600401610f23906125b1565b60405180910390fd5b610f37848284611b55565b600260009054906101000a900473ffffffffffffffffffffffffffffffffffffffff1673ffffffffffffffffffffffffffffffffffffffff16639036c05086866040518363ffffffff1660e01b8152600401610f94929190612767565b602060405180830381600087803b158015610fae57600080fd5b505af1158015610fc2573d6000803e3d6000fd5b505050506040513d601f19601f82011682018060405250810190610fe69190611fd2565b611025576040517f08c379a000000000000000000000000000000000000000000000000000000000815260040161101c906126b1565b60405180910390fd5b600560008681526020019081526020016000206000808201600090556001820160006101000a81549073ffffffffffffffffffffffffffffffffffffffff0219169055600282016000905550508373ffffffffffffffffffffffffffffffffffffffff168173ffffffffffffffffffffffffffffffffffffffff16867f7787e67b4b8529b1aa2c1a59dbf0f0e766d63860956b86f33f5d870088235501856040516110d0919061274c565b60405180910390a4505050600180819055505050565b6000600360009054906101000a900473ffffffffffffffffffffffffffffffffffffffff1673ffffffffffffffffffffffffffffffffffffffff166370a08231306040518263ffffffff1660e01b8152600401611143919061243e565b60206040518083038186803b15801561115b57600080fd5b505afa15801561116f573d6000803e3d6000fd5b505050506040513d601f19601f82011682018060405250810190611193919061202c565b905090565b6111a0611b4d565b73ffffffffffffffffffffffffffffffffffffffff166111be611220565b73ffffffffffffffffffffffffffffffffffffffff1614611214576040517f08c379a000000000000000000000000000000000000000000000000000000000815260040161120b90612631565b60405180910390fd5b61121e6000611ced565b565b60008060009054906101000a900473ffffffffffffffffffffffffffffffffffffffff16905090565b6002600154141561128f576040517f08c379a0000000000000000000000000000000000000000000000000000000008152600401611286906126f1565b60405180910390fd5b600260018190555060006005600083815260200190815260200160002090503073ffffffffffffffffffffffffffffffffffffffff16600260009054906101000a900473ffffffffffffffffffffffffffffffffffffffff1673ffffffffffffffffffffffffffffffffffffffff16636352211e846040518263ffffffff1660e01b8152600401611320919061274c565b60206040518083038186803b15801561133857600080fd5b505afa15801561134c573d6000803e3d6000fd5b505050506040513d601f19601f820116820180604052508101906113709190611f1c565b73ffffffffffffffffffffffffffffffffffffffff16146113c6576040517f08c379a00000000000000000000000000000000000000000000000000000000081526004016113bd906125f1565b60405180910390fd5b3373ffffffffffffffffffffffffffffffffffffffff168160010160009054906101000a900473ffffffffffffffffffffffffffffffffffffffff1673ffffffffffffffffffffffffffffffffffffffff1614611458576040517f08c379a000000000000000000000000000000000000000000000000000000000815260040161144f906125d1565b60405180910390fd5b600073ffffffffffffffffffffffffffffffffffffffff168160010160009054906101000a900473ffffffffffffffffffffffffffffffffffffffff1673ffffffffffffffffffffffffffffffffffffffff1614156114ec576040517f08c379a00000000000000000000000000000000000000000000000000000000081526004016114e390612711565b60405180910390fd5b600260009054906101000a900473ffffffffffffffffffffffffffffffffffffffff1673ffffffffffffffffffffffffffffffffffffffff16639036c05083336040518363ffffffff1660e01b8152600401611549929190612767565b602060405180830381600087803b15801561156357600080fd5b505af1158015611577573d6000803e3d6000fd5b505050506040513d601f19601f8201168201806040525081019061159b9190611fd2565b50600560008381526020019081526020016000206000808201600090556001820160006101000a81549073ffffffffffffffffffffffffffffffffffffffff0219169055600282016000905550503373ffffffffffffffffffffffffffffffffffffffff16827f10ac9f0bb365b5d22d7bec500408692f23fdf83eadfec71615ef88b4c1134f0e60405160405180910390a3506001808190555050565b6002600154141561167e576040517f08c379a0000000000000000000000000000000000000000000000000000000008152600401611675906126f1565b60405180910390fd5b6002600181905550600081116116c9576040517f08c379a00000000000000000000000000000000000000000000000000000000081526004016116c090612531565b60405180910390fd5b600360009054906101000a900473ffffffffffffffffffffffffffffffffffffffff1673ffffffffffffffffffffffffffffffffffffffff1663f67ac38c3330846040518463ffffffff1660e01b815260040161172893929190612459565b602060405180830381600087803b15801561174257600080fd5b505af1158015611756573d6000803e3d6000fd5b505050506040513d601f19601f8201168201806040525081019061177a9190611fd2565b6117b9576040517f08c379a00000000000000000000000000000000000000000000000000000000081526004016117b090612591565b60405180910390fd5b80600460003373ffffffffffffffffffffffffffffffffffffffff1673ffffffffffffffffffffffffffffffffffffffff16815260200190815260200160002060008282546118089190612899565b925050819055503373ffffffffffffffffffffffffffffffffffffffff167fe1fffcc4923d04b559f4d29a8bfc6cda04eb5b0d3c460751c2402c5c5cc9109c82604051611855919061274c565b60405180910390a26001808190555050565b6060600260009054906101000a900473ffffffffffffffffffffffffffffffffffffffff1673ffffffffffffffffffffffffffffffffffffffff1663e6b1fa2a306040518263ffffffff1660e01b81526004016118c4919061243e565b60006040518083038186803b1580156118dc57600080fd5b505afa1580156118f0573d6000803e3d6000fd5b505050506040513d6000823e3d601f19601f820116820180604052508101906119199190611f89565b905090565b600260009054906101000a900473ffffffffffffffffffffffffffffffffffffffff1681565b61194c611b4d565b73ffffffffffffffffffffffffffffffffffffffff1661196a611220565b73ffffffffffffffffffffffffffffffffffffffff16146119c0576040517f08c379a00000000000000000000000000000000000000000000000000000000081526004016119b790612631565b60405180910390fd5b600073ffffffffffffffffffffffffffffffffffffffff168173ffffffffffffffffffffffffffffffffffffffff161415611a30576040517f08c379a0000000000000000000000000000000000000000000000000000000008152600401611a2790612571565b60405180910390fd5b611a3981611ced565b50565b611a44611db1565b600060056000848152602001908152602001600020604051806060016040529081600082015481526020016001820160009054906101000a900473ffffffffffffffffffffffffffffffffffffffff1673ffffffffffffffffffffffffffffffffffffffff1673ffffffffffffffffffffffffffffffffffffffff1681526020016002820154815250509050600073ffffffffffffffffffffffffffffffffffffffff16816020015173ffffffffffffffffffffffffffffffffffffffff161415611b44576040517f08c379a0000000000000000000000000000000000000000000000000000000008152600401611b3b90612511565b60405180910390fd5b80915050919050565b600033905090565b80600460008573ffffffffffffffffffffffffffffffffffffffff1673ffffffffffffffffffffffffffffffffffffffff168152602001908152602001600020541015611bd7576040517f08c379a0000000000000000000000000000000000000000000000000000000008152600401611bce906125b1565b60405180910390fd5b80600460008573ffffffffffffffffffffffffffffffffffffffff1673ffffffffffffffffffffffffffffffffffffffff1681526020019081526020016000206000828254611c2691906128ef565b9250508190555080600460008473ffffffffffffffffffffffffffffffffffffffff1673ffffffffffffffffffffffffffffffffffffffff1681526020019081526020016000206000828254611c7c9190612899565b925050819055508173ffffffffffffffffffffffffffffffffffffffff168373ffffffffffffffffffffffffffffffffffffffff167f69d14b96c06609a8976851e9503b0a6b1c60b96a8ba6e5a1a313e8a290138e1583604051611ce0919061274c565b60405180910390a3505050565b60008060009054906101000a900473ffffffffffffffffffffffffffffffffffffffff169050816000806101000a81548173ffffffffffffffffffffffffffffffffffffffff021916908373ffffffffffffffffffffffffffffffffffffffff1602179055508173ffffffffffffffffffffffffffffffffffffffff168173ffffffffffffffffffffffffffffffffffffffff167f8be0079c531659141344cd1fd0a4f28419497f9722a3daafe3b4186f6b6457e060405160405180910390a35050565b604051806060016040528060008152602001600073ffffffffffffffffffffffffffffffffffffffff168152602001600081525090565b6000611dfb611df684612823565b6127fe565b90508083825260208201905082856020860282011115611e1e57611e1d612a47565b5b60005b85811015611e4e5781611e348882611eda565b845260208401935060208301925050600181019050611e21565b5050509392505050565b600081359050611e6781612dde565b92915050565b600081519050611e7c81612dde565b92915050565b600082601f830112611e9757611e96612a42565b5b8151611ea7848260208601611de8565b91505092915050565b600081519050611ebf81612df5565b92915050565b600081359050611ed481612e0c565b92915050565b600081519050611ee981612e0c565b92915050565b600060208284031215611f0557611f04612a51565b5b6000611f1384828501611e58565b91505092915050565b600060208284031215611f3257611f31612a51565b5b6000611f4084828501611e6d565b91505092915050565b60008060408385031215611f6057611f5f612a51565b5b6000611f6e85828601611e58565b9250506020611f7f85828601611ec5565b9150509250929050565b600060208284031215611f9f57611f9e612a51565b5b600082015167ffffffffffffffff811115611fbd57611fbc612a4c565b5b611fc984828501611e82565b91505092915050565b600060208284031215611fe857611fe7612a51565b5b6000611ff684828501611eb0565b91505092915050565b60006020828403121561201557612014612a51565b5b600061202384828501611ec5565b91505092915050565b60006020828403121561204257612041612a51565b5b600061205084828501611eda565b91505092915050565b600080604083850312156120705761206f612a51565b5b600061207e85828601611ec5565b925050602061208f85828601611e58565b9150509250929050565b600080604083850312156120b0576120af612a51565b5b60006120be85828601611ec5565b92505060206120cf85828601611ec5565b9150509250929050565b60006120e58383612420565b60208301905092915050565b6120fa81612923565b82525050565b61210981612923565b82525050565b600061211a8261285f565b6121248185612877565b935061212f8361284f565b8060005b8381101561216057815161214788826120d9565b97506121528361286a565b925050600181019050612133565b5085935050505092915050565b6121768161296b565b82525050565b6121858161297d565b82525050565b6000612198602383612888565b91506121a382612a67565b604082019050919050565b60006121bb602583612888565b91506121c682612ab6565b604082019050919050565b60006121de601f83612888565b91506121e982612b05565b602082019050919050565b6000612201602683612888565b915061220c82612b2e565b604082019050919050565b6000612224600f83612888565b915061222f82612b7d565b602082019050919050565b6000612247601483612888565b915061225282612ba6565b602082019050919050565b600061226a601683612888565b915061227582612bcf565b602082019050919050565b600061228d601283612888565b915061229882612bf8565b602082019050919050565b60006122b0601983612888565b91506122bb82612c21565b602082019050919050565b60006122d3602083612888565b91506122de82612c4a565b602082019050919050565b60006122f6602883612888565b915061230182612c73565b604082019050919050565b6000612319601a83612888565b915061232482612cc2565b602082019050919050565b600061233c601b83612888565b915061234782612ceb565b602082019050919050565b600061235f601383612888565b915061236a82612d14565b602082019050919050565b6000612382602683612888565b915061238d82612d3d565b604082019050919050565b60006123a5601f83612888565b91506123b082612d8c565b602082019050919050565b60006123c8601b83612888565b91506123d382612db5565b602082019050919050565b6060820160008201516123f46000850182612420565b50602082015161240760208501826120f1565b50604082015161241a6040850182612420565b50505050565b61242981612961565b82525050565b61243881612961565b82525050565b60006020820190506124536000830184612100565b92915050565b600060608201905061246e6000830186612100565b61247b6020830185612100565b612488604083018461242f565b949350505050565b60006040820190506124a56000830185612100565b6124b2602083018461242f565b9392505050565b600060208201905081810360008301526124d3818461210f565b905092915050565b60006020820190506124f0600083018461216d565b92915050565b600060208201905061250b600083018461217c565b92915050565b6000602082019050818103600083015261252a8161218b565b9050919050565b6000602082019050818103600083015261254a816121ae565b9050919050565b6000602082019050818103600083015261256a816121d1565b9050919050565b6000602082019050818103600083015261258a816121f4565b9050919050565b600060208201905081810360008301526125aa81612217565b9050919050565b600060208201905081810360008301526125ca8161223a565b9050919050565b600060208201905081810360008301526125ea8161225d565b9050919050565b6000602082019050818103600083015261260a81612280565b9050919050565b6000602082019050818103600083015261262a816122a3565b9050919050565b6000602082019050818103600083015261264a816122c6565b9050919050565b6000602082019050818103600083015261266a816122e9565b9050919050565b6000602082019050818103600083015261268a8161230c565b9050919050565b600060208201905081810360008301526126aa8161232f565b9050919050565b600060208201905081810360008301526126ca81612352565b9050919050565b600060208201905081810360008301526126ea81612375565b9050919050565b6000602082019050818103600083015261270a81612398565b9050919050565b6000602082019050818103600083015261272a816123bb565b9050919050565b600060608201905061274660008301846123de565b92915050565b6000602082019050612761600083018461242f565b92915050565b600060408201905061277c600083018561242f565b6127896020830184612100565b9392505050565b60006060820190506127a5600083018661242f565b6127b26020830185612100565b6127bf6040830184612100565b949350505050565b60006060820190506127dc600083018661242f565b6127e96020830185612100565b6127f6604083018461242f565b949350505050565b6000612808612819565b905061281482826129b3565b919050565b6000604051905090565b600067ffffffffffffffff82111561283e5761283d612a13565b5b602082029050602081019050919050565b6000819050602082019050919050565b600081519050919050565b6000602082019050919050565b600082825260208201905092915050565b600082825260208201905092915050565b60006128a482612961565b91506128af83612961565b9250827fffffffffffffffffffffffffffffffffffffffffffffffffffffffffffffffff038211156128e4576128e36129e4565b5b828201905092915050565b60006128fa82612961565b915061290583612961565b925082821015612918576129176129e4565b5b828203905092915050565b600061292e82612941565b9050919050565b60008115159050919050565b600073ffffffffffffffffffffffffffffffffffffffff82169050919050565b6000819050919050565b60006129768261298f565b9050919050565b60006129888261298f565b9050919050565b600061299a826129a1565b9050919050565b60006129ac82612941565b9050919050565b6129bc82612a56565b810181811067ffffffffffffffff821117156129db576129da612a13565b5b80604052505050565b7f4e487b7100000000000000000000000000000000000000000000000000000000600052601160045260246000fd5b7f4e487b7100000000000000000000000000000000000000000000000000000000600052604160045260246000fd5b600080fd5b600080fd5b600080fd5b600080fd5b6000601f19601f8301169050919050565b7f41756374696f6e20646f6573206e6f7420657869737420666f7220746869732060008201527f4e46540000000000000000000000000000000000000000000000000000000000602082015250565b7f4465706f73697420616d6f756e74206d7573742062652067726561746572207460008201527f68616e2030000000000000000000000000000000000000000000000000000000602082015250565b7f5072696365206d7573742062652067726561746572207468616e207a65726f00600082015250565b7f4f776e61626c653a206e6577206f776e657220697320746865207a65726f206160008201527f6464726573730000000000000000000000000000000000000000000000000000602082015250565b7f5472616e73666572206661696c65640000000000000000000000000000000000600082015250565b7f496e73756666696369656e742062616c616e6365000000000000000000000000600082015250565b7f596f7520646f6e2774206f776e2074686973204e465400000000000000000000600082015250565b7f4e4654206e6f7420696e2041756374696f6e0000000000000000000000000000600082015250565b7f496e76616c696420726563697069656e74206164647265737300000000000000600082015250565b7f4f776e61626c653a2063616c6c6572206973206e6f7420746865206f776e6572600082015250565b7f5769746864726177616c20616d6f756e74206d7573742062652067726561746560008201527f72207468616e2030000000000000000000000000000000000000000000000000602082015250565b7f53656c6c65722063616e6e6f7420626520746865206275796572000000000000600082015250565b7f43616e6e6f74207472616e7366657220746f20796f757273656c660000000000600082015250565b7f4e4654207472616e73666572206661696c656400000000000000000000000000600082015250565b7f5472616e7366657220616d6f756e74206d75737420626520677265617465722060008201527f7468616e20300000000000000000000000000000000000000000000000000000602082015250565b7f5265656e7472616e637947756172643a207265656e7472616e742063616c6c00600082015250565b7f546869732061756374696f6e20646f6573206e6f742065786973740000000000600082015250565b612de781612923565b8114612df257600080fd5b50565b612dfe81612935565b8114612e0957600080fd5b50565b612e1581612961565b8114612e2057600080fd5b5056fea264697066735822122029510686d696b042a7fa823564680c4ec1c2ad4188207b29cf956f087268632264736f6c63430008070033",
  "immutableReferences": {},
  "source": "// SPDX-License-Identifier: MIT\r\npragma solidity ^0.8.7;\r\n\r\nimport \"./TradeBase.sol\";\r\n\r\ncontract NFTAuction is TradeBase {\r\n    struct Auction {\r\n        uint256 nftId;\r\n        address seller;\r\n        uint256 price;\r\n    }\r\n\r\n    mapping(uint256 => Auction) public auctions;\r\n\r\n    event AuctionStarted(uint256 indexed nftId, address indexed seller, uint256 price);\r\n    event AuctionCancelled(uint256 indexed nftId, address indexed seller);\r\n    event AuctionClosed(uint256 indexed nftId, address indexed seller, address indexed buyer, uint256 price);\r\n\r\n    //   \r\n    function startAuction(uint256 _nftId, uint256 price) external nonReentrant {\r\n        require(nftContract.ownerOf(_nftId) == msg.sender, \"You don't own this NFT\");\r\n        require(price > 0, \"Price must be greater than zero\");\r\n        \r\n        nftContract.transferNFTUserToSystem(_nftId, msg.sender, address(this));\r\n\r\n        auctions[_nftId] = Auction({\r\n            nftId: _nftId,\r\n            seller: msg.sender,\r\n            price: price\r\n        });\r\n\r\n        emit AuctionStarted(_nftId, msg.sender, price);\r\n    }\r\n\r\n    //    \r\n    function cancelAuction(uint256 _nftId) external nonReentrant {\r\n        Auction storage auction = auctions[_nftId];\r\n        require(nftContract.ownerOf(_nftId) == address(this), \"NFT not in Auction\");\r\n        require(auction.seller == msg.sender, \"You don't own this NFT\");\r\n        require(auction.seller != address(0), \"This auction does not exist\");\r\n        \r\n        nftContract.transferNFT(_nftId, msg.sender);\r\n\r\n        delete auctions[_nftId];\r\n\r\n        emit AuctionCancelled(_nftId, msg.sender);\r\n    }\r\n\r\n    //    ( )\r\n    function closeAuction(uint256 _nftId, address buyer) external nonReentrant onlyOwner {\r\n        Auction storage auction = auctions[_nftId];\r\n        require(auction.seller != address(0), \"This auction does not exist\");\r\n        require(buyer != auction.seller, \"Seller cannot be the buyer\");\r\n\r\n        uint256 price = auction.price;\r\n        address seller = auction.seller;\r\n\r\n        require(getUserBalance(buyer) >= price, \"Insufficient balance\");\r\n\r\n        _adjustBalances(buyer, seller, price);\r\n\r\n        require(nftContract.transferNFT(_nftId, buyer), \"NFT transfer failed\");\r\n\r\n        delete auctions[_nftId];\r\n\r\n        emit AuctionClosed(_nftId, seller, buyer, price);\r\n    }\r\n\r\n    function getAuctionInfo(uint256 _nftId) public view returns (Auction memory) {\r\n        Auction memory auction = auctions[_nftId];\r\n        require(auction.seller != address(0), \"Auction does not exist for this NFT\");\r\n        return auction;\r\n    }\r\n}",
  "sourcePath": "C:\\Users\\SSAFY\\Desktop\\semonemo\\backend\\blockchain-server\\smartcontract\\contracts\\NFTAuction.sol",
  "compiler": {
    "name": "solc",
    "version": "0.8.7+commit.e28d00a7.Emscripten.clang"
  },
  "schemaVersion": "3.4.16",
  "updatedAt": "2024-09-27T00:57:20.636Z",
  "devdoc": {
    "kind": "dev",
    "methods": {
      "owner()": {
        "details": "Returns the address of the current owner."
      },
      "renounceOwnership()": {
        "details": "Leaves the contract without owner. It will not be possible to call `onlyOwner` functions anymore. Can only be called by the current owner. NOTE: Renouncing ownership will leave the contract without an owner, thereby removing any functionality that is only available to the owner."
      },
      "transferOwnership(address)": {
        "details": "Transfers ownership of the contract to a new account (`newOwner`). Can only be called by the current owner."
      }
    },
    "version": 1
  },
  "userdoc": {
    "kind": "user",
    "methods": {},
    "version": 1
  }
}