{
  "contractName": "NFTBase",
  "abi": [
    {
      "anonymous": false,
      "inputs": [
        {
          "indexed": true,
          "internalType": "address",
          "name": "previousOwner",
          "type": "address"
        },
        {
          "indexed": true,
          "internalType": "address",
          "name": "newOwner",
          "type": "address"
        }
      ],
      "name": "OwnershipTransferred",
      "type": "event"
    },
    {
      "inputs": [],
      "name": "nftContract",
      "outputs": [
        {
          "internalType": "contract NFTFrame",
          "name": "",
          "type": "address"
        }
      ],
      "stateMutability": "view",
      "type": "function"
    },
    {
      "inputs": [],
      "name": "owner",
      "outputs": [
        {
          "internalType": "address",
          "name": "",
          "type": "address"
        }
      ],
      "stateMutability": "view",
      "type": "function"
    },
    {
      "inputs": [],
      "name": "renounceOwnership",
      "outputs": [],
      "stateMutability": "nonpayable",
      "type": "function"
    },
    {
      "inputs": [],
      "name": "tokenContract",
      "outputs": [
        {
          "internalType": "contract AhoraCoin",
          "name": "",
          "type": "address"
        }
      ],
      "stateMutability": "view",
      "type": "function"
    },
    {
      "inputs": [
        {
          "internalType": "address",
          "name": "newOwner",
          "type": "address"
        }
      ],
      "name": "transferOwnership",
      "outputs": [],
      "stateMutability": "nonpayable",
      "type": "function"
    },
    {
      "inputs": [],
      "name": "getContractOwnedNFTs",
      "outputs": [
        {
          "internalType": "uint256[]",
          "name": "",
          "type": "uint256[]"
        }
      ],
      "stateMutability": "view",
      "type": "function"
    },
    {
      "inputs": [],
      "name": "getContractBalance",
      "outputs": [
        {
          "internalType": "uint256",
          "name": "",
          "type": "uint256"
        }
      ],
      "stateMutability": "view",
      "type": "function"
    }
  ],
  "bytecode": "0x608060405234801561001057600080fd5b5061002d61002261003960201b60201c565b61004160201b60201c565b60018081905550610105565b600033905090565b60008060009054906101000a900473ffffffffffffffffffffffffffffffffffffffff169050816000806101000a81548173ffffffffffffffffffffffffffffffffffffffff021916908373ffffffffffffffffffffffffffffffffffffffff1602179055508173ffffffffffffffffffffffffffffffffffffffff168173ffffffffffffffffffffffffffffffffffffffff167f8be0079c531659141344cd1fd0a4f28419497f9722a3daafe3b4186f6b6457e060405160405180910390a35050565b610b28806101146000396000f3fe608060405234801561001057600080fd5b506004361061007d5760003560e01c80638da5cb5b1161005b5780638da5cb5b146100c8578063d3e6fa19146100e6578063d56d229d14610104578063f2fde38b146101225761007d565b806355a373d6146100825780636f9fb98a146100a0578063715018a6146100be575b600080fd5b61008a61013e565b6040516100979190610817565b60405180910390f35b6100a8610164565b6040516100b5919061088d565b60405180910390f35b6100c6610216565b005b6100d061029e565b6040516100dd91906107da565b60405180910390f35b6100ee6102c7565b6040516100fb91906107f5565b60405180910390f35b61010c61037e565b6040516101199190610832565b60405180910390f35b61013c60048036038101906101379190610630565b6103a4565b005b600360009054906101000a900473ffffffffffffffffffffffffffffffffffffffff1681565b6000600360009054906101000a900473ffffffffffffffffffffffffffffffffffffffff1673ffffffffffffffffffffffffffffffffffffffff166370a08231306040518263ffffffff1660e01b81526004016101c191906107da565b60206040518083038186803b1580156101d957600080fd5b505afa1580156101ed573d6000803e3d6000fd5b505050506040513d601f19601f8201168201806040525081019061021191906106a6565b905090565b61021e61049c565b73ffffffffffffffffffffffffffffffffffffffff1661023c61029e565b73ffffffffffffffffffffffffffffffffffffffff1614610292576040517f08c379a00000000000000000000000000000000000000000000000000000000081526004016102899061086d565b60405180910390fd5b61029c60006104a4565b565b60008060009054906101000a900473ffffffffffffffffffffffffffffffffffffffff16905090565b6060600260009054906101000a900473ffffffffffffffffffffffffffffffffffffffff1673ffffffffffffffffffffffffffffffffffffffff1663e6b1fa2a306040518263ffffffff1660e01b815260040161032491906107da565b60006040518083038186803b15801561033c57600080fd5b505afa158015610350573d6000803e3d6000fd5b505050506040513d6000823e3d601f19601f82011682018060405250810190610379919061065d565b905090565b600260009054906101000a900473ffffffffffffffffffffffffffffffffffffffff1681565b6103ac61049c565b73ffffffffffffffffffffffffffffffffffffffff166103ca61029e565b73ffffffffffffffffffffffffffffffffffffffff1614610420576040517f08c379a00000000000000000000000000000000000000000000000000000000081526004016104179061086d565b60405180910390fd5b600073ffffffffffffffffffffffffffffffffffffffff168173ffffffffffffffffffffffffffffffffffffffff161415610490576040517f08c379a00000000000000000000000000000000000000000000000000000000081526004016104879061084d565b60405180910390fd5b610499816104a4565b50565b600033905090565b60008060009054906101000a900473ffffffffffffffffffffffffffffffffffffffff169050816000806101000a81548173ffffffffffffffffffffffffffffffffffffffff021916908373ffffffffffffffffffffffffffffffffffffffff1602179055508173ffffffffffffffffffffffffffffffffffffffff168173ffffffffffffffffffffffffffffffffffffffff167f8be0079c531659141344cd1fd0a4f28419497f9722a3daafe3b4186f6b6457e060405160405180910390a35050565b600061057b610576846108cd565b6108a8565b9050808382526020820190508285602086028201111561059e5761059d610a2c565b5b60005b858110156105ce57816105b4888261061b565b8452602084019350602083019250506001810190506105a1565b5050509392505050565b6000813590506105e781610ac4565b92915050565b600082601f83011261060257610601610a27565b5b8151610612848260208601610568565b91505092915050565b60008151905061062a81610adb565b92915050565b60006020828403121561064657610645610a36565b5b6000610654848285016105d8565b91505092915050565b60006020828403121561067357610672610a36565b5b600082015167ffffffffffffffff81111561069157610690610a31565b5b61069d848285016105ed565b91505092915050565b6000602082840312156106bc576106bb610a36565b5b60006106ca8482850161061b565b91505092915050565b60006106df83836107bc565b60208301905092915050565b6106f481610943565b82525050565b600061070582610909565b61070f8185610921565b935061071a836108f9565b8060005b8381101561074b57815161073288826106d3565b975061073d83610914565b92505060018101905061071e565b5085935050505092915050565b6107618161097f565b82525050565b61077081610991565b82525050565b6000610783602683610932565b915061078e82610a4c565b604082019050919050565b60006107a6602083610932565b91506107b182610a9b565b602082019050919050565b6107c581610975565b82525050565b6107d481610975565b82525050565b60006020820190506107ef60008301846106eb565b92915050565b6000602082019050818103600083015261080f81846106fa565b905092915050565b600060208201905061082c6000830184610758565b92915050565b60006020820190506108476000830184610767565b92915050565b6000602082019050818103600083015261086681610776565b9050919050565b6000602082019050818103600083015261088681610799565b9050919050565b60006020820190506108a260008301846107cb565b92915050565b60006108b26108c3565b90506108be82826109c7565b919050565b6000604051905090565b600067ffffffffffffffff8211156108e8576108e76109f8565b5b602082029050602081019050919050565b6000819050602082019050919050565b600081519050919050565b6000602082019050919050565b600082825260208201905092915050565b600082825260208201905092915050565b600061094e82610955565b9050919050565b600073ffffffffffffffffffffffffffffffffffffffff82169050919050565b6000819050919050565b600061098a826109a3565b9050919050565b600061099c826109a3565b9050919050565b60006109ae826109b5565b9050919050565b60006109c082610955565b9050919050565b6109d082610a3b565b810181811067ffffffffffffffff821117156109ef576109ee6109f8565b5b80604052505050565b7f4e487b7100000000000000000000000000000000000000000000000000000000600052604160045260246000fd5b600080fd5b600080fd5b600080fd5b600080fd5b6000601f19601f8301169050919050565b7f4f776e61626c653a206e6577206f776e657220697320746865207a65726f206160008201527f6464726573730000000000000000000000000000000000000000000000000000602082015250565b7f4f776e61626c653a2063616c6c6572206973206e6f7420746865206f776e6572600082015250565b610acd81610943565b8114610ad857600080fd5b50565b610ae481610975565b8114610aef57600080fd5b5056fea2646970667358221220352b8cc7b4e3627ac6a52617577419229c7837d3060b7d1304105376af73e30064736f6c63430008070033",
  "immutableReferences": {},
  "source": "// SPDX-License-Identifier: MIT\r\npragma solidity ^0.8.7;\r\n\r\nimport \"./NFT.sol\";\r\nimport \"./Coin.sol\";\r\nimport \"@openzeppelin/contracts/access/Ownable.sol\";\r\nimport \"@openzeppelin/contracts/security/ReentrancyGuard.sol\";\r\n\r\n// Base contract with common functionality\r\ncontract NFTBase is Ownable, ReentrancyGuard {\r\n    NFTFrame public nftContract;\r\n    AhoraCoin public tokenContract;\r\n\r\n    function initializeContracts(address _nftContractAddress, address _tokenContractAddress) internal {\r\n        require(address(nftContract) == address(0) && address(tokenContract) == address(0), \"Contracts already initialized\");\r\n        nftContract = NFTFrame(_nftContractAddress);\r\n        tokenContract = AhoraCoin(_tokenContractAddress);\r\n    }\r\n\r\n    function getContractOwnedNFTs() public view returns (uint256[] memory) {\r\n        return nftContract.getUserNFTIds(address(this));\r\n    }\r\n\r\n    function getContractBalance() public view returns (uint256) {\r\n        return tokenContract.balanceOf(address(this));\r\n    }\r\n}",
  "sourcePath": "C:\\Users\\SSAFY\\Desktop\\semonemo\\backend\\blockchain-server\\smartcontract\\contracts\\Base.sol",
  "compiler": {
    "name": "solc",
    "version": "0.8.7+commit.e28d00a7.Emscripten.clang"
  },
  "schemaVersion": "3.4.16",
  "updatedAt": "2024-09-14T16:49:14.337Z",
  "devdoc": {
    "kind": "dev",
    "methods": {
      "owner()": {
        "details": "Returns the address of the current owner."
      },
      "renounceOwnership()": {
        "details": "Leaves the contract without owner. It will not be possible to call `onlyOwner` functions anymore. Can only be called by the current owner. NOTE: Renouncing ownership will leave the contract without an owner, thereby removing any functionality that is only available to the owner."
      },
      "transferOwnership(address)": {
        "details": "Transfers ownership of the contract to a new account (`newOwner`). Can only be called by the current owner."
      }
    },
    "version": 1
  },
  "userdoc": {
    "kind": "user",
    "methods": {},
    "version": 1
  }
}