{
  "contractName": "NFTFrame",
  "abi": [
    {
      "inputs": [],
      "stateMutability": "nonpayable",
      "type": "constructor"
    },
    {
      "anonymous": false,
      "inputs": [
        {
          "indexed": true,
          "internalType": "address",
          "name": "owner",
          "type": "address"
        },
        {
          "indexed": true,
          "internalType": "address",
          "name": "approved",
          "type": "address"
        },
        {
          "indexed": true,
          "internalType": "uint256",
          "name": "tokenId",
          "type": "uint256"
        }
      ],
      "name": "Approval",
      "type": "event"
    },
    {
      "anonymous": false,
      "inputs": [
        {
          "indexed": true,
          "internalType": "address",
          "name": "owner",
          "type": "address"
        },
        {
          "indexed": true,
          "internalType": "address",
          "name": "operator",
          "type": "address"
        },
        {
          "indexed": false,
          "internalType": "bool",
          "name": "approved",
          "type": "bool"
        }
      ],
      "name": "ApprovalForAll",
      "type": "event"
    },
    {
      "anonymous": false,
      "inputs": [
        {
          "indexed": true,
          "internalType": "uint256",
          "name": "tokenId",
          "type": "uint256"
        }
      ],
      "name": "NFTBurned",
      "type": "event"
    },
    {
      "anonymous": false,
      "inputs": [
        {
          "indexed": true,
          "internalType": "uint256",
          "name": "tokenId",
          "type": "uint256"
        },
        {
          "indexed": true,
          "internalType": "address",
          "name": "creator",
          "type": "address"
        },
        {
          "indexed": false,
          "internalType": "string",
          "name": "tokenURI",
          "type": "string"
        }
      ],
      "name": "NFTMinted",
      "type": "event"
    },
    {
      "anonymous": false,
      "inputs": [
        {
          "indexed": true,
          "internalType": "uint256",
          "name": "tokenId",
          "type": "uint256"
        },
        {
          "indexed": true,
          "internalType": "address",
          "name": "from",
          "type": "address"
        },
        {
          "indexed": true,
          "internalType": "address",
          "name": "to",
          "type": "address"
        }
      ],
      "name": "NFTTransferred",
      "type": "event"
    },
    {
      "anonymous": false,
      "inputs": [
        {
          "indexed": true,
          "internalType": "address",
          "name": "previousOwner",
          "type": "address"
        },
        {
          "indexed": true,
          "internalType": "address",
          "name": "newOwner",
          "type": "address"
        }
      ],
      "name": "OwnershipTransferred",
      "type": "event"
    },
    {
      "anonymous": false,
      "inputs": [
        {
          "indexed": true,
          "internalType": "uint256",
          "name": "tokenId",
          "type": "uint256"
        },
        {
          "indexed": false,
          "internalType": "string",
          "name": "newTokenURI",
          "type": "string"
        }
      ],
      "name": "TokenURIUpdated",
      "type": "event"
    },
    {
      "anonymous": false,
      "inputs": [
        {
          "indexed": true,
          "internalType": "address",
          "name": "from",
          "type": "address"
        },
        {
          "indexed": true,
          "internalType": "address",
          "name": "to",
          "type": "address"
        },
        {
          "indexed": true,
          "internalType": "uint256",
          "name": "tokenId",
          "type": "uint256"
        }
      ],
      "name": "Transfer",
      "type": "event"
    },
    {
      "inputs": [
        {
          "internalType": "address",
          "name": "to",
          "type": "address"
        },
        {
          "internalType": "uint256",
          "name": "tokenId",
          "type": "uint256"
        }
      ],
      "name": "approve",
      "outputs": [],
      "stateMutability": "nonpayable",
      "type": "function"
    },
    {
      "inputs": [
        {
          "internalType": "address",
          "name": "owner",
          "type": "address"
        }
      ],
      "name": "balanceOf",
      "outputs": [
        {
          "internalType": "uint256",
          "name": "",
          "type": "uint256"
        }
      ],
      "stateMutability": "view",
      "type": "function"
    },
    {
      "inputs": [
        {
          "internalType": "uint256",
          "name": "",
          "type": "uint256"
        }
      ],
      "name": "creators",
      "outputs": [
        {
          "internalType": "address",
          "name": "",
          "type": "address"
        }
      ],
      "stateMutability": "view",
      "type": "function"
    },
    {
      "inputs": [
        {
          "internalType": "uint256",
          "name": "tokenId",
          "type": "uint256"
        }
      ],
      "name": "getApproved",
      "outputs": [
        {
          "internalType": "address",
          "name": "",
          "type": "address"
        }
      ],
      "stateMutability": "view",
      "type": "function"
    },
    {
      "inputs": [
        {
          "internalType": "address",
          "name": "owner",
          "type": "address"
        },
        {
          "internalType": "address",
          "name": "operator",
          "type": "address"
        }
      ],
      "name": "isApprovedForAll",
      "outputs": [
        {
          "internalType": "bool",
          "name": "",
          "type": "bool"
        }
      ],
      "stateMutability": "view",
      "type": "function"
    },
    {
      "inputs": [],
      "name": "mainContractAddress",
      "outputs": [
        {
          "internalType": "address",
          "name": "",
          "type": "address"
        }
      ],
      "stateMutability": "view",
      "type": "function"
    },
    {
      "inputs": [],
      "name": "name",
      "outputs": [
        {
          "internalType": "string",
          "name": "",
          "type": "string"
        }
      ],
      "stateMutability": "view",
      "type": "function"
    },
    {
      "inputs": [],
      "name": "owner",
      "outputs": [
        {
          "internalType": "address",
          "name": "",
          "type": "address"
        }
      ],
      "stateMutability": "view",
      "type": "function"
    },
    {
      "inputs": [
        {
          "internalType": "uint256",
          "name": "tokenId",
          "type": "uint256"
        }
      ],
      "name": "ownerOf",
      "outputs": [
        {
          "internalType": "address",
          "name": "",
          "type": "address"
        }
      ],
      "stateMutability": "view",
      "type": "function"
    },
    {
      "inputs": [],
      "name": "renounceOwnership",
      "outputs": [],
      "stateMutability": "nonpayable",
      "type": "function"
    },
    {
      "inputs": [
        {
          "internalType": "address",
          "name": "from",
          "type": "address"
        },
        {
          "internalType": "address",
          "name": "to",
          "type": "address"
        },
        {
          "internalType": "uint256",
          "name": "tokenId",
          "type": "uint256"
        }
      ],
      "name": "safeTransferFrom",
      "outputs": [],
      "stateMutability": "nonpayable",
      "type": "function"
    },
    {
      "inputs": [
        {
          "internalType": "address",
          "name": "from",
          "type": "address"
        },
        {
          "internalType": "address",
          "name": "to",
          "type": "address"
        },
        {
          "internalType": "uint256",
          "name": "tokenId",
          "type": "uint256"
        },
        {
          "internalType": "bytes",
          "name": "_data",
          "type": "bytes"
        }
      ],
      "name": "safeTransferFrom",
      "outputs": [],
      "stateMutability": "nonpayable",
      "type": "function"
    },
    {
      "inputs": [
        {
          "internalType": "address",
          "name": "operator",
          "type": "address"
        },
        {
          "internalType": "bool",
          "name": "approved",
          "type": "bool"
        }
      ],
      "name": "setApprovalForAll",
      "outputs": [],
      "stateMutability": "nonpayable",
      "type": "function"
    },
    {
      "inputs": [],
      "name": "symbol",
      "outputs": [
        {
          "internalType": "string",
          "name": "",
          "type": "string"
        }
      ],
      "stateMutability": "view",
      "type": "function"
    },
    {
      "inputs": [
        {
          "internalType": "address",
          "name": "from",
          "type": "address"
        },
        {
          "internalType": "address",
          "name": "to",
          "type": "address"
        },
        {
          "internalType": "uint256",
          "name": "tokenId",
          "type": "uint256"
        }
      ],
      "name": "transferFrom",
      "outputs": [],
      "stateMutability": "nonpayable",
      "type": "function"
    },
    {
      "inputs": [
        {
          "internalType": "address",
          "name": "newOwner",
          "type": "address"
        }
      ],
      "name": "transferOwnership",
      "outputs": [],
      "stateMutability": "nonpayable",
      "type": "function"
    },
    {
      "inputs": [
        {
          "internalType": "address",
          "name": "_mainContractAddress",
          "type": "address"
        }
      ],
      "name": "setMainContractAddress",
      "outputs": [],
      "stateMutability": "nonpayable",
      "type": "function"
    },
    {
      "inputs": [
        {
          "internalType": "string",
          "name": "_tokenURI",
          "type": "string"
        }
      ],
      "name": "mintNFT",
      "outputs": [
        {
          "internalType": "uint256",
          "name": "",
          "type": "uint256"
        }
      ],
      "stateMutability": "nonpayable",
      "type": "function"
    },
    {
      "inputs": [
        {
          "internalType": "uint256",
          "name": "tokenId",
          "type": "uint256"
        },
        {
          "internalType": "string",
          "name": "newTokenURI",
          "type": "string"
        }
      ],
      "name": "updateOwnTokenURI",
      "outputs": [],
      "stateMutability": "nonpayable",
      "type": "function"
    },
    {
      "inputs": [
        {
          "internalType": "uint256",
          "name": "tokenId",
          "type": "uint256"
        },
        {
          "internalType": "address",
          "name": "to",
          "type": "address"
        }
      ],
      "name": "transferNFT",
      "outputs": [
        {
          "internalType": "bool",
          "name": "",
          "type": "bool"
        }
      ],
      "stateMutability": "nonpayable",
      "type": "function"
    },
    {
      "inputs": [
        {
          "internalType": "uint256",
          "name": "tokenId",
          "type": "uint256"
        },
        {
          "internalType": "address",
          "name": "from",
          "type": "address"
        },
        {
          "internalType": "address",
          "name": "to",
          "type": "address"
        }
      ],
      "name": "transferNFTUserToSystem",
      "outputs": [],
      "stateMutability": "nonpayable",
      "type": "function"
    },
    {
      "inputs": [
        {
          "internalType": "uint256",
          "name": "tokenId",
          "type": "uint256"
        }
      ],
      "name": "burnNFT",
      "outputs": [],
      "stateMutability": "nonpayable",
      "type": "function"
    },
    {
      "inputs": [
        {
          "internalType": "uint256",
          "name": "tokenId",
          "type": "uint256"
        }
      ],
      "name": "getNFTInfo",
      "outputs": [
        {
          "components": [
            {
              "internalType": "uint256",
              "name": "tokenId",
              "type": "uint256"
            },
            {
              "internalType": "address",
              "name": "creator",
              "type": "address"
            },
            {
              "internalType": "address",
              "name": "currentOwner",
              "type": "address"
            },
            {
              "internalType": "string",
              "name": "tokenURI",
              "type": "string"
            }
          ],
          "internalType": "struct NFTFrame.NFTInfo",
          "name": "",
          "type": "tuple"
        }
      ],
      "stateMutability": "view",
      "type": "function"
    },
    {
      "inputs": [
        {
          "internalType": "uint256[]",
          "name": "tokenIds",
          "type": "uint256[]"
        }
      ],
      "name": "getNFTsByIds",
      "outputs": [
        {
          "components": [
            {
              "internalType": "uint256",
              "name": "tokenId",
              "type": "uint256"
            },
            {
              "internalType": "address",
              "name": "creator",
              "type": "address"
            },
            {
              "internalType": "address",
              "name": "currentOwner",
              "type": "address"
            },
            {
              "internalType": "string",
              "name": "tokenURI",
              "type": "string"
            }
          ],
          "internalType": "struct NFTFrame.NFTInfo[]",
          "name": "",
          "type": "tuple[]"
        }
      ],
      "stateMutability": "view",
      "type": "function"
    },
    {
      "inputs": [
        {
          "internalType": "address",
          "name": "user",
          "type": "address"
        }
      ],
      "name": "getUserNFTIds",
      "outputs": [
        {
          "internalType": "uint256[]",
          "name": "",
          "type": "uint256[]"
        }
      ],
      "stateMutability": "view",
      "type": "function"
    },
    {
      "inputs": [
        {
          "internalType": "uint256",
          "name": "tokenId",
          "type": "uint256"
        }
      ],
      "name": "tokenURI",
      "outputs": [
        {
          "internalType": "string",
          "name": "",
          "type": "string"
        }
      ],
      "stateMutability": "view",
      "type": "function"
    },
    {
      "inputs": [
        {
          "internalType": "bytes4",
          "name": "interfaceId",
          "type": "bytes4"
        }
      ],
      "name": "supportsInterface",
      "outputs": [
        {
          "internalType": "bool",
          "name": "",
          "type": "bool"
        }
      ],
      "stateMutability": "view",
      "type": "function"
    }
  ],
  "bytecode": "0x60806040523480156200001157600080fd5b506040518060400160405280600881526020017f4e46544672616d650000000000000000000000000000000000000000000000008152506040518060400160405280600481526020017f4e46544600000000000000000000000000000000000000000000000000000000815250816000908051906020019062000096929190620001a6565b508060019080519060200190620000af929190620001a6565b505050620000d2620000c6620000d860201b60201c565b620000e060201b60201c565b620002bb565b600033905090565b6000600760009054906101000a900473ffffffffffffffffffffffffffffffffffffffff16905081600760006101000a81548173ffffffffffffffffffffffffffffffffffffffff021916908373ffffffffffffffffffffffffffffffffffffffff1602179055508173ffffffffffffffffffffffffffffffffffffffff168173ffffffffffffffffffffffffffffffffffffffff167f8be0079c531659141344cd1fd0a4f28419497f9722a3daafe3b4186f6b6457e060405160405180910390a35050565b828054620001b49062000256565b90600052602060002090601f016020900481019282620001d8576000855562000224565b82601f10620001f357805160ff191683800117855562000224565b8280016001018555821562000224579182015b828111156200022357825182559160200191906001019062000206565b5b50905062000233919062000237565b5090565b5b808211156200025257600081600090555060010162000238565b5090565b600060028204905060018216806200026f57607f821691505b602082108114156200028657620002856200028c565b5b50919050565b7f4e487b7100000000000000000000000000000000000000000000000000000000600052602260045260246000fd5b614a7f80620002cb6000396000f3fe608060405234801561001057600080fd5b50600436106101a95760003560e01c80638da5cb5b116100f9578063d188929f11610097578063e985e9c511610071578063e985e9c5146104f0578063ec9da59e14610520578063f2fde38b1461053c578063fb37e88314610558576101a9565b8063d188929f14610472578063da6b7356146104a2578063e6b1fa2a146104c0576101a9565b8063a22cb465116100d3578063a22cb465146103da578063b88d4fde146103f6578063c87b56dd14610412578063cd53d08e14610442576101a9565b80638da5cb5b1461036e5780639036c0501461038c57806395d89b41146103bc576101a9565b80632890e0d7116101665780636352211e116101405780636352211e146102e857806370a0823114610318578063715018a61461034857806374cf877d14610352576101a9565b80632890e0d71461029457806342842e0e146102b05780634f89cea6146102cc576101a9565b8063016ae931146101ae57806301ffc9a7146101de57806306fdde031461020e578063081812fc1461022c578063095ea7b31461025c57806323b872dd14610278575b600080fd5b6101c860048036038101906101c39190613225565b610588565b6040516101d59190613aec565b60405180910390f35b6101f860048036038101906101f3919061326e565b61076a565b6040516102059190613b30565b60405180910390f35b61021661077c565b6040516102239190613b4b565b60405180910390f35b61024660048036038101906102419190613311565b61080e565b6040516102539190613a85565b60405180910390f35b610276600480360381019061027191906131e5565b610893565b005b610292600480360381019061028d91906130cf565b6109ab565b005b6102ae60048036038101906102a99190613311565b610a0b565b005b6102ca60048036038101906102c591906130cf565b610b72565b005b6102e660048036038101906102e1919061337e565b610b92565b005b61030260048036038101906102fd9190613311565b610dab565b60405161030f9190613a85565b60405180910390f35b610332600480360381019061032d9190613062565b610e5d565b60405161033f9190613e8f565b60405180910390f35b610350610f15565b005b61036c600480360381019061036791906133d1565b610f9d565b005b6103766110d1565b6040516103839190613a85565b60405180910390f35b6103a660048036038101906103a1919061333e565b6110fb565b6040516103b39190613b30565b60405180910390f35b6103c461127c565b6040516103d19190613b4b565b60405180910390f35b6103f460048036038101906103ef91906131a5565b61130e565b005b610410600480360381019061040b9190613122565b61148f565b005b61042c60048036038101906104279190613311565b6114f1565b6040516104399190613b4b565b60405180910390f35b61045c60048036038101906104579190613311565b611503565b6040516104699190613a85565b60405180910390f35b61048c60048036038101906104879190613311565b611536565b6040516104999190613e6d565b60405180910390f35b6104aa61164d565b6040516104b79190613a85565b60405180910390f35b6104da60048036038101906104d59190613062565b611673565b6040516104e79190613b0e565b60405180910390f35b61050a6004803603810190610505919061308f565b61170a565b6040516105179190613b30565b60405180910390f35b61053a60048036038101906105359190613062565b61179e565b005b61055660048036038101906105519190613062565b6118e3565b005b610572600480360381019061056d91906132c8565b6119db565b60405161057f9190613e8f565b60405180910390f35b60606000825167ffffffffffffffff8111156105a7576105a661435c565b5b6040519080825280602002602001820160405280156105e057816020015b6105cd612d44565b8152602001906001900390816105c55790505b50905060005b83518110156107605760008482815181106106045761060361432d565b5b6020026020010151905061061781611abf565b156106cf5760405180608001604052808281526020016009600084815260200190815260200160002060009054906101000a900473ffffffffffffffffffffffffffffffffffffffff1673ffffffffffffffffffffffffffffffffffffffff16815260200161068583610dab565b73ffffffffffffffffffffffffffffffffffffffff1681526020016106a9836114f1565b8152508383815181106106bf576106be61432d565b5b602002602001018190525061074c565b6040518060800160405280828152602001600073ffffffffffffffffffffffffffffffffffffffff168152602001600073ffffffffffffffffffffffffffffffffffffffff168152602001604051806020016040528060008152508152508383815181106107405761073f61432d565b5b60200260200101819052505b508080610758906141f7565b9150506105e6565b5080915050919050565b600061077582611b2b565b9050919050565b60606000805461078b90614194565b80601f01602080910402602001604051908101604052809291908181526020018280546107b790614194565b80156108045780601f106107d957610100808354040283529160200191610804565b820191906000526020600020905b8154815290600101906020018083116107e757829003601f168201915b5050505050905090565b600061081982611abf565b610858576040517f08c379a000000000000000000000000000000000000000000000000000000000815260040161084f90613d8d565b60405180910390fd5b6004600083815260200190815260200160002060009054906101000a900473ffffffffffffffffffffffffffffffffffffffff169050919050565b600061089e82610dab565b90508073ffffffffffffffffffffffffffffffffffffffff168373ffffffffffffffffffffffffffffffffffffffff16141561090f576040517f08c379a000000000000000000000000000000000000000000000000000000000815260040161090690613e0d565b60405180910390fd5b8073ffffffffffffffffffffffffffffffffffffffff1661092e611c0d565b73ffffffffffffffffffffffffffffffffffffffff16148061095d575061095c81610957611c0d565b61170a565b5b61099c576040517f08c379a000000000000000000000000000000000000000000000000000000000815260040161099390613cad565b60405180910390fd5b6109a68383611c15565b505050565b6109bc6109b6611c0d565b82611cce565b6109fb576040517f08c379a00000000000000000000000000000000000000000000000000000000081526004016109f290613e2d565b60405180910390fd5b610a06838383611dac565b505050565b600073ffffffffffffffffffffffffffffffffffffffff16610a2c82610dab565b73ffffffffffffffffffffffffffffffffffffffff161415610a83576040517f08c379a0000000000000000000000000000000000000000000000000000000008152600401610a7a90613c4d565b60405180910390fd5b3373ffffffffffffffffffffffffffffffffffffffff16610aa382610dab565b73ffffffffffffffffffffffffffffffffffffffff1614610af9576040517f08c379a0000000000000000000000000000000000000000000000000000000008152600401610af090613e4d565b60405180910390fd5b610b033382612008565b610b0c8161218b565b6009600082815260200190815260200160002060006101000a81549073ffffffffffffffffffffffffffffffffffffffff0219169055807f3c176691ca154a2f6fe978a2a633a33ee77dbe2902e67a75400720845a4b2ce160405160405180910390a250565b610b8d8383836040518060200160405280600081525061148f565b505050565b600073ffffffffffffffffffffffffffffffffffffffff16600b60009054906101000a900473ffffffffffffffffffffffffffffffffffffffff1673ffffffffffffffffffffffffffffffffffffffff161415610c24576040517f08c379a0000000000000000000000000000000000000000000000000000000008152600401610c1b90613d6d565b60405180910390fd5b600b60009054906101000a900473ffffffffffffffffffffffffffffffffffffffff1673ffffffffffffffffffffffffffffffffffffffff163373ffffffffffffffffffffffffffffffffffffffff1614610cb4576040517f08c379a0000000000000000000000000000000000000000000000000000000008152600401610cab90613b8d565b60405180910390fd5b600073ffffffffffffffffffffffffffffffffffffffff16610cd584610dab565b73ffffffffffffffffffffffffffffffffffffffff161415610d2c576040517f08c379a0000000000000000000000000000000000000000000000000000000008152600401610d2390613c4d565b60405180910390fd5b610d368284612008565b610d41828285611dac565b610d4b8184612197565b8073ffffffffffffffffffffffffffffffffffffffff168273ffffffffffffffffffffffffffffffffffffffff16847f67043fac5fd2bf9edbb46ee495aaed7f97f91d43507d373be2b592af19b8c0a860405160405180910390a4505050565b6000806002600084815260200190815260200160002060009054906101000a900473ffffffffffffffffffffffffffffffffffffffff169050600073ffffffffffffffffffffffffffffffffffffffff168173ffffffffffffffffffffffffffffffffffffffff161415610e54576040517f08c379a0000000000000000000000000000000000000000000000000000000008152600401610e4b90613ced565b60405180910390fd5b80915050919050565b60008073ffffffffffffffffffffffffffffffffffffffff168273ffffffffffffffffffffffffffffffffffffffff161415610ece576040517f08c379a0000000000000000000000000000000000000000000000000000000008152600401610ec590613ccd565b60405180910390fd5b600360008373ffffffffffffffffffffffffffffffffffffffff1673ffffffffffffffffffffffffffffffffffffffff168152602001908152602001600020549050919050565b610f1d611c0d565b73ffffffffffffffffffffffffffffffffffffffff16610f3b6110d1565b73ffffffffffffffffffffffffffffffffffffffff1614610f91576040517f08c379a0000000000000000000000000000000000000000000000000000000008152600401610f8890613dad565b60405180910390fd5b610f9b6000612279565b565b600073ffffffffffffffffffffffffffffffffffffffff16610fbe83610dab565b73ffffffffffffffffffffffffffffffffffffffff161415611015576040517f08c379a000000000000000000000000000000000000000000000000000000000815260040161100c90613c4d565b60405180910390fd5b3373ffffffffffffffffffffffffffffffffffffffff1661103583610dab565b73ffffffffffffffffffffffffffffffffffffffff161461108b576040517f08c379a000000000000000000000000000000000000000000000000000000000815260040161108290613e4d565b60405180910390fd5b611095828261233f565b817f931f495b9a8e5d8e61946ea5d61e021f636cfe213a801f97589c18c152e408bd826040516110c59190613b4b565b60405180910390a25050565b6000600760009054906101000a900473ffffffffffffffffffffffffffffffffffffffff16905090565b60008073ffffffffffffffffffffffffffffffffffffffff1661111d84610dab565b73ffffffffffffffffffffffffffffffffffffffff161415611174576040517f08c379a000000000000000000000000000000000000000000000000000000000815260040161116b90613c4d565b60405180910390fd5b3373ffffffffffffffffffffffffffffffffffffffff1661119484610dab565b73ffffffffffffffffffffffffffffffffffffffff16146111ea576040517f08c379a00000000000000000000000000000000000000000000000000000000081526004016111e190613e4d565b60405180910390fd5b60006111f584610dab565b90506112018185612008565b61120c818486611dac565b6112168385612197565b8273ffffffffffffffffffffffffffffffffffffffff168173ffffffffffffffffffffffffffffffffffffffff16857f67043fac5fd2bf9edbb46ee495aaed7f97f91d43507d373be2b592af19b8c0a860405160405180910390a4600191505092915050565b60606001805461128b90614194565b80601f01602080910402602001604051908101604052809291908181526020018280546112b790614194565b80156113045780601f106112d957610100808354040283529160200191611304565b820191906000526020600020905b8154815290600101906020018083116112e757829003601f168201915b5050505050905090565b611316611c0d565b73ffffffffffffffffffffffffffffffffffffffff168273ffffffffffffffffffffffffffffffffffffffff161415611384576040517f08c379a000000000000000000000000000000000000000000000000000000000815260040161137b90613c2d565b60405180910390fd5b8060056000611391611c0d565b73ffffffffffffffffffffffffffffffffffffffff1673ffffffffffffffffffffffffffffffffffffffff16815260200190815260200160002060008473ffffffffffffffffffffffffffffffffffffffff1673ffffffffffffffffffffffffffffffffffffffff16815260200190815260200160002060006101000a81548160ff0219169083151502179055508173ffffffffffffffffffffffffffffffffffffffff1661143e611c0d565b73ffffffffffffffffffffffffffffffffffffffff167f17307eab39ab6107e8899845ad3d59bd9653f200f220920489ca2b5937696c31836040516114839190613b30565b60405180910390a35050565b6114a061149a611c0d565b83611cce565b6114df576040517f08c379a00000000000000000000000000000000000000000000000000000000081526004016114d690613e2d565b60405180910390fd5b6114eb848484846123b3565b50505050565b60606114fc8261240f565b9050919050565b60096020528060005260406000206000915054906101000a900473ffffffffffffffffffffffffffffffffffffffff1681565b61153e612d44565b600073ffffffffffffffffffffffffffffffffffffffff1661155f83610dab565b73ffffffffffffffffffffffffffffffffffffffff1614156115b6576040517f08c379a00000000000000000000000000000000000000000000000000000000081526004016115ad90613c4d565b60405180910390fd5b60405180608001604052808381526020016009600085815260200190815260200160002060009054906101000a900473ffffffffffffffffffffffffffffffffffffffff1673ffffffffffffffffffffffffffffffffffffffff16815260200161161f84610dab565b73ffffffffffffffffffffffffffffffffffffffff168152602001611643846114f1565b8152509050919050565b600b60009054906101000a900473ffffffffffffffffffffffffffffffffffffffff1681565b6060600a60008373ffffffffffffffffffffffffffffffffffffffff1673ffffffffffffffffffffffffffffffffffffffff1681526020019081526020016000208054806020026020016040519081016040528092919081815260200182805480156116fe57602002820191906000526020600020905b8154815260200190600101908083116116ea575b50505050509050919050565b6000600560008473ffffffffffffffffffffffffffffffffffffffff1673ffffffffffffffffffffffffffffffffffffffff16815260200190815260200160002060008373ffffffffffffffffffffffffffffffffffffffff1673ffffffffffffffffffffffffffffffffffffffff16815260200190815260200160002060009054906101000a900460ff16905092915050565b600073ffffffffffffffffffffffffffffffffffffffff16600b60009054906101000a900473ffffffffffffffffffffffffffffffffffffffff1673ffffffffffffffffffffffffffffffffffffffff161461182f576040517f08c379a000000000000000000000000000000000000000000000000000000000815260040161182690613c8d565b60405180910390fd5b600073ffffffffffffffffffffffffffffffffffffffff168173ffffffffffffffffffffffffffffffffffffffff16141561189f576040517f08c379a000000000000000000000000000000000000000000000000000000000815260040161189690613bcd565b60405180910390fd5b80600b60006101000a81548173ffffffffffffffffffffffffffffffffffffffff021916908373ffffffffffffffffffffffffffffffffffffffff16021790555050565b6118eb611c0d565b73ffffffffffffffffffffffffffffffffffffffff166119096110d1565b73ffffffffffffffffffffffffffffffffffffffff161461195f576040517f08c379a000000000000000000000000000000000000000000000000000000000815260040161195690613dad565b60405180910390fd5b600073ffffffffffffffffffffffffffffffffffffffff168173ffffffffffffffffffffffffffffffffffffffff1614156119cf576040517f08c379a00000000000000000000000000000000000000000000000000000000081526004016119c690613bad565b60405180910390fd5b6119d881612279565b50565b600080600860008154809291906119f1906141f7565b919050559050611a013382612561565b611a0b818461233f565b336009600083815260200190815260200160002060006101000a81548173ffffffffffffffffffffffffffffffffffffffff021916908373ffffffffffffffffffffffffffffffffffffffff160217905550611a673382612197565b3373ffffffffffffffffffffffffffffffffffffffff16817f06becd955c918828f6e985541acbf49cc842c9e9bd569fffc7698e721ef1357585604051611aae9190613b4b565b60405180910390a380915050919050565b60008073ffffffffffffffffffffffffffffffffffffffff166002600084815260200190815260200160002060009054906101000a900473ffffffffffffffffffffffffffffffffffffffff1673ffffffffffffffffffffffffffffffffffffffff1614159050919050565b60007f80ac58cd000000000000000000000000000000000000000000000000000000007bffffffffffffffffffffffffffffffffffffffffffffffffffffffff1916827bffffffffffffffffffffffffffffffffffffffffffffffffffffffff19161480611bf657507f5b5e139f000000000000000000000000000000000000000000000000000000007bffffffffffffffffffffffffffffffffffffffffffffffffffffffff1916827bffffffffffffffffffffffffffffffffffffffffffffffffffffffff1916145b80611c065750611c058261257f565b5b9050919050565b600033905090565b816004600083815260200190815260200160002060006101000a81548173ffffffffffffffffffffffffffffffffffffffff021916908373ffffffffffffffffffffffffffffffffffffffff160217905550808273ffffffffffffffffffffffffffffffffffffffff16611c8883610dab565b73ffffffffffffffffffffffffffffffffffffffff167f8c5be1e5ebec7d5bd14f71427d1e84f3dd0314c0f7b2291e5b200ac8c7c3b92560405160405180910390a45050565b6000611cd982611abf565b611d18576040517f08c379a0000000000000000000000000000000000000000000000000000000008152600401611d0f90613c6d565b60405180910390fd5b6000611d2383610dab565b90508073ffffffffffffffffffffffffffffffffffffffff168473ffffffffffffffffffffffffffffffffffffffff161480611d9257508373ffffffffffffffffffffffffffffffffffffffff16611d7a8461080e565b73ffffffffffffffffffffffffffffffffffffffff16145b80611da35750611da2818561170a565b5b91505092915050565b8273ffffffffffffffffffffffffffffffffffffffff16611dcc82610dab565b73ffffffffffffffffffffffffffffffffffffffff1614611e22576040517f08c379a0000000000000000000000000000000000000000000000000000000008152600401611e1990613dcd565b60405180910390fd5b600073ffffffffffffffffffffffffffffffffffffffff168273ffffffffffffffffffffffffffffffffffffffff161415611e92576040517f08c379a0000000000000000000000000000000000000000000000000000000008152600401611e8990613c0d565b60405180910390fd5b611e9d8383836125e9565b611ea8600082611c15565b6001600360008573ffffffffffffffffffffffffffffffffffffffff1673ffffffffffffffffffffffffffffffffffffffff1681526020019081526020016000206000828254611ef891906140aa565b925050819055506001600360008473ffffffffffffffffffffffffffffffffffffffff1673ffffffffffffffffffffffffffffffffffffffff1681526020019081526020016000206000828254611f4f9190614023565b92505081905550816002600083815260200190815260200160002060006101000a81548173ffffffffffffffffffffffffffffffffffffffff021916908373ffffffffffffffffffffffffffffffffffffffff160217905550808273ffffffffffffffffffffffffffffffffffffffff168473ffffffffffffffffffffffffffffffffffffffff167fddf252ad1be2c89b69c2b068fc378daa952ba7f163c4a11628f55a4df523b3ef60405160405180910390a4505050565b600073ffffffffffffffffffffffffffffffffffffffff1661202982610dab565b73ffffffffffffffffffffffffffffffffffffffff161415612080576040517f08c379a000000000000000000000000000000000000000000000000000000000815260040161207790613c4d565b60405180910390fd5b6000600a60008473ffffffffffffffffffffffffffffffffffffffff1673ffffffffffffffffffffffffffffffffffffffff168152602001908152602001600020905060005b818054905081101561218557828282815481106120e6576120e561432d565b5b9060005260206000200154141561217257816001838054905061210991906140aa565b8154811061211a5761211961432d565b5b90600052602060002001548282815481106121385761213761432d565b5b906000526020600020018190555081805480612157576121566142fe565b5b60019003818190600052602060002001600090559055612185565b808061217d906141f7565b9150506120c6565b50505050565b612194816125ee565b50565b600073ffffffffffffffffffffffffffffffffffffffff166121b882610dab565b73ffffffffffffffffffffffffffffffffffffffff16141561220f576040517f08c379a000000000000000000000000000000000000000000000000000000000815260040161220690613c4d565b60405180910390fd5b600a60008373ffffffffffffffffffffffffffffffffffffffff1673ffffffffffffffffffffffffffffffffffffffff1681526020019081526020016000208190806001815401808255809150506001900390600052602060002001600090919091909150555050565b6000600760009054906101000a900473ffffffffffffffffffffffffffffffffffffffff16905081600760006101000a81548173ffffffffffffffffffffffffffffffffffffffff021916908373ffffffffffffffffffffffffffffffffffffffff1602179055508173ffffffffffffffffffffffffffffffffffffffff168173ffffffffffffffffffffffffffffffffffffffff167f8be0079c531659141344cd1fd0a4f28419497f9722a3daafe3b4186f6b6457e060405160405180910390a35050565b61234882611abf565b612387576040517f08c379a000000000000000000000000000000000000000000000000000000000815260040161237e90613d0d565b60405180910390fd5b806006600084815260200190815260200160002090805190602001906123ae929190612d98565b505050565b6123be848484611dac565b6123ca84848484612641565b612409576040517f08c379a000000000000000000000000000000000000000000000000000000000815260040161240090613b6d565b60405180910390fd5b50505050565b606061241a82611abf565b612459576040517f08c379a000000000000000000000000000000000000000000000000000000000815260040161245090613d4d565b60405180910390fd5b600060066000848152602001908152602001600020805461247990614194565b80601f01602080910402602001604051908101604052809291908181526020018280546124a590614194565b80156124f25780601f106124c7576101008083540402835291602001916124f2565b820191906000526020600020905b8154815290600101906020018083116124d557829003601f168201915b5050505050905060006125036127d8565b905060008151141561251957819250505061255c565b60008251111561254e578082604051602001612536929190613a61565b6040516020818303038152906040529250505061255c565b612557846127ef565b925050505b919050565b61257b828260405180602001604052806000815250612896565b5050565b60007f01ffc9a7000000000000000000000000000000000000000000000000000000007bffffffffffffffffffffffffffffffffffffffffffffffffffffffff1916827bffffffffffffffffffffffffffffffffffffffffffffffffffffffff1916149050919050565b505050565b6125f7816128f1565b600060066000838152602001908152602001600020805461261790614194565b90501461263e5760066000828152602001908152602001600020600061263d9190612e1e565b5b50565b60006126628473ffffffffffffffffffffffffffffffffffffffff16612a02565b156127cb578373ffffffffffffffffffffffffffffffffffffffff1663150b7a0261268b611c0d565b8786866040518563ffffffff1660e01b81526004016126ad9493929190613aa0565b602060405180830381600087803b1580156126c757600080fd5b505af19250505080156126f857506040513d601f19601f820116820180604052508101906126f5919061329b565b60015b61277b573d8060008114612728576040519150601f19603f3d011682016040523d82523d6000602084013e61272d565b606091505b50600081511415612773576040517f08c379a000000000000000000000000000000000000000000000000000000000815260040161276a90613b6d565b60405180910390fd5b805181602001fd5b63150b7a0260e01b7bffffffffffffffffffffffffffffffffffffffffffffffffffffffff1916817bffffffffffffffffffffffffffffffffffffffffffffffffffffffff1916149150506127d0565b600190505b949350505050565b606060405180602001604052806000815250905090565b60606127fa82611abf565b612839576040517f08c379a000000000000000000000000000000000000000000000000000000000815260040161283090613ded565b60405180910390fd5b60006128436127d8565b90506000815111612863576040518060200160405280600081525061288e565b8061286d84612a15565b60405160200161287e929190613a61565b6040516020818303038152906040525b915050919050565b6128a08383612b76565b6128ad6000848484612641565b6128ec576040517f08c379a00000000000000000000000000000000000000000000000000000000081526004016128e390613b6d565b60405180910390fd5b505050565b60006128fc82610dab565b905061290a816000846125e9565b612915600083611c15565b6001600360008373ffffffffffffffffffffffffffffffffffffffff1673ffffffffffffffffffffffffffffffffffffffff168152602001908152602001600020600082825461296591906140aa565b925050819055506002600083815260200190815260200160002060006101000a81549073ffffffffffffffffffffffffffffffffffffffff021916905581600073ffffffffffffffffffffffffffffffffffffffff168273ffffffffffffffffffffffffffffffffffffffff167fddf252ad1be2c89b69c2b068fc378daa952ba7f163c4a11628f55a4df523b3ef60405160405180910390a45050565b600080823b905060008111915050919050565b60606000821415612a5d576040518060400160405280600181526020017f30000000000000000000000000000000000000000000000000000000000000008152509050612b71565b600082905060005b60008214612a8f578080612a78906141f7565b915050600a82612a889190614079565b9150612a65565b60008167ffffffffffffffff811115612aab57612aaa61435c565b5b6040519080825280601f01601f191660200182016040528015612add5781602001600182028036833780820191505090505b5090505b60008514612b6a57600182612af691906140aa565b9150600a85612b059190614240565b6030612b119190614023565b60f81b818381518110612b2757612b2661432d565b5b60200101907effffffffffffffffffffffffffffffffffffffffffffffffffffffffffffff1916908160001a905350600a85612b639190614079565b9450612ae1565b8093505050505b919050565b600073ffffffffffffffffffffffffffffffffffffffff168273ffffffffffffffffffffffffffffffffffffffff161415612be6576040517f08c379a0000000000000000000000000000000000000000000000000000000008152600401612bdd90613d2d565b60405180910390fd5b612bef81611abf565b15612c2f576040517f08c379a0000000000000000000000000000000000000000000000000000000008152600401612c2690613bed565b60405180910390fd5b612c3b600083836125e9565b6001600360008473ffffffffffffffffffffffffffffffffffffffff1673ffffffffffffffffffffffffffffffffffffffff1681526020019081526020016000206000828254612c8b9190614023565b92505081905550816002600083815260200190815260200160002060006101000a81548173ffffffffffffffffffffffffffffffffffffffff021916908373ffffffffffffffffffffffffffffffffffffffff160217905550808273ffffffffffffffffffffffffffffffffffffffff16600073ffffffffffffffffffffffffffffffffffffffff167fddf252ad1be2c89b69c2b068fc378daa952ba7f163c4a11628f55a4df523b3ef60405160405180910390a45050565b604051806080016040528060008152602001600073ffffffffffffffffffffffffffffffffffffffff168152602001600073ffffffffffffffffffffffffffffffffffffffff168152602001606081525090565b828054612da490614194565b90600052602060002090601f016020900481019282612dc65760008555612e0d565b82601f10612ddf57805160ff1916838001178555612e0d565b82800160010185558215612e0d579182015b82811115612e0c578251825591602001919060010190612df1565b5b509050612e1a9190612e5e565b5090565b508054612e2a90614194565b6000825580601f10612e3c5750612e5b565b601f016020900490600052602060002090810190612e5a9190612e5e565b5b50565b5b80821115612e77576000816000905550600101612e5f565b5090565b6000612e8e612e8984613ecf565b613eaa565b90508083825260208201905082856020860282011115612eb157612eb0614390565b5b60005b85811015612ee15781612ec7888261304d565b845260208401935060208301925050600181019050612eb4565b5050509392505050565b6000612efe612ef984613efb565b613eaa565b905082815260208101848484011115612f1a57612f19614395565b5b612f25848285614152565b509392505050565b6000612f40612f3b84613f2c565b613eaa565b905082815260208101848484011115612f5c57612f5b614395565b5b612f67848285614152565b509392505050565b600081359050612f7e816149ed565b92915050565b600082601f830112612f9957612f9861438b565b5b8135612fa9848260208601612e7b565b91505092915050565b600081359050612fc181614a04565b92915050565b600081359050612fd681614a1b565b92915050565b600081519050612feb81614a1b565b92915050565b600082601f8301126130065761300561438b565b5b8135613016848260208601612eeb565b91505092915050565b600082601f8301126130345761303361438b565b5b8135613044848260208601612f2d565b91505092915050565b60008135905061305c81614a32565b92915050565b6000602082840312156130785761307761439f565b5b600061308684828501612f6f565b91505092915050565b600080604083850312156130a6576130a561439f565b5b60006130b485828601612f6f565b92505060206130c585828601612f6f565b9150509250929050565b6000806000606084860312156130e8576130e761439f565b5b60006130f686828701612f6f565b935050602061310786828701612f6f565b92505060406131188682870161304d565b9150509250925092565b6000806000806080858703121561313c5761313b61439f565b5b600061314a87828801612f6f565b945050602061315b87828801612f6f565b935050604061316c8782880161304d565b925050606085013567ffffffffffffffff81111561318d5761318c61439a565b5b61319987828801612ff1565b91505092959194509250565b600080604083850312156131bc576131bb61439f565b5b60006131ca85828601612f6f565b92505060206131db85828601612fb2565b9150509250929050565b600080604083850312156131fc576131fb61439f565b5b600061320a85828601612f6f565b925050602061321b8582860161304d565b9150509250929050565b60006020828403121561323b5761323a61439f565b5b600082013567ffffffffffffffff8111156132595761325861439a565b5b61326584828501612f84565b91505092915050565b6000602082840312156132845761328361439f565b5b600061329284828501612fc7565b91505092915050565b6000602082840312156132b1576132b061439f565b5b60006132bf84828501612fdc565b91505092915050565b6000602082840312156132de576132dd61439f565b5b600082013567ffffffffffffffff8111156132fc576132fb61439a565b5b6133088482850161301f565b91505092915050565b6000602082840312156133275761332661439f565b5b60006133358482850161304d565b91505092915050565b600080604083850312156133555761335461439f565b5b60006133638582860161304d565b925050602061337485828601612f6f565b9150509250929050565b6000806000606084860312156133975761339661439f565b5b60006133a58682870161304d565b93505060206133b686828701612f6f565b92505060406133c786828701612f6f565b9150509250925092565b600080604083850312156133e8576133e761439f565b5b60006133f68582860161304d565b925050602083013567ffffffffffffffff8111156134175761341661439a565b5b6134238582860161301f565b9150509250929050565b6000613439838361397d565b905092915050565b600061344d8383613a43565b60208301905092915050565b613462816140de565b82525050565b613471816140de565b82525050565b600061348282613f7d565b61348c8185613fc3565b93508360208202850161349e85613f5d565b8060005b858110156134da57848403895281516134bb858261342d565b94506134c683613fa9565b925060208a019950506001810190506134a2565b50829750879550505050505092915050565b60006134f782613f88565b6135018185613fd4565b935061350c83613f6d565b8060005b8381101561353d5781516135248882613441565b975061352f83613fb6565b925050600181019050613510565b5085935050505092915050565b613553816140f0565b82525050565b600061356482613f93565b61356e8185613fe5565b935061357e818560208601614161565b613587816143a4565b840191505092915050565b600061359d82613f9e565b6135a78185613ff6565b93506135b7818560208601614161565b6135c0816143a4565b840191505092915050565b60006135d682613f9e565b6135e08185614007565b93506135f0818560208601614161565b6135f9816143a4565b840191505092915050565b600061360f82613f9e565b6136198185614018565b9350613629818560208601614161565b80840191505092915050565b6000613642603283614007565b915061364d826143b5565b604082019050919050565b6000613665601f83614007565b915061367082614404565b602082019050919050565b6000613688602683614007565b91506136938261442d565b604082019050919050565b60006136ab601d83614007565b91506136b68261447c565b602082019050919050565b60006136ce601c83614007565b91506136d9826144a5565b602082019050919050565b60006136f1602483614007565b91506136fc826144ce565b604082019050919050565b6000613714601983614007565b915061371f8261451d565b602082019050919050565b6000613737601483614007565b915061374282614546565b602082019050919050565b600061375a602c83614007565b91506137658261456f565b604082019050919050565b600061377d602a83614007565b9150613788826145be565b604082019050919050565b60006137a0603883614007565b91506137ab8261460d565b604082019050919050565b60006137c3602a83614007565b91506137ce8261465c565b604082019050919050565b60006137e6602983614007565b91506137f1826146ab565b604082019050919050565b6000613809602e83614007565b9150613814826146fa565b604082019050919050565b600061382c602083614007565b915061383782614749565b602082019050919050565b600061384f603183614007565b915061385a82614772565b604082019050919050565b6000613872601583614007565b915061387d826147c1565b602082019050919050565b6000613895602c83614007565b91506138a0826147ea565b604082019050919050565b60006138b8602083614007565b91506138c382614839565b602082019050919050565b60006138db602983614007565b91506138e682614862565b604082019050919050565b60006138fe602f83614007565b9150613909826148b1565b604082019050919050565b6000613921602183614007565b915061392c82614900565b604082019050919050565b6000613944603183614007565b915061394f8261494f565b604082019050919050565b6000613967602383614007565b91506139728261499e565b604082019050919050565b60006080830160008301516139956000860182613a43565b5060208301516139a86020860182613459565b5060408301516139bb6040860182613459565b50606083015184820360608601526139d38282613592565b9150508091505092915050565b60006080830160008301516139f86000860182613a43565b506020830151613a0b6020860182613459565b506040830151613a1e6040860182613459565b5060608301518482036060860152613a368282613592565b9150508091505092915050565b613a4c81614148565b82525050565b613a5b81614148565b82525050565b6000613a6d8285613604565b9150613a798284613604565b91508190509392505050565b6000602082019050613a9a6000830184613468565b92915050565b6000608082019050613ab56000830187613468565b613ac26020830186613468565b613acf6040830185613a52565b8181036060830152613ae18184613559565b905095945050505050565b60006020820190508181036000830152613b068184613477565b905092915050565b60006020820190508181036000830152613b2881846134ec565b905092915050565b6000602082019050613b45600083018461354a565b92915050565b60006020820190508181036000830152613b6581846135cb565b905092915050565b60006020820190508181036000830152613b8681613635565b9050919050565b60006020820190508181036000830152613ba681613658565b9050919050565b60006020820190508181036000830152613bc68161367b565b9050919050565b60006020820190508181036000830152613be68161369e565b9050919050565b60006020820190508181036000830152613c06816136c1565b9050919050565b60006020820190508181036000830152613c26816136e4565b9050919050565b60006020820190508181036000830152613c4681613707565b9050919050565b60006020820190508181036000830152613c668161372a565b9050919050565b60006020820190508181036000830152613c868161374d565b9050919050565b60006020820190508181036000830152613ca681613770565b9050919050565b60006020820190508181036000830152613cc681613793565b9050919050565b60006020820190508181036000830152613ce6816137b6565b9050919050565b60006020820190508181036000830152613d06816137d9565b9050919050565b60006020820190508181036000830152613d26816137fc565b9050919050565b60006020820190508181036000830152613d468161381f565b9050919050565b60006020820190508181036000830152613d6681613842565b9050919050565b60006020820190508181036000830152613d8681613865565b9050919050565b60006020820190508181036000830152613da681613888565b9050919050565b60006020820190508181036000830152613dc6816138ab565b9050919050565b60006020820190508181036000830152613de6816138ce565b9050919050565b60006020820190508181036000830152613e06816138f1565b9050919050565b60006020820190508181036000830152613e2681613914565b9050919050565b60006020820190508181036000830152613e4681613937565b9050919050565b60006020820190508181036000830152613e668161395a565b9050919050565b60006020820190508181036000830152613e8781846139e0565b905092915050565b6000602082019050613ea46000830184613a52565b92915050565b6000613eb4613ec5565b9050613ec082826141c6565b919050565b6000604051905090565b600067ffffffffffffffff821115613eea57613ee961435c565b5b602082029050602081019050919050565b600067ffffffffffffffff821115613f1657613f1561435c565b5b613f1f826143a4565b9050602081019050919050565b600067ffffffffffffffff821115613f4757613f4661435c565b5b613f50826143a4565b9050602081019050919050565b6000819050602082019050919050565b6000819050602082019050919050565b600081519050919050565b600081519050919050565b600081519050919050565b600081519050919050565b6000602082019050919050565b6000602082019050919050565b600082825260208201905092915050565b600082825260208201905092915050565b600082825260208201905092915050565b600082825260208201905092915050565b600082825260208201905092915050565b600081905092915050565b600061402e82614148565b915061403983614148565b9250827fffffffffffffffffffffffffffffffffffffffffffffffffffffffffffffffff0382111561406e5761406d614271565b5b828201905092915050565b600061408482614148565b915061408f83614148565b92508261409f5761409e6142a0565b5b828204905092915050565b60006140b582614148565b91506140c083614148565b9250828210156140d3576140d2614271565b5b828203905092915050565b60006140e982614128565b9050919050565b60008115159050919050565b60007fffffffff0000000000000000000000000000000000000000000000000000000082169050919050565b600073ffffffffffffffffffffffffffffffffffffffff82169050919050565b6000819050919050565b82818337600083830152505050565b60005b8381101561417f578082015181840152602081019050614164565b8381111561418e576000848401525b50505050565b600060028204905060018216806141ac57607f821691505b602082108114156141c0576141bf6142cf565b5b50919050565b6141cf826143a4565b810181811067ffffffffffffffff821117156141ee576141ed61435c565b5b80604052505050565b600061420282614148565b91507fffffffffffffffffffffffffffffffffffffffffffffffffffffffffffffffff82141561423557614234614271565b5b600182019050919050565b600061424b82614148565b915061425683614148565b925082614266576142656142a0565b5b828206905092915050565b7f4e487b7100000000000000000000000000000000000000000000000000000000600052601160045260246000fd5b7f4e487b7100000000000000000000000000000000000000000000000000000000600052601260045260246000fd5b7f4e487b7100000000000000000000000000000000000000000000000000000000600052602260045260246000fd5b7f4e487b7100000000000000000000000000000000000000000000000000000000600052603160045260246000fd5b7f4e487b7100000000000000000000000000000000000000000000000000000000600052603260045260246000fd5b7f4e487b7100000000000000000000000000000000000000000000000000000000600052604160045260246000fd5b600080fd5b600080fd5b600080fd5b600080fd5b600080fd5b6000601f19601f8301169050919050565b7f4552433732313a207472616e7366657220746f206e6f6e20455243373231526560008201527f63656976657220696d706c656d656e7465720000000000000000000000000000602082015250565b7f43616c6c6572206973206e6f7420746865206d61696e20636f6e747261637400600082015250565b7f4f776e61626c653a206e6577206f776e657220697320746865207a65726f206160008201527f6464726573730000000000000000000000000000000000000000000000000000602082015250565b7f496e76616c6964206d61696e20636f6e74726163742061646472657373000000600082015250565b7f4552433732313a20746f6b656e20616c7265616479206d696e74656400000000600082015250565b7f4552433732313a207472616e7366657220746f20746865207a65726f2061646460008201527f7265737300000000000000000000000000000000000000000000000000000000602082015250565b7f4552433732313a20617070726f766520746f2063616c6c657200000000000000600082015250565b7f546f6b656e20646f6573206e6f74206578697374000000000000000000000000600082015250565b7f4552433732313a206f70657261746f7220717565727920666f72206e6f6e657860008201527f697374656e7420746f6b656e0000000000000000000000000000000000000000602082015250565b7f4d61696e20636f6e747261637420616464726573732063616e206f6e6c79206260008201527f6520736574206f6e636500000000000000000000000000000000000000000000602082015250565b7f4552433732313a20617070726f76652063616c6c6572206973206e6f74206f7760008201527f6e6572206e6f7220617070726f76656420666f7220616c6c0000000000000000602082015250565b7f4552433732313a2062616c616e636520717565727920666f7220746865207a6560008201527f726f206164647265737300000000000000000000000000000000000000000000602082015250565b7f4552433732313a206f776e657220717565727920666f72206e6f6e657869737460008201527f656e7420746f6b656e0000000000000000000000000000000000000000000000602082015250565b7f45524337323155524953746f726167653a2055524920736574206f66206e6f6e60008201527f6578697374656e7420746f6b656e000000000000000000000000000000000000602082015250565b7f4552433732313a206d696e7420746f20746865207a65726f2061646472657373600082015250565b7f45524337323155524953746f726167653a2055524920717565727920666f722060008201527f6e6f6e6578697374656e7420746f6b656e000000000000000000000000000000602082015250565b7f4d61696e20636f6e7472616374206e6f74207365740000000000000000000000600082015250565b7f4552433732313a20617070726f76656420717565727920666f72206e6f6e657860008201527f697374656e7420746f6b656e0000000000000000000000000000000000000000602082015250565b7f4f776e61626c653a2063616c6c6572206973206e6f7420746865206f776e6572600082015250565b7f4552433732313a207472616e73666572206f6620746f6b656e2074686174206960008201527f73206e6f74206f776e0000000000000000000000000000000000000000000000602082015250565b7f4552433732314d657461646174613a2055524920717565727920666f72206e6f60008201527f6e6578697374656e7420746f6b656e0000000000000000000000000000000000602082015250565b7f4552433732313a20617070726f76616c20746f2063757272656e74206f776e6560008201527f7200000000000000000000000000000000000000000000000000000000000000602082015250565b7f4552433732313a207472616e736665722063616c6c6572206973206e6f74206f60008201527f776e6572206e6f7220617070726f766564000000000000000000000000000000602082015250565b7f596f7520617265206e6f7420746865206f776e6572206f66207468697320746f60008201527f6b656e0000000000000000000000000000000000000000000000000000000000602082015250565b6149f6816140de565b8114614a0157600080fd5b50565b614a0d816140f0565b8114614a1857600080fd5b50565b614a24816140fc565b8114614a2f57600080fd5b50565b614a3b81614148565b8114614a4657600080fd5b5056fea26469706673582212203dc2b7200b1e4e987e48e8d86198e24d6909880444f38de4e58312441ed2c12264736f6c63430008070033",
  "immutableReferences": {},
  "source": "// SPDX-License-Identifier: MIT\r\npragma solidity ^0.8.7;\r\n\r\nimport \"@openzeppelin/contracts/token/ERC721/ERC721.sol\";\r\nimport \"@openzeppelin/contracts/token/ERC721/extensions/ERC721URIStorage.sol\";\r\nimport \"@openzeppelin/contracts/access/Ownable.sol\";\r\n\r\ncontract NFTFrame is ERC721, ERC721URIStorage, Ownable {\r\n    uint256 private _nextTokenId; //    \r\n    mapping(uint256 => address) public creators; // tokenId   \r\n    mapping(address => uint256[]) private _ownedTokens; //    tokenId \r\n\r\n    // main contract   \r\n    address public mainContractAddress;\r\n\r\n    // main contract   \r\n    function setMainContractAddress(address _mainContractAddress) public {\r\n        require(mainContractAddress == address(0), \"Main contract address can only be set once\");\r\n        require(_mainContractAddress != address(0), \"Invalid main contract address\");\r\n        mainContractAddress = _mainContractAddress;\r\n    }\r\n\r\n    // main contract   modifier\r\n    modifier onlyMainContract() {\r\n        require(mainContractAddress != address(0), \"Main contract not set\");\r\n        require(msg.sender == mainContractAddress, \"Caller is not the main contract\");\r\n        _;\r\n    }\r\n\r\n    //  NFT    \r\n    struct NFTInfo {\r\n        uint256 tokenId;\r\n        address creator;\r\n        address currentOwner;\r\n        string tokenURI;\r\n    }\r\n\r\n    struct NFTInfos {\r\n      NFTInfo[] nfts;\r\n      uint256 nextIndex;\r\n      bool hasNext;\r\n    }\r\n\r\n    event NFTMinted(uint256 indexed tokenId, address indexed creator, string tokenURI);\r\n    event NFTTransferred(uint256 indexed tokenId, address indexed from, address indexed to);\r\n    event TokenURIUpdated(uint256 indexed tokenId, string newTokenURI);\r\n    event NFTBurned(uint256 indexed tokenId);\r\n\r\n    constructor() ERC721(\"NFTFrame\", \"NFTF\") {}\r\n\r\n    //    \r\n    function _addTokenToOwner(address to, uint256 tokenId) private {\r\n        require(ownerOf(tokenId) != address(0), \"Token does not exist\");\r\n        _ownedTokens[to].push(tokenId);\r\n    }\r\n\r\n    //    \r\n    function _removeTokenFromOwner(address from, uint256 tokenId) private {\r\n        require(ownerOf(tokenId) != address(0), \"Token does not exist\");\r\n        uint256[] storage fromTokens = _ownedTokens[from];\r\n        for (uint256 i = 0; i < fromTokens.length; i++) {\r\n            if (fromTokens[i] == tokenId) {\r\n                fromTokens[i] = fromTokens[fromTokens.length - 1];\r\n                fromTokens.pop();\r\n                break;\r\n            }\r\n        }\r\n    }\r\n\r\n    // NFT  (nft , TokenURI  ,  )\r\n    function mintNFT(string memory _tokenURI) public returns (uint256) {\r\n        uint256 tokenId = _nextTokenId++;\r\n\r\n        _safeMint(msg.sender, tokenId);\r\n        _setTokenURI(tokenId, _tokenURI);\r\n        creators[tokenId] = msg.sender;\r\n        _addTokenToOwner(msg.sender, tokenId);\r\n\r\n        emit NFTMinted(tokenId, msg.sender, _tokenURI);\r\n\r\n        return tokenId;\r\n    }\r\n\r\n    // NFT  ()\r\n    function updateOwnTokenURI(uint256 tokenId, string memory newTokenURI) public {\r\n        require(ownerOf(tokenId) != address(0), \"Token does not exist\");\r\n        require(ownerOf(tokenId) == msg.sender, \"You are not the owner of this token\");\r\n        _setTokenURI(tokenId, newTokenURI);\r\n        emit TokenURIUpdated(tokenId, newTokenURI);\r\n    }\r\n\r\n    // NFT  \r\n    function transferNFT(uint256 tokenId, address to) public returns (bool) {\r\n        require(ownerOf(tokenId) != address(0), \"Token does not exist\");\r\n        require(ownerOf(tokenId) == msg.sender, \"You are not the owner of this token\");\r\n        address from = ownerOf(tokenId);\r\n        _removeTokenFromOwner(from, tokenId);\r\n        _transfer(from, to, tokenId);\r\n        _addTokenToOwner(to, tokenId);\r\n        emit NFTTransferred(tokenId, from, to);\r\n\r\n        return true;\r\n    }\r\n\r\n    //   NFT  (  )\r\n    function transferNFTUserToSystem(uint256 tokenId, address from, address to) public onlyMainContract {\r\n        require(ownerOf(tokenId) != address(0), \"Token does not exist\");\r\n        \r\n        _removeTokenFromOwner(from, tokenId);\r\n        _transfer(from, to, tokenId);\r\n        _addTokenToOwner(to, tokenId);\r\n        emit NFTTransferred(tokenId, from, to);\r\n    }\r\n\r\n    // NFT  (   address(0)  )\r\n    function burnNFT(uint256 tokenId) public {\r\n        require(ownerOf(tokenId) != address(0), \"Token does not exist\");\r\n        require(ownerOf(tokenId) == msg.sender, \"You are not the owner of this token\");\r\n        _removeTokenFromOwner(msg.sender, tokenId);\r\n        _burn(tokenId);\r\n        delete creators[tokenId];\r\n        emit NFTBurned(tokenId);\r\n    }\r\n\r\n    // NFT   \r\n    function getNFTInfo(uint256 tokenId) public view returns (NFTInfo memory) {\r\n        require(ownerOf(tokenId) != address(0), \"Token does not exist\");\r\n  \r\n        return NFTInfo({\r\n            tokenId: tokenId,\r\n            creator: creators[tokenId],\r\n            currentOwner: ownerOf(tokenId),\r\n            tokenURI: tokenURI(tokenId)\r\n        });\r\n    }\r\n\r\n    // Id array  \r\n    function getNFTsByIds(uint256[] memory tokenIds) public view returns (NFTInfo[] memory) {\r\n        NFTInfo[] memory result = new NFTInfo[](tokenIds.length);\r\n        \r\n        for (uint256 i = 0; i < tokenIds.length; i++) {\r\n            uint256 tokenId = tokenIds[i];\r\n            if (_exists(tokenId)) {\r\n                result[i] = NFTInfo({\r\n                    tokenId: tokenId,\r\n                    creator: creators[tokenId],\r\n                    currentOwner: ownerOf(tokenId),\r\n                    tokenURI: tokenURI(tokenId)\r\n                });\r\n            } else {\r\n                //   tokenId   \r\n                result[i] = NFTInfo({\r\n                    tokenId: tokenId,\r\n                    creator: address(0),\r\n                    currentOwner: address(0),\r\n                    tokenURI: \"\"\r\n                });\r\n            }\r\n        }\r\n        \r\n        return result;\r\n    }\r\n\r\n    //   NFT Id \r\n    function getUserNFTIds(address user) public view returns (uint256[] memory) {\r\n        return _ownedTokens[user];\r\n    }\r\n\r\n    //  \r\n    function _burn(uint256 tokenId) internal override(ERC721, ERC721URIStorage) {\r\n        super._burn(tokenId);\r\n    }\r\n    function tokenURI(uint256 tokenId) public view override(ERC721, ERC721URIStorage) returns (string memory) {\r\n        return super.tokenURI(tokenId);\r\n    }\r\n    function supportsInterface(bytes4 interfaceId) public view override(ERC721) returns (bool) {\r\n        return super.supportsInterface(interfaceId);\r\n    }\r\n}",
  "sourcePath": "C:\\Users\\SSAFY\\Desktop\\semonemo\\backend\\blockchain-server\\smartcontract\\contracts\\NFTFrame.sol",
  "compiler": {
    "name": "solc",
    "version": "0.8.7+commit.e28d00a7.Emscripten.clang"
  },
  "schemaVersion": "3.4.16",
  "updatedAt": "2024-09-27T00:57:20.640Z",
  "devdoc": {
    "kind": "dev",
    "methods": {
      "approve(address,uint256)": {
        "details": "See {IERC721-approve}."
      },
      "balanceOf(address)": {
        "details": "See {IERC721-balanceOf}."
      },
      "getApproved(uint256)": {
        "details": "See {IERC721-getApproved}."
      },
      "isApprovedForAll(address,address)": {
        "details": "See {IERC721-isApprovedForAll}."
      },
      "name()": {
        "details": "See {IERC721Metadata-name}."
      },
      "owner()": {
        "details": "Returns the address of the current owner."
      },
      "ownerOf(uint256)": {
        "details": "See {IERC721-ownerOf}."
      },
      "renounceOwnership()": {
        "details": "Leaves the contract without owner. It will not be possible to call `onlyOwner` functions anymore. Can only be called by the current owner. NOTE: Renouncing ownership will leave the contract without an owner, thereby removing any functionality that is only available to the owner."
      },
      "safeTransferFrom(address,address,uint256)": {
        "details": "See {IERC721-safeTransferFrom}."
      },
      "safeTransferFrom(address,address,uint256,bytes)": {
        "details": "See {IERC721-safeTransferFrom}."
      },
      "setApprovalForAll(address,bool)": {
        "details": "See {IERC721-setApprovalForAll}."
      },
      "supportsInterface(bytes4)": {
        "details": "See {IERC165-supportsInterface}."
      },
      "symbol()": {
        "details": "See {IERC721Metadata-symbol}."
      },
      "transferFrom(address,address,uint256)": {
        "details": "See {IERC721-transferFrom}."
      },
      "transferOwnership(address)": {
        "details": "Transfers ownership of the contract to a new account (`newOwner`). Can only be called by the current owner."
      }
    },
    "version": 1
  },
  "userdoc": {
    "kind": "user",
    "methods": {},
    "version": 1
  }
}