{
  "contractName": "NFTFrame",
  "abi": [
    {
      "inputs": [],
      "stateMutability": "nonpayable",
      "type": "constructor"
    },
    {
      "anonymous": false,
      "inputs": [
        {
          "indexed": true,
          "internalType": "address",
          "name": "owner",
          "type": "address"
        },
        {
          "indexed": true,
          "internalType": "address",
          "name": "approved",
          "type": "address"
        },
        {
          "indexed": true,
          "internalType": "uint256",
          "name": "tokenId",
          "type": "uint256"
        }
      ],
      "name": "Approval",
      "type": "event"
    },
    {
      "anonymous": false,
      "inputs": [
        {
          "indexed": true,
          "internalType": "address",
          "name": "owner",
          "type": "address"
        },
        {
          "indexed": true,
          "internalType": "address",
          "name": "operator",
          "type": "address"
        },
        {
          "indexed": false,
          "internalType": "bool",
          "name": "approved",
          "type": "bool"
        }
      ],
      "name": "ApprovalForAll",
      "type": "event"
    },
    {
      "anonymous": false,
      "inputs": [
        {
          "indexed": true,
          "internalType": "uint256",
          "name": "tokenId",
          "type": "uint256"
        }
      ],
      "name": "NFTBurned",
      "type": "event"
    },
    {
      "anonymous": false,
      "inputs": [
        {
          "indexed": true,
          "internalType": "uint256",
          "name": "tokenId",
          "type": "uint256"
        },
        {
          "indexed": true,
          "internalType": "address",
          "name": "creator",
          "type": "address"
        },
        {
          "indexed": false,
          "internalType": "string",
          "name": "tokenURI",
          "type": "string"
        }
      ],
      "name": "NFTMinted",
      "type": "event"
    },
    {
      "anonymous": false,
      "inputs": [
        {
          "indexed": true,
          "internalType": "uint256",
          "name": "tokenId",
          "type": "uint256"
        },
        {
          "indexed": true,
          "internalType": "address",
          "name": "from",
          "type": "address"
        },
        {
          "indexed": true,
          "internalType": "address",
          "name": "to",
          "type": "address"
        }
      ],
      "name": "NFTTransferred",
      "type": "event"
    },
    {
      "anonymous": false,
      "inputs": [
        {
          "indexed": true,
          "internalType": "address",
          "name": "previousOwner",
          "type": "address"
        },
        {
          "indexed": true,
          "internalType": "address",
          "name": "newOwner",
          "type": "address"
        }
      ],
      "name": "OwnershipTransferred",
      "type": "event"
    },
    {
      "anonymous": false,
      "inputs": [
        {
          "indexed": true,
          "internalType": "uint256",
          "name": "tokenId",
          "type": "uint256"
        },
        {
          "indexed": false,
          "internalType": "string",
          "name": "newTokenURI",
          "type": "string"
        }
      ],
      "name": "TokenURIUpdated",
      "type": "event"
    },
    {
      "anonymous": false,
      "inputs": [
        {
          "indexed": true,
          "internalType": "address",
          "name": "from",
          "type": "address"
        },
        {
          "indexed": true,
          "internalType": "address",
          "name": "to",
          "type": "address"
        },
        {
          "indexed": true,
          "internalType": "uint256",
          "name": "tokenId",
          "type": "uint256"
        }
      ],
      "name": "Transfer",
      "type": "event"
    },
    {
      "inputs": [
        {
          "internalType": "address",
          "name": "to",
          "type": "address"
        },
        {
          "internalType": "uint256",
          "name": "tokenId",
          "type": "uint256"
        }
      ],
      "name": "approve",
      "outputs": [],
      "stateMutability": "nonpayable",
      "type": "function"
    },
    {
      "inputs": [
        {
          "internalType": "address",
          "name": "owner",
          "type": "address"
        }
      ],
      "name": "balanceOf",
      "outputs": [
        {
          "internalType": "uint256",
          "name": "",
          "type": "uint256"
        }
      ],
      "stateMutability": "view",
      "type": "function",
      "constant": true
    },
    {
      "inputs": [
        {
          "internalType": "uint256",
          "name": "",
          "type": "uint256"
        }
      ],
      "name": "creators",
      "outputs": [
        {
          "internalType": "address",
          "name": "",
          "type": "address"
        }
      ],
      "stateMutability": "view",
      "type": "function",
      "constant": true
    },
    {
      "inputs": [
        {
          "internalType": "uint256",
          "name": "tokenId",
          "type": "uint256"
        }
      ],
      "name": "getApproved",
      "outputs": [
        {
          "internalType": "address",
          "name": "",
          "type": "address"
        }
      ],
      "stateMutability": "view",
      "type": "function",
      "constant": true
    },
    {
      "inputs": [
        {
          "internalType": "address",
          "name": "owner",
          "type": "address"
        },
        {
          "internalType": "address",
          "name": "operator",
          "type": "address"
        }
      ],
      "name": "isApprovedForAll",
      "outputs": [
        {
          "internalType": "bool",
          "name": "",
          "type": "bool"
        }
      ],
      "stateMutability": "view",
      "type": "function",
      "constant": true
    },
    {
      "inputs": [],
      "name": "mainContractAddress",
      "outputs": [
        {
          "internalType": "address",
          "name": "",
          "type": "address"
        }
      ],
      "stateMutability": "view",
      "type": "function",
      "constant": true
    },
    {
      "inputs": [],
      "name": "name",
      "outputs": [
        {
          "internalType": "string",
          "name": "",
          "type": "string"
        }
      ],
      "stateMutability": "view",
      "type": "function",
      "constant": true
    },
    {
      "inputs": [],
      "name": "owner",
      "outputs": [
        {
          "internalType": "address",
          "name": "",
          "type": "address"
        }
      ],
      "stateMutability": "view",
      "type": "function",
      "constant": true
    },
    {
      "inputs": [
        {
          "internalType": "uint256",
          "name": "tokenId",
          "type": "uint256"
        }
      ],
      "name": "ownerOf",
      "outputs": [
        {
          "internalType": "address",
          "name": "",
          "type": "address"
        }
      ],
      "stateMutability": "view",
      "type": "function",
      "constant": true
    },
    {
      "inputs": [],
      "name": "renounceOwnership",
      "outputs": [],
      "stateMutability": "nonpayable",
      "type": "function"
    },
    {
      "inputs": [
        {
          "internalType": "address",
          "name": "from",
          "type": "address"
        },
        {
          "internalType": "address",
          "name": "to",
          "type": "address"
        },
        {
          "internalType": "uint256",
          "name": "tokenId",
          "type": "uint256"
        }
      ],
      "name": "safeTransferFrom",
      "outputs": [],
      "stateMutability": "nonpayable",
      "type": "function"
    },
    {
      "inputs": [
        {
          "internalType": "address",
          "name": "from",
          "type": "address"
        },
        {
          "internalType": "address",
          "name": "to",
          "type": "address"
        },
        {
          "internalType": "uint256",
          "name": "tokenId",
          "type": "uint256"
        },
        {
          "internalType": "bytes",
          "name": "_data",
          "type": "bytes"
        }
      ],
      "name": "safeTransferFrom",
      "outputs": [],
      "stateMutability": "nonpayable",
      "type": "function"
    },
    {
      "inputs": [
        {
          "internalType": "address",
          "name": "operator",
          "type": "address"
        },
        {
          "internalType": "bool",
          "name": "approved",
          "type": "bool"
        }
      ],
      "name": "setApprovalForAll",
      "outputs": [],
      "stateMutability": "nonpayable",
      "type": "function"
    },
    {
      "inputs": [],
      "name": "symbol",
      "outputs": [
        {
          "internalType": "string",
          "name": "",
          "type": "string"
        }
      ],
      "stateMutability": "view",
      "type": "function",
      "constant": true
    },
    {
      "inputs": [
        {
          "internalType": "address",
          "name": "from",
          "type": "address"
        },
        {
          "internalType": "address",
          "name": "to",
          "type": "address"
        },
        {
          "internalType": "uint256",
          "name": "tokenId",
          "type": "uint256"
        }
      ],
      "name": "transferFrom",
      "outputs": [],
      "stateMutability": "nonpayable",
      "type": "function"
    },
    {
      "inputs": [
        {
          "internalType": "address",
          "name": "newOwner",
          "type": "address"
        }
      ],
      "name": "transferOwnership",
      "outputs": [],
      "stateMutability": "nonpayable",
      "type": "function"
    },
    {
      "inputs": [
        {
          "internalType": "address",
          "name": "_mainContractAddress",
          "type": "address"
        }
      ],
      "name": "setMainContractAddress",
      "outputs": [],
      "stateMutability": "nonpayable",
      "type": "function"
    },
    {
      "inputs": [
        {
          "internalType": "string",
          "name": "_tokenURI",
          "type": "string"
        }
      ],
      "name": "mintNFT",
      "outputs": [
        {
          "internalType": "uint256",
          "name": "",
          "type": "uint256"
        }
      ],
      "stateMutability": "nonpayable",
      "type": "function"
    },
    {
      "inputs": [
        {
          "internalType": "uint256",
          "name": "tokenId",
          "type": "uint256"
        },
        {
          "internalType": "address",
          "name": "from",
          "type": "address"
        },
        {
          "internalType": "address",
          "name": "to",
          "type": "address"
        }
      ],
      "name": "transferNFTByAdmin",
      "outputs": [],
      "stateMutability": "nonpayable",
      "type": "function"
    },
    {
      "inputs": [
        {
          "internalType": "uint256",
          "name": "tokenId",
          "type": "uint256"
        }
      ],
      "name": "burnNFT",
      "outputs": [],
      "stateMutability": "nonpayable",
      "type": "function"
    },
    {
      "inputs": [
        {
          "internalType": "uint256",
          "name": "tokenId",
          "type": "uint256"
        }
      ],
      "name": "getNFTInfo",
      "outputs": [
        {
          "components": [
            {
              "internalType": "uint256",
              "name": "tokenId",
              "type": "uint256"
            },
            {
              "internalType": "address",
              "name": "creator",
              "type": "address"
            },
            {
              "internalType": "address",
              "name": "currentOwner",
              "type": "address"
            },
            {
              "internalType": "string",
              "name": "tokenURI",
              "type": "string"
            }
          ],
          "internalType": "struct NFTFrame.NFTInfo",
          "name": "",
          "type": "tuple"
        }
      ],
      "stateMutability": "view",
      "type": "function",
      "constant": true
    },
    {
      "inputs": [
        {
          "internalType": "uint256[]",
          "name": "tokenIds",
          "type": "uint256[]"
        }
      ],
      "name": "getNFTsByIds",
      "outputs": [
        {
          "components": [
            {
              "internalType": "uint256",
              "name": "tokenId",
              "type": "uint256"
            },
            {
              "internalType": "address",
              "name": "creator",
              "type": "address"
            },
            {
              "internalType": "address",
              "name": "currentOwner",
              "type": "address"
            },
            {
              "internalType": "string",
              "name": "tokenURI",
              "type": "string"
            }
          ],
          "internalType": "struct NFTFrame.NFTInfo[]",
          "name": "",
          "type": "tuple[]"
        }
      ],
      "stateMutability": "view",
      "type": "function",
      "constant": true
    },
    {
      "inputs": [
        {
          "internalType": "address",
          "name": "user",
          "type": "address"
        }
      ],
      "name": "getUserNFTIds",
      "outputs": [
        {
          "internalType": "uint256[]",
          "name": "",
          "type": "uint256[]"
        }
      ],
      "stateMutability": "view",
      "type": "function",
      "constant": true
    },
    {
      "inputs": [
        {
          "internalType": "uint256",
          "name": "tokenId",
          "type": "uint256"
        }
      ],
      "name": "tokenURI",
      "outputs": [
        {
          "internalType": "string",
          "name": "",
          "type": "string"
        }
      ],
      "stateMutability": "view",
      "type": "function",
      "constant": true
    },
    {
      "inputs": [
        {
          "internalType": "bytes4",
          "name": "interfaceId",
          "type": "bytes4"
        }
      ],
      "name": "supportsInterface",
      "outputs": [
        {
          "internalType": "bool",
          "name": "",
          "type": "bool"
        }
      ],
      "stateMutability": "view",
      "type": "function",
      "constant": true
    }
  ],
  "bytecode": "0x60806040523480156200001157600080fd5b506040518060400160405280600881526020017f4e46544672616d650000000000000000000000000000000000000000000000008152506040518060400160405280600481526020017f4e46544600000000000000000000000000000000000000000000000000000000815250816000908051906020019062000096929190620001a6565b508060019080519060200190620000af929190620001a6565b505050620000d2620000c6620000d860201b60201c565b620000e060201b60201c565b620002bb565b600033905090565b6000600760009054906101000a900473ffffffffffffffffffffffffffffffffffffffff16905081600760006101000a81548173ffffffffffffffffffffffffffffffffffffffff021916908373ffffffffffffffffffffffffffffffffffffffff1602179055508173ffffffffffffffffffffffffffffffffffffffff168173ffffffffffffffffffffffffffffffffffffffff167f8be0079c531659141344cd1fd0a4f28419497f9722a3daafe3b4186f6b6457e060405160405180910390a35050565b828054620001b49062000256565b90600052602060002090601f016020900481019282620001d8576000855562000224565b82601f10620001f357805160ff191683800117855562000224565b8280016001018555821562000224579182015b828111156200022357825182559160200191906001019062000206565b5b50905062000233919062000237565b5090565b5b808211156200025257600081600090555060010162000238565b5090565b600060028204905060018216806200026f57607f821691505b602082108114156200028657620002856200028c565b5b50919050565b7f4e487b7100000000000000000000000000000000000000000000000000000000600052602260045260246000fd5b61472480620002cb6000396000f3fe608060405234801561001057600080fd5b50600436106101735760003560e01c80638da5cb5b116100de578063d188929f11610097578063e985e9c511610071578063e985e9c51461046e578063ec9da59e1461049e578063f2fde38b146104ba578063fb37e883146104d657610173565b8063d188929f146103f0578063da6b735614610420578063e6b1fa2a1461043e57610173565b80638da5cb5b1461031c57806395d89b411461033a578063a22cb46514610358578063b88d4fde14610374578063c87b56dd14610390578063cd53d08e146103c057610173565b80632890e0d7116101305780632890e0d71461025e57806335b9594c1461027a57806342842e0e146102965780636352211e146102b257806370a08231146102e2578063715018a61461031257610173565b8063016ae9311461017857806301ffc9a7146101a857806306fdde03146101d8578063081812fc146101f6578063095ea7b31461022657806323b872dd14610242575b600080fd5b610192600480360381019061018d9190612f66565b610506565b60405161019f9190613791565b60405180910390f35b6101c260048036038101906101bd9190612faf565b6106e8565b6040516101cf91906137d5565b60405180910390f35b6101e06106fa565b6040516101ed91906137f0565b60405180910390f35b610210600480360381019061020b9190613052565b61078c565b60405161021d919061372a565b60405180910390f35b610240600480360381019061023b9190612f26565b610811565b005b61025c60048036038101906102579190612e10565b610929565b005b61027860048036038101906102739190613052565b610989565b005b610294600480360381019061028f919061307f565b610af0565b005b6102b060048036038101906102ab9190612e10565b610d81565b005b6102cc60048036038101906102c79190613052565b610da1565b6040516102d9919061372a565b60405180910390f35b6102fc60048036038101906102f79190612da3565b610e53565b6040516103099190613b34565b60405180910390f35b61031a610f0b565b005b610324610f93565b604051610331919061372a565b60405180910390f35b610342610fbd565b60405161034f91906137f0565b60405180910390f35b610372600480360381019061036d9190612ee6565b61104f565b005b61038e60048036038101906103899190612e63565b6111d0565b005b6103aa60048036038101906103a59190613052565b611232565b6040516103b791906137f0565b60405180910390f35b6103da60048036038101906103d59190613052565b611244565b6040516103e7919061372a565b60405180910390f35b61040a60048036038101906104059190613052565b611277565b6040516104179190613b12565b60405180910390f35b61042861138e565b604051610435919061372a565b60405180910390f35b61045860048036038101906104539190612da3565b6113b4565b60405161046591906137b3565b60405180910390f35b61048860048036038101906104839190612dd0565b61144b565b60405161049591906137d5565b60405180910390f35b6104b860048036038101906104b39190612da3565b6114df565b005b6104d460048036038101906104cf9190612da3565b611624565b005b6104f060048036038101906104eb9190613009565b61171c565b6040516104fd9190613b34565b60405180910390f35b60606000825167ffffffffffffffff81111561052557610524614001565b5b60405190808252806020026020018201604052801561055e57816020015b61054b612a85565b8152602001906001900390816105435790505b50905060005b83518110156106de57600084828151811061058257610581613fd2565b5b6020026020010151905061059581611800565b1561064d5760405180608001604052808281526020016009600084815260200190815260200160002060009054906101000a900473ffffffffffffffffffffffffffffffffffffffff1673ffffffffffffffffffffffffffffffffffffffff16815260200161060383610da1565b73ffffffffffffffffffffffffffffffffffffffff16815260200161062783611232565b81525083838151811061063d5761063c613fd2565b5b60200260200101819052506106ca565b6040518060800160405280828152602001600073ffffffffffffffffffffffffffffffffffffffff168152602001600073ffffffffffffffffffffffffffffffffffffffff168152602001604051806020016040528060008152508152508383815181106106be576106bd613fd2565b5b60200260200101819052505b5080806106d690613e9c565b915050610564565b5080915050919050565b60006106f38261186c565b9050919050565b60606000805461070990613e39565b80601f016020809104026020016040519081016040528092919081815260200182805461073590613e39565b80156107825780601f1061075757610100808354040283529160200191610782565b820191906000526020600020905b81548152906001019060200180831161076557829003601f168201915b5050505050905090565b600061079782611800565b6107d6576040517f08c379a00000000000000000000000000000000000000000000000000000000081526004016107cd90613a32565b60405180910390fd5b6004600083815260200190815260200160002060009054906101000a900473ffffffffffffffffffffffffffffffffffffffff169050919050565b600061081c82610da1565b90508073ffffffffffffffffffffffffffffffffffffffff168373ffffffffffffffffffffffffffffffffffffffff16141561088d576040517f08c379a000000000000000000000000000000000000000000000000000000000815260040161088490613ab2565b60405180910390fd5b8073ffffffffffffffffffffffffffffffffffffffff166108ac61194e565b73ffffffffffffffffffffffffffffffffffffffff1614806108db57506108da816108d561194e565b61144b565b5b61091a576040517f08c379a000000000000000000000000000000000000000000000000000000000815260040161091190613952565b60405180910390fd5b6109248383611956565b505050565b61093a61093461194e565b82611a0f565b610979576040517f08c379a000000000000000000000000000000000000000000000000000000000815260040161097090613ad2565b60405180910390fd5b610984838383611aed565b505050565b600073ffffffffffffffffffffffffffffffffffffffff166109aa82610da1565b73ffffffffffffffffffffffffffffffffffffffff161415610a01576040517f08c379a00000000000000000000000000000000000000000000000000000000081526004016109f8906138f2565b60405180910390fd5b3373ffffffffffffffffffffffffffffffffffffffff16610a2182610da1565b73ffffffffffffffffffffffffffffffffffffffff1614610a77576040517f08c379a0000000000000000000000000000000000000000000000000000000008152600401610a6e90613af2565b60405180910390fd5b610a813382611d49565b610a8a81611ecc565b6009600082815260200190815260200160002060006101000a81549073ffffffffffffffffffffffffffffffffffffffff0219169055807f3c176691ca154a2f6fe978a2a633a33ee77dbe2902e67a75400720845a4b2ce160405160405180910390a250565b600073ffffffffffffffffffffffffffffffffffffffff16600b60009054906101000a900473ffffffffffffffffffffffffffffffffffffffff1673ffffffffffffffffffffffffffffffffffffffff161415610b82576040517f08c379a0000000000000000000000000000000000000000000000000000000008152600401610b7990613a12565b60405180910390fd5b600b60009054906101000a900473ffffffffffffffffffffffffffffffffffffffff1673ffffffffffffffffffffffffffffffffffffffff163373ffffffffffffffffffffffffffffffffffffffff1614610c12576040517f08c379a0000000000000000000000000000000000000000000000000000000008152600401610c0990613832565b60405180910390fd5b600073ffffffffffffffffffffffffffffffffffffffff16610c3384610da1565b73ffffffffffffffffffffffffffffffffffffffff161415610c8a576040517f08c379a0000000000000000000000000000000000000000000000000000000008152600401610c81906138f2565b60405180910390fd5b600073ffffffffffffffffffffffffffffffffffffffff16610cab84610da1565b73ffffffffffffffffffffffffffffffffffffffff161415610d02576040517f08c379a0000000000000000000000000000000000000000000000000000000008152600401610cf9906138f2565b60405180910390fd5b610d0c8284611d49565b610d17828285611aed565b610d218184611ed8565b8073ffffffffffffffffffffffffffffffffffffffff168273ffffffffffffffffffffffffffffffffffffffff16847f67043fac5fd2bf9edbb46ee495aaed7f97f91d43507d373be2b592af19b8c0a860405160405180910390a4505050565b610d9c838383604051806020016040528060008152506111d0565b505050565b6000806002600084815260200190815260200160002060009054906101000a900473ffffffffffffffffffffffffffffffffffffffff169050600073ffffffffffffffffffffffffffffffffffffffff168173ffffffffffffffffffffffffffffffffffffffff161415610e4a576040517f08c379a0000000000000000000000000000000000000000000000000000000008152600401610e4190613992565b60405180910390fd5b80915050919050565b60008073ffffffffffffffffffffffffffffffffffffffff168273ffffffffffffffffffffffffffffffffffffffff161415610ec4576040517f08c379a0000000000000000000000000000000000000000000000000000000008152600401610ebb90613972565b60405180910390fd5b600360008373ffffffffffffffffffffffffffffffffffffffff1673ffffffffffffffffffffffffffffffffffffffff168152602001908152602001600020549050919050565b610f1361194e565b73ffffffffffffffffffffffffffffffffffffffff16610f31610f93565b73ffffffffffffffffffffffffffffffffffffffff1614610f87576040517f08c379a0000000000000000000000000000000000000000000000000000000008152600401610f7e90613a52565b60405180910390fd5b610f916000611fba565b565b6000600760009054906101000a900473ffffffffffffffffffffffffffffffffffffffff16905090565b606060018054610fcc90613e39565b80601f0160208091040260200160405190810160405280929190818152602001828054610ff890613e39565b80156110455780601f1061101a57610100808354040283529160200191611045565b820191906000526020600020905b81548152906001019060200180831161102857829003601f168201915b5050505050905090565b61105761194e565b73ffffffffffffffffffffffffffffffffffffffff168273ffffffffffffffffffffffffffffffffffffffff1614156110c5576040517f08c379a00000000000000000000000000000000000000000000000000000000081526004016110bc906138d2565b60405180910390fd5b80600560006110d261194e565b73ffffffffffffffffffffffffffffffffffffffff1673ffffffffffffffffffffffffffffffffffffffff16815260200190815260200160002060008473ffffffffffffffffffffffffffffffffffffffff1673ffffffffffffffffffffffffffffffffffffffff16815260200190815260200160002060006101000a81548160ff0219169083151502179055508173ffffffffffffffffffffffffffffffffffffffff1661117f61194e565b73ffffffffffffffffffffffffffffffffffffffff167f17307eab39ab6107e8899845ad3d59bd9653f200f220920489ca2b5937696c31836040516111c491906137d5565b60405180910390a35050565b6111e16111db61194e565b83611a0f565b611220576040517f08c379a000000000000000000000000000000000000000000000000000000000815260040161121790613ad2565b60405180910390fd5b61122c84848484612080565b50505050565b606061123d826120dc565b9050919050565b60096020528060005260406000206000915054906101000a900473ffffffffffffffffffffffffffffffffffffffff1681565b61127f612a85565b600073ffffffffffffffffffffffffffffffffffffffff166112a083610da1565b73ffffffffffffffffffffffffffffffffffffffff1614156112f7576040517f08c379a00000000000000000000000000000000000000000000000000000000081526004016112ee906138f2565b60405180910390fd5b60405180608001604052808381526020016009600085815260200190815260200160002060009054906101000a900473ffffffffffffffffffffffffffffffffffffffff1673ffffffffffffffffffffffffffffffffffffffff16815260200161136084610da1565b73ffffffffffffffffffffffffffffffffffffffff16815260200161138484611232565b8152509050919050565b600b60009054906101000a900473ffffffffffffffffffffffffffffffffffffffff1681565b6060600a60008373ffffffffffffffffffffffffffffffffffffffff1673ffffffffffffffffffffffffffffffffffffffff16815260200190815260200160002080548060200260200160405190810160405280929190818152602001828054801561143f57602002820191906000526020600020905b81548152602001906001019080831161142b575b50505050509050919050565b6000600560008473ffffffffffffffffffffffffffffffffffffffff1673ffffffffffffffffffffffffffffffffffffffff16815260200190815260200160002060008373ffffffffffffffffffffffffffffffffffffffff1673ffffffffffffffffffffffffffffffffffffffff16815260200190815260200160002060009054906101000a900460ff16905092915050565b600073ffffffffffffffffffffffffffffffffffffffff16600b60009054906101000a900473ffffffffffffffffffffffffffffffffffffffff1673ffffffffffffffffffffffffffffffffffffffff1614611570576040517f08c379a000000000000000000000000000000000000000000000000000000000815260040161156790613932565b60405180910390fd5b600073ffffffffffffffffffffffffffffffffffffffff168173ffffffffffffffffffffffffffffffffffffffff1614156115e0576040517f08c379a00000000000000000000000000000000000000000000000000000000081526004016115d790613872565b60405180910390fd5b80600b60006101000a81548173ffffffffffffffffffffffffffffffffffffffff021916908373ffffffffffffffffffffffffffffffffffffffff16021790555050565b61162c61194e565b73ffffffffffffffffffffffffffffffffffffffff1661164a610f93565b73ffffffffffffffffffffffffffffffffffffffff16146116a0576040517f08c379a000000000000000000000000000000000000000000000000000000000815260040161169790613a52565b60405180910390fd5b600073ffffffffffffffffffffffffffffffffffffffff168173ffffffffffffffffffffffffffffffffffffffff161415611710576040517f08c379a000000000000000000000000000000000000000000000000000000000815260040161170790613852565b60405180910390fd5b61171981611fba565b50565b6000806008600081548092919061173290613e9c565b919050559050611742338261222e565b61174c818461224c565b336009600083815260200190815260200160002060006101000a81548173ffffffffffffffffffffffffffffffffffffffff021916908373ffffffffffffffffffffffffffffffffffffffff1602179055506117a83382611ed8565b3373ffffffffffffffffffffffffffffffffffffffff16817f06becd955c918828f6e985541acbf49cc842c9e9bd569fffc7698e721ef13575856040516117ef91906137f0565b60405180910390a380915050919050565b60008073ffffffffffffffffffffffffffffffffffffffff166002600084815260200190815260200160002060009054906101000a900473ffffffffffffffffffffffffffffffffffffffff1673ffffffffffffffffffffffffffffffffffffffff1614159050919050565b60007f80ac58cd000000000000000000000000000000000000000000000000000000007bffffffffffffffffffffffffffffffffffffffffffffffffffffffff1916827bffffffffffffffffffffffffffffffffffffffffffffffffffffffff1916148061193757507f5b5e139f000000000000000000000000000000000000000000000000000000007bffffffffffffffffffffffffffffffffffffffffffffffffffffffff1916827bffffffffffffffffffffffffffffffffffffffffffffffffffffffff1916145b806119475750611946826122c0565b5b9050919050565b600033905090565b816004600083815260200190815260200160002060006101000a81548173ffffffffffffffffffffffffffffffffffffffff021916908373ffffffffffffffffffffffffffffffffffffffff160217905550808273ffffffffffffffffffffffffffffffffffffffff166119c983610da1565b73ffffffffffffffffffffffffffffffffffffffff167f8c5be1e5ebec7d5bd14f71427d1e84f3dd0314c0f7b2291e5b200ac8c7c3b92560405160405180910390a45050565b6000611a1a82611800565b611a59576040517f08c379a0000000000000000000000000000000000000000000000000000000008152600401611a5090613912565b60405180910390fd5b6000611a6483610da1565b90508073ffffffffffffffffffffffffffffffffffffffff168473ffffffffffffffffffffffffffffffffffffffff161480611ad357508373ffffffffffffffffffffffffffffffffffffffff16611abb8461078c565b73ffffffffffffffffffffffffffffffffffffffff16145b80611ae45750611ae3818561144b565b5b91505092915050565b8273ffffffffffffffffffffffffffffffffffffffff16611b0d82610da1565b73ffffffffffffffffffffffffffffffffffffffff1614611b63576040517f08c379a0000000000000000000000000000000000000000000000000000000008152600401611b5a90613a72565b60405180910390fd5b600073ffffffffffffffffffffffffffffffffffffffff168273ffffffffffffffffffffffffffffffffffffffff161415611bd3576040517f08c379a0000000000000000000000000000000000000000000000000000000008152600401611bca906138b2565b60405180910390fd5b611bde83838361232a565b611be9600082611956565b6001600360008573ffffffffffffffffffffffffffffffffffffffff1673ffffffffffffffffffffffffffffffffffffffff1681526020019081526020016000206000828254611c399190613d4f565b925050819055506001600360008473ffffffffffffffffffffffffffffffffffffffff1673ffffffffffffffffffffffffffffffffffffffff1681526020019081526020016000206000828254611c909190613cc8565b92505081905550816002600083815260200190815260200160002060006101000a81548173ffffffffffffffffffffffffffffffffffffffff021916908373ffffffffffffffffffffffffffffffffffffffff160217905550808273ffffffffffffffffffffffffffffffffffffffff168473ffffffffffffffffffffffffffffffffffffffff167fddf252ad1be2c89b69c2b068fc378daa952ba7f163c4a11628f55a4df523b3ef60405160405180910390a4505050565b600073ffffffffffffffffffffffffffffffffffffffff16611d6a82610da1565b73ffffffffffffffffffffffffffffffffffffffff161415611dc1576040517f08c379a0000000000000000000000000000000000000000000000000000000008152600401611db8906138f2565b60405180910390fd5b6000600a60008473ffffffffffffffffffffffffffffffffffffffff1673ffffffffffffffffffffffffffffffffffffffff168152602001908152602001600020905060005b8180549050811015611ec65782828281548110611e2757611e26613fd2565b5b90600052602060002001541415611eb3578160018380549050611e4a9190613d4f565b81548110611e5b57611e5a613fd2565b5b9060005260206000200154828281548110611e7957611e78613fd2565b5b906000526020600020018190555081805480611e9857611e97613fa3565b5b60019003818190600052602060002001600090559055611ec6565b8080611ebe90613e9c565b915050611e07565b50505050565b611ed58161232f565b50565b600073ffffffffffffffffffffffffffffffffffffffff16611ef982610da1565b73ffffffffffffffffffffffffffffffffffffffff161415611f50576040517f08c379a0000000000000000000000000000000000000000000000000000000008152600401611f47906138f2565b60405180910390fd5b600a60008373ffffffffffffffffffffffffffffffffffffffff1673ffffffffffffffffffffffffffffffffffffffff1681526020019081526020016000208190806001815401808255809150506001900390600052602060002001600090919091909150555050565b6000600760009054906101000a900473ffffffffffffffffffffffffffffffffffffffff16905081600760006101000a81548173ffffffffffffffffffffffffffffffffffffffff021916908373ffffffffffffffffffffffffffffffffffffffff1602179055508173ffffffffffffffffffffffffffffffffffffffff168173ffffffffffffffffffffffffffffffffffffffff167f8be0079c531659141344cd1fd0a4f28419497f9722a3daafe3b4186f6b6457e060405160405180910390a35050565b61208b848484611aed565b61209784848484612382565b6120d6576040517f08c379a00000000000000000000000000000000000000000000000000000000081526004016120cd90613812565b60405180910390fd5b50505050565b60606120e782611800565b612126576040517f08c379a000000000000000000000000000000000000000000000000000000000815260040161211d906139f2565b60405180910390fd5b600060066000848152602001908152602001600020805461214690613e39565b80601f016020809104026020016040519081016040528092919081815260200182805461217290613e39565b80156121bf5780601f10612194576101008083540402835291602001916121bf565b820191906000526020600020905b8154815290600101906020018083116121a257829003601f168201915b5050505050905060006121d0612519565b90506000815114156121e6578192505050612229565b60008251111561221b578082604051602001612203929190613706565b60405160208183030381529060405292505050612229565b61222484612530565b925050505b919050565b6122488282604051806020016040528060008152506125d7565b5050565b61225582611800565b612294576040517f08c379a000000000000000000000000000000000000000000000000000000000815260040161228b906139b2565b60405180910390fd5b806006600084815260200190815260200160002090805190602001906122bb929190612ad9565b505050565b60007f01ffc9a7000000000000000000000000000000000000000000000000000000007bffffffffffffffffffffffffffffffffffffffffffffffffffffffff1916827bffffffffffffffffffffffffffffffffffffffffffffffffffffffff1916149050919050565b505050565b61233881612632565b600060066000838152602001908152602001600020805461235890613e39565b90501461237f5760066000828152602001908152602001600020600061237e9190612b5f565b5b50565b60006123a38473ffffffffffffffffffffffffffffffffffffffff16612743565b1561250c578373ffffffffffffffffffffffffffffffffffffffff1663150b7a026123cc61194e565b8786866040518563ffffffff1660e01b81526004016123ee9493929190613745565b602060405180830381600087803b15801561240857600080fd5b505af192505050801561243957506040513d601f19601f820116820180604052508101906124369190612fdc565b60015b6124bc573d8060008114612469576040519150601f19603f3d011682016040523d82523d6000602084013e61246e565b606091505b506000815114156124b4576040517f08c379a00000000000000000000000000000000000000000000000000000000081526004016124ab90613812565b60405180910390fd5b805181602001fd5b63150b7a0260e01b7bffffffffffffffffffffffffffffffffffffffffffffffffffffffff1916817bffffffffffffffffffffffffffffffffffffffffffffffffffffffff191614915050612511565b600190505b949350505050565b606060405180602001604052806000815250905090565b606061253b82611800565b61257a576040517f08c379a000000000000000000000000000000000000000000000000000000000815260040161257190613a92565b60405180910390fd5b6000612584612519565b905060008151116125a457604051806020016040528060008152506125cf565b806125ae84612756565b6040516020016125bf929190613706565b6040516020818303038152906040525b915050919050565b6125e183836128b7565b6125ee6000848484612382565b61262d576040517f08c379a000000000000000000000000000000000000000000000000000000000815260040161262490613812565b60405180910390fd5b505050565b600061263d82610da1565b905061264b8160008461232a565b612656600083611956565b6001600360008373ffffffffffffffffffffffffffffffffffffffff1673ffffffffffffffffffffffffffffffffffffffff16815260200190815260200160002060008282546126a69190613d4f565b925050819055506002600083815260200190815260200160002060006101000a81549073ffffffffffffffffffffffffffffffffffffffff021916905581600073ffffffffffffffffffffffffffffffffffffffff168273ffffffffffffffffffffffffffffffffffffffff167fddf252ad1be2c89b69c2b068fc378daa952ba7f163c4a11628f55a4df523b3ef60405160405180910390a45050565b600080823b905060008111915050919050565b6060600082141561279e576040518060400160405280600181526020017f300000000000000000000000000000000000000000000000000000000000000081525090506128b2565b600082905060005b600082146127d05780806127b990613e9c565b915050600a826127c99190613d1e565b91506127a6565b60008167ffffffffffffffff8111156127ec576127eb614001565b5b6040519080825280601f01601f19166020018201604052801561281e5781602001600182028036833780820191505090505b5090505b600085146128ab576001826128379190613d4f565b9150600a856128469190613ee5565b60306128529190613cc8565b60f81b81838151811061286857612867613fd2565b5b60200101907effffffffffffffffffffffffffffffffffffffffffffffffffffffffffffff1916908160001a905350600a856128a49190613d1e565b9450612822565b8093505050505b919050565b600073ffffffffffffffffffffffffffffffffffffffff168273ffffffffffffffffffffffffffffffffffffffff161415612927576040517f08c379a000000000000000000000000000000000000000000000000000000000815260040161291e906139d2565b60405180910390fd5b61293081611800565b15612970576040517f08c379a000000000000000000000000000000000000000000000000000000000815260040161296790613892565b60405180910390fd5b61297c6000838361232a565b6001600360008473ffffffffffffffffffffffffffffffffffffffff1673ffffffffffffffffffffffffffffffffffffffff16815260200190815260200160002060008282546129cc9190613cc8565b92505081905550816002600083815260200190815260200160002060006101000a81548173ffffffffffffffffffffffffffffffffffffffff021916908373ffffffffffffffffffffffffffffffffffffffff160217905550808273ffffffffffffffffffffffffffffffffffffffff16600073ffffffffffffffffffffffffffffffffffffffff167fddf252ad1be2c89b69c2b068fc378daa952ba7f163c4a11628f55a4df523b3ef60405160405180910390a45050565b604051806080016040528060008152602001600073ffffffffffffffffffffffffffffffffffffffff168152602001600073ffffffffffffffffffffffffffffffffffffffff168152602001606081525090565b828054612ae590613e39565b90600052602060002090601f016020900481019282612b075760008555612b4e565b82601f10612b2057805160ff1916838001178555612b4e565b82800160010185558215612b4e579182015b82811115612b4d578251825591602001919060010190612b32565b5b509050612b5b9190612b9f565b5090565b508054612b6b90613e39565b6000825580601f10612b7d5750612b9c565b601f016020900490600052602060002090810190612b9b9190612b9f565b5b50565b5b80821115612bb8576000816000905550600101612ba0565b5090565b6000612bcf612bca84613b74565b613b4f565b90508083825260208201905082856020860282011115612bf257612bf1614035565b5b60005b85811015612c225781612c088882612d8e565b845260208401935060208301925050600181019050612bf5565b5050509392505050565b6000612c3f612c3a84613ba0565b613b4f565b905082815260208101848484011115612c5b57612c5a61403a565b5b612c66848285613df7565b509392505050565b6000612c81612c7c84613bd1565b613b4f565b905082815260208101848484011115612c9d57612c9c61403a565b5b612ca8848285613df7565b509392505050565b600081359050612cbf81614692565b92915050565b600082601f830112612cda57612cd9614030565b5b8135612cea848260208601612bbc565b91505092915050565b600081359050612d02816146a9565b92915050565b600081359050612d17816146c0565b92915050565b600081519050612d2c816146c0565b92915050565b600082601f830112612d4757612d46614030565b5b8135612d57848260208601612c2c565b91505092915050565b600082601f830112612d7557612d74614030565b5b8135612d85848260208601612c6e565b91505092915050565b600081359050612d9d816146d7565b92915050565b600060208284031215612db957612db8614044565b5b6000612dc784828501612cb0565b91505092915050565b60008060408385031215612de757612de6614044565b5b6000612df585828601612cb0565b9250506020612e0685828601612cb0565b9150509250929050565b600080600060608486031215612e2957612e28614044565b5b6000612e3786828701612cb0565b9350506020612e4886828701612cb0565b9250506040612e5986828701612d8e565b9150509250925092565b60008060008060808587031215612e7d57612e7c614044565b5b6000612e8b87828801612cb0565b9450506020612e9c87828801612cb0565b9350506040612ead87828801612d8e565b925050606085013567ffffffffffffffff811115612ece57612ecd61403f565b5b612eda87828801612d32565b91505092959194509250565b60008060408385031215612efd57612efc614044565b5b6000612f0b85828601612cb0565b9250506020612f1c85828601612cf3565b9150509250929050565b60008060408385031215612f3d57612f3c614044565b5b6000612f4b85828601612cb0565b9250506020612f5c85828601612d8e565b9150509250929050565b600060208284031215612f7c57612f7b614044565b5b600082013567ffffffffffffffff811115612f9a57612f9961403f565b5b612fa684828501612cc5565b91505092915050565b600060208284031215612fc557612fc4614044565b5b6000612fd384828501612d08565b91505092915050565b600060208284031215612ff257612ff1614044565b5b600061300084828501612d1d565b91505092915050565b60006020828403121561301f5761301e614044565b5b600082013567ffffffffffffffff81111561303d5761303c61403f565b5b61304984828501612d60565b91505092915050565b60006020828403121561306857613067614044565b5b600061307684828501612d8e565b91505092915050565b60008060006060848603121561309857613097614044565b5b60006130a686828701612d8e565b93505060206130b786828701612cb0565b92505060406130c886828701612cb0565b9150509250925092565b60006130de8383613622565b905092915050565b60006130f283836136e8565b60208301905092915050565b61310781613d83565b82525050565b61311681613d83565b82525050565b600061312782613c22565b6131318185613c68565b93508360208202850161314385613c02565b8060005b8581101561317f578484038952815161316085826130d2565b945061316b83613c4e565b925060208a01995050600181019050613147565b50829750879550505050505092915050565b600061319c82613c2d565b6131a68185613c79565b93506131b183613c12565b8060005b838110156131e25781516131c988826130e6565b97506131d483613c5b565b9250506001810190506131b5565b5085935050505092915050565b6131f881613d95565b82525050565b600061320982613c38565b6132138185613c8a565b9350613223818560208601613e06565b61322c81614049565b840191505092915050565b600061324282613c43565b61324c8185613c9b565b935061325c818560208601613e06565b61326581614049565b840191505092915050565b600061327b82613c43565b6132858185613cac565b9350613295818560208601613e06565b61329e81614049565b840191505092915050565b60006132b482613c43565b6132be8185613cbd565b93506132ce818560208601613e06565b80840191505092915050565b60006132e7603283613cac565b91506132f28261405a565b604082019050919050565b600061330a601f83613cac565b9150613315826140a9565b602082019050919050565b600061332d602683613cac565b9150613338826140d2565b604082019050919050565b6000613350601d83613cac565b915061335b82614121565b602082019050919050565b6000613373601c83613cac565b915061337e8261414a565b602082019050919050565b6000613396602483613cac565b91506133a182614173565b604082019050919050565b60006133b9601983613cac565b91506133c4826141c2565b602082019050919050565b60006133dc601483613cac565b91506133e7826141eb565b602082019050919050565b60006133ff602c83613cac565b915061340a82614214565b604082019050919050565b6000613422602a83613cac565b915061342d82614263565b604082019050919050565b6000613445603883613cac565b9150613450826142b2565b604082019050919050565b6000613468602a83613cac565b915061347382614301565b604082019050919050565b600061348b602983613cac565b915061349682614350565b604082019050919050565b60006134ae602e83613cac565b91506134b98261439f565b604082019050919050565b60006134d1602083613cac565b91506134dc826143ee565b602082019050919050565b60006134f4603183613cac565b91506134ff82614417565b604082019050919050565b6000613517601583613cac565b915061352282614466565b602082019050919050565b600061353a602c83613cac565b91506135458261448f565b604082019050919050565b600061355d602083613cac565b9150613568826144de565b602082019050919050565b6000613580602983613cac565b915061358b82614507565b604082019050919050565b60006135a3602f83613cac565b91506135ae82614556565b604082019050919050565b60006135c6602183613cac565b91506135d1826145a5565b604082019050919050565b60006135e9603183613cac565b91506135f4826145f4565b604082019050919050565b600061360c602383613cac565b915061361782614643565b604082019050919050565b600060808301600083015161363a60008601826136e8565b50602083015161364d60208601826130fe565b50604083015161366060408601826130fe565b50606083015184820360608601526136788282613237565b9150508091505092915050565b600060808301600083015161369d60008601826136e8565b5060208301516136b060208601826130fe565b5060408301516136c360408601826130fe565b50606083015184820360608601526136db8282613237565b9150508091505092915050565b6136f181613ded565b82525050565b61370081613ded565b82525050565b600061371282856132a9565b915061371e82846132a9565b91508190509392505050565b600060208201905061373f600083018461310d565b92915050565b600060808201905061375a600083018761310d565b613767602083018661310d565b61377460408301856136f7565b818103606083015261378681846131fe565b905095945050505050565b600060208201905081810360008301526137ab818461311c565b905092915050565b600060208201905081810360008301526137cd8184613191565b905092915050565b60006020820190506137ea60008301846131ef565b92915050565b6000602082019050818103600083015261380a8184613270565b905092915050565b6000602082019050818103600083015261382b816132da565b9050919050565b6000602082019050818103600083015261384b816132fd565b9050919050565b6000602082019050818103600083015261386b81613320565b9050919050565b6000602082019050818103600083015261388b81613343565b9050919050565b600060208201905081810360008301526138ab81613366565b9050919050565b600060208201905081810360008301526138cb81613389565b9050919050565b600060208201905081810360008301526138eb816133ac565b9050919050565b6000602082019050818103600083015261390b816133cf565b9050919050565b6000602082019050818103600083015261392b816133f2565b9050919050565b6000602082019050818103600083015261394b81613415565b9050919050565b6000602082019050818103600083015261396b81613438565b9050919050565b6000602082019050818103600083015261398b8161345b565b9050919050565b600060208201905081810360008301526139ab8161347e565b9050919050565b600060208201905081810360008301526139cb816134a1565b9050919050565b600060208201905081810360008301526139eb816134c4565b9050919050565b60006020820190508181036000830152613a0b816134e7565b9050919050565b60006020820190508181036000830152613a2b8161350a565b9050919050565b60006020820190508181036000830152613a4b8161352d565b9050919050565b60006020820190508181036000830152613a6b81613550565b9050919050565b60006020820190508181036000830152613a8b81613573565b9050919050565b60006020820190508181036000830152613aab81613596565b9050919050565b60006020820190508181036000830152613acb816135b9565b9050919050565b60006020820190508181036000830152613aeb816135dc565b9050919050565b60006020820190508181036000830152613b0b816135ff565b9050919050565b60006020820190508181036000830152613b2c8184613685565b905092915050565b6000602082019050613b4960008301846136f7565b92915050565b6000613b59613b6a565b9050613b658282613e6b565b919050565b6000604051905090565b600067ffffffffffffffff821115613b8f57613b8e614001565b5b602082029050602081019050919050565b600067ffffffffffffffff821115613bbb57613bba614001565b5b613bc482614049565b9050602081019050919050565b600067ffffffffffffffff821115613bec57613beb614001565b5b613bf582614049565b9050602081019050919050565b6000819050602082019050919050565b6000819050602082019050919050565b600081519050919050565b600081519050919050565b600081519050919050565b600081519050919050565b6000602082019050919050565b6000602082019050919050565b600082825260208201905092915050565b600082825260208201905092915050565b600082825260208201905092915050565b600082825260208201905092915050565b600082825260208201905092915050565b600081905092915050565b6000613cd382613ded565b9150613cde83613ded565b9250827fffffffffffffffffffffffffffffffffffffffffffffffffffffffffffffffff03821115613d1357613d12613f16565b5b828201905092915050565b6000613d2982613ded565b9150613d3483613ded565b925082613d4457613d43613f45565b5b828204905092915050565b6000613d5a82613ded565b9150613d6583613ded565b925082821015613d7857613d77613f16565b5b828203905092915050565b6000613d8e82613dcd565b9050919050565b60008115159050919050565b60007fffffffff0000000000000000000000000000000000000000000000000000000082169050919050565b600073ffffffffffffffffffffffffffffffffffffffff82169050919050565b6000819050919050565b82818337600083830152505050565b60005b83811015613e24578082015181840152602081019050613e09565b83811115613e33576000848401525b50505050565b60006002820490506001821680613e5157607f821691505b60208210811415613e6557613e64613f74565b5b50919050565b613e7482614049565b810181811067ffffffffffffffff82111715613e9357613e92614001565b5b80604052505050565b6000613ea782613ded565b91507fffffffffffffffffffffffffffffffffffffffffffffffffffffffffffffffff821415613eda57613ed9613f16565b5b600182019050919050565b6000613ef082613ded565b9150613efb83613ded565b925082613f0b57613f0a613f45565b5b828206905092915050565b7f4e487b7100000000000000000000000000000000000000000000000000000000600052601160045260246000fd5b7f4e487b7100000000000000000000000000000000000000000000000000000000600052601260045260246000fd5b7f4e487b7100000000000000000000000000000000000000000000000000000000600052602260045260246000fd5b7f4e487b7100000000000000000000000000000000000000000000000000000000600052603160045260246000fd5b7f4e487b7100000000000000000000000000000000000000000000000000000000600052603260045260246000fd5b7f4e487b7100000000000000000000000000000000000000000000000000000000600052604160045260246000fd5b600080fd5b600080fd5b600080fd5b600080fd5b600080fd5b6000601f19601f8301169050919050565b7f4552433732313a207472616e7366657220746f206e6f6e20455243373231526560008201527f63656976657220696d706c656d656e7465720000000000000000000000000000602082015250565b7f43616c6c6572206973206e6f7420746865206d61696e20636f6e747261637400600082015250565b7f4f776e61626c653a206e6577206f776e657220697320746865207a65726f206160008201527f6464726573730000000000000000000000000000000000000000000000000000602082015250565b7f496e76616c6964206d61696e20636f6e74726163742061646472657373000000600082015250565b7f4552433732313a20746f6b656e20616c7265616479206d696e74656400000000600082015250565b7f4552433732313a207472616e7366657220746f20746865207a65726f2061646460008201527f7265737300000000000000000000000000000000000000000000000000000000602082015250565b7f4552433732313a20617070726f766520746f2063616c6c657200000000000000600082015250565b7f546f6b656e20646f6573206e6f74206578697374000000000000000000000000600082015250565b7f4552433732313a206f70657261746f7220717565727920666f72206e6f6e657860008201527f697374656e7420746f6b656e0000000000000000000000000000000000000000602082015250565b7f4d61696e20636f6e747261637420616464726573732063616e206f6e6c79206260008201527f6520736574206f6e636500000000000000000000000000000000000000000000602082015250565b7f4552433732313a20617070726f76652063616c6c6572206973206e6f74206f7760008201527f6e6572206e6f7220617070726f76656420666f7220616c6c0000000000000000602082015250565b7f4552433732313a2062616c616e636520717565727920666f7220746865207a6560008201527f726f206164647265737300000000000000000000000000000000000000000000602082015250565b7f4552433732313a206f776e657220717565727920666f72206e6f6e657869737460008201527f656e7420746f6b656e0000000000000000000000000000000000000000000000602082015250565b7f45524337323155524953746f726167653a2055524920736574206f66206e6f6e60008201527f6578697374656e7420746f6b656e000000000000000000000000000000000000602082015250565b7f4552433732313a206d696e7420746f20746865207a65726f2061646472657373600082015250565b7f45524337323155524953746f726167653a2055524920717565727920666f722060008201527f6e6f6e6578697374656e7420746f6b656e000000000000000000000000000000602082015250565b7f4d61696e20636f6e7472616374206e6f74207365740000000000000000000000600082015250565b7f4552433732313a20617070726f76656420717565727920666f72206e6f6e657860008201527f697374656e7420746f6b656e0000000000000000000000000000000000000000602082015250565b7f4f776e61626c653a2063616c6c6572206973206e6f7420746865206f776e6572600082015250565b7f4552433732313a207472616e73666572206f6620746f6b656e2074686174206960008201527f73206e6f74206f776e0000000000000000000000000000000000000000000000602082015250565b7f4552433732314d657461646174613a2055524920717565727920666f72206e6f60008201527f6e6578697374656e7420746f6b656e0000000000000000000000000000000000602082015250565b7f4552433732313a20617070726f76616c20746f2063757272656e74206f776e6560008201527f7200000000000000000000000000000000000000000000000000000000000000602082015250565b7f4552433732313a207472616e736665722063616c6c6572206973206e6f74206f60008201527f776e6572206e6f7220617070726f766564000000000000000000000000000000602082015250565b7f596f7520617265206e6f7420746865206f776e6572206f66207468697320746f60008201527f6b656e0000000000000000000000000000000000000000000000000000000000602082015250565b61469b81613d83565b81146146a657600080fd5b50565b6146b281613d95565b81146146bd57600080fd5b50565b6146c981613da1565b81146146d457600080fd5b50565b6146e081613ded565b81146146eb57600080fd5b5056fea2646970667358221220ccb1e795fd2851cb2f95392bda2d9182f7f208737722f72e00ae8cca676bf2eb64736f6c63430008070033",
  "immutableReferences": {},
  "source": "// SPDX-License-Identifier: MIT\r\npragma solidity ^0.8.7;\r\n\r\nimport \"@openzeppelin/contracts/token/ERC721/ERC721.sol\";\r\nimport \"@openzeppelin/contracts/token/ERC721/extensions/ERC721URIStorage.sol\";\r\nimport \"@openzeppelin/contracts/access/Ownable.sol\";\r\n\r\ncontract NFTFrame is ERC721, ERC721URIStorage, Ownable {\r\n    uint256 private _nextTokenId; //    \r\n    mapping(uint256 => address) public creators; // tokenId   \r\n    mapping(address => uint256[]) private _ownedTokens; //    tokenId \r\n\r\n    // main contract   \r\n    address public mainContractAddress;\r\n\r\n    // main contract   \r\n    function setMainContractAddress(address _mainContractAddress) public {\r\n        require(mainContractAddress == address(0), \"Main contract address can only be set once\");\r\n        require(_mainContractAddress != address(0), \"Invalid main contract address\");\r\n        mainContractAddress = _mainContractAddress;\r\n    }\r\n\r\n    // main contract   modifier\r\n    modifier onlyMainContract() {\r\n        require(mainContractAddress != address(0), \"Main contract not set\");\r\n        require(msg.sender == mainContractAddress, \"Caller is not the main contract\");\r\n        _;\r\n    }\r\n\r\n    //  NFT    \r\n    struct NFTInfo {\r\n        uint256 tokenId;\r\n        address creator;\r\n        address currentOwner;\r\n        string tokenURI;\r\n    }\r\n\r\n    struct NFTInfos {\r\n      NFTInfo[] nfts;\r\n      uint256 nextIndex;\r\n      bool hasNext;\r\n    }\r\n\r\n    event NFTMinted(uint256 indexed tokenId, address indexed creator, string tokenURI);\r\n    event NFTTransferred(uint256 indexed tokenId, address indexed from, address indexed to);\r\n    event TokenURIUpdated(uint256 indexed tokenId, string newTokenURI);\r\n    event NFTBurned(uint256 indexed tokenId);\r\n\r\n    constructor() ERC721(\"NFTFrame\", \"NFTF\") {}\r\n\r\n    //    \r\n    function _addTokenToOwner(address to, uint256 tokenId) private {\r\n        require(ownerOf(tokenId) != address(0), \"Token does not exist\");\r\n        _ownedTokens[to].push(tokenId);\r\n    }\r\n\r\n    //    \r\n    function _removeTokenFromOwner(address from, uint256 tokenId) private {\r\n        require(ownerOf(tokenId) != address(0), \"Token does not exist\");\r\n        uint256[] storage fromTokens = _ownedTokens[from];\r\n        for (uint256 i = 0; i < fromTokens.length; i++) {\r\n            if (fromTokens[i] == tokenId) {\r\n                fromTokens[i] = fromTokens[fromTokens.length - 1];\r\n                fromTokens.pop();\r\n                break;\r\n            }\r\n        }\r\n    }\r\n\r\n    // NFT  (nft , TokenURI  ,  )\r\n    function mintNFT(string memory _tokenURI) public returns (uint256) {\r\n        uint256 tokenId = _nextTokenId++;\r\n\r\n        _safeMint(msg.sender, tokenId);\r\n        _setTokenURI(tokenId, _tokenURI);\r\n        creators[tokenId] = msg.sender;\r\n        _addTokenToOwner(msg.sender, tokenId);\r\n\r\n        emit NFTMinted(tokenId, msg.sender, _tokenURI);\r\n\r\n        return tokenId;\r\n    }\r\n\r\n    //   NFT  (  )\r\n    function transferNFTByAdmin(uint256 tokenId, address from, address to) public onlyMainContract {\r\n        require(ownerOf(tokenId) != address(0), \"Token does not exist\");\r\n        require(ownerOf(tokenId) != address(0), \"Token does not exist\");\r\n        \r\n        _removeTokenFromOwner(from, tokenId);\r\n        _transfer(from, to, tokenId);\r\n        _addTokenToOwner(to, tokenId);\r\n        emit NFTTransferred(tokenId, from, to);\r\n    }\r\n\r\n    // NFT  (   address(0)  )\r\n    function burnNFT(uint256 tokenId) public {\r\n        require(ownerOf(tokenId) != address(0), \"Token does not exist\");\r\n        require(ownerOf(tokenId) == msg.sender, \"You are not the owner of this token\");\r\n        _removeTokenFromOwner(msg.sender, tokenId);\r\n        _burn(tokenId);\r\n        delete creators[tokenId];\r\n        emit NFTBurned(tokenId);\r\n    }\r\n\r\n    // NFT   \r\n    function getNFTInfo(uint256 tokenId) public view returns (NFTInfo memory) {\r\n        require(ownerOf(tokenId) != address(0), \"Token does not exist\");\r\n  \r\n        return NFTInfo({\r\n            tokenId: tokenId,\r\n            creator: creators[tokenId],\r\n            currentOwner: ownerOf(tokenId),\r\n            tokenURI: tokenURI(tokenId)\r\n        });\r\n    }\r\n\r\n    // Id array  \r\n    function getNFTsByIds(uint256[] memory tokenIds) public view returns (NFTInfo[] memory) {\r\n        NFTInfo[] memory result = new NFTInfo[](tokenIds.length);\r\n        \r\n        for (uint256 i = 0; i < tokenIds.length; i++) {\r\n            uint256 tokenId = tokenIds[i];\r\n            if (_exists(tokenId)) {\r\n                result[i] = NFTInfo({\r\n                    tokenId: tokenId,\r\n                    creator: creators[tokenId],\r\n                    currentOwner: ownerOf(tokenId),\r\n                    tokenURI: tokenURI(tokenId)\r\n                });\r\n            } else {\r\n                //   tokenId   \r\n                result[i] = NFTInfo({\r\n                    tokenId: tokenId,\r\n                    creator: address(0),\r\n                    currentOwner: address(0),\r\n                    tokenURI: \"\"\r\n                });\r\n            }\r\n        }\r\n        \r\n        return result;\r\n    }\r\n\r\n    //   NFT Id \r\n    function getUserNFTIds(address user) public view returns (uint256[] memory) {\r\n        return _ownedTokens[user];\r\n    }\r\n\r\n    //  \r\n    function _burn(uint256 tokenId) internal override(ERC721, ERC721URIStorage) {\r\n        super._burn(tokenId);\r\n    }\r\n    function tokenURI(uint256 tokenId) public view override(ERC721, ERC721URIStorage) returns (string memory) {\r\n        return super.tokenURI(tokenId);\r\n    }\r\n    function supportsInterface(bytes4 interfaceId) public view override(ERC721) returns (bool) {\r\n        return super.supportsInterface(interfaceId);\r\n    }\r\n}",
  "sourcePath": "C:\\Users\\SSAFY\\Desktop\\semonemo\\backend\\blockchain-server\\smartcontract\\contracts\\NFTFrame.sol",
  "compiler": {
    "name": "solc",
    "version": "0.8.7+commit.e28d00a7.Emscripten.clang"
  },
  "schemaVersion": "3.4.16",
  "updatedAt": "2024-10-03T07:17:34.340Z",
  "networkType": "ethereum",
  "devdoc": {
    "kind": "dev",
    "methods": {
      "approve(address,uint256)": {
        "details": "See {IERC721-approve}."
      },
      "balanceOf(address)": {
        "details": "See {IERC721-balanceOf}."
      },
      "getApproved(uint256)": {
        "details": "See {IERC721-getApproved}."
      },
      "isApprovedForAll(address,address)": {
        "details": "See {IERC721-isApprovedForAll}."
      },
      "name()": {
        "details": "See {IERC721Metadata-name}."
      },
      "owner()": {
        "details": "Returns the address of the current owner."
      },
      "ownerOf(uint256)": {
        "details": "See {IERC721-ownerOf}."
      },
      "renounceOwnership()": {
        "details": "Leaves the contract without owner. It will not be possible to call `onlyOwner` functions anymore. Can only be called by the current owner. NOTE: Renouncing ownership will leave the contract without an owner, thereby removing any functionality that is only available to the owner."
      },
      "safeTransferFrom(address,address,uint256)": {
        "details": "See {IERC721-safeTransferFrom}."
      },
      "safeTransferFrom(address,address,uint256,bytes)": {
        "details": "See {IERC721-safeTransferFrom}."
      },
      "setApprovalForAll(address,bool)": {
        "details": "See {IERC721-setApprovalForAll}."
      },
      "supportsInterface(bytes4)": {
        "details": "See {IERC165-supportsInterface}."
      },
      "symbol()": {
        "details": "See {IERC721Metadata-symbol}."
      },
      "transferFrom(address,address,uint256)": {
        "details": "See {IERC721-transferFrom}."
      },
      "transferOwnership(address)": {
        "details": "Transfers ownership of the contract to a new account (`newOwner`). Can only be called by the current owner."
      }
    },
    "version": 1
  },
  "userdoc": {
    "kind": "user",
    "methods": {},
    "version": 1
  }
}