{
  "contractName": "NFTFrame",
  "abi": [
    {
      "inputs": [],
      "stateMutability": "nonpayable",
      "type": "constructor"
    },
    {
      "anonymous": false,
      "inputs": [
        {
          "indexed": true,
          "internalType": "address",
          "name": "owner",
          "type": "address"
        },
        {
          "indexed": true,
          "internalType": "address",
          "name": "approved",
          "type": "address"
        },
        {
          "indexed": true,
          "internalType": "uint256",
          "name": "tokenId",
          "type": "uint256"
        }
      ],
      "name": "Approval",
      "type": "event"
    },
    {
      "anonymous": false,
      "inputs": [
        {
          "indexed": true,
          "internalType": "address",
          "name": "owner",
          "type": "address"
        },
        {
          "indexed": true,
          "internalType": "address",
          "name": "operator",
          "type": "address"
        },
        {
          "indexed": false,
          "internalType": "bool",
          "name": "approved",
          "type": "bool"
        }
      ],
      "name": "ApprovalForAll",
      "type": "event"
    },
    {
      "anonymous": false,
      "inputs": [
        {
          "indexed": true,
          "internalType": "uint256",
          "name": "tokenId",
          "type": "uint256"
        }
      ],
      "name": "NFTBurned",
      "type": "event"
    },
    {
      "anonymous": false,
      "inputs": [
        {
          "indexed": true,
          "internalType": "uint256",
          "name": "tokenId",
          "type": "uint256"
        },
        {
          "indexed": true,
          "internalType": "address",
          "name": "creator",
          "type": "address"
        },
        {
          "indexed": false,
          "internalType": "string",
          "name": "tokenURI",
          "type": "string"
        }
      ],
      "name": "NFTMinted",
      "type": "event"
    },
    {
      "anonymous": false,
      "inputs": [
        {
          "indexed": true,
          "internalType": "uint256",
          "name": "tokenId",
          "type": "uint256"
        },
        {
          "indexed": true,
          "internalType": "address",
          "name": "from",
          "type": "address"
        },
        {
          "indexed": true,
          "internalType": "address",
          "name": "to",
          "type": "address"
        }
      ],
      "name": "NFTTransferred",
      "type": "event"
    },
    {
      "anonymous": false,
      "inputs": [
        {
          "indexed": true,
          "internalType": "address",
          "name": "previousOwner",
          "type": "address"
        },
        {
          "indexed": true,
          "internalType": "address",
          "name": "newOwner",
          "type": "address"
        }
      ],
      "name": "OwnershipTransferred",
      "type": "event"
    },
    {
      "anonymous": false,
      "inputs": [
        {
          "indexed": true,
          "internalType": "uint256",
          "name": "tokenId",
          "type": "uint256"
        },
        {
          "indexed": false,
          "internalType": "string",
          "name": "newTokenURI",
          "type": "string"
        }
      ],
      "name": "TokenURIUpdated",
      "type": "event"
    },
    {
      "anonymous": false,
      "inputs": [
        {
          "indexed": true,
          "internalType": "address",
          "name": "from",
          "type": "address"
        },
        {
          "indexed": true,
          "internalType": "address",
          "name": "to",
          "type": "address"
        },
        {
          "indexed": true,
          "internalType": "uint256",
          "name": "tokenId",
          "type": "uint256"
        }
      ],
      "name": "Transfer",
      "type": "event"
    },
    {
      "inputs": [
        {
          "internalType": "address",
          "name": "to",
          "type": "address"
        },
        {
          "internalType": "uint256",
          "name": "tokenId",
          "type": "uint256"
        }
      ],
      "name": "approve",
      "outputs": [],
      "stateMutability": "nonpayable",
      "type": "function"
    },
    {
      "inputs": [
        {
          "internalType": "address",
          "name": "owner",
          "type": "address"
        }
      ],
      "name": "balanceOf",
      "outputs": [
        {
          "internalType": "uint256",
          "name": "",
          "type": "uint256"
        }
      ],
      "stateMutability": "view",
      "type": "function",
      "constant": true
    },
    {
      "inputs": [
        {
          "internalType": "uint256",
          "name": "",
          "type": "uint256"
        }
      ],
      "name": "creators",
      "outputs": [
        {
          "internalType": "address",
          "name": "",
          "type": "address"
        }
      ],
      "stateMutability": "view",
      "type": "function",
      "constant": true
    },
    {
      "inputs": [
        {
          "internalType": "uint256",
          "name": "tokenId",
          "type": "uint256"
        }
      ],
      "name": "getApproved",
      "outputs": [
        {
          "internalType": "address",
          "name": "",
          "type": "address"
        }
      ],
      "stateMutability": "view",
      "type": "function",
      "constant": true
    },
    {
      "inputs": [
        {
          "internalType": "address",
          "name": "owner",
          "type": "address"
        },
        {
          "internalType": "address",
          "name": "operator",
          "type": "address"
        }
      ],
      "name": "isApprovedForAll",
      "outputs": [
        {
          "internalType": "bool",
          "name": "",
          "type": "bool"
        }
      ],
      "stateMutability": "view",
      "type": "function",
      "constant": true
    },
    {
      "inputs": [],
      "name": "name",
      "outputs": [
        {
          "internalType": "string",
          "name": "",
          "type": "string"
        }
      ],
      "stateMutability": "view",
      "type": "function",
      "constant": true
    },
    {
      "inputs": [],
      "name": "owner",
      "outputs": [
        {
          "internalType": "address",
          "name": "",
          "type": "address"
        }
      ],
      "stateMutability": "view",
      "type": "function",
      "constant": true
    },
    {
      "inputs": [
        {
          "internalType": "uint256",
          "name": "tokenId",
          "type": "uint256"
        }
      ],
      "name": "ownerOf",
      "outputs": [
        {
          "internalType": "address",
          "name": "",
          "type": "address"
        }
      ],
      "stateMutability": "view",
      "type": "function",
      "constant": true
    },
    {
      "inputs": [],
      "name": "renounceOwnership",
      "outputs": [],
      "stateMutability": "nonpayable",
      "type": "function"
    },
    {
      "inputs": [
        {
          "internalType": "address",
          "name": "from",
          "type": "address"
        },
        {
          "internalType": "address",
          "name": "to",
          "type": "address"
        },
        {
          "internalType": "uint256",
          "name": "tokenId",
          "type": "uint256"
        }
      ],
      "name": "safeTransferFrom",
      "outputs": [],
      "stateMutability": "nonpayable",
      "type": "function"
    },
    {
      "inputs": [
        {
          "internalType": "address",
          "name": "from",
          "type": "address"
        },
        {
          "internalType": "address",
          "name": "to",
          "type": "address"
        },
        {
          "internalType": "uint256",
          "name": "tokenId",
          "type": "uint256"
        },
        {
          "internalType": "bytes",
          "name": "_data",
          "type": "bytes"
        }
      ],
      "name": "safeTransferFrom",
      "outputs": [],
      "stateMutability": "nonpayable",
      "type": "function"
    },
    {
      "inputs": [
        {
          "internalType": "address",
          "name": "operator",
          "type": "address"
        },
        {
          "internalType": "bool",
          "name": "approved",
          "type": "bool"
        }
      ],
      "name": "setApprovalForAll",
      "outputs": [],
      "stateMutability": "nonpayable",
      "type": "function"
    },
    {
      "inputs": [],
      "name": "symbol",
      "outputs": [
        {
          "internalType": "string",
          "name": "",
          "type": "string"
        }
      ],
      "stateMutability": "view",
      "type": "function",
      "constant": true
    },
    {
      "inputs": [
        {
          "internalType": "address",
          "name": "from",
          "type": "address"
        },
        {
          "internalType": "address",
          "name": "to",
          "type": "address"
        },
        {
          "internalType": "uint256",
          "name": "tokenId",
          "type": "uint256"
        }
      ],
      "name": "transferFrom",
      "outputs": [],
      "stateMutability": "nonpayable",
      "type": "function"
    },
    {
      "inputs": [
        {
          "internalType": "address",
          "name": "newOwner",
          "type": "address"
        }
      ],
      "name": "transferOwnership",
      "outputs": [],
      "stateMutability": "nonpayable",
      "type": "function"
    },
    {
      "inputs": [
        {
          "internalType": "string",
          "name": "_tokenURI",
          "type": "string"
        }
      ],
      "name": "mintNFT",
      "outputs": [
        {
          "internalType": "uint256",
          "name": "",
          "type": "uint256"
        }
      ],
      "stateMutability": "nonpayable",
      "type": "function"
    },
    {
      "inputs": [
        {
          "internalType": "uint256",
          "name": "tokenId",
          "type": "uint256"
        },
        {
          "internalType": "string",
          "name": "newTokenURI",
          "type": "string"
        }
      ],
      "name": "updateTokenURI",
      "outputs": [],
      "stateMutability": "nonpayable",
      "type": "function"
    },
    {
      "inputs": [
        {
          "internalType": "uint256",
          "name": "tokenId",
          "type": "uint256"
        },
        {
          "internalType": "string",
          "name": "newTokenURI",
          "type": "string"
        }
      ],
      "name": "updateOwnTokenURI",
      "outputs": [],
      "stateMutability": "nonpayable",
      "type": "function"
    },
    {
      "inputs": [
        {
          "internalType": "uint256",
          "name": "tokenId",
          "type": "uint256"
        },
        {
          "internalType": "address",
          "name": "to",
          "type": "address"
        }
      ],
      "name": "transferNFT",
      "outputs": [
        {
          "internalType": "bool",
          "name": "",
          "type": "bool"
        }
      ],
      "stateMutability": "nonpayable",
      "type": "function"
    },
    {
      "inputs": [
        {
          "internalType": "uint256",
          "name": "tokenId",
          "type": "uint256"
        },
        {
          "internalType": "address",
          "name": "from",
          "type": "address"
        },
        {
          "internalType": "address",
          "name": "to",
          "type": "address"
        }
      ],
      "name": "transferNFTUserToUser",
      "outputs": [],
      "stateMutability": "nonpayable",
      "type": "function"
    },
    {
      "inputs": [
        {
          "internalType": "uint256",
          "name": "tokenId",
          "type": "uint256"
        }
      ],
      "name": "burnNFT",
      "outputs": [],
      "stateMutability": "nonpayable",
      "type": "function"
    },
    {
      "inputs": [
        {
          "internalType": "uint256",
          "name": "tokenId",
          "type": "uint256"
        }
      ],
      "name": "getNFTInfo",
      "outputs": [
        {
          "components": [
            {
              "internalType": "uint256",
              "name": "tokenId",
              "type": "uint256"
            },
            {
              "internalType": "address",
              "name": "creator",
              "type": "address"
            },
            {
              "internalType": "address",
              "name": "currentOwner",
              "type": "address"
            },
            {
              "internalType": "string",
              "name": "tokenURI",
              "type": "string"
            }
          ],
          "internalType": "struct NFTFrame.NFTInfo",
          "name": "",
          "type": "tuple"
        }
      ],
      "stateMutability": "view",
      "type": "function",
      "constant": true
    },
    {
      "inputs": [
        {
          "internalType": "uint256",
          "name": "startIndex",
          "type": "uint256"
        },
        {
          "internalType": "uint256",
          "name": "count",
          "type": "uint256"
        }
      ],
      "name": "getActiveNFTs",
      "outputs": [
        {
          "components": [
            {
              "components": [
                {
                  "internalType": "uint256",
                  "name": "tokenId",
                  "type": "uint256"
                },
                {
                  "internalType": "address",
                  "name": "creator",
                  "type": "address"
                },
                {
                  "internalType": "address",
                  "name": "currentOwner",
                  "type": "address"
                },
                {
                  "internalType": "string",
                  "name": "tokenURI",
                  "type": "string"
                }
              ],
              "internalType": "struct NFTFrame.NFTInfo[]",
              "name": "nfts",
              "type": "tuple[]"
            },
            {
              "internalType": "uint256",
              "name": "nextIndex",
              "type": "uint256"
            }
          ],
          "internalType": "struct NFTFrame.NFTInfos",
          "name": "",
          "type": "tuple"
        }
      ],
      "stateMutability": "view",
      "type": "function",
      "constant": true
    },
    {
      "inputs": [
        {
          "internalType": "uint256",
          "name": "tokenId",
          "type": "uint256"
        }
      ],
      "name": "tokenURI",
      "outputs": [
        {
          "internalType": "string",
          "name": "",
          "type": "string"
        }
      ],
      "stateMutability": "view",
      "type": "function",
      "constant": true
    },
    {
      "inputs": [
        {
          "internalType": "bytes4",
          "name": "interfaceId",
          "type": "bytes4"
        }
      ],
      "name": "supportsInterface",
      "outputs": [
        {
          "internalType": "bool",
          "name": "",
          "type": "bool"
        }
      ],
      "stateMutability": "view",
      "type": "function",
      "constant": true
    }
  ],
  "bytecode": "0x60806040523480156200001157600080fd5b506040518060400160405280600881526020017f4e46544672616d650000000000000000000000000000000000000000000000008152506040518060400160405280600481526020017f4e46544600000000000000000000000000000000000000000000000000000000815250816000908051906020019062000096929190620001a6565b508060019080519060200190620000af929190620001a6565b505050620000d2620000c6620000d860201b60201c565b620000e060201b60201c565b620002bb565b600033905090565b6000600760009054906101000a900473ffffffffffffffffffffffffffffffffffffffff16905081600760006101000a81548173ffffffffffffffffffffffffffffffffffffffff021916908373ffffffffffffffffffffffffffffffffffffffff1602179055508173ffffffffffffffffffffffffffffffffffffffff168173ffffffffffffffffffffffffffffffffffffffff167f8be0079c531659141344cd1fd0a4f28419497f9722a3daafe3b4186f6b6457e060405160405180910390a35050565b828054620001b49062000256565b90600052602060002090601f016020900481019282620001d8576000855562000224565b82601f10620001f357805160ff191683800117855562000224565b8280016001018555821562000224579182015b828111156200022357825182559160200191906001019062000206565b5b50905062000233919062000237565b5090565b5b808211156200025257600081600090555060010162000238565b5090565b600060028204905060018216806200026f57607f821691505b602082108114156200028657620002856200028c565b5b50919050565b7f4e487b7100000000000000000000000000000000000000000000000000000000600052602260045260246000fd5b61449080620002cb6000396000f3fe608060405234801561001057600080fd5b50600436106101735760003560e01c806374cf877d116100de578063b88d4fde11610097578063d188929f11610071578063d188929f14610458578063e985e9c514610488578063f2fde38b146104b8578063fb37e883146104d457610173565b8063b88d4fde146103dc578063c87b56dd146103f8578063cd53d08e1461042857610173565b806374cf877d1461031c5780638da5cb5b146103385780639036c0501461035657806395d89b4114610386578063a22cb465146103a4578063a7088520146103c057610173565b80632708f141116101305780632708f1411461024a5780632890e0d71461027a57806342842e0e146102965780636352211e146102b257806370a08231146102e2578063715018a61461031257610173565b806301ffc9a71461017857806306fdde03146101a8578063081812fc146101c6578063095ea7b3146101f657806318e97fd11461021257806323b872dd1461022e575b600080fd5b610192600480360381019061018d9190612d9f565b610504565b60405161019f9190613601565b60405180910390f35b6101b0610516565b6040516101bd919061361c565b60405180910390f35b6101e060048036038101906101db9190612e42565b6105a8565b6040516101ed919061359a565b60405180910390f35b610210600480360381019061020b9190612d5f565b61062d565b005b61022c60048036038101906102279190612f02565b610745565b005b61024860048036038101906102439190612c49565b61087f565b005b610264600480360381019061025f9190612f5e565b6108df565b6040516102719190613940565b60405180910390f35b610294600480360381019061028f9190612e42565b610b1a565b005b6102b060048036038101906102ab9190612c49565b610c77565b005b6102cc60048036038101906102c79190612e42565b610c97565b6040516102d9919061359a565b60405180910390f35b6102fc60048036038101906102f79190612bdc565b610d49565b6040516103099190613962565b60405180910390f35b61031a610e01565b005b61033660048036038101906103319190612f02565b610e89565b005b610340610fbd565b60405161034d919061359a565b60405180910390f35b610370600480360381019061036b9190612e6f565b610fe7565b60405161037d9190613601565b60405180910390f35b61038e611154565b60405161039b919061361c565b60405180910390f35b6103be60048036038101906103b99190612d1f565b6111e6565b005b6103da60048036038101906103d59190612eaf565b611367565b005b6103f660048036038101906103f19190612c9c565b6114fe565b005b610412600480360381019061040d9190612e42565b611560565b60405161041f919061361c565b60405180910390f35b610442600480360381019061043d9190612e42565b611572565b60405161044f919061359a565b60405180910390f35b610472600480360381019061046d9190612e42565b6115a5565b60405161047f919061391e565b60405180910390f35b6104a2600480360381019061049d9190612c09565b6116bc565b6040516104af9190613601565b60405180910390f35b6104d260048036038101906104cd9190612bdc565b611750565b005b6104ee60048036038101906104e99190612df9565b611848565b6040516104fb9190613962565b60405180910390f35b600061050f82611922565b9050919050565b60606000805461052590613c02565b80601f016020809104026020016040519081016040528092919081815260200182805461055190613c02565b801561059e5780601f106105735761010080835404028352916020019161059e565b820191906000526020600020905b81548152906001019060200180831161058157829003601f168201915b5050505050905090565b60006105b382611a04565b6105f2576040517f08c379a00000000000000000000000000000000000000000000000000000000081526004016105e99061381e565b60405180910390fd5b6004600083815260200190815260200160002060009054906101000a900473ffffffffffffffffffffffffffffffffffffffff169050919050565b600061063882610c97565b90508073ffffffffffffffffffffffffffffffffffffffff168373ffffffffffffffffffffffffffffffffffffffff1614156106a9576040517f08c379a00000000000000000000000000000000000000000000000000000000081526004016106a09061389e565b60405180910390fd5b8073ffffffffffffffffffffffffffffffffffffffff166106c8611a70565b73ffffffffffffffffffffffffffffffffffffffff1614806106f757506106f6816106f1611a70565b6116bc565b5b610736576040517f08c379a000000000000000000000000000000000000000000000000000000000815260040161072d9061373e565b60405180910390fd5b6107408383611a78565b505050565b61074d611a70565b73ffffffffffffffffffffffffffffffffffffffff1661076b610fbd565b73ffffffffffffffffffffffffffffffffffffffff16146107c1576040517f08c379a00000000000000000000000000000000000000000000000000000000081526004016107b89061383e565b60405180910390fd5b600073ffffffffffffffffffffffffffffffffffffffff166107e283610c97565b73ffffffffffffffffffffffffffffffffffffffff161415610839576040517f08c379a0000000000000000000000000000000000000000000000000000000008152600401610830906136fe565b60405180910390fd5b6108438282611b31565b817f931f495b9a8e5d8e61946ea5d61e021f636cfe213a801f97589c18c152e408bd82604051610873919061361c565b60405180910390a25050565b61089061088a611a70565b82611ba5565b6108cf576040517f08c379a00000000000000000000000000000000000000000000000000000000081526004016108c6906138be565b60405180910390fd5b6108da838383611c83565b505050565b6108e7612942565b6000821161092a576040517f08c379a0000000000000000000000000000000000000000000000000000000008152600401610921906138fe565b60405180910390fd5b600854831061096e576040517f08c379a0000000000000000000000000000000000000000000000000000000008152600401610965906137be565b60405180910390fd5b60008267ffffffffffffffff81111561098a57610989613d9b565b5b6040519080825280602002602001820160405280156109c357816020015b6109b061295c565b8152602001906001900390816109a85790505b5090506000808590505b84821080156109dd575060085481105b15610aee57600073ffffffffffffffffffffffffffffffffffffffff16610a0382610c97565b73ffffffffffffffffffffffffffffffffffffffff1614610adb5760405180608001604052808281526020016009600084815260200190815260200160002060009054906101000a900473ffffffffffffffffffffffffffffffffffffffff1673ffffffffffffffffffffffffffffffffffffffff168152602001610a8783610c97565b73ffffffffffffffffffffffffffffffffffffffff168152602001610aab83611560565b815250838381518110610ac157610ac0613d6c565b5b60200260200101819052508180610ad790613c65565b9250505b8080610ae690613c65565b9150506109cd565b84821015610afa578183525b604051806040016040528084815260200182815250935050505092915050565b600073ffffffffffffffffffffffffffffffffffffffff16610b3b82610c97565b73ffffffffffffffffffffffffffffffffffffffff161415610b92576040517f08c379a0000000000000000000000000000000000000000000000000000000008152600401610b89906136fe565b60405180910390fd5b3373ffffffffffffffffffffffffffffffffffffffff16610bb282610c97565b73ffffffffffffffffffffffffffffffffffffffff1614610c08576040517f08c379a0000000000000000000000000000000000000000000000000000000008152600401610bff906138de565b60405180910390fd5b610c1181611edf565b6009600082815260200190815260200160002060006101000a81549073ffffffffffffffffffffffffffffffffffffffff0219169055807f3c176691ca154a2f6fe978a2a633a33ee77dbe2902e67a75400720845a4b2ce160405160405180910390a250565b610c92838383604051806020016040528060008152506114fe565b505050565b6000806002600084815260200190815260200160002060009054906101000a900473ffffffffffffffffffffffffffffffffffffffff169050600073ffffffffffffffffffffffffffffffffffffffff168173ffffffffffffffffffffffffffffffffffffffff161415610d40576040517f08c379a0000000000000000000000000000000000000000000000000000000008152600401610d379061377e565b60405180910390fd5b80915050919050565b60008073ffffffffffffffffffffffffffffffffffffffff168273ffffffffffffffffffffffffffffffffffffffff161415610dba576040517f08c379a0000000000000000000000000000000000000000000000000000000008152600401610db19061375e565b60405180910390fd5b600360008373ffffffffffffffffffffffffffffffffffffffff1673ffffffffffffffffffffffffffffffffffffffff168152602001908152602001600020549050919050565b610e09611a70565b73ffffffffffffffffffffffffffffffffffffffff16610e27610fbd565b73ffffffffffffffffffffffffffffffffffffffff1614610e7d576040517f08c379a0000000000000000000000000000000000000000000000000000000008152600401610e749061383e565b60405180910390fd5b610e876000611eeb565b565b600073ffffffffffffffffffffffffffffffffffffffff16610eaa83610c97565b73ffffffffffffffffffffffffffffffffffffffff161415610f01576040517f08c379a0000000000000000000000000000000000000000000000000000000008152600401610ef8906136fe565b60405180910390fd5b3373ffffffffffffffffffffffffffffffffffffffff16610f2183610c97565b73ffffffffffffffffffffffffffffffffffffffff1614610f77576040517f08c379a0000000000000000000000000000000000000000000000000000000008152600401610f6e906138de565b60405180910390fd5b610f818282611b31565b817f931f495b9a8e5d8e61946ea5d61e021f636cfe213a801f97589c18c152e408bd82604051610fb1919061361c565b60405180910390a25050565b6000600760009054906101000a900473ffffffffffffffffffffffffffffffffffffffff16905090565b60008073ffffffffffffffffffffffffffffffffffffffff1661100984610c97565b73ffffffffffffffffffffffffffffffffffffffff161415611060576040517f08c379a0000000000000000000000000000000000000000000000000000000008152600401611057906136fe565b60405180910390fd5b3373ffffffffffffffffffffffffffffffffffffffff1661108084610c97565b73ffffffffffffffffffffffffffffffffffffffff16146110d6576040517f08c379a00000000000000000000000000000000000000000000000000000000081526004016110cd906138de565b60405180910390fd5b60006110e184610c97565b90506110ee818486611c83565b8273ffffffffffffffffffffffffffffffffffffffff168173ffffffffffffffffffffffffffffffffffffffff16857f67043fac5fd2bf9edbb46ee495aaed7f97f91d43507d373be2b592af19b8c0a860405160405180910390a4600191505092915050565b60606001805461116390613c02565b80601f016020809104026020016040519081016040528092919081815260200182805461118f90613c02565b80156111dc5780601f106111b1576101008083540402835291602001916111dc565b820191906000526020600020905b8154815290600101906020018083116111bf57829003601f168201915b5050505050905090565b6111ee611a70565b73ffffffffffffffffffffffffffffffffffffffff168273ffffffffffffffffffffffffffffffffffffffff16141561125c576040517f08c379a0000000000000000000000000000000000000000000000000000000008152600401611253906136be565b60405180910390fd5b8060056000611269611a70565b73ffffffffffffffffffffffffffffffffffffffff1673ffffffffffffffffffffffffffffffffffffffff16815260200190815260200160002060008473ffffffffffffffffffffffffffffffffffffffff1673ffffffffffffffffffffffffffffffffffffffff16815260200190815260200160002060006101000a81548160ff0219169083151502179055508173ffffffffffffffffffffffffffffffffffffffff16611316611a70565b73ffffffffffffffffffffffffffffffffffffffff167f17307eab39ab6107e8899845ad3d59bd9653f200f220920489ca2b5937696c318360405161135b9190613601565b60405180910390a35050565b600073ffffffffffffffffffffffffffffffffffffffff1661138884610c97565b73ffffffffffffffffffffffffffffffffffffffff1614156113df576040517f08c379a00000000000000000000000000000000000000000000000000000000081526004016113d6906136fe565b60405180910390fd5b8173ffffffffffffffffffffffffffffffffffffffff166113ff84610c97565b73ffffffffffffffffffffffffffffffffffffffff16148061145457503373ffffffffffffffffffffffffffffffffffffffff1661143c846105a8565b73ffffffffffffffffffffffffffffffffffffffff16145b611493576040517f08c379a000000000000000000000000000000000000000000000000000000000815260040161148a906136de565b60405180910390fd5b61149e828285611c83565b8073ffffffffffffffffffffffffffffffffffffffff168273ffffffffffffffffffffffffffffffffffffffff16847f67043fac5fd2bf9edbb46ee495aaed7f97f91d43507d373be2b592af19b8c0a860405160405180910390a4505050565b61150f611509611a70565b83611ba5565b61154e576040517f08c379a0000000000000000000000000000000000000000000000000000000008152600401611545906138be565b60405180910390fd5b61155a84848484611fb1565b50505050565b606061156b8261200d565b9050919050565b60096020528060005260406000206000915054906101000a900473ffffffffffffffffffffffffffffffffffffffff1681565b6115ad61295c565b600073ffffffffffffffffffffffffffffffffffffffff166115ce83610c97565b73ffffffffffffffffffffffffffffffffffffffff161415611625576040517f08c379a000000000000000000000000000000000000000000000000000000000815260040161161c906136fe565b60405180910390fd5b60405180608001604052808381526020016009600085815260200190815260200160002060009054906101000a900473ffffffffffffffffffffffffffffffffffffffff1673ffffffffffffffffffffffffffffffffffffffff16815260200161168e84610c97565b73ffffffffffffffffffffffffffffffffffffffff1681526020016116b284611560565b8152509050919050565b6000600560008473ffffffffffffffffffffffffffffffffffffffff1673ffffffffffffffffffffffffffffffffffffffff16815260200190815260200160002060008373ffffffffffffffffffffffffffffffffffffffff1673ffffffffffffffffffffffffffffffffffffffff16815260200190815260200160002060009054906101000a900460ff16905092915050565b611758611a70565b73ffffffffffffffffffffffffffffffffffffffff16611776610fbd565b73ffffffffffffffffffffffffffffffffffffffff16146117cc576040517f08c379a00000000000000000000000000000000000000000000000000000000081526004016117c39061383e565b60405180910390fd5b600073ffffffffffffffffffffffffffffffffffffffff168173ffffffffffffffffffffffffffffffffffffffff16141561183c576040517f08c379a00000000000000000000000000000000000000000000000000000000081526004016118339061365e565b60405180910390fd5b61184581611eeb565b50565b6000806008600081548092919061185e90613c65565b91905055905061186e338261215f565b6118788184611b31565b336009600083815260200190815260200160002060006101000a81548173ffffffffffffffffffffffffffffffffffffffff021916908373ffffffffffffffffffffffffffffffffffffffff1602179055503373ffffffffffffffffffffffffffffffffffffffff16817f06becd955c918828f6e985541acbf49cc842c9e9bd569fffc7698e721ef1357585604051611911919061361c565b60405180910390a380915050919050565b60007f80ac58cd000000000000000000000000000000000000000000000000000000007bffffffffffffffffffffffffffffffffffffffffffffffffffffffff1916827bffffffffffffffffffffffffffffffffffffffffffffffffffffffff191614806119ed57507f5b5e139f000000000000000000000000000000000000000000000000000000007bffffffffffffffffffffffffffffffffffffffffffffffffffffffff1916827bffffffffffffffffffffffffffffffffffffffffffffffffffffffff1916145b806119fd57506119fc8261217d565b5b9050919050565b60008073ffffffffffffffffffffffffffffffffffffffff166002600084815260200190815260200160002060009054906101000a900473ffffffffffffffffffffffffffffffffffffffff1673ffffffffffffffffffffffffffffffffffffffff1614159050919050565b600033905090565b816004600083815260200190815260200160002060006101000a81548173ffffffffffffffffffffffffffffffffffffffff021916908373ffffffffffffffffffffffffffffffffffffffff160217905550808273ffffffffffffffffffffffffffffffffffffffff16611aeb83610c97565b73ffffffffffffffffffffffffffffffffffffffff167f8c5be1e5ebec7d5bd14f71427d1e84f3dd0314c0f7b2291e5b200ac8c7c3b92560405160405180910390a45050565b611b3a82611a04565b611b79576040517f08c379a0000000000000000000000000000000000000000000000000000000008152600401611b709061379e565b60405180910390fd5b80600660008481526020019081526020016000209080519060200190611ba09291906129b0565b505050565b6000611bb082611a04565b611bef576040517f08c379a0000000000000000000000000000000000000000000000000000000008152600401611be69061371e565b60405180910390fd5b6000611bfa83610c97565b90508073ffffffffffffffffffffffffffffffffffffffff168473ffffffffffffffffffffffffffffffffffffffff161480611c6957508373ffffffffffffffffffffffffffffffffffffffff16611c51846105a8565b73ffffffffffffffffffffffffffffffffffffffff16145b80611c7a5750611c7981856116bc565b5b91505092915050565b8273ffffffffffffffffffffffffffffffffffffffff16611ca382610c97565b73ffffffffffffffffffffffffffffffffffffffff1614611cf9576040517f08c379a0000000000000000000000000000000000000000000000000000000008152600401611cf09061385e565b60405180910390fd5b600073ffffffffffffffffffffffffffffffffffffffff168273ffffffffffffffffffffffffffffffffffffffff161415611d69576040517f08c379a0000000000000000000000000000000000000000000000000000000008152600401611d609061369e565b60405180910390fd5b611d748383836121e7565b611d7f600082611a78565b6001600360008573ffffffffffffffffffffffffffffffffffffffff1673ffffffffffffffffffffffffffffffffffffffff1681526020019081526020016000206000828254611dcf9190613b18565b925050819055506001600360008473ffffffffffffffffffffffffffffffffffffffff1673ffffffffffffffffffffffffffffffffffffffff1681526020019081526020016000206000828254611e269190613a91565b92505081905550816002600083815260200190815260200160002060006101000a81548173ffffffffffffffffffffffffffffffffffffffff021916908373ffffffffffffffffffffffffffffffffffffffff160217905550808273ffffffffffffffffffffffffffffffffffffffff168473ffffffffffffffffffffffffffffffffffffffff167fddf252ad1be2c89b69c2b068fc378daa952ba7f163c4a11628f55a4df523b3ef60405160405180910390a4505050565b611ee8816121ec565b50565b6000600760009054906101000a900473ffffffffffffffffffffffffffffffffffffffff16905081600760006101000a81548173ffffffffffffffffffffffffffffffffffffffff021916908373ffffffffffffffffffffffffffffffffffffffff1602179055508173ffffffffffffffffffffffffffffffffffffffff168173ffffffffffffffffffffffffffffffffffffffff167f8be0079c531659141344cd1fd0a4f28419497f9722a3daafe3b4186f6b6457e060405160405180910390a35050565b611fbc848484611c83565b611fc88484848461223f565b612007576040517f08c379a0000000000000000000000000000000000000000000000000000000008152600401611ffe9061363e565b60405180910390fd5b50505050565b606061201882611a04565b612057576040517f08c379a000000000000000000000000000000000000000000000000000000000815260040161204e906137fe565b60405180910390fd5b600060066000848152602001908152602001600020805461207790613c02565b80601f01602080910402602001604051908101604052809291908181526020018280546120a390613c02565b80156120f05780601f106120c5576101008083540402835291602001916120f0565b820191906000526020600020905b8154815290600101906020018083116120d357829003601f168201915b5050505050905060006121016123d6565b905060008151141561211757819250505061215a565b60008251111561214c578082604051602001612134929190613576565b6040516020818303038152906040529250505061215a565b612155846123ed565b925050505b919050565b612179828260405180602001604052806000815250612494565b5050565b60007f01ffc9a7000000000000000000000000000000000000000000000000000000007bffffffffffffffffffffffffffffffffffffffffffffffffffffffff1916827bffffffffffffffffffffffffffffffffffffffffffffffffffffffff1916149050919050565b505050565b6121f5816124ef565b600060066000838152602001908152602001600020805461221590613c02565b90501461223c5760066000828152602001908152602001600020600061223b9190612a36565b5b50565b60006122608473ffffffffffffffffffffffffffffffffffffffff16612600565b156123c9578373ffffffffffffffffffffffffffffffffffffffff1663150b7a02612289611a70565b8786866040518563ffffffff1660e01b81526004016122ab94939291906135b5565b602060405180830381600087803b1580156122c557600080fd5b505af19250505080156122f657506040513d601f19601f820116820180604052508101906122f39190612dcc565b60015b612379573d8060008114612326576040519150601f19603f3d011682016040523d82523d6000602084013e61232b565b606091505b50600081511415612371576040517f08c379a00000000000000000000000000000000000000000000000000000000081526004016123689061363e565b60405180910390fd5b805181602001fd5b63150b7a0260e01b7bffffffffffffffffffffffffffffffffffffffffffffffffffffffff1916817bffffffffffffffffffffffffffffffffffffffffffffffffffffffff1916149150506123ce565b600190505b949350505050565b606060405180602001604052806000815250905090565b60606123f882611a04565b612437576040517f08c379a000000000000000000000000000000000000000000000000000000000815260040161242e9061387e565b60405180910390fd5b60006124416123d6565b90506000815111612461576040518060200160405280600081525061248c565b8061246b84612613565b60405160200161247c929190613576565b6040516020818303038152906040525b915050919050565b61249e8383612774565b6124ab600084848461223f565b6124ea576040517f08c379a00000000000000000000000000000000000000000000000000000000081526004016124e19061363e565b60405180910390fd5b505050565b60006124fa82610c97565b9050612508816000846121e7565b612513600083611a78565b6001600360008373ffffffffffffffffffffffffffffffffffffffff1673ffffffffffffffffffffffffffffffffffffffff16815260200190815260200160002060008282546125639190613b18565b925050819055506002600083815260200190815260200160002060006101000a81549073ffffffffffffffffffffffffffffffffffffffff021916905581600073ffffffffffffffffffffffffffffffffffffffff168273ffffffffffffffffffffffffffffffffffffffff167fddf252ad1be2c89b69c2b068fc378daa952ba7f163c4a11628f55a4df523b3ef60405160405180910390a45050565b600080823b905060008111915050919050565b6060600082141561265b576040518060400160405280600181526020017f3000000000000000000000000000000000000000000000000000000000000000815250905061276f565b600082905060005b6000821461268d57808061267690613c65565b915050600a826126869190613ae7565b9150612663565b60008167ffffffffffffffff8111156126a9576126a8613d9b565b5b6040519080825280601f01601f1916602001820160405280156126db5781602001600182028036833780820191505090505b5090505b60008514612768576001826126f49190613b18565b9150600a856127039190613cae565b603061270f9190613a91565b60f81b81838151811061272557612724613d6c565b5b60200101907effffffffffffffffffffffffffffffffffffffffffffffffffffffffffffff1916908160001a905350600a856127619190613ae7565b94506126df565b8093505050505b919050565b600073ffffffffffffffffffffffffffffffffffffffff168273ffffffffffffffffffffffffffffffffffffffff1614156127e4576040517f08c379a00000000000000000000000000000000000000000000000000000000081526004016127db906137de565b60405180910390fd5b6127ed81611a04565b1561282d576040517f08c379a00000000000000000000000000000000000000000000000000000000081526004016128249061367e565b60405180910390fd5b612839600083836121e7565b6001600360008473ffffffffffffffffffffffffffffffffffffffff1673ffffffffffffffffffffffffffffffffffffffff16815260200190815260200160002060008282546128899190613a91565b92505081905550816002600083815260200190815260200160002060006101000a81548173ffffffffffffffffffffffffffffffffffffffff021916908373ffffffffffffffffffffffffffffffffffffffff160217905550808273ffffffffffffffffffffffffffffffffffffffff16600073ffffffffffffffffffffffffffffffffffffffff167fddf252ad1be2c89b69c2b068fc378daa952ba7f163c4a11628f55a4df523b3ef60405160405180910390a45050565b604051806040016040528060608152602001600081525090565b604051806080016040528060008152602001600073ffffffffffffffffffffffffffffffffffffffff168152602001600073ffffffffffffffffffffffffffffffffffffffff168152602001606081525090565b8280546129bc90613c02565b90600052602060002090601f0160209004810192826129de5760008555612a25565b82601f106129f757805160ff1916838001178555612a25565b82800160010185558215612a25579182015b82811115612a24578251825591602001919060010190612a09565b5b509050612a329190612a76565b5090565b508054612a4290613c02565b6000825580601f10612a545750612a73565b601f016020900490600052602060002090810190612a729190612a76565b5b50565b5b80821115612a8f576000816000905550600101612a77565b5090565b6000612aa6612aa1846139a2565b61397d565b905082815260208101848484011115612ac257612ac1613dcf565b5b612acd848285613bc0565b509392505050565b6000612ae8612ae3846139d3565b61397d565b905082815260208101848484011115612b0457612b03613dcf565b5b612b0f848285613bc0565b509392505050565b600081359050612b26816143fe565b92915050565b600081359050612b3b81614415565b92915050565b600081359050612b508161442c565b92915050565b600081519050612b658161442c565b92915050565b600082601f830112612b8057612b7f613dca565b5b8135612b90848260208601612a93565b91505092915050565b600082601f830112612bae57612bad613dca565b5b8135612bbe848260208601612ad5565b91505092915050565b600081359050612bd681614443565b92915050565b600060208284031215612bf257612bf1613dd9565b5b6000612c0084828501612b17565b91505092915050565b60008060408385031215612c2057612c1f613dd9565b5b6000612c2e85828601612b17565b9250506020612c3f85828601612b17565b9150509250929050565b600080600060608486031215612c6257612c61613dd9565b5b6000612c7086828701612b17565b9350506020612c8186828701612b17565b9250506040612c9286828701612bc7565b9150509250925092565b60008060008060808587031215612cb657612cb5613dd9565b5b6000612cc487828801612b17565b9450506020612cd587828801612b17565b9350506040612ce687828801612bc7565b925050606085013567ffffffffffffffff811115612d0757612d06613dd4565b5b612d1387828801612b6b565b91505092959194509250565b60008060408385031215612d3657612d35613dd9565b5b6000612d4485828601612b17565b9250506020612d5585828601612b2c565b9150509250929050565b60008060408385031215612d7657612d75613dd9565b5b6000612d8485828601612b17565b9250506020612d9585828601612bc7565b9150509250929050565b600060208284031215612db557612db4613dd9565b5b6000612dc384828501612b41565b91505092915050565b600060208284031215612de257612de1613dd9565b5b6000612df084828501612b56565b91505092915050565b600060208284031215612e0f57612e0e613dd9565b5b600082013567ffffffffffffffff811115612e2d57612e2c613dd4565b5b612e3984828501612b99565b91505092915050565b600060208284031215612e5857612e57613dd9565b5b6000612e6684828501612bc7565b91505092915050565b60008060408385031215612e8657612e85613dd9565b5b6000612e9485828601612bc7565b9250506020612ea585828601612b17565b9150509250929050565b600080600060608486031215612ec857612ec7613dd9565b5b6000612ed686828701612bc7565b9350506020612ee786828701612b17565b9250506040612ef886828701612b17565b9150509250925092565b60008060408385031215612f1957612f18613dd9565b5b6000612f2785828601612bc7565b925050602083013567ffffffffffffffff811115612f4857612f47613dd4565b5b612f5485828601612b99565b9150509250929050565b60008060408385031215612f7557612f74613dd9565b5b6000612f8385828601612bc7565b9250506020612f9485828601612bc7565b9150509250929050565b6000612faa8383613455565b905092915050565b612fbb81613b4c565b82525050565b612fca81613b4c565b82525050565b6000612fdb82613a14565b612fe58185613a42565b935083602082028501612ff785613a04565b8060005b8581101561303357848403895281516130148582612f9e565b945061301f83613a35565b925060208a01995050600181019050612ffb565b50829750879550505050505092915050565b61304e81613b5e565b82525050565b600061305f82613a1f565b6130698185613a53565b9350613079818560208601613bcf565b61308281613dde565b840191505092915050565b600061309882613a2a565b6130a28185613a64565b93506130b2818560208601613bcf565b6130bb81613dde565b840191505092915050565b60006130d182613a2a565b6130db8185613a75565b93506130eb818560208601613bcf565b6130f481613dde565b840191505092915050565b600061310a82613a2a565b6131148185613a86565b9350613124818560208601613bcf565b80840191505092915050565b600061313d603283613a75565b915061314882613def565b604082019050919050565b6000613160602683613a75565b915061316b82613e3e565b604082019050919050565b6000613183601c83613a75565b915061318e82613e8d565b602082019050919050565b60006131a6602483613a75565b91506131b182613eb6565b604082019050919050565b60006131c9601983613a75565b91506131d482613f05565b602082019050919050565b60006131ec602d83613a75565b91506131f782613f2e565b604082019050919050565b600061320f601483613a75565b915061321a82613f7d565b602082019050919050565b6000613232602c83613a75565b915061323d82613fa6565b604082019050919050565b6000613255603883613a75565b915061326082613ff5565b604082019050919050565b6000613278602a83613a75565b915061328382614044565b604082019050919050565b600061329b602983613a75565b91506132a682614093565b604082019050919050565b60006132be602e83613a75565b91506132c9826140e2565b604082019050919050565b60006132e1601883613a75565b91506132ec82614131565b602082019050919050565b6000613304602083613a75565b915061330f8261415a565b602082019050919050565b6000613327603183613a75565b915061333282614183565b604082019050919050565b600061334a602c83613a75565b9150613355826141d2565b604082019050919050565b600061336d602083613a75565b915061337882614221565b602082019050919050565b6000613390602983613a75565b915061339b8261424a565b604082019050919050565b60006133b3602f83613a75565b91506133be82614299565b604082019050919050565b60006133d6602183613a75565b91506133e1826142e8565b604082019050919050565b60006133f9603183613a75565b915061340482614337565b604082019050919050565b600061341c602383613a75565b915061342782614386565b604082019050919050565b600061343f601c83613a75565b915061344a826143d5565b602082019050919050565b600060808301600083015161346d6000860182613558565b5060208301516134806020860182612fb2565b5060408301516134936040860182612fb2565b50606083015184820360608601526134ab828261308d565b9150508091505092915050565b60006080830160008301516134d06000860182613558565b5060208301516134e36020860182612fb2565b5060408301516134f66040860182612fb2565b506060830151848203606086015261350e828261308d565b9150508091505092915050565b600060408301600083015184820360008601526135388282612fd0565b915050602083015161354d6020860182613558565b508091505092915050565b61356181613bb6565b82525050565b61357081613bb6565b82525050565b600061358282856130ff565b915061358e82846130ff565b91508190509392505050565b60006020820190506135af6000830184612fc1565b92915050565b60006080820190506135ca6000830187612fc1565b6135d76020830186612fc1565b6135e46040830185613567565b81810360608301526135f68184613054565b905095945050505050565b60006020820190506136166000830184613045565b92915050565b6000602082019050818103600083015261363681846130c6565b905092915050565b6000602082019050818103600083015261365781613130565b9050919050565b6000602082019050818103600083015261367781613153565b9050919050565b6000602082019050818103600083015261369781613176565b9050919050565b600060208201905081810360008301526136b781613199565b9050919050565b600060208201905081810360008301526136d7816131bc565b9050919050565b600060208201905081810360008301526136f7816131df565b9050919050565b6000602082019050818103600083015261371781613202565b9050919050565b6000602082019050818103600083015261373781613225565b9050919050565b6000602082019050818103600083015261375781613248565b9050919050565b600060208201905081810360008301526137778161326b565b9050919050565b600060208201905081810360008301526137978161328e565b9050919050565b600060208201905081810360008301526137b7816132b1565b9050919050565b600060208201905081810360008301526137d7816132d4565b9050919050565b600060208201905081810360008301526137f7816132f7565b9050919050565b600060208201905081810360008301526138178161331a565b9050919050565b600060208201905081810360008301526138378161333d565b9050919050565b6000602082019050818103600083015261385781613360565b9050919050565b6000602082019050818103600083015261387781613383565b9050919050565b60006020820190508181036000830152613897816133a6565b9050919050565b600060208201905081810360008301526138b7816133c9565b9050919050565b600060208201905081810360008301526138d7816133ec565b9050919050565b600060208201905081810360008301526138f78161340f565b9050919050565b6000602082019050818103600083015261391781613432565b9050919050565b6000602082019050818103600083015261393881846134b8565b905092915050565b6000602082019050818103600083015261395a818461351b565b905092915050565b60006020820190506139776000830184613567565b92915050565b6000613987613998565b90506139938282613c34565b919050565b6000604051905090565b600067ffffffffffffffff8211156139bd576139bc613d9b565b5b6139c682613dde565b9050602081019050919050565b600067ffffffffffffffff8211156139ee576139ed613d9b565b5b6139f782613dde565b9050602081019050919050565b6000819050602082019050919050565b600081519050919050565b600081519050919050565b600081519050919050565b6000602082019050919050565b600082825260208201905092915050565b600082825260208201905092915050565b600082825260208201905092915050565b600082825260208201905092915050565b600081905092915050565b6000613a9c82613bb6565b9150613aa783613bb6565b9250827fffffffffffffffffffffffffffffffffffffffffffffffffffffffffffffffff03821115613adc57613adb613cdf565b5b828201905092915050565b6000613af282613bb6565b9150613afd83613bb6565b925082613b0d57613b0c613d0e565b5b828204905092915050565b6000613b2382613bb6565b9150613b2e83613bb6565b925082821015613b4157613b40613cdf565b5b828203905092915050565b6000613b5782613b96565b9050919050565b60008115159050919050565b60007fffffffff0000000000000000000000000000000000000000000000000000000082169050919050565b600073ffffffffffffffffffffffffffffffffffffffff82169050919050565b6000819050919050565b82818337600083830152505050565b60005b83811015613bed578082015181840152602081019050613bd2565b83811115613bfc576000848401525b50505050565b60006002820490506001821680613c1a57607f821691505b60208210811415613c2e57613c2d613d3d565b5b50919050565b613c3d82613dde565b810181811067ffffffffffffffff82111715613c5c57613c5b613d9b565b5b80604052505050565b6000613c7082613bb6565b91507fffffffffffffffffffffffffffffffffffffffffffffffffffffffffffffffff821415613ca357613ca2613cdf565b5b600182019050919050565b6000613cb982613bb6565b9150613cc483613bb6565b925082613cd457613cd3613d0e565b5b828206905092915050565b7f4e487b7100000000000000000000000000000000000000000000000000000000600052601160045260246000fd5b7f4e487b7100000000000000000000000000000000000000000000000000000000600052601260045260246000fd5b7f4e487b7100000000000000000000000000000000000000000000000000000000600052602260045260246000fd5b7f4e487b7100000000000000000000000000000000000000000000000000000000600052603260045260246000fd5b7f4e487b7100000000000000000000000000000000000000000000000000000000600052604160045260246000fd5b600080fd5b600080fd5b600080fd5b600080fd5b6000601f19601f8301169050919050565b7f4552433732313a207472616e7366657220746f206e6f6e20455243373231526560008201527f63656976657220696d706c656d656e7465720000000000000000000000000000602082015250565b7f4f776e61626c653a206e6577206f776e657220697320746865207a65726f206160008201527f6464726573730000000000000000000000000000000000000000000000000000602082015250565b7f4552433732313a20746f6b656e20616c7265616479206d696e74656400000000600082015250565b7f4552433732313a207472616e7366657220746f20746865207a65726f2061646460008201527f7265737300000000000000000000000000000000000000000000000000000000602082015250565b7f4552433732313a20617070726f766520746f2063616c6c657200000000000000600082015250565b7f596f7520617265206e6f7420617574686f72697a656420746f207472616e736660008201527f6572207468697320746f6b656e00000000000000000000000000000000000000602082015250565b7f546f6b656e20646f6573206e6f74206578697374000000000000000000000000600082015250565b7f4552433732313a206f70657261746f7220717565727920666f72206e6f6e657860008201527f697374656e7420746f6b656e0000000000000000000000000000000000000000602082015250565b7f4552433732313a20617070726f76652063616c6c6572206973206e6f74206f7760008201527f6e6572206e6f7220617070726f76656420666f7220616c6c0000000000000000602082015250565b7f4552433732313a2062616c616e636520717565727920666f7220746865207a6560008201527f726f206164647265737300000000000000000000000000000000000000000000602082015250565b7f4552433732313a206f776e657220717565727920666f72206e6f6e657869737460008201527f656e7420746f6b656e0000000000000000000000000000000000000000000000602082015250565b7f45524337323155524953746f726167653a2055524920736574206f66206e6f6e60008201527f6578697374656e7420746f6b656e000000000000000000000000000000000000602082015250565b7f537461727420696e646578206f7574206f662072616e67650000000000000000600082015250565b7f4552433732313a206d696e7420746f20746865207a65726f2061646472657373600082015250565b7f45524337323155524953746f726167653a2055524920717565727920666f722060008201527f6e6f6e6578697374656e7420746f6b656e000000000000000000000000000000602082015250565b7f4552433732313a20617070726f76656420717565727920666f72206e6f6e657860008201527f697374656e7420746f6b656e0000000000000000000000000000000000000000602082015250565b7f4f776e61626c653a2063616c6c6572206973206e6f7420746865206f776e6572600082015250565b7f4552433732313a207472616e73666572206f6620746f6b656e2074686174206960008201527f73206e6f74206f776e0000000000000000000000000000000000000000000000602082015250565b7f4552433732314d657461646174613a2055524920717565727920666f72206e6f60008201527f6e6578697374656e7420746f6b656e0000000000000000000000000000000000602082015250565b7f4552433732313a20617070726f76616c20746f2063757272656e74206f776e6560008201527f7200000000000000000000000000000000000000000000000000000000000000602082015250565b7f4552433732313a207472616e736665722063616c6c6572206973206e6f74206f60008201527f776e6572206e6f7220617070726f766564000000000000000000000000000000602082015250565b7f596f7520617265206e6f7420746865206f776e6572206f66207468697320746f60008201527f6b656e0000000000000000000000000000000000000000000000000000000000602082015250565b7f436f756e74206d7573742062652067726561746572207468616e203000000000600082015250565b61440781613b4c565b811461441257600080fd5b50565b61441e81613b5e565b811461442957600080fd5b50565b61443581613b6a565b811461444057600080fd5b50565b61444c81613bb6565b811461445757600080fd5b5056fea2646970667358221220fa43c26ffee783b204de16aa3797d36bc129d71c956a6ef52a3209a3adf92d4c64736f6c63430008070033",
  "immutableReferences": {},
  "source": "// SPDX-License-Identifier: MIT\r\npragma solidity ^0.8.7;\r\n\r\nimport \"@openzeppelin/contracts/token/ERC721/ERC721.sol\";\r\nimport \"@openzeppelin/contracts/token/ERC721/extensions/ERC721URIStorage.sol\";\r\nimport \"@openzeppelin/contracts/access/Ownable.sol\";\r\n\r\ncontract NFTFrame is ERC721, ERC721URIStorage, Ownable {\r\n    uint256 private _nextTokenId; //    \r\n    mapping(uint256 => address) public creators; // tokenId   \r\n\r\n    //  NFT    \r\n    struct NFTInfo {\r\n        uint256 tokenId;\r\n        address creator;\r\n        address currentOwner;\r\n        string tokenURI;\r\n    }\r\n\r\n    struct NFTInfos {\r\n      NFTInfo[] nfts;\r\n      uint256 nextIndex;\r\n    }\r\n\r\n    event NFTMinted(uint256 indexed tokenId, address indexed creator, string tokenURI);\r\n    event NFTTransferred(uint256 indexed tokenId, address indexed from, address indexed to);\r\n    event TokenURIUpdated(uint256 indexed tokenId, string newTokenURI);\r\n    event NFTBurned(uint256 indexed tokenId);\r\n\r\n    constructor() ERC721(\"NFTFrame\", \"NFTF\") {}\r\n\r\n    // NFT  (nft , TokenURI  ,  )\r\n    function mintNFT(string memory _tokenURI) public returns (uint256) {\r\n        uint256 tokenId = _nextTokenId++;\r\n\r\n        _safeMint(msg.sender, tokenId);\r\n        _setTokenURI(tokenId, _tokenURI);\r\n        creators[tokenId] = msg.sender;\r\n\r\n        emit NFTMinted(tokenId, msg.sender, _tokenURI);\r\n\r\n        return tokenId;\r\n    }\r\n\r\n    // NFT  ()\r\n    function updateTokenURI(uint256 tokenId, string memory newTokenURI) public onlyOwner {\r\n        require(ownerOf(tokenId) != address(0), \"Token does not exist\");\r\n        _setTokenURI(tokenId, newTokenURI);  // URI  \r\n        emit TokenURIUpdated(tokenId, newTokenURI);\r\n    }\r\n\r\n    // NFT  ()\r\n    function updateOwnTokenURI(uint256 tokenId, string memory newTokenURI) public {\r\n        require(ownerOf(tokenId) != address(0), \"Token does not exist\");\r\n        require(ownerOf(tokenId) == msg.sender, \"You are not the owner of this token\");\r\n        _setTokenURI(tokenId, newTokenURI);\r\n        emit TokenURIUpdated(tokenId, newTokenURI);\r\n    }\r\n\r\n    // NFT  \r\n    function transferNFT(uint256 tokenId, address to) public returns (bool) {\r\n        require(ownerOf(tokenId) != address(0), \"Token does not exist\");\r\n        require(ownerOf(tokenId) == msg.sender, \"You are not the owner of this token\");\r\n        address from = ownerOf(tokenId);\r\n        _transfer(from, to, tokenId);\r\n        emit NFTTransferred(tokenId, from, to);\r\n\r\n        return true;\r\n    }\r\n\r\n    // NFT   to  \r\n    function transferNFTUserToUser(uint256 tokenId, address from, address to) public {\r\n        require(ownerOf(tokenId) != address(0), \"Token does not exist\");\r\n        require(ownerOf(tokenId) == from || getApproved(tokenId) == msg.sender, \"You are not authorized to transfer this token\");\r\n        \r\n        _transfer(from, to, tokenId);\r\n        emit NFTTransferred(tokenId, from, to);\r\n    }\r\n\r\n    // NFT  (   address(0)  )\r\n    function burnNFT(uint256 tokenId) public {\r\n        require(ownerOf(tokenId) != address(0), \"Token does not exist\");\r\n        require(ownerOf(tokenId) == msg.sender, \"You are not the owner of this token\");\r\n        _burn(tokenId);\r\n        delete creators[tokenId];\r\n        emit NFTBurned(tokenId);\r\n    }\r\n\r\n    // NFT  \r\n    function getNFTInfo(uint256 tokenId) public view returns (NFTInfo memory) {\r\n        require(ownerOf(tokenId) != address(0), \"Token does not exist\");\r\n        \r\n        return NFTInfo({\r\n            tokenId: tokenId,\r\n            creator: creators[tokenId],\r\n            currentOwner: ownerOf(tokenId),\r\n            tokenURI: tokenURI(tokenId)\r\n        });\r\n    }\r\n\r\n    //   NFT  ( ) (  )\r\n    function getActiveNFTs(uint256 startIndex, uint256 count) public view returns (NFTInfos memory) {\r\n        require(count > 0, \"Count must be greater than 0\");\r\n        require(startIndex < _nextTokenId, \"Start index out of range\");\r\n\r\n        NFTInfo[] memory activeNFTs = new NFTInfo[](count);\r\n        uint256 foundCount = 0;\r\n        uint256 currentIndex = startIndex;\r\n\r\n        while (foundCount < count && currentIndex < _nextTokenId) {\r\n            if (ownerOf(currentIndex) != address(0)) {\r\n                activeNFTs[foundCount] = NFTInfo({\r\n                    tokenId: currentIndex,\r\n                    creator: creators[currentIndex],\r\n                    currentOwner: ownerOf(currentIndex),\r\n                    tokenURI: tokenURI(currentIndex)\r\n                });\r\n                foundCount++;\r\n            }\r\n            currentIndex++;\r\n        }\r\n\r\n        //  NFT     ,   \r\n        if (foundCount < count) {\r\n            assembly {\r\n                mstore(activeNFTs, foundCount)\r\n            }\r\n        }\r\n\r\n        return NFTInfos({\r\n            nfts: activeNFTs,\r\n            nextIndex: currentIndex\r\n        });\r\n    }\r\n\r\n\r\n    //  \r\n    function _burn(uint256 tokenId) internal override(ERC721, ERC721URIStorage) {\r\n        super._burn(tokenId);\r\n    }\r\n    function tokenURI(uint256 tokenId) public view override(ERC721, ERC721URIStorage) returns (string memory) {\r\n        return super.tokenURI(tokenId);\r\n    }\r\n\r\n    function supportsInterface(bytes4 interfaceId) public view override(ERC721) returns (bool) {\r\n        return super.supportsInterface(interfaceId);\r\n    }\r\n}",
  "sourcePath": "C:\\Users\\SSAFY\\Desktop\\semonemo\\backend\\blockchain-server\\smartcontract\\contracts\\NFT.sol",
  "compiler": {
    "name": "solc",
    "version": "0.8.7+commit.e28d00a7.Emscripten.clang"
  },
  "schemaVersion": "3.4.16",
  "updatedAt": "2024-09-11T07:30:10.940Z",
  "networkType": "ethereum",
  "devdoc": {
    "kind": "dev",
    "methods": {
      "approve(address,uint256)": {
        "details": "See {IERC721-approve}."
      },
      "balanceOf(address)": {
        "details": "See {IERC721-balanceOf}."
      },
      "getApproved(uint256)": {
        "details": "See {IERC721-getApproved}."
      },
      "isApprovedForAll(address,address)": {
        "details": "See {IERC721-isApprovedForAll}."
      },
      "name()": {
        "details": "See {IERC721Metadata-name}."
      },
      "owner()": {
        "details": "Returns the address of the current owner."
      },
      "ownerOf(uint256)": {
        "details": "See {IERC721-ownerOf}."
      },
      "renounceOwnership()": {
        "details": "Leaves the contract without owner. It will not be possible to call `onlyOwner` functions anymore. Can only be called by the current owner. NOTE: Renouncing ownership will leave the contract without an owner, thereby removing any functionality that is only available to the owner."
      },
      "safeTransferFrom(address,address,uint256)": {
        "details": "See {IERC721-safeTransferFrom}."
      },
      "safeTransferFrom(address,address,uint256,bytes)": {
        "details": "See {IERC721-safeTransferFrom}."
      },
      "setApprovalForAll(address,bool)": {
        "details": "See {IERC721-setApprovalForAll}."
      },
      "supportsInterface(bytes4)": {
        "details": "See {IERC165-supportsInterface}."
      },
      "symbol()": {
        "details": "See {IERC721Metadata-symbol}."
      },
      "transferFrom(address,address,uint256)": {
        "details": "See {IERC721-transferFrom}."
      },
      "transferOwnership(address)": {
        "details": "Transfers ownership of the contract to a new account (`newOwner`). Can only be called by the current owner."
      }
    },
    "version": 1
  },
  "userdoc": {
    "kind": "user",
    "methods": {},
    "version": 1
  }
}