{
  "contractName": "NFTFrame",
  "abi": [
    {
      "inputs": [],
      "stateMutability": "nonpayable",
      "type": "constructor"
    },
    {
      "anonymous": false,
      "inputs": [
        {
          "indexed": true,
          "internalType": "address",
          "name": "owner",
          "type": "address"
        },
        {
          "indexed": true,
          "internalType": "address",
          "name": "approved",
          "type": "address"
        },
        {
          "indexed": true,
          "internalType": "uint256",
          "name": "tokenId",
          "type": "uint256"
        }
      ],
      "name": "Approval",
      "type": "event"
    },
    {
      "anonymous": false,
      "inputs": [
        {
          "indexed": true,
          "internalType": "address",
          "name": "owner",
          "type": "address"
        },
        {
          "indexed": true,
          "internalType": "address",
          "name": "operator",
          "type": "address"
        },
        {
          "indexed": false,
          "internalType": "bool",
          "name": "approved",
          "type": "bool"
        }
      ],
      "name": "ApprovalForAll",
      "type": "event"
    },
    {
      "anonymous": false,
      "inputs": [
        {
          "indexed": true,
          "internalType": "uint256",
          "name": "tokenId",
          "type": "uint256"
        }
      ],
      "name": "NFTBurned",
      "type": "event"
    },
    {
      "anonymous": false,
      "inputs": [
        {
          "indexed": true,
          "internalType": "uint256",
          "name": "tokenId",
          "type": "uint256"
        },
        {
          "indexed": true,
          "internalType": "address",
          "name": "creator",
          "type": "address"
        },
        {
          "indexed": false,
          "internalType": "string",
          "name": "tokenURI",
          "type": "string"
        }
      ],
      "name": "NFTMinted",
      "type": "event"
    },
    {
      "anonymous": false,
      "inputs": [
        {
          "indexed": true,
          "internalType": "uint256",
          "name": "tokenId",
          "type": "uint256"
        },
        {
          "indexed": true,
          "internalType": "address",
          "name": "from",
          "type": "address"
        },
        {
          "indexed": true,
          "internalType": "address",
          "name": "to",
          "type": "address"
        }
      ],
      "name": "NFTTransferred",
      "type": "event"
    },
    {
      "anonymous": false,
      "inputs": [
        {
          "indexed": true,
          "internalType": "address",
          "name": "previousOwner",
          "type": "address"
        },
        {
          "indexed": true,
          "internalType": "address",
          "name": "newOwner",
          "type": "address"
        }
      ],
      "name": "OwnershipTransferred",
      "type": "event"
    },
    {
      "anonymous": false,
      "inputs": [
        {
          "indexed": true,
          "internalType": "uint256",
          "name": "tokenId",
          "type": "uint256"
        },
        {
          "indexed": false,
          "internalType": "string",
          "name": "newTokenURI",
          "type": "string"
        }
      ],
      "name": "TokenURIUpdated",
      "type": "event"
    },
    {
      "anonymous": false,
      "inputs": [
        {
          "indexed": true,
          "internalType": "address",
          "name": "from",
          "type": "address"
        },
        {
          "indexed": true,
          "internalType": "address",
          "name": "to",
          "type": "address"
        },
        {
          "indexed": true,
          "internalType": "uint256",
          "name": "tokenId",
          "type": "uint256"
        }
      ],
      "name": "Transfer",
      "type": "event"
    },
    {
      "inputs": [
        {
          "internalType": "address",
          "name": "to",
          "type": "address"
        },
        {
          "internalType": "uint256",
          "name": "tokenId",
          "type": "uint256"
        }
      ],
      "name": "approve",
      "outputs": [],
      "stateMutability": "nonpayable",
      "type": "function"
    },
    {
      "inputs": [
        {
          "internalType": "address",
          "name": "owner",
          "type": "address"
        }
      ],
      "name": "balanceOf",
      "outputs": [
        {
          "internalType": "uint256",
          "name": "",
          "type": "uint256"
        }
      ],
      "stateMutability": "view",
      "type": "function",
      "constant": true
    },
    {
      "inputs": [
        {
          "internalType": "uint256",
          "name": "",
          "type": "uint256"
        }
      ],
      "name": "creators",
      "outputs": [
        {
          "internalType": "address",
          "name": "",
          "type": "address"
        }
      ],
      "stateMutability": "view",
      "type": "function",
      "constant": true
    },
    {
      "inputs": [
        {
          "internalType": "uint256",
          "name": "tokenId",
          "type": "uint256"
        }
      ],
      "name": "getApproved",
      "outputs": [
        {
          "internalType": "address",
          "name": "",
          "type": "address"
        }
      ],
      "stateMutability": "view",
      "type": "function",
      "constant": true
    },
    {
      "inputs": [
        {
          "internalType": "address",
          "name": "owner",
          "type": "address"
        },
        {
          "internalType": "address",
          "name": "operator",
          "type": "address"
        }
      ],
      "name": "isApprovedForAll",
      "outputs": [
        {
          "internalType": "bool",
          "name": "",
          "type": "bool"
        }
      ],
      "stateMutability": "view",
      "type": "function",
      "constant": true
    },
    {
      "inputs": [],
      "name": "mainContractAddress",
      "outputs": [
        {
          "internalType": "address",
          "name": "",
          "type": "address"
        }
      ],
      "stateMutability": "view",
      "type": "function",
      "constant": true
    },
    {
      "inputs": [],
      "name": "name",
      "outputs": [
        {
          "internalType": "string",
          "name": "",
          "type": "string"
        }
      ],
      "stateMutability": "view",
      "type": "function",
      "constant": true
    },
    {
      "inputs": [],
      "name": "owner",
      "outputs": [
        {
          "internalType": "address",
          "name": "",
          "type": "address"
        }
      ],
      "stateMutability": "view",
      "type": "function",
      "constant": true
    },
    {
      "inputs": [
        {
          "internalType": "uint256",
          "name": "tokenId",
          "type": "uint256"
        }
      ],
      "name": "ownerOf",
      "outputs": [
        {
          "internalType": "address",
          "name": "",
          "type": "address"
        }
      ],
      "stateMutability": "view",
      "type": "function",
      "constant": true
    },
    {
      "inputs": [],
      "name": "renounceOwnership",
      "outputs": [],
      "stateMutability": "nonpayable",
      "type": "function"
    },
    {
      "inputs": [
        {
          "internalType": "address",
          "name": "from",
          "type": "address"
        },
        {
          "internalType": "address",
          "name": "to",
          "type": "address"
        },
        {
          "internalType": "uint256",
          "name": "tokenId",
          "type": "uint256"
        }
      ],
      "name": "safeTransferFrom",
      "outputs": [],
      "stateMutability": "nonpayable",
      "type": "function"
    },
    {
      "inputs": [
        {
          "internalType": "address",
          "name": "from",
          "type": "address"
        },
        {
          "internalType": "address",
          "name": "to",
          "type": "address"
        },
        {
          "internalType": "uint256",
          "name": "tokenId",
          "type": "uint256"
        },
        {
          "internalType": "bytes",
          "name": "_data",
          "type": "bytes"
        }
      ],
      "name": "safeTransferFrom",
      "outputs": [],
      "stateMutability": "nonpayable",
      "type": "function"
    },
    {
      "inputs": [
        {
          "internalType": "address",
          "name": "operator",
          "type": "address"
        },
        {
          "internalType": "bool",
          "name": "approved",
          "type": "bool"
        }
      ],
      "name": "setApprovalForAll",
      "outputs": [],
      "stateMutability": "nonpayable",
      "type": "function"
    },
    {
      "inputs": [],
      "name": "symbol",
      "outputs": [
        {
          "internalType": "string",
          "name": "",
          "type": "string"
        }
      ],
      "stateMutability": "view",
      "type": "function",
      "constant": true
    },
    {
      "inputs": [
        {
          "internalType": "address",
          "name": "from",
          "type": "address"
        },
        {
          "internalType": "address",
          "name": "to",
          "type": "address"
        },
        {
          "internalType": "uint256",
          "name": "tokenId",
          "type": "uint256"
        }
      ],
      "name": "transferFrom",
      "outputs": [],
      "stateMutability": "nonpayable",
      "type": "function"
    },
    {
      "inputs": [
        {
          "internalType": "address",
          "name": "newOwner",
          "type": "address"
        }
      ],
      "name": "transferOwnership",
      "outputs": [],
      "stateMutability": "nonpayable",
      "type": "function"
    },
    {
      "inputs": [
        {
          "internalType": "address",
          "name": "_mainContractAddress",
          "type": "address"
        }
      ],
      "name": "setMainContractAddress",
      "outputs": [],
      "stateMutability": "nonpayable",
      "type": "function"
    },
    {
      "inputs": [
        {
          "internalType": "string",
          "name": "_tokenURI",
          "type": "string"
        }
      ],
      "name": "mintNFT",
      "outputs": [
        {
          "internalType": "uint256",
          "name": "",
          "type": "uint256"
        }
      ],
      "stateMutability": "nonpayable",
      "type": "function"
    },
    {
      "inputs": [
        {
          "internalType": "uint256",
          "name": "tokenId",
          "type": "uint256"
        },
        {
          "internalType": "string",
          "name": "newTokenURI",
          "type": "string"
        }
      ],
      "name": "updateOwnTokenURI",
      "outputs": [],
      "stateMutability": "nonpayable",
      "type": "function"
    },
    {
      "inputs": [
        {
          "internalType": "uint256",
          "name": "tokenId",
          "type": "uint256"
        },
        {
          "internalType": "address",
          "name": "to",
          "type": "address"
        }
      ],
      "name": "transferNFT",
      "outputs": [
        {
          "internalType": "bool",
          "name": "",
          "type": "bool"
        }
      ],
      "stateMutability": "nonpayable",
      "type": "function"
    },
    {
      "inputs": [
        {
          "internalType": "uint256",
          "name": "tokenId",
          "type": "uint256"
        },
        {
          "internalType": "address",
          "name": "from",
          "type": "address"
        },
        {
          "internalType": "address",
          "name": "to",
          "type": "address"
        }
      ],
      "name": "transferNFTUserToSystem",
      "outputs": [],
      "stateMutability": "nonpayable",
      "type": "function"
    },
    {
      "inputs": [
        {
          "internalType": "uint256",
          "name": "tokenId",
          "type": "uint256"
        }
      ],
      "name": "burnNFT",
      "outputs": [],
      "stateMutability": "nonpayable",
      "type": "function"
    },
    {
      "inputs": [
        {
          "internalType": "uint256",
          "name": "tokenId",
          "type": "uint256"
        }
      ],
      "name": "getNFTInfo",
      "outputs": [
        {
          "components": [
            {
              "internalType": "uint256",
              "name": "tokenId",
              "type": "uint256"
            },
            {
              "internalType": "address",
              "name": "creator",
              "type": "address"
            },
            {
              "internalType": "address",
              "name": "currentOwner",
              "type": "address"
            },
            {
              "internalType": "string",
              "name": "tokenURI",
              "type": "string"
            }
          ],
          "internalType": "struct NFTFrame.NFTInfo",
          "name": "",
          "type": "tuple"
        }
      ],
      "stateMutability": "view",
      "type": "function",
      "constant": true
    },
    {
      "inputs": [
        {
          "internalType": "uint256",
          "name": "startIndex",
          "type": "uint256"
        },
        {
          "internalType": "uint256",
          "name": "count",
          "type": "uint256"
        }
      ],
      "name": "getActiveNFTs",
      "outputs": [
        {
          "components": [
            {
              "components": [
                {
                  "internalType": "uint256",
                  "name": "tokenId",
                  "type": "uint256"
                },
                {
                  "internalType": "address",
                  "name": "creator",
                  "type": "address"
                },
                {
                  "internalType": "address",
                  "name": "currentOwner",
                  "type": "address"
                },
                {
                  "internalType": "string",
                  "name": "tokenURI",
                  "type": "string"
                }
              ],
              "internalType": "struct NFTFrame.NFTInfo[]",
              "name": "nfts",
              "type": "tuple[]"
            },
            {
              "internalType": "uint256",
              "name": "nextIndex",
              "type": "uint256"
            },
            {
              "internalType": "bool",
              "name": "hasNext",
              "type": "bool"
            }
          ],
          "internalType": "struct NFTFrame.NFTInfos",
          "name": "",
          "type": "tuple"
        }
      ],
      "stateMutability": "view",
      "type": "function",
      "constant": true
    },
    {
      "inputs": [
        {
          "internalType": "uint256[]",
          "name": "tokenIds",
          "type": "uint256[]"
        }
      ],
      "name": "getNFTsByIds",
      "outputs": [
        {
          "components": [
            {
              "internalType": "uint256",
              "name": "tokenId",
              "type": "uint256"
            },
            {
              "internalType": "address",
              "name": "creator",
              "type": "address"
            },
            {
              "internalType": "address",
              "name": "currentOwner",
              "type": "address"
            },
            {
              "internalType": "string",
              "name": "tokenURI",
              "type": "string"
            }
          ],
          "internalType": "struct NFTFrame.NFTInfo[]",
          "name": "",
          "type": "tuple[]"
        }
      ],
      "stateMutability": "view",
      "type": "function",
      "constant": true
    },
    {
      "inputs": [
        {
          "internalType": "address",
          "name": "user",
          "type": "address"
        },
        {
          "internalType": "uint256",
          "name": "startIndex",
          "type": "uint256"
        },
        {
          "internalType": "uint256",
          "name": "count",
          "type": "uint256"
        }
      ],
      "name": "getUserNFTs",
      "outputs": [
        {
          "components": [
            {
              "components": [
                {
                  "internalType": "uint256",
                  "name": "tokenId",
                  "type": "uint256"
                },
                {
                  "internalType": "address",
                  "name": "creator",
                  "type": "address"
                },
                {
                  "internalType": "address",
                  "name": "currentOwner",
                  "type": "address"
                },
                {
                  "internalType": "string",
                  "name": "tokenURI",
                  "type": "string"
                }
              ],
              "internalType": "struct NFTFrame.NFTInfo[]",
              "name": "nfts",
              "type": "tuple[]"
            },
            {
              "internalType": "uint256",
              "name": "nextIndex",
              "type": "uint256"
            },
            {
              "internalType": "bool",
              "name": "hasNext",
              "type": "bool"
            }
          ],
          "internalType": "struct NFTFrame.NFTInfos",
          "name": "",
          "type": "tuple"
        }
      ],
      "stateMutability": "view",
      "type": "function",
      "constant": true
    },
    {
      "inputs": [
        {
          "internalType": "address",
          "name": "user",
          "type": "address"
        }
      ],
      "name": "getUserNFTIds",
      "outputs": [
        {
          "internalType": "uint256[]",
          "name": "",
          "type": "uint256[]"
        }
      ],
      "stateMutability": "view",
      "type": "function",
      "constant": true
    },
    {
      "inputs": [
        {
          "internalType": "uint256",
          "name": "tokenId",
          "type": "uint256"
        }
      ],
      "name": "tokenURI",
      "outputs": [
        {
          "internalType": "string",
          "name": "",
          "type": "string"
        }
      ],
      "stateMutability": "view",
      "type": "function",
      "constant": true
    },
    {
      "inputs": [
        {
          "internalType": "bytes4",
          "name": "interfaceId",
          "type": "bytes4"
        }
      ],
      "name": "supportsInterface",
      "outputs": [
        {
          "internalType": "bool",
          "name": "",
          "type": "bool"
        }
      ],
      "stateMutability": "view",
      "type": "function",
      "constant": true
    }
  ],
  "bytecode": "0x60806040523480156200001157600080fd5b506040518060400160405280600881526020017f4e46544672616d650000000000000000000000000000000000000000000000008152506040518060400160405280600481526020017f4e46544600000000000000000000000000000000000000000000000000000000815250816000908051906020019062000096929190620001a6565b508060019080519060200190620000af929190620001a6565b505050620000d2620000c6620000d860201b60201c565b620000e060201b60201c565b620002bb565b600033905090565b6000600760009054906101000a900473ffffffffffffffffffffffffffffffffffffffff16905081600760006101000a81548173ffffffffffffffffffffffffffffffffffffffff021916908373ffffffffffffffffffffffffffffffffffffffff1602179055508173ffffffffffffffffffffffffffffffffffffffff168173ffffffffffffffffffffffffffffffffffffffff167f8be0079c531659141344cd1fd0a4f28419497f9722a3daafe3b4186f6b6457e060405160405180910390a35050565b828054620001b49062000256565b90600052602060002090601f016020900481019282620001d8576000855562000224565b82601f10620001f357805160ff191683800117855562000224565b8280016001018555821562000224579182015b828111156200022357825182559160200191906001019062000206565b5b50905062000233919062000237565b5090565b5b808211156200025257600081600090555060010162000238565b5090565b600060028204905060018216806200026f57607f821691505b602082108114156200028657620002856200028c565b5b50919050565b7f4e487b7100000000000000000000000000000000000000000000000000000000600052602260045260246000fd5b61535d80620002cb6000396000f3fe608060405234801561001057600080fd5b50600436106101cf5760003560e01c80638da5cb5b11610104578063cd53d08e116100a2578063e985e9c511610071578063e985e9c514610576578063ec9da59e146105a6578063f2fde38b146105c2578063fb37e883146105de576101cf565b8063cd53d08e146104c8578063d188929f146104f8578063da6b735614610528578063e6b1fa2a14610546576101cf565b806395d89b41116100de57806395d89b4114610442578063a22cb46514610460578063b88d4fde1461047c578063c87b56dd14610498576101cf565b80638da5cb5b146103c45780639036c050146103e25780639061343a14610412576101cf565b80632890e0d7116101715780636352211e1161014b5780636352211e1461033e57806370a082311461036e578063715018a61461039e57806374cf877d146103a8576101cf565b80632890e0d7146102ea57806342842e0e146103065780634f89cea614610322576101cf565b8063081812fc116101ad578063081812fc14610252578063095ea7b31461028257806323b872dd1461029e5780632708f141146102ba576101cf565b8063016ae931146101d457806301ffc9a71461020457806306fdde0314610234575b600080fd5b6101ee60048036038101906101e99190613878565b61060e565b6040516101fb91906142bc565b60405180910390f35b61021e600480360381019061021991906138c1565b6107f0565b60405161022b9190614300565b60405180910390f35b61023c610802565b604051610249919061431b565b60405180910390f35b61026c60048036038101906102679190613964565b610894565b6040516102799190614255565b60405180910390f35b61029c600480360381019061029791906137e5565b610919565b005b6102b860048036038101906102b391906136cf565b610a31565b005b6102d460048036038101906102cf9190613a80565b610a91565b6040516102e191906146bf565b60405180910390f35b61030460048036038101906102ff9190613964565b610cde565b005b610320600480360381019061031b91906136cf565b610e45565b005b61033c600480360381019061033791906139d1565b610e65565b005b61035860048036038101906103539190613964565b61107e565b6040516103659190614255565b60405180910390f35b61038860048036038101906103839190613662565b611130565b60405161039591906146e1565b60405180910390f35b6103a66111e8565b005b6103c260048036038101906103bd9190613a24565b611270565b005b6103cc6113a4565b6040516103d99190614255565b60405180910390f35b6103fc60048036038101906103f79190613991565b6113ce565b6040516104099190614300565b60405180910390f35b61042c60048036038101906104279190613825565b61154f565b60405161043991906146bf565b60405180910390f35b61044a6117d4565b604051610457919061431b565b60405180910390f35b61047a600480360381019061047591906137a5565b611866565b005b61049660048036038101906104919190613722565b6119e7565b005b6104b260048036038101906104ad9190613964565b611a49565b6040516104bf919061431b565b60405180910390f35b6104e260048036038101906104dd9190613964565b611a5b565b6040516104ef9190614255565b60405180910390f35b610512600480360381019061050d9190613964565b611a8e565b60405161051f919061469d565b60405180910390f35b610530611ba5565b60405161053d9190614255565b60405180910390f35b610560600480360381019061055b9190613662565b611bcb565b60405161056d91906142de565b60405180910390f35b610590600480360381019061058b919061368f565b611ce7565b60405161059d9190614300565b60405180910390f35b6105c060048036038101906105bb9190613662565b611d7b565b005b6105dc60048036038101906105d79190613662565b611ec0565b005b6105f860048036038101906105f3919061391b565b611fb8565b60405161060591906146e1565b60405180910390f35b60606000825167ffffffffffffffff81111561062d5761062c614bbf565b5b60405190808252806020026020018201604052801561066657816020015b610653613321565b81526020019060019003908161064b5790505b50905060005b83518110156107e657600084828151811061068a57610689614b90565b5b6020026020010151905061069d8161209c565b156107555760405180608001604052808281526020016009600084815260200190815260200160002060009054906101000a900473ffffffffffffffffffffffffffffffffffffffff1673ffffffffffffffffffffffffffffffffffffffff16815260200161070b8361107e565b73ffffffffffffffffffffffffffffffffffffffff16815260200161072f83611a49565b81525083838151811061074557610744614b90565b5b60200260200101819052506107d2565b6040518060800160405280828152602001600073ffffffffffffffffffffffffffffffffffffffff168152602001600073ffffffffffffffffffffffffffffffffffffffff168152602001604051806020016040528060008152508152508383815181106107c6576107c5614b90565b5b60200260200101819052505b5080806107de90614a5a565b91505061066c565b5080915050919050565b60006107fb82612108565b9050919050565b606060008054610811906149f7565b80601f016020809104026020016040519081016040528092919081815260200182805461083d906149f7565b801561088a5780601f1061085f5761010080835404028352916020019161088a565b820191906000526020600020905b81548152906001019060200180831161086d57829003601f168201915b5050505050905090565b600061089f8261209c565b6108de576040517f08c379a00000000000000000000000000000000000000000000000000000000081526004016108d59061457d565b60405180910390fd5b6004600083815260200190815260200160002060009054906101000a900473ffffffffffffffffffffffffffffffffffffffff169050919050565b60006109248261107e565b90508073ffffffffffffffffffffffffffffffffffffffff168373ffffffffffffffffffffffffffffffffffffffff161415610995576040517f08c379a000000000000000000000000000000000000000000000000000000000815260040161098c9061461d565b60405180910390fd5b8073ffffffffffffffffffffffffffffffffffffffff166109b46121ea565b73ffffffffffffffffffffffffffffffffffffffff1614806109e357506109e2816109dd6121ea565b611ce7565b5b610a22576040517f08c379a0000000000000000000000000000000000000000000000000000000008152600401610a199061447d565b60405180910390fd5b610a2c83836121f2565b505050565b610a42610a3c6121ea565b826122ab565b610a81576040517f08c379a0000000000000000000000000000000000000000000000000000000008152600401610a789061463d565b60405180910390fd5b610a8c838383612389565b505050565b610a99613375565b60008211610adc576040517f08c379a0000000000000000000000000000000000000000000000000000000008152600401610ad39061467d565b60405180910390fd5b6008548310610b20576040517f08c379a0000000000000000000000000000000000000000000000000000000008152600401610b17906144fd565b60405180910390fd5b60008267ffffffffffffffff811115610b3c57610b3b614bbf565b5b604051908082528060200260200182016040528015610b7557816020015b610b62613321565b815260200190600190039081610b5a5790505b5090506000808590505b8482108015610b8f575060085481105b15610ca057600073ffffffffffffffffffffffffffffffffffffffff16610bb58261107e565b73ffffffffffffffffffffffffffffffffffffffff1614610c8d5760405180608001604052808281526020016009600084815260200190815260200160002060009054906101000a900473ffffffffffffffffffffffffffffffffffffffff1673ffffffffffffffffffffffffffffffffffffffff168152602001610c398361107e565b73ffffffffffffffffffffffffffffffffffffffff168152602001610c5d83611a49565b815250838381518110610c7357610c72614b90565b5b60200260200101819052508180610c8990614a5a565b9250505b8080610c9890614a5a565b915050610b7f565b84821015610cac578183525b600060085482109050604051806060016040528085815260200183815260200182151581525094505050505092915050565b600073ffffffffffffffffffffffffffffffffffffffff16610cff8261107e565b73ffffffffffffffffffffffffffffffffffffffff161415610d56576040517f08c379a0000000000000000000000000000000000000000000000000000000008152600401610d4d9061441d565b60405180910390fd5b3373ffffffffffffffffffffffffffffffffffffffff16610d768261107e565b73ffffffffffffffffffffffffffffffffffffffff1614610dcc576040517f08c379a0000000000000000000000000000000000000000000000000000000008152600401610dc39061465d565b60405180910390fd5b610dd633826125e5565b610ddf81612768565b6009600082815260200190815260200160002060006101000a81549073ffffffffffffffffffffffffffffffffffffffff0219169055807f3c176691ca154a2f6fe978a2a633a33ee77dbe2902e67a75400720845a4b2ce160405160405180910390a250565b610e60838383604051806020016040528060008152506119e7565b505050565b600073ffffffffffffffffffffffffffffffffffffffff16600b60009054906101000a900473ffffffffffffffffffffffffffffffffffffffff1673ffffffffffffffffffffffffffffffffffffffff161415610ef7576040517f08c379a0000000000000000000000000000000000000000000000000000000008152600401610eee9061455d565b60405180910390fd5b600b60009054906101000a900473ffffffffffffffffffffffffffffffffffffffff1673ffffffffffffffffffffffffffffffffffffffff163373ffffffffffffffffffffffffffffffffffffffff1614610f87576040517f08c379a0000000000000000000000000000000000000000000000000000000008152600401610f7e9061435d565b60405180910390fd5b600073ffffffffffffffffffffffffffffffffffffffff16610fa88461107e565b73ffffffffffffffffffffffffffffffffffffffff161415610fff576040517f08c379a0000000000000000000000000000000000000000000000000000000008152600401610ff69061441d565b60405180910390fd5b61100982846125e5565b611014828285612389565b61101e8184612774565b8073ffffffffffffffffffffffffffffffffffffffff168273ffffffffffffffffffffffffffffffffffffffff16847f67043fac5fd2bf9edbb46ee495aaed7f97f91d43507d373be2b592af19b8c0a860405160405180910390a4505050565b6000806002600084815260200190815260200160002060009054906101000a900473ffffffffffffffffffffffffffffffffffffffff169050600073ffffffffffffffffffffffffffffffffffffffff168173ffffffffffffffffffffffffffffffffffffffff161415611127576040517f08c379a000000000000000000000000000000000000000000000000000000000815260040161111e906144bd565b60405180910390fd5b80915050919050565b60008073ffffffffffffffffffffffffffffffffffffffff168273ffffffffffffffffffffffffffffffffffffffff1614156111a1576040517f08c379a00000000000000000000000000000000000000000000000000000000081526004016111989061449d565b60405180910390fd5b600360008373ffffffffffffffffffffffffffffffffffffffff1673ffffffffffffffffffffffffffffffffffffffff168152602001908152602001600020549050919050565b6111f06121ea565b73ffffffffffffffffffffffffffffffffffffffff1661120e6113a4565b73ffffffffffffffffffffffffffffffffffffffff1614611264576040517f08c379a000000000000000000000000000000000000000000000000000000000815260040161125b9061459d565b60405180910390fd5b61126e6000612856565b565b600073ffffffffffffffffffffffffffffffffffffffff166112918361107e565b73ffffffffffffffffffffffffffffffffffffffff1614156112e8576040517f08c379a00000000000000000000000000000000000000000000000000000000081526004016112df9061441d565b60405180910390fd5b3373ffffffffffffffffffffffffffffffffffffffff166113088361107e565b73ffffffffffffffffffffffffffffffffffffffff161461135e576040517f08c379a00000000000000000000000000000000000000000000000000000000081526004016113559061465d565b60405180910390fd5b611368828261291c565b817f931f495b9a8e5d8e61946ea5d61e021f636cfe213a801f97589c18c152e408bd82604051611398919061431b565b60405180910390a25050565b6000600760009054906101000a900473ffffffffffffffffffffffffffffffffffffffff16905090565b60008073ffffffffffffffffffffffffffffffffffffffff166113f08461107e565b73ffffffffffffffffffffffffffffffffffffffff161415611447576040517f08c379a000000000000000000000000000000000000000000000000000000000815260040161143e9061441d565b60405180910390fd5b3373ffffffffffffffffffffffffffffffffffffffff166114678461107e565b73ffffffffffffffffffffffffffffffffffffffff16146114bd576040517f08c379a00000000000000000000000000000000000000000000000000000000081526004016114b49061465d565b60405180910390fd5b60006114c88461107e565b90506114d481856125e5565b6114df818486612389565b6114e98385612774565b8273ffffffffffffffffffffffffffffffffffffffff168173ffffffffffffffffffffffffffffffffffffffff16857f67043fac5fd2bf9edbb46ee495aaed7f97f91d43507d373be2b592af19b8c0a860405160405180910390a4600191505092915050565b611557613375565b6000821161159a576040517f08c379a00000000000000000000000000000000000000000000000000000000081526004016115919061467d565b60405180910390fd5b6000600a60008673ffffffffffffffffffffffffffffffffffffffff1673ffffffffffffffffffffffffffffffffffffffff168152602001908152602001600020905080805490508410611623576040517f08c379a000000000000000000000000000000000000000000000000000000000815260040161161a906144fd565b60405180910390fd5b60008367ffffffffffffffff81111561163f5761163e614bbf565b5b60405190808252806020026020018201604052801561167857816020015b611665613321565b81526020019060019003908161165d5790505b5090506000808690505b85821080156116945750838054905081105b156117925760008482815481106116ae576116ad614b90565b5b906000526020600020015490506116c48161209c565b1561177e5760405180608001604052808281526020016009600084815260200190815260200160002060009054906101000a900473ffffffffffffffffffffffffffffffffffffffff1673ffffffffffffffffffffffffffffffffffffffff1681526020018a73ffffffffffffffffffffffffffffffffffffffff16815260200161174e83611a49565b81525084848151811061176457611763614b90565b5b6020026020010181905250828061177a90614a5a565b9350505b818061178990614a5a565b92505050611682565b8582101561179e578183525b60008480549050821090506040518060600160405280858152602001838152602001821515815250955050505050509392505050565b6060600180546117e3906149f7565b80601f016020809104026020016040519081016040528092919081815260200182805461180f906149f7565b801561185c5780601f106118315761010080835404028352916020019161185c565b820191906000526020600020905b81548152906001019060200180831161183f57829003601f168201915b5050505050905090565b61186e6121ea565b73ffffffffffffffffffffffffffffffffffffffff168273ffffffffffffffffffffffffffffffffffffffff1614156118dc576040517f08c379a00000000000000000000000000000000000000000000000000000000081526004016118d3906143fd565b60405180910390fd5b80600560006118e96121ea565b73ffffffffffffffffffffffffffffffffffffffff1673ffffffffffffffffffffffffffffffffffffffff16815260200190815260200160002060008473ffffffffffffffffffffffffffffffffffffffff1673ffffffffffffffffffffffffffffffffffffffff16815260200190815260200160002060006101000a81548160ff0219169083151502179055508173ffffffffffffffffffffffffffffffffffffffff166119966121ea565b73ffffffffffffffffffffffffffffffffffffffff167f17307eab39ab6107e8899845ad3d59bd9653f200f220920489ca2b5937696c31836040516119db9190614300565b60405180910390a35050565b6119f86119f26121ea565b836122ab565b611a37576040517f08c379a0000000000000000000000000000000000000000000000000000000008152600401611a2e9061463d565b60405180910390fd5b611a4384848484612990565b50505050565b6060611a54826129ec565b9050919050565b60096020528060005260406000206000915054906101000a900473ffffffffffffffffffffffffffffffffffffffff1681565b611a96613321565b600073ffffffffffffffffffffffffffffffffffffffff16611ab78361107e565b73ffffffffffffffffffffffffffffffffffffffff161415611b0e576040517f08c379a0000000000000000000000000000000000000000000000000000000008152600401611b059061441d565b60405180910390fd5b60405180608001604052808381526020016009600085815260200190815260200160002060009054906101000a900473ffffffffffffffffffffffffffffffffffffffff1673ffffffffffffffffffffffffffffffffffffffff168152602001611b778461107e565b73ffffffffffffffffffffffffffffffffffffffff168152602001611b9b84611a49565b8152509050919050565b600b60009054906101000a900473ffffffffffffffffffffffffffffffffffffffff1681565b60606000600a60008473ffffffffffffffffffffffffffffffffffffffff1673ffffffffffffffffffffffffffffffffffffffff1681526020019081526020016000208054905011611c52576040517f08c379a0000000000000000000000000000000000000000000000000000000008152600401611c49906145fd565b60405180910390fd5b600a60008373ffffffffffffffffffffffffffffffffffffffff1673ffffffffffffffffffffffffffffffffffffffff168152602001908152602001600020805480602002602001604051908101604052809291908181526020018280548015611cdb57602002820191906000526020600020905b815481526020019060010190808311611cc7575b50505050509050919050565b6000600560008473ffffffffffffffffffffffffffffffffffffffff1673ffffffffffffffffffffffffffffffffffffffff16815260200190815260200160002060008373ffffffffffffffffffffffffffffffffffffffff1673ffffffffffffffffffffffffffffffffffffffff16815260200190815260200160002060009054906101000a900460ff16905092915050565b600073ffffffffffffffffffffffffffffffffffffffff16600b60009054906101000a900473ffffffffffffffffffffffffffffffffffffffff1673ffffffffffffffffffffffffffffffffffffffff1614611e0c576040517f08c379a0000000000000000000000000000000000000000000000000000000008152600401611e039061445d565b60405180910390fd5b600073ffffffffffffffffffffffffffffffffffffffff168173ffffffffffffffffffffffffffffffffffffffff161415611e7c576040517f08c379a0000000000000000000000000000000000000000000000000000000008152600401611e739061439d565b60405180910390fd5b80600b60006101000a81548173ffffffffffffffffffffffffffffffffffffffff021916908373ffffffffffffffffffffffffffffffffffffffff16021790555050565b611ec86121ea565b73ffffffffffffffffffffffffffffffffffffffff16611ee66113a4565b73ffffffffffffffffffffffffffffffffffffffff1614611f3c576040517f08c379a0000000000000000000000000000000000000000000000000000000008152600401611f339061459d565b60405180910390fd5b600073ffffffffffffffffffffffffffffffffffffffff168173ffffffffffffffffffffffffffffffffffffffff161415611fac576040517f08c379a0000000000000000000000000000000000000000000000000000000008152600401611fa39061437d565b60405180910390fd5b611fb581612856565b50565b60008060086000815480929190611fce90614a5a565b919050559050611fde3382612b3e565b611fe8818461291c565b336009600083815260200190815260200160002060006101000a81548173ffffffffffffffffffffffffffffffffffffffff021916908373ffffffffffffffffffffffffffffffffffffffff1602179055506120443382612774565b3373ffffffffffffffffffffffffffffffffffffffff16817f06becd955c918828f6e985541acbf49cc842c9e9bd569fffc7698e721ef135758560405161208b919061431b565b60405180910390a380915050919050565b60008073ffffffffffffffffffffffffffffffffffffffff166002600084815260200190815260200160002060009054906101000a900473ffffffffffffffffffffffffffffffffffffffff1673ffffffffffffffffffffffffffffffffffffffff1614159050919050565b60007f80ac58cd000000000000000000000000000000000000000000000000000000007bffffffffffffffffffffffffffffffffffffffffffffffffffffffff1916827bffffffffffffffffffffffffffffffffffffffffffffffffffffffff191614806121d357507f5b5e139f000000000000000000000000000000000000000000000000000000007bffffffffffffffffffffffffffffffffffffffffffffffffffffffff1916827bffffffffffffffffffffffffffffffffffffffffffffffffffffffff1916145b806121e357506121e282612b5c565b5b9050919050565b600033905090565b816004600083815260200190815260200160002060006101000a81548173ffffffffffffffffffffffffffffffffffffffff021916908373ffffffffffffffffffffffffffffffffffffffff160217905550808273ffffffffffffffffffffffffffffffffffffffff166122658361107e565b73ffffffffffffffffffffffffffffffffffffffff167f8c5be1e5ebec7d5bd14f71427d1e84f3dd0314c0f7b2291e5b200ac8c7c3b92560405160405180910390a45050565b60006122b68261209c565b6122f5576040517f08c379a00000000000000000000000000000000000000000000000000000000081526004016122ec9061443d565b60405180910390fd5b60006123008361107e565b90508073ffffffffffffffffffffffffffffffffffffffff168473ffffffffffffffffffffffffffffffffffffffff16148061236f57508373ffffffffffffffffffffffffffffffffffffffff1661235784610894565b73ffffffffffffffffffffffffffffffffffffffff16145b80612380575061237f8185611ce7565b5b91505092915050565b8273ffffffffffffffffffffffffffffffffffffffff166123a98261107e565b73ffffffffffffffffffffffffffffffffffffffff16146123ff576040517f08c379a00000000000000000000000000000000000000000000000000000000081526004016123f6906145bd565b60405180910390fd5b600073ffffffffffffffffffffffffffffffffffffffff168273ffffffffffffffffffffffffffffffffffffffff16141561246f576040517f08c379a0000000000000000000000000000000000000000000000000000000008152600401612466906143dd565b60405180910390fd5b61247a838383612bc6565b6124856000826121f2565b6001600360008573ffffffffffffffffffffffffffffffffffffffff1673ffffffffffffffffffffffffffffffffffffffff16815260200190815260200160002060008282546124d5919061490d565b925050819055506001600360008473ffffffffffffffffffffffffffffffffffffffff1673ffffffffffffffffffffffffffffffffffffffff168152602001908152602001600020600082825461252c9190614886565b92505081905550816002600083815260200190815260200160002060006101000a81548173ffffffffffffffffffffffffffffffffffffffff021916908373ffffffffffffffffffffffffffffffffffffffff160217905550808273ffffffffffffffffffffffffffffffffffffffff168473ffffffffffffffffffffffffffffffffffffffff167fddf252ad1be2c89b69c2b068fc378daa952ba7f163c4a11628f55a4df523b3ef60405160405180910390a4505050565b600073ffffffffffffffffffffffffffffffffffffffff166126068261107e565b73ffffffffffffffffffffffffffffffffffffffff16141561265d576040517f08c379a00000000000000000000000000000000000000000000000000000000081526004016126549061441d565b60405180910390fd5b6000600a60008473ffffffffffffffffffffffffffffffffffffffff1673ffffffffffffffffffffffffffffffffffffffff168152602001908152602001600020905060005b818054905081101561276257828282815481106126c3576126c2614b90565b5b9060005260206000200154141561274f5781600183805490506126e6919061490d565b815481106126f7576126f6614b90565b5b906000526020600020015482828154811061271557612714614b90565b5b90600052602060002001819055508180548061273457612733614b61565b5b60019003818190600052602060002001600090559055612762565b808061275a90614a5a565b9150506126a3565b50505050565b61277181612bcb565b50565b600073ffffffffffffffffffffffffffffffffffffffff166127958261107e565b73ffffffffffffffffffffffffffffffffffffffff1614156127ec576040517f08c379a00000000000000000000000000000000000000000000000000000000081526004016127e39061441d565b60405180910390fd5b600a60008373ffffffffffffffffffffffffffffffffffffffff1673ffffffffffffffffffffffffffffffffffffffff1681526020019081526020016000208190806001815401808255809150506001900390600052602060002001600090919091909150555050565b6000600760009054906101000a900473ffffffffffffffffffffffffffffffffffffffff16905081600760006101000a81548173ffffffffffffffffffffffffffffffffffffffff021916908373ffffffffffffffffffffffffffffffffffffffff1602179055508173ffffffffffffffffffffffffffffffffffffffff168173ffffffffffffffffffffffffffffffffffffffff167f8be0079c531659141344cd1fd0a4f28419497f9722a3daafe3b4186f6b6457e060405160405180910390a35050565b6129258261209c565b612964576040517f08c379a000000000000000000000000000000000000000000000000000000000815260040161295b906144dd565b60405180910390fd5b8060066000848152602001908152602001600020908051906020019061298b929190613398565b505050565b61299b848484612389565b6129a784848484612c1e565b6129e6576040517f08c379a00000000000000000000000000000000000000000000000000000000081526004016129dd9061433d565b60405180910390fd5b50505050565b60606129f78261209c565b612a36576040517f08c379a0000000000000000000000000000000000000000000000000000000008152600401612a2d9061453d565b60405180910390fd5b6000600660008481526020019081526020016000208054612a56906149f7565b80601f0160208091040260200160405190810160405280929190818152602001828054612a82906149f7565b8015612acf5780601f10612aa457610100808354040283529160200191612acf565b820191906000526020600020905b815481529060010190602001808311612ab257829003601f168201915b505050505090506000612ae0612db5565b9050600081511415612af6578192505050612b39565b600082511115612b2b578082604051602001612b13929190614231565b60405160208183030381529060405292505050612b39565b612b3484612dcc565b925050505b919050565b612b58828260405180602001604052806000815250612e73565b5050565b60007f01ffc9a7000000000000000000000000000000000000000000000000000000007bffffffffffffffffffffffffffffffffffffffffffffffffffffffff1916827bffffffffffffffffffffffffffffffffffffffffffffffffffffffff1916149050919050565b505050565b612bd481612ece565b6000600660008381526020019081526020016000208054612bf4906149f7565b905014612c1b57600660008281526020019081526020016000206000612c1a919061341e565b5b50565b6000612c3f8473ffffffffffffffffffffffffffffffffffffffff16612fdf565b15612da8578373ffffffffffffffffffffffffffffffffffffffff1663150b7a02612c686121ea565b8786866040518563ffffffff1660e01b8152600401612c8a9493929190614270565b602060405180830381600087803b158015612ca457600080fd5b505af1925050508015612cd557506040513d601f19601f82011682018060405250810190612cd291906138ee565b60015b612d58573d8060008114612d05576040519150601f19603f3d011682016040523d82523d6000602084013e612d0a565b606091505b50600081511415612d50576040517f08c379a0000000000000000000000000000000000000000000000000000000008152600401612d479061433d565b60405180910390fd5b805181602001fd5b63150b7a0260e01b7bffffffffffffffffffffffffffffffffffffffffffffffffffffffff1916817bffffffffffffffffffffffffffffffffffffffffffffffffffffffff191614915050612dad565b600190505b949350505050565b606060405180602001604052806000815250905090565b6060612dd78261209c565b612e16576040517f08c379a0000000000000000000000000000000000000000000000000000000008152600401612e0d906145dd565b60405180910390fd5b6000612e20612db5565b90506000815111612e405760405180602001604052806000815250612e6b565b80612e4a84612ff2565b604051602001612e5b929190614231565b6040516020818303038152906040525b915050919050565b612e7d8383613153565b612e8a6000848484612c1e565b612ec9576040517f08c379a0000000000000000000000000000000000000000000000000000000008152600401612ec09061433d565b60405180910390fd5b505050565b6000612ed98261107e565b9050612ee781600084612bc6565b612ef26000836121f2565b6001600360008373ffffffffffffffffffffffffffffffffffffffff1673ffffffffffffffffffffffffffffffffffffffff1681526020019081526020016000206000828254612f42919061490d565b925050819055506002600083815260200190815260200160002060006101000a81549073ffffffffffffffffffffffffffffffffffffffff021916905581600073ffffffffffffffffffffffffffffffffffffffff168273ffffffffffffffffffffffffffffffffffffffff167fddf252ad1be2c89b69c2b068fc378daa952ba7f163c4a11628f55a4df523b3ef60405160405180910390a45050565b600080823b905060008111915050919050565b6060600082141561303a576040518060400160405280600181526020017f3000000000000000000000000000000000000000000000000000000000000000815250905061314e565b600082905060005b6000821461306c57808061305590614a5a565b915050600a8261306591906148dc565b9150613042565b60008167ffffffffffffffff81111561308857613087614bbf565b5b6040519080825280601f01601f1916602001820160405280156130ba5781602001600182028036833780820191505090505b5090505b60008514613147576001826130d3919061490d565b9150600a856130e29190614aa3565b60306130ee9190614886565b60f81b81838151811061310457613103614b90565b5b60200101907effffffffffffffffffffffffffffffffffffffffffffffffffffffffffffff1916908160001a905350600a8561314091906148dc565b94506130be565b8093505050505b919050565b600073ffffffffffffffffffffffffffffffffffffffff168273ffffffffffffffffffffffffffffffffffffffff1614156131c3576040517f08c379a00000000000000000000000000000000000000000000000000000000081526004016131ba9061451d565b60405180910390fd5b6131cc8161209c565b1561320c576040517f08c379a0000000000000000000000000000000000000000000000000000000008152600401613203906143bd565b60405180910390fd5b61321860008383612bc6565b6001600360008473ffffffffffffffffffffffffffffffffffffffff1673ffffffffffffffffffffffffffffffffffffffff16815260200190815260200160002060008282546132689190614886565b92505081905550816002600083815260200190815260200160002060006101000a81548173ffffffffffffffffffffffffffffffffffffffff021916908373ffffffffffffffffffffffffffffffffffffffff160217905550808273ffffffffffffffffffffffffffffffffffffffff16600073ffffffffffffffffffffffffffffffffffffffff167fddf252ad1be2c89b69c2b068fc378daa952ba7f163c4a11628f55a4df523b3ef60405160405180910390a45050565b604051806080016040528060008152602001600073ffffffffffffffffffffffffffffffffffffffff168152602001600073ffffffffffffffffffffffffffffffffffffffff168152602001606081525090565b604051806060016040528060608152602001600081526020016000151581525090565b8280546133a4906149f7565b90600052602060002090601f0160209004810192826133c6576000855561340d565b82601f106133df57805160ff191683800117855561340d565b8280016001018555821561340d579182015b8281111561340c5782518255916020019190600101906133f1565b5b50905061341a919061345e565b5090565b50805461342a906149f7565b6000825580601f1061343c575061345b565b601f01602090049060005260206000209081019061345a919061345e565b5b50565b5b8082111561347757600081600090555060010161345f565b5090565b600061348e61348984614721565b6146fc565b905080838252602082019050828560208602820111156134b1576134b0614bf3565b5b60005b858110156134e157816134c7888261364d565b8452602084019350602083019250506001810190506134b4565b5050509392505050565b60006134fe6134f98461474d565b6146fc565b90508281526020810184848401111561351a57613519614bf8565b5b6135258482856149b5565b509392505050565b600061354061353b8461477e565b6146fc565b90508281526020810184848401111561355c5761355b614bf8565b5b6135678482856149b5565b509392505050565b60008135905061357e816152cb565b92915050565b600082601f83011261359957613598614bee565b5b81356135a984826020860161347b565b91505092915050565b6000813590506135c1816152e2565b92915050565b6000813590506135d6816152f9565b92915050565b6000815190506135eb816152f9565b92915050565b600082601f83011261360657613605614bee565b5b81356136168482602086016134eb565b91505092915050565b600082601f83011261363457613633614bee565b5b813561364484826020860161352d565b91505092915050565b60008135905061365c81615310565b92915050565b60006020828403121561367857613677614c02565b5b60006136868482850161356f565b91505092915050565b600080604083850312156136a6576136a5614c02565b5b60006136b48582860161356f565b92505060206136c58582860161356f565b9150509250929050565b6000806000606084860312156136e8576136e7614c02565b5b60006136f68682870161356f565b93505060206137078682870161356f565b92505060406137188682870161364d565b9150509250925092565b6000806000806080858703121561373c5761373b614c02565b5b600061374a8782880161356f565b945050602061375b8782880161356f565b935050604061376c8782880161364d565b925050606085013567ffffffffffffffff81111561378d5761378c614bfd565b5b613799878288016135f1565b91505092959194509250565b600080604083850312156137bc576137bb614c02565b5b60006137ca8582860161356f565b92505060206137db858286016135b2565b9150509250929050565b600080604083850312156137fc576137fb614c02565b5b600061380a8582860161356f565b925050602061381b8582860161364d565b9150509250929050565b60008060006060848603121561383e5761383d614c02565b5b600061384c8682870161356f565b935050602061385d8682870161364d565b925050604061386e8682870161364d565b9150509250925092565b60006020828403121561388e5761388d614c02565b5b600082013567ffffffffffffffff8111156138ac576138ab614bfd565b5b6138b884828501613584565b91505092915050565b6000602082840312156138d7576138d6614c02565b5b60006138e5848285016135c7565b91505092915050565b60006020828403121561390457613903614c02565b5b6000613912848285016135dc565b91505092915050565b60006020828403121561393157613930614c02565b5b600082013567ffffffffffffffff81111561394f5761394e614bfd565b5b61395b8482850161361f565b91505092915050565b60006020828403121561397a57613979614c02565b5b60006139888482850161364d565b91505092915050565b600080604083850312156139a8576139a7614c02565b5b60006139b68582860161364d565b92505060206139c78582860161356f565b9150509250929050565b6000806000606084860312156139ea576139e9614c02565b5b60006139f88682870161364d565b9350506020613a098682870161356f565b9250506040613a1a8682870161356f565b9150509250925092565b60008060408385031215613a3b57613a3a614c02565b5b6000613a498582860161364d565b925050602083013567ffffffffffffffff811115613a6a57613a69614bfd565b5b613a768582860161361f565b9150509250929050565b60008060408385031215613a9757613a96614c02565b5b6000613aa58582860161364d565b9250506020613ab68582860161364d565b9150509250929050565b6000613acc83836140fd565b905092915050565b6000613ae08383614213565b60208301905092915050565b613af581614941565b82525050565b613b0481614941565b82525050565b6000613b15826147cf565b613b1f8185614815565b935083602082028501613b31856147af565b8060005b85811015613b6d5784840389528151613b4e8582613ac0565b9450613b59836147fb565b925060208a01995050600181019050613b35565b50829750879550505050505092915050565b6000613b8a826147cf565b613b948185614826565b935083602082028501613ba6856147af565b8060005b85811015613be25784840389528151613bc38582613ac0565b9450613bce836147fb565b925060208a01995050600181019050613baa565b50829750879550505050505092915050565b6000613bff826147da565b613c098185614837565b9350613c14836147bf565b8060005b83811015613c45578151613c2c8882613ad4565b9750613c3783614808565b925050600181019050613c18565b5085935050505092915050565b613c5b81614953565b82525050565b613c6a81614953565b82525050565b6000613c7b826147e5565b613c858185614848565b9350613c958185602086016149c4565b613c9e81614c07565b840191505092915050565b6000613cb4826147f0565b613cbe8185614859565b9350613cce8185602086016149c4565b613cd781614c07565b840191505092915050565b6000613ced826147f0565b613cf7818561486a565b9350613d078185602086016149c4565b613d1081614c07565b840191505092915050565b6000613d26826147f0565b613d30818561487b565b9350613d408185602086016149c4565b80840191505092915050565b6000613d5960328361486a565b9150613d6482614c18565b604082019050919050565b6000613d7c601f8361486a565b9150613d8782614c67565b602082019050919050565b6000613d9f60268361486a565b9150613daa82614c90565b604082019050919050565b6000613dc2601d8361486a565b9150613dcd82614cdf565b602082019050919050565b6000613de5601c8361486a565b9150613df082614d08565b602082019050919050565b6000613e0860248361486a565b9150613e1382614d31565b604082019050919050565b6000613e2b60198361486a565b9150613e3682614d80565b602082019050919050565b6000613e4e60148361486a565b9150613e5982614da9565b602082019050919050565b6000613e71602c8361486a565b9150613e7c82614dd2565b604082019050919050565b6000613e94602a8361486a565b9150613e9f82614e21565b604082019050919050565b6000613eb760388361486a565b9150613ec282614e70565b604082019050919050565b6000613eda602a8361486a565b9150613ee582614ebf565b604082019050919050565b6000613efd60298361486a565b9150613f0882614f0e565b604082019050919050565b6000613f20602e8361486a565b9150613f2b82614f5d565b604082019050919050565b6000613f4360188361486a565b9150613f4e82614fac565b602082019050919050565b6000613f6660208361486a565b9150613f7182614fd5565b602082019050919050565b6000613f8960318361486a565b9150613f9482614ffe565b604082019050919050565b6000613fac60158361486a565b9150613fb78261504d565b602082019050919050565b6000613fcf602c8361486a565b9150613fda82615076565b604082019050919050565b6000613ff260208361486a565b9150613ffd826150c5565b602082019050919050565b600061401560298361486a565b9150614020826150ee565b604082019050919050565b6000614038602f8361486a565b91506140438261513d565b604082019050919050565b600061405b601a8361486a565b91506140668261518c565b602082019050919050565b600061407e60218361486a565b9150614089826151b5565b604082019050919050565b60006140a160318361486a565b91506140ac82615204565b604082019050919050565b60006140c460238361486a565b91506140cf82615253565b604082019050919050565b60006140e7601c8361486a565b91506140f2826152a2565b602082019050919050565b60006080830160008301516141156000860182614213565b5060208301516141286020860182613aec565b50604083015161413b6040860182613aec565b50606083015184820360608601526141538282613ca9565b9150508091505092915050565b60006080830160008301516141786000860182614213565b50602083015161418b6020860182613aec565b50604083015161419e6040860182613aec565b50606083015184820360608601526141b68282613ca9565b9150508091505092915050565b600060608301600083015184820360008601526141e08282613b0a565b91505060208301516141f56020860182614213565b5060408301516142086040860182613c52565b508091505092915050565b61421c816149ab565b82525050565b61422b816149ab565b82525050565b600061423d8285613d1b565b91506142498284613d1b565b91508190509392505050565b600060208201905061426a6000830184613afb565b92915050565b60006080820190506142856000830187613afb565b6142926020830186613afb565b61429f6040830185614222565b81810360608301526142b18184613c70565b905095945050505050565b600060208201905081810360008301526142d68184613b7f565b905092915050565b600060208201905081810360008301526142f88184613bf4565b905092915050565b60006020820190506143156000830184613c61565b92915050565b600060208201905081810360008301526143358184613ce2565b905092915050565b6000602082019050818103600083015261435681613d4c565b9050919050565b6000602082019050818103600083015261437681613d6f565b9050919050565b6000602082019050818103600083015261439681613d92565b9050919050565b600060208201905081810360008301526143b681613db5565b9050919050565b600060208201905081810360008301526143d681613dd8565b9050919050565b600060208201905081810360008301526143f681613dfb565b9050919050565b6000602082019050818103600083015261441681613e1e565b9050919050565b6000602082019050818103600083015261443681613e41565b9050919050565b6000602082019050818103600083015261445681613e64565b9050919050565b6000602082019050818103600083015261447681613e87565b9050919050565b6000602082019050818103600083015261449681613eaa565b9050919050565b600060208201905081810360008301526144b681613ecd565b9050919050565b600060208201905081810360008301526144d681613ef0565b9050919050565b600060208201905081810360008301526144f681613f13565b9050919050565b6000602082019050818103600083015261451681613f36565b9050919050565b6000602082019050818103600083015261453681613f59565b9050919050565b6000602082019050818103600083015261455681613f7c565b9050919050565b6000602082019050818103600083015261457681613f9f565b9050919050565b6000602082019050818103600083015261459681613fc2565b9050919050565b600060208201905081810360008301526145b681613fe5565b9050919050565b600060208201905081810360008301526145d681614008565b9050919050565b600060208201905081810360008301526145f68161402b565b9050919050565b600060208201905081810360008301526146168161404e565b9050919050565b6000602082019050818103600083015261463681614071565b9050919050565b6000602082019050818103600083015261465681614094565b9050919050565b60006020820190508181036000830152614676816140b7565b9050919050565b60006020820190508181036000830152614696816140da565b9050919050565b600060208201905081810360008301526146b78184614160565b905092915050565b600060208201905081810360008301526146d981846141c3565b905092915050565b60006020820190506146f66000830184614222565b92915050565b6000614706614717565b90506147128282614a29565b919050565b6000604051905090565b600067ffffffffffffffff82111561473c5761473b614bbf565b5b602082029050602081019050919050565b600067ffffffffffffffff82111561476857614767614bbf565b5b61477182614c07565b9050602081019050919050565b600067ffffffffffffffff82111561479957614798614bbf565b5b6147a282614c07565b9050602081019050919050565b6000819050602082019050919050565b6000819050602082019050919050565b600081519050919050565b600081519050919050565b600081519050919050565b600081519050919050565b6000602082019050919050565b6000602082019050919050565b600082825260208201905092915050565b600082825260208201905092915050565b600082825260208201905092915050565b600082825260208201905092915050565b600082825260208201905092915050565b600082825260208201905092915050565b600081905092915050565b6000614891826149ab565b915061489c836149ab565b9250827fffffffffffffffffffffffffffffffffffffffffffffffffffffffffffffffff038211156148d1576148d0614ad4565b5b828201905092915050565b60006148e7826149ab565b91506148f2836149ab565b92508261490257614901614b03565b5b828204905092915050565b6000614918826149ab565b9150614923836149ab565b92508282101561493657614935614ad4565b5b828203905092915050565b600061494c8261498b565b9050919050565b60008115159050919050565b60007fffffffff0000000000000000000000000000000000000000000000000000000082169050919050565b600073ffffffffffffffffffffffffffffffffffffffff82169050919050565b6000819050919050565b82818337600083830152505050565b60005b838110156149e25780820151818401526020810190506149c7565b838111156149f1576000848401525b50505050565b60006002820490506001821680614a0f57607f821691505b60208210811415614a2357614a22614b32565b5b50919050565b614a3282614c07565b810181811067ffffffffffffffff82111715614a5157614a50614bbf565b5b80604052505050565b6000614a65826149ab565b91507fffffffffffffffffffffffffffffffffffffffffffffffffffffffffffffffff821415614a9857614a97614ad4565b5b600182019050919050565b6000614aae826149ab565b9150614ab9836149ab565b925082614ac957614ac8614b03565b5b828206905092915050565b7f4e487b7100000000000000000000000000000000000000000000000000000000600052601160045260246000fd5b7f4e487b7100000000000000000000000000000000000000000000000000000000600052601260045260246000fd5b7f4e487b7100000000000000000000000000000000000000000000000000000000600052602260045260246000fd5b7f4e487b7100000000000000000000000000000000000000000000000000000000600052603160045260246000fd5b7f4e487b7100000000000000000000000000000000000000000000000000000000600052603260045260246000fd5b7f4e487b7100000000000000000000000000000000000000000000000000000000600052604160045260246000fd5b600080fd5b600080fd5b600080fd5b600080fd5b600080fd5b6000601f19601f8301169050919050565b7f4552433732313a207472616e7366657220746f206e6f6e20455243373231526560008201527f63656976657220696d706c656d656e7465720000000000000000000000000000602082015250565b7f43616c6c6572206973206e6f7420746865206d61696e20636f6e747261637400600082015250565b7f4f776e61626c653a206e6577206f776e657220697320746865207a65726f206160008201527f6464726573730000000000000000000000000000000000000000000000000000602082015250565b7f496e76616c6964206d61696e20636f6e74726163742061646472657373000000600082015250565b7f4552433732313a20746f6b656e20616c7265616479206d696e74656400000000600082015250565b7f4552433732313a207472616e7366657220746f20746865207a65726f2061646460008201527f7265737300000000000000000000000000000000000000000000000000000000602082015250565b7f4552433732313a20617070726f766520746f2063616c6c657200000000000000600082015250565b7f546f6b656e20646f6573206e6f74206578697374000000000000000000000000600082015250565b7f4552433732313a206f70657261746f7220717565727920666f72206e6f6e657860008201527f697374656e7420746f6b656e0000000000000000000000000000000000000000602082015250565b7f4d61696e20636f6e747261637420616464726573732063616e206f6e6c79206260008201527f6520736574206f6e636500000000000000000000000000000000000000000000602082015250565b7f4552433732313a20617070726f76652063616c6c6572206973206e6f74206f7760008201527f6e6572206e6f7220617070726f76656420666f7220616c6c0000000000000000602082015250565b7f4552433732313a2062616c616e636520717565727920666f7220746865207a6560008201527f726f206164647265737300000000000000000000000000000000000000000000602082015250565b7f4552433732313a206f776e657220717565727920666f72206e6f6e657869737460008201527f656e7420746f6b656e0000000000000000000000000000000000000000000000602082015250565b7f45524337323155524953746f726167653a2055524920736574206f66206e6f6e60008201527f6578697374656e7420746f6b656e000000000000000000000000000000000000602082015250565b7f537461727420696e646578206f7574206f662072616e67650000000000000000600082015250565b7f4552433732313a206d696e7420746f20746865207a65726f2061646472657373600082015250565b7f45524337323155524953746f726167653a2055524920717565727920666f722060008201527f6e6f6e6578697374656e7420746f6b656e000000000000000000000000000000602082015250565b7f4d61696e20636f6e7472616374206e6f74207365740000000000000000000000600082015250565b7f4552433732313a20617070726f76656420717565727920666f72206e6f6e657860008201527f697374656e7420746f6b656e0000000000000000000000000000000000000000602082015250565b7f4f776e61626c653a2063616c6c6572206973206e6f7420746865206f776e6572600082015250565b7f4552433732313a207472616e73666572206f6620746f6b656e2074686174206960008201527f73206e6f74206f776e0000000000000000000000000000000000000000000000602082015250565b7f4552433732314d657461646174613a2055524920717565727920666f72206e6f60008201527f6e6578697374656e7420746f6b656e0000000000000000000000000000000000602082015250565b7f5573657220646f6573206e6f74206f776e20616e79204e465473000000000000600082015250565b7f4552433732313a20617070726f76616c20746f2063757272656e74206f776e6560008201527f7200000000000000000000000000000000000000000000000000000000000000602082015250565b7f4552433732313a207472616e736665722063616c6c6572206973206e6f74206f60008201527f776e6572206e6f7220617070726f766564000000000000000000000000000000602082015250565b7f596f7520617265206e6f7420746865206f776e6572206f66207468697320746f60008201527f6b656e0000000000000000000000000000000000000000000000000000000000602082015250565b7f436f756e74206d7573742062652067726561746572207468616e203000000000600082015250565b6152d481614941565b81146152df57600080fd5b50565b6152eb81614953565b81146152f657600080fd5b50565b6153028161495f565b811461530d57600080fd5b50565b615319816149ab565b811461532457600080fd5b5056fea2646970667358221220c81744a4d1156f4acba8f8ac8448c6d7ca2cbf2e25db801b435417a115cb068564736f6c63430008070033",
  "immutableReferences": {},
  "source": "// SPDX-License-Identifier: MIT\r\npragma solidity ^0.8.7;\r\n\r\nimport \"@openzeppelin/contracts/token/ERC721/ERC721.sol\";\r\nimport \"@openzeppelin/contracts/token/ERC721/extensions/ERC721URIStorage.sol\";\r\nimport \"@openzeppelin/contracts/access/Ownable.sol\";\r\n\r\ncontract NFTFrame is ERC721, ERC721URIStorage, Ownable {\r\n    uint256 private _nextTokenId; //    \r\n    mapping(uint256 => address) public creators; // tokenId   \r\n    mapping(address => uint256[]) private _ownedTokens; //    tokenId \r\n\r\n    // main contract   \r\n    address public mainContractAddress;\r\n\r\n    // main contract   \r\n    function setMainContractAddress(address _mainContractAddress) public {\r\n        require(mainContractAddress == address(0), \"Main contract address can only be set once\");\r\n        require(_mainContractAddress != address(0), \"Invalid main contract address\");\r\n        mainContractAddress = _mainContractAddress;\r\n    }\r\n\r\n    // main contract   modifier\r\n    modifier onlyMainContract() {\r\n        require(mainContractAddress != address(0), \"Main contract not set\");\r\n        require(msg.sender == mainContractAddress, \"Caller is not the main contract\");\r\n        _;\r\n    }\r\n\r\n    //  NFT    \r\n    struct NFTInfo {\r\n        uint256 tokenId;\r\n        address creator;\r\n        address currentOwner;\r\n        string tokenURI;\r\n    }\r\n\r\n    struct NFTInfos {\r\n      NFTInfo[] nfts;\r\n      uint256 nextIndex;\r\n      bool hasNext;\r\n    }\r\n\r\n    event NFTMinted(uint256 indexed tokenId, address indexed creator, string tokenURI);\r\n    event NFTTransferred(uint256 indexed tokenId, address indexed from, address indexed to);\r\n    event TokenURIUpdated(uint256 indexed tokenId, string newTokenURI);\r\n    event NFTBurned(uint256 indexed tokenId);\r\n\r\n    constructor() ERC721(\"NFTFrame\", \"NFTF\") {}\r\n\r\n    //    \r\n    function _addTokenToOwner(address to, uint256 tokenId) private {\r\n        require(ownerOf(tokenId) != address(0), \"Token does not exist\");\r\n        _ownedTokens[to].push(tokenId);\r\n    }\r\n\r\n    //    \r\n    function _removeTokenFromOwner(address from, uint256 tokenId) private {\r\n        require(ownerOf(tokenId) != address(0), \"Token does not exist\");\r\n        uint256[] storage fromTokens = _ownedTokens[from];\r\n        for (uint256 i = 0; i < fromTokens.length; i++) {\r\n            if (fromTokens[i] == tokenId) {\r\n                fromTokens[i] = fromTokens[fromTokens.length - 1];\r\n                fromTokens.pop();\r\n                break;\r\n            }\r\n        }\r\n    }\r\n\r\n    // NFT  (nft , TokenURI  ,  )\r\n    function mintNFT(string memory _tokenURI) public returns (uint256) {\r\n        uint256 tokenId = _nextTokenId++;\r\n\r\n        _safeMint(msg.sender, tokenId);\r\n        _setTokenURI(tokenId, _tokenURI);\r\n        creators[tokenId] = msg.sender;\r\n        _addTokenToOwner(msg.sender, tokenId);\r\n\r\n        emit NFTMinted(tokenId, msg.sender, _tokenURI);\r\n\r\n        return tokenId;\r\n    }\r\n\r\n    // NFT  ()\r\n    function updateOwnTokenURI(uint256 tokenId, string memory newTokenURI) public {\r\n        require(ownerOf(tokenId) != address(0), \"Token does not exist\");\r\n        require(ownerOf(tokenId) == msg.sender, \"You are not the owner of this token\");\r\n        _setTokenURI(tokenId, newTokenURI);\r\n        emit TokenURIUpdated(tokenId, newTokenURI);\r\n    }\r\n\r\n    // NFT  \r\n    function transferNFT(uint256 tokenId, address to) public returns (bool) {\r\n        require(ownerOf(tokenId) != address(0), \"Token does not exist\");\r\n        require(ownerOf(tokenId) == msg.sender, \"You are not the owner of this token\");\r\n        address from = ownerOf(tokenId);\r\n        _removeTokenFromOwner(from, tokenId);\r\n        _transfer(from, to, tokenId);\r\n        _addTokenToOwner(to, tokenId);\r\n        emit NFTTransferred(tokenId, from, to);\r\n\r\n        return true;\r\n    }\r\n\r\n    // NFT   \r\n    function transferNFTUserToSystem(uint256 tokenId, address from, address to) public onlyMainContract {\r\n        require(ownerOf(tokenId) != address(0), \"Token does not exist\");\r\n        \r\n        _removeTokenFromOwner(from, tokenId);\r\n        _transfer(from, to, tokenId);\r\n        _addTokenToOwner(to, tokenId);\r\n        emit NFTTransferred(tokenId, from, to);\r\n    }\r\n\r\n    // NFT  (   address(0)  )\r\n    function burnNFT(uint256 tokenId) public {\r\n        require(ownerOf(tokenId) != address(0), \"Token does not exist\");\r\n        require(ownerOf(tokenId) == msg.sender, \"You are not the owner of this token\");\r\n        _removeTokenFromOwner(msg.sender, tokenId);\r\n        _burn(tokenId);\r\n        delete creators[tokenId];\r\n        emit NFTBurned(tokenId);\r\n    }\r\n\r\n    // NFT  \r\n    function getNFTInfo(uint256 tokenId) public view returns (NFTInfo memory) {\r\n        require(ownerOf(tokenId) != address(0), \"Token does not exist\");\r\n        \r\n        return NFTInfo({\r\n            tokenId: tokenId,\r\n            creator: creators[tokenId],\r\n            currentOwner: ownerOf(tokenId),\r\n            tokenURI: tokenURI(tokenId)\r\n        });\r\n    }\r\n\r\n    //   NFT  ( ) (  )\r\n    function getActiveNFTs(uint256 startIndex, uint256 count) public view returns (NFTInfos memory) {\r\n        require(count > 0, \"Count must be greater than 0\");\r\n        require(startIndex < _nextTokenId, \"Start index out of range\");\r\n\r\n        NFTInfo[] memory activeNFTs = new NFTInfo[](count);\r\n        uint256 foundCount = 0;\r\n        uint256 currentIndex = startIndex;\r\n\r\n        while (foundCount < count && currentIndex < _nextTokenId) {\r\n            if (ownerOf(currentIndex) != address(0)) {\r\n                activeNFTs[foundCount] = NFTInfo({\r\n                    tokenId: currentIndex,\r\n                    creator: creators[currentIndex],\r\n                    currentOwner: ownerOf(currentIndex),\r\n                    tokenURI: tokenURI(currentIndex)\r\n                });\r\n                foundCount++;\r\n            }\r\n            currentIndex++;\r\n        }\r\n\r\n        //  NFT     ,   \r\n        if (foundCount < count) {\r\n            assembly {\r\n                mstore(activeNFTs, foundCount)\r\n            }\r\n        }\r\n\r\n        bool hasNext = currentIndex < _nextTokenId;\r\n\r\n        return NFTInfos({\r\n            nfts: activeNFTs,\r\n            nextIndex: currentIndex,\r\n            hasNext: hasNext\r\n        });\r\n    }\r\n\r\n    // Id array  \r\n    function getNFTsByIds(uint256[] memory tokenIds) public view returns (NFTInfo[] memory) {\r\n        NFTInfo[] memory result = new NFTInfo[](tokenIds.length);\r\n        \r\n        for (uint256 i = 0; i < tokenIds.length; i++) {\r\n            uint256 tokenId = tokenIds[i];\r\n            if (_exists(tokenId)) {\r\n                result[i] = NFTInfo({\r\n                    tokenId: tokenId,\r\n                    creator: creators[tokenId],\r\n                    currentOwner: ownerOf(tokenId),\r\n                    tokenURI: tokenURI(tokenId)\r\n                });\r\n            } else {\r\n                //   tokenId   \r\n                result[i] = NFTInfo({\r\n                    tokenId: tokenId,\r\n                    creator: address(0),\r\n                    currentOwner: address(0),\r\n                    tokenURI: \"\"\r\n                });\r\n            }\r\n        }\r\n        \r\n        return result;\r\n    }\r\n\r\n    //  NFT \r\n    function getUserNFTs(address user, uint256 startIndex, uint256 count) public view returns (NFTInfos memory) {\r\n        require(count > 0, \"Count must be greater than 0\");\r\n        uint256[] storage userTokens = _ownedTokens[user];\r\n        require(startIndex < userTokens.length, \"Start index out of range\");\r\n\r\n        NFTInfo[] memory activeNFTs = new NFTInfo[](count);\r\n        uint256 foundCount = 0;\r\n        uint256 currentIndex = startIndex;\r\n\r\n        while (foundCount < count && currentIndex < userTokens.length) {\r\n            uint256 tokenId = userTokens[currentIndex];\r\n            if (_exists(tokenId)) {\r\n                activeNFTs[foundCount] = NFTInfo({\r\n                    tokenId: tokenId,\r\n                    creator: creators[tokenId],\r\n                    currentOwner: user,\r\n                    tokenURI: tokenURI(tokenId)\r\n                });\r\n                foundCount++;\r\n            }\r\n            currentIndex++;\r\n        }\r\n\r\n        //  NFT     ,   \r\n        if (foundCount < count) {\r\n            assembly {\r\n                mstore(activeNFTs, foundCount)\r\n            }\r\n        }\r\n\r\n        bool hasNext = currentIndex < userTokens.length;\r\n\r\n        return NFTInfos({\r\n            nfts: activeNFTs,\r\n            nextIndex: currentIndex,\r\n            hasNext: hasNext\r\n        });\r\n    }\r\n\r\n    //   NFT Id \r\n    function getUserNFTIds(address user) public view returns (uint256[] memory) {\r\n        require(_ownedTokens[user].length > 0, \"User does not own any NFTs\");\r\n        return _ownedTokens[user];\r\n    }\r\n\r\n    //  \r\n    function _burn(uint256 tokenId) internal override(ERC721, ERC721URIStorage) {\r\n        super._burn(tokenId);\r\n    }\r\n    function tokenURI(uint256 tokenId) public view override(ERC721, ERC721URIStorage) returns (string memory) {\r\n        return super.tokenURI(tokenId);\r\n    }\r\n\r\n    function supportsInterface(bytes4 interfaceId) public view override(ERC721) returns (bool) {\r\n        return super.supportsInterface(interfaceId);\r\n    }\r\n}",
  "sourcePath": "C:\\Users\\SSAFY\\Desktop\\semonemo\\backend\\blockchain-server\\smartcontract\\contracts\\NFT.sol",
  "compiler": {
    "name": "solc",
    "version": "0.8.7+commit.e28d00a7.Emscripten.clang"
  },
  "schemaVersion": "3.4.16",
  "updatedAt": "2024-09-14T16:49:44.723Z",
  "networkType": "ethereum",
  "devdoc": {
    "kind": "dev",
    "methods": {
      "approve(address,uint256)": {
        "details": "See {IERC721-approve}."
      },
      "balanceOf(address)": {
        "details": "See {IERC721-balanceOf}."
      },
      "getApproved(uint256)": {
        "details": "See {IERC721-getApproved}."
      },
      "isApprovedForAll(address,address)": {
        "details": "See {IERC721-isApprovedForAll}."
      },
      "name()": {
        "details": "See {IERC721Metadata-name}."
      },
      "owner()": {
        "details": "Returns the address of the current owner."
      },
      "ownerOf(uint256)": {
        "details": "See {IERC721-ownerOf}."
      },
      "renounceOwnership()": {
        "details": "Leaves the contract without owner. It will not be possible to call `onlyOwner` functions anymore. Can only be called by the current owner. NOTE: Renouncing ownership will leave the contract without an owner, thereby removing any functionality that is only available to the owner."
      },
      "safeTransferFrom(address,address,uint256)": {
        "details": "See {IERC721-safeTransferFrom}."
      },
      "safeTransferFrom(address,address,uint256,bytes)": {
        "details": "See {IERC721-safeTransferFrom}."
      },
      "setApprovalForAll(address,bool)": {
        "details": "See {IERC721-setApprovalForAll}."
      },
      "supportsInterface(bytes4)": {
        "details": "See {IERC165-supportsInterface}."
      },
      "symbol()": {
        "details": "See {IERC721Metadata-symbol}."
      },
      "transferFrom(address,address,uint256)": {
        "details": "See {IERC721-transferFrom}."
      },
      "transferOwnership(address)": {
        "details": "Transfers ownership of the contract to a new account (`newOwner`). Can only be called by the current owner."
      }
    },
    "version": 1
  },
  "userdoc": {
    "kind": "user",
    "methods": {},
    "version": 1
  }
}