{
  "contractName": "NFTMarket",
  "abi": [
    {
      "anonymous": false,
      "inputs": [
        {
          "indexed": true,
          "internalType": "address",
          "name": "from",
          "type": "address"
        },
        {
          "indexed": true,
          "internalType": "address",
          "name": "to",
          "type": "address"
        },
        {
          "indexed": false,
          "internalType": "uint256",
          "name": "amount",
          "type": "uint256"
        },
        {
          "indexed": false,
          "internalType": "uint256",
          "name": "fromBalance",
          "type": "uint256"
        },
        {
          "indexed": false,
          "internalType": "uint256",
          "name": "toBalance",
          "type": "uint256"
        }
      ],
      "name": "BalanceAdjusted",
      "type": "event"
    },
    {
      "anonymous": false,
      "inputs": [
        {
          "indexed": true,
          "internalType": "address",
          "name": "from",
          "type": "address"
        },
        {
          "indexed": true,
          "internalType": "address",
          "name": "to",
          "type": "address"
        },
        {
          "indexed": false,
          "internalType": "uint256",
          "name": "amount",
          "type": "uint256"
        },
        {
          "indexed": false,
          "internalType": "uint256",
          "name": "fromBalance",
          "type": "uint256"
        },
        {
          "indexed": false,
          "internalType": "uint256",
          "name": "toBalance",
          "type": "uint256"
        }
      ],
      "name": "BalanceTransferred",
      "type": "event"
    },
    {
      "anonymous": false,
      "inputs": [
        {
          "indexed": true,
          "internalType": "address",
          "name": "user",
          "type": "address"
        },
        {
          "indexed": false,
          "internalType": "uint256",
          "name": "amount",
          "type": "uint256"
        },
        {
          "indexed": false,
          "internalType": "uint256",
          "name": "coinBalance",
          "type": "uint256"
        },
        {
          "indexed": false,
          "internalType": "uint256",
          "name": "payableBalance",
          "type": "uint256"
        }
      ],
      "name": "Deposit",
      "type": "event"
    },
    {
      "anonymous": false,
      "inputs": [
        {
          "indexed": true,
          "internalType": "uint256",
          "name": "nftId",
          "type": "uint256"
        },
        {
          "indexed": true,
          "internalType": "address",
          "name": "seller",
          "type": "address"
        }
      ],
      "name": "MarketCancelled",
      "type": "event"
    },
    {
      "anonymous": false,
      "inputs": [
        {
          "indexed": true,
          "internalType": "uint256",
          "name": "nftId",
          "type": "uint256"
        },
        {
          "indexed": true,
          "internalType": "address",
          "name": "seller",
          "type": "address"
        },
        {
          "indexed": false,
          "internalType": "uint256",
          "name": "price",
          "type": "uint256"
        }
      ],
      "name": "MarketCreated",
      "type": "event"
    },
    {
      "anonymous": false,
      "inputs": [
        {
          "indexed": true,
          "internalType": "uint256",
          "name": "nftId",
          "type": "uint256"
        },
        {
          "indexed": true,
          "internalType": "address",
          "name": "seller",
          "type": "address"
        },
        {
          "indexed": true,
          "internalType": "address",
          "name": "buyer",
          "type": "address"
        },
        {
          "indexed": false,
          "internalType": "uint256",
          "name": "price",
          "type": "uint256"
        }
      ],
      "name": "MarketSold",
      "type": "event"
    },
    {
      "anonymous": false,
      "inputs": [
        {
          "indexed": true,
          "internalType": "address",
          "name": "previousOwner",
          "type": "address"
        },
        {
          "indexed": true,
          "internalType": "address",
          "name": "newOwner",
          "type": "address"
        }
      ],
      "name": "OwnershipTransferred",
      "type": "event"
    },
    {
      "anonymous": false,
      "inputs": [
        {
          "indexed": true,
          "internalType": "uint256",
          "name": "tradeId",
          "type": "uint256"
        },
        {
          "indexed": false,
          "internalType": "address",
          "name": "from",
          "type": "address"
        },
        {
          "indexed": false,
          "internalType": "address",
          "name": "to",
          "type": "address"
        },
        {
          "indexed": false,
          "internalType": "uint256",
          "name": "amount",
          "type": "uint256"
        },
        {
          "indexed": false,
          "internalType": "uint256",
          "name": "timestamp",
          "type": "uint256"
        },
        {
          "indexed": false,
          "internalType": "uint256",
          "name": "fromBalance",
          "type": "uint256"
        },
        {
          "indexed": false,
          "internalType": "uint256",
          "name": "toBalance",
          "type": "uint256"
        }
      ],
      "name": "TradeRecorded",
      "type": "event"
    },
    {
      "anonymous": false,
      "inputs": [
        {
          "indexed": true,
          "internalType": "address",
          "name": "user",
          "type": "address"
        },
        {
          "indexed": false,
          "internalType": "uint256",
          "name": "amount",
          "type": "uint256"
        },
        {
          "indexed": false,
          "internalType": "uint256",
          "name": "coinBalance",
          "type": "uint256"
        },
        {
          "indexed": false,
          "internalType": "uint256",
          "name": "payableBalance",
          "type": "uint256"
        }
      ],
      "name": "Withdrawal",
      "type": "event"
    },
    {
      "inputs": [
        {
          "internalType": "uint256",
          "name": "amount",
          "type": "uint256"
        }
      ],
      "name": "deposit",
      "outputs": [],
      "stateMutability": "nonpayable",
      "type": "function"
    },
    {
      "inputs": [],
      "name": "getContractBalance",
      "outputs": [
        {
          "internalType": "uint256",
          "name": "",
          "type": "uint256"
        }
      ],
      "stateMutability": "view",
      "type": "function"
    },
    {
      "inputs": [],
      "name": "getContractOwnedNFTs",
      "outputs": [
        {
          "internalType": "uint256[]",
          "name": "",
          "type": "uint256[]"
        }
      ],
      "stateMutability": "view",
      "type": "function"
    },
    {
      "inputs": [
        {
          "internalType": "uint256",
          "name": "_tradeId",
          "type": "uint256"
        }
      ],
      "name": "getTradeInfo",
      "outputs": [
        {
          "components": [
            {
              "internalType": "address",
              "name": "from",
              "type": "address"
            },
            {
              "internalType": "address",
              "name": "to",
              "type": "address"
            },
            {
              "internalType": "uint256",
              "name": "amount",
              "type": "uint256"
            },
            {
              "internalType": "uint256",
              "name": "timestamp",
              "type": "uint256"
            }
          ],
          "internalType": "struct TradeBase.TradeInfo",
          "name": "",
          "type": "tuple"
        }
      ],
      "stateMutability": "view",
      "type": "function"
    },
    {
      "inputs": [
        {
          "internalType": "address",
          "name": "user",
          "type": "address"
        },
        {
          "internalType": "uint256",
          "name": "page",
          "type": "uint256"
        },
        {
          "internalType": "uint256",
          "name": "size",
          "type": "uint256"
        }
      ],
      "name": "getTradesByAddress",
      "outputs": [
        {
          "components": [
            {
              "components": [
                {
                  "internalType": "address",
                  "name": "from",
                  "type": "address"
                },
                {
                  "internalType": "address",
                  "name": "to",
                  "type": "address"
                },
                {
                  "internalType": "uint256",
                  "name": "amount",
                  "type": "uint256"
                },
                {
                  "internalType": "uint256",
                  "name": "timestamp",
                  "type": "uint256"
                }
              ],
              "internalType": "struct TradeBase.TradeInfo[]",
              "name": "trades",
              "type": "tuple[]"
            },
            {
              "internalType": "uint256",
              "name": "totalTrades",
              "type": "uint256"
            },
            {
              "internalType": "bool",
              "name": "hasNext",
              "type": "bool"
            }
          ],
          "internalType": "struct TradeBase.TradeResult",
          "name": "",
          "type": "tuple"
        }
      ],
      "stateMutability": "view",
      "type": "function"
    },
    {
      "inputs": [
        {
          "internalType": "address",
          "name": "user",
          "type": "address"
        }
      ],
      "name": "getUserBalance",
      "outputs": [
        {
          "internalType": "uint256",
          "name": "",
          "type": "uint256"
        }
      ],
      "stateMutability": "view",
      "type": "function"
    },
    {
      "inputs": [
        {
          "internalType": "uint256",
          "name": "",
          "type": "uint256"
        }
      ],
      "name": "markets",
      "outputs": [
        {
          "internalType": "uint256",
          "name": "nftId",
          "type": "uint256"
        },
        {
          "internalType": "address",
          "name": "seller",
          "type": "address"
        },
        {
          "internalType": "uint256",
          "name": "price",
          "type": "uint256"
        }
      ],
      "stateMutability": "view",
      "type": "function"
    },
    {
      "inputs": [],
      "name": "nftContract",
      "outputs": [
        {
          "internalType": "contract NFTFrame",
          "name": "",
          "type": "address"
        }
      ],
      "stateMutability": "view",
      "type": "function"
    },
    {
      "inputs": [],
      "name": "owner",
      "outputs": [
        {
          "internalType": "address",
          "name": "",
          "type": "address"
        }
      ],
      "stateMutability": "view",
      "type": "function"
    },
    {
      "inputs": [],
      "name": "renounceOwnership",
      "outputs": [],
      "stateMutability": "nonpayable",
      "type": "function"
    },
    {
      "inputs": [],
      "name": "tokenContract",
      "outputs": [
        {
          "internalType": "contract AhoraCoin",
          "name": "",
          "type": "address"
        }
      ],
      "stateMutability": "view",
      "type": "function"
    },
    {
      "inputs": [],
      "name": "tradeId",
      "outputs": [
        {
          "internalType": "uint256",
          "name": "",
          "type": "uint256"
        }
      ],
      "stateMutability": "view",
      "type": "function"
    },
    {
      "inputs": [
        {
          "internalType": "uint256",
          "name": "",
          "type": "uint256"
        }
      ],
      "name": "trades",
      "outputs": [
        {
          "internalType": "address",
          "name": "from",
          "type": "address"
        },
        {
          "internalType": "address",
          "name": "to",
          "type": "address"
        },
        {
          "internalType": "uint256",
          "name": "amount",
          "type": "uint256"
        },
        {
          "internalType": "uint256",
          "name": "timestamp",
          "type": "uint256"
        }
      ],
      "stateMutability": "view",
      "type": "function"
    },
    {
      "inputs": [
        {
          "internalType": "address",
          "name": "from",
          "type": "address"
        },
        {
          "internalType": "address",
          "name": "to",
          "type": "address"
        },
        {
          "internalType": "uint256",
          "name": "amount",
          "type": "uint256"
        }
      ],
      "name": "transferBalance",
      "outputs": [],
      "stateMutability": "nonpayable",
      "type": "function"
    },
    {
      "inputs": [
        {
          "internalType": "address",
          "name": "newOwner",
          "type": "address"
        }
      ],
      "name": "transferOwnership",
      "outputs": [],
      "stateMutability": "nonpayable",
      "type": "function"
    },
    {
      "inputs": [
        {
          "internalType": "uint256",
          "name": "amount",
          "type": "uint256"
        }
      ],
      "name": "withdraw",
      "outputs": [],
      "stateMutability": "nonpayable",
      "type": "function"
    },
    {
      "inputs": [
        {
          "internalType": "uint256",
          "name": "_nftId",
          "type": "uint256"
        },
        {
          "internalType": "uint256",
          "name": "price",
          "type": "uint256"
        }
      ],
      "name": "createMarket",
      "outputs": [],
      "stateMutability": "nonpayable",
      "type": "function"
    },
    {
      "inputs": [
        {
          "internalType": "uint256",
          "name": "_nftId",
          "type": "uint256"
        }
      ],
      "name": "cancelMarket",
      "outputs": [],
      "stateMutability": "nonpayable",
      "type": "function"
    },
    {
      "inputs": [
        {
          "internalType": "uint256",
          "name": "_nftId",
          "type": "uint256"
        }
      ],
      "name": "buyMarket",
      "outputs": [],
      "stateMutability": "nonpayable",
      "type": "function"
    },
    {
      "inputs": [
        {
          "internalType": "uint256",
          "name": "_nftId",
          "type": "uint256"
        }
      ],
      "name": "getMarketInfo",
      "outputs": [
        {
          "components": [
            {
              "internalType": "uint256",
              "name": "nftId",
              "type": "uint256"
            },
            {
              "internalType": "address",
              "name": "seller",
              "type": "address"
            },
            {
              "internalType": "uint256",
              "name": "price",
              "type": "uint256"
            }
          ],
          "internalType": "struct NFTMarket.Market",
          "name": "",
          "type": "tuple"
        }
      ],
      "stateMutability": "view",
      "type": "function"
    }
  ],
  "bytecode": "0x60806040523480156200001157600080fd5b5062000032620000266200003f60201b60201c565b6200004760201b60201c565b600180819055506200010b565b600033905090565b60008060009054906101000a900473ffffffffffffffffffffffffffffffffffffffff169050816000806101000a81548173ffffffffffffffffffffffffffffffffffffffff021916908373ffffffffffffffffffffffffffffffffffffffff1602179055508173ffffffffffffffffffffffffffffffffffffffff168173ffffffffffffffffffffffffffffffffffffffff167f8be0079c531659141344cd1fd0a4f28419497f9722a3daafe3b4186f6b6457e060405160405180910390a35050565b613db8806200011b6000396000f3fe608060405234801561001057600080fd5b506004361061012c5760003560e01c80638da5cb5b116100ad578063d3e6fa1911610071578063d3e6fa1914610334578063d56d229d14610352578063d750558f14610370578063f2fde38b146103a0578063f90852c7146103bc5761012c565b80638da5cb5b14610290578063a606b94a146102ae578063b1283e77146102ca578063b6b55f25146102fc578063c7604fec146103185761012c565b806347734892116100f457806347734892146101fe57806355a373d61461022e5780636f9fb98a1461024c578063715018a61461026a5780637c16cd9e146102745761012c565b806302c5115b146101315780631e6c598e1461014f5780632e1a7d4d1461018257806336c678971461019e5780633ec79193146101ce575b600080fd5b6101396103d8565b604051610146919061358f565b60405180910390f35b61016960048036038101906101649190612c06565b6103de565b60405161017994939291906131f9565b60405180910390f35b61019c60048036038101906101979190612c06565b61044e565b005b6101b860048036038101906101b39190612c06565b6107f8565b6040516101c59190613552565b60405180910390f35b6101e860048036038101906101e39190612c06565b610936565b6040516101f59190613537565b60405180910390f35b61021860048036038101906102139190612a90565b610a47565b604051610225919061358f565b60405180910390f35b610236610a90565b60405161024391906132c1565b60405180910390f35b610254610ab6565b604051610261919061358f565b60405180910390f35b610272610b68565b005b61028e60048036038101906102899190612c06565b610bf0565b005b610298610fc0565b6040516102a591906131a7565b60405180910390f35b6102c860048036038101906102c39190612aea565b610fe9565b005b6102e460048036038101906102df9190612c06565b611401565b6040516102f3939291906135e1565b60405180910390f35b61031660048036038101906103119190612c06565b61144b565b005b610332600480360381019061032d9190612c60565b611773565b005b61033c611aa9565b604051610349919061329f565b60405180910390f35b61035a611b60565b60405161036791906132dc565b60405180910390f35b61038a60048036038101906103859190612b3d565b611b86565b604051610397919061356d565b60405180910390f35b6103ba60048036038101906103b59190612a90565b611ed7565b005b6103d660048036038101906103d19190612c06565b611fcf565b005b60065481565b60056020528060005260406000206000915090508060000160009054906101000a900473ffffffffffffffffffffffffffffffffffffffff16908060010160009054906101000a900473ffffffffffffffffffffffffffffffffffffffff16908060020154908060030154905084565b60026001541415610494576040517f08c379a000000000000000000000000000000000000000000000000000000000815260040161048b90613517565b60405180910390fd5b6002600181905550600081116104df576040517f08c379a00000000000000000000000000000000000000000000000000000000081526004016104d690613437565b60405180910390fd5b80600460003373ffffffffffffffffffffffffffffffffffffffff1673ffffffffffffffffffffffffffffffffffffffff168152602001908152602001600020541015610561576040517f08c379a0000000000000000000000000000000000000000000000000000000008152600401610558906133b7565b60405180910390fd5b600360009054906101000a900473ffffffffffffffffffffffffffffffffffffffff1673ffffffffffffffffffffffffffffffffffffffff16636153fced3033846040518463ffffffff1660e01b81526004016105c0939291906131c2565b602060405180830381600087803b1580156105da57600080fd5b505af11580156105ee573d6000803e3d6000fd5b505050506040513d601f19601f820116820180604052508101906106129190612bd9565b610651576040517f08c379a000000000000000000000000000000000000000000000000000000000815260040161064890613377565b60405180910390fd5b80600460003373ffffffffffffffffffffffffffffffffffffffff1673ffffffffffffffffffffffffffffffffffffffff16815260200190815260200160002060008282546106a091906137d3565b925050819055506106b333600083612334565b3373ffffffffffffffffffffffffffffffffffffffff167f650fdf669e93aa6c8ff3defe2da9c12b64f1548e5e1e54e803f4c1beb6466c8e82600360009054906101000a900473ffffffffffffffffffffffffffffffffffffffff1673ffffffffffffffffffffffffffffffffffffffff166370a08231336040518263ffffffff1660e01b815260040161074791906131a7565b60206040518083038186803b15801561075f57600080fd5b505afa158015610773573d6000803e3d6000fd5b505050506040513d601f19601f820116820180604052508101906107979190612c33565b600460003373ffffffffffffffffffffffffffffffffffffffff1673ffffffffffffffffffffffffffffffffffffffff168152602001908152602001600020546040516107e693929190613618565b60405180910390a26001808190555050565b6108006128db565b60008211801561081257506006548211155b610851576040517f08c379a0000000000000000000000000000000000000000000000000000000008152600401610848906134d7565b60405180910390fd5b600560008381526020019081526020016000206040518060800160405290816000820160009054906101000a900473ffffffffffffffffffffffffffffffffffffffff1673ffffffffffffffffffffffffffffffffffffffff1673ffffffffffffffffffffffffffffffffffffffff1681526020016001820160009054906101000a900473ffffffffffffffffffffffffffffffffffffffff1673ffffffffffffffffffffffffffffffffffffffff1673ffffffffffffffffffffffffffffffffffffffff168152602001600282015481526020016003820154815250509050919050565b61093e61292f565b600060086000848152602001908152602001600020604051806060016040529081600082015481526020016001820160009054906101000a900473ffffffffffffffffffffffffffffffffffffffff1673ffffffffffffffffffffffffffffffffffffffff1673ffffffffffffffffffffffffffffffffffffffff1681526020016002820154815250509050600073ffffffffffffffffffffffffffffffffffffffff16816020015173ffffffffffffffffffffffffffffffffffffffff161415610a3e576040517f08c379a0000000000000000000000000000000000000000000000000000000008152600401610a35906132f7565b60405180910390fd5b80915050919050565b6000600460008373ffffffffffffffffffffffffffffffffffffffff1673ffffffffffffffffffffffffffffffffffffffff168152602001908152602001600020549050919050565b600360009054906101000a900473ffffffffffffffffffffffffffffffffffffffff1681565b6000600360009054906101000a900473ffffffffffffffffffffffffffffffffffffffff1673ffffffffffffffffffffffffffffffffffffffff166370a08231306040518263ffffffff1660e01b8152600401610b1391906131a7565b60206040518083038186803b158015610b2b57600080fd5b505afa158015610b3f573d6000803e3d6000fd5b505050506040513d601f19601f82011682018060405250810190610b639190612c33565b905090565b610b706125ea565b73ffffffffffffffffffffffffffffffffffffffff16610b8e610fc0565b73ffffffffffffffffffffffffffffffffffffffff1614610be4576040517f08c379a0000000000000000000000000000000000000000000000000000000008152600401610bdb90613417565b60405180910390fd5b610bee60006125f2565b565b60026001541415610c36576040517f08c379a0000000000000000000000000000000000000000000000000000000008152600401610c2d90613517565b60405180910390fd5b600260018190555060006008600083815260200190815260200160002090503073ffffffffffffffffffffffffffffffffffffffff16600260009054906101000a900473ffffffffffffffffffffffffffffffffffffffff1673ffffffffffffffffffffffffffffffffffffffff16636352211e846040518263ffffffff1660e01b8152600401610cc7919061358f565b60206040518083038186803b158015610cdf57600080fd5b505afa158015610cf3573d6000803e3d6000fd5b505050506040513d601f19601f82011682018060405250810190610d179190612abd565b73ffffffffffffffffffffffffffffffffffffffff1614610d6d576040517f08c379a0000000000000000000000000000000000000000000000000000000008152600401610d64906134b7565b60405180910390fd5b3373ffffffffffffffffffffffffffffffffffffffff168160010160009054906101000a900473ffffffffffffffffffffffffffffffffffffffff1673ffffffffffffffffffffffffffffffffffffffff1614610dff576040517f08c379a0000000000000000000000000000000000000000000000000000000008152600401610df6906133d7565b60405180910390fd5b600073ffffffffffffffffffffffffffffffffffffffff168160010160009054906101000a900473ffffffffffffffffffffffffffffffffffffffff1673ffffffffffffffffffffffffffffffffffffffff161415610e93576040517f08c379a0000000000000000000000000000000000000000000000000000000008152600401610e8a90613457565b60405180910390fd5b600260009054906101000a900473ffffffffffffffffffffffffffffffffffffffff1673ffffffffffffffffffffffffffffffffffffffff166335b9594c8330336040518463ffffffff1660e01b8152600401610ef2939291906135aa565b600060405180830381600087803b158015610f0c57600080fd5b505af1158015610f20573d6000803e3d6000fd5b50505050600860008381526020019081526020016000206000808201600090556001820160006101000a81549073ffffffffffffffffffffffffffffffffffffffff0219169055600282016000905550503373ffffffffffffffffffffffffffffffffffffffff16827f80cbe856a464968c63953aeb2dd84c12de3a0715985cae2ea35d3ed87e39ddc360405160405180910390a3506001808190555050565b60008060009054906101000a900473ffffffffffffffffffffffffffffffffffffffff16905090565b610ff16125ea565b73ffffffffffffffffffffffffffffffffffffffff1661100f610fc0565b73ffffffffffffffffffffffffffffffffffffffff1614611065576040517f08c379a000000000000000000000000000000000000000000000000000000000815260040161105c90613417565b60405180910390fd5b600260015414156110ab576040517f08c379a00000000000000000000000000000000000000000000000000000000081526004016110a290613517565b60405180910390fd5b6002600181905550600073ffffffffffffffffffffffffffffffffffffffff168273ffffffffffffffffffffffffffffffffffffffff161415611123576040517f08c379a000000000000000000000000000000000000000000000000000000000815260040161111a906133f7565b60405180910390fd5b8273ffffffffffffffffffffffffffffffffffffffff168273ffffffffffffffffffffffffffffffffffffffff161415611192576040517f08c379a000000000000000000000000000000000000000000000000000000000815260040161118990613477565b60405180910390fd5b600081116111d5576040517f08c379a00000000000000000000000000000000000000000000000000000000081526004016111cc906134f7565b60405180910390fd5b80600460008573ffffffffffffffffffffffffffffffffffffffff1673ffffffffffffffffffffffffffffffffffffffff168152602001908152602001600020541015611257576040517f08c379a000000000000000000000000000000000000000000000000000000000815260040161124e906133b7565b60405180910390fd5b80600460008573ffffffffffffffffffffffffffffffffffffffff1673ffffffffffffffffffffffffffffffffffffffff16815260200190815260200160002060008282546112a691906137d3565b9250508190555080600460008473ffffffffffffffffffffffffffffffffffffffff1673ffffffffffffffffffffffffffffffffffffffff16815260200190815260200160002060008282546112fc9190613723565b9250508190555061130e838383612334565b8173ffffffffffffffffffffffffffffffffffffffff168373ffffffffffffffffffffffffffffffffffffffff167f941baa54585e364d2377b71ffcd6321c9e8b3d1b46e3db66121ee5b08bf12acf83600460008873ffffffffffffffffffffffffffffffffffffffff1673ffffffffffffffffffffffffffffffffffffffff16815260200190815260200160002054600460008873ffffffffffffffffffffffffffffffffffffffff1673ffffffffffffffffffffffffffffffffffffffff168152602001908152602001600020546040516113ed93929190613618565b60405180910390a360018081905550505050565b60086020528060005260406000206000915090508060000154908060010160009054906101000a900473ffffffffffffffffffffffffffffffffffffffff16908060020154905083565b60026001541415611491576040517f08c379a000000000000000000000000000000000000000000000000000000000815260040161148890613517565b60405180910390fd5b6002600181905550600081116114dc576040517f08c379a00000000000000000000000000000000000000000000000000000000081526004016114d390613317565b60405180910390fd5b600360009054906101000a900473ffffffffffffffffffffffffffffffffffffffff1673ffffffffffffffffffffffffffffffffffffffff16636153fced3330846040518463ffffffff1660e01b815260040161153b939291906131c2565b602060405180830381600087803b15801561155557600080fd5b505af1158015611569573d6000803e3d6000fd5b505050506040513d601f19601f8201168201806040525081019061158d9190612bd9565b6115cc576040517f08c379a00000000000000000000000000000000000000000000000000000000081526004016115c390613377565b60405180910390fd5b80600460003373ffffffffffffffffffffffffffffffffffffffff1673ffffffffffffffffffffffffffffffffffffffff168152602001908152602001600020600082825461161b9190613723565b9250508190555061162e60003383612334565b3373ffffffffffffffffffffffffffffffffffffffff167f36af321ec8d3c75236829c5317affd40ddb308863a1236d2d277a4025cccee1e82600360009054906101000a900473ffffffffffffffffffffffffffffffffffffffff1673ffffffffffffffffffffffffffffffffffffffff166370a08231336040518263ffffffff1660e01b81526004016116c291906131a7565b60206040518083038186803b1580156116da57600080fd5b505afa1580156116ee573d6000803e3d6000fd5b505050506040513d601f19601f820116820180604052508101906117129190612c33565b600460003373ffffffffffffffffffffffffffffffffffffffff1673ffffffffffffffffffffffffffffffffffffffff1681526020019081526020016000205460405161176193929190613618565b60405180910390a26001808190555050565b600260015414156117b9576040517f08c379a00000000000000000000000000000000000000000000000000000000081526004016117b090613517565b60405180910390fd5b60026001819055503373ffffffffffffffffffffffffffffffffffffffff16600260009054906101000a900473ffffffffffffffffffffffffffffffffffffffff1673ffffffffffffffffffffffffffffffffffffffff16636352211e846040518263ffffffff1660e01b8152600401611833919061358f565b60206040518083038186803b15801561184b57600080fd5b505afa15801561185f573d6000803e3d6000fd5b505050506040513d601f19601f820116820180604052508101906118839190612abd565b73ffffffffffffffffffffffffffffffffffffffff16146118d9576040517f08c379a00000000000000000000000000000000000000000000000000000000081526004016118d0906133d7565b60405180910390fd5b6000811161191c576040517f08c379a000000000000000000000000000000000000000000000000000000000815260040161191390613337565b60405180910390fd5b600260009054906101000a900473ffffffffffffffffffffffffffffffffffffffff1673ffffffffffffffffffffffffffffffffffffffff166335b9594c8333306040518463ffffffff1660e01b815260040161197b939291906135aa565b600060405180830381600087803b15801561199557600080fd5b505af11580156119a9573d6000803e3d6000fd5b5050505060405180606001604052808381526020013373ffffffffffffffffffffffffffffffffffffffff16815260200182815250600860008481526020019081526020016000206000820151816000015560208201518160010160006101000a81548173ffffffffffffffffffffffffffffffffffffffff021916908373ffffffffffffffffffffffffffffffffffffffff160217905550604082015181600201559050503373ffffffffffffffffffffffffffffffffffffffff16827f557e20be357a3ff3fc08cf2b8e6986333057886a281d0409a7e751c3fd700ec083604051611a96919061358f565b60405180910390a3600180819055505050565b6060600260009054906101000a900473ffffffffffffffffffffffffffffffffffffffff1673ffffffffffffffffffffffffffffffffffffffff1663e6b1fa2a306040518263ffffffff1660e01b8152600401611b0691906131a7565b60006040518083038186803b158015611b1e57600080fd5b505afa158015611b32573d6000803e3d6000fd5b505050506040513d6000823e3d601f19601f82011682018060405250810190611b5b9190612b90565b905090565b600260009054906101000a900473ffffffffffffffffffffffffffffffffffffffff1681565b611b8e612966565b6000600760008673ffffffffffffffffffffffffffffffffffffffff1673ffffffffffffffffffffffffffffffffffffffff168152602001908152602001600020905060008180549050905060008486611be89190613779565b8211611bf5576000611c19565b84600187611c039190613723565b611c0d9190613779565b82611c1891906137d3565b5b905060008587611c299190613779565b83611c3491906137d3565b905082821180611c445750600082105b15611c4e57600091505b600081111580611c695750828688611c669190613779565b10155b15611ceb576040518060600160405280600067ffffffffffffffff811115611c9457611c9361396f565b5b604051908082528060200260200182016040528015611ccd57816020015b611cba6128db565b815260200190600190039081611cb25790505b50815260200184815260200160001515815250945050505050611ed0565b60008282611cf991906137d3565b905060008167ffffffffffffffff811115611d1757611d1661396f565b5b604051908082528060200260200182016040528015611d5057816020015b611d3d6128db565b815260200190600190039081611d355790505b50905060005b82811015611ea157600560008883600188611d7191906137d3565b611d7b91906137d3565b81548110611d8c57611d8b613940565b5b906000526020600020015481526020019081526020016000206040518060800160405290816000820160009054906101000a900473ffffffffffffffffffffffffffffffffffffffff1673ffffffffffffffffffffffffffffffffffffffff1673ffffffffffffffffffffffffffffffffffffffff1681526020016001820160009054906101000a900473ffffffffffffffffffffffffffffffffffffffff1673ffffffffffffffffffffffffffffffffffffffff1673ffffffffffffffffffffffffffffffffffffffff16815260200160028201548152602001600382015481525050828281518110611e8357611e82613940565b5b60200260200101819052508080611e99906138c8565b915050611d56565b506000808511905060405180606001604052808381526020018781526020018215158152509750505050505050505b9392505050565b611edf6125ea565b73ffffffffffffffffffffffffffffffffffffffff16611efd610fc0565b73ffffffffffffffffffffffffffffffffffffffff1614611f53576040517f08c379a0000000000000000000000000000000000000000000000000000000008152600401611f4a90613417565b60405180910390fd5b600073ffffffffffffffffffffffffffffffffffffffff168173ffffffffffffffffffffffffffffffffffffffff161415611fc3576040517f08c379a0000000000000000000000000000000000000000000000000000000008152600401611fba90613357565b60405180910390fd5b611fcc816125f2565b50565b60026001541415612015576040517f08c379a000000000000000000000000000000000000000000000000000000000815260040161200c90613517565b60405180910390fd5b60026001819055506000600860008381526020019081526020016000209050600073ffffffffffffffffffffffffffffffffffffffff168160010160009054906101000a900473ffffffffffffffffffffffffffffffffffffffff1673ffffffffffffffffffffffffffffffffffffffff1614156120c8576040517f08c379a00000000000000000000000000000000000000000000000000000000081526004016120bf90613397565b60405180910390fd5b8060010160009054906101000a900473ffffffffffffffffffffffffffffffffffffffff1673ffffffffffffffffffffffffffffffffffffffff163373ffffffffffffffffffffffffffffffffffffffff16141561215b576040517f08c379a000000000000000000000000000000000000000000000000000000000815260040161215290613497565b60405180910390fd5b60008160020154905060008260010160009054906101000a900473ffffffffffffffffffffffffffffffffffffffff1690508161219733610a47565b10156121d8576040517f08c379a00000000000000000000000000000000000000000000000000000000081526004016121cf906133b7565b60405180910390fd5b6121e33382846126b6565b600260009054906101000a900473ffffffffffffffffffffffffffffffffffffffff1673ffffffffffffffffffffffffffffffffffffffff166335b9594c8530336040518463ffffffff1660e01b8152600401612242939291906135aa565b600060405180830381600087803b15801561225c57600080fd5b505af1158015612270573d6000803e3d6000fd5b50505050600860008581526020019081526020016000206000808201600090556001820160006101000a81549073ffffffffffffffffffffffffffffffffffffffff0219169055600282016000905550503373ffffffffffffffffffffffffffffffffffffffff168173ffffffffffffffffffffffffffffffffffffffff16857f94ddf8232f3af1f844abb74cd56287ba5507090df04bf3c2e006bf74e904a2838560405161231f919061358f565b60405180910390a45050506001808190555050565b60066000815480929190612347906138c8565b919050555060405180608001604052808473ffffffffffffffffffffffffffffffffffffffff1681526020018373ffffffffffffffffffffffffffffffffffffffff1681526020018281526020014281525060056000600654815260200190815260200160002060008201518160000160006101000a81548173ffffffffffffffffffffffffffffffffffffffff021916908373ffffffffffffffffffffffffffffffffffffffff16021790555060208201518160010160006101000a81548173ffffffffffffffffffffffffffffffffffffffff021916908373ffffffffffffffffffffffffffffffffffffffff1602179055506040820151816002015560608201518160030155905050600760008473ffffffffffffffffffffffffffffffffffffffff1673ffffffffffffffffffffffffffffffffffffffff1681526020019081526020016000206006549080600181540180825580915050600190039060005260206000200160009091909190915055600760008373ffffffffffffffffffffffffffffffffffffffff1673ffffffffffffffffffffffffffffffffffffffff16815260200190815260200160002060065490806001815401808255809150506001900390600052602060002001600090919091909150556006547fc09ae797f474a8568a060562997bd2e2f8dc85b50a348036d10095b3dbbfeeba84848442600460008a73ffffffffffffffffffffffffffffffffffffffff1673ffffffffffffffffffffffffffffffffffffffff16815260200190815260200160002054600460008a73ffffffffffffffffffffffffffffffffffffffff1673ffffffffffffffffffffffffffffffffffffffff168152602001908152602001600020546040516125dd9695949392919061323e565b60405180910390a2505050565b600033905090565b60008060009054906101000a900473ffffffffffffffffffffffffffffffffffffffff169050816000806101000a81548173ffffffffffffffffffffffffffffffffffffffff021916908373ffffffffffffffffffffffffffffffffffffffff1602179055508173ffffffffffffffffffffffffffffffffffffffff168173ffffffffffffffffffffffffffffffffffffffff167f8be0079c531659141344cd1fd0a4f28419497f9722a3daafe3b4186f6b6457e060405160405180910390a35050565b80600460008573ffffffffffffffffffffffffffffffffffffffff1673ffffffffffffffffffffffffffffffffffffffff168152602001908152602001600020541015612738576040517f08c379a000000000000000000000000000000000000000000000000000000000815260040161272f906133b7565b60405180910390fd5b80600460008573ffffffffffffffffffffffffffffffffffffffff1673ffffffffffffffffffffffffffffffffffffffff168152602001908152602001600020600082825461278791906137d3565b9250508190555080600460008473ffffffffffffffffffffffffffffffffffffffff1673ffffffffffffffffffffffffffffffffffffffff16815260200190815260200160002060008282546127dd9190613723565b925050819055506127ef838383612334565b8173ffffffffffffffffffffffffffffffffffffffff168373ffffffffffffffffffffffffffffffffffffffff167f545d69fe7f063ec653f15db654097f27f5cadbe11750199a40fd55b2504c6b4d83600460008873ffffffffffffffffffffffffffffffffffffffff1673ffffffffffffffffffffffffffffffffffffffff16815260200190815260200160002054600460008873ffffffffffffffffffffffffffffffffffffffff1673ffffffffffffffffffffffffffffffffffffffff168152602001908152602001600020546040516128ce93929190613618565b60405180910390a3505050565b6040518060800160405280600073ffffffffffffffffffffffffffffffffffffffff168152602001600073ffffffffffffffffffffffffffffffffffffffff16815260200160008152602001600081525090565b604051806060016040528060008152602001600073ffffffffffffffffffffffffffffffffffffffff168152602001600081525090565b604051806060016040528060608152602001600081526020016000151581525090565b600061299c61299784613674565b61364f565b905080838252602082019050828560208602820111156129bf576129be6139a3565b5b60005b858110156129ef57816129d58882612a7b565b8452602084019350602083019250506001810190506129c2565b5050509392505050565b600081359050612a0881613d3d565b92915050565b600081519050612a1d81613d3d565b92915050565b600082601f830112612a3857612a3761399e565b5b8151612a48848260208601612989565b91505092915050565b600081519050612a6081613d54565b92915050565b600081359050612a7581613d6b565b92915050565b600081519050612a8a81613d6b565b92915050565b600060208284031215612aa657612aa56139ad565b5b6000612ab4848285016129f9565b91505092915050565b600060208284031215612ad357612ad26139ad565b5b6000612ae184828501612a0e565b91505092915050565b600080600060608486031215612b0357612b026139ad565b5b6000612b11868287016129f9565b9350506020612b22868287016129f9565b9250506040612b3386828701612a66565b9150509250925092565b600080600060608486031215612b5657612b556139ad565b5b6000612b64868287016129f9565b9350506020612b7586828701612a66565b9250506040612b8686828701612a66565b9150509250925092565b600060208284031215612ba657612ba56139ad565b5b600082015167ffffffffffffffff811115612bc457612bc36139a8565b5b612bd084828501612a23565b91505092915050565b600060208284031215612bef57612bee6139ad565b5b6000612bfd84828501612a51565b91505092915050565b600060208284031215612c1c57612c1b6139ad565b5b6000612c2a84828501612a66565b91505092915050565b600060208284031215612c4957612c486139ad565b5b6000612c5784828501612a7b565b91505092915050565b60008060408385031215612c7757612c766139ad565b5b6000612c8585828601612a66565b9250506020612c9685828601612a66565b9150509250929050565b6000612cac838361308f565b60808301905092915050565b6000612cc48383613189565b60208301905092915050565b612cd981613807565b82525050565b612ce881613807565b82525050565b6000612cf9826136c0565b612d0381856136f0565b9350612d0e836136a0565b8060005b83811015612d3f578151612d268882612ca0565b9750612d31836136d6565b925050600181019050612d12565b5085935050505092915050565b6000612d57826136cb565b612d618185613701565b9350612d6c836136b0565b8060005b83811015612d9d578151612d848882612cb8565b9750612d8f836136e3565b925050600181019050612d70565b5085935050505092915050565b612db381613819565b82525050565b612dc28161384f565b82525050565b612dd181613861565b82525050565b6000612de4602083613712565b9150612def826139c3565b602082019050919050565b6000612e07602583613712565b9150612e12826139ec565b604082019050919050565b6000612e2a601f83613712565b9150612e3582613a3b565b602082019050919050565b6000612e4d602683613712565b9150612e5882613a64565b604082019050919050565b6000612e70600f83613712565b9150612e7b82613ab3565b602082019050919050565b6000612e93601883613712565b9150612e9e82613adc565b602082019050919050565b6000612eb6601483613712565b9150612ec182613b05565b602082019050919050565b6000612ed9601683613712565b9150612ee482613b2e565b602082019050919050565b6000612efc601983613712565b9150612f0782613b57565b602082019050919050565b6000612f1f602083613712565b9150612f2a82613b80565b602082019050919050565b6000612f42602883613712565b9150612f4d82613ba9565b604082019050919050565b6000612f65601a83613712565b9150612f7082613bf8565b602082019050919050565b6000612f88601b83613712565b9150612f9382613c21565b602082019050919050565b6000612fab601a83613712565b9150612fb682613c4a565b602082019050919050565b6000612fce601183613712565b9150612fd982613c73565b602082019050919050565b6000612ff1601083613712565b9150612ffc82613c9c565b602082019050919050565b6000613014602683613712565b915061301f82613cc5565b604082019050919050565b6000613037601f83613712565b915061304282613d14565b602082019050919050565b6060820160008201516130636000850182613189565b5060208201516130766020850182612cd0565b5060408201516130896040850182613189565b50505050565b6080820160008201516130a56000850182612cd0565b5060208201516130b86020850182612cd0565b5060408201516130cb6040850182613189565b5060608201516130de6060850182613189565b50505050565b6080820160008201516130fa6000850182612cd0565b50602082015161310d6020850182612cd0565b5060408201516131206040850182613189565b5060608201516131336060850182613189565b50505050565b600060608301600083015184820360008601526131568282612cee565b915050602083015161316b6020860182613189565b50604083015161317e6040860182612daa565b508091505092915050565b61319281613845565b82525050565b6131a181613845565b82525050565b60006020820190506131bc6000830184612cdf565b92915050565b60006060820190506131d76000830186612cdf565b6131e46020830185612cdf565b6131f16040830184613198565b949350505050565b600060808201905061320e6000830187612cdf565b61321b6020830186612cdf565b6132286040830185613198565b6132356060830184613198565b95945050505050565b600060c0820190506132536000830189612cdf565b6132606020830188612cdf565b61326d6040830187613198565b61327a6060830186613198565b6132876080830185613198565b61329460a0830184613198565b979650505050505050565b600060208201905081810360008301526132b98184612d4c565b905092915050565b60006020820190506132d66000830184612db9565b92915050565b60006020820190506132f16000830184612dc8565b92915050565b6000602082019050818103600083015261331081612dd7565b9050919050565b6000602082019050818103600083015261333081612dfa565b9050919050565b6000602082019050818103600083015261335081612e1d565b9050919050565b6000602082019050818103600083015261337081612e40565b9050919050565b6000602082019050818103600083015261339081612e63565b9050919050565b600060208201905081810360008301526133b081612e86565b9050919050565b600060208201905081810360008301526133d081612ea9565b9050919050565b600060208201905081810360008301526133f081612ecc565b9050919050565b6000602082019050818103600083015261341081612eef565b9050919050565b6000602082019050818103600083015261343081612f12565b9050919050565b6000602082019050818103600083015261345081612f35565b9050919050565b6000602082019050818103600083015261347081612f58565b9050919050565b6000602082019050818103600083015261349081612f7b565b9050919050565b600060208201905081810360008301526134b081612f9e565b9050919050565b600060208201905081810360008301526134d081612fc1565b9050919050565b600060208201905081810360008301526134f081612fe4565b9050919050565b6000602082019050818103600083015261351081613007565b9050919050565b600060208201905081810360008301526135308161302a565b9050919050565b600060608201905061354c600083018461304d565b92915050565b600060808201905061356760008301846130e4565b92915050565b600060208201905081810360008301526135878184613139565b905092915050565b60006020820190506135a46000830184613198565b92915050565b60006060820190506135bf6000830186613198565b6135cc6020830185612cdf565b6135d96040830184612cdf565b949350505050565b60006060820190506135f66000830186613198565b6136036020830185612cdf565b6136106040830184613198565b949350505050565b600060608201905061362d6000830186613198565b61363a6020830185613198565b6136476040830184613198565b949350505050565b600061365961366a565b90506136658282613897565b919050565b6000604051905090565b600067ffffffffffffffff82111561368f5761368e61396f565b5b602082029050602081019050919050565b6000819050602082019050919050565b6000819050602082019050919050565b600081519050919050565b600081519050919050565b6000602082019050919050565b6000602082019050919050565b600082825260208201905092915050565b600082825260208201905092915050565b600082825260208201905092915050565b600061372e82613845565b915061373983613845565b9250827fffffffffffffffffffffffffffffffffffffffffffffffffffffffffffffffff0382111561376e5761376d613911565b5b828201905092915050565b600061378482613845565b915061378f83613845565b9250817fffffffffffffffffffffffffffffffffffffffffffffffffffffffffffffffff04831182151516156137c8576137c7613911565b5b828202905092915050565b60006137de82613845565b91506137e983613845565b9250828210156137fc576137fb613911565b5b828203905092915050565b600061381282613825565b9050919050565b60008115159050919050565b600073ffffffffffffffffffffffffffffffffffffffff82169050919050565b6000819050919050565b600061385a82613873565b9050919050565b600061386c82613873565b9050919050565b600061387e82613885565b9050919050565b600061389082613825565b9050919050565b6138a0826139b2565b810181811067ffffffffffffffff821117156138bf576138be61396f565b5b80604052505050565b60006138d382613845565b91507fffffffffffffffffffffffffffffffffffffffffffffffffffffffffffffffff82141561390657613905613911565b5b600182019050919050565b7f4e487b7100000000000000000000000000000000000000000000000000000000600052601160045260246000fd5b7f4e487b7100000000000000000000000000000000000000000000000000000000600052603260045260246000fd5b7f4e487b7100000000000000000000000000000000000000000000000000000000600052604160045260246000fd5b600080fd5b600080fd5b600080fd5b600080fd5b6000601f19601f8301169050919050565b7f53656c6c20646f6573206e6f7420657869737420666f722074686973204e4654600082015250565b7f4465706f73697420616d6f756e74206d7573742062652067726561746572207460008201527f68616e2030000000000000000000000000000000000000000000000000000000602082015250565b7f5072696365206d7573742062652067726561746572207468616e207a65726f00600082015250565b7f4f776e61626c653a206e6577206f776e657220697320746865207a65726f206160008201527f6464726573730000000000000000000000000000000000000000000000000000602082015250565b7f5472616e73666572206661696c65640000000000000000000000000000000000600082015250565b7f54686973204e4654206973206e6f7420666f722073616c650000000000000000600082015250565b7f496e73756666696369656e742062616c616e6365000000000000000000000000600082015250565b7f596f7520646f6e2774206f776e2074686973204e465400000000000000000000600082015250565b7f496e76616c696420726563697069656e74206164647265737300000000000000600082015250565b7f4f776e61626c653a2063616c6c6572206973206e6f7420746865206f776e6572600082015250565b7f5769746864726177616c20616d6f756e74206d7573742062652067726561746560008201527f72207468616e2030000000000000000000000000000000000000000000000000602082015250565b7f54686973206d61726b657420646f6573206e6f74206578697374000000000000600082015250565b7f43616e6e6f74207472616e7366657220746f20796f757273656c660000000000600082015250565b7f596f752063616e27742062757920796f7572206f776e204e4654000000000000600082015250565b7f4e4654206e6f7420696e206d61726b6574000000000000000000000000000000600082015250565b7f496e76616c696420747261646520494400000000000000000000000000000000600082015250565b7f5472616e7366657220616d6f756e74206d75737420626520677265617465722060008201527f7468616e20300000000000000000000000000000000000000000000000000000602082015250565b7f5265656e7472616e637947756172643a207265656e7472616e742063616c6c00600082015250565b613d4681613807565b8114613d5157600080fd5b50565b613d5d81613819565b8114613d6857600080fd5b50565b613d7481613845565b8114613d7f57600080fd5b5056fea26469706673582212205e82941a2edd215421af72cb17b26132d99c700096bedbfacd43654f26a98f0d64736f6c63430008070033",
  "immutableReferences": {},
  "source": "// SPDX-License-Identifier: MIT\r\npragma solidity ^0.8.7;\r\n\r\nimport \"./TradeBase.sol\";\r\n\r\ncontract NFTMarket is TradeBase {\r\n    struct Market {\r\n        uint256 nftId;\r\n        address seller;\r\n        uint256 price;\r\n    }\r\n\r\n    mapping(uint256 => Market) public markets;\r\n\r\n    event MarketCreated(uint256 indexed nftId, address indexed seller, uint256 price);\r\n    event MarketCancelled(uint256 indexed nftId, address indexed seller);\r\n    event MarketSold(uint256 indexed nftId, address indexed seller, address indexed buyer, uint256 price);\r\n\r\n    //  \r\n    function createMarket(uint256 _nftId, uint256 price) external nonReentrant {\r\n        require(nftContract.ownerOf(_nftId) == msg.sender, \"You don't own this NFT\");\r\n        require(price > 0, \"Price must be greater than zero\");\r\n        \r\n        nftContract.transferNFTByAdmin(_nftId, msg.sender, address(this));\r\n\r\n        markets[_nftId] = Market({\r\n            nftId: _nftId,\r\n            seller: msg.sender,\r\n            price: price\r\n        });\r\n\r\n        emit MarketCreated(_nftId, msg.sender, price);\r\n    }\r\n\r\n    //  \r\n    function cancelMarket(uint256 _nftId) external nonReentrant {\r\n        Market storage market = markets[_nftId];\r\n        require(nftContract.ownerOf(_nftId) == address(this), \"NFT not in market\");\r\n        require(market.seller == msg.sender, \"You don't own this NFT\");\r\n        require(market.seller != address(0), \"This market does not exist\");\r\n\r\n        nftContract.transferNFTByAdmin(_nftId, address(this), msg.sender);\r\n\r\n        delete markets[_nftId];\r\n\r\n        emit MarketCancelled(_nftId, msg.sender);\r\n    }\r\n\r\n    //  \r\n    function buyMarket(uint256 _nftId) external nonReentrant {\r\n        Market storage market = markets[_nftId];\r\n        require(market.seller != address(0), \"This NFT is not for sale\");\r\n        require(msg.sender != market.seller, \"You can't buy your own NFT\");\r\n\r\n        uint256 price = market.price;\r\n        address seller = market.seller;\r\n\r\n        require(getUserBalance(msg.sender) >= price, \"Insufficient balance\");\r\n\r\n        _adjustBalances(msg.sender, seller, price);\r\n\r\n        nftContract.transferNFTByAdmin(_nftId, address(this), msg.sender);\r\n\r\n        delete markets[_nftId];\r\n\r\n        emit MarketSold(_nftId, seller, msg.sender, price);\r\n    }\r\n\r\n    function getMarketInfo(uint256 _nftId) public view returns (Market memory) {\r\n        Market memory market = markets[_nftId];\r\n        require(market.seller != address(0), \"Sell does not exist for this NFT\");\r\n        return market;\r\n    }\r\n}",
  "sourcePath": "C:\\Users\\SSAFY\\Desktop\\semonemo\\backend\\blockchain-server\\smartcontract\\contracts\\NFTMarket.sol",
  "compiler": {
    "name": "solc",
    "version": "0.8.7+commit.e28d00a7.Emscripten.clang"
  },
  "schemaVersion": "3.4.16",
  "updatedAt": "2024-10-05T08:15:00.687Z",
  "devdoc": {
    "kind": "dev",
    "methods": {
      "owner()": {
        "details": "Returns the address of the current owner."
      },
      "renounceOwnership()": {
        "details": "Leaves the contract without owner. It will not be possible to call `onlyOwner` functions anymore. Can only be called by the current owner. NOTE: Renouncing ownership will leave the contract without an owner, thereby removing any functionality that is only available to the owner."
      },
      "transferOwnership(address)": {
        "details": "Transfers ownership of the contract to a new account (`newOwner`). Can only be called by the current owner."
      }
    },
    "version": 1
  },
  "userdoc": {
    "kind": "user",
    "methods": {},
    "version": 1
  }
}