{
  "contractName": "NFTMarket",
  "abi": [
    {
      "anonymous": false,
      "inputs": [
        {
          "indexed": true,
          "internalType": "address",
          "name": "from",
          "type": "address"
        },
        {
          "indexed": true,
          "internalType": "address",
          "name": "to",
          "type": "address"
        },
        {
          "indexed": false,
          "internalType": "uint256",
          "name": "amount",
          "type": "uint256"
        }
      ],
      "name": "BalanceAdjusted",
      "type": "event"
    },
    {
      "anonymous": false,
      "inputs": [
        {
          "indexed": true,
          "internalType": "address",
          "name": "from",
          "type": "address"
        },
        {
          "indexed": true,
          "internalType": "address",
          "name": "to",
          "type": "address"
        },
        {
          "indexed": false,
          "internalType": "uint256",
          "name": "amount",
          "type": "uint256"
        }
      ],
      "name": "BalanceTransferred",
      "type": "event"
    },
    {
      "anonymous": false,
      "inputs": [
        {
          "indexed": true,
          "internalType": "address",
          "name": "user",
          "type": "address"
        },
        {
          "indexed": false,
          "internalType": "uint256",
          "name": "amount",
          "type": "uint256"
        }
      ],
      "name": "Deposit",
      "type": "event"
    },
    {
      "anonymous": false,
      "inputs": [
        {
          "indexed": true,
          "internalType": "uint256",
          "name": "nftId",
          "type": "uint256"
        },
        {
          "indexed": true,
          "internalType": "address",
          "name": "seller",
          "type": "address"
        }
      ],
      "name": "MarketCancelled",
      "type": "event"
    },
    {
      "anonymous": false,
      "inputs": [
        {
          "indexed": true,
          "internalType": "uint256",
          "name": "nftId",
          "type": "uint256"
        },
        {
          "indexed": true,
          "internalType": "address",
          "name": "seller",
          "type": "address"
        },
        {
          "indexed": false,
          "internalType": "uint256",
          "name": "price",
          "type": "uint256"
        }
      ],
      "name": "MarketCreated",
      "type": "event"
    },
    {
      "anonymous": false,
      "inputs": [
        {
          "indexed": true,
          "internalType": "uint256",
          "name": "nftId",
          "type": "uint256"
        },
        {
          "indexed": true,
          "internalType": "address",
          "name": "seller",
          "type": "address"
        },
        {
          "indexed": true,
          "internalType": "address",
          "name": "buyer",
          "type": "address"
        },
        {
          "indexed": false,
          "internalType": "uint256",
          "name": "price",
          "type": "uint256"
        }
      ],
      "name": "MarketSold",
      "type": "event"
    },
    {
      "anonymous": false,
      "inputs": [
        {
          "indexed": true,
          "internalType": "address",
          "name": "previousOwner",
          "type": "address"
        },
        {
          "indexed": true,
          "internalType": "address",
          "name": "newOwner",
          "type": "address"
        }
      ],
      "name": "OwnershipTransferred",
      "type": "event"
    },
    {
      "anonymous": false,
      "inputs": [
        {
          "indexed": true,
          "internalType": "address",
          "name": "user",
          "type": "address"
        },
        {
          "indexed": false,
          "internalType": "uint256",
          "name": "amount",
          "type": "uint256"
        }
      ],
      "name": "Withdrawal",
      "type": "event"
    },
    {
      "inputs": [
        {
          "internalType": "uint256",
          "name": "amount",
          "type": "uint256"
        }
      ],
      "name": "deposit",
      "outputs": [],
      "stateMutability": "nonpayable",
      "type": "function"
    },
    {
      "inputs": [],
      "name": "getContractBalance",
      "outputs": [
        {
          "internalType": "uint256",
          "name": "",
          "type": "uint256"
        }
      ],
      "stateMutability": "view",
      "type": "function"
    },
    {
      "inputs": [],
      "name": "getContractOwnedNFTs",
      "outputs": [
        {
          "internalType": "uint256[]",
          "name": "",
          "type": "uint256[]"
        }
      ],
      "stateMutability": "view",
      "type": "function"
    },
    {
      "inputs": [
        {
          "internalType": "address",
          "name": "user",
          "type": "address"
        }
      ],
      "name": "getUserBalance",
      "outputs": [
        {
          "internalType": "uint256",
          "name": "",
          "type": "uint256"
        }
      ],
      "stateMutability": "view",
      "type": "function"
    },
    {
      "inputs": [
        {
          "internalType": "uint256",
          "name": "",
          "type": "uint256"
        }
      ],
      "name": "markets",
      "outputs": [
        {
          "internalType": "uint256",
          "name": "nftId",
          "type": "uint256"
        },
        {
          "internalType": "address",
          "name": "seller",
          "type": "address"
        },
        {
          "internalType": "uint256",
          "name": "price",
          "type": "uint256"
        }
      ],
      "stateMutability": "view",
      "type": "function"
    },
    {
      "inputs": [],
      "name": "nftContract",
      "outputs": [
        {
          "internalType": "contract NFTFrame",
          "name": "",
          "type": "address"
        }
      ],
      "stateMutability": "view",
      "type": "function"
    },
    {
      "inputs": [],
      "name": "owner",
      "outputs": [
        {
          "internalType": "address",
          "name": "",
          "type": "address"
        }
      ],
      "stateMutability": "view",
      "type": "function"
    },
    {
      "inputs": [],
      "name": "renounceOwnership",
      "outputs": [],
      "stateMutability": "nonpayable",
      "type": "function"
    },
    {
      "inputs": [],
      "name": "tokenContract",
      "outputs": [
        {
          "internalType": "contract AhoraCoin",
          "name": "",
          "type": "address"
        }
      ],
      "stateMutability": "view",
      "type": "function"
    },
    {
      "inputs": [
        {
          "internalType": "address",
          "name": "to",
          "type": "address"
        },
        {
          "internalType": "uint256",
          "name": "amount",
          "type": "uint256"
        }
      ],
      "name": "transferBalance",
      "outputs": [],
      "stateMutability": "nonpayable",
      "type": "function"
    },
    {
      "inputs": [
        {
          "internalType": "address",
          "name": "newOwner",
          "type": "address"
        }
      ],
      "name": "transferOwnership",
      "outputs": [],
      "stateMutability": "nonpayable",
      "type": "function"
    },
    {
      "inputs": [
        {
          "internalType": "uint256",
          "name": "amount",
          "type": "uint256"
        }
      ],
      "name": "withdraw",
      "outputs": [],
      "stateMutability": "nonpayable",
      "type": "function"
    },
    {
      "inputs": [
        {
          "internalType": "uint256",
          "name": "_nftId",
          "type": "uint256"
        },
        {
          "internalType": "uint256",
          "name": "price",
          "type": "uint256"
        }
      ],
      "name": "createMarket",
      "outputs": [],
      "stateMutability": "nonpayable",
      "type": "function"
    },
    {
      "inputs": [
        {
          "internalType": "uint256",
          "name": "_nftId",
          "type": "uint256"
        }
      ],
      "name": "cancelMarket",
      "outputs": [],
      "stateMutability": "nonpayable",
      "type": "function"
    },
    {
      "inputs": [
        {
          "internalType": "uint256",
          "name": "_nftId",
          "type": "uint256"
        }
      ],
      "name": "buyMarket",
      "outputs": [],
      "stateMutability": "nonpayable",
      "type": "function"
    },
    {
      "inputs": [
        {
          "internalType": "uint256",
          "name": "_nftId",
          "type": "uint256"
        }
      ],
      "name": "getMarketInfo",
      "outputs": [
        {
          "components": [
            {
              "internalType": "uint256",
              "name": "nftId",
              "type": "uint256"
            },
            {
              "internalType": "address",
              "name": "seller",
              "type": "address"
            },
            {
              "internalType": "uint256",
              "name": "price",
              "type": "uint256"
            }
          ],
          "internalType": "struct NFTMarket.Market",
          "name": "",
          "type": "tuple"
        }
      ],
      "stateMutability": "view",
      "type": "function"
    }
  ],
  "bytecode": "0x60806040523480156200001157600080fd5b5062000032620000266200003f60201b60201c565b6200004760201b60201c565b600180819055506200010b565b600033905090565b60008060009054906101000a900473ffffffffffffffffffffffffffffffffffffffff169050816000806101000a81548173ffffffffffffffffffffffffffffffffffffffff021916908373ffffffffffffffffffffffffffffffffffffffff1602179055508173ffffffffffffffffffffffffffffffffffffffff168173ffffffffffffffffffffffffffffffffffffffff167f8be0079c531659141344cd1fd0a4f28419497f9722a3daafe3b4186f6b6457e060405160405180910390a35050565b612de2806200011b6000396000f3fe608060405234801561001057600080fd5b50600436106101005760003560e01c80638da5cb5b11610097578063d3e6fa1911610066578063d3e6fa1914610287578063d56d229d146102a5578063f2fde38b146102c3578063f90852c7146102df57610100565b80638da5cb5b146101ff578063b1283e771461021d578063b6b55f251461024f578063c7604fec1461026b57610100565b806356a6d9ef116100d357806356a6d9ef1461019f5780636f9fb98a146101bb578063715018a6146101d95780637c16cd9e146101e357610100565b80632e1a7d4d146101055780633ec7919314610121578063477348921461015157806355a373d614610181575b600080fd5b61011f600480360381019061011a9190611f82565b6102fb565b005b61013b60048036038101906101369190611f82565b6105aa565b60405161014891906126b7565b60405180910390f35b61016b60048036038101906101669190611e72565b6106bb565b60405161017891906126d2565b60405180910390f35b610189610704565b6040516101969190612441565b60405180910390f35b6101b960048036038101906101b49190611ecc565b61072a565b005b6101c3610a38565b6040516101d091906126d2565b60405180910390f35b6101e1610aea565b005b6101fd60048036038101906101f89190611f82565b610b72565b005b610207610f61565b60405161021491906123a4565b60405180910390f35b61023760048036038101906102329190611f82565b610f8a565b6040516102469392919061274d565b60405180910390f35b61026960048036038101906102649190611f82565b610fd4565b005b61028560048036038101906102809190611fdc565b611203565b005b61028f611539565b60405161029c919061241f565b60405180910390f35b6102ad6115f0565b6040516102ba919061245c565b60405180910390f35b6102dd60048036038101906102d89190611e72565b611616565b005b6102f960048036038101906102f49190611f82565b61170e565b005b60026001541415610341576040517f08c379a000000000000000000000000000000000000000000000000000000000815260040161033890612697565b60405180910390fd5b60026001819055506000811161038c576040517f08c379a0000000000000000000000000000000000000000000000000000000008152600401610383906125b7565b60405180910390fd5b80600460003373ffffffffffffffffffffffffffffffffffffffff1673ffffffffffffffffffffffffffffffffffffffff16815260200190815260200160002054101561040e576040517f08c379a000000000000000000000000000000000000000000000000000000000815260040161040590612537565b60405180910390fd5b80600460003373ffffffffffffffffffffffffffffffffffffffff1673ffffffffffffffffffffffffffffffffffffffff168152602001908152602001600020600082825461045d9190612875565b92505081905550600360009054906101000a900473ffffffffffffffffffffffffffffffffffffffff1673ffffffffffffffffffffffffffffffffffffffff16631b33a8db33836040518363ffffffff1660e01b81526004016104c19291906123f6565b602060405180830381600087803b1580156104db57600080fd5b505af11580156104ef573d6000803e3d6000fd5b505050506040513d601f19601f820116820180604052508101906105139190611f55565b610552576040517f08c379a0000000000000000000000000000000000000000000000000000000008152600401610549906124f7565b60405180910390fd5b3373ffffffffffffffffffffffffffffffffffffffff167f7fcf532c15f0a6db0bd6d0e038bea71d30d808c7d98cb3bf7268a95bf5081b658260405161059891906126d2565b60405180910390a26001808190555050565b6105b2611d34565b600060056000848152602001908152602001600020604051806060016040529081600082015481526020016001820160009054906101000a900473ffffffffffffffffffffffffffffffffffffffff1673ffffffffffffffffffffffffffffffffffffffff1673ffffffffffffffffffffffffffffffffffffffff1681526020016002820154815250509050600073ffffffffffffffffffffffffffffffffffffffff16816020015173ffffffffffffffffffffffffffffffffffffffff1614156106b2576040517f08c379a00000000000000000000000000000000000000000000000000000000081526004016106a990612477565b60405180910390fd5b80915050919050565b6000600460008373ffffffffffffffffffffffffffffffffffffffff1673ffffffffffffffffffffffffffffffffffffffff168152602001908152602001600020549050919050565b600360009054906101000a900473ffffffffffffffffffffffffffffffffffffffff1681565b60026001541415610770576040517f08c379a000000000000000000000000000000000000000000000000000000000815260040161076790612697565b60405180910390fd5b6002600181905550600073ffffffffffffffffffffffffffffffffffffffff168273ffffffffffffffffffffffffffffffffffffffff1614156107e8576040517f08c379a00000000000000000000000000000000000000000000000000000000081526004016107df90612577565b60405180910390fd5b3373ffffffffffffffffffffffffffffffffffffffff168273ffffffffffffffffffffffffffffffffffffffff161415610857576040517f08c379a000000000000000000000000000000000000000000000000000000000815260040161084e906125f7565b60405180910390fd5b6000811161089a576040517f08c379a000000000000000000000000000000000000000000000000000000000815260040161089190612677565b60405180910390fd5b80600460003373ffffffffffffffffffffffffffffffffffffffff1673ffffffffffffffffffffffffffffffffffffffff16815260200190815260200160002054101561091c576040517f08c379a000000000000000000000000000000000000000000000000000000000815260040161091390612537565b60405180910390fd5b80600460003373ffffffffffffffffffffffffffffffffffffffff1673ffffffffffffffffffffffffffffffffffffffff168152602001908152602001600020600082825461096b9190612875565b9250508190555080600460008473ffffffffffffffffffffffffffffffffffffffff1673ffffffffffffffffffffffffffffffffffffffff16815260200190815260200160002060008282546109c1919061281f565b925050819055508173ffffffffffffffffffffffffffffffffffffffff163373ffffffffffffffffffffffffffffffffffffffff167f4163d0b06696468b3d7903f482bcd0097bd38a9a9086157479fd6c6561d2426183604051610a2591906126d2565b60405180910390a3600180819055505050565b6000600360009054906101000a900473ffffffffffffffffffffffffffffffffffffffff1673ffffffffffffffffffffffffffffffffffffffff166370a08231306040518263ffffffff1660e01b8152600401610a9591906123a4565b60206040518083038186803b158015610aad57600080fd5b505afa158015610ac1573d6000803e3d6000fd5b505050506040513d601f19601f82011682018060405250810190610ae59190611faf565b905090565b610af2611ad0565b73ffffffffffffffffffffffffffffffffffffffff16610b10610f61565b73ffffffffffffffffffffffffffffffffffffffff1614610b66576040517f08c379a0000000000000000000000000000000000000000000000000000000008152600401610b5d90612597565b60405180910390fd5b610b706000611ad8565b565b60026001541415610bb8576040517f08c379a0000000000000000000000000000000000000000000000000000000008152600401610baf90612697565b60405180910390fd5b600260018190555060006005600083815260200190815260200160002090503073ffffffffffffffffffffffffffffffffffffffff16600260009054906101000a900473ffffffffffffffffffffffffffffffffffffffff1673ffffffffffffffffffffffffffffffffffffffff16636352211e846040518263ffffffff1660e01b8152600401610c4991906126d2565b60206040518083038186803b158015610c6157600080fd5b505afa158015610c75573d6000803e3d6000fd5b505050506040513d601f19601f82011682018060405250810190610c999190611e9f565b73ffffffffffffffffffffffffffffffffffffffff1614610cef576040517f08c379a0000000000000000000000000000000000000000000000000000000008152600401610ce690612657565b60405180910390fd5b3373ffffffffffffffffffffffffffffffffffffffff168160010160009054906101000a900473ffffffffffffffffffffffffffffffffffffffff1673ffffffffffffffffffffffffffffffffffffffff1614610d81576040517f08c379a0000000000000000000000000000000000000000000000000000000008152600401610d7890612557565b60405180910390fd5b600073ffffffffffffffffffffffffffffffffffffffff168160010160009054906101000a900473ffffffffffffffffffffffffffffffffffffffff1673ffffffffffffffffffffffffffffffffffffffff161415610e15576040517f08c379a0000000000000000000000000000000000000000000000000000000008152600401610e0c906125d7565b60405180910390fd5b600260009054906101000a900473ffffffffffffffffffffffffffffffffffffffff1673ffffffffffffffffffffffffffffffffffffffff16639036c05083336040518363ffffffff1660e01b8152600401610e729291906126ed565b602060405180830381600087803b158015610e8c57600080fd5b505af1158015610ea0573d6000803e3d6000fd5b505050506040513d601f19601f82011682018060405250810190610ec49190611f55565b50600560008381526020019081526020016000206000808201600090556001820160006101000a81549073ffffffffffffffffffffffffffffffffffffffff0219169055600282016000905550503373ffffffffffffffffffffffffffffffffffffffff16827f80cbe856a464968c63953aeb2dd84c12de3a0715985cae2ea35d3ed87e39ddc360405160405180910390a3506001808190555050565b60008060009054906101000a900473ffffffffffffffffffffffffffffffffffffffff16905090565b60056020528060005260406000206000915090508060000154908060010160009054906101000a900473ffffffffffffffffffffffffffffffffffffffff16908060020154905083565b6002600154141561101a576040517f08c379a000000000000000000000000000000000000000000000000000000000815260040161101190612697565b60405180910390fd5b600260018190555060008111611065576040517f08c379a000000000000000000000000000000000000000000000000000000000815260040161105c90612497565b60405180910390fd5b600360009054906101000a900473ffffffffffffffffffffffffffffffffffffffff1673ffffffffffffffffffffffffffffffffffffffff1663f67ac38c3330846040518463ffffffff1660e01b81526004016110c4939291906123bf565b602060405180830381600087803b1580156110de57600080fd5b505af11580156110f2573d6000803e3d6000fd5b505050506040513d601f19601f820116820180604052508101906111169190611f55565b611155576040517f08c379a000000000000000000000000000000000000000000000000000000000815260040161114c906124f7565b60405180910390fd5b80600460003373ffffffffffffffffffffffffffffffffffffffff1673ffffffffffffffffffffffffffffffffffffffff16815260200190815260200160002060008282546111a4919061281f565b925050819055503373ffffffffffffffffffffffffffffffffffffffff167fe1fffcc4923d04b559f4d29a8bfc6cda04eb5b0d3c460751c2402c5c5cc9109c826040516111f191906126d2565b60405180910390a26001808190555050565b60026001541415611249576040517f08c379a000000000000000000000000000000000000000000000000000000000815260040161124090612697565b60405180910390fd5b60026001819055503373ffffffffffffffffffffffffffffffffffffffff16600260009054906101000a900473ffffffffffffffffffffffffffffffffffffffff1673ffffffffffffffffffffffffffffffffffffffff16636352211e846040518263ffffffff1660e01b81526004016112c391906126d2565b60206040518083038186803b1580156112db57600080fd5b505afa1580156112ef573d6000803e3d6000fd5b505050506040513d601f19601f820116820180604052508101906113139190611e9f565b73ffffffffffffffffffffffffffffffffffffffff1614611369576040517f08c379a000000000000000000000000000000000000000000000000000000000815260040161136090612557565b60405180910390fd5b600081116113ac576040517f08c379a00000000000000000000000000000000000000000000000000000000081526004016113a3906124b7565b60405180910390fd5b600260009054906101000a900473ffffffffffffffffffffffffffffffffffffffff1673ffffffffffffffffffffffffffffffffffffffff16634f89cea68333306040518463ffffffff1660e01b815260040161140b93929190612716565b600060405180830381600087803b15801561142557600080fd5b505af1158015611439573d6000803e3d6000fd5b5050505060405180606001604052808381526020013373ffffffffffffffffffffffffffffffffffffffff16815260200182815250600560008481526020019081526020016000206000820151816000015560208201518160010160006101000a81548173ffffffffffffffffffffffffffffffffffffffff021916908373ffffffffffffffffffffffffffffffffffffffff160217905550604082015181600201559050503373ffffffffffffffffffffffffffffffffffffffff16827f557e20be357a3ff3fc08cf2b8e6986333057886a281d0409a7e751c3fd700ec08360405161152691906126d2565b60405180910390a3600180819055505050565b6060600260009054906101000a900473ffffffffffffffffffffffffffffffffffffffff1673ffffffffffffffffffffffffffffffffffffffff1663e6b1fa2a306040518263ffffffff1660e01b815260040161159691906123a4565b60006040518083038186803b1580156115ae57600080fd5b505afa1580156115c2573d6000803e3d6000fd5b505050506040513d6000823e3d601f19601f820116820180604052508101906115eb9190611f0c565b905090565b600260009054906101000a900473ffffffffffffffffffffffffffffffffffffffff1681565b61161e611ad0565b73ffffffffffffffffffffffffffffffffffffffff1661163c610f61565b73ffffffffffffffffffffffffffffffffffffffff1614611692576040517f08c379a000000000000000000000000000000000000000000000000000000000815260040161168990612597565b60405180910390fd5b600073ffffffffffffffffffffffffffffffffffffffff168173ffffffffffffffffffffffffffffffffffffffff161415611702576040517f08c379a00000000000000000000000000000000000000000000000000000000081526004016116f9906124d7565b60405180910390fd5b61170b81611ad8565b50565b60026001541415611754576040517f08c379a000000000000000000000000000000000000000000000000000000000815260040161174b90612697565b60405180910390fd5b60026001819055506000600560008381526020019081526020016000209050600073ffffffffffffffffffffffffffffffffffffffff168160010160009054906101000a900473ffffffffffffffffffffffffffffffffffffffff1673ffffffffffffffffffffffffffffffffffffffff161415611807576040517f08c379a00000000000000000000000000000000000000000000000000000000081526004016117fe90612517565b60405180910390fd5b8060010160009054906101000a900473ffffffffffffffffffffffffffffffffffffffff1673ffffffffffffffffffffffffffffffffffffffff163373ffffffffffffffffffffffffffffffffffffffff16141561189a576040517f08c379a000000000000000000000000000000000000000000000000000000000815260040161189190612617565b60405180910390fd5b60008160020154905060008260010160009054906101000a900473ffffffffffffffffffffffffffffffffffffffff169050816118d6336106bb565b1015611917576040517f08c379a000000000000000000000000000000000000000000000000000000000815260040161190e90612537565b60405180910390fd5b611922338284611b9c565b600260009054906101000a900473ffffffffffffffffffffffffffffffffffffffff1673ffffffffffffffffffffffffffffffffffffffff16639036c05085336040518363ffffffff1660e01b815260040161197f9291906126ed565b602060405180830381600087803b15801561199957600080fd5b505af11580156119ad573d6000803e3d6000fd5b505050506040513d601f19601f820116820180604052508101906119d19190611f55565b611a10576040517f08c379a0000000000000000000000000000000000000000000000000000000008152600401611a0790612637565b60405180910390fd5b600560008581526020019081526020016000206000808201600090556001820160006101000a81549073ffffffffffffffffffffffffffffffffffffffff0219169055600282016000905550503373ffffffffffffffffffffffffffffffffffffffff168173ffffffffffffffffffffffffffffffffffffffff16857f94ddf8232f3af1f844abb74cd56287ba5507090df04bf3c2e006bf74e904a28385604051611abb91906126d2565b60405180910390a45050506001808190555050565b600033905090565b60008060009054906101000a900473ffffffffffffffffffffffffffffffffffffffff169050816000806101000a81548173ffffffffffffffffffffffffffffffffffffffff021916908373ffffffffffffffffffffffffffffffffffffffff1602179055508173ffffffffffffffffffffffffffffffffffffffff168173ffffffffffffffffffffffffffffffffffffffff167f8be0079c531659141344cd1fd0a4f28419497f9722a3daafe3b4186f6b6457e060405160405180910390a35050565b80600460008573ffffffffffffffffffffffffffffffffffffffff1673ffffffffffffffffffffffffffffffffffffffff168152602001908152602001600020541015611c1e576040517f08c379a0000000000000000000000000000000000000000000000000000000008152600401611c1590612537565b60405180910390fd5b80600460008573ffffffffffffffffffffffffffffffffffffffff1673ffffffffffffffffffffffffffffffffffffffff1681526020019081526020016000206000828254611c6d9190612875565b9250508190555080600460008473ffffffffffffffffffffffffffffffffffffffff1673ffffffffffffffffffffffffffffffffffffffff1681526020019081526020016000206000828254611cc3919061281f565b925050819055508173ffffffffffffffffffffffffffffffffffffffff168373ffffffffffffffffffffffffffffffffffffffff167f69d14b96c06609a8976851e9503b0a6b1c60b96a8ba6e5a1a313e8a290138e1583604051611d2791906126d2565b60405180910390a3505050565b604051806060016040528060008152602001600073ffffffffffffffffffffffffffffffffffffffff168152602001600081525090565b6000611d7e611d79846127a9565b612784565b90508083825260208201905082856020860282011115611da157611da06129cd565b5b60005b85811015611dd15781611db78882611e5d565b845260208401935060208301925050600181019050611da4565b5050509392505050565b600081359050611dea81612d67565b92915050565b600081519050611dff81612d67565b92915050565b600082601f830112611e1a57611e196129c8565b5b8151611e2a848260208601611d6b565b91505092915050565b600081519050611e4281612d7e565b92915050565b600081359050611e5781612d95565b92915050565b600081519050611e6c81612d95565b92915050565b600060208284031215611e8857611e876129d7565b5b6000611e9684828501611ddb565b91505092915050565b600060208284031215611eb557611eb46129d7565b5b6000611ec384828501611df0565b91505092915050565b60008060408385031215611ee357611ee26129d7565b5b6000611ef185828601611ddb565b9250506020611f0285828601611e48565b9150509250929050565b600060208284031215611f2257611f216129d7565b5b600082015167ffffffffffffffff811115611f4057611f3f6129d2565b5b611f4c84828501611e05565b91505092915050565b600060208284031215611f6b57611f6a6129d7565b5b6000611f7984828501611e33565b91505092915050565b600060208284031215611f9857611f976129d7565b5b6000611fa684828501611e48565b91505092915050565b600060208284031215611fc557611fc46129d7565b5b6000611fd384828501611e5d565b91505092915050565b60008060408385031215611ff357611ff26129d7565b5b600061200185828601611e48565b925050602061201285828601611e48565b9150509250929050565b60006120288383612386565b60208301905092915050565b61203d816128a9565b82525050565b61204c816128a9565b82525050565b600061205d826127e5565b61206781856127fd565b9350612072836127d5565b8060005b838110156120a357815161208a888261201c565b9750612095836127f0565b925050600181019050612076565b5085935050505092915050565b6120b9816128f1565b82525050565b6120c881612903565b82525050565b60006120db60208361280e565b91506120e6826129ed565b602082019050919050565b60006120fe60258361280e565b915061210982612a16565b604082019050919050565b6000612121601f8361280e565b915061212c82612a65565b602082019050919050565b600061214460268361280e565b915061214f82612a8e565b604082019050919050565b6000612167600f8361280e565b915061217282612add565b602082019050919050565b600061218a60188361280e565b915061219582612b06565b602082019050919050565b60006121ad60148361280e565b91506121b882612b2f565b602082019050919050565b60006121d060168361280e565b91506121db82612b58565b602082019050919050565b60006121f360198361280e565b91506121fe82612b81565b602082019050919050565b600061221660208361280e565b915061222182612baa565b602082019050919050565b600061223960288361280e565b915061224482612bd3565b604082019050919050565b600061225c601a8361280e565b915061226782612c22565b602082019050919050565b600061227f601b8361280e565b915061228a82612c4b565b602082019050919050565b60006122a2601a8361280e565b91506122ad82612c74565b602082019050919050565b60006122c560138361280e565b91506122d082612c9d565b602082019050919050565b60006122e860118361280e565b91506122f382612cc6565b602082019050919050565b600061230b60268361280e565b915061231682612cef565b604082019050919050565b600061232e601f8361280e565b915061233982612d3e565b602082019050919050565b60608201600082015161235a6000850182612386565b50602082015161236d6020850182612034565b5060408201516123806040850182612386565b50505050565b61238f816128e7565b82525050565b61239e816128e7565b82525050565b60006020820190506123b96000830184612043565b92915050565b60006060820190506123d46000830186612043565b6123e16020830185612043565b6123ee6040830184612395565b949350505050565b600060408201905061240b6000830185612043565b6124186020830184612395565b9392505050565b600060208201905081810360008301526124398184612052565b905092915050565b600060208201905061245660008301846120b0565b92915050565b600060208201905061247160008301846120bf565b92915050565b60006020820190508181036000830152612490816120ce565b9050919050565b600060208201905081810360008301526124b0816120f1565b9050919050565b600060208201905081810360008301526124d081612114565b9050919050565b600060208201905081810360008301526124f081612137565b9050919050565b600060208201905081810360008301526125108161215a565b9050919050565b600060208201905081810360008301526125308161217d565b9050919050565b60006020820190508181036000830152612550816121a0565b9050919050565b60006020820190508181036000830152612570816121c3565b9050919050565b60006020820190508181036000830152612590816121e6565b9050919050565b600060208201905081810360008301526125b081612209565b9050919050565b600060208201905081810360008301526125d08161222c565b9050919050565b600060208201905081810360008301526125f08161224f565b9050919050565b6000602082019050818103600083015261261081612272565b9050919050565b6000602082019050818103600083015261263081612295565b9050919050565b60006020820190508181036000830152612650816122b8565b9050919050565b60006020820190508181036000830152612670816122db565b9050919050565b60006020820190508181036000830152612690816122fe565b9050919050565b600060208201905081810360008301526126b081612321565b9050919050565b60006060820190506126cc6000830184612344565b92915050565b60006020820190506126e76000830184612395565b92915050565b60006040820190506127026000830185612395565b61270f6020830184612043565b9392505050565b600060608201905061272b6000830186612395565b6127386020830185612043565b6127456040830184612043565b949350505050565b60006060820190506127626000830186612395565b61276f6020830185612043565b61277c6040830184612395565b949350505050565b600061278e61279f565b905061279a8282612939565b919050565b6000604051905090565b600067ffffffffffffffff8211156127c4576127c3612999565b5b602082029050602081019050919050565b6000819050602082019050919050565b600081519050919050565b6000602082019050919050565b600082825260208201905092915050565b600082825260208201905092915050565b600061282a826128e7565b9150612835836128e7565b9250827fffffffffffffffffffffffffffffffffffffffffffffffffffffffffffffffff0382111561286a5761286961296a565b5b828201905092915050565b6000612880826128e7565b915061288b836128e7565b92508282101561289e5761289d61296a565b5b828203905092915050565b60006128b4826128c7565b9050919050565b60008115159050919050565b600073ffffffffffffffffffffffffffffffffffffffff82169050919050565b6000819050919050565b60006128fc82612915565b9050919050565b600061290e82612915565b9050919050565b600061292082612927565b9050919050565b6000612932826128c7565b9050919050565b612942826129dc565b810181811067ffffffffffffffff8211171561296157612960612999565b5b80604052505050565b7f4e487b7100000000000000000000000000000000000000000000000000000000600052601160045260246000fd5b7f4e487b7100000000000000000000000000000000000000000000000000000000600052604160045260246000fd5b600080fd5b600080fd5b600080fd5b600080fd5b6000601f19601f8301169050919050565b7f53656c6c20646f6573206e6f7420657869737420666f722074686973204e4654600082015250565b7f4465706f73697420616d6f756e74206d7573742062652067726561746572207460008201527f68616e2030000000000000000000000000000000000000000000000000000000602082015250565b7f5072696365206d7573742062652067726561746572207468616e207a65726f00600082015250565b7f4f776e61626c653a206e6577206f776e657220697320746865207a65726f206160008201527f6464726573730000000000000000000000000000000000000000000000000000602082015250565b7f5472616e73666572206661696c65640000000000000000000000000000000000600082015250565b7f54686973204e4654206973206e6f7420666f722073616c650000000000000000600082015250565b7f496e73756666696369656e742062616c616e6365000000000000000000000000600082015250565b7f596f7520646f6e2774206f776e2074686973204e465400000000000000000000600082015250565b7f496e76616c696420726563697069656e74206164647265737300000000000000600082015250565b7f4f776e61626c653a2063616c6c6572206973206e6f7420746865206f776e6572600082015250565b7f5769746864726177616c20616d6f756e74206d7573742062652067726561746560008201527f72207468616e2030000000000000000000000000000000000000000000000000602082015250565b7f54686973206d61726b657420646f6573206e6f74206578697374000000000000600082015250565b7f43616e6e6f74207472616e7366657220746f20796f757273656c660000000000600082015250565b7f596f752063616e27742062757920796f7572206f776e204e4654000000000000600082015250565b7f4e4654207472616e73666572206661696c656400000000000000000000000000600082015250565b7f4e4654206e6f7420696e206d61726b6574000000000000000000000000000000600082015250565b7f5472616e7366657220616d6f756e74206d75737420626520677265617465722060008201527f7468616e20300000000000000000000000000000000000000000000000000000602082015250565b7f5265656e7472616e637947756172643a207265656e7472616e742063616c6c00600082015250565b612d70816128a9565b8114612d7b57600080fd5b50565b612d87816128bb565b8114612d9257600080fd5b50565b612d9e816128e7565b8114612da957600080fd5b5056fea2646970667358221220ca6598c1465d7b8285c026473ee44efe555e1bdf0c96fd1062a44729fa9e700064736f6c63430008070033",
  "immutableReferences": {},
  "source": "// SPDX-License-Identifier: MIT\r\npragma solidity ^0.8.7;\r\n\r\nimport \"./TradeBase.sol\";\r\n\r\ncontract NFTMarket is TradeBase {\r\n    struct Market {\r\n        uint256 nftId;\r\n        address seller;\r\n        uint256 price;\r\n    }\r\n\r\n    mapping(uint256 => Market) public markets;\r\n\r\n    event MarketCreated(uint256 indexed nftId, address indexed seller, uint256 price);\r\n    event MarketCancelled(uint256 indexed nftId, address indexed seller);\r\n    event MarketSold(uint256 indexed nftId, address indexed seller, address indexed buyer, uint256 price);\r\n\r\n    //  \r\n    function createMarket(uint256 _nftId, uint256 price) external nonReentrant {\r\n        require(nftContract.ownerOf(_nftId) == msg.sender, \"You don't own this NFT\");\r\n        require(price > 0, \"Price must be greater than zero\");\r\n        \r\n        nftContract.transferNFTUserToSystem(_nftId, msg.sender, address(this));\r\n\r\n        markets[_nftId] = Market({\r\n            nftId: _nftId,\r\n            seller: msg.sender,\r\n            price: price\r\n        });\r\n\r\n        emit MarketCreated(_nftId, msg.sender, price);\r\n    }\r\n\r\n    //  \r\n    function cancelMarket(uint256 _nftId) external nonReentrant {\r\n        Market storage market = markets[_nftId];\r\n        require(nftContract.ownerOf(_nftId) == address(this), \"NFT not in market\");\r\n        require(market.seller == msg.sender, \"You don't own this NFT\");\r\n        require(market.seller != address(0), \"This market does not exist\");\r\n\r\n        nftContract.transferNFT(_nftId, msg.sender);\r\n\r\n        delete markets[_nftId];\r\n\r\n        emit MarketCancelled(_nftId, msg.sender);\r\n    }\r\n\r\n    //  \r\n    function buyMarket(uint256 _nftId) external nonReentrant {\r\n        Market storage market = markets[_nftId];\r\n        require(market.seller != address(0), \"This NFT is not for sale\");\r\n        require(msg.sender != market.seller, \"You can't buy your own NFT\");\r\n\r\n        uint256 price = market.price;\r\n        address seller = market.seller;\r\n\r\n        require(getUserBalance(msg.sender) >= price, \"Insufficient balance\");\r\n\r\n        _adjustBalances(msg.sender, seller, price);\r\n\r\n        require(nftContract.transferNFT(_nftId, msg.sender), \"NFT transfer failed\");\r\n\r\n        delete markets[_nftId];\r\n\r\n        emit MarketSold(_nftId, seller, msg.sender, price);\r\n    }\r\n\r\n    function getMarketInfo(uint256 _nftId) public view returns (Market memory) {\r\n        Market memory market = markets[_nftId];\r\n        require(market.seller != address(0), \"Sell does not exist for this NFT\");\r\n        return market;\r\n    }\r\n}",
  "sourcePath": "C:\\Users\\SSAFY\\Desktop\\semonemo\\backend\\blockchain-server\\smartcontract\\contracts\\NFTMarket.sol",
  "compiler": {
    "name": "solc",
    "version": "0.8.7+commit.e28d00a7.Emscripten.clang"
  },
  "schemaVersion": "3.4.16",
  "updatedAt": "2024-09-27T00:57:20.647Z",
  "devdoc": {
    "kind": "dev",
    "methods": {
      "owner()": {
        "details": "Returns the address of the current owner."
      },
      "renounceOwnership()": {
        "details": "Leaves the contract without owner. It will not be possible to call `onlyOwner` functions anymore. Can only be called by the current owner. NOTE: Renouncing ownership will leave the contract without an owner, thereby removing any functionality that is only available to the owner."
      },
      "transferOwnership(address)": {
        "details": "Transfers ownership of the contract to a new account (`newOwner`). Can only be called by the current owner."
      }
    },
    "version": 1
  },
  "userdoc": {
    "kind": "user",
    "methods": {},
    "version": 1
  }
}