{
  "contractName": "NFTMarket",
  "abi": [
    {
      "anonymous": false,
      "inputs": [
        {
          "indexed": true,
          "internalType": "address",
          "name": "from",
          "type": "address"
        },
        {
          "indexed": true,
          "internalType": "address",
          "name": "to",
          "type": "address"
        },
        {
          "indexed": false,
          "internalType": "uint256",
          "name": "amount",
          "type": "uint256"
        }
      ],
      "name": "BalanceAdjusted",
      "type": "event"
    },
    {
      "anonymous": false,
      "inputs": [
        {
          "indexed": true,
          "internalType": "address",
          "name": "from",
          "type": "address"
        },
        {
          "indexed": true,
          "internalType": "address",
          "name": "to",
          "type": "address"
        },
        {
          "indexed": false,
          "internalType": "uint256",
          "name": "amount",
          "type": "uint256"
        }
      ],
      "name": "BalanceTransferred",
      "type": "event"
    },
    {
      "anonymous": false,
      "inputs": [
        {
          "indexed": true,
          "internalType": "address",
          "name": "user",
          "type": "address"
        },
        {
          "indexed": false,
          "internalType": "uint256",
          "name": "amount",
          "type": "uint256"
        }
      ],
      "name": "Deposit",
      "type": "event"
    },
    {
      "anonymous": false,
      "inputs": [
        {
          "indexed": true,
          "internalType": "uint256",
          "name": "nftId",
          "type": "uint256"
        },
        {
          "indexed": true,
          "internalType": "address",
          "name": "seller",
          "type": "address"
        }
      ],
      "name": "MarketCancelled",
      "type": "event"
    },
    {
      "anonymous": false,
      "inputs": [
        {
          "indexed": true,
          "internalType": "uint256",
          "name": "nftId",
          "type": "uint256"
        },
        {
          "indexed": true,
          "internalType": "address",
          "name": "seller",
          "type": "address"
        },
        {
          "indexed": false,
          "internalType": "uint256",
          "name": "price",
          "type": "uint256"
        }
      ],
      "name": "MarketCreated",
      "type": "event"
    },
    {
      "anonymous": false,
      "inputs": [
        {
          "indexed": true,
          "internalType": "uint256",
          "name": "nftId",
          "type": "uint256"
        },
        {
          "indexed": true,
          "internalType": "address",
          "name": "seller",
          "type": "address"
        },
        {
          "indexed": true,
          "internalType": "address",
          "name": "buyer",
          "type": "address"
        },
        {
          "indexed": false,
          "internalType": "uint256",
          "name": "price",
          "type": "uint256"
        }
      ],
      "name": "MarketSold",
      "type": "event"
    },
    {
      "anonymous": false,
      "inputs": [
        {
          "indexed": true,
          "internalType": "address",
          "name": "previousOwner",
          "type": "address"
        },
        {
          "indexed": true,
          "internalType": "address",
          "name": "newOwner",
          "type": "address"
        }
      ],
      "name": "OwnershipTransferred",
      "type": "event"
    },
    {
      "anonymous": false,
      "inputs": [
        {
          "indexed": true,
          "internalType": "uint256",
          "name": "tradeId",
          "type": "uint256"
        },
        {
          "indexed": false,
          "internalType": "address",
          "name": "from",
          "type": "address"
        },
        {
          "indexed": false,
          "internalType": "address",
          "name": "to",
          "type": "address"
        },
        {
          "indexed": false,
          "internalType": "uint256",
          "name": "amount",
          "type": "uint256"
        },
        {
          "indexed": false,
          "internalType": "uint256",
          "name": "timestamp",
          "type": "uint256"
        }
      ],
      "name": "TradeRecorded",
      "type": "event"
    },
    {
      "anonymous": false,
      "inputs": [
        {
          "indexed": true,
          "internalType": "address",
          "name": "user",
          "type": "address"
        },
        {
          "indexed": false,
          "internalType": "uint256",
          "name": "amount",
          "type": "uint256"
        }
      ],
      "name": "Withdrawal",
      "type": "event"
    },
    {
      "inputs": [
        {
          "internalType": "uint256",
          "name": "amount",
          "type": "uint256"
        }
      ],
      "name": "deposit",
      "outputs": [],
      "stateMutability": "nonpayable",
      "type": "function"
    },
    {
      "inputs": [],
      "name": "getContractBalance",
      "outputs": [
        {
          "internalType": "uint256",
          "name": "",
          "type": "uint256"
        }
      ],
      "stateMutability": "view",
      "type": "function"
    },
    {
      "inputs": [],
      "name": "getContractOwnedNFTs",
      "outputs": [
        {
          "internalType": "uint256[]",
          "name": "",
          "type": "uint256[]"
        }
      ],
      "stateMutability": "view",
      "type": "function"
    },
    {
      "inputs": [
        {
          "internalType": "address",
          "name": "user",
          "type": "address"
        },
        {
          "internalType": "uint256",
          "name": "page",
          "type": "uint256"
        },
        {
          "internalType": "uint256",
          "name": "size",
          "type": "uint256"
        }
      ],
      "name": "getTradesByAddress",
      "outputs": [
        {
          "components": [
            {
              "components": [
                {
                  "internalType": "address",
                  "name": "from",
                  "type": "address"
                },
                {
                  "internalType": "address",
                  "name": "to",
                  "type": "address"
                },
                {
                  "internalType": "uint256",
                  "name": "amount",
                  "type": "uint256"
                },
                {
                  "internalType": "uint256",
                  "name": "timestamp",
                  "type": "uint256"
                }
              ],
              "internalType": "struct TradeBase.TradeInfo[]",
              "name": "trades",
              "type": "tuple[]"
            },
            {
              "internalType": "uint256",
              "name": "totalTrades",
              "type": "uint256"
            },
            {
              "internalType": "bool",
              "name": "hasNext",
              "type": "bool"
            }
          ],
          "internalType": "struct TradeBase.TradeResult",
          "name": "",
          "type": "tuple"
        }
      ],
      "stateMutability": "view",
      "type": "function"
    },
    {
      "inputs": [
        {
          "internalType": "address",
          "name": "user",
          "type": "address"
        }
      ],
      "name": "getUserBalance",
      "outputs": [
        {
          "internalType": "uint256",
          "name": "",
          "type": "uint256"
        }
      ],
      "stateMutability": "view",
      "type": "function"
    },
    {
      "inputs": [
        {
          "internalType": "uint256",
          "name": "",
          "type": "uint256"
        }
      ],
      "name": "markets",
      "outputs": [
        {
          "internalType": "uint256",
          "name": "nftId",
          "type": "uint256"
        },
        {
          "internalType": "address",
          "name": "seller",
          "type": "address"
        },
        {
          "internalType": "uint256",
          "name": "price",
          "type": "uint256"
        }
      ],
      "stateMutability": "view",
      "type": "function"
    },
    {
      "inputs": [],
      "name": "nftContract",
      "outputs": [
        {
          "internalType": "contract NFTFrame",
          "name": "",
          "type": "address"
        }
      ],
      "stateMutability": "view",
      "type": "function"
    },
    {
      "inputs": [],
      "name": "owner",
      "outputs": [
        {
          "internalType": "address",
          "name": "",
          "type": "address"
        }
      ],
      "stateMutability": "view",
      "type": "function"
    },
    {
      "inputs": [],
      "name": "renounceOwnership",
      "outputs": [],
      "stateMutability": "nonpayable",
      "type": "function"
    },
    {
      "inputs": [],
      "name": "tokenContract",
      "outputs": [
        {
          "internalType": "contract AhoraCoin",
          "name": "",
          "type": "address"
        }
      ],
      "stateMutability": "view",
      "type": "function"
    },
    {
      "inputs": [],
      "name": "tradeId",
      "outputs": [
        {
          "internalType": "uint256",
          "name": "",
          "type": "uint256"
        }
      ],
      "stateMutability": "view",
      "type": "function"
    },
    {
      "inputs": [
        {
          "internalType": "uint256",
          "name": "",
          "type": "uint256"
        }
      ],
      "name": "trades",
      "outputs": [
        {
          "internalType": "address",
          "name": "from",
          "type": "address"
        },
        {
          "internalType": "address",
          "name": "to",
          "type": "address"
        },
        {
          "internalType": "uint256",
          "name": "amount",
          "type": "uint256"
        },
        {
          "internalType": "uint256",
          "name": "timestamp",
          "type": "uint256"
        }
      ],
      "stateMutability": "view",
      "type": "function"
    },
    {
      "inputs": [
        {
          "internalType": "address",
          "name": "from",
          "type": "address"
        },
        {
          "internalType": "address",
          "name": "to",
          "type": "address"
        },
        {
          "internalType": "uint256",
          "name": "amount",
          "type": "uint256"
        }
      ],
      "name": "transferBalance",
      "outputs": [],
      "stateMutability": "nonpayable",
      "type": "function"
    },
    {
      "inputs": [
        {
          "internalType": "address",
          "name": "newOwner",
          "type": "address"
        }
      ],
      "name": "transferOwnership",
      "outputs": [],
      "stateMutability": "nonpayable",
      "type": "function"
    },
    {
      "inputs": [
        {
          "internalType": "uint256",
          "name": "amount",
          "type": "uint256"
        }
      ],
      "name": "withdraw",
      "outputs": [],
      "stateMutability": "nonpayable",
      "type": "function"
    },
    {
      "inputs": [
        {
          "internalType": "uint256",
          "name": "_nftId",
          "type": "uint256"
        },
        {
          "internalType": "uint256",
          "name": "price",
          "type": "uint256"
        }
      ],
      "name": "createMarket",
      "outputs": [],
      "stateMutability": "nonpayable",
      "type": "function"
    },
    {
      "inputs": [
        {
          "internalType": "uint256",
          "name": "_nftId",
          "type": "uint256"
        }
      ],
      "name": "cancelMarket",
      "outputs": [],
      "stateMutability": "nonpayable",
      "type": "function"
    },
    {
      "inputs": [
        {
          "internalType": "uint256",
          "name": "_nftId",
          "type": "uint256"
        }
      ],
      "name": "buyMarket",
      "outputs": [],
      "stateMutability": "nonpayable",
      "type": "function"
    },
    {
      "inputs": [
        {
          "internalType": "uint256",
          "name": "_nftId",
          "type": "uint256"
        }
      ],
      "name": "getMarketInfo",
      "outputs": [
        {
          "components": [
            {
              "internalType": "uint256",
              "name": "nftId",
              "type": "uint256"
            },
            {
              "internalType": "address",
              "name": "seller",
              "type": "address"
            },
            {
              "internalType": "uint256",
              "name": "price",
              "type": "uint256"
            }
          ],
          "internalType": "struct NFTMarket.Market",
          "name": "",
          "type": "tuple"
        }
      ],
      "stateMutability": "view",
      "type": "function"
    }
  ],
  "bytecode": "0x60806040523480156200001157600080fd5b5062000032620000266200003f60201b60201c565b6200004760201b60201c565b600180819055506200010b565b600033905090565b60008060009054906101000a900473ffffffffffffffffffffffffffffffffffffffff169050816000806101000a81548173ffffffffffffffffffffffffffffffffffffffff021916908373ffffffffffffffffffffffffffffffffffffffff1602179055508173ffffffffffffffffffffffffffffffffffffffff168173ffffffffffffffffffffffffffffffffffffffff167f8be0079c531659141344cd1fd0a4f28419497f9722a3daafe3b4186f6b6457e060405160405180910390a35050565b613753806200011b6000396000f3fe608060405234801561001057600080fd5b50600436106101215760003560e01c80638da5cb5b116100ad578063d3e6fa1911610071578063d3e6fa19146102f9578063d56d229d14610317578063d750558f14610335578063f2fde38b14610365578063f90852c71461038157610121565b80638da5cb5b14610255578063a606b94a14610273578063b1283e771461028f578063b6b55f25146102c1578063c7604fec146102dd57610121565b806347734892116100f457806347734892146101c357806355a373d6146101f35780636f9fb98a14610211578063715018a61461022f5780637c16cd9e1461023957610121565b806302c5115b146101265780631e6c598e146101445780632e1a7d4d146101775780633ec7919314610193575b600080fd5b61012e61039d565b60405161013b9190612f8a565b60405180910390f35b61015e60048036038101906101599190612715565b6103a3565b60405161016e9493929190612c90565b60405180910390f35b610191600480360381019061018c9190612715565b610413565b005b6101ad60048036038101906101a89190612715565b6106c4565b6040516101ba9190612f4d565b60405180910390f35b6101dd60048036038101906101d8919061259f565b6107d5565b6040516101ea9190612f8a565b60405180910390f35b6101fb61081e565b6040516102089190612cf7565b60405180910390f35b610219610844565b6040516102269190612f8a565b60405180910390f35b6102376108f6565b005b610253600480360381019061024e9190612715565b61097e565b005b61025d610d4e565b60405161026a9190612c3e565b60405180910390f35b61028d600480360381019061028891906125f9565b610d77565b005b6102a960048036038101906102a49190612715565b61110d565b6040516102b893929190612fdc565b60405180910390f35b6102db60048036038101906102d69190612715565b611157565b005b6102f760048036038101906102f2919061276f565b611386565b005b6103016116bc565b60405161030e9190612cd5565b60405180910390f35b61031f611773565b60405161032c9190612d12565b60405180910390f35b61034f600480360381019061034a919061264c565b611799565b60405161035c9190612f68565b60405180910390f35b61037f600480360381019061037a919061259f565b611aea565b005b61039b60048036038101906103969190612715565b611be2565b005b60065481565b60056020528060005260406000206000915090508060000160009054906101000a900473ffffffffffffffffffffffffffffffffffffffff16908060010160009054906101000a900473ffffffffffffffffffffffffffffffffffffffff16908060020154908060030154905084565b60026001541415610459576040517f08c379a000000000000000000000000000000000000000000000000000000000815260040161045090612f2d565b60405180910390fd5b6002600181905550600081116104a4576040517f08c379a000000000000000000000000000000000000000000000000000000000815260040161049b90612e6d565b60405180910390fd5b80600460003373ffffffffffffffffffffffffffffffffffffffff1673ffffffffffffffffffffffffffffffffffffffff168152602001908152602001600020541015610526576040517f08c379a000000000000000000000000000000000000000000000000000000000815260040161051d90612ded565b60405180910390fd5b80600460003373ffffffffffffffffffffffffffffffffffffffff1673ffffffffffffffffffffffffffffffffffffffff16815260200190815260200160002060008282546105759190613197565b92505081905550600360009054906101000a900473ffffffffffffffffffffffffffffffffffffffff1673ffffffffffffffffffffffffffffffffffffffff16636153fced3033846040518463ffffffff1660e01b81526004016105db93929190612c59565b602060405180830381600087803b1580156105f557600080fd5b505af1158015610609573d6000803e3d6000fd5b505050506040513d601f19601f8201168201806040525081019061062d91906126e8565b61066c576040517f08c379a000000000000000000000000000000000000000000000000000000000815260040161066390612dad565b60405180910390fd5b3373ffffffffffffffffffffffffffffffffffffffff167f7fcf532c15f0a6db0bd6d0e038bea71d30d808c7d98cb3bf7268a95bf5081b65826040516106b29190612f8a565b60405180910390a26001808190555050565b6106cc6123ea565b600060086000848152602001908152602001600020604051806060016040529081600082015481526020016001820160009054906101000a900473ffffffffffffffffffffffffffffffffffffffff1673ffffffffffffffffffffffffffffffffffffffff1673ffffffffffffffffffffffffffffffffffffffff1681526020016002820154815250509050600073ffffffffffffffffffffffffffffffffffffffff16816020015173ffffffffffffffffffffffffffffffffffffffff1614156107cc576040517f08c379a00000000000000000000000000000000000000000000000000000000081526004016107c390612d2d565b60405180910390fd5b80915050919050565b6000600460008373ffffffffffffffffffffffffffffffffffffffff1673ffffffffffffffffffffffffffffffffffffffff168152602001908152602001600020549050919050565b600360009054906101000a900473ffffffffffffffffffffffffffffffffffffffff1681565b6000600360009054906101000a900473ffffffffffffffffffffffffffffffffffffffff1673ffffffffffffffffffffffffffffffffffffffff166370a08231306040518263ffffffff1660e01b81526004016108a19190612c3e565b60206040518083038186803b1580156108b957600080fd5b505afa1580156108cd573d6000803e3d6000fd5b505050506040513d601f19601f820116820180604052508101906108f19190612742565b905090565b6108fe611f47565b73ffffffffffffffffffffffffffffffffffffffff1661091c610d4e565b73ffffffffffffffffffffffffffffffffffffffff1614610972576040517f08c379a000000000000000000000000000000000000000000000000000000000815260040161096990612e4d565b60405180910390fd5b61097c6000611f4f565b565b600260015414156109c4576040517f08c379a00000000000000000000000000000000000000000000000000000000081526004016109bb90612f2d565b60405180910390fd5b600260018190555060006008600083815260200190815260200160002090503073ffffffffffffffffffffffffffffffffffffffff16600260009054906101000a900473ffffffffffffffffffffffffffffffffffffffff1673ffffffffffffffffffffffffffffffffffffffff16636352211e846040518263ffffffff1660e01b8152600401610a559190612f8a565b60206040518083038186803b158015610a6d57600080fd5b505afa158015610a81573d6000803e3d6000fd5b505050506040513d601f19601f82011682018060405250810190610aa591906125cc565b73ffffffffffffffffffffffffffffffffffffffff1614610afb576040517f08c379a0000000000000000000000000000000000000000000000000000000008152600401610af290612eed565b60405180910390fd5b3373ffffffffffffffffffffffffffffffffffffffff168160010160009054906101000a900473ffffffffffffffffffffffffffffffffffffffff1673ffffffffffffffffffffffffffffffffffffffff1614610b8d576040517f08c379a0000000000000000000000000000000000000000000000000000000008152600401610b8490612e0d565b60405180910390fd5b600073ffffffffffffffffffffffffffffffffffffffff168160010160009054906101000a900473ffffffffffffffffffffffffffffffffffffffff1673ffffffffffffffffffffffffffffffffffffffff161415610c21576040517f08c379a0000000000000000000000000000000000000000000000000000000008152600401610c1890612e8d565b60405180910390fd5b600260009054906101000a900473ffffffffffffffffffffffffffffffffffffffff1673ffffffffffffffffffffffffffffffffffffffff166335b9594c8330336040518463ffffffff1660e01b8152600401610c8093929190612fa5565b600060405180830381600087803b158015610c9a57600080fd5b505af1158015610cae573d6000803e3d6000fd5b50505050600860008381526020019081526020016000206000808201600090556001820160006101000a81549073ffffffffffffffffffffffffffffffffffffffff0219169055600282016000905550503373ffffffffffffffffffffffffffffffffffffffff16827f80cbe856a464968c63953aeb2dd84c12de3a0715985cae2ea35d3ed87e39ddc360405160405180910390a3506001808190555050565b60008060009054906101000a900473ffffffffffffffffffffffffffffffffffffffff16905090565b610d7f611f47565b73ffffffffffffffffffffffffffffffffffffffff16610d9d610d4e565b73ffffffffffffffffffffffffffffffffffffffff1614610df3576040517f08c379a0000000000000000000000000000000000000000000000000000000008152600401610dea90612e4d565b60405180910390fd5b60026001541415610e39576040517f08c379a0000000000000000000000000000000000000000000000000000000008152600401610e3090612f2d565b60405180910390fd5b6002600181905550600073ffffffffffffffffffffffffffffffffffffffff168273ffffffffffffffffffffffffffffffffffffffff161415610eb1576040517f08c379a0000000000000000000000000000000000000000000000000000000008152600401610ea890612e2d565b60405180910390fd5b8273ffffffffffffffffffffffffffffffffffffffff168273ffffffffffffffffffffffffffffffffffffffff161415610f20576040517f08c379a0000000000000000000000000000000000000000000000000000000008152600401610f1790612ead565b60405180910390fd5b60008111610f63576040517f08c379a0000000000000000000000000000000000000000000000000000000008152600401610f5a90612f0d565b60405180910390fd5b80600460008573ffffffffffffffffffffffffffffffffffffffff1673ffffffffffffffffffffffffffffffffffffffff168152602001908152602001600020541015610fe5576040517f08c379a0000000000000000000000000000000000000000000000000000000008152600401610fdc90612ded565b60405180910390fd5b80600460008573ffffffffffffffffffffffffffffffffffffffff1673ffffffffffffffffffffffffffffffffffffffff16815260200190815260200160002060008282546110349190613197565b9250508190555080600460008473ffffffffffffffffffffffffffffffffffffffff1673ffffffffffffffffffffffffffffffffffffffff168152602001908152602001600020600082825461108a91906130e7565b9250508190555061109c838383612013565b8173ffffffffffffffffffffffffffffffffffffffff168373ffffffffffffffffffffffffffffffffffffffff167f4163d0b06696468b3d7903f482bcd0097bd38a9a9086157479fd6c6561d24261836040516110f99190612f8a565b60405180910390a360018081905550505050565b60086020528060005260406000206000915090508060000154908060010160009054906101000a900473ffffffffffffffffffffffffffffffffffffffff16908060020154905083565b6002600154141561119d576040517f08c379a000000000000000000000000000000000000000000000000000000000815260040161119490612f2d565b60405180910390fd5b6002600181905550600081116111e8576040517f08c379a00000000000000000000000000000000000000000000000000000000081526004016111df90612d4d565b60405180910390fd5b600360009054906101000a900473ffffffffffffffffffffffffffffffffffffffff1673ffffffffffffffffffffffffffffffffffffffff16636153fced3330846040518463ffffffff1660e01b815260040161124793929190612c59565b602060405180830381600087803b15801561126157600080fd5b505af1158015611275573d6000803e3d6000fd5b505050506040513d601f19601f8201168201806040525081019061129991906126e8565b6112d8576040517f08c379a00000000000000000000000000000000000000000000000000000000081526004016112cf90612dad565b60405180910390fd5b80600460003373ffffffffffffffffffffffffffffffffffffffff1673ffffffffffffffffffffffffffffffffffffffff168152602001908152602001600020600082825461132791906130e7565b925050819055503373ffffffffffffffffffffffffffffffffffffffff167fe1fffcc4923d04b559f4d29a8bfc6cda04eb5b0d3c460751c2402c5c5cc9109c826040516113749190612f8a565b60405180910390a26001808190555050565b600260015414156113cc576040517f08c379a00000000000000000000000000000000000000000000000000000000081526004016113c390612f2d565b60405180910390fd5b60026001819055503373ffffffffffffffffffffffffffffffffffffffff16600260009054906101000a900473ffffffffffffffffffffffffffffffffffffffff1673ffffffffffffffffffffffffffffffffffffffff16636352211e846040518263ffffffff1660e01b81526004016114469190612f8a565b60206040518083038186803b15801561145e57600080fd5b505afa158015611472573d6000803e3d6000fd5b505050506040513d601f19601f8201168201806040525081019061149691906125cc565b73ffffffffffffffffffffffffffffffffffffffff16146114ec576040517f08c379a00000000000000000000000000000000000000000000000000000000081526004016114e390612e0d565b60405180910390fd5b6000811161152f576040517f08c379a000000000000000000000000000000000000000000000000000000000815260040161152690612d6d565b60405180910390fd5b600260009054906101000a900473ffffffffffffffffffffffffffffffffffffffff1673ffffffffffffffffffffffffffffffffffffffff166335b9594c8333306040518463ffffffff1660e01b815260040161158e93929190612fa5565b600060405180830381600087803b1580156115a857600080fd5b505af11580156115bc573d6000803e3d6000fd5b5050505060405180606001604052808381526020013373ffffffffffffffffffffffffffffffffffffffff16815260200182815250600860008481526020019081526020016000206000820151816000015560208201518160010160006101000a81548173ffffffffffffffffffffffffffffffffffffffff021916908373ffffffffffffffffffffffffffffffffffffffff160217905550604082015181600201559050503373ffffffffffffffffffffffffffffffffffffffff16827f557e20be357a3ff3fc08cf2b8e6986333057886a281d0409a7e751c3fd700ec0836040516116a99190612f8a565b60405180910390a3600180819055505050565b6060600260009054906101000a900473ffffffffffffffffffffffffffffffffffffffff1673ffffffffffffffffffffffffffffffffffffffff1663e6b1fa2a306040518263ffffffff1660e01b81526004016117199190612c3e565b60006040518083038186803b15801561173157600080fd5b505afa158015611745573d6000803e3d6000fd5b505050506040513d6000823e3d601f19601f8201168201806040525081019061176e919061269f565b905090565b600260009054906101000a900473ffffffffffffffffffffffffffffffffffffffff1681565b6117a1612421565b6000600760008673ffffffffffffffffffffffffffffffffffffffff1673ffffffffffffffffffffffffffffffffffffffff1681526020019081526020016000209050600081805490509050600084866117fb919061313d565b821161180857600061182c565b8460018761181691906130e7565b611820919061313d565b8261182b9190613197565b5b90506000858761183c919061313d565b836118479190613197565b9050828211806118575750600082105b1561186157600091505b60008111158061187c5750828688611879919061313d565b10155b156118fe576040518060600160405280600067ffffffffffffffff8111156118a7576118a6613333565b5b6040519080825280602002602001820160405280156118e057816020015b6118cd612444565b8152602001906001900390816118c55790505b50815260200184815260200160001515815250945050505050611ae3565b6000828261190c9190613197565b905060008167ffffffffffffffff81111561192a57611929613333565b5b60405190808252806020026020018201604052801561196357816020015b611950612444565b8152602001906001900390816119485790505b50905060005b82811015611ab4576005600088836001886119849190613197565b61198e9190613197565b8154811061199f5761199e613304565b5b906000526020600020015481526020019081526020016000206040518060800160405290816000820160009054906101000a900473ffffffffffffffffffffffffffffffffffffffff1673ffffffffffffffffffffffffffffffffffffffff1673ffffffffffffffffffffffffffffffffffffffff1681526020016001820160009054906101000a900473ffffffffffffffffffffffffffffffffffffffff1673ffffffffffffffffffffffffffffffffffffffff1673ffffffffffffffffffffffffffffffffffffffff16815260200160028201548152602001600382015481525050828281518110611a9657611a95613304565b5b60200260200101819052508080611aac9061328c565b915050611969565b506000808511905060405180606001604052808381526020018781526020018215158152509750505050505050505b9392505050565b611af2611f47565b73ffffffffffffffffffffffffffffffffffffffff16611b10610d4e565b73ffffffffffffffffffffffffffffffffffffffff1614611b66576040517f08c379a0000000000000000000000000000000000000000000000000000000008152600401611b5d90612e4d565b60405180910390fd5b600073ffffffffffffffffffffffffffffffffffffffff168173ffffffffffffffffffffffffffffffffffffffff161415611bd6576040517f08c379a0000000000000000000000000000000000000000000000000000000008152600401611bcd90612d8d565b60405180910390fd5b611bdf81611f4f565b50565b60026001541415611c28576040517f08c379a0000000000000000000000000000000000000000000000000000000008152600401611c1f90612f2d565b60405180910390fd5b60026001819055506000600860008381526020019081526020016000209050600073ffffffffffffffffffffffffffffffffffffffff168160010160009054906101000a900473ffffffffffffffffffffffffffffffffffffffff1673ffffffffffffffffffffffffffffffffffffffff161415611cdb576040517f08c379a0000000000000000000000000000000000000000000000000000000008152600401611cd290612dcd565b60405180910390fd5b8060010160009054906101000a900473ffffffffffffffffffffffffffffffffffffffff1673ffffffffffffffffffffffffffffffffffffffff163373ffffffffffffffffffffffffffffffffffffffff161415611d6e576040517f08c379a0000000000000000000000000000000000000000000000000000000008152600401611d6590612ecd565b60405180910390fd5b60008160020154905060008260010160009054906101000a900473ffffffffffffffffffffffffffffffffffffffff16905081611daa336107d5565b1015611deb576040517f08c379a0000000000000000000000000000000000000000000000000000000008152600401611de290612ded565b60405180910390fd5b611df6338284612247565b600260009054906101000a900473ffffffffffffffffffffffffffffffffffffffff1673ffffffffffffffffffffffffffffffffffffffff166335b9594c8530336040518463ffffffff1660e01b8152600401611e5593929190612fa5565b600060405180830381600087803b158015611e6f57600080fd5b505af1158015611e83573d6000803e3d6000fd5b50505050600860008581526020019081526020016000206000808201600090556001820160006101000a81549073ffffffffffffffffffffffffffffffffffffffff0219169055600282016000905550503373ffffffffffffffffffffffffffffffffffffffff168173ffffffffffffffffffffffffffffffffffffffff16857f94ddf8232f3af1f844abb74cd56287ba5507090df04bf3c2e006bf74e904a28385604051611f329190612f8a565b60405180910390a45050506001808190555050565b600033905090565b60008060009054906101000a900473ffffffffffffffffffffffffffffffffffffffff169050816000806101000a81548173ffffffffffffffffffffffffffffffffffffffff021916908373ffffffffffffffffffffffffffffffffffffffff1602179055508173ffffffffffffffffffffffffffffffffffffffff168173ffffffffffffffffffffffffffffffffffffffff167f8be0079c531659141344cd1fd0a4f28419497f9722a3daafe3b4186f6b6457e060405160405180910390a35050565b600660008154809291906120269061328c565b919050555060405180608001604052808473ffffffffffffffffffffffffffffffffffffffff1681526020018373ffffffffffffffffffffffffffffffffffffffff1681526020018281526020014281525060056000600654815260200190815260200160002060008201518160000160006101000a81548173ffffffffffffffffffffffffffffffffffffffff021916908373ffffffffffffffffffffffffffffffffffffffff16021790555060208201518160010160006101000a81548173ffffffffffffffffffffffffffffffffffffffff021916908373ffffffffffffffffffffffffffffffffffffffff1602179055506040820151816002015560608201518160030155905050600760008473ffffffffffffffffffffffffffffffffffffffff1673ffffffffffffffffffffffffffffffffffffffff1681526020019081526020016000206006549080600181540180825580915050600190039060005260206000200160009091909190915055600760008373ffffffffffffffffffffffffffffffffffffffff1673ffffffffffffffffffffffffffffffffffffffff16815260200190815260200160002060065490806001815401808255809150506001900390600052602060002001600090919091909150556006547f753ae2aaaf39e14f83785986367e2865dbbccf8c9b24ce246f61939bc0f5d7a88484844260405161223a9493929190612c90565b60405180910390a2505050565b80600460008573ffffffffffffffffffffffffffffffffffffffff1673ffffffffffffffffffffffffffffffffffffffff1681526020019081526020016000205410156122c9576040517f08c379a00000000000000000000000000000000000000000000000000000000081526004016122c090612ded565b60405180910390fd5b80600460008573ffffffffffffffffffffffffffffffffffffffff1673ffffffffffffffffffffffffffffffffffffffff16815260200190815260200160002060008282546123189190613197565b9250508190555080600460008473ffffffffffffffffffffffffffffffffffffffff1673ffffffffffffffffffffffffffffffffffffffff168152602001908152602001600020600082825461236e91906130e7565b92505081905550612380838383612013565b8173ffffffffffffffffffffffffffffffffffffffff168373ffffffffffffffffffffffffffffffffffffffff167f69d14b96c06609a8976851e9503b0a6b1c60b96a8ba6e5a1a313e8a290138e15836040516123dd9190612f8a565b60405180910390a3505050565b604051806060016040528060008152602001600073ffffffffffffffffffffffffffffffffffffffff168152602001600081525090565b604051806060016040528060608152602001600081526020016000151581525090565b6040518060800160405280600073ffffffffffffffffffffffffffffffffffffffff168152602001600073ffffffffffffffffffffffffffffffffffffffff16815260200160008152602001600081525090565b60006124ab6124a684613038565b613013565b905080838252602082019050828560208602820111156124ce576124cd613367565b5b60005b858110156124fe57816124e4888261258a565b8452602084019350602083019250506001810190506124d1565b5050509392505050565b600081359050612517816136d8565b92915050565b60008151905061252c816136d8565b92915050565b600082601f83011261254757612546613362565b5b8151612557848260208601612498565b91505092915050565b60008151905061256f816136ef565b92915050565b60008135905061258481613706565b92915050565b60008151905061259981613706565b92915050565b6000602082840312156125b5576125b4613371565b5b60006125c384828501612508565b91505092915050565b6000602082840312156125e2576125e1613371565b5b60006125f08482850161251d565b91505092915050565b60008060006060848603121561261257612611613371565b5b600061262086828701612508565b935050602061263186828701612508565b925050604061264286828701612575565b9150509250925092565b60008060006060848603121561266557612664613371565b5b600061267386828701612508565b935050602061268486828701612575565b925050604061269586828701612575565b9150509250925092565b6000602082840312156126b5576126b4613371565b5b600082015167ffffffffffffffff8111156126d3576126d261336c565b5b6126df84828501612532565b91505092915050565b6000602082840312156126fe576126fd613371565b5b600061270c84828501612560565b91505092915050565b60006020828403121561272b5761272a613371565b5b600061273984828501612575565b91505092915050565b60006020828403121561275857612757613371565b5b60006127668482850161258a565b91505092915050565b6000806040838503121561278657612785613371565b5b600061279485828601612575565b92505060206127a585828601612575565b9150509250929050565b60006127bb8383612b7b565b60808301905092915050565b60006127d38383612c20565b60208301905092915050565b6127e8816131cb565b82525050565b6127f7816131cb565b82525050565b600061280882613084565b61281281856130b4565b935061281d83613064565b8060005b8381101561284e57815161283588826127af565b97506128408361309a565b925050600181019050612821565b5085935050505092915050565b60006128668261308f565b61287081856130c5565b935061287b83613074565b8060005b838110156128ac57815161289388826127c7565b975061289e836130a7565b92505060018101905061287f565b5085935050505092915050565b6128c2816131dd565b82525050565b6128d181613213565b82525050565b6128e081613225565b82525050565b60006128f36020836130d6565b91506128fe82613387565b602082019050919050565b60006129166025836130d6565b9150612921826133b0565b604082019050919050565b6000612939601f836130d6565b9150612944826133ff565b602082019050919050565b600061295c6026836130d6565b915061296782613428565b604082019050919050565b600061297f600f836130d6565b915061298a82613477565b602082019050919050565b60006129a26018836130d6565b91506129ad826134a0565b602082019050919050565b60006129c56014836130d6565b91506129d0826134c9565b602082019050919050565b60006129e86016836130d6565b91506129f3826134f2565b602082019050919050565b6000612a0b6019836130d6565b9150612a168261351b565b602082019050919050565b6000612a2e6020836130d6565b9150612a3982613544565b602082019050919050565b6000612a516028836130d6565b9150612a5c8261356d565b604082019050919050565b6000612a74601a836130d6565b9150612a7f826135bc565b602082019050919050565b6000612a97601b836130d6565b9150612aa2826135e5565b602082019050919050565b6000612aba601a836130d6565b9150612ac58261360e565b602082019050919050565b6000612add6011836130d6565b9150612ae882613637565b602082019050919050565b6000612b006026836130d6565b9150612b0b82613660565b604082019050919050565b6000612b23601f836130d6565b9150612b2e826136af565b602082019050919050565b606082016000820151612b4f6000850182612c20565b506020820151612b6260208501826127df565b506040820151612b756040850182612c20565b50505050565b608082016000820151612b9160008501826127df565b506020820151612ba460208501826127df565b506040820151612bb76040850182612c20565b506060820151612bca6060850182612c20565b50505050565b60006060830160008301518482036000860152612bed82826127fd565b9150506020830151612c026020860182612c20565b506040830151612c1560408601826128b9565b508091505092915050565b612c2981613209565b82525050565b612c3881613209565b82525050565b6000602082019050612c5360008301846127ee565b92915050565b6000606082019050612c6e60008301866127ee565b612c7b60208301856127ee565b612c886040830184612c2f565b949350505050565b6000608082019050612ca560008301876127ee565b612cb260208301866127ee565b612cbf6040830185612c2f565b612ccc6060830184612c2f565b95945050505050565b60006020820190508181036000830152612cef818461285b565b905092915050565b6000602082019050612d0c60008301846128c8565b92915050565b6000602082019050612d2760008301846128d7565b92915050565b60006020820190508181036000830152612d46816128e6565b9050919050565b60006020820190508181036000830152612d6681612909565b9050919050565b60006020820190508181036000830152612d868161292c565b9050919050565b60006020820190508181036000830152612da68161294f565b9050919050565b60006020820190508181036000830152612dc681612972565b9050919050565b60006020820190508181036000830152612de681612995565b9050919050565b60006020820190508181036000830152612e06816129b8565b9050919050565b60006020820190508181036000830152612e26816129db565b9050919050565b60006020820190508181036000830152612e46816129fe565b9050919050565b60006020820190508181036000830152612e6681612a21565b9050919050565b60006020820190508181036000830152612e8681612a44565b9050919050565b60006020820190508181036000830152612ea681612a67565b9050919050565b60006020820190508181036000830152612ec681612a8a565b9050919050565b60006020820190508181036000830152612ee681612aad565b9050919050565b60006020820190508181036000830152612f0681612ad0565b9050919050565b60006020820190508181036000830152612f2681612af3565b9050919050565b60006020820190508181036000830152612f4681612b16565b9050919050565b6000606082019050612f626000830184612b39565b92915050565b60006020820190508181036000830152612f828184612bd0565b905092915050565b6000602082019050612f9f6000830184612c2f565b92915050565b6000606082019050612fba6000830186612c2f565b612fc760208301856127ee565b612fd460408301846127ee565b949350505050565b6000606082019050612ff16000830186612c2f565b612ffe60208301856127ee565b61300b6040830184612c2f565b949350505050565b600061301d61302e565b9050613029828261325b565b919050565b6000604051905090565b600067ffffffffffffffff82111561305357613052613333565b5b602082029050602081019050919050565b6000819050602082019050919050565b6000819050602082019050919050565b600081519050919050565b600081519050919050565b6000602082019050919050565b6000602082019050919050565b600082825260208201905092915050565b600082825260208201905092915050565b600082825260208201905092915050565b60006130f282613209565b91506130fd83613209565b9250827fffffffffffffffffffffffffffffffffffffffffffffffffffffffffffffffff03821115613132576131316132d5565b5b828201905092915050565b600061314882613209565b915061315383613209565b9250817fffffffffffffffffffffffffffffffffffffffffffffffffffffffffffffffff048311821515161561318c5761318b6132d5565b5b828202905092915050565b60006131a282613209565b91506131ad83613209565b9250828210156131c0576131bf6132d5565b5b828203905092915050565b60006131d6826131e9565b9050919050565b60008115159050919050565b600073ffffffffffffffffffffffffffffffffffffffff82169050919050565b6000819050919050565b600061321e82613237565b9050919050565b600061323082613237565b9050919050565b600061324282613249565b9050919050565b6000613254826131e9565b9050919050565b61326482613376565b810181811067ffffffffffffffff8211171561328357613282613333565b5b80604052505050565b600061329782613209565b91507fffffffffffffffffffffffffffffffffffffffffffffffffffffffffffffffff8214156132ca576132c96132d5565b5b600182019050919050565b7f4e487b7100000000000000000000000000000000000000000000000000000000600052601160045260246000fd5b7f4e487b7100000000000000000000000000000000000000000000000000000000600052603260045260246000fd5b7f4e487b7100000000000000000000000000000000000000000000000000000000600052604160045260246000fd5b600080fd5b600080fd5b600080fd5b600080fd5b6000601f19601f8301169050919050565b7f53656c6c20646f6573206e6f7420657869737420666f722074686973204e4654600082015250565b7f4465706f73697420616d6f756e74206d7573742062652067726561746572207460008201527f68616e2030000000000000000000000000000000000000000000000000000000602082015250565b7f5072696365206d7573742062652067726561746572207468616e207a65726f00600082015250565b7f4f776e61626c653a206e6577206f776e657220697320746865207a65726f206160008201527f6464726573730000000000000000000000000000000000000000000000000000602082015250565b7f5472616e73666572206661696c65640000000000000000000000000000000000600082015250565b7f54686973204e4654206973206e6f7420666f722073616c650000000000000000600082015250565b7f496e73756666696369656e742062616c616e6365000000000000000000000000600082015250565b7f596f7520646f6e2774206f776e2074686973204e465400000000000000000000600082015250565b7f496e76616c696420726563697069656e74206164647265737300000000000000600082015250565b7f4f776e61626c653a2063616c6c6572206973206e6f7420746865206f776e6572600082015250565b7f5769746864726177616c20616d6f756e74206d7573742062652067726561746560008201527f72207468616e2030000000000000000000000000000000000000000000000000602082015250565b7f54686973206d61726b657420646f6573206e6f74206578697374000000000000600082015250565b7f43616e6e6f74207472616e7366657220746f20796f757273656c660000000000600082015250565b7f596f752063616e27742062757920796f7572206f776e204e4654000000000000600082015250565b7f4e4654206e6f7420696e206d61726b6574000000000000000000000000000000600082015250565b7f5472616e7366657220616d6f756e74206d75737420626520677265617465722060008201527f7468616e20300000000000000000000000000000000000000000000000000000602082015250565b7f5265656e7472616e637947756172643a207265656e7472616e742063616c6c00600082015250565b6136e1816131cb565b81146136ec57600080fd5b50565b6136f8816131dd565b811461370357600080fd5b50565b61370f81613209565b811461371a57600080fd5b5056fea2646970667358221220b0451d6ae45a05b311e755e7158b28172398637fa0ab0bdfc9c314fced4ee2a964736f6c63430008070033",
  "immutableReferences": {},
  "source": "// SPDX-License-Identifier: MIT\r\npragma solidity ^0.8.7;\r\n\r\nimport \"./TradeBase.sol\";\r\n\r\ncontract NFTMarket is TradeBase {\r\n    struct Market {\r\n        uint256 nftId;\r\n        address seller;\r\n        uint256 price;\r\n    }\r\n\r\n    mapping(uint256 => Market) public markets;\r\n\r\n    event MarketCreated(uint256 indexed nftId, address indexed seller, uint256 price);\r\n    event MarketCancelled(uint256 indexed nftId, address indexed seller);\r\n    event MarketSold(uint256 indexed nftId, address indexed seller, address indexed buyer, uint256 price);\r\n\r\n    //  \r\n    function createMarket(uint256 _nftId, uint256 price) external nonReentrant {\r\n        require(nftContract.ownerOf(_nftId) == msg.sender, \"You don't own this NFT\");\r\n        require(price > 0, \"Price must be greater than zero\");\r\n        \r\n        nftContract.transferNFTByAdmin(_nftId, msg.sender, address(this));\r\n\r\n        markets[_nftId] = Market({\r\n            nftId: _nftId,\r\n            seller: msg.sender,\r\n            price: price\r\n        });\r\n\r\n        emit MarketCreated(_nftId, msg.sender, price);\r\n    }\r\n\r\n    //  \r\n    function cancelMarket(uint256 _nftId) external nonReentrant {\r\n        Market storage market = markets[_nftId];\r\n        require(nftContract.ownerOf(_nftId) == address(this), \"NFT not in market\");\r\n        require(market.seller == msg.sender, \"You don't own this NFT\");\r\n        require(market.seller != address(0), \"This market does not exist\");\r\n\r\n        nftContract.transferNFTByAdmin(_nftId, address(this), msg.sender);\r\n\r\n        delete markets[_nftId];\r\n\r\n        emit MarketCancelled(_nftId, msg.sender);\r\n    }\r\n\r\n    //  \r\n    function buyMarket(uint256 _nftId) external nonReentrant {\r\n        Market storage market = markets[_nftId];\r\n        require(market.seller != address(0), \"This NFT is not for sale\");\r\n        require(msg.sender != market.seller, \"You can't buy your own NFT\");\r\n\r\n        uint256 price = market.price;\r\n        address seller = market.seller;\r\n\r\n        require(getUserBalance(msg.sender) >= price, \"Insufficient balance\");\r\n\r\n        _adjustBalances(msg.sender, seller, price);\r\n\r\n        nftContract.transferNFTByAdmin(_nftId, address(this), msg.sender);\r\n\r\n        delete markets[_nftId];\r\n\r\n        emit MarketSold(_nftId, seller, msg.sender, price);\r\n    }\r\n\r\n    function getMarketInfo(uint256 _nftId) public view returns (Market memory) {\r\n        Market memory market = markets[_nftId];\r\n        require(market.seller != address(0), \"Sell does not exist for this NFT\");\r\n        return market;\r\n    }\r\n}",
  "sourcePath": "C:\\Users\\SSAFY\\Desktop\\semonemo\\backend\\blockchain-server\\smartcontract\\contracts\\NFTMarket.sol",
  "compiler": {
    "name": "solc",
    "version": "0.8.7+commit.e28d00a7.Emscripten.clang"
  },
  "schemaVersion": "3.4.16",
  "updatedAt": "2024-10-03T07:17:05.398Z",
  "devdoc": {
    "kind": "dev",
    "methods": {
      "owner()": {
        "details": "Returns the address of the current owner."
      },
      "renounceOwnership()": {
        "details": "Leaves the contract without owner. It will not be possible to call `onlyOwner` functions anymore. Can only be called by the current owner. NOTE: Renouncing ownership will leave the contract without an owner, thereby removing any functionality that is only available to the owner."
      },
      "transferOwnership(address)": {
        "details": "Transfers ownership of the contract to a new account (`newOwner`). Can only be called by the current owner."
      }
    },
    "version": 1
  },
  "userdoc": {
    "kind": "user",
    "methods": {},
    "version": 1
  }
}