{
  "contractName": "NFTMarket",
  "abi": [
    {
      "anonymous": false,
      "inputs": [
        {
          "indexed": true,
          "internalType": "uint256",
          "name": "nftId",
          "type": "uint256"
        },
        {
          "indexed": true,
          "internalType": "address",
          "name": "seller",
          "type": "address"
        },
        {
          "indexed": true,
          "internalType": "address",
          "name": "buyer",
          "type": "address"
        },
        {
          "indexed": false,
          "internalType": "uint256",
          "name": "price",
          "type": "uint256"
        }
      ],
      "name": "FrameSold",
      "type": "event"
    },
    {
      "anonymous": false,
      "inputs": [
        {
          "indexed": true,
          "internalType": "address",
          "name": "previousOwner",
          "type": "address"
        },
        {
          "indexed": true,
          "internalType": "address",
          "name": "newOwner",
          "type": "address"
        }
      ],
      "name": "OwnershipTransferred",
      "type": "event"
    },
    {
      "anonymous": false,
      "inputs": [
        {
          "indexed": true,
          "internalType": "uint256",
          "name": "nftId",
          "type": "uint256"
        },
        {
          "indexed": true,
          "internalType": "address",
          "name": "seller",
          "type": "address"
        }
      ],
      "name": "SellCancelled",
      "type": "event"
    },
    {
      "anonymous": false,
      "inputs": [
        {
          "indexed": true,
          "internalType": "uint256",
          "name": "nftId",
          "type": "uint256"
        },
        {
          "indexed": true,
          "internalType": "address",
          "name": "seller",
          "type": "address"
        },
        {
          "indexed": false,
          "internalType": "uint256",
          "name": "price",
          "type": "uint256"
        }
      ],
      "name": "SellCreated",
      "type": "event"
    },
    {
      "inputs": [
        {
          "internalType": "uint256",
          "name": "",
          "type": "uint256"
        }
      ],
      "name": "frames",
      "outputs": [
        {
          "internalType": "uint256",
          "name": "nftId",
          "type": "uint256"
        },
        {
          "internalType": "address",
          "name": "seller",
          "type": "address"
        },
        {
          "internalType": "uint256",
          "name": "price",
          "type": "uint256"
        },
        {
          "internalType": "bool",
          "name": "isFinished",
          "type": "bool"
        }
      ],
      "stateMutability": "view",
      "type": "function"
    },
    {
      "inputs": [],
      "name": "getContractBalance",
      "outputs": [
        {
          "internalType": "uint256",
          "name": "",
          "type": "uint256"
        }
      ],
      "stateMutability": "view",
      "type": "function"
    },
    {
      "inputs": [],
      "name": "getContractOwnedNFTs",
      "outputs": [
        {
          "internalType": "uint256[]",
          "name": "",
          "type": "uint256[]"
        }
      ],
      "stateMutability": "view",
      "type": "function"
    },
    {
      "inputs": [],
      "name": "nftContract",
      "outputs": [
        {
          "internalType": "contract NFTFrame",
          "name": "",
          "type": "address"
        }
      ],
      "stateMutability": "view",
      "type": "function"
    },
    {
      "inputs": [],
      "name": "owner",
      "outputs": [
        {
          "internalType": "address",
          "name": "",
          "type": "address"
        }
      ],
      "stateMutability": "view",
      "type": "function"
    },
    {
      "inputs": [],
      "name": "renounceOwnership",
      "outputs": [],
      "stateMutability": "nonpayable",
      "type": "function"
    },
    {
      "inputs": [],
      "name": "tokenContract",
      "outputs": [
        {
          "internalType": "contract AhoraCoin",
          "name": "",
          "type": "address"
        }
      ],
      "stateMutability": "view",
      "type": "function"
    },
    {
      "inputs": [
        {
          "internalType": "address",
          "name": "newOwner",
          "type": "address"
        }
      ],
      "name": "transferOwnership",
      "outputs": [],
      "stateMutability": "nonpayable",
      "type": "function"
    },
    {
      "inputs": [
        {
          "internalType": "uint256",
          "name": "_nftId",
          "type": "uint256"
        },
        {
          "internalType": "uint256",
          "name": "price",
          "type": "uint256"
        }
      ],
      "name": "createSell",
      "outputs": [],
      "stateMutability": "nonpayable",
      "type": "function"
    },
    {
      "inputs": [
        {
          "internalType": "uint256",
          "name": "_nftId",
          "type": "uint256"
        }
      ],
      "name": "cancelSell",
      "outputs": [],
      "stateMutability": "nonpayable",
      "type": "function"
    },
    {
      "inputs": [
        {
          "internalType": "uint256",
          "name": "_nftId",
          "type": "uint256"
        }
      ],
      "name": "buyFrame",
      "outputs": [],
      "stateMutability": "nonpayable",
      "type": "function"
    },
    {
      "inputs": [
        {
          "internalType": "uint256",
          "name": "_nftId",
          "type": "uint256"
        }
      ],
      "name": "getSellInfo",
      "outputs": [
        {
          "components": [
            {
              "internalType": "uint256",
              "name": "nftId",
              "type": "uint256"
            },
            {
              "internalType": "address",
              "name": "seller",
              "type": "address"
            },
            {
              "internalType": "uint256",
              "name": "price",
              "type": "uint256"
            },
            {
              "internalType": "bool",
              "name": "isFinished",
              "type": "bool"
            }
          ],
          "internalType": "struct NFTMarket.Frame",
          "name": "",
          "type": "tuple"
        }
      ],
      "stateMutability": "view",
      "type": "function"
    }
  ],
  "bytecode": "0x608060405234801561001057600080fd5b5061002d61002261003960201b60201c565b61004160201b60201c565b60018081905550610105565b600033905090565b60008060009054906101000a900473ffffffffffffffffffffffffffffffffffffffff169050816000806101000a81548173ffffffffffffffffffffffffffffffffffffffff021916908373ffffffffffffffffffffffffffffffffffffffff1602179055508173ffffffffffffffffffffffffffffffffffffffff168173ffffffffffffffffffffffffffffffffffffffff167f8be0079c531659141344cd1fd0a4f28419497f9722a3daafe3b4186f6b6457e060405160405180910390a35050565b61225b80620001156000396000f3fe608060405234801561001057600080fd5b50600436106100b45760003560e01c8063a10340bc11610071578063a10340bc14610155578063a4144ed214610188578063d3e6fa19146101a4578063d56d229d146101c2578063e9bc63f7146101e0578063f2fde38b14610210576100b4565b806307c9cd45146100b957806355a373d6146100d55780636f9fb98a146100f3578063715018a6146101115780638da5cb5b1461011b5780639a6644a714610139575b600080fd5b6100d360048036038101906100ce9190611697565b61022c565b005b6100dd6105a9565b6040516100ea9190611afb565b60405180910390f35b6100fb6105cf565b6040516101089190611d0c565b60405180910390f35b610119610681565b005b610123610709565b6040516101309190611a5e565b60405180910390f35b610153600480360381019061014e9190611697565b610732565b005b61016f600480360381019061016a9190611697565b610cf7565b60405161017f9493929190611d87565b60405180910390f35b6101a2600480360381019061019d91906116f1565b610d54565b005b6101ac6110b3565b6040516101b99190611ad9565b60405180910390f35b6101ca61116a565b6040516101d79190611b16565b60405180910390f35b6101fa60048036038101906101f59190611697565b611190565b6040516102079190611cf1565b60405180910390f35b61022a600480360381019061022591906115c7565b6112bc565b005b60026001541415610272576040517f08c379a000000000000000000000000000000000000000000000000000000000815260040161026990611cb1565b60405180910390fd5b600260018190555060006004600083815260200190815260200160002090503073ffffffffffffffffffffffffffffffffffffffff16600260009054906101000a900473ffffffffffffffffffffffffffffffffffffffff1673ffffffffffffffffffffffffffffffffffffffff16636352211e846040518263ffffffff1660e01b81526004016103039190611d0c565b60206040518083038186803b15801561031b57600080fd5b505afa15801561032f573d6000803e3d6000fd5b505050506040513d601f19601f8201168201806040525081019061035391906115f4565b73ffffffffffffffffffffffffffffffffffffffff16146103a9576040517f08c379a00000000000000000000000000000000000000000000000000000000081526004016103a090611c91565b60405180910390fd5b3373ffffffffffffffffffffffffffffffffffffffff168160010160009054906101000a900473ffffffffffffffffffffffffffffffffffffffff1673ffffffffffffffffffffffffffffffffffffffff161461043b576040517f08c379a000000000000000000000000000000000000000000000000000000000815260040161043290611b91565b60405180910390fd5b8060030160009054906101000a900460ff161561048d576040517f08c379a000000000000000000000000000000000000000000000000000000000815260040161048490611c11565b60405180910390fd5b60018160030160006101000a81548160ff021916908315150217905550600260009054906101000a900473ffffffffffffffffffffffffffffffffffffffff1673ffffffffffffffffffffffffffffffffffffffff16639036c05083336040518363ffffffff1660e01b8152600401610507929190611d27565b602060405180830381600087803b15801561052157600080fd5b505af1158015610535573d6000803e3d6000fd5b505050506040513d601f19601f82011682018060405250810190610559919061166a565b503373ffffffffffffffffffffffffffffffffffffffff16827f83cd1f5660a61dd1ba8c7e138c184aa49f5d000c3818d7d3e47678f6ccbe8f9c60405160405180910390a3506001808190555050565b600360009054906101000a900473ffffffffffffffffffffffffffffffffffffffff1681565b6000600360009054906101000a900473ffffffffffffffffffffffffffffffffffffffff1673ffffffffffffffffffffffffffffffffffffffff166370a08231306040518263ffffffff1660e01b815260040161062c9190611a5e565b60206040518083038186803b15801561064457600080fd5b505afa158015610658573d6000803e3d6000fd5b505050506040513d601f19601f8201168201806040525081019061067c91906116c4565b905090565b6106896113b4565b73ffffffffffffffffffffffffffffffffffffffff166106a7610709565b73ffffffffffffffffffffffffffffffffffffffff16146106fd576040517f08c379a00000000000000000000000000000000000000000000000000000000081526004016106f490611bf1565b60405180910390fd5b61070760006113bc565b565b60008060009054906101000a900473ffffffffffffffffffffffffffffffffffffffff16905090565b60026001541415610778576040517f08c379a000000000000000000000000000000000000000000000000000000000815260040161076f90611cb1565b60405180910390fd5b600260018190555060006004600083815260200190815260200160002090508060030160009054906101000a900460ff16156107e9576040517f08c379a00000000000000000000000000000000000000000000000000000000081526004016107e090611bd1565b60405180910390fd5b8060010160009054906101000a900473ffffffffffffffffffffffffffffffffffffffff1673ffffffffffffffffffffffffffffffffffffffff163373ffffffffffffffffffffffffffffffffffffffff16141561087c576040517f08c379a000000000000000000000000000000000000000000000000000000000815260040161087390611c51565b60405180910390fd5b60008160020154905060008260010160009054906101000a900473ffffffffffffffffffffffffffffffffffffffff16905081600360009054906101000a900473ffffffffffffffffffffffffffffffffffffffff1673ffffffffffffffffffffffffffffffffffffffff166370a08231336040518263ffffffff1660e01b815260040161090a9190611a5e565b60206040518083038186803b15801561092257600080fd5b505afa158015610936573d6000803e3d6000fd5b505050506040513d601f19601f8201168201806040525081019061095a91906116c4565b101561099b576040517f08c379a000000000000000000000000000000000000000000000000000000000815260040161099290611c31565b60405180910390fd5b60018360030160006101000a81548160ff021916908315150217905550600360009054906101000a900473ffffffffffffffffffffffffffffffffffffffff1673ffffffffffffffffffffffffffffffffffffffff1663f67ac38c3330856040518463ffffffff1660e01b8152600401610a1793929190611a79565b602060405180830381600087803b158015610a3157600080fd5b505af1158015610a45573d6000803e3d6000fd5b505050506040513d601f19601f82011682018060405250810190610a69919061166a565b610aa8576040517f08c379a0000000000000000000000000000000000000000000000000000000008152600401610a9f90611bb1565b60405180910390fd5b600260009054906101000a900473ffffffffffffffffffffffffffffffffffffffff1673ffffffffffffffffffffffffffffffffffffffff16639036c05085336040518363ffffffff1660e01b8152600401610b05929190611d27565b602060405180830381600087803b158015610b1f57600080fd5b505af1158015610b33573d6000803e3d6000fd5b505050506040513d601f19601f82011682018060405250810190610b57919061166a565b610b96576040517f08c379a0000000000000000000000000000000000000000000000000000000008152600401610b8d90611c71565b60405180910390fd5b600360009054906101000a900473ffffffffffffffffffffffffffffffffffffffff1673ffffffffffffffffffffffffffffffffffffffff16631b33a8db82846040518363ffffffff1660e01b8152600401610bf3929190611ab0565b602060405180830381600087803b158015610c0d57600080fd5b505af1158015610c21573d6000803e3d6000fd5b505050506040513d601f19601f82011682018060405250810190610c45919061166a565b610c84576040517f08c379a0000000000000000000000000000000000000000000000000000000008152600401610c7b90611cd1565b60405180910390fd5b3373ffffffffffffffffffffffffffffffffffffffff168173ffffffffffffffffffffffffffffffffffffffff16857f941afdcf08abb4015f6e843f6084fa42396d6720a4d250813184c8d875085fb285604051610ce29190611d0c565b60405180910390a45050506001808190555050565b60046020528060005260406000206000915090508060000154908060010160009054906101000a900473ffffffffffffffffffffffffffffffffffffffff16908060020154908060030160009054906101000a900460ff16905084565b60026001541415610d9a576040517f08c379a0000000000000000000000000000000000000000000000000000000008152600401610d9190611cb1565b60405180910390fd5b60026001819055503373ffffffffffffffffffffffffffffffffffffffff16600260009054906101000a900473ffffffffffffffffffffffffffffffffffffffff1673ffffffffffffffffffffffffffffffffffffffff16636352211e846040518263ffffffff1660e01b8152600401610e149190611d0c565b60206040518083038186803b158015610e2c57600080fd5b505afa158015610e40573d6000803e3d6000fd5b505050506040513d601f19601f82011682018060405250810190610e6491906115f4565b73ffffffffffffffffffffffffffffffffffffffff1614610eba576040517f08c379a0000000000000000000000000000000000000000000000000000000008152600401610eb190611b91565b60405180910390fd5b60008111610efd576040517f08c379a0000000000000000000000000000000000000000000000000000000008152600401610ef490611b51565b60405180910390fd5b600260009054906101000a900473ffffffffffffffffffffffffffffffffffffffff1673ffffffffffffffffffffffffffffffffffffffff16634f89cea68333306040518463ffffffff1660e01b8152600401610f5c93929190611d50565b600060405180830381600087803b158015610f7657600080fd5b505af1158015610f8a573d6000803e3d6000fd5b5050505060405180608001604052808381526020013373ffffffffffffffffffffffffffffffffffffffff16815260200182815260200160001515815250600460008481526020019081526020016000206000820151816000015560208201518160010160006101000a81548173ffffffffffffffffffffffffffffffffffffffff021916908373ffffffffffffffffffffffffffffffffffffffff1602179055506040820151816002015560608201518160030160006101000a81548160ff0219169083151502179055509050503373ffffffffffffffffffffffffffffffffffffffff16827ffad9d47b108f1b2b6057bbb319d748fe40813edb424d8dd7410f458db370f503836040516110a09190611d0c565b60405180910390a3600180819055505050565b6060600260009054906101000a900473ffffffffffffffffffffffffffffffffffffffff1673ffffffffffffffffffffffffffffffffffffffff1663e6b1fa2a306040518263ffffffff1660e01b81526004016111109190611a5e565b60006040518083038186803b15801561112857600080fd5b505afa15801561113c573d6000803e3d6000fd5b505050506040513d6000823e3d601f19601f820116820180604052508101906111659190611621565b905090565b600260009054906101000a900473ffffffffffffffffffffffffffffffffffffffff1681565b611198611480565b600060046000848152602001908152602001600020604051806080016040529081600082015481526020016001820160009054906101000a900473ffffffffffffffffffffffffffffffffffffffff1673ffffffffffffffffffffffffffffffffffffffff1673ffffffffffffffffffffffffffffffffffffffff168152602001600282015481526020016003820160009054906101000a900460ff1615151515815250509050600073ffffffffffffffffffffffffffffffffffffffff16816020015173ffffffffffffffffffffffffffffffffffffffff1614156112b3576040517f08c379a00000000000000000000000000000000000000000000000000000000081526004016112aa90611b31565b60405180910390fd5b80915050919050565b6112c46113b4565b73ffffffffffffffffffffffffffffffffffffffff166112e2610709565b73ffffffffffffffffffffffffffffffffffffffff1614611338576040517f08c379a000000000000000000000000000000000000000000000000000000000815260040161132f90611bf1565b60405180910390fd5b600073ffffffffffffffffffffffffffffffffffffffff168173ffffffffffffffffffffffffffffffffffffffff1614156113a8576040517f08c379a000000000000000000000000000000000000000000000000000000000815260040161139f90611b71565b60405180910390fd5b6113b1816113bc565b50565b600033905090565b60008060009054906101000a900473ffffffffffffffffffffffffffffffffffffffff169050816000806101000a81548173ffffffffffffffffffffffffffffffffffffffff021916908373ffffffffffffffffffffffffffffffffffffffff1602179055508173ffffffffffffffffffffffffffffffffffffffff168173ffffffffffffffffffffffffffffffffffffffff167f8be0079c531659141344cd1fd0a4f28419497f9722a3daafe3b4186f6b6457e060405160405180910390a35050565b604051806080016040528060008152602001600073ffffffffffffffffffffffffffffffffffffffff168152602001600081526020016000151581525090565b60006114d36114ce84611df1565b611dcc565b905080838252602082019050828560208602820111156114f6576114f5611f5c565b5b60005b85811015611526578161150c88826115b2565b8452602084019350602083019250506001810190506114f9565b5050509392505050565b60008135905061153f816121e0565b92915050565b600081519050611554816121e0565b92915050565b600082601f83011261156f5761156e611f57565b5b815161157f8482602086016114c0565b91505092915050565b600081519050611597816121f7565b92915050565b6000813590506115ac8161220e565b92915050565b6000815190506115c18161220e565b92915050565b6000602082840312156115dd576115dc611f66565b5b60006115eb84828501611530565b91505092915050565b60006020828403121561160a57611609611f66565b5b600061161884828501611545565b91505092915050565b60006020828403121561163757611636611f66565b5b600082015167ffffffffffffffff81111561165557611654611f61565b5b6116618482850161155a565b91505092915050565b6000602082840312156116805761167f611f66565b5b600061168e84828501611588565b91505092915050565b6000602082840312156116ad576116ac611f66565b5b60006116bb8482850161159d565b91505092915050565b6000602082840312156116da576116d9611f66565b5b60006116e8848285016115b2565b91505092915050565b6000806040838503121561170857611707611f66565b5b60006117168582860161159d565b92505060206117278582860161159d565b9150509250929050565b600061173d8383611a40565b60208301905092915050565b61175281611e67565b82525050565b61176181611e67565b82525050565b600061177282611e2d565b61177c8185611e45565b935061178783611e1d565b8060005b838110156117b857815161179f8882611731565b97506117aa83611e38565b92505060018101905061178b565b5085935050505092915050565b6117ce81611e79565b82525050565b6117dd81611e79565b82525050565b6117ec81611eaf565b82525050565b6117fb81611ec1565b82525050565b600061180e602083611e56565b915061181982611f7c565b602082019050919050565b6000611831601f83611e56565b915061183c82611fa5565b602082019050919050565b6000611854602683611e56565b915061185f82611fce565b604082019050919050565b6000611877601683611e56565b91506118828261201d565b602082019050919050565b600061189a601583611e56565b91506118a582612046565b602082019050919050565b60006118bd601d83611e56565b91506118c88261206f565b602082019050919050565b60006118e0602083611e56565b91506118eb82612098565b602082019050919050565b6000611903601d83611e56565b915061190e826120c1565b602082019050919050565b6000611926601a83611e56565b9150611931826120ea565b602082019050919050565b6000611949601a83611e56565b915061195482612113565b602082019050919050565b600061196c601383611e56565b91506119778261213c565b602082019050919050565b600061198f601183611e56565b915061199a82612165565b602082019050919050565b60006119b2601f83611e56565b91506119bd8261218e565b602082019050919050565b60006119d5601f83611e56565b91506119e0826121b7565b602082019050919050565b608082016000820151611a016000850182611a40565b506020820151611a146020850182611749565b506040820151611a276040850182611a40565b506060820151611a3a60608501826117c5565b50505050565b611a4981611ea5565b82525050565b611a5881611ea5565b82525050565b6000602082019050611a736000830184611758565b92915050565b6000606082019050611a8e6000830186611758565b611a9b6020830185611758565b611aa86040830184611a4f565b949350505050565b6000604082019050611ac56000830185611758565b611ad26020830184611a4f565b9392505050565b60006020820190508181036000830152611af38184611767565b905092915050565b6000602082019050611b1060008301846117e3565b92915050565b6000602082019050611b2b60008301846117f2565b92915050565b60006020820190508181036000830152611b4a81611801565b9050919050565b60006020820190508181036000830152611b6a81611824565b9050919050565b60006020820190508181036000830152611b8a81611847565b9050919050565b60006020820190508181036000830152611baa8161186a565b9050919050565b60006020820190508181036000830152611bca8161188d565b9050919050565b60006020820190508181036000830152611bea816118b0565b9050919050565b60006020820190508181036000830152611c0a816118d3565b9050919050565b60006020820190508181036000830152611c2a816118f6565b9050919050565b60006020820190508181036000830152611c4a81611919565b9050919050565b60006020820190508181036000830152611c6a8161193c565b9050919050565b60006020820190508181036000830152611c8a8161195f565b9050919050565b60006020820190508181036000830152611caa81611982565b9050919050565b60006020820190508181036000830152611cca816119a5565b9050919050565b60006020820190508181036000830152611cea816119c8565b9050919050565b6000608082019050611d0660008301846119eb565b92915050565b6000602082019050611d216000830184611a4f565b92915050565b6000604082019050611d3c6000830185611a4f565b611d496020830184611758565b9392505050565b6000606082019050611d656000830186611a4f565b611d726020830185611758565b611d7f6040830184611758565b949350505050565b6000608082019050611d9c6000830187611a4f565b611da96020830186611758565b611db66040830185611a4f565b611dc360608301846117d4565b95945050505050565b6000611dd6611de7565b9050611de28282611ef7565b919050565b6000604051905090565b600067ffffffffffffffff821115611e0c57611e0b611f28565b5b602082029050602081019050919050565b6000819050602082019050919050565b600081519050919050565b6000602082019050919050565b600082825260208201905092915050565b600082825260208201905092915050565b6000611e7282611e85565b9050919050565b60008115159050919050565b600073ffffffffffffffffffffffffffffffffffffffff82169050919050565b6000819050919050565b6000611eba82611ed3565b9050919050565b6000611ecc82611ed3565b9050919050565b6000611ede82611ee5565b9050919050565b6000611ef082611e85565b9050919050565b611f0082611f6b565b810181811067ffffffffffffffff82111715611f1f57611f1e611f28565b5b80604052505050565b7f4e487b7100000000000000000000000000000000000000000000000000000000600052604160045260246000fd5b600080fd5b600080fd5b600080fd5b600080fd5b6000601f19601f8301169050919050565b7f53656c6c20646f6573206e6f7420657869737420666f722074686973204e4654600082015250565b7f5072696365206d7573742062652067726561746572207468616e207a65726f00600082015250565b7f4f776e61626c653a206e6577206f776e657220697320746865207a65726f206160008201527f6464726573730000000000000000000000000000000000000000000000000000602082015250565b7f596f7520646f6e2774206f776e2074686973204e465400000000000000000000600082015250565b7f546f6b656e207472616e73666572206661696c65640000000000000000000000600082015250565b7f546869732073616c6520697320616c72656164792066696e6973686564000000600082015250565b7f4f776e61626c653a2063616c6c6572206973206e6f7420746865206f776e6572600082015250565b7f546869732053656c6c20697320616c72656164792066696e6973686564000000600082015250565b7f496e73756666696369656e7420746f6b656e2062616c616e6365000000000000600082015250565b7f596f752063616e27742062757920796f7572206f776e204e4654000000000000600082015250565b7f4e4654207472616e73666572206661696c656400000000000000000000000000600082015250565b7f4e4654206e6f7420696e206d61726b6574000000000000000000000000000000600082015250565b7f5265656e7472616e637947756172643a207265656e7472616e742063616c6c00600082015250565b7f546f6b656e207472616e7366657220746f2073656c6c6572206661696c656400600082015250565b6121e981611e67565b81146121f457600080fd5b50565b61220081611e79565b811461220b57600080fd5b50565b61221781611ea5565b811461222257600080fd5b5056fea2646970667358221220a632130746859489bec0e8275c1a090e4319d3061b745f4c35eeebb7a8ebd03964736f6c63430008070033",
  "immutableReferences": {},
  "source": "// SPDX-License-Identifier: MIT\r\npragma solidity ^0.8.7;\r\n\r\nimport \"./Base.sol\";\r\n\r\ncontract NFTMarket is NFTBase {\r\n    struct Frame {\r\n        uint256 nftId;\r\n        address seller;\r\n        uint256 price;\r\n        bool isFinished;\r\n    }\r\n\r\n    mapping(uint256 => Frame) public frames;\r\n\r\n    event SellCreated(uint256 indexed nftId, address indexed seller, uint256 price);\r\n    event SellCancelled(uint256 indexed nftId, address indexed seller);\r\n    event FrameSold(uint256 indexed nftId, address indexed seller, address indexed buyer, uint256 price);\r\n\r\n    function createSell(uint256 _nftId, uint256 price) external nonReentrant {\r\n        require(nftContract.ownerOf(_nftId) == msg.sender, \"You don't own this NFT\");\r\n        require(price > 0, \"Price must be greater than zero\");\r\n        \r\n        nftContract.transferNFTUserToSystem(_nftId, msg.sender, address(this));\r\n\r\n        frames[_nftId] = Frame({\r\n            nftId: _nftId,\r\n            seller: msg.sender,\r\n            price: price,\r\n            isFinished: false\r\n        });\r\n\r\n        emit SellCreated(_nftId, msg.sender, price);\r\n    }\r\n\r\n    function cancelSell(uint256 _nftId) external nonReentrant {\r\n        Frame storage frame = frames[_nftId];\r\n        require(nftContract.ownerOf(_nftId) == address(this), \"NFT not in market\");\r\n        require(frame.seller == msg.sender, \"You don't own this NFT\");\r\n        require(!frame.isFinished, \"This Sell is already finished\");\r\n        \r\n        frame.isFinished = true;\r\n\r\n        nftContract.transferNFT(_nftId, msg.sender);\r\n\r\n        emit SellCancelled(_nftId, msg.sender);\r\n    }\r\n\r\n    function buyFrame(uint256 _nftId) external nonReentrant {\r\n        Frame storage frame = frames[_nftId];\r\n        require(!frame.isFinished, \"This sale is already finished\");\r\n        require(msg.sender != frame.seller, \"You can't buy your own NFT\");\r\n\r\n        uint256 price = frame.price;\r\n        address seller = frame.seller;\r\n\r\n        require(tokenContract.balanceOf(msg.sender) >= price, \"Insufficient token balance\");\r\n\r\n        frame.isFinished = true;\r\n\r\n        require(tokenContract.transferUserToSystem(msg.sender, address(this), price), \"Token transfer failed\");\r\n        require(nftContract.transferNFT(_nftId, msg.sender), \"NFT transfer failed\");\r\n        require(tokenContract.transferSenderToUser(seller, price), \"Token transfer to seller failed\");\r\n\r\n        emit FrameSold(_nftId, seller, msg.sender, price);\r\n    }\r\n\r\n    function getSellInfo(uint256 _nftId) public view returns (Frame memory) {\r\n        Frame memory frame = frames[_nftId];\r\n        require(frame.seller != address(0), \"Sell does not exist for this NFT\");\r\n        return frame;\r\n    }\r\n}",
  "sourcePath": "C:\\Users\\SSAFY\\Desktop\\semonemo\\backend\\blockchain-server\\smartcontract\\contracts\\Market.sol",
  "compiler": {
    "name": "solc",
    "version": "0.8.7+commit.e28d00a7.Emscripten.clang"
  },
  "schemaVersion": "3.4.16",
  "updatedAt": "2024-09-14T16:49:14.343Z",
  "devdoc": {
    "kind": "dev",
    "methods": {
      "owner()": {
        "details": "Returns the address of the current owner."
      },
      "renounceOwnership()": {
        "details": "Leaves the contract without owner. It will not be possible to call `onlyOwner` functions anymore. Can only be called by the current owner. NOTE: Renouncing ownership will leave the contract without an owner, thereby removing any functionality that is only available to the owner."
      },
      "transferOwnership(address)": {
        "details": "Transfers ownership of the contract to a new account (`newOwner`). Can only be called by the current owner."
      }
    },
    "version": 1
  },
  "userdoc": {
    "kind": "user",
    "methods": {},
    "version": 1
  }
}