{
  "contractName": "NFTMarket",
  "abi": [
    {
      "inputs": [
        {
          "internalType": "address",
          "name": "_nftContractAddress",
          "type": "address"
        },
        {
          "internalType": "address",
          "name": "_tokenContractAddress",
          "type": "address"
        }
      ],
      "stateMutability": "nonpayable",
      "type": "constructor"
    },
    {
      "anonymous": false,
      "inputs": [
        {
          "indexed": true,
          "internalType": "uint256",
          "name": "nftId",
          "type": "uint256"
        },
        {
          "indexed": true,
          "internalType": "address",
          "name": "seller",
          "type": "address"
        },
        {
          "indexed": true,
          "internalType": "address",
          "name": "buyer",
          "type": "address"
        },
        {
          "indexed": false,
          "internalType": "uint256",
          "name": "price",
          "type": "uint256"
        }
      ],
      "name": "FrameSold",
      "type": "event"
    },
    {
      "anonymous": false,
      "inputs": [
        {
          "indexed": true,
          "internalType": "address",
          "name": "previousOwner",
          "type": "address"
        },
        {
          "indexed": true,
          "internalType": "address",
          "name": "newOwner",
          "type": "address"
        }
      ],
      "name": "OwnershipTransferred",
      "type": "event"
    },
    {
      "anonymous": false,
      "inputs": [
        {
          "indexed": true,
          "internalType": "uint256",
          "name": "nftId",
          "type": "uint256"
        },
        {
          "indexed": true,
          "internalType": "address",
          "name": "seller",
          "type": "address"
        }
      ],
      "name": "SellCancelled",
      "type": "event"
    },
    {
      "anonymous": false,
      "inputs": [
        {
          "indexed": true,
          "internalType": "uint256",
          "name": "nftId",
          "type": "uint256"
        },
        {
          "indexed": true,
          "internalType": "address",
          "name": "seller",
          "type": "address"
        },
        {
          "indexed": false,
          "internalType": "uint256",
          "name": "price",
          "type": "uint256"
        }
      ],
      "name": "SellCreated",
      "type": "event"
    },
    {
      "inputs": [
        {
          "internalType": "uint256",
          "name": "",
          "type": "uint256"
        }
      ],
      "name": "frames",
      "outputs": [
        {
          "internalType": "uint256",
          "name": "nftId",
          "type": "uint256"
        },
        {
          "internalType": "address",
          "name": "seller",
          "type": "address"
        },
        {
          "internalType": "uint256",
          "name": "price",
          "type": "uint256"
        },
        {
          "internalType": "bool",
          "name": "isFinished",
          "type": "bool"
        }
      ],
      "stateMutability": "view",
      "type": "function",
      "constant": true
    },
    {
      "inputs": [],
      "name": "nftContract",
      "outputs": [
        {
          "internalType": "contract NFTFrame",
          "name": "",
          "type": "address"
        }
      ],
      "stateMutability": "view",
      "type": "function",
      "constant": true
    },
    {
      "inputs": [],
      "name": "owner",
      "outputs": [
        {
          "internalType": "address",
          "name": "",
          "type": "address"
        }
      ],
      "stateMutability": "view",
      "type": "function",
      "constant": true
    },
    {
      "inputs": [],
      "name": "renounceOwnership",
      "outputs": [],
      "stateMutability": "nonpayable",
      "type": "function"
    },
    {
      "inputs": [],
      "name": "tokenContract",
      "outputs": [
        {
          "internalType": "contract AhoraCoin",
          "name": "",
          "type": "address"
        }
      ],
      "stateMutability": "view",
      "type": "function",
      "constant": true
    },
    {
      "inputs": [
        {
          "internalType": "address",
          "name": "newOwner",
          "type": "address"
        }
      ],
      "name": "transferOwnership",
      "outputs": [],
      "stateMutability": "nonpayable",
      "type": "function"
    },
    {
      "inputs": [
        {
          "internalType": "uint256",
          "name": "_nftId",
          "type": "uint256"
        },
        {
          "internalType": "uint256",
          "name": "price",
          "type": "uint256"
        }
      ],
      "name": "createSell",
      "outputs": [],
      "stateMutability": "nonpayable",
      "type": "function"
    },
    {
      "inputs": [
        {
          "internalType": "uint256",
          "name": "_nftId",
          "type": "uint256"
        }
      ],
      "name": "cancleSell",
      "outputs": [],
      "stateMutability": "nonpayable",
      "type": "function"
    },
    {
      "inputs": [
        {
          "internalType": "uint256",
          "name": "_nftId",
          "type": "uint256"
        }
      ],
      "name": "buyFrame",
      "outputs": [],
      "stateMutability": "nonpayable",
      "type": "function"
    },
    {
      "inputs": [
        {
          "internalType": "uint256",
          "name": "_nftId",
          "type": "uint256"
        }
      ],
      "name": "getSellInfo",
      "outputs": [
        {
          "components": [
            {
              "internalType": "uint256",
              "name": "nftId",
              "type": "uint256"
            },
            {
              "internalType": "address",
              "name": "seller",
              "type": "address"
            },
            {
              "internalType": "uint256",
              "name": "price",
              "type": "uint256"
            },
            {
              "internalType": "bool",
              "name": "isFinished",
              "type": "bool"
            }
          ],
          "internalType": "struct NFTMarket.Frame",
          "name": "",
          "type": "tuple"
        }
      ],
      "stateMutability": "view",
      "type": "function",
      "constant": true
    }
  ],
  "bytecode": "0x60806040523480156200001157600080fd5b5060405162001fa638038062001fa68339818101604052810190620000379190620001cb565b620000576200004b620000e860201b60201c565b620000f060201b60201c565b6001808190555081600260006101000a81548173ffffffffffffffffffffffffffffffffffffffff021916908373ffffffffffffffffffffffffffffffffffffffff16021790555080600360006101000a81548173ffffffffffffffffffffffffffffffffffffffff021916908373ffffffffffffffffffffffffffffffffffffffff160217905550505062000265565b600033905090565b60008060009054906101000a900473ffffffffffffffffffffffffffffffffffffffff169050816000806101000a81548173ffffffffffffffffffffffffffffffffffffffff021916908373ffffffffffffffffffffffffffffffffffffffff1602179055508173ffffffffffffffffffffffffffffffffffffffff168173ffffffffffffffffffffffffffffffffffffffff167f8be0079c531659141344cd1fd0a4f28419497f9722a3daafe3b4186f6b6457e060405160405180910390a35050565b600081519050620001c5816200024b565b92915050565b60008060408385031215620001e557620001e462000246565b5b6000620001f585828601620001b4565b92505060206200020885828601620001b4565b9150509250929050565b60006200021f8262000226565b9050919050565b600073ffffffffffffffffffffffffffffffffffffffff82169050919050565b600080fd5b620002568162000212565b81146200026257600080fd5b50565b611d3180620002756000396000f3fe608060405234801561001057600080fd5b506004361061009e5760003560e01c8063a10340bc11610066578063a10340bc14610121578063a4144ed214610154578063d56d229d14610170578063e9bc63f71461018e578063f2fde38b146101be5761009e565b8063182d7665146100a357806355a373d6146100bf578063715018a6146100dd5780638da5cb5b146100e75780639a6644a714610105575b600080fd5b6100bd60048036038101906100b8919061137b565b6101da565b005b6100c7610557565b6040516100d49190611724565b60405180910390f35b6100e561057d565b005b6100ef610605565b6040516100fc91906116a9565b60405180910390f35b61011f600480360381019061011a919061137b565b61062e565b005b61013b6004803603810190610136919061137b565b610bf3565b60405161014b9493929190611990565b60405180910390f35b61016e600480360381019061016991906113d5565b610c50565b005b610178610faf565b604051610185919061173f565b60405180910390f35b6101a860048036038101906101a3919061137b565b610fd5565b6040516101b591906118fa565b60405180910390f35b6101d860048036038101906101d391906112f4565b611087565b005b60026001541415610220576040517f08c379a0000000000000000000000000000000000000000000000000000000008152600401610217906118ba565b60405180910390fd5b600260018190555060006004600083815260200190815260200160002090503073ffffffffffffffffffffffffffffffffffffffff16600260009054906101000a900473ffffffffffffffffffffffffffffffffffffffff1673ffffffffffffffffffffffffffffffffffffffff16636352211e846040518263ffffffff1660e01b81526004016102b19190611915565b60206040518083038186803b1580156102c957600080fd5b505afa1580156102dd573d6000803e3d6000fd5b505050506040513d601f19601f820116820180604052508101906103019190611321565b73ffffffffffffffffffffffffffffffffffffffff1614610357576040517f08c379a000000000000000000000000000000000000000000000000000000000815260040161034e9061189a565b60405180910390fd5b3373ffffffffffffffffffffffffffffffffffffffff168160010160009054906101000a900473ffffffffffffffffffffffffffffffffffffffff1673ffffffffffffffffffffffffffffffffffffffff16146103e9576040517f08c379a00000000000000000000000000000000000000000000000000000000081526004016103e09061179a565b60405180910390fd5b8060030160009054906101000a900460ff161561043b576040517f08c379a00000000000000000000000000000000000000000000000000000000081526004016104329061181a565b60405180910390fd5b60018160030160006101000a81548160ff021916908315150217905550600260009054906101000a900473ffffffffffffffffffffffffffffffffffffffff1673ffffffffffffffffffffffffffffffffffffffff16639036c05083336040518363ffffffff1660e01b81526004016104b5929190611930565b602060405180830381600087803b1580156104cf57600080fd5b505af11580156104e3573d6000803e3d6000fd5b505050506040513d601f19601f82011682018060405250810190610507919061134e565b503373ffffffffffffffffffffffffffffffffffffffff16827f83cd1f5660a61dd1ba8c7e138c184aa49f5d000c3818d7d3e47678f6ccbe8f9c60405160405180910390a3506001808190555050565b600360009054906101000a900473ffffffffffffffffffffffffffffffffffffffff1681565b61058561117f565b73ffffffffffffffffffffffffffffffffffffffff166105a3610605565b73ffffffffffffffffffffffffffffffffffffffff16146105f9576040517f08c379a00000000000000000000000000000000000000000000000000000000081526004016105f0906117fa565b60405180910390fd5b6106036000611187565b565b60008060009054906101000a900473ffffffffffffffffffffffffffffffffffffffff16905090565b60026001541415610674576040517f08c379a000000000000000000000000000000000000000000000000000000000815260040161066b906118ba565b60405180910390fd5b600260018190555060006004600083815260200190815260200160002090508060030160009054906101000a900460ff16156106e5576040517f08c379a00000000000000000000000000000000000000000000000000000000081526004016106dc906117da565b60405180910390fd5b8060010160009054906101000a900473ffffffffffffffffffffffffffffffffffffffff1673ffffffffffffffffffffffffffffffffffffffff163373ffffffffffffffffffffffffffffffffffffffff161415610778576040517f08c379a000000000000000000000000000000000000000000000000000000000815260040161076f9061185a565b60405180910390fd5b60008160020154905060008260010160009054906101000a900473ffffffffffffffffffffffffffffffffffffffff16905081600360009054906101000a900473ffffffffffffffffffffffffffffffffffffffff1673ffffffffffffffffffffffffffffffffffffffff166370a08231336040518263ffffffff1660e01b815260040161080691906116a9565b60206040518083038186803b15801561081e57600080fd5b505afa158015610832573d6000803e3d6000fd5b505050506040513d601f19601f8201168201806040525081019061085691906113a8565b1015610897576040517f08c379a000000000000000000000000000000000000000000000000000000000815260040161088e9061183a565b60405180910390fd5b60018360030160006101000a81548160ff021916908315150217905550600360009054906101000a900473ffffffffffffffffffffffffffffffffffffffff1673ffffffffffffffffffffffffffffffffffffffff1663f57886e03330856040518463ffffffff1660e01b8152600401610913939291906116c4565b602060405180830381600087803b15801561092d57600080fd5b505af1158015610941573d6000803e3d6000fd5b505050506040513d601f19601f82011682018060405250810190610965919061134e565b6109a4576040517f08c379a000000000000000000000000000000000000000000000000000000000815260040161099b906117ba565b60405180910390fd5b600260009054906101000a900473ffffffffffffffffffffffffffffffffffffffff1673ffffffffffffffffffffffffffffffffffffffff16639036c05085336040518363ffffffff1660e01b8152600401610a01929190611930565b602060405180830381600087803b158015610a1b57600080fd5b505af1158015610a2f573d6000803e3d6000fd5b505050506040513d601f19601f82011682018060405250810190610a53919061134e565b610a92576040517f08c379a0000000000000000000000000000000000000000000000000000000008152600401610a899061187a565b60405180910390fd5b600360009054906101000a900473ffffffffffffffffffffffffffffffffffffffff1673ffffffffffffffffffffffffffffffffffffffff16631b33a8db82846040518363ffffffff1660e01b8152600401610aef9291906116fb565b602060405180830381600087803b158015610b0957600080fd5b505af1158015610b1d573d6000803e3d6000fd5b505050506040513d601f19601f82011682018060405250810190610b41919061134e565b610b80576040517f08c379a0000000000000000000000000000000000000000000000000000000008152600401610b77906118da565b60405180910390fd5b3373ffffffffffffffffffffffffffffffffffffffff168173ffffffffffffffffffffffffffffffffffffffff16857f941afdcf08abb4015f6e843f6084fa42396d6720a4d250813184c8d875085fb285604051610bde9190611915565b60405180910390a45050506001808190555050565b60046020528060005260406000206000915090508060000154908060010160009054906101000a900473ffffffffffffffffffffffffffffffffffffffff16908060020154908060030160009054906101000a900460ff16905084565b60026001541415610c96576040517f08c379a0000000000000000000000000000000000000000000000000000000008152600401610c8d906118ba565b60405180910390fd5b60026001819055503373ffffffffffffffffffffffffffffffffffffffff16600260009054906101000a900473ffffffffffffffffffffffffffffffffffffffff1673ffffffffffffffffffffffffffffffffffffffff16636352211e846040518263ffffffff1660e01b8152600401610d109190611915565b60206040518083038186803b158015610d2857600080fd5b505afa158015610d3c573d6000803e3d6000fd5b505050506040513d601f19601f82011682018060405250810190610d609190611321565b73ffffffffffffffffffffffffffffffffffffffff1614610db6576040517f08c379a0000000000000000000000000000000000000000000000000000000008152600401610dad9061179a565b60405180910390fd5b60008111610df9576040517f08c379a0000000000000000000000000000000000000000000000000000000008152600401610df09061175a565b60405180910390fd5b600260009054906101000a900473ffffffffffffffffffffffffffffffffffffffff1673ffffffffffffffffffffffffffffffffffffffff1663a70885208333306040518463ffffffff1660e01b8152600401610e5893929190611959565b600060405180830381600087803b158015610e7257600080fd5b505af1158015610e86573d6000803e3d6000fd5b5050505060405180608001604052808381526020013373ffffffffffffffffffffffffffffffffffffffff16815260200182815260200160001515815250600460008481526020019081526020016000206000820151816000015560208201518160010160006101000a81548173ffffffffffffffffffffffffffffffffffffffff021916908373ffffffffffffffffffffffffffffffffffffffff1602179055506040820151816002015560608201518160030160006101000a81548160ff0219169083151502179055509050503373ffffffffffffffffffffffffffffffffffffffff16827ffad9d47b108f1b2b6057bbb319d748fe40813edb424d8dd7410f458db370f50383604051610f9c9190611915565b60405180910390a3600180819055505050565b600260009054906101000a900473ffffffffffffffffffffffffffffffffffffffff1681565b610fdd61124b565b60046000838152602001908152602001600020604051806080016040529081600082015481526020016001820160009054906101000a900473ffffffffffffffffffffffffffffffffffffffff1673ffffffffffffffffffffffffffffffffffffffff1673ffffffffffffffffffffffffffffffffffffffff168152602001600282015481526020016003820160009054906101000a900460ff1615151515815250509050919050565b61108f61117f565b73ffffffffffffffffffffffffffffffffffffffff166110ad610605565b73ffffffffffffffffffffffffffffffffffffffff1614611103576040517f08c379a00000000000000000000000000000000000000000000000000000000081526004016110fa906117fa565b60405180910390fd5b600073ffffffffffffffffffffffffffffffffffffffff168173ffffffffffffffffffffffffffffffffffffffff161415611173576040517f08c379a000000000000000000000000000000000000000000000000000000000815260040161116a9061177a565b60405180910390fd5b61117c81611187565b50565b600033905090565b60008060009054906101000a900473ffffffffffffffffffffffffffffffffffffffff169050816000806101000a81548173ffffffffffffffffffffffffffffffffffffffff021916908373ffffffffffffffffffffffffffffffffffffffff1602179055508173ffffffffffffffffffffffffffffffffffffffff168173ffffffffffffffffffffffffffffffffffffffff167f8be0079c531659141344cd1fd0a4f28419497f9722a3daafe3b4186f6b6457e060405160405180910390a35050565b604051806080016040528060008152602001600073ffffffffffffffffffffffffffffffffffffffff168152602001600081526020016000151581525090565b60008135905061129a81611cb6565b92915050565b6000815190506112af81611cb6565b92915050565b6000815190506112c481611ccd565b92915050565b6000813590506112d981611ce4565b92915050565b6000815190506112ee81611ce4565b92915050565b60006020828403121561130a57611309611a76565b5b60006113188482850161128b565b91505092915050565b60006020828403121561133757611336611a76565b5b6000611345848285016112a0565b91505092915050565b60006020828403121561136457611363611a76565b5b6000611372848285016112b5565b91505092915050565b60006020828403121561139157611390611a76565b5b600061139f848285016112ca565b91505092915050565b6000602082840312156113be576113bd611a76565b5b60006113cc848285016112df565b91505092915050565b600080604083850312156113ec576113eb611a76565b5b60006113fa858286016112ca565b925050602061140b858286016112ca565b9150509250929050565b61141e816119e6565b82525050565b61142d816119e6565b82525050565b61143c816119f8565b82525050565b61144b816119f8565b82525050565b61145a81611a2e565b82525050565b61146981611a40565b82525050565b600061147c601f836119d5565b915061148782611a7b565b602082019050919050565b600061149f6026836119d5565b91506114aa82611aa4565b604082019050919050565b60006114c26016836119d5565b91506114cd82611af3565b602082019050919050565b60006114e56015836119d5565b91506114f082611b1c565b602082019050919050565b6000611508601d836119d5565b915061151382611b45565b602082019050919050565b600061152b6020836119d5565b915061153682611b6e565b602082019050919050565b600061154e601d836119d5565b915061155982611b97565b602082019050919050565b6000611571601a836119d5565b915061157c82611bc0565b602082019050919050565b6000611594601a836119d5565b915061159f82611be9565b602082019050919050565b60006115b76013836119d5565b91506115c282611c12565b602082019050919050565b60006115da6011836119d5565b91506115e582611c3b565b602082019050919050565b60006115fd601f836119d5565b915061160882611c64565b602082019050919050565b6000611620601f836119d5565b915061162b82611c8d565b602082019050919050565b60808201600082015161164c600085018261168b565b50602082015161165f6020850182611415565b506040820151611672604085018261168b565b5060608201516116856060850182611433565b50505050565b61169481611a24565b82525050565b6116a381611a24565b82525050565b60006020820190506116be6000830184611424565b92915050565b60006060820190506116d96000830186611424565b6116e66020830185611424565b6116f3604083018461169a565b949350505050565b60006040820190506117106000830185611424565b61171d602083018461169a565b9392505050565b60006020820190506117396000830184611451565b92915050565b60006020820190506117546000830184611460565b92915050565b600060208201905081810360008301526117738161146f565b9050919050565b6000602082019050818103600083015261179381611492565b9050919050565b600060208201905081810360008301526117b3816114b5565b9050919050565b600060208201905081810360008301526117d3816114d8565b9050919050565b600060208201905081810360008301526117f3816114fb565b9050919050565b600060208201905081810360008301526118138161151e565b9050919050565b6000602082019050818103600083015261183381611541565b9050919050565b6000602082019050818103600083015261185381611564565b9050919050565b6000602082019050818103600083015261187381611587565b9050919050565b60006020820190508181036000830152611893816115aa565b9050919050565b600060208201905081810360008301526118b3816115cd565b9050919050565b600060208201905081810360008301526118d3816115f0565b9050919050565b600060208201905081810360008301526118f381611613565b9050919050565b600060808201905061190f6000830184611636565b92915050565b600060208201905061192a600083018461169a565b92915050565b6000604082019050611945600083018561169a565b6119526020830184611424565b9392505050565b600060608201905061196e600083018661169a565b61197b6020830185611424565b6119886040830184611424565b949350505050565b60006080820190506119a5600083018761169a565b6119b26020830186611424565b6119bf604083018561169a565b6119cc6060830184611442565b95945050505050565b600082825260208201905092915050565b60006119f182611a04565b9050919050565b60008115159050919050565b600073ffffffffffffffffffffffffffffffffffffffff82169050919050565b6000819050919050565b6000611a3982611a52565b9050919050565b6000611a4b82611a52565b9050919050565b6000611a5d82611a64565b9050919050565b6000611a6f82611a04565b9050919050565b600080fd5b7f5072696365206d7573742062652067726561746572207468616e207a65726f00600082015250565b7f4f776e61626c653a206e6577206f776e657220697320746865207a65726f206160008201527f6464726573730000000000000000000000000000000000000000000000000000602082015250565b7f596f7520646f6e2774206f776e2074686973204e465400000000000000000000600082015250565b7f546f6b656e207472616e73666572206661696c65640000000000000000000000600082015250565b7f546869732073616c6520697320616c72656164792066696e6973686564000000600082015250565b7f4f776e61626c653a2063616c6c6572206973206e6f7420746865206f776e6572600082015250565b7f546869732053656c6c20697320616c72656164792066696e6973686564000000600082015250565b7f496e73756666696369656e7420746f6b656e2062616c616e6365000000000000600082015250565b7f596f752063616e27742062757920796f7572206f776e204e4654000000000000600082015250565b7f4e4654207472616e73666572206661696c656400000000000000000000000000600082015250565b7f4e4654206e6f7420696e206d61726b6574000000000000000000000000000000600082015250565b7f5265656e7472616e637947756172643a207265656e7472616e742063616c6c00600082015250565b7f546f6b656e207472616e7366657220746f2073656c6c6572206661696c656400600082015250565b611cbf816119e6565b8114611cca57600080fd5b50565b611cd6816119f8565b8114611ce157600080fd5b50565b611ced81611a24565b8114611cf857600080fd5b5056fea264697066735822122096e2c33fe6fe20cbb5ab7e7e9bcbb6b36c1bb5013e919cc136cd6e39e037e71c64736f6c63430008070033",
  "immutableReferences": {},
  "source": "// SPDX-License-Identifier: MIT\r\npragma solidity ^0.8.7;\r\n\r\nimport \"./NFT.sol\";\r\nimport \"./Coin.sol\";\r\nimport \"@openzeppelin/contracts/access/Ownable.sol\";\r\nimport \"@openzeppelin/contracts/security/ReentrancyGuard.sol\";\r\n\r\ncontract NFTMarket is Ownable, ReentrancyGuard {\r\n    NFTFrame public nftContract;\r\n    AhoraCoin public tokenContract;\r\n\r\n    struct Frame {\r\n        uint256 nftId;\r\n        address seller;\r\n        uint256 price;\r\n        bool isFinished;\r\n    }\r\n\r\n    mapping(uint256 => Frame) public frames;\r\n\r\n    event SellCreated(uint256 indexed nftId, address indexed seller, uint256 price);\r\n    event SellCancelled(uint256 indexed nftId, address indexed seller);\r\n    event FrameSold(uint256 indexed nftId, address indexed seller, address indexed buyer, uint256 price);\r\n\r\n    constructor(address _nftContractAddress, address _tokenContractAddress) {\r\n        nftContract = NFTFrame(_nftContractAddress);\r\n        tokenContract = AhoraCoin(_tokenContractAddress);\r\n    }\r\n\r\n    function createSell(uint256 _nftId, uint256 price) external nonReentrant {\r\n        require(nftContract.ownerOf(_nftId) == msg.sender, \"You don't own this NFT\");\r\n        require(price > 0, \"Price must be greater than zero\");\r\n        \r\n        nftContract.transferNFTUserToUser(_nftId, msg.sender, address(this));\r\n\r\n        frames[_nftId] = Frame({\r\n            nftId: _nftId,\r\n            seller: msg.sender,\r\n            price: price,\r\n            isFinished: false\r\n        });\r\n\r\n        emit SellCreated(_nftId, msg.sender, price);\r\n    }\r\n\r\n    function cancleSell(uint256 _nftId) external nonReentrant {\r\n        Frame storage frame = frames[_nftId];\r\n        require(nftContract.ownerOf(_nftId) == address(this), \"NFT not in market\");\r\n        require(frame.seller == msg.sender, \"You don't own this NFT\");\r\n        require(!frame.isFinished, \"This Sell is already finished\");\r\n        \r\n        frame.isFinished = true;\r\n\r\n        nftContract.transferNFT(_nftId, msg.sender);\r\n\r\n        emit SellCancelled(_nftId, msg.sender);\r\n    }\r\n\r\n    function buyFrame(uint256 _nftId) external nonReentrant {\r\n        Frame storage frame = frames[_nftId];\r\n        require(!frame.isFinished, \"This sale is already finished\");\r\n        require(msg.sender != frame.seller, \"You can't buy your own NFT\");\r\n\r\n        uint256 price = frame.price;\r\n        address seller = frame.seller;\r\n\r\n        require(tokenContract.balanceOf(msg.sender) >= price, \"Insufficient token balance\");\r\n\r\n        frame.isFinished = true;\r\n\r\n        require(tokenContract.transferUserToUser(msg.sender, address(this), price), \"Token transfer failed\");\r\n        require(nftContract.transferNFT(_nftId, msg.sender), \"NFT transfer failed\");\r\n        require(tokenContract.transferSenderToUser(seller, price), \"Token transfer to seller failed\");\r\n\r\n        emit FrameSold(_nftId, seller, msg.sender, price);\r\n    }\r\n\r\n    function getSellInfo(uint256 _nftId) public view returns (Frame memory) {\r\n        return frames[_nftId];\r\n    }\r\n}",
  "sourcePath": "C:\\Users\\SSAFY\\Desktop\\semonemo\\backend\\blockchain-server\\smartcontract\\contracts\\Market.sol",
  "compiler": {
    "name": "solc",
    "version": "0.8.7+commit.e28d00a7.Emscripten.clang"
  },
  "schemaVersion": "3.4.16",
  "updatedAt": "2024-09-11T07:30:10.958Z",
  "networkType": "ethereum",
  "devdoc": {
    "kind": "dev",
    "methods": {
      "owner()": {
        "details": "Returns the address of the current owner."
      },
      "renounceOwnership()": {
        "details": "Leaves the contract without owner. It will not be possible to call `onlyOwner` functions anymore. Can only be called by the current owner. NOTE: Renouncing ownership will leave the contract without an owner, thereby removing any functionality that is only available to the owner."
      },
      "transferOwnership(address)": {
        "details": "Transfers ownership of the contract to a new account (`newOwner`). Can only be called by the current owner."
      }
    },
    "version": 1
  },
  "userdoc": {
    "kind": "user",
    "methods": {},
    "version": 1
  }
}