{
  "contractName": "NFTMarket",
  "abi": [
    {
      "anonymous": false,
      "inputs": [
        {
          "indexed": true,
          "internalType": "address",
          "name": "from",
          "type": "address"
        },
        {
          "indexed": true,
          "internalType": "address",
          "name": "to",
          "type": "address"
        },
        {
          "indexed": false,
          "internalType": "uint256",
          "name": "amount",
          "type": "uint256"
        }
      ],
      "name": "BalanceAdjusted",
      "type": "event"
    },
    {
      "anonymous": false,
      "inputs": [
        {
          "indexed": true,
          "internalType": "address",
          "name": "user",
          "type": "address"
        },
        {
          "indexed": false,
          "internalType": "uint256",
          "name": "amount",
          "type": "uint256"
        }
      ],
      "name": "Deposit",
      "type": "event"
    },
    {
      "anonymous": false,
      "inputs": [
        {
          "indexed": true,
          "internalType": "uint256",
          "name": "nftId",
          "type": "uint256"
        },
        {
          "indexed": true,
          "internalType": "address",
          "name": "seller",
          "type": "address"
        }
      ],
      "name": "MarketCancelled",
      "type": "event"
    },
    {
      "anonymous": false,
      "inputs": [
        {
          "indexed": true,
          "internalType": "uint256",
          "name": "nftId",
          "type": "uint256"
        },
        {
          "indexed": true,
          "internalType": "address",
          "name": "seller",
          "type": "address"
        },
        {
          "indexed": false,
          "internalType": "uint256",
          "name": "price",
          "type": "uint256"
        }
      ],
      "name": "MarketCreated",
      "type": "event"
    },
    {
      "anonymous": false,
      "inputs": [
        {
          "indexed": true,
          "internalType": "uint256",
          "name": "nftId",
          "type": "uint256"
        },
        {
          "indexed": true,
          "internalType": "address",
          "name": "seller",
          "type": "address"
        },
        {
          "indexed": true,
          "internalType": "address",
          "name": "buyer",
          "type": "address"
        },
        {
          "indexed": false,
          "internalType": "uint256",
          "name": "price",
          "type": "uint256"
        }
      ],
      "name": "MarketSold",
      "type": "event"
    },
    {
      "anonymous": false,
      "inputs": [
        {
          "indexed": true,
          "internalType": "address",
          "name": "previousOwner",
          "type": "address"
        },
        {
          "indexed": true,
          "internalType": "address",
          "name": "newOwner",
          "type": "address"
        }
      ],
      "name": "OwnershipTransferred",
      "type": "event"
    },
    {
      "anonymous": false,
      "inputs": [
        {
          "indexed": true,
          "internalType": "address",
          "name": "user",
          "type": "address"
        },
        {
          "indexed": false,
          "internalType": "uint256",
          "name": "amount",
          "type": "uint256"
        }
      ],
      "name": "Withdrawal",
      "type": "event"
    },
    {
      "inputs": [
        {
          "internalType": "uint256",
          "name": "amount",
          "type": "uint256"
        }
      ],
      "name": "deposit",
      "outputs": [],
      "stateMutability": "nonpayable",
      "type": "function"
    },
    {
      "inputs": [],
      "name": "getContractBalance",
      "outputs": [
        {
          "internalType": "uint256",
          "name": "",
          "type": "uint256"
        }
      ],
      "stateMutability": "view",
      "type": "function"
    },
    {
      "inputs": [],
      "name": "getContractOwnedNFTs",
      "outputs": [
        {
          "internalType": "uint256[]",
          "name": "",
          "type": "uint256[]"
        }
      ],
      "stateMutability": "view",
      "type": "function"
    },
    {
      "inputs": [
        {
          "internalType": "address",
          "name": "user",
          "type": "address"
        }
      ],
      "name": "getUserBalance",
      "outputs": [
        {
          "internalType": "uint256",
          "name": "",
          "type": "uint256"
        }
      ],
      "stateMutability": "view",
      "type": "function"
    },
    {
      "inputs": [
        {
          "internalType": "uint256",
          "name": "",
          "type": "uint256"
        }
      ],
      "name": "markets",
      "outputs": [
        {
          "internalType": "uint256",
          "name": "nftId",
          "type": "uint256"
        },
        {
          "internalType": "address",
          "name": "seller",
          "type": "address"
        },
        {
          "internalType": "uint256",
          "name": "price",
          "type": "uint256"
        }
      ],
      "stateMutability": "view",
      "type": "function"
    },
    {
      "inputs": [],
      "name": "nftContract",
      "outputs": [
        {
          "internalType": "contract NFTFrame",
          "name": "",
          "type": "address"
        }
      ],
      "stateMutability": "view",
      "type": "function"
    },
    {
      "inputs": [],
      "name": "owner",
      "outputs": [
        {
          "internalType": "address",
          "name": "",
          "type": "address"
        }
      ],
      "stateMutability": "view",
      "type": "function"
    },
    {
      "inputs": [],
      "name": "renounceOwnership",
      "outputs": [],
      "stateMutability": "nonpayable",
      "type": "function"
    },
    {
      "inputs": [],
      "name": "tokenContract",
      "outputs": [
        {
          "internalType": "contract AhoraCoin",
          "name": "",
          "type": "address"
        }
      ],
      "stateMutability": "view",
      "type": "function"
    },
    {
      "inputs": [
        {
          "internalType": "address",
          "name": "newOwner",
          "type": "address"
        }
      ],
      "name": "transferOwnership",
      "outputs": [],
      "stateMutability": "nonpayable",
      "type": "function"
    },
    {
      "inputs": [
        {
          "internalType": "uint256",
          "name": "amount",
          "type": "uint256"
        }
      ],
      "name": "withdraw",
      "outputs": [],
      "stateMutability": "nonpayable",
      "type": "function"
    },
    {
      "inputs": [
        {
          "internalType": "uint256",
          "name": "_nftId",
          "type": "uint256"
        },
        {
          "internalType": "uint256",
          "name": "price",
          "type": "uint256"
        }
      ],
      "name": "createMarket",
      "outputs": [],
      "stateMutability": "nonpayable",
      "type": "function"
    },
    {
      "inputs": [
        {
          "internalType": "uint256",
          "name": "_nftId",
          "type": "uint256"
        }
      ],
      "name": "cancelMarket",
      "outputs": [],
      "stateMutability": "nonpayable",
      "type": "function"
    },
    {
      "inputs": [
        {
          "internalType": "uint256",
          "name": "_nftId",
          "type": "uint256"
        }
      ],
      "name": "buyMarket",
      "outputs": [],
      "stateMutability": "nonpayable",
      "type": "function"
    },
    {
      "inputs": [
        {
          "internalType": "uint256",
          "name": "_nftId",
          "type": "uint256"
        }
      ],
      "name": "getMarketInfo",
      "outputs": [
        {
          "components": [
            {
              "internalType": "uint256",
              "name": "nftId",
              "type": "uint256"
            },
            {
              "internalType": "address",
              "name": "seller",
              "type": "address"
            },
            {
              "internalType": "uint256",
              "name": "price",
              "type": "uint256"
            }
          ],
          "internalType": "struct NFTMarket.Market",
          "name": "",
          "type": "tuple"
        }
      ],
      "stateMutability": "view",
      "type": "function"
    }
  ],
  "bytecode": "0x60806040523480156200001157600080fd5b5062000032620000266200003f60201b60201c565b6200004760201b60201c565b600180819055506200010b565b600033905090565b60008060009054906101000a900473ffffffffffffffffffffffffffffffffffffffff169050816000806101000a81548173ffffffffffffffffffffffffffffffffffffffff021916908373ffffffffffffffffffffffffffffffffffffffff1602179055508173ffffffffffffffffffffffffffffffffffffffff168173ffffffffffffffffffffffffffffffffffffffff167f8be0079c531659141344cd1fd0a4f28419497f9722a3daafe3b4186f6b6457e060405160405180910390a35050565b612903806200011b6000396000f3fe608060405234801561001057600080fd5b50600436106100f55760003560e01c80638da5cb5b11610097578063d3e6fa1911610066578063d3e6fa1914610260578063d56d229d1461027e578063f2fde38b1461029c578063f90852c7146102b8576100f5565b80638da5cb5b146101d8578063b1283e77146101f6578063b6b55f2514610228578063c7604fec14610244576100f5565b806355a373d6116100d357806355a373d6146101765780636f9fb98a14610194578063715018a6146101b25780637c16cd9e146101bc576100f5565b80632e1a7d4d146100fa5780633ec79193146101165780634773489214610146575b600080fd5b610114600480360381019061010f9190611c0d565b6102d4565b005b610130600480360381019061012b9190611c0d565b610583565b60405161013d9190612279565b60405180910390f35b610160600480360381019061015b9190611b3d565b610694565b60405161016d9190612294565b60405180910390f35b61017e6106dd565b60405161018b9190612063565b60405180910390f35b61019c610703565b6040516101a99190612294565b60405180910390f35b6101ba6107b5565b005b6101d660048036038101906101d19190611c0d565b61083d565b005b6101e0610c2c565b6040516101ed9190611fc6565b60405180910390f35b610210600480360381019061020b9190611c0d565b610c55565b60405161021f9392919061230f565b60405180910390f35b610242600480360381019061023d9190611c0d565b610c9f565b005b61025e60048036038101906102599190611c67565b610ece565b005b610268611204565b6040516102759190612041565b60405180910390f35b6102866112bb565b604051610293919061207e565b60405180910390f35b6102b660048036038101906102b19190611b3d565b6112e1565b005b6102d260048036038101906102cd9190611c0d565b6113d9565b005b6002600154141561031a576040517f08c379a000000000000000000000000000000000000000000000000000000000815260040161031190612259565b60405180910390fd5b600260018190555060008111610365576040517f08c379a000000000000000000000000000000000000000000000000000000000815260040161035c906121b9565b60405180910390fd5b80600460003373ffffffffffffffffffffffffffffffffffffffff1673ffffffffffffffffffffffffffffffffffffffff1681526020019081526020016000205410156103e7576040517f08c379a00000000000000000000000000000000000000000000000000000000081526004016103de90612159565b60405180910390fd5b80600460003373ffffffffffffffffffffffffffffffffffffffff1673ffffffffffffffffffffffffffffffffffffffff16815260200190815260200160002060008282546104369190612437565b92505081905550600360009054906101000a900473ffffffffffffffffffffffffffffffffffffffff1673ffffffffffffffffffffffffffffffffffffffff16631b33a8db33836040518363ffffffff1660e01b815260040161049a929190612018565b602060405180830381600087803b1580156104b457600080fd5b505af11580156104c8573d6000803e3d6000fd5b505050506040513d601f19601f820116820180604052508101906104ec9190611be0565b61052b576040517f08c379a000000000000000000000000000000000000000000000000000000000815260040161052290612119565b60405180910390fd5b3373ffffffffffffffffffffffffffffffffffffffff167f7fcf532c15f0a6db0bd6d0e038bea71d30d808c7d98cb3bf7268a95bf5081b65826040516105719190612294565b60405180910390a26001808190555050565b61058b6119ff565b600060056000848152602001908152602001600020604051806060016040529081600082015481526020016001820160009054906101000a900473ffffffffffffffffffffffffffffffffffffffff1673ffffffffffffffffffffffffffffffffffffffff1673ffffffffffffffffffffffffffffffffffffffff1681526020016002820154815250509050600073ffffffffffffffffffffffffffffffffffffffff16816020015173ffffffffffffffffffffffffffffffffffffffff16141561068b576040517f08c379a000000000000000000000000000000000000000000000000000000000815260040161068290612099565b60405180910390fd5b80915050919050565b6000600460008373ffffffffffffffffffffffffffffffffffffffff1673ffffffffffffffffffffffffffffffffffffffff168152602001908152602001600020549050919050565b600360009054906101000a900473ffffffffffffffffffffffffffffffffffffffff1681565b6000600360009054906101000a900473ffffffffffffffffffffffffffffffffffffffff1673ffffffffffffffffffffffffffffffffffffffff166370a08231306040518263ffffffff1660e01b81526004016107609190611fc6565b60206040518083038186803b15801561077857600080fd5b505afa15801561078c573d6000803e3d6000fd5b505050506040513d601f19601f820116820180604052508101906107b09190611c3a565b905090565b6107bd61179b565b73ffffffffffffffffffffffffffffffffffffffff166107db610c2c565b73ffffffffffffffffffffffffffffffffffffffff1614610831576040517f08c379a000000000000000000000000000000000000000000000000000000000815260040161082890612199565b60405180910390fd5b61083b60006117a3565b565b60026001541415610883576040517f08c379a000000000000000000000000000000000000000000000000000000000815260040161087a90612259565b60405180910390fd5b600260018190555060006005600083815260200190815260200160002090503073ffffffffffffffffffffffffffffffffffffffff16600260009054906101000a900473ffffffffffffffffffffffffffffffffffffffff1673ffffffffffffffffffffffffffffffffffffffff16636352211e846040518263ffffffff1660e01b81526004016109149190612294565b60206040518083038186803b15801561092c57600080fd5b505afa158015610940573d6000803e3d6000fd5b505050506040513d601f19601f820116820180604052508101906109649190611b6a565b73ffffffffffffffffffffffffffffffffffffffff16146109ba576040517f08c379a00000000000000000000000000000000000000000000000000000000081526004016109b190612239565b60405180910390fd5b3373ffffffffffffffffffffffffffffffffffffffff168160010160009054906101000a900473ffffffffffffffffffffffffffffffffffffffff1673ffffffffffffffffffffffffffffffffffffffff1614610a4c576040517f08c379a0000000000000000000000000000000000000000000000000000000008152600401610a4390612179565b60405180910390fd5b600073ffffffffffffffffffffffffffffffffffffffff168160010160009054906101000a900473ffffffffffffffffffffffffffffffffffffffff1673ffffffffffffffffffffffffffffffffffffffff161415610ae0576040517f08c379a0000000000000000000000000000000000000000000000000000000008152600401610ad7906121d9565b60405180910390fd5b600260009054906101000a900473ffffffffffffffffffffffffffffffffffffffff1673ffffffffffffffffffffffffffffffffffffffff16639036c05083336040518363ffffffff1660e01b8152600401610b3d9291906122af565b602060405180830381600087803b158015610b5757600080fd5b505af1158015610b6b573d6000803e3d6000fd5b505050506040513d601f19601f82011682018060405250810190610b8f9190611be0565b50600560008381526020019081526020016000206000808201600090556001820160006101000a81549073ffffffffffffffffffffffffffffffffffffffff0219169055600282016000905550503373ffffffffffffffffffffffffffffffffffffffff16827f80cbe856a464968c63953aeb2dd84c12de3a0715985cae2ea35d3ed87e39ddc360405160405180910390a3506001808190555050565b60008060009054906101000a900473ffffffffffffffffffffffffffffffffffffffff16905090565b60056020528060005260406000206000915090508060000154908060010160009054906101000a900473ffffffffffffffffffffffffffffffffffffffff16908060020154905083565b60026001541415610ce5576040517f08c379a0000000000000000000000000000000000000000000000000000000008152600401610cdc90612259565b60405180910390fd5b600260018190555060008111610d30576040517f08c379a0000000000000000000000000000000000000000000000000000000008152600401610d27906120b9565b60405180910390fd5b600360009054906101000a900473ffffffffffffffffffffffffffffffffffffffff1673ffffffffffffffffffffffffffffffffffffffff1663f67ac38c3330846040518463ffffffff1660e01b8152600401610d8f93929190611fe1565b602060405180830381600087803b158015610da957600080fd5b505af1158015610dbd573d6000803e3d6000fd5b505050506040513d601f19601f82011682018060405250810190610de19190611be0565b610e20576040517f08c379a0000000000000000000000000000000000000000000000000000000008152600401610e1790612119565b60405180910390fd5b80600460003373ffffffffffffffffffffffffffffffffffffffff1673ffffffffffffffffffffffffffffffffffffffff1681526020019081526020016000206000828254610e6f91906123e1565b925050819055503373ffffffffffffffffffffffffffffffffffffffff167fe1fffcc4923d04b559f4d29a8bfc6cda04eb5b0d3c460751c2402c5c5cc9109c82604051610ebc9190612294565b60405180910390a26001808190555050565b60026001541415610f14576040517f08c379a0000000000000000000000000000000000000000000000000000000008152600401610f0b90612259565b60405180910390fd5b60026001819055503373ffffffffffffffffffffffffffffffffffffffff16600260009054906101000a900473ffffffffffffffffffffffffffffffffffffffff1673ffffffffffffffffffffffffffffffffffffffff16636352211e846040518263ffffffff1660e01b8152600401610f8e9190612294565b60206040518083038186803b158015610fa657600080fd5b505afa158015610fba573d6000803e3d6000fd5b505050506040513d601f19601f82011682018060405250810190610fde9190611b6a565b73ffffffffffffffffffffffffffffffffffffffff1614611034576040517f08c379a000000000000000000000000000000000000000000000000000000000815260040161102b90612179565b60405180910390fd5b60008111611077576040517f08c379a000000000000000000000000000000000000000000000000000000000815260040161106e906120d9565b60405180910390fd5b600260009054906101000a900473ffffffffffffffffffffffffffffffffffffffff1673ffffffffffffffffffffffffffffffffffffffff16634f89cea68333306040518463ffffffff1660e01b81526004016110d6939291906122d8565b600060405180830381600087803b1580156110f057600080fd5b505af1158015611104573d6000803e3d6000fd5b5050505060405180606001604052808381526020013373ffffffffffffffffffffffffffffffffffffffff16815260200182815250600560008481526020019081526020016000206000820151816000015560208201518160010160006101000a81548173ffffffffffffffffffffffffffffffffffffffff021916908373ffffffffffffffffffffffffffffffffffffffff160217905550604082015181600201559050503373ffffffffffffffffffffffffffffffffffffffff16827f557e20be357a3ff3fc08cf2b8e6986333057886a281d0409a7e751c3fd700ec0836040516111f19190612294565b60405180910390a3600180819055505050565b6060600260009054906101000a900473ffffffffffffffffffffffffffffffffffffffff1673ffffffffffffffffffffffffffffffffffffffff1663e6b1fa2a306040518263ffffffff1660e01b81526004016112619190611fc6565b60006040518083038186803b15801561127957600080fd5b505afa15801561128d573d6000803e3d6000fd5b505050506040513d6000823e3d601f19601f820116820180604052508101906112b69190611b97565b905090565b600260009054906101000a900473ffffffffffffffffffffffffffffffffffffffff1681565b6112e961179b565b73ffffffffffffffffffffffffffffffffffffffff16611307610c2c565b73ffffffffffffffffffffffffffffffffffffffff161461135d576040517f08c379a000000000000000000000000000000000000000000000000000000000815260040161135490612199565b60405180910390fd5b600073ffffffffffffffffffffffffffffffffffffffff168173ffffffffffffffffffffffffffffffffffffffff1614156113cd576040517f08c379a00000000000000000000000000000000000000000000000000000000081526004016113c4906120f9565b60405180910390fd5b6113d6816117a3565b50565b6002600154141561141f576040517f08c379a000000000000000000000000000000000000000000000000000000000815260040161141690612259565b60405180910390fd5b60026001819055506000600560008381526020019081526020016000209050600073ffffffffffffffffffffffffffffffffffffffff168160010160009054906101000a900473ffffffffffffffffffffffffffffffffffffffff1673ffffffffffffffffffffffffffffffffffffffff1614156114d2576040517f08c379a00000000000000000000000000000000000000000000000000000000081526004016114c990612139565b60405180910390fd5b8060010160009054906101000a900473ffffffffffffffffffffffffffffffffffffffff1673ffffffffffffffffffffffffffffffffffffffff163373ffffffffffffffffffffffffffffffffffffffff161415611565576040517f08c379a000000000000000000000000000000000000000000000000000000000815260040161155c906121f9565b60405180910390fd5b60008160020154905060008260010160009054906101000a900473ffffffffffffffffffffffffffffffffffffffff169050816115a133610694565b10156115e2576040517f08c379a00000000000000000000000000000000000000000000000000000000081526004016115d990612159565b60405180910390fd5b6115ed338284611867565b600260009054906101000a900473ffffffffffffffffffffffffffffffffffffffff1673ffffffffffffffffffffffffffffffffffffffff16639036c05085336040518363ffffffff1660e01b815260040161164a9291906122af565b602060405180830381600087803b15801561166457600080fd5b505af1158015611678573d6000803e3d6000fd5b505050506040513d601f19601f8201168201806040525081019061169c9190611be0565b6116db576040517f08c379a00000000000000000000000000000000000000000000000000000000081526004016116d290612219565b60405180910390fd5b600560008581526020019081526020016000206000808201600090556001820160006101000a81549073ffffffffffffffffffffffffffffffffffffffff0219169055600282016000905550503373ffffffffffffffffffffffffffffffffffffffff168173ffffffffffffffffffffffffffffffffffffffff16857f94ddf8232f3af1f844abb74cd56287ba5507090df04bf3c2e006bf74e904a283856040516117869190612294565b60405180910390a45050506001808190555050565b600033905090565b60008060009054906101000a900473ffffffffffffffffffffffffffffffffffffffff169050816000806101000a81548173ffffffffffffffffffffffffffffffffffffffff021916908373ffffffffffffffffffffffffffffffffffffffff1602179055508173ffffffffffffffffffffffffffffffffffffffff168173ffffffffffffffffffffffffffffffffffffffff167f8be0079c531659141344cd1fd0a4f28419497f9722a3daafe3b4186f6b6457e060405160405180910390a35050565b80600460008573ffffffffffffffffffffffffffffffffffffffff1673ffffffffffffffffffffffffffffffffffffffff1681526020019081526020016000205410156118e9576040517f08c379a00000000000000000000000000000000000000000000000000000000081526004016118e090612159565b60405180910390fd5b80600460008573ffffffffffffffffffffffffffffffffffffffff1673ffffffffffffffffffffffffffffffffffffffff16815260200190815260200160002060008282546119389190612437565b9250508190555080600460008473ffffffffffffffffffffffffffffffffffffffff1673ffffffffffffffffffffffffffffffffffffffff168152602001908152602001600020600082825461198e91906123e1565b925050819055508173ffffffffffffffffffffffffffffffffffffffff168373ffffffffffffffffffffffffffffffffffffffff167f69d14b96c06609a8976851e9503b0a6b1c60b96a8ba6e5a1a313e8a290138e15836040516119f29190612294565b60405180910390a3505050565b604051806060016040528060008152602001600073ffffffffffffffffffffffffffffffffffffffff168152602001600081525090565b6000611a49611a448461236b565b612346565b90508083825260208201905082856020860282011115611a6c57611a6b61258f565b5b60005b85811015611a9c5781611a828882611b28565b845260208401935060208301925050600181019050611a6f565b5050509392505050565b600081359050611ab581612888565b92915050565b600081519050611aca81612888565b92915050565b600082601f830112611ae557611ae461258a565b5b8151611af5848260208601611a36565b91505092915050565b600081519050611b0d8161289f565b92915050565b600081359050611b22816128b6565b92915050565b600081519050611b37816128b6565b92915050565b600060208284031215611b5357611b52612599565b5b6000611b6184828501611aa6565b91505092915050565b600060208284031215611b8057611b7f612599565b5b6000611b8e84828501611abb565b91505092915050565b600060208284031215611bad57611bac612599565b5b600082015167ffffffffffffffff811115611bcb57611bca612594565b5b611bd784828501611ad0565b91505092915050565b600060208284031215611bf657611bf5612599565b5b6000611c0484828501611afe565b91505092915050565b600060208284031215611c2357611c22612599565b5b6000611c3184828501611b13565b91505092915050565b600060208284031215611c5057611c4f612599565b5b6000611c5e84828501611b28565b91505092915050565b60008060408385031215611c7e57611c7d612599565b5b6000611c8c85828601611b13565b9250506020611c9d85828601611b13565b9150509250929050565b6000611cb38383611fa8565b60208301905092915050565b611cc88161246b565b82525050565b611cd78161246b565b82525050565b6000611ce8826123a7565b611cf281856123bf565b9350611cfd83612397565b8060005b83811015611d2e578151611d158882611ca7565b9750611d20836123b2565b925050600181019050611d01565b5085935050505092915050565b611d44816124b3565b82525050565b611d53816124c5565b82525050565b6000611d666020836123d0565b9150611d71826125af565b602082019050919050565b6000611d896025836123d0565b9150611d94826125d8565b604082019050919050565b6000611dac601f836123d0565b9150611db782612627565b602082019050919050565b6000611dcf6026836123d0565b9150611dda82612650565b604082019050919050565b6000611df2600f836123d0565b9150611dfd8261269f565b602082019050919050565b6000611e156018836123d0565b9150611e20826126c8565b602082019050919050565b6000611e386014836123d0565b9150611e43826126f1565b602082019050919050565b6000611e5b6016836123d0565b9150611e668261271a565b602082019050919050565b6000611e7e6020836123d0565b9150611e8982612743565b602082019050919050565b6000611ea16028836123d0565b9150611eac8261276c565b604082019050919050565b6000611ec4601a836123d0565b9150611ecf826127bb565b602082019050919050565b6000611ee7601a836123d0565b9150611ef2826127e4565b602082019050919050565b6000611f0a6013836123d0565b9150611f158261280d565b602082019050919050565b6000611f2d6011836123d0565b9150611f3882612836565b602082019050919050565b6000611f50601f836123d0565b9150611f5b8261285f565b602082019050919050565b606082016000820151611f7c6000850182611fa8565b506020820151611f8f6020850182611cbf565b506040820151611fa26040850182611fa8565b50505050565b611fb1816124a9565b82525050565b611fc0816124a9565b82525050565b6000602082019050611fdb6000830184611cce565b92915050565b6000606082019050611ff66000830186611cce565b6120036020830185611cce565b6120106040830184611fb7565b949350505050565b600060408201905061202d6000830185611cce565b61203a6020830184611fb7565b9392505050565b6000602082019050818103600083015261205b8184611cdd565b905092915050565b60006020820190506120786000830184611d3b565b92915050565b60006020820190506120936000830184611d4a565b92915050565b600060208201905081810360008301526120b281611d59565b9050919050565b600060208201905081810360008301526120d281611d7c565b9050919050565b600060208201905081810360008301526120f281611d9f565b9050919050565b6000602082019050818103600083015261211281611dc2565b9050919050565b6000602082019050818103600083015261213281611de5565b9050919050565b6000602082019050818103600083015261215281611e08565b9050919050565b6000602082019050818103600083015261217281611e2b565b9050919050565b6000602082019050818103600083015261219281611e4e565b9050919050565b600060208201905081810360008301526121b281611e71565b9050919050565b600060208201905081810360008301526121d281611e94565b9050919050565b600060208201905081810360008301526121f281611eb7565b9050919050565b6000602082019050818103600083015261221281611eda565b9050919050565b6000602082019050818103600083015261223281611efd565b9050919050565b6000602082019050818103600083015261225281611f20565b9050919050565b6000602082019050818103600083015261227281611f43565b9050919050565b600060608201905061228e6000830184611f66565b92915050565b60006020820190506122a96000830184611fb7565b92915050565b60006040820190506122c46000830185611fb7565b6122d16020830184611cce565b9392505050565b60006060820190506122ed6000830186611fb7565b6122fa6020830185611cce565b6123076040830184611cce565b949350505050565b60006060820190506123246000830186611fb7565b6123316020830185611cce565b61233e6040830184611fb7565b949350505050565b6000612350612361565b905061235c82826124fb565b919050565b6000604051905090565b600067ffffffffffffffff8211156123865761238561255b565b5b602082029050602081019050919050565b6000819050602082019050919050565b600081519050919050565b6000602082019050919050565b600082825260208201905092915050565b600082825260208201905092915050565b60006123ec826124a9565b91506123f7836124a9565b9250827fffffffffffffffffffffffffffffffffffffffffffffffffffffffffffffffff0382111561242c5761242b61252c565b5b828201905092915050565b6000612442826124a9565b915061244d836124a9565b9250828210156124605761245f61252c565b5b828203905092915050565b600061247682612489565b9050919050565b60008115159050919050565b600073ffffffffffffffffffffffffffffffffffffffff82169050919050565b6000819050919050565b60006124be826124d7565b9050919050565b60006124d0826124d7565b9050919050565b60006124e2826124e9565b9050919050565b60006124f482612489565b9050919050565b6125048261259e565b810181811067ffffffffffffffff821117156125235761252261255b565b5b80604052505050565b7f4e487b7100000000000000000000000000000000000000000000000000000000600052601160045260246000fd5b7f4e487b7100000000000000000000000000000000000000000000000000000000600052604160045260246000fd5b600080fd5b600080fd5b600080fd5b600080fd5b6000601f19601f8301169050919050565b7f53656c6c20646f6573206e6f7420657869737420666f722074686973204e4654600082015250565b7f4465706f73697420616d6f756e74206d7573742062652067726561746572207460008201527f68616e2030000000000000000000000000000000000000000000000000000000602082015250565b7f5072696365206d7573742062652067726561746572207468616e207a65726f00600082015250565b7f4f776e61626c653a206e6577206f776e657220697320746865207a65726f206160008201527f6464726573730000000000000000000000000000000000000000000000000000602082015250565b7f5472616e73666572206661696c65640000000000000000000000000000000000600082015250565b7f54686973204e4654206973206e6f7420666f722073616c650000000000000000600082015250565b7f496e73756666696369656e742062616c616e6365000000000000000000000000600082015250565b7f596f7520646f6e2774206f776e2074686973204e465400000000000000000000600082015250565b7f4f776e61626c653a2063616c6c6572206973206e6f7420746865206f776e6572600082015250565b7f5769746864726177616c20616d6f756e74206d7573742062652067726561746560008201527f72207468616e2030000000000000000000000000000000000000000000000000602082015250565b7f54686973206d61726b657420646f6573206e6f74206578697374000000000000600082015250565b7f596f752063616e27742062757920796f7572206f776e204e4654000000000000600082015250565b7f4e4654207472616e73666572206661696c656400000000000000000000000000600082015250565b7f4e4654206e6f7420696e206d61726b6574000000000000000000000000000000600082015250565b7f5265656e7472616e637947756172643a207265656e7472616e742063616c6c00600082015250565b6128918161246b565b811461289c57600080fd5b50565b6128a88161247d565b81146128b357600080fd5b50565b6128bf816124a9565b81146128ca57600080fd5b5056fea2646970667358221220308d810a39bc7e5603a910fec043047c8cf7a8d90cd374c9cce97c9ef44e97ad64736f6c63430008070033",
  "immutableReferences": {},
  "source": "// SPDX-License-Identifier: MIT\r\npragma solidity ^0.8.7;\r\n\r\nimport \"./TradeBase.sol\";\r\n\r\ncontract NFTMarket is TradeBase {\r\n    struct Market {\r\n        uint256 nftId;\r\n        address seller;\r\n        uint256 price;\r\n    }\r\n\r\n    mapping(uint256 => Market) public markets;\r\n\r\n    event MarketCreated(uint256 indexed nftId, address indexed seller, uint256 price);\r\n    event MarketCancelled(uint256 indexed nftId, address indexed seller);\r\n    event MarketSold(uint256 indexed nftId, address indexed seller, address indexed buyer, uint256 price);\r\n\r\n    //  \r\n    function createMarket(uint256 _nftId, uint256 price) external nonReentrant {\r\n        require(nftContract.ownerOf(_nftId) == msg.sender, \"You don't own this NFT\");\r\n        require(price > 0, \"Price must be greater than zero\");\r\n        \r\n        nftContract.transferNFTUserToSystem(_nftId, msg.sender, address(this));\r\n\r\n        markets[_nftId] = Market({\r\n            nftId: _nftId,\r\n            seller: msg.sender,\r\n            price: price\r\n        });\r\n\r\n        emit MarketCreated(_nftId, msg.sender, price);\r\n    }\r\n\r\n    //  \r\n    function cancelMarket(uint256 _nftId) external nonReentrant {\r\n        Market storage market = markets[_nftId];\r\n        require(nftContract.ownerOf(_nftId) == address(this), \"NFT not in market\");\r\n        require(market.seller == msg.sender, \"You don't own this NFT\");\r\n        require(market.seller != address(0), \"This market does not exist\");\r\n\r\n        nftContract.transferNFT(_nftId, msg.sender);\r\n\r\n        delete markets[_nftId];\r\n\r\n        emit MarketCancelled(_nftId, msg.sender);\r\n    }\r\n\r\n    //  \r\n    function buyMarket(uint256 _nftId) external nonReentrant {\r\n        Market storage market = markets[_nftId];\r\n        require(market.seller != address(0), \"This NFT is not for sale\");\r\n        require(msg.sender != market.seller, \"You can't buy your own NFT\");\r\n\r\n        uint256 price = market.price;\r\n        address seller = market.seller;\r\n\r\n        require(getUserBalance(msg.sender) >= price, \"Insufficient balance\");\r\n\r\n        _adjustBalances(msg.sender, seller, price);\r\n\r\n        require(nftContract.transferNFT(_nftId, msg.sender), \"NFT transfer failed\");\r\n\r\n        delete markets[_nftId];\r\n\r\n        emit MarketSold(_nftId, seller, msg.sender, price);\r\n    }\r\n\r\n    function getMarketInfo(uint256 _nftId) public view returns (Market memory) {\r\n        Market memory market = markets[_nftId];\r\n        require(market.seller != address(0), \"Sell does not exist for this NFT\");\r\n        return market;\r\n    }\r\n}",
  "sourcePath": "C:\\Users\\SSAFY\\Desktop\\semonemo\\backend\\blockchain-server\\smartcontract\\contracts\\NFTMarket.sol",
  "compiler": {
    "name": "solc",
    "version": "0.8.7+commit.e28d00a7.Emscripten.clang"
  },
  "schemaVersion": "3.4.16",
  "updatedAt": "2024-09-20T08:53:28.704Z",
  "devdoc": {
    "kind": "dev",
    "methods": {
      "owner()": {
        "details": "Returns the address of the current owner."
      },
      "renounceOwnership()": {
        "details": "Leaves the contract without owner. It will not be possible to call `onlyOwner` functions anymore. Can only be called by the current owner. NOTE: Renouncing ownership will leave the contract without an owner, thereby removing any functionality that is only available to the owner."
      },
      "transferOwnership(address)": {
        "details": "Transfers ownership of the contract to a new account (`newOwner`). Can only be called by the current owner."
      }
    },
    "version": 1
  },
  "userdoc": {
    "kind": "user",
    "methods": {},
    "version": 1
  }
}