{
  "contractName": "NFTMarket",
  "abi": [
    {
      "anonymous": false,
      "inputs": [
        {
          "indexed": true,
          "internalType": "address",
          "name": "from",
          "type": "address"
        },
        {
          "indexed": true,
          "internalType": "address",
          "name": "to",
          "type": "address"
        },
        {
          "indexed": false,
          "internalType": "uint256",
          "name": "amount",
          "type": "uint256"
        },
        {
          "indexed": false,
          "internalType": "uint256",
          "name": "fromBalance",
          "type": "uint256"
        },
        {
          "indexed": false,
          "internalType": "uint256",
          "name": "toBalance",
          "type": "uint256"
        }
      ],
      "name": "BalanceAdjusted",
      "type": "event"
    },
    {
      "anonymous": false,
      "inputs": [
        {
          "indexed": true,
          "internalType": "address",
          "name": "from",
          "type": "address"
        },
        {
          "indexed": true,
          "internalType": "address",
          "name": "to",
          "type": "address"
        },
        {
          "indexed": false,
          "internalType": "uint256",
          "name": "amount",
          "type": "uint256"
        },
        {
          "indexed": false,
          "internalType": "uint256",
          "name": "fromBalance",
          "type": "uint256"
        },
        {
          "indexed": false,
          "internalType": "uint256",
          "name": "toBalance",
          "type": "uint256"
        }
      ],
      "name": "BalanceTransferred",
      "type": "event"
    },
    {
      "anonymous": false,
      "inputs": [
        {
          "indexed": true,
          "internalType": "address",
          "name": "user",
          "type": "address"
        },
        {
          "indexed": false,
          "internalType": "uint256",
          "name": "amount",
          "type": "uint256"
        },
        {
          "indexed": false,
          "internalType": "uint256",
          "name": "coinBalance",
          "type": "uint256"
        },
        {
          "indexed": false,
          "internalType": "uint256",
          "name": "payableBalance",
          "type": "uint256"
        }
      ],
      "name": "Deposit",
      "type": "event"
    },
    {
      "anonymous": false,
      "inputs": [
        {
          "indexed": true,
          "internalType": "uint256",
          "name": "nftId",
          "type": "uint256"
        },
        {
          "indexed": true,
          "internalType": "address",
          "name": "seller",
          "type": "address"
        }
      ],
      "name": "MarketCancelled",
      "type": "event"
    },
    {
      "anonymous": false,
      "inputs": [
        {
          "indexed": true,
          "internalType": "uint256",
          "name": "nftId",
          "type": "uint256"
        },
        {
          "indexed": true,
          "internalType": "address",
          "name": "seller",
          "type": "address"
        },
        {
          "indexed": false,
          "internalType": "uint256",
          "name": "price",
          "type": "uint256"
        }
      ],
      "name": "MarketCreated",
      "type": "event"
    },
    {
      "anonymous": false,
      "inputs": [
        {
          "indexed": true,
          "internalType": "uint256",
          "name": "nftId",
          "type": "uint256"
        },
        {
          "indexed": true,
          "internalType": "address",
          "name": "seller",
          "type": "address"
        },
        {
          "indexed": true,
          "internalType": "address",
          "name": "buyer",
          "type": "address"
        },
        {
          "indexed": false,
          "internalType": "uint256",
          "name": "price",
          "type": "uint256"
        }
      ],
      "name": "MarketSold",
      "type": "event"
    },
    {
      "anonymous": false,
      "inputs": [
        {
          "indexed": true,
          "internalType": "address",
          "name": "previousOwner",
          "type": "address"
        },
        {
          "indexed": true,
          "internalType": "address",
          "name": "newOwner",
          "type": "address"
        }
      ],
      "name": "OwnershipTransferred",
      "type": "event"
    },
    {
      "anonymous": false,
      "inputs": [
        {
          "indexed": true,
          "internalType": "uint256",
          "name": "tradeId",
          "type": "uint256"
        },
        {
          "indexed": false,
          "internalType": "address",
          "name": "from",
          "type": "address"
        },
        {
          "indexed": false,
          "internalType": "address",
          "name": "to",
          "type": "address"
        },
        {
          "indexed": false,
          "internalType": "uint256",
          "name": "amount",
          "type": "uint256"
        },
        {
          "indexed": false,
          "internalType": "uint256",
          "name": "timestamp",
          "type": "uint256"
        },
        {
          "indexed": false,
          "internalType": "uint256",
          "name": "fromBalance",
          "type": "uint256"
        },
        {
          "indexed": false,
          "internalType": "uint256",
          "name": "toBalance",
          "type": "uint256"
        }
      ],
      "name": "TradeRecorded",
      "type": "event"
    },
    {
      "anonymous": false,
      "inputs": [
        {
          "indexed": true,
          "internalType": "address",
          "name": "user",
          "type": "address"
        },
        {
          "indexed": false,
          "internalType": "uint256",
          "name": "amount",
          "type": "uint256"
        },
        {
          "indexed": false,
          "internalType": "uint256",
          "name": "coinBalance",
          "type": "uint256"
        },
        {
          "indexed": false,
          "internalType": "uint256",
          "name": "payableBalance",
          "type": "uint256"
        }
      ],
      "name": "Withdrawal",
      "type": "event"
    },
    {
      "inputs": [
        {
          "internalType": "uint256",
          "name": "amount",
          "type": "uint256"
        }
      ],
      "name": "deposit",
      "outputs": [],
      "stateMutability": "nonpayable",
      "type": "function"
    },
    {
      "inputs": [],
      "name": "getContractBalance",
      "outputs": [
        {
          "internalType": "uint256",
          "name": "",
          "type": "uint256"
        }
      ],
      "stateMutability": "view",
      "type": "function"
    },
    {
      "inputs": [],
      "name": "getContractOwnedNFTs",
      "outputs": [
        {
          "internalType": "uint256[]",
          "name": "",
          "type": "uint256[]"
        }
      ],
      "stateMutability": "view",
      "type": "function"
    },
    {
      "inputs": [
        {
          "internalType": "uint256",
          "name": "_tradeId",
          "type": "uint256"
        }
      ],
      "name": "getTradeInfo",
      "outputs": [
        {
          "components": [
            {
              "internalType": "address",
              "name": "from",
              "type": "address"
            },
            {
              "internalType": "address",
              "name": "to",
              "type": "address"
            },
            {
              "internalType": "uint256",
              "name": "amount",
              "type": "uint256"
            },
            {
              "internalType": "uint256",
              "name": "timestamp",
              "type": "uint256"
            }
          ],
          "internalType": "struct TradeBase.TradeInfo",
          "name": "",
          "type": "tuple"
        }
      ],
      "stateMutability": "view",
      "type": "function"
    },
    {
      "inputs": [
        {
          "internalType": "address",
          "name": "user",
          "type": "address"
        },
        {
          "internalType": "uint256",
          "name": "page",
          "type": "uint256"
        },
        {
          "internalType": "uint256",
          "name": "size",
          "type": "uint256"
        }
      ],
      "name": "getTradesByAddress",
      "outputs": [
        {
          "components": [
            {
              "components": [
                {
                  "internalType": "address",
                  "name": "from",
                  "type": "address"
                },
                {
                  "internalType": "address",
                  "name": "to",
                  "type": "address"
                },
                {
                  "internalType": "uint256",
                  "name": "amount",
                  "type": "uint256"
                },
                {
                  "internalType": "uint256",
                  "name": "timestamp",
                  "type": "uint256"
                }
              ],
              "internalType": "struct TradeBase.TradeInfo[]",
              "name": "trades",
              "type": "tuple[]"
            },
            {
              "internalType": "uint256",
              "name": "totalTrades",
              "type": "uint256"
            },
            {
              "internalType": "bool",
              "name": "hasNext",
              "type": "bool"
            }
          ],
          "internalType": "struct TradeBase.TradeResult",
          "name": "",
          "type": "tuple"
        }
      ],
      "stateMutability": "view",
      "type": "function"
    },
    {
      "inputs": [
        {
          "internalType": "address",
          "name": "user",
          "type": "address"
        }
      ],
      "name": "getUserBalance",
      "outputs": [
        {
          "internalType": "uint256",
          "name": "",
          "type": "uint256"
        }
      ],
      "stateMutability": "view",
      "type": "function"
    },
    {
      "inputs": [
        {
          "internalType": "uint256",
          "name": "",
          "type": "uint256"
        }
      ],
      "name": "markets",
      "outputs": [
        {
          "internalType": "uint256",
          "name": "nftId",
          "type": "uint256"
        },
        {
          "internalType": "address",
          "name": "seller",
          "type": "address"
        },
        {
          "internalType": "uint256",
          "name": "price",
          "type": "uint256"
        }
      ],
      "stateMutability": "view",
      "type": "function"
    },
    {
      "inputs": [],
      "name": "nftContract",
      "outputs": [
        {
          "internalType": "contract NFTFrame",
          "name": "",
          "type": "address"
        }
      ],
      "stateMutability": "view",
      "type": "function"
    },
    {
      "inputs": [],
      "name": "owner",
      "outputs": [
        {
          "internalType": "address",
          "name": "",
          "type": "address"
        }
      ],
      "stateMutability": "view",
      "type": "function"
    },
    {
      "inputs": [],
      "name": "renounceOwnership",
      "outputs": [],
      "stateMutability": "nonpayable",
      "type": "function"
    },
    {
      "inputs": [],
      "name": "tokenContract",
      "outputs": [
        {
          "internalType": "contract AhoraCoin",
          "name": "",
          "type": "address"
        }
      ],
      "stateMutability": "view",
      "type": "function"
    },
    {
      "inputs": [],
      "name": "tradeId",
      "outputs": [
        {
          "internalType": "uint256",
          "name": "",
          "type": "uint256"
        }
      ],
      "stateMutability": "view",
      "type": "function"
    },
    {
      "inputs": [
        {
          "internalType": "uint256",
          "name": "",
          "type": "uint256"
        }
      ],
      "name": "trades",
      "outputs": [
        {
          "internalType": "address",
          "name": "from",
          "type": "address"
        },
        {
          "internalType": "address",
          "name": "to",
          "type": "address"
        },
        {
          "internalType": "uint256",
          "name": "amount",
          "type": "uint256"
        },
        {
          "internalType": "uint256",
          "name": "timestamp",
          "type": "uint256"
        }
      ],
      "stateMutability": "view",
      "type": "function"
    },
    {
      "inputs": [
        {
          "internalType": "address",
          "name": "to",
          "type": "address"
        },
        {
          "internalType": "uint256",
          "name": "amount",
          "type": "uint256"
        }
      ],
      "name": "transferBalance",
      "outputs": [],
      "stateMutability": "nonpayable",
      "type": "function"
    },
    {
      "inputs": [
        {
          "internalType": "address",
          "name": "from",
          "type": "address"
        },
        {
          "internalType": "address",
          "name": "to",
          "type": "address"
        },
        {
          "internalType": "uint256",
          "name": "amount",
          "type": "uint256"
        }
      ],
      "name": "transferBalanceByAdmin",
      "outputs": [],
      "stateMutability": "nonpayable",
      "type": "function"
    },
    {
      "inputs": [
        {
          "internalType": "address",
          "name": "newOwner",
          "type": "address"
        }
      ],
      "name": "transferOwnership",
      "outputs": [],
      "stateMutability": "nonpayable",
      "type": "function"
    },
    {
      "inputs": [
        {
          "internalType": "uint256",
          "name": "amount",
          "type": "uint256"
        }
      ],
      "name": "withdraw",
      "outputs": [],
      "stateMutability": "nonpayable",
      "type": "function"
    },
    {
      "inputs": [
        {
          "internalType": "uint256",
          "name": "_nftId",
          "type": "uint256"
        },
        {
          "internalType": "uint256",
          "name": "price",
          "type": "uint256"
        }
      ],
      "name": "createMarket",
      "outputs": [],
      "stateMutability": "nonpayable",
      "type": "function"
    },
    {
      "inputs": [
        {
          "internalType": "uint256",
          "name": "_nftId",
          "type": "uint256"
        }
      ],
      "name": "cancelMarket",
      "outputs": [],
      "stateMutability": "nonpayable",
      "type": "function"
    },
    {
      "inputs": [
        {
          "internalType": "uint256",
          "name": "_nftId",
          "type": "uint256"
        }
      ],
      "name": "buyMarket",
      "outputs": [],
      "stateMutability": "nonpayable",
      "type": "function"
    },
    {
      "inputs": [
        {
          "internalType": "uint256",
          "name": "_nftId",
          "type": "uint256"
        }
      ],
      "name": "getMarketInfo",
      "outputs": [
        {
          "components": [
            {
              "internalType": "uint256",
              "name": "nftId",
              "type": "uint256"
            },
            {
              "internalType": "address",
              "name": "seller",
              "type": "address"
            },
            {
              "internalType": "uint256",
              "name": "price",
              "type": "uint256"
            }
          ],
          "internalType": "struct NFTMarket.Market",
          "name": "",
          "type": "tuple"
        }
      ],
      "stateMutability": "view",
      "type": "function"
    }
  ],
  "bytecode": "0x60806040523480156200001157600080fd5b5062000032620000266200003f60201b60201c565b6200004760201b60201c565b600180819055506200010b565b600033905090565b60008060009054906101000a900473ffffffffffffffffffffffffffffffffffffffff169050816000806101000a81548173ffffffffffffffffffffffffffffffffffffffff021916908373ffffffffffffffffffffffffffffffffffffffff1602179055508173ffffffffffffffffffffffffffffffffffffffff168173ffffffffffffffffffffffffffffffffffffffff167f8be0079c531659141344cd1fd0a4f28419497f9722a3daafe3b4186f6b6457e060405160405180910390a35050565b6141ba806200011b6000396000f3fe608060405234801561001057600080fd5b50600436106101375760003560e01c80637c16cd9e116100b8578063c7604fec1161007c578063c7604fec1461033f578063d3e6fa191461035b578063d56d229d14610379578063d750558f14610397578063f2fde38b146103c7578063f90852c7146103e357610137565b80637c16cd9e1461029b57806389666664146102b75780638da5cb5b146102d3578063b1283e77146102f1578063b6b55f251461032357610137565b806347734892116100ff578063477348921461020957806355a373d61461023957806356a6d9ef146102575780636f9fb98a14610273578063715018a61461029157610137565b806302c5115b1461013c5780631e6c598e1461015a5780632e1a7d4d1461018d57806336c67897146101a95780633ec79193146101d9575b600080fd5b6101446103ff565b6040516101519190613991565b60405180910390f35b610174600480360381019061016f9190613008565b610405565b60405161018494939291906135fb565b60405180910390f35b6101a760048036038101906101a29190613008565b610475565b005b6101c360048036038101906101be9190613008565b61081f565b6040516101d09190613954565b60405180910390f35b6101f360048036038101906101ee9190613008565b61095d565b6040516102009190613939565b60405180910390f35b610223600480360381019061021e9190612e52565b610a6e565b6040516102309190613991565b60405180910390f35b610241610ab7565b60405161024e91906136c3565b60405180910390f35b610271600480360381019061026c9190612eff565b610add565b005b61027b610e78565b6040516102889190613991565b60405180910390f35b610299610f2a565b005b6102b560048036038101906102b09190613008565b610fb2565b005b6102d160048036038101906102cc9190612eac565b611382565b005b6102db61179a565b6040516102e891906135a9565b60405180910390f35b61030b60048036038101906103069190613008565b6117c3565b60405161031a939291906139e3565b60405180910390f35b61033d60048036038101906103389190613008565b61180d565b005b61035960048036038101906103549190613062565b611b35565b005b610363611e6b565b60405161037091906136a1565b60405180910390f35b610381611f22565b60405161038e91906136de565b60405180910390f35b6103b160048036038101906103ac9190612f3f565b611f48565b6040516103be919061396f565b60405180910390f35b6103e160048036038101906103dc9190612e52565b612299565b005b6103fd60048036038101906103f89190613008565b612391565b005b60065481565b60056020528060005260406000206000915090508060000160009054906101000a900473ffffffffffffffffffffffffffffffffffffffff16908060010160009054906101000a900473ffffffffffffffffffffffffffffffffffffffff16908060020154908060030154905084565b600260015414156104bb576040517f08c379a00000000000000000000000000000000000000000000000000000000081526004016104b290613919565b60405180910390fd5b600260018190555060008111610506576040517f08c379a00000000000000000000000000000000000000000000000000000000081526004016104fd90613839565b60405180910390fd5b80600460003373ffffffffffffffffffffffffffffffffffffffff1673ffffffffffffffffffffffffffffffffffffffff168152602001908152602001600020541015610588576040517f08c379a000000000000000000000000000000000000000000000000000000000815260040161057f906137b9565b60405180910390fd5b600360009054906101000a900473ffffffffffffffffffffffffffffffffffffffff1673ffffffffffffffffffffffffffffffffffffffff16636153fced3033846040518463ffffffff1660e01b81526004016105e7939291906135c4565b602060405180830381600087803b15801561060157600080fd5b505af1158015610615573d6000803e3d6000fd5b505050506040513d601f19601f820116820180604052508101906106399190612fdb565b610678576040517f08c379a000000000000000000000000000000000000000000000000000000000815260040161066f90613779565b60405180910390fd5b80600460003373ffffffffffffffffffffffffffffffffffffffff1673ffffffffffffffffffffffffffffffffffffffff16815260200190815260200160002060008282546106c79190613bd5565b925050819055506106da336000836126f6565b3373ffffffffffffffffffffffffffffffffffffffff167f650fdf669e93aa6c8ff3defe2da9c12b64f1548e5e1e54e803f4c1beb6466c8e82600360009054906101000a900473ffffffffffffffffffffffffffffffffffffffff1673ffffffffffffffffffffffffffffffffffffffff166370a08231336040518263ffffffff1660e01b815260040161076e91906135a9565b60206040518083038186803b15801561078657600080fd5b505afa15801561079a573d6000803e3d6000fd5b505050506040513d601f19601f820116820180604052508101906107be9190613035565b600460003373ffffffffffffffffffffffffffffffffffffffff1673ffffffffffffffffffffffffffffffffffffffff1681526020019081526020016000205460405161080d93929190613a1a565b60405180910390a26001808190555050565b610827612c9d565b60008211801561083957506006548211155b610878576040517f08c379a000000000000000000000000000000000000000000000000000000000815260040161086f906138d9565b60405180910390fd5b600560008381526020019081526020016000206040518060800160405290816000820160009054906101000a900473ffffffffffffffffffffffffffffffffffffffff1673ffffffffffffffffffffffffffffffffffffffff1673ffffffffffffffffffffffffffffffffffffffff1681526020016001820160009054906101000a900473ffffffffffffffffffffffffffffffffffffffff1673ffffffffffffffffffffffffffffffffffffffff1673ffffffffffffffffffffffffffffffffffffffff168152602001600282015481526020016003820154815250509050919050565b610965612cf1565b600060086000848152602001908152602001600020604051806060016040529081600082015481526020016001820160009054906101000a900473ffffffffffffffffffffffffffffffffffffffff1673ffffffffffffffffffffffffffffffffffffffff1673ffffffffffffffffffffffffffffffffffffffff1681526020016002820154815250509050600073ffffffffffffffffffffffffffffffffffffffff16816020015173ffffffffffffffffffffffffffffffffffffffff161415610a65576040517f08c379a0000000000000000000000000000000000000000000000000000000008152600401610a5c906136f9565b60405180910390fd5b80915050919050565b6000600460008373ffffffffffffffffffffffffffffffffffffffff1673ffffffffffffffffffffffffffffffffffffffff168152602001908152602001600020549050919050565b600360009054906101000a900473ffffffffffffffffffffffffffffffffffffffff1681565b60026001541415610b23576040517f08c379a0000000000000000000000000000000000000000000000000000000008152600401610b1a90613919565b60405180910390fd5b6002600181905550600073ffffffffffffffffffffffffffffffffffffffff168273ffffffffffffffffffffffffffffffffffffffff161415610b9b576040517f08c379a0000000000000000000000000000000000000000000000000000000008152600401610b92906137f9565b60405180910390fd5b3373ffffffffffffffffffffffffffffffffffffffff168273ffffffffffffffffffffffffffffffffffffffff161415610c0a576040517f08c379a0000000000000000000000000000000000000000000000000000000008152600401610c0190613879565b60405180910390fd5b60008111610c4d576040517f08c379a0000000000000000000000000000000000000000000000000000000008152600401610c44906138f9565b60405180910390fd5b80600460003373ffffffffffffffffffffffffffffffffffffffff1673ffffffffffffffffffffffffffffffffffffffff168152602001908152602001600020541015610ccf576040517f08c379a0000000000000000000000000000000000000000000000000000000008152600401610cc6906137b9565b60405180910390fd5b80600460003373ffffffffffffffffffffffffffffffffffffffff1673ffffffffffffffffffffffffffffffffffffffff1681526020019081526020016000206000828254610d1e9190613bd5565b9250508190555080600460008473ffffffffffffffffffffffffffffffffffffffff1673ffffffffffffffffffffffffffffffffffffffff1681526020019081526020016000206000828254610d749190613b25565b92505081905550610d863383836126f6565b8173ffffffffffffffffffffffffffffffffffffffff163373ffffffffffffffffffffffffffffffffffffffff167f941baa54585e364d2377b71ffcd6321c9e8b3d1b46e3db66121ee5b08bf12acf83600460003373ffffffffffffffffffffffffffffffffffffffff1673ffffffffffffffffffffffffffffffffffffffff16815260200190815260200160002054600460008873ffffffffffffffffffffffffffffffffffffffff1673ffffffffffffffffffffffffffffffffffffffff16815260200190815260200160002054604051610e6593929190613a1a565b60405180910390a3600180819055505050565b6000600360009054906101000a900473ffffffffffffffffffffffffffffffffffffffff1673ffffffffffffffffffffffffffffffffffffffff166370a08231306040518263ffffffff1660e01b8152600401610ed591906135a9565b60206040518083038186803b158015610eed57600080fd5b505afa158015610f01573d6000803e3d6000fd5b505050506040513d601f19601f82011682018060405250810190610f259190613035565b905090565b610f326129ac565b73ffffffffffffffffffffffffffffffffffffffff16610f5061179a565b73ffffffffffffffffffffffffffffffffffffffff1614610fa6576040517f08c379a0000000000000000000000000000000000000000000000000000000008152600401610f9d90613819565b60405180910390fd5b610fb060006129b4565b565b60026001541415610ff8576040517f08c379a0000000000000000000000000000000000000000000000000000000008152600401610fef90613919565b60405180910390fd5b600260018190555060006008600083815260200190815260200160002090503073ffffffffffffffffffffffffffffffffffffffff16600260009054906101000a900473ffffffffffffffffffffffffffffffffffffffff1673ffffffffffffffffffffffffffffffffffffffff16636352211e846040518263ffffffff1660e01b81526004016110899190613991565b60206040518083038186803b1580156110a157600080fd5b505afa1580156110b5573d6000803e3d6000fd5b505050506040513d601f19601f820116820180604052508101906110d99190612e7f565b73ffffffffffffffffffffffffffffffffffffffff161461112f576040517f08c379a0000000000000000000000000000000000000000000000000000000008152600401611126906138b9565b60405180910390fd5b3373ffffffffffffffffffffffffffffffffffffffff168160010160009054906101000a900473ffffffffffffffffffffffffffffffffffffffff1673ffffffffffffffffffffffffffffffffffffffff16146111c1576040517f08c379a00000000000000000000000000000000000000000000000000000000081526004016111b8906137d9565b60405180910390fd5b600073ffffffffffffffffffffffffffffffffffffffff168160010160009054906101000a900473ffffffffffffffffffffffffffffffffffffffff1673ffffffffffffffffffffffffffffffffffffffff161415611255576040517f08c379a000000000000000000000000000000000000000000000000000000000815260040161124c90613859565b60405180910390fd5b600260009054906101000a900473ffffffffffffffffffffffffffffffffffffffff1673ffffffffffffffffffffffffffffffffffffffff166335b9594c8330336040518463ffffffff1660e01b81526004016112b4939291906139ac565b600060405180830381600087803b1580156112ce57600080fd5b505af11580156112e2573d6000803e3d6000fd5b50505050600860008381526020019081526020016000206000808201600090556001820160006101000a81549073ffffffffffffffffffffffffffffffffffffffff0219169055600282016000905550503373ffffffffffffffffffffffffffffffffffffffff16827f80cbe856a464968c63953aeb2dd84c12de3a0715985cae2ea35d3ed87e39ddc360405160405180910390a3506001808190555050565b61138a6129ac565b73ffffffffffffffffffffffffffffffffffffffff166113a861179a565b73ffffffffffffffffffffffffffffffffffffffff16146113fe576040517f08c379a00000000000000000000000000000000000000000000000000000000081526004016113f590613819565b60405180910390fd5b60026001541415611444576040517f08c379a000000000000000000000000000000000000000000000000000000000815260040161143b90613919565b60405180910390fd5b6002600181905550600073ffffffffffffffffffffffffffffffffffffffff168273ffffffffffffffffffffffffffffffffffffffff1614156114bc576040517f08c379a00000000000000000000000000000000000000000000000000000000081526004016114b3906137f9565b60405180910390fd5b8273ffffffffffffffffffffffffffffffffffffffff168273ffffffffffffffffffffffffffffffffffffffff16141561152b576040517f08c379a000000000000000000000000000000000000000000000000000000000815260040161152290613879565b60405180910390fd5b6000811161156e576040517f08c379a0000000000000000000000000000000000000000000000000000000008152600401611565906138f9565b60405180910390fd5b80600460008573ffffffffffffffffffffffffffffffffffffffff1673ffffffffffffffffffffffffffffffffffffffff1681526020019081526020016000205410156115f0576040517f08c379a00000000000000000000000000000000000000000000000000000000081526004016115e7906137b9565b60405180910390fd5b80600460008573ffffffffffffffffffffffffffffffffffffffff1673ffffffffffffffffffffffffffffffffffffffff168152602001908152602001600020600082825461163f9190613bd5565b9250508190555080600460008473ffffffffffffffffffffffffffffffffffffffff1673ffffffffffffffffffffffffffffffffffffffff16815260200190815260200160002060008282546116959190613b25565b925050819055506116a78383836126f6565b8173ffffffffffffffffffffffffffffffffffffffff168373ffffffffffffffffffffffffffffffffffffffff167f941baa54585e364d2377b71ffcd6321c9e8b3d1b46e3db66121ee5b08bf12acf83600460008873ffffffffffffffffffffffffffffffffffffffff1673ffffffffffffffffffffffffffffffffffffffff16815260200190815260200160002054600460008873ffffffffffffffffffffffffffffffffffffffff1673ffffffffffffffffffffffffffffffffffffffff1681526020019081526020016000205460405161178693929190613a1a565b60405180910390a360018081905550505050565b60008060009054906101000a900473ffffffffffffffffffffffffffffffffffffffff16905090565b60086020528060005260406000206000915090508060000154908060010160009054906101000a900473ffffffffffffffffffffffffffffffffffffffff16908060020154905083565b60026001541415611853576040517f08c379a000000000000000000000000000000000000000000000000000000000815260040161184a90613919565b60405180910390fd5b60026001819055506000811161189e576040517f08c379a000000000000000000000000000000000000000000000000000000000815260040161189590613719565b60405180910390fd5b600360009054906101000a900473ffffffffffffffffffffffffffffffffffffffff1673ffffffffffffffffffffffffffffffffffffffff16636153fced3330846040518463ffffffff1660e01b81526004016118fd939291906135c4565b602060405180830381600087803b15801561191757600080fd5b505af115801561192b573d6000803e3d6000fd5b505050506040513d601f19601f8201168201806040525081019061194f9190612fdb565b61198e576040517f08c379a000000000000000000000000000000000000000000000000000000000815260040161198590613779565b60405180910390fd5b80600460003373ffffffffffffffffffffffffffffffffffffffff1673ffffffffffffffffffffffffffffffffffffffff16815260200190815260200160002060008282546119dd9190613b25565b925050819055506119f0600033836126f6565b3373ffffffffffffffffffffffffffffffffffffffff167f36af321ec8d3c75236829c5317affd40ddb308863a1236d2d277a4025cccee1e82600360009054906101000a900473ffffffffffffffffffffffffffffffffffffffff1673ffffffffffffffffffffffffffffffffffffffff166370a08231336040518263ffffffff1660e01b8152600401611a8491906135a9565b60206040518083038186803b158015611a9c57600080fd5b505afa158015611ab0573d6000803e3d6000fd5b505050506040513d601f19601f82011682018060405250810190611ad49190613035565b600460003373ffffffffffffffffffffffffffffffffffffffff1673ffffffffffffffffffffffffffffffffffffffff16815260200190815260200160002054604051611b2393929190613a1a565b60405180910390a26001808190555050565b60026001541415611b7b576040517f08c379a0000000000000000000000000000000000000000000000000000000008152600401611b7290613919565b60405180910390fd5b60026001819055503373ffffffffffffffffffffffffffffffffffffffff16600260009054906101000a900473ffffffffffffffffffffffffffffffffffffffff1673ffffffffffffffffffffffffffffffffffffffff16636352211e846040518263ffffffff1660e01b8152600401611bf59190613991565b60206040518083038186803b158015611c0d57600080fd5b505afa158015611c21573d6000803e3d6000fd5b505050506040513d601f19601f82011682018060405250810190611c459190612e7f565b73ffffffffffffffffffffffffffffffffffffffff1614611c9b576040517f08c379a0000000000000000000000000000000000000000000000000000000008152600401611c92906137d9565b60405180910390fd5b60008111611cde576040517f08c379a0000000000000000000000000000000000000000000000000000000008152600401611cd590613739565b60405180910390fd5b600260009054906101000a900473ffffffffffffffffffffffffffffffffffffffff1673ffffffffffffffffffffffffffffffffffffffff166335b9594c8333306040518463ffffffff1660e01b8152600401611d3d939291906139ac565b600060405180830381600087803b158015611d5757600080fd5b505af1158015611d6b573d6000803e3d6000fd5b5050505060405180606001604052808381526020013373ffffffffffffffffffffffffffffffffffffffff16815260200182815250600860008481526020019081526020016000206000820151816000015560208201518160010160006101000a81548173ffffffffffffffffffffffffffffffffffffffff021916908373ffffffffffffffffffffffffffffffffffffffff160217905550604082015181600201559050503373ffffffffffffffffffffffffffffffffffffffff16827f557e20be357a3ff3fc08cf2b8e6986333057886a281d0409a7e751c3fd700ec083604051611e589190613991565b60405180910390a3600180819055505050565b6060600260009054906101000a900473ffffffffffffffffffffffffffffffffffffffff1673ffffffffffffffffffffffffffffffffffffffff1663e6b1fa2a306040518263ffffffff1660e01b8152600401611ec891906135a9565b60006040518083038186803b158015611ee057600080fd5b505afa158015611ef4573d6000803e3d6000fd5b505050506040513d6000823e3d601f19601f82011682018060405250810190611f1d9190612f92565b905090565b600260009054906101000a900473ffffffffffffffffffffffffffffffffffffffff1681565b611f50612d28565b6000600760008673ffffffffffffffffffffffffffffffffffffffff1673ffffffffffffffffffffffffffffffffffffffff168152602001908152602001600020905060008180549050905060008486611faa9190613b7b565b8211611fb7576000611fdb565b84600187611fc59190613b25565b611fcf9190613b7b565b82611fda9190613bd5565b5b905060008587611feb9190613b7b565b83611ff69190613bd5565b9050828211806120065750600082105b1561201057600091505b60008111158061202b57508286886120289190613b7b565b10155b156120ad576040518060600160405280600067ffffffffffffffff81111561205657612055613d71565b5b60405190808252806020026020018201604052801561208f57816020015b61207c612c9d565b8152602001906001900390816120745790505b50815260200184815260200160001515815250945050505050612292565b600082826120bb9190613bd5565b905060008167ffffffffffffffff8111156120d9576120d8613d71565b5b60405190808252806020026020018201604052801561211257816020015b6120ff612c9d565b8152602001906001900390816120f75790505b50905060005b82811015612263576005600088836001886121339190613bd5565b61213d9190613bd5565b8154811061214e5761214d613d42565b5b906000526020600020015481526020019081526020016000206040518060800160405290816000820160009054906101000a900473ffffffffffffffffffffffffffffffffffffffff1673ffffffffffffffffffffffffffffffffffffffff1673ffffffffffffffffffffffffffffffffffffffff1681526020016001820160009054906101000a900473ffffffffffffffffffffffffffffffffffffffff1673ffffffffffffffffffffffffffffffffffffffff1673ffffffffffffffffffffffffffffffffffffffff1681526020016002820154815260200160038201548152505082828151811061224557612244613d42565b5b6020026020010181905250808061225b90613cca565b915050612118565b506000808511905060405180606001604052808381526020018781526020018215158152509750505050505050505b9392505050565b6122a16129ac565b73ffffffffffffffffffffffffffffffffffffffff166122bf61179a565b73ffffffffffffffffffffffffffffffffffffffff1614612315576040517f08c379a000000000000000000000000000000000000000000000000000000000815260040161230c90613819565b60405180910390fd5b600073ffffffffffffffffffffffffffffffffffffffff168173ffffffffffffffffffffffffffffffffffffffff161415612385576040517f08c379a000000000000000000000000000000000000000000000000000000000815260040161237c90613759565b60405180910390fd5b61238e816129b4565b50565b600260015414156123d7576040517f08c379a00000000000000000000000000000000000000000000000000000000081526004016123ce90613919565b60405180910390fd5b60026001819055506000600860008381526020019081526020016000209050600073ffffffffffffffffffffffffffffffffffffffff168160010160009054906101000a900473ffffffffffffffffffffffffffffffffffffffff1673ffffffffffffffffffffffffffffffffffffffff16141561248a576040517f08c379a000000000000000000000000000000000000000000000000000000000815260040161248190613799565b60405180910390fd5b8060010160009054906101000a900473ffffffffffffffffffffffffffffffffffffffff1673ffffffffffffffffffffffffffffffffffffffff163373ffffffffffffffffffffffffffffffffffffffff16141561251d576040517f08c379a000000000000000000000000000000000000000000000000000000000815260040161251490613899565b60405180910390fd5b60008160020154905060008260010160009054906101000a900473ffffffffffffffffffffffffffffffffffffffff1690508161255933610a6e565b101561259a576040517f08c379a0000000000000000000000000000000000000000000000000000000008152600401612591906137b9565b60405180910390fd5b6125a5338284612a78565b600260009054906101000a900473ffffffffffffffffffffffffffffffffffffffff1673ffffffffffffffffffffffffffffffffffffffff166335b9594c8530336040518463ffffffff1660e01b8152600401612604939291906139ac565b600060405180830381600087803b15801561261e57600080fd5b505af1158015612632573d6000803e3d6000fd5b50505050600860008581526020019081526020016000206000808201600090556001820160006101000a81549073ffffffffffffffffffffffffffffffffffffffff0219169055600282016000905550503373ffffffffffffffffffffffffffffffffffffffff168173ffffffffffffffffffffffffffffffffffffffff16857f94ddf8232f3af1f844abb74cd56287ba5507090df04bf3c2e006bf74e904a283856040516126e19190613991565b60405180910390a45050506001808190555050565b6006600081548092919061270990613cca565b919050555060405180608001604052808473ffffffffffffffffffffffffffffffffffffffff1681526020018373ffffffffffffffffffffffffffffffffffffffff1681526020018281526020014281525060056000600654815260200190815260200160002060008201518160000160006101000a81548173ffffffffffffffffffffffffffffffffffffffff021916908373ffffffffffffffffffffffffffffffffffffffff16021790555060208201518160010160006101000a81548173ffffffffffffffffffffffffffffffffffffffff021916908373ffffffffffffffffffffffffffffffffffffffff1602179055506040820151816002015560608201518160030155905050600760008473ffffffffffffffffffffffffffffffffffffffff1673ffffffffffffffffffffffffffffffffffffffff1681526020019081526020016000206006549080600181540180825580915050600190039060005260206000200160009091909190915055600760008373ffffffffffffffffffffffffffffffffffffffff1673ffffffffffffffffffffffffffffffffffffffff16815260200190815260200160002060065490806001815401808255809150506001900390600052602060002001600090919091909150556006547fc09ae797f474a8568a060562997bd2e2f8dc85b50a348036d10095b3dbbfeeba84848442600460008a73ffffffffffffffffffffffffffffffffffffffff1673ffffffffffffffffffffffffffffffffffffffff16815260200190815260200160002054600460008a73ffffffffffffffffffffffffffffffffffffffff1673ffffffffffffffffffffffffffffffffffffffff1681526020019081526020016000205460405161299f96959493929190613640565b60405180910390a2505050565b600033905090565b60008060009054906101000a900473ffffffffffffffffffffffffffffffffffffffff169050816000806101000a81548173ffffffffffffffffffffffffffffffffffffffff021916908373ffffffffffffffffffffffffffffffffffffffff1602179055508173ffffffffffffffffffffffffffffffffffffffff168173ffffffffffffffffffffffffffffffffffffffff167f8be0079c531659141344cd1fd0a4f28419497f9722a3daafe3b4186f6b6457e060405160405180910390a35050565b80600460008573ffffffffffffffffffffffffffffffffffffffff1673ffffffffffffffffffffffffffffffffffffffff168152602001908152602001600020541015612afa576040517f08c379a0000000000000000000000000000000000000000000000000000000008152600401612af1906137b9565b60405180910390fd5b80600460008573ffffffffffffffffffffffffffffffffffffffff1673ffffffffffffffffffffffffffffffffffffffff1681526020019081526020016000206000828254612b499190613bd5565b9250508190555080600460008473ffffffffffffffffffffffffffffffffffffffff1673ffffffffffffffffffffffffffffffffffffffff1681526020019081526020016000206000828254612b9f9190613b25565b92505081905550612bb18383836126f6565b8173ffffffffffffffffffffffffffffffffffffffff168373ffffffffffffffffffffffffffffffffffffffff167f545d69fe7f063ec653f15db654097f27f5cadbe11750199a40fd55b2504c6b4d83600460008873ffffffffffffffffffffffffffffffffffffffff1673ffffffffffffffffffffffffffffffffffffffff16815260200190815260200160002054600460008873ffffffffffffffffffffffffffffffffffffffff1673ffffffffffffffffffffffffffffffffffffffff16815260200190815260200160002054604051612c9093929190613a1a565b60405180910390a3505050565b6040518060800160405280600073ffffffffffffffffffffffffffffffffffffffff168152602001600073ffffffffffffffffffffffffffffffffffffffff16815260200160008152602001600081525090565b604051806060016040528060008152602001600073ffffffffffffffffffffffffffffffffffffffff168152602001600081525090565b604051806060016040528060608152602001600081526020016000151581525090565b6000612d5e612d5984613a76565b613a51565b90508083825260208201905082856020860282011115612d8157612d80613da5565b5b60005b85811015612db15781612d978882612e3d565b845260208401935060208301925050600181019050612d84565b5050509392505050565b600081359050612dca8161413f565b92915050565b600081519050612ddf8161413f565b92915050565b600082601f830112612dfa57612df9613da0565b5b8151612e0a848260208601612d4b565b91505092915050565b600081519050612e2281614156565b92915050565b600081359050612e378161416d565b92915050565b600081519050612e4c8161416d565b92915050565b600060208284031215612e6857612e67613daf565b5b6000612e7684828501612dbb565b91505092915050565b600060208284031215612e9557612e94613daf565b5b6000612ea384828501612dd0565b91505092915050565b600080600060608486031215612ec557612ec4613daf565b5b6000612ed386828701612dbb565b9350506020612ee486828701612dbb565b9250506040612ef586828701612e28565b9150509250925092565b60008060408385031215612f1657612f15613daf565b5b6000612f2485828601612dbb565b9250506020612f3585828601612e28565b9150509250929050565b600080600060608486031215612f5857612f57613daf565b5b6000612f6686828701612dbb565b9350506020612f7786828701612e28565b9250506040612f8886828701612e28565b9150509250925092565b600060208284031215612fa857612fa7613daf565b5b600082015167ffffffffffffffff811115612fc657612fc5613daa565b5b612fd284828501612de5565b91505092915050565b600060208284031215612ff157612ff0613daf565b5b6000612fff84828501612e13565b91505092915050565b60006020828403121561301e5761301d613daf565b5b600061302c84828501612e28565b91505092915050565b60006020828403121561304b5761304a613daf565b5b600061305984828501612e3d565b91505092915050565b6000806040838503121561307957613078613daf565b5b600061308785828601612e28565b925050602061309885828601612e28565b9150509250929050565b60006130ae8383613491565b60808301905092915050565b60006130c6838361358b565b60208301905092915050565b6130db81613c09565b82525050565b6130ea81613c09565b82525050565b60006130fb82613ac2565b6131058185613af2565b935061311083613aa2565b8060005b8381101561314157815161312888826130a2565b975061313383613ad8565b925050600181019050613114565b5085935050505092915050565b600061315982613acd565b6131638185613b03565b935061316e83613ab2565b8060005b8381101561319f57815161318688826130ba565b975061319183613ae5565b925050600181019050613172565b5085935050505092915050565b6131b581613c1b565b82525050565b6131c481613c51565b82525050565b6131d381613c63565b82525050565b60006131e6602083613b14565b91506131f182613dc5565b602082019050919050565b6000613209602583613b14565b915061321482613dee565b604082019050919050565b600061322c601f83613b14565b915061323782613e3d565b602082019050919050565b600061324f602683613b14565b915061325a82613e66565b604082019050919050565b6000613272600f83613b14565b915061327d82613eb5565b602082019050919050565b6000613295601883613b14565b91506132a082613ede565b602082019050919050565b60006132b8601483613b14565b91506132c382613f07565b602082019050919050565b60006132db601683613b14565b91506132e682613f30565b602082019050919050565b60006132fe601983613b14565b915061330982613f59565b602082019050919050565b6000613321602083613b14565b915061332c82613f82565b602082019050919050565b6000613344602883613b14565b915061334f82613fab565b604082019050919050565b6000613367601a83613b14565b915061337282613ffa565b602082019050919050565b600061338a601b83613b14565b915061339582614023565b602082019050919050565b60006133ad601a83613b14565b91506133b88261404c565b602082019050919050565b60006133d0601183613b14565b91506133db82614075565b602082019050919050565b60006133f3601083613b14565b91506133fe8261409e565b602082019050919050565b6000613416602683613b14565b9150613421826140c7565b604082019050919050565b6000613439601f83613b14565b915061344482614116565b602082019050919050565b606082016000820151613465600085018261358b565b50602082015161347860208501826130d2565b50604082015161348b604085018261358b565b50505050565b6080820160008201516134a760008501826130d2565b5060208201516134ba60208501826130d2565b5060408201516134cd604085018261358b565b5060608201516134e0606085018261358b565b50505050565b6080820160008201516134fc60008501826130d2565b50602082015161350f60208501826130d2565b506040820151613522604085018261358b565b506060820151613535606085018261358b565b50505050565b6000606083016000830151848203600086015261355882826130f0565b915050602083015161356d602086018261358b565b50604083015161358060408601826131ac565b508091505092915050565b61359481613c47565b82525050565b6135a381613c47565b82525050565b60006020820190506135be60008301846130e1565b92915050565b60006060820190506135d960008301866130e1565b6135e660208301856130e1565b6135f3604083018461359a565b949350505050565b600060808201905061361060008301876130e1565b61361d60208301866130e1565b61362a604083018561359a565b613637606083018461359a565b95945050505050565b600060c08201905061365560008301896130e1565b61366260208301886130e1565b61366f604083018761359a565b61367c606083018661359a565b613689608083018561359a565b61369660a083018461359a565b979650505050505050565b600060208201905081810360008301526136bb818461314e565b905092915050565b60006020820190506136d860008301846131bb565b92915050565b60006020820190506136f360008301846131ca565b92915050565b60006020820190508181036000830152613712816131d9565b9050919050565b60006020820190508181036000830152613732816131fc565b9050919050565b600060208201905081810360008301526137528161321f565b9050919050565b6000602082019050818103600083015261377281613242565b9050919050565b6000602082019050818103600083015261379281613265565b9050919050565b600060208201905081810360008301526137b281613288565b9050919050565b600060208201905081810360008301526137d2816132ab565b9050919050565b600060208201905081810360008301526137f2816132ce565b9050919050565b60006020820190508181036000830152613812816132f1565b9050919050565b6000602082019050818103600083015261383281613314565b9050919050565b6000602082019050818103600083015261385281613337565b9050919050565b600060208201905081810360008301526138728161335a565b9050919050565b600060208201905081810360008301526138928161337d565b9050919050565b600060208201905081810360008301526138b2816133a0565b9050919050565b600060208201905081810360008301526138d2816133c3565b9050919050565b600060208201905081810360008301526138f2816133e6565b9050919050565b6000602082019050818103600083015261391281613409565b9050919050565b600060208201905081810360008301526139328161342c565b9050919050565b600060608201905061394e600083018461344f565b92915050565b600060808201905061396960008301846134e6565b92915050565b60006020820190508181036000830152613989818461353b565b905092915050565b60006020820190506139a6600083018461359a565b92915050565b60006060820190506139c1600083018661359a565b6139ce60208301856130e1565b6139db60408301846130e1565b949350505050565b60006060820190506139f8600083018661359a565b613a0560208301856130e1565b613a12604083018461359a565b949350505050565b6000606082019050613a2f600083018661359a565b613a3c602083018561359a565b613a49604083018461359a565b949350505050565b6000613a5b613a6c565b9050613a678282613c99565b919050565b6000604051905090565b600067ffffffffffffffff821115613a9157613a90613d71565b5b602082029050602081019050919050565b6000819050602082019050919050565b6000819050602082019050919050565b600081519050919050565b600081519050919050565b6000602082019050919050565b6000602082019050919050565b600082825260208201905092915050565b600082825260208201905092915050565b600082825260208201905092915050565b6000613b3082613c47565b9150613b3b83613c47565b9250827fffffffffffffffffffffffffffffffffffffffffffffffffffffffffffffffff03821115613b7057613b6f613d13565b5b828201905092915050565b6000613b8682613c47565b9150613b9183613c47565b9250817fffffffffffffffffffffffffffffffffffffffffffffffffffffffffffffffff0483118215151615613bca57613bc9613d13565b5b828202905092915050565b6000613be082613c47565b9150613beb83613c47565b925082821015613bfe57613bfd613d13565b5b828203905092915050565b6000613c1482613c27565b9050919050565b60008115159050919050565b600073ffffffffffffffffffffffffffffffffffffffff82169050919050565b6000819050919050565b6000613c5c82613c75565b9050919050565b6000613c6e82613c75565b9050919050565b6000613c8082613c87565b9050919050565b6000613c9282613c27565b9050919050565b613ca282613db4565b810181811067ffffffffffffffff82111715613cc157613cc0613d71565b5b80604052505050565b6000613cd582613c47565b91507fffffffffffffffffffffffffffffffffffffffffffffffffffffffffffffffff821415613d0857613d07613d13565b5b600182019050919050565b7f4e487b7100000000000000000000000000000000000000000000000000000000600052601160045260246000fd5b7f4e487b7100000000000000000000000000000000000000000000000000000000600052603260045260246000fd5b7f4e487b7100000000000000000000000000000000000000000000000000000000600052604160045260246000fd5b600080fd5b600080fd5b600080fd5b600080fd5b6000601f19601f8301169050919050565b7f53656c6c20646f6573206e6f7420657869737420666f722074686973204e4654600082015250565b7f4465706f73697420616d6f756e74206d7573742062652067726561746572207460008201527f68616e2030000000000000000000000000000000000000000000000000000000602082015250565b7f5072696365206d7573742062652067726561746572207468616e207a65726f00600082015250565b7f4f776e61626c653a206e6577206f776e657220697320746865207a65726f206160008201527f6464726573730000000000000000000000000000000000000000000000000000602082015250565b7f5472616e73666572206661696c65640000000000000000000000000000000000600082015250565b7f54686973204e4654206973206e6f7420666f722073616c650000000000000000600082015250565b7f496e73756666696369656e742062616c616e6365000000000000000000000000600082015250565b7f596f7520646f6e2774206f776e2074686973204e465400000000000000000000600082015250565b7f496e76616c696420726563697069656e74206164647265737300000000000000600082015250565b7f4f776e61626c653a2063616c6c6572206973206e6f7420746865206f776e6572600082015250565b7f5769746864726177616c20616d6f756e74206d7573742062652067726561746560008201527f72207468616e2030000000000000000000000000000000000000000000000000602082015250565b7f54686973206d61726b657420646f6573206e6f74206578697374000000000000600082015250565b7f43616e6e6f74207472616e7366657220746f20796f757273656c660000000000600082015250565b7f596f752063616e27742062757920796f7572206f776e204e4654000000000000600082015250565b7f4e4654206e6f7420696e206d61726b6574000000000000000000000000000000600082015250565b7f496e76616c696420747261646520494400000000000000000000000000000000600082015250565b7f5472616e7366657220616d6f756e74206d75737420626520677265617465722060008201527f7468616e20300000000000000000000000000000000000000000000000000000602082015250565b7f5265656e7472616e637947756172643a207265656e7472616e742063616c6c00600082015250565b61414881613c09565b811461415357600080fd5b50565b61415f81613c1b565b811461416a57600080fd5b50565b61417681613c47565b811461418157600080fd5b5056fea26469706673582212204fc8994f057b2a94ffc1850ef12ee7b43d257fda8aeba07ab179a688598765f364736f6c63430008070033",
  "immutableReferences": {},
  "source": "// SPDX-License-Identifier: MIT\r\npragma solidity ^0.8.7;\r\n\r\nimport \"./TradeBase.sol\";\r\n\r\ncontract NFTMarket is TradeBase {\r\n    struct Market {\r\n        uint256 nftId;\r\n        address seller;\r\n        uint256 price;\r\n    }\r\n\r\n    mapping(uint256 => Market) public markets;\r\n\r\n    event MarketCreated(uint256 indexed nftId, address indexed seller, uint256 price);\r\n    event MarketCancelled(uint256 indexed nftId, address indexed seller);\r\n    event MarketSold(uint256 indexed nftId, address indexed seller, address indexed buyer, uint256 price);\r\n\r\n    //  \r\n    function createMarket(uint256 _nftId, uint256 price) external nonReentrant {\r\n        require(nftContract.ownerOf(_nftId) == msg.sender, \"You don't own this NFT\");\r\n        require(price > 0, \"Price must be greater than zero\");\r\n        \r\n        nftContract.transferNFTByAdmin(_nftId, msg.sender, address(this));\r\n\r\n        markets[_nftId] = Market({\r\n            nftId: _nftId,\r\n            seller: msg.sender,\r\n            price: price\r\n        });\r\n\r\n        emit MarketCreated(_nftId, msg.sender, price);\r\n    }\r\n\r\n    //  \r\n    function cancelMarket(uint256 _nftId) external nonReentrant {\r\n        Market storage market = markets[_nftId];\r\n        require(nftContract.ownerOf(_nftId) == address(this), \"NFT not in market\");\r\n        require(market.seller == msg.sender, \"You don't own this NFT\");\r\n        require(market.seller != address(0), \"This market does not exist\");\r\n\r\n        nftContract.transferNFTByAdmin(_nftId, address(this), msg.sender);\r\n\r\n        delete markets[_nftId];\r\n\r\n        emit MarketCancelled(_nftId, msg.sender);\r\n    }\r\n\r\n    //  \r\n    function buyMarket(uint256 _nftId) external nonReentrant {\r\n        Market storage market = markets[_nftId];\r\n        require(market.seller != address(0), \"This NFT is not for sale\");\r\n        require(msg.sender != market.seller, \"You can't buy your own NFT\");\r\n\r\n        uint256 price = market.price;\r\n        address seller = market.seller;\r\n\r\n        require(getUserBalance(msg.sender) >= price, \"Insufficient balance\");\r\n  \r\n        _adjustBalances(msg.sender, seller, price);\r\n\r\n        nftContract.transferNFTByAdmin(_nftId, address(this), msg.sender);\r\n\r\n        delete markets[_nftId];\r\n\r\n        emit MarketSold(_nftId, seller, msg.sender, price);\r\n    }\r\n\r\n    function getMarketInfo(uint256 _nftId) public view returns (Market memory) {\r\n        Market memory market = markets[_nftId];\r\n        require(market.seller != address(0), \"Sell does not exist for this NFT\");\r\n        return market;\r\n    }\r\n}",
  "sourcePath": "C:\\Users\\SSAFY\\Desktop\\semonemo\\backend\\blockchain-server\\smartcontract\\contracts\\NFTMarket.sol",
  "compiler": {
    "name": "solc",
    "version": "0.8.7+commit.e28d00a7.Emscripten.clang"
  },
  "schemaVersion": "3.4.16",
  "updatedAt": "2024-10-07T06:34:24.331Z",
  "devdoc": {
    "kind": "dev",
    "methods": {
      "owner()": {
        "details": "Returns the address of the current owner."
      },
      "renounceOwnership()": {
        "details": "Leaves the contract without owner. It will not be possible to call `onlyOwner` functions anymore. Can only be called by the current owner. NOTE: Renouncing ownership will leave the contract without an owner, thereby removing any functionality that is only available to the owner."
      },
      "transferOwnership(address)": {
        "details": "Transfers ownership of the contract to a new account (`newOwner`). Can only be called by the current owner."
      }
    },
    "version": 1
  },
  "userdoc": {
    "kind": "user",
    "methods": {},
    "version": 1
  }
}