{
  "contractName": "TradeBase",
  "abi": [
    {
      "anonymous": false,
      "inputs": [
        {
          "indexed": true,
          "internalType": "address",
          "name": "from",
          "type": "address"
        },
        {
          "indexed": true,
          "internalType": "address",
          "name": "to",
          "type": "address"
        },
        {
          "indexed": false,
          "internalType": "uint256",
          "name": "amount",
          "type": "uint256"
        }
      ],
      "name": "BalanceAdjusted",
      "type": "event"
    },
    {
      "anonymous": false,
      "inputs": [
        {
          "indexed": true,
          "internalType": "address",
          "name": "user",
          "type": "address"
        },
        {
          "indexed": false,
          "internalType": "uint256",
          "name": "amount",
          "type": "uint256"
        }
      ],
      "name": "Deposit",
      "type": "event"
    },
    {
      "anonymous": false,
      "inputs": [
        {
          "indexed": true,
          "internalType": "address",
          "name": "previousOwner",
          "type": "address"
        },
        {
          "indexed": true,
          "internalType": "address",
          "name": "newOwner",
          "type": "address"
        }
      ],
      "name": "OwnershipTransferred",
      "type": "event"
    },
    {
      "anonymous": false,
      "inputs": [
        {
          "indexed": true,
          "internalType": "address",
          "name": "user",
          "type": "address"
        },
        {
          "indexed": false,
          "internalType": "uint256",
          "name": "amount",
          "type": "uint256"
        }
      ],
      "name": "Withdrawal",
      "type": "event"
    },
    {
      "inputs": [],
      "name": "nftContract",
      "outputs": [
        {
          "internalType": "contract NFTFrame",
          "name": "",
          "type": "address"
        }
      ],
      "stateMutability": "view",
      "type": "function"
    },
    {
      "inputs": [],
      "name": "owner",
      "outputs": [
        {
          "internalType": "address",
          "name": "",
          "type": "address"
        }
      ],
      "stateMutability": "view",
      "type": "function"
    },
    {
      "inputs": [],
      "name": "renounceOwnership",
      "outputs": [],
      "stateMutability": "nonpayable",
      "type": "function"
    },
    {
      "inputs": [],
      "name": "tokenContract",
      "outputs": [
        {
          "internalType": "contract AhoraCoin",
          "name": "",
          "type": "address"
        }
      ],
      "stateMutability": "view",
      "type": "function"
    },
    {
      "inputs": [
        {
          "internalType": "address",
          "name": "newOwner",
          "type": "address"
        }
      ],
      "name": "transferOwnership",
      "outputs": [],
      "stateMutability": "nonpayable",
      "type": "function"
    },
    {
      "inputs": [
        {
          "internalType": "uint256",
          "name": "amount",
          "type": "uint256"
        }
      ],
      "name": "deposit",
      "outputs": [],
      "stateMutability": "nonpayable",
      "type": "function"
    },
    {
      "inputs": [
        {
          "internalType": "uint256",
          "name": "amount",
          "type": "uint256"
        }
      ],
      "name": "withdraw",
      "outputs": [],
      "stateMutability": "nonpayable",
      "type": "function"
    },
    {
      "inputs": [],
      "name": "getContractOwnedNFTs",
      "outputs": [
        {
          "internalType": "uint256[]",
          "name": "",
          "type": "uint256[]"
        }
      ],
      "stateMutability": "view",
      "type": "function"
    },
    {
      "inputs": [],
      "name": "getContractBalance",
      "outputs": [
        {
          "internalType": "uint256",
          "name": "",
          "type": "uint256"
        }
      ],
      "stateMutability": "view",
      "type": "function"
    },
    {
      "inputs": [
        {
          "internalType": "address",
          "name": "user",
          "type": "address"
        }
      ],
      "name": "getUserBalance",
      "outputs": [
        {
          "internalType": "uint256",
          "name": "",
          "type": "uint256"
        }
      ],
      "stateMutability": "view",
      "type": "function"
    }
  ],
  "bytecode": "0x608060405234801561001057600080fd5b5061002d61002261003960201b60201c565b61004160201b60201c565b60018081905550610105565b600033905090565b60008060009054906101000a900473ffffffffffffffffffffffffffffffffffffffff169050816000806101000a81548173ffffffffffffffffffffffffffffffffffffffff021916908373ffffffffffffffffffffffffffffffffffffffff1602179055508173ffffffffffffffffffffffffffffffffffffffff168173ffffffffffffffffffffffffffffffffffffffff167f8be0079c531659141344cd1fd0a4f28419497f9722a3daafe3b4186f6b6457e060405160405180910390a35050565b611500806101146000396000f3fe608060405234801561001057600080fd5b506004361061009e5760003560e01c80638da5cb5b116100665780638da5cb5b14610135578063b6b55f2514610153578063d3e6fa191461016f578063d56d229d1461018d578063f2fde38b146101ab5761009e565b80632e1a7d4d146100a357806347734892146100bf57806355a373d6146100ef5780636f9fb98a1461010d578063715018a61461012b575b600080fd5b6100bd60048036038101906100b89190610cad565b6101c7565b005b6100d960048036038101906100d49190610c0a565b610476565b6040516100e69190611070565b60405180910390f35b6100f76104bf565b6040516101049190610f5a565b60405180910390f35b6101156104e5565b6040516101229190611070565b60405180910390f35b610133610597565b005b61013d61061f565b60405161014a9190610ebd565b60405180910390f35b61016d60048036038101906101689190610cad565b610648565b005b610177610877565b6040516101849190610f38565b60405180910390f35b61019561092e565b6040516101a29190610f75565b60405180910390f35b6101c560048036038101906101c09190610c0a565b610954565b005b6002600154141561020d576040517f08c379a000000000000000000000000000000000000000000000000000000000815260040161020490611050565b60405180910390fd5b600260018190555060008111610258576040517f08c379a000000000000000000000000000000000000000000000000000000000815260040161024f90611030565b60405180910390fd5b80600460003373ffffffffffffffffffffffffffffffffffffffff1673ffffffffffffffffffffffffffffffffffffffff1681526020019081526020016000205410156102da576040517f08c379a00000000000000000000000000000000000000000000000000000000081526004016102d190610ff0565b60405180910390fd5b80600460003373ffffffffffffffffffffffffffffffffffffffff1673ffffffffffffffffffffffffffffffffffffffff1681526020019081526020016000206000828254610329919061117c565b92505081905550600360009054906101000a900473ffffffffffffffffffffffffffffffffffffffff1673ffffffffffffffffffffffffffffffffffffffff16631b33a8db33836040518363ffffffff1660e01b815260040161038d929190610f0f565b602060405180830381600087803b1580156103a757600080fd5b505af11580156103bb573d6000803e3d6000fd5b505050506040513d601f19601f820116820180604052508101906103df9190610c80565b61041e576040517f08c379a000000000000000000000000000000000000000000000000000000000815260040161041590610fd0565b60405180910390fd5b3373ffffffffffffffffffffffffffffffffffffffff167f7fcf532c15f0a6db0bd6d0e038bea71d30d808c7d98cb3bf7268a95bf5081b65826040516104649190611070565b60405180910390a26001808190555050565b6000600460008373ffffffffffffffffffffffffffffffffffffffff1673ffffffffffffffffffffffffffffffffffffffff168152602001908152602001600020549050919050565b600360009054906101000a900473ffffffffffffffffffffffffffffffffffffffff1681565b6000600360009054906101000a900473ffffffffffffffffffffffffffffffffffffffff1673ffffffffffffffffffffffffffffffffffffffff166370a08231306040518263ffffffff1660e01b81526004016105429190610ebd565b60206040518083038186803b15801561055a57600080fd5b505afa15801561056e573d6000803e3d6000fd5b505050506040513d601f19601f820116820180604052508101906105929190610cda565b905090565b61059f610a4c565b73ffffffffffffffffffffffffffffffffffffffff166105bd61061f565b73ffffffffffffffffffffffffffffffffffffffff1614610613576040517f08c379a000000000000000000000000000000000000000000000000000000000815260040161060a90611010565b60405180910390fd5b61061d6000610a54565b565b60008060009054906101000a900473ffffffffffffffffffffffffffffffffffffffff16905090565b6002600154141561068e576040517f08c379a000000000000000000000000000000000000000000000000000000000815260040161068590611050565b60405180910390fd5b6002600181905550600081116106d9576040517f08c379a00000000000000000000000000000000000000000000000000000000081526004016106d090610f90565b60405180910390fd5b600360009054906101000a900473ffffffffffffffffffffffffffffffffffffffff1673ffffffffffffffffffffffffffffffffffffffff1663f67ac38c3330846040518463ffffffff1660e01b815260040161073893929190610ed8565b602060405180830381600087803b15801561075257600080fd5b505af1158015610766573d6000803e3d6000fd5b505050506040513d601f19601f8201168201806040525081019061078a9190610c80565b6107c9576040517f08c379a00000000000000000000000000000000000000000000000000000000081526004016107c090610fd0565b60405180910390fd5b80600460003373ffffffffffffffffffffffffffffffffffffffff1673ffffffffffffffffffffffffffffffffffffffff16815260200190815260200160002060008282546108189190611126565b925050819055503373ffffffffffffffffffffffffffffffffffffffff167fe1fffcc4923d04b559f4d29a8bfc6cda04eb5b0d3c460751c2402c5c5cc9109c826040516108659190611070565b60405180910390a26001808190555050565b6060600260009054906101000a900473ffffffffffffffffffffffffffffffffffffffff1673ffffffffffffffffffffffffffffffffffffffff1663e6b1fa2a306040518263ffffffff1660e01b81526004016108d49190610ebd565b60006040518083038186803b1580156108ec57600080fd5b505afa158015610900573d6000803e3d6000fd5b505050506040513d6000823e3d601f19601f820116820180604052508101906109299190610c37565b905090565b600260009054906101000a900473ffffffffffffffffffffffffffffffffffffffff1681565b61095c610a4c565b73ffffffffffffffffffffffffffffffffffffffff1661097a61061f565b73ffffffffffffffffffffffffffffffffffffffff16146109d0576040517f08c379a00000000000000000000000000000000000000000000000000000000081526004016109c790611010565b60405180910390fd5b600073ffffffffffffffffffffffffffffffffffffffff168173ffffffffffffffffffffffffffffffffffffffff161415610a40576040517f08c379a0000000000000000000000000000000000000000000000000000000008152600401610a3790610fb0565b60405180910390fd5b610a4981610a54565b50565b600033905090565b60008060009054906101000a900473ffffffffffffffffffffffffffffffffffffffff169050816000806101000a81548173ffffffffffffffffffffffffffffffffffffffff021916908373ffffffffffffffffffffffffffffffffffffffff1602179055508173ffffffffffffffffffffffffffffffffffffffff168173ffffffffffffffffffffffffffffffffffffffff167f8be0079c531659141344cd1fd0a4f28419497f9722a3daafe3b4186f6b6457e060405160405180910390a35050565b6000610b2b610b26846110b0565b61108b565b90508083825260208201905082856020860282011115610b4e57610b4d6112d4565b5b60005b85811015610b7e5781610b648882610bf5565b845260208401935060208301925050600181019050610b51565b5050509392505050565b600081359050610b9781611485565b92915050565b600082601f830112610bb257610bb16112cf565b5b8151610bc2848260208601610b18565b91505092915050565b600081519050610bda8161149c565b92915050565b600081359050610bef816114b3565b92915050565b600081519050610c04816114b3565b92915050565b600060208284031215610c2057610c1f6112de565b5b6000610c2e84828501610b88565b91505092915050565b600060208284031215610c4d57610c4c6112de565b5b600082015167ffffffffffffffff811115610c6b57610c6a6112d9565b5b610c7784828501610b9d565b91505092915050565b600060208284031215610c9657610c956112de565b5b6000610ca484828501610bcb565b91505092915050565b600060208284031215610cc357610cc26112de565b5b6000610cd184828501610be0565b91505092915050565b600060208284031215610cf057610cef6112de565b5b6000610cfe84828501610bf5565b91505092915050565b6000610d138383610e9f565b60208301905092915050565b610d28816111b0565b82525050565b6000610d39826110ec565b610d438185611104565b9350610d4e836110dc565b8060005b83811015610d7f578151610d668882610d07565b9750610d71836110f7565b925050600181019050610d52565b5085935050505092915050565b610d95816111f8565b82525050565b610da48161120a565b82525050565b6000610db7602583611115565b9150610dc2826112f4565b604082019050919050565b6000610dda602683611115565b9150610de582611343565b604082019050919050565b6000610dfd600f83611115565b9150610e0882611392565b602082019050919050565b6000610e20601483611115565b9150610e2b826113bb565b602082019050919050565b6000610e43602083611115565b9150610e4e826113e4565b602082019050919050565b6000610e66602883611115565b9150610e718261140d565b604082019050919050565b6000610e89601f83611115565b9150610e948261145c565b602082019050919050565b610ea8816111ee565b82525050565b610eb7816111ee565b82525050565b6000602082019050610ed26000830184610d1f565b92915050565b6000606082019050610eed6000830186610d1f565b610efa6020830185610d1f565b610f076040830184610eae565b949350505050565b6000604082019050610f246000830185610d1f565b610f316020830184610eae565b9392505050565b60006020820190508181036000830152610f528184610d2e565b905092915050565b6000602082019050610f6f6000830184610d8c565b92915050565b6000602082019050610f8a6000830184610d9b565b92915050565b60006020820190508181036000830152610fa981610daa565b9050919050565b60006020820190508181036000830152610fc981610dcd565b9050919050565b60006020820190508181036000830152610fe981610df0565b9050919050565b6000602082019050818103600083015261100981610e13565b9050919050565b6000602082019050818103600083015261102981610e36565b9050919050565b6000602082019050818103600083015261104981610e59565b9050919050565b6000602082019050818103600083015261106981610e7c565b9050919050565b60006020820190506110856000830184610eae565b92915050565b60006110956110a6565b90506110a18282611240565b919050565b6000604051905090565b600067ffffffffffffffff8211156110cb576110ca6112a0565b5b602082029050602081019050919050565b6000819050602082019050919050565b600081519050919050565b6000602082019050919050565b600082825260208201905092915050565b600082825260208201905092915050565b6000611131826111ee565b915061113c836111ee565b9250827fffffffffffffffffffffffffffffffffffffffffffffffffffffffffffffffff0382111561117157611170611271565b5b828201905092915050565b6000611187826111ee565b9150611192836111ee565b9250828210156111a5576111a4611271565b5b828203905092915050565b60006111bb826111ce565b9050919050565b60008115159050919050565b600073ffffffffffffffffffffffffffffffffffffffff82169050919050565b6000819050919050565b60006112038261121c565b9050919050565b60006112158261121c565b9050919050565b60006112278261122e565b9050919050565b6000611239826111ce565b9050919050565b611249826112e3565b810181811067ffffffffffffffff82111715611268576112676112a0565b5b80604052505050565b7f4e487b7100000000000000000000000000000000000000000000000000000000600052601160045260246000fd5b7f4e487b7100000000000000000000000000000000000000000000000000000000600052604160045260246000fd5b600080fd5b600080fd5b600080fd5b600080fd5b6000601f19601f8301169050919050565b7f4465706f73697420616d6f756e74206d7573742062652067726561746572207460008201527f68616e2030000000000000000000000000000000000000000000000000000000602082015250565b7f4f776e61626c653a206e6577206f776e657220697320746865207a65726f206160008201527f6464726573730000000000000000000000000000000000000000000000000000602082015250565b7f5472616e73666572206661696c65640000000000000000000000000000000000600082015250565b7f496e73756666696369656e742062616c616e6365000000000000000000000000600082015250565b7f4f776e61626c653a2063616c6c6572206973206e6f7420746865206f776e6572600082015250565b7f5769746864726177616c20616d6f756e74206d7573742062652067726561746560008201527f72207468616e2030000000000000000000000000000000000000000000000000602082015250565b7f5265656e7472616e637947756172643a207265656e7472616e742063616c6c00600082015250565b61148e816111b0565b811461149957600080fd5b50565b6114a5816111c2565b81146114b057600080fd5b50565b6114bc816111ee565b81146114c757600080fd5b5056fea2646970667358221220097f2941a1b57f9de60816bdaab388555ccfa02f0d06f068c5b8b0bd0b72bf0d64736f6c63430008070033",
  "immutableReferences": {},
  "source": "// SPDX-License-Identifier: MIT\r\npragma solidity ^0.8.7;\r\n\r\nimport \"./NFTFrame.sol\";\r\nimport \"./AhoraCoin.sol\";\r\nimport \"@openzeppelin/contracts/access/Ownable.sol\";\r\nimport \"@openzeppelin/contracts/security/ReentrancyGuard.sol\";\r\n\r\n// Base contract with common functionality\r\ncontract TradeBase is Ownable, ReentrancyGuard {\r\n    NFTFrame public nftContract;\r\n    AhoraCoin public tokenContract;\r\n\r\n    //    \r\n    mapping(address => uint256) private userBalances;\r\n\r\n    event Deposit(address indexed user, uint256 amount);\r\n    event Withdrawal(address indexed user, uint256 amount);\r\n    event BalanceAdjusted(address indexed from, address indexed to, uint256 amount);\r\n\r\n    // \r\n    function initializeContracts(address _nftContractAddress, address _tokenContractAddress) internal {\r\n        require(address(nftContract) == address(0) && address(tokenContract) == address(0), \"Contracts already initialized\");\r\n        nftContract = NFTFrame(_nftContractAddress);\r\n        tokenContract = AhoraCoin(_tokenContractAddress);\r\n    }\r\n\r\n    //  \r\n    function deposit(uint256 amount) external nonReentrant {\r\n        require(amount > 0, \"Deposit amount must be greater than 0\");\r\n        require(tokenContract.transferUserToSystem(msg.sender, address(this), amount), \"Transfer failed\");\r\n        \r\n        userBalances[msg.sender] += amount;\r\n        emit Deposit(msg.sender, amount);\r\n    }\r\n\r\n    //  \r\n    function withdraw(uint256 amount) external nonReentrant {\r\n        require(amount > 0, \"Withdrawal amount must be greater than 0\");\r\n        require(userBalances[msg.sender] >= amount, \"Insufficient balance\");\r\n        \r\n        userBalances[msg.sender] -= amount;\r\n        require(tokenContract.transferSenderToUser(msg.sender, amount), \"Transfer failed\");\r\n        \r\n        emit Withdrawal(msg.sender, amount);\r\n    }\r\n\r\n    //  \r\n    function _adjustBalances(address from, address to, uint256 amount) internal {\r\n        require(userBalances[from] >= amount, \"Insufficient balance\");\r\n        userBalances[from] -= amount;\r\n        userBalances[to] += amount;\r\n        emit BalanceAdjusted(from, to, amount);\r\n    }\r\n\r\n    //   NFT\r\n    function getContractOwnedNFTs() public view returns (uint256[] memory) {\r\n        return nftContract.getUserNFTIds(address(this));\r\n    }\r\n\r\n    //   \r\n    function getContractBalance() public view returns (uint256) {\r\n        return tokenContract.balanceOf(address(this));\r\n    }\r\n\r\n    //   \r\n    function getUserBalance(address user) public view returns (uint256) {\r\n        return userBalances[user];\r\n    }\r\n}",
  "sourcePath": "C:\\Users\\SSAFY\\Desktop\\semonemo\\backend\\blockchain-server\\smartcontract\\contracts\\TradeBase.sol",
  "compiler": {
    "name": "solc",
    "version": "0.8.7+commit.e28d00a7.Emscripten.clang"
  },
  "schemaVersion": "3.4.16",
  "updatedAt": "2024-09-20T08:53:28.711Z",
  "devdoc": {
    "kind": "dev",
    "methods": {
      "owner()": {
        "details": "Returns the address of the current owner."
      },
      "renounceOwnership()": {
        "details": "Leaves the contract without owner. It will not be possible to call `onlyOwner` functions anymore. Can only be called by the current owner. NOTE: Renouncing ownership will leave the contract without an owner, thereby removing any functionality that is only available to the owner."
      },
      "transferOwnership(address)": {
        "details": "Transfers ownership of the contract to a new account (`newOwner`). Can only be called by the current owner."
      }
    },
    "version": 1
  },
  "userdoc": {
    "kind": "user",
    "methods": {},
    "version": 1
  }
}