{
  "contractName": "TradeBase",
  "abi": [
    {
      "anonymous": false,
      "inputs": [
        {
          "indexed": true,
          "internalType": "address",
          "name": "from",
          "type": "address"
        },
        {
          "indexed": true,
          "internalType": "address",
          "name": "to",
          "type": "address"
        },
        {
          "indexed": false,
          "internalType": "uint256",
          "name": "amount",
          "type": "uint256"
        },
        {
          "indexed": false,
          "internalType": "uint256",
          "name": "fromBalance",
          "type": "uint256"
        },
        {
          "indexed": false,
          "internalType": "uint256",
          "name": "toBalance",
          "type": "uint256"
        }
      ],
      "name": "BalanceAdjusted",
      "type": "event"
    },
    {
      "anonymous": false,
      "inputs": [
        {
          "indexed": true,
          "internalType": "address",
          "name": "from",
          "type": "address"
        },
        {
          "indexed": true,
          "internalType": "address",
          "name": "to",
          "type": "address"
        },
        {
          "indexed": false,
          "internalType": "uint256",
          "name": "amount",
          "type": "uint256"
        },
        {
          "indexed": false,
          "internalType": "uint256",
          "name": "fromBalance",
          "type": "uint256"
        },
        {
          "indexed": false,
          "internalType": "uint256",
          "name": "toBalance",
          "type": "uint256"
        }
      ],
      "name": "BalanceTransferred",
      "type": "event"
    },
    {
      "anonymous": false,
      "inputs": [
        {
          "indexed": true,
          "internalType": "address",
          "name": "user",
          "type": "address"
        },
        {
          "indexed": false,
          "internalType": "uint256",
          "name": "amount",
          "type": "uint256"
        },
        {
          "indexed": false,
          "internalType": "uint256",
          "name": "coinBalance",
          "type": "uint256"
        },
        {
          "indexed": false,
          "internalType": "uint256",
          "name": "payableBalance",
          "type": "uint256"
        }
      ],
      "name": "Deposit",
      "type": "event"
    },
    {
      "anonymous": false,
      "inputs": [
        {
          "indexed": true,
          "internalType": "address",
          "name": "previousOwner",
          "type": "address"
        },
        {
          "indexed": true,
          "internalType": "address",
          "name": "newOwner",
          "type": "address"
        }
      ],
      "name": "OwnershipTransferred",
      "type": "event"
    },
    {
      "anonymous": false,
      "inputs": [
        {
          "indexed": true,
          "internalType": "uint256",
          "name": "tradeId",
          "type": "uint256"
        },
        {
          "indexed": false,
          "internalType": "address",
          "name": "from",
          "type": "address"
        },
        {
          "indexed": false,
          "internalType": "address",
          "name": "to",
          "type": "address"
        },
        {
          "indexed": false,
          "internalType": "uint256",
          "name": "amount",
          "type": "uint256"
        },
        {
          "indexed": false,
          "internalType": "uint256",
          "name": "timestamp",
          "type": "uint256"
        },
        {
          "indexed": false,
          "internalType": "uint256",
          "name": "fromBalance",
          "type": "uint256"
        },
        {
          "indexed": false,
          "internalType": "uint256",
          "name": "toBalance",
          "type": "uint256"
        }
      ],
      "name": "TradeRecorded",
      "type": "event"
    },
    {
      "anonymous": false,
      "inputs": [
        {
          "indexed": true,
          "internalType": "address",
          "name": "user",
          "type": "address"
        },
        {
          "indexed": false,
          "internalType": "uint256",
          "name": "amount",
          "type": "uint256"
        },
        {
          "indexed": false,
          "internalType": "uint256",
          "name": "coinBalance",
          "type": "uint256"
        },
        {
          "indexed": false,
          "internalType": "uint256",
          "name": "payableBalance",
          "type": "uint256"
        }
      ],
      "name": "Withdrawal",
      "type": "event"
    },
    {
      "inputs": [],
      "name": "nftContract",
      "outputs": [
        {
          "internalType": "contract NFTFrame",
          "name": "",
          "type": "address"
        }
      ],
      "stateMutability": "view",
      "type": "function"
    },
    {
      "inputs": [],
      "name": "owner",
      "outputs": [
        {
          "internalType": "address",
          "name": "",
          "type": "address"
        }
      ],
      "stateMutability": "view",
      "type": "function"
    },
    {
      "inputs": [],
      "name": "renounceOwnership",
      "outputs": [],
      "stateMutability": "nonpayable",
      "type": "function"
    },
    {
      "inputs": [],
      "name": "tokenContract",
      "outputs": [
        {
          "internalType": "contract AhoraCoin",
          "name": "",
          "type": "address"
        }
      ],
      "stateMutability": "view",
      "type": "function"
    },
    {
      "inputs": [],
      "name": "tradeId",
      "outputs": [
        {
          "internalType": "uint256",
          "name": "",
          "type": "uint256"
        }
      ],
      "stateMutability": "view",
      "type": "function"
    },
    {
      "inputs": [
        {
          "internalType": "uint256",
          "name": "",
          "type": "uint256"
        }
      ],
      "name": "trades",
      "outputs": [
        {
          "internalType": "address",
          "name": "from",
          "type": "address"
        },
        {
          "internalType": "address",
          "name": "to",
          "type": "address"
        },
        {
          "internalType": "uint256",
          "name": "amount",
          "type": "uint256"
        },
        {
          "internalType": "uint256",
          "name": "timestamp",
          "type": "uint256"
        }
      ],
      "stateMutability": "view",
      "type": "function"
    },
    {
      "inputs": [
        {
          "internalType": "address",
          "name": "newOwner",
          "type": "address"
        }
      ],
      "name": "transferOwnership",
      "outputs": [],
      "stateMutability": "nonpayable",
      "type": "function"
    },
    {
      "inputs": [
        {
          "internalType": "address",
          "name": "user",
          "type": "address"
        },
        {
          "internalType": "uint256",
          "name": "page",
          "type": "uint256"
        },
        {
          "internalType": "uint256",
          "name": "size",
          "type": "uint256"
        }
      ],
      "name": "getTradesByAddress",
      "outputs": [
        {
          "components": [
            {
              "components": [
                {
                  "internalType": "address",
                  "name": "from",
                  "type": "address"
                },
                {
                  "internalType": "address",
                  "name": "to",
                  "type": "address"
                },
                {
                  "internalType": "uint256",
                  "name": "amount",
                  "type": "uint256"
                },
                {
                  "internalType": "uint256",
                  "name": "timestamp",
                  "type": "uint256"
                }
              ],
              "internalType": "struct TradeBase.TradeInfo[]",
              "name": "trades",
              "type": "tuple[]"
            },
            {
              "internalType": "uint256",
              "name": "totalTrades",
              "type": "uint256"
            },
            {
              "internalType": "bool",
              "name": "hasNext",
              "type": "bool"
            }
          ],
          "internalType": "struct TradeBase.TradeResult",
          "name": "",
          "type": "tuple"
        }
      ],
      "stateMutability": "view",
      "type": "function"
    },
    {
      "inputs": [
        {
          "internalType": "uint256",
          "name": "_tradeId",
          "type": "uint256"
        }
      ],
      "name": "getTradeInfo",
      "outputs": [
        {
          "components": [
            {
              "internalType": "address",
              "name": "from",
              "type": "address"
            },
            {
              "internalType": "address",
              "name": "to",
              "type": "address"
            },
            {
              "internalType": "uint256",
              "name": "amount",
              "type": "uint256"
            },
            {
              "internalType": "uint256",
              "name": "timestamp",
              "type": "uint256"
            }
          ],
          "internalType": "struct TradeBase.TradeInfo",
          "name": "",
          "type": "tuple"
        }
      ],
      "stateMutability": "view",
      "type": "function"
    },
    {
      "inputs": [
        {
          "internalType": "uint256",
          "name": "amount",
          "type": "uint256"
        }
      ],
      "name": "deposit",
      "outputs": [],
      "stateMutability": "nonpayable",
      "type": "function"
    },
    {
      "inputs": [
        {
          "internalType": "uint256",
          "name": "amount",
          "type": "uint256"
        }
      ],
      "name": "withdraw",
      "outputs": [],
      "stateMutability": "nonpayable",
      "type": "function"
    },
    {
      "inputs": [
        {
          "internalType": "address",
          "name": "from",
          "type": "address"
        },
        {
          "internalType": "address",
          "name": "to",
          "type": "address"
        },
        {
          "internalType": "uint256",
          "name": "amount",
          "type": "uint256"
        }
      ],
      "name": "transferBalance",
      "outputs": [],
      "stateMutability": "nonpayable",
      "type": "function"
    },
    {
      "inputs": [],
      "name": "getContractOwnedNFTs",
      "outputs": [
        {
          "internalType": "uint256[]",
          "name": "",
          "type": "uint256[]"
        }
      ],
      "stateMutability": "view",
      "type": "function"
    },
    {
      "inputs": [],
      "name": "getContractBalance",
      "outputs": [
        {
          "internalType": "uint256",
          "name": "",
          "type": "uint256"
        }
      ],
      "stateMutability": "view",
      "type": "function"
    },
    {
      "inputs": [
        {
          "internalType": "address",
          "name": "user",
          "type": "address"
        }
      ],
      "name": "getUserBalance",
      "outputs": [
        {
          "internalType": "uint256",
          "name": "",
          "type": "uint256"
        }
      ],
      "stateMutability": "view",
      "type": "function"
    }
  ],
  "bytecode": "0x60806040523480156200001157600080fd5b5062000032620000266200003f60201b60201c565b6200004760201b60201c565b600180819055506200010b565b600033905090565b60008060009054906101000a900473ffffffffffffffffffffffffffffffffffffffff169050816000806101000a81548173ffffffffffffffffffffffffffffffffffffffff021916908373ffffffffffffffffffffffffffffffffffffffff1602179055508173ffffffffffffffffffffffffffffffffffffffff168173ffffffffffffffffffffffffffffffffffffffff167f8be0079c531659141344cd1fd0a4f28419497f9722a3daafe3b4186f6b6457e060405160405180910390a35050565b612a68806200011b6000396000f3fe608060405234801561001057600080fd5b50600436106100f55760003560e01c8063715018a611610097578063d3e6fa1911610066578063d3e6fa1914610263578063d56d229d14610281578063d750558f1461029f578063f2fde38b146102cf576100f5565b8063715018a6146102035780638da5cb5b1461020d578063a606b94a1461022b578063b6b55f2514610247576100f5565b806336c67897116100d357806336c6789714610167578063477348921461019757806355a373d6146101c75780636f9fb98a146101e5576100f5565b806302c5115b146100fa5780631e6c598e146101185780632e1a7d4d1461014b575b600080fd5b6101026102eb565b60405161010f91906123cc565b60405180910390f35b610132600480360381019061012d9190611cb5565b6102f1565b6040516101429493929190612131565b60405180910390f35b61016560048036038101906101609190611cb5565b610361565b005b610181600480360381019061017c9190611cb5565b61070b565b60405161018e919061238f565b60405180910390f35b6101b160048036038101906101ac9190611b6c565b610849565b6040516101be91906123cc565b60405180910390f35b6101cf610892565b6040516101dc91906121f9565b60405180910390f35b6101ed6108b8565b6040516101fa91906123cc565b60405180910390f35b61020b61096a565b005b6102156109f2565b60405161022291906120df565b60405180910390f35b61024560048036038101906102409190611b99565b610a1b565b005b610261600480360381019061025c9190611cb5565b610e33565b005b61026b61115b565b60405161027891906121d7565b60405180910390f35b610289611212565b6040516102969190612214565b60405180910390f35b6102b960048036038101906102b49190611bec565b611238565b6040516102c691906123aa565b60405180910390f35b6102e960048036038101906102e49190611b6c565b611589565b005b60065481565b60056020528060005260406000206000915090508060000160009054906101000a900473ffffffffffffffffffffffffffffffffffffffff16908060010160009054906101000a900473ffffffffffffffffffffffffffffffffffffffff16908060020154908060030154905084565b600260015414156103a7576040517f08c379a000000000000000000000000000000000000000000000000000000000815260040161039e9061236f565b60405180910390fd5b6002600181905550600081116103f2576040517f08c379a00000000000000000000000000000000000000000000000000000000081526004016103e9906122ef565b60405180910390fd5b80600460003373ffffffffffffffffffffffffffffffffffffffff1673ffffffffffffffffffffffffffffffffffffffff168152602001908152602001600020541015610474576040517f08c379a000000000000000000000000000000000000000000000000000000000815260040161046b9061228f565b60405180910390fd5b600360009054906101000a900473ffffffffffffffffffffffffffffffffffffffff1673ffffffffffffffffffffffffffffffffffffffff16636153fced3033846040518463ffffffff1660e01b81526004016104d3939291906120fa565b602060405180830381600087803b1580156104ed57600080fd5b505af1158015610501573d6000803e3d6000fd5b505050506040513d601f19601f820116820180604052508101906105259190611c88565b610564576040517f08c379a000000000000000000000000000000000000000000000000000000000815260040161055b9061226f565b60405180910390fd5b80600460003373ffffffffffffffffffffffffffffffffffffffff1673ffffffffffffffffffffffffffffffffffffffff16815260200190815260200160002060008282546105b391906125a2565b925050819055506105c633600083611681565b3373ffffffffffffffffffffffffffffffffffffffff167f650fdf669e93aa6c8ff3defe2da9c12b64f1548e5e1e54e803f4c1beb6466c8e82600360009054906101000a900473ffffffffffffffffffffffffffffffffffffffff1673ffffffffffffffffffffffffffffffffffffffff166370a08231336040518263ffffffff1660e01b815260040161065a91906120df565b60206040518083038186803b15801561067257600080fd5b505afa158015610686573d6000803e3d6000fd5b505050506040513d601f19601f820116820180604052508101906106aa9190611ce2565b600460003373ffffffffffffffffffffffffffffffffffffffff1673ffffffffffffffffffffffffffffffffffffffff168152602001908152602001600020546040516106f9939291906123e7565b60405180910390a26001808190555050565b610713611a03565b60008211801561072557506006548211155b610764576040517f08c379a000000000000000000000000000000000000000000000000000000000815260040161075b9061232f565b60405180910390fd5b600560008381526020019081526020016000206040518060800160405290816000820160009054906101000a900473ffffffffffffffffffffffffffffffffffffffff1673ffffffffffffffffffffffffffffffffffffffff1673ffffffffffffffffffffffffffffffffffffffff1681526020016001820160009054906101000a900473ffffffffffffffffffffffffffffffffffffffff1673ffffffffffffffffffffffffffffffffffffffff1673ffffffffffffffffffffffffffffffffffffffff168152602001600282015481526020016003820154815250509050919050565b6000600460008373ffffffffffffffffffffffffffffffffffffffff1673ffffffffffffffffffffffffffffffffffffffff168152602001908152602001600020549050919050565b600360009054906101000a900473ffffffffffffffffffffffffffffffffffffffff1681565b6000600360009054906101000a900473ffffffffffffffffffffffffffffffffffffffff1673ffffffffffffffffffffffffffffffffffffffff166370a08231306040518263ffffffff1660e01b815260040161091591906120df565b60206040518083038186803b15801561092d57600080fd5b505afa158015610941573d6000803e3d6000fd5b505050506040513d601f19601f820116820180604052508101906109659190611ce2565b905090565b610972611937565b73ffffffffffffffffffffffffffffffffffffffff166109906109f2565b73ffffffffffffffffffffffffffffffffffffffff16146109e6576040517f08c379a00000000000000000000000000000000000000000000000000000000081526004016109dd906122cf565b60405180910390fd5b6109f0600061193f565b565b60008060009054906101000a900473ffffffffffffffffffffffffffffffffffffffff16905090565b610a23611937565b73ffffffffffffffffffffffffffffffffffffffff16610a416109f2565b73ffffffffffffffffffffffffffffffffffffffff1614610a97576040517f08c379a0000000000000000000000000000000000000000000000000000000008152600401610a8e906122cf565b60405180910390fd5b60026001541415610add576040517f08c379a0000000000000000000000000000000000000000000000000000000008152600401610ad49061236f565b60405180910390fd5b6002600181905550600073ffffffffffffffffffffffffffffffffffffffff168273ffffffffffffffffffffffffffffffffffffffff161415610b55576040517f08c379a0000000000000000000000000000000000000000000000000000000008152600401610b4c906122af565b60405180910390fd5b8273ffffffffffffffffffffffffffffffffffffffff168273ffffffffffffffffffffffffffffffffffffffff161415610bc4576040517f08c379a0000000000000000000000000000000000000000000000000000000008152600401610bbb9061230f565b60405180910390fd5b60008111610c07576040517f08c379a0000000000000000000000000000000000000000000000000000000008152600401610bfe9061234f565b60405180910390fd5b80600460008573ffffffffffffffffffffffffffffffffffffffff1673ffffffffffffffffffffffffffffffffffffffff168152602001908152602001600020541015610c89576040517f08c379a0000000000000000000000000000000000000000000000000000000008152600401610c809061228f565b60405180910390fd5b80600460008573ffffffffffffffffffffffffffffffffffffffff1673ffffffffffffffffffffffffffffffffffffffff1681526020019081526020016000206000828254610cd891906125a2565b9250508190555080600460008473ffffffffffffffffffffffffffffffffffffffff1673ffffffffffffffffffffffffffffffffffffffff1681526020019081526020016000206000828254610d2e91906124f2565b92505081905550610d40838383611681565b8173ffffffffffffffffffffffffffffffffffffffff168373ffffffffffffffffffffffffffffffffffffffff167f941baa54585e364d2377b71ffcd6321c9e8b3d1b46e3db66121ee5b08bf12acf83600460008873ffffffffffffffffffffffffffffffffffffffff1673ffffffffffffffffffffffffffffffffffffffff16815260200190815260200160002054600460008873ffffffffffffffffffffffffffffffffffffffff1673ffffffffffffffffffffffffffffffffffffffff16815260200190815260200160002054604051610e1f939291906123e7565b60405180910390a360018081905550505050565b60026001541415610e79576040517f08c379a0000000000000000000000000000000000000000000000000000000008152600401610e709061236f565b60405180910390fd5b600260018190555060008111610ec4576040517f08c379a0000000000000000000000000000000000000000000000000000000008152600401610ebb9061222f565b60405180910390fd5b600360009054906101000a900473ffffffffffffffffffffffffffffffffffffffff1673ffffffffffffffffffffffffffffffffffffffff16636153fced3330846040518463ffffffff1660e01b8152600401610f23939291906120fa565b602060405180830381600087803b158015610f3d57600080fd5b505af1158015610f51573d6000803e3d6000fd5b505050506040513d601f19601f82011682018060405250810190610f759190611c88565b610fb4576040517f08c379a0000000000000000000000000000000000000000000000000000000008152600401610fab9061226f565b60405180910390fd5b80600460003373ffffffffffffffffffffffffffffffffffffffff1673ffffffffffffffffffffffffffffffffffffffff168152602001908152602001600020600082825461100391906124f2565b9250508190555061101660003383611681565b3373ffffffffffffffffffffffffffffffffffffffff167f36af321ec8d3c75236829c5317affd40ddb308863a1236d2d277a4025cccee1e82600360009054906101000a900473ffffffffffffffffffffffffffffffffffffffff1673ffffffffffffffffffffffffffffffffffffffff166370a08231336040518263ffffffff1660e01b81526004016110aa91906120df565b60206040518083038186803b1580156110c257600080fd5b505afa1580156110d6573d6000803e3d6000fd5b505050506040513d601f19601f820116820180604052508101906110fa9190611ce2565b600460003373ffffffffffffffffffffffffffffffffffffffff1673ffffffffffffffffffffffffffffffffffffffff16815260200190815260200160002054604051611149939291906123e7565b60405180910390a26001808190555050565b6060600260009054906101000a900473ffffffffffffffffffffffffffffffffffffffff1673ffffffffffffffffffffffffffffffffffffffff1663e6b1fa2a306040518263ffffffff1660e01b81526004016111b891906120df565b60006040518083038186803b1580156111d057600080fd5b505afa1580156111e4573d6000803e3d6000fd5b505050506040513d6000823e3d601f19601f8201168201806040525081019061120d9190611c3f565b905090565b600260009054906101000a900473ffffffffffffffffffffffffffffffffffffffff1681565b611240611a57565b6000600760008673ffffffffffffffffffffffffffffffffffffffff1673ffffffffffffffffffffffffffffffffffffffff16815260200190815260200160002090506000818054905090506000848661129a9190612548565b82116112a75760006112cb565b846001876112b591906124f2565b6112bf9190612548565b826112ca91906125a2565b5b9050600085876112db9190612548565b836112e691906125a2565b9050828211806112f65750600082105b1561130057600091505b60008111158061131b57508286886113189190612548565b10155b1561139d576040518060600160405280600067ffffffffffffffff8111156113465761134561273e565b5b60405190808252806020026020018201604052801561137f57816020015b61136c611a03565b8152602001906001900390816113645790505b50815260200184815260200160001515815250945050505050611582565b600082826113ab91906125a2565b905060008167ffffffffffffffff8111156113c9576113c861273e565b5b60405190808252806020026020018201604052801561140257816020015b6113ef611a03565b8152602001906001900390816113e75790505b50905060005b828110156115535760056000888360018861142391906125a2565b61142d91906125a2565b8154811061143e5761143d61270f565b5b906000526020600020015481526020019081526020016000206040518060800160405290816000820160009054906101000a900473ffffffffffffffffffffffffffffffffffffffff1673ffffffffffffffffffffffffffffffffffffffff1673ffffffffffffffffffffffffffffffffffffffff1681526020016001820160009054906101000a900473ffffffffffffffffffffffffffffffffffffffff1673ffffffffffffffffffffffffffffffffffffffff1673ffffffffffffffffffffffffffffffffffffffff168152602001600282015481526020016003820154815250508282815181106115355761153461270f565b5b6020026020010181905250808061154b90612697565b915050611408565b506000808511905060405180606001604052808381526020018781526020018215158152509750505050505050505b9392505050565b611591611937565b73ffffffffffffffffffffffffffffffffffffffff166115af6109f2565b73ffffffffffffffffffffffffffffffffffffffff1614611605576040517f08c379a00000000000000000000000000000000000000000000000000000000081526004016115fc906122cf565b60405180910390fd5b600073ffffffffffffffffffffffffffffffffffffffff168173ffffffffffffffffffffffffffffffffffffffff161415611675576040517f08c379a000000000000000000000000000000000000000000000000000000000815260040161166c9061224f565b60405180910390fd5b61167e8161193f565b50565b6006600081548092919061169490612697565b919050555060405180608001604052808473ffffffffffffffffffffffffffffffffffffffff1681526020018373ffffffffffffffffffffffffffffffffffffffff1681526020018281526020014281525060056000600654815260200190815260200160002060008201518160000160006101000a81548173ffffffffffffffffffffffffffffffffffffffff021916908373ffffffffffffffffffffffffffffffffffffffff16021790555060208201518160010160006101000a81548173ffffffffffffffffffffffffffffffffffffffff021916908373ffffffffffffffffffffffffffffffffffffffff1602179055506040820151816002015560608201518160030155905050600760008473ffffffffffffffffffffffffffffffffffffffff1673ffffffffffffffffffffffffffffffffffffffff1681526020019081526020016000206006549080600181540180825580915050600190039060005260206000200160009091909190915055600760008373ffffffffffffffffffffffffffffffffffffffff1673ffffffffffffffffffffffffffffffffffffffff16815260200190815260200160002060065490806001815401808255809150506001900390600052602060002001600090919091909150556006547fc09ae797f474a8568a060562997bd2e2f8dc85b50a348036d10095b3dbbfeeba84848442600460008a73ffffffffffffffffffffffffffffffffffffffff1673ffffffffffffffffffffffffffffffffffffffff16815260200190815260200160002054600460008a73ffffffffffffffffffffffffffffffffffffffff1673ffffffffffffffffffffffffffffffffffffffff1681526020019081526020016000205460405161192a96959493929190612176565b60405180910390a2505050565b600033905090565b60008060009054906101000a900473ffffffffffffffffffffffffffffffffffffffff169050816000806101000a81548173ffffffffffffffffffffffffffffffffffffffff021916908373ffffffffffffffffffffffffffffffffffffffff1602179055508173ffffffffffffffffffffffffffffffffffffffff168173ffffffffffffffffffffffffffffffffffffffff167f8be0079c531659141344cd1fd0a4f28419497f9722a3daafe3b4186f6b6457e060405160405180910390a35050565b6040518060800160405280600073ffffffffffffffffffffffffffffffffffffffff168152602001600073ffffffffffffffffffffffffffffffffffffffff16815260200160008152602001600081525090565b604051806060016040528060608152602001600081526020016000151581525090565b6000611a8d611a8884612443565b61241e565b90508083825260208201905082856020860282011115611ab057611aaf612772565b5b60005b85811015611ae05781611ac68882611b57565b845260208401935060208301925050600181019050611ab3565b5050509392505050565b600081359050611af9816129ed565b92915050565b600082601f830112611b1457611b1361276d565b5b8151611b24848260208601611a7a565b91505092915050565b600081519050611b3c81612a04565b92915050565b600081359050611b5181612a1b565b92915050565b600081519050611b6681612a1b565b92915050565b600060208284031215611b8257611b8161277c565b5b6000611b9084828501611aea565b91505092915050565b600080600060608486031215611bb257611bb161277c565b5b6000611bc086828701611aea565b9350506020611bd186828701611aea565b9250506040611be286828701611b42565b9150509250925092565b600080600060608486031215611c0557611c0461277c565b5b6000611c1386828701611aea565b9350506020611c2486828701611b42565b9250506040611c3586828701611b42565b9150509250925092565b600060208284031215611c5557611c5461277c565b5b600082015167ffffffffffffffff811115611c7357611c72612777565b5b611c7f84828501611aff565b91505092915050565b600060208284031215611c9e57611c9d61277c565b5b6000611cac84828501611b2d565b91505092915050565b600060208284031215611ccb57611cca61277c565b5b6000611cd984828501611b42565b91505092915050565b600060208284031215611cf857611cf761277c565b5b6000611d0684828501611b57565b91505092915050565b6000611d1b8383611fc7565b60808301905092915050565b6000611d3383836120c1565b60208301905092915050565b611d48816125d6565b82525050565b611d57816125d6565b82525050565b6000611d688261248f565b611d7281856124bf565b9350611d7d8361246f565b8060005b83811015611dae578151611d958882611d0f565b9750611da0836124a5565b925050600181019050611d81565b5085935050505092915050565b6000611dc68261249a565b611dd081856124d0565b9350611ddb8361247f565b8060005b83811015611e0c578151611df38882611d27565b9750611dfe836124b2565b925050600181019050611ddf565b5085935050505092915050565b611e22816125e8565b82525050565b611e318161261e565b82525050565b611e4081612630565b82525050565b6000611e536025836124e1565b9150611e5e82612792565b604082019050919050565b6000611e766026836124e1565b9150611e81826127e1565b604082019050919050565b6000611e99600f836124e1565b9150611ea482612830565b602082019050919050565b6000611ebc6014836124e1565b9150611ec782612859565b602082019050919050565b6000611edf6019836124e1565b9150611eea82612882565b602082019050919050565b6000611f026020836124e1565b9150611f0d826128ab565b602082019050919050565b6000611f256028836124e1565b9150611f30826128d4565b604082019050919050565b6000611f48601b836124e1565b9150611f5382612923565b602082019050919050565b6000611f6b6010836124e1565b9150611f768261294c565b602082019050919050565b6000611f8e6026836124e1565b9150611f9982612975565b604082019050919050565b6000611fb1601f836124e1565b9150611fbc826129c4565b602082019050919050565b608082016000820151611fdd6000850182611d3f565b506020820151611ff06020850182611d3f565b50604082015161200360408501826120c1565b50606082015161201660608501826120c1565b50505050565b6080820160008201516120326000850182611d3f565b5060208201516120456020850182611d3f565b50604082015161205860408501826120c1565b50606082015161206b60608501826120c1565b50505050565b6000606083016000830151848203600086015261208e8282611d5d565b91505060208301516120a360208601826120c1565b5060408301516120b66040860182611e19565b508091505092915050565b6120ca81612614565b82525050565b6120d981612614565b82525050565b60006020820190506120f46000830184611d4e565b92915050565b600060608201905061210f6000830186611d4e565b61211c6020830185611d4e565b61212960408301846120d0565b949350505050565b60006080820190506121466000830187611d4e565b6121536020830186611d4e565b61216060408301856120d0565b61216d60608301846120d0565b95945050505050565b600060c08201905061218b6000830189611d4e565b6121986020830188611d4e565b6121a560408301876120d0565b6121b260608301866120d0565b6121bf60808301856120d0565b6121cc60a08301846120d0565b979650505050505050565b600060208201905081810360008301526121f18184611dbb565b905092915050565b600060208201905061220e6000830184611e28565b92915050565b60006020820190506122296000830184611e37565b92915050565b6000602082019050818103600083015261224881611e46565b9050919050565b6000602082019050818103600083015261226881611e69565b9050919050565b6000602082019050818103600083015261228881611e8c565b9050919050565b600060208201905081810360008301526122a881611eaf565b9050919050565b600060208201905081810360008301526122c881611ed2565b9050919050565b600060208201905081810360008301526122e881611ef5565b9050919050565b6000602082019050818103600083015261230881611f18565b9050919050565b6000602082019050818103600083015261232881611f3b565b9050919050565b6000602082019050818103600083015261234881611f5e565b9050919050565b6000602082019050818103600083015261236881611f81565b9050919050565b6000602082019050818103600083015261238881611fa4565b9050919050565b60006080820190506123a4600083018461201c565b92915050565b600060208201905081810360008301526123c48184612071565b905092915050565b60006020820190506123e160008301846120d0565b92915050565b60006060820190506123fc60008301866120d0565b61240960208301856120d0565b61241660408301846120d0565b949350505050565b6000612428612439565b90506124348282612666565b919050565b6000604051905090565b600067ffffffffffffffff82111561245e5761245d61273e565b5b602082029050602081019050919050565b6000819050602082019050919050565b6000819050602082019050919050565b600081519050919050565b600081519050919050565b6000602082019050919050565b6000602082019050919050565b600082825260208201905092915050565b600082825260208201905092915050565b600082825260208201905092915050565b60006124fd82612614565b915061250883612614565b9250827fffffffffffffffffffffffffffffffffffffffffffffffffffffffffffffffff0382111561253d5761253c6126e0565b5b828201905092915050565b600061255382612614565b915061255e83612614565b9250817fffffffffffffffffffffffffffffffffffffffffffffffffffffffffffffffff0483118215151615612597576125966126e0565b5b828202905092915050565b60006125ad82612614565b91506125b883612614565b9250828210156125cb576125ca6126e0565b5b828203905092915050565b60006125e1826125f4565b9050919050565b60008115159050919050565b600073ffffffffffffffffffffffffffffffffffffffff82169050919050565b6000819050919050565b600061262982612642565b9050919050565b600061263b82612642565b9050919050565b600061264d82612654565b9050919050565b600061265f826125f4565b9050919050565b61266f82612781565b810181811067ffffffffffffffff8211171561268e5761268d61273e565b5b80604052505050565b60006126a282612614565b91507fffffffffffffffffffffffffffffffffffffffffffffffffffffffffffffffff8214156126d5576126d46126e0565b5b600182019050919050565b7f4e487b7100000000000000000000000000000000000000000000000000000000600052601160045260246000fd5b7f4e487b7100000000000000000000000000000000000000000000000000000000600052603260045260246000fd5b7f4e487b7100000000000000000000000000000000000000000000000000000000600052604160045260246000fd5b600080fd5b600080fd5b600080fd5b600080fd5b6000601f19601f8301169050919050565b7f4465706f73697420616d6f756e74206d7573742062652067726561746572207460008201527f68616e2030000000000000000000000000000000000000000000000000000000602082015250565b7f4f776e61626c653a206e6577206f776e657220697320746865207a65726f206160008201527f6464726573730000000000000000000000000000000000000000000000000000602082015250565b7f5472616e73666572206661696c65640000000000000000000000000000000000600082015250565b7f496e73756666696369656e742062616c616e6365000000000000000000000000600082015250565b7f496e76616c696420726563697069656e74206164647265737300000000000000600082015250565b7f4f776e61626c653a2063616c6c6572206973206e6f7420746865206f776e6572600082015250565b7f5769746864726177616c20616d6f756e74206d7573742062652067726561746560008201527f72207468616e2030000000000000000000000000000000000000000000000000602082015250565b7f43616e6e6f74207472616e7366657220746f20796f757273656c660000000000600082015250565b7f496e76616c696420747261646520494400000000000000000000000000000000600082015250565b7f5472616e7366657220616d6f756e74206d75737420626520677265617465722060008201527f7468616e20300000000000000000000000000000000000000000000000000000602082015250565b7f5265656e7472616e637947756172643a207265656e7472616e742063616c6c00600082015250565b6129f6816125d6565b8114612a0157600080fd5b50565b612a0d816125e8565b8114612a1857600080fd5b50565b612a2481612614565b8114612a2f57600080fd5b5056fea26469706673582212202b41b4368fb598c46816fc43a657656b2f15a8089d6ba292875af111ae382f7464736f6c63430008070033",
  "immutableReferences": {},
  "source": "// SPDX-License-Identifier: MIT\r\npragma solidity ^0.8.7;\r\n\r\nimport \"./NFTFrame.sol\";\r\nimport \"./AhoraCoin.sol\";\r\nimport \"@openzeppelin/contracts/access/Ownable.sol\";\r\nimport \"@openzeppelin/contracts/security/ReentrancyGuard.sol\";\r\n\r\n// Base contract with common functionality\r\ncontract TradeBase is Ownable, ReentrancyGuard {\r\n    NFTFrame public nftContract;\r\n    AhoraCoin public tokenContract;\r\n\r\n    //    \r\n    mapping(address => uint256) private userBalances;\r\n\r\n    struct TradeInfo {\r\n        address from;\r\n        address to;\r\n        uint256 amount;\r\n        uint256 timestamp;\r\n    }\r\n\r\n    struct TradeResult {\r\n        TradeInfo[] trades;\r\n        uint256 totalTrades;\r\n        bool hasNext;\r\n    }\r\n\r\n    //    Id  \r\n    mapping(uint256 => TradeInfo) public trades;\r\n    uint256 public tradeId;\r\n\r\n    //   ID   \r\n    mapping(address => uint256[]) private userTrades;\r\n\r\n    event TradeRecorded(uint256 indexed tradeId, address from, address to, uint256 amount, uint256 timestamp, uint256 fromBalance, uint256 toBalance);\r\n    event Deposit(address indexed user, uint256 amount, uint256 coinBalance, uint256 payableBalance);\r\n    event Withdrawal(address indexed user, uint256 amount, uint256 coinBalance, uint256 payableBalance);\r\n    event BalanceAdjusted(address indexed from, address indexed to, uint256 amount, uint256 fromBalance, uint256 toBalance);\r\n    event BalanceTransferred(address indexed from, address indexed to, uint256 amount, uint256 fromBalance, uint256 toBalance);\r\n\r\n    // \r\n    function initializeContracts(address _nftContractAddress, address _tokenContractAddress) internal {\r\n        require(address(nftContract) == address(0) && address(tokenContract) == address(0), \"Contracts already initialized\");\r\n        nftContract = NFTFrame(_nftContractAddress);\r\n        tokenContract = AhoraCoin(_tokenContractAddress);\r\n    }\r\n\r\n    //  \r\n    function recordTrade(address from, address to, uint256 amount) internal {\r\n        tradeId++;\r\n        trades[tradeId] = TradeInfo(from, to, amount, block.timestamp);\r\n        \r\n        //    ID \r\n        userTrades[from].push(tradeId);\r\n        userTrades[to].push(tradeId);\r\n        \r\n        emit TradeRecorded(tradeId, from, to, amount, block.timestamp, userBalances[from], userBalances[to]);\r\n    }\r\n\r\n    //      \r\n    function getTradesByAddress(address user, uint256 page, uint256 size) public view returns (TradeResult memory) {\r\n        uint256[] storage userTradeIds = userTrades[user];\r\n        uint256 totalUserTrades = userTradeIds.length;\r\n        \r\n        uint256 startIndex = totalUserTrades > page * size ? totalUserTrades - (page + 1) * size : 0;\r\n        uint256 endIndex = totalUserTrades - page * size;\r\n        \r\n        //    startIndex \r\n        if (startIndex > totalUserTrades || startIndex < 0) {\r\n            startIndex = 0;\r\n        }\r\n        \r\n        //      \r\n        if (endIndex <= 0 || page * size >= totalUserTrades) {\r\n            return TradeResult(new TradeInfo[](0), totalUserTrades, false);\r\n        }\r\n        \r\n        uint256 resultLength = endIndex - startIndex;\r\n        TradeInfo[] memory userTradeInfos = new TradeInfo[](resultLength);\r\n        \r\n        for (uint256 i = 0; i < resultLength; i++) {\r\n            userTradeInfos[i] = trades[userTradeIds[endIndex - 1 - i]];\r\n        }\r\n        \r\n        bool hasNext = startIndex > 0;\r\n\r\n        return TradeResult(userTradeInfos, totalUserTrades, hasNext);\r\n    }\r\n\r\n    //  tradeId trade    \r\n    function getTradeInfo(uint256 _tradeId) public view returns (TradeInfo memory) {\r\n        require(_tradeId > 0 && _tradeId <= tradeId, \"Invalid trade ID\");\r\n        return trades[_tradeId];\r\n    }\r\n    \r\n    //  \r\n    function deposit(uint256 amount) external nonReentrant {\r\n        require(amount > 0, \"Deposit amount must be greater than 0\");\r\n        require(tokenContract.transferCoinByAdmin(msg.sender, address(this), amount), \"Transfer failed\");\r\n        \r\n        userBalances[msg.sender] += amount;\r\n        recordTrade(address(0), msg.sender, amount);\r\n        emit Deposit(msg.sender, amount, tokenContract.balanceOf(msg.sender), userBalances[msg.sender]);\r\n    }\r\n\r\n    //  \r\n    function withdraw(uint256 amount) external nonReentrant {\r\n        require(amount > 0, \"Withdrawal amount must be greater than 0\");\r\n        require(userBalances[msg.sender] >= amount, \"Insufficient balance\");\r\n        \r\n        require(tokenContract.transferCoinByAdmin(address(this), msg.sender, amount), \"Transfer failed\");\r\n        userBalances[msg.sender] -= amount;\r\n        \r\n        recordTrade(msg.sender, address(0), amount);\r\n        emit Withdrawal(msg.sender, amount, tokenContract.balanceOf(msg.sender), userBalances[msg.sender]);\r\n    }\r\n\r\n    //  \r\n    function _adjustBalances(address from, address to, uint256 amount) internal {\r\n        require(userBalances[from] >= amount, \"Insufficient balance\");\r\n        userBalances[from] -= amount;\r\n        userBalances[to] += amount;\r\n        recordTrade(from, to, amount);\r\n        emit BalanceAdjusted(from, to, amount, userBalances[from], userBalances[to]);\r\n    }\r\n\r\n    //    \r\n    function transferBalance(address from, address to, uint256 amount) external onlyOwner nonReentrant {\r\n        require(to != address(0), \"Invalid recipient address\");\r\n        require(to != from, \"Cannot transfer to yourself\");\r\n        require(amount > 0, \"Transfer amount must be greater than 0\");\r\n        require(userBalances[from] >= amount, \"Insufficient balance\");\r\n\r\n        userBalances[from] -= amount;\r\n        userBalances[to] += amount;\r\n\r\n        recordTrade(from, to, amount);\r\n        emit BalanceTransferred(from, to, amount, userBalances[from], userBalances[to]);\r\n    }\r\n\r\n    //   NFT\r\n    function getContractOwnedNFTs() public view returns (uint256[] memory) {\r\n        return nftContract.getUserNFTIds(address(this)); \r\n    }\r\n\r\n    //   \r\n    function getContractBalance() public view returns (uint256) {\r\n        return tokenContract.balanceOf(address(this));\r\n    }\r\n\r\n    //   \r\n    function getUserBalance(address user) public view returns (uint256) {\r\n        return userBalances[user];\r\n    }\r\n}",
  "sourcePath": "C:\\Users\\SSAFY\\Desktop\\semonemo\\backend\\blockchain-server\\smartcontract\\contracts\\TradeBase.sol",
  "compiler": {
    "name": "solc",
    "version": "0.8.7+commit.e28d00a7.Emscripten.clang"
  },
  "schemaVersion": "3.4.16",
  "updatedAt": "2024-10-05T08:15:00.705Z",
  "devdoc": {
    "kind": "dev",
    "methods": {
      "owner()": {
        "details": "Returns the address of the current owner."
      },
      "renounceOwnership()": {
        "details": "Leaves the contract without owner. It will not be possible to call `onlyOwner` functions anymore. Can only be called by the current owner. NOTE: Renouncing ownership will leave the contract without an owner, thereby removing any functionality that is only available to the owner."
      },
      "transferOwnership(address)": {
        "details": "Transfers ownership of the contract to a new account (`newOwner`). Can only be called by the current owner."
      }
    },
    "version": 1
  },
  "userdoc": {
    "kind": "user",
    "methods": {},
    "version": 1
  }
}