{
  "contractName": "TradeBase",
  "abi": [
    {
      "anonymous": false,
      "inputs": [
        {
          "indexed": true,
          "internalType": "address",
          "name": "from",
          "type": "address"
        },
        {
          "indexed": true,
          "internalType": "address",
          "name": "to",
          "type": "address"
        },
        {
          "indexed": false,
          "internalType": "uint256",
          "name": "amount",
          "type": "uint256"
        },
        {
          "indexed": false,
          "internalType": "uint256",
          "name": "fromBalance",
          "type": "uint256"
        },
        {
          "indexed": false,
          "internalType": "uint256",
          "name": "toBalance",
          "type": "uint256"
        }
      ],
      "name": "BalanceAdjusted",
      "type": "event"
    },
    {
      "anonymous": false,
      "inputs": [
        {
          "indexed": true,
          "internalType": "address",
          "name": "from",
          "type": "address"
        },
        {
          "indexed": true,
          "internalType": "address",
          "name": "to",
          "type": "address"
        },
        {
          "indexed": false,
          "internalType": "uint256",
          "name": "amount",
          "type": "uint256"
        },
        {
          "indexed": false,
          "internalType": "uint256",
          "name": "fromBalance",
          "type": "uint256"
        },
        {
          "indexed": false,
          "internalType": "uint256",
          "name": "toBalance",
          "type": "uint256"
        }
      ],
      "name": "BalanceTransferred",
      "type": "event"
    },
    {
      "anonymous": false,
      "inputs": [
        {
          "indexed": true,
          "internalType": "address",
          "name": "user",
          "type": "address"
        },
        {
          "indexed": false,
          "internalType": "uint256",
          "name": "amount",
          "type": "uint256"
        },
        {
          "indexed": false,
          "internalType": "uint256",
          "name": "coinBalance",
          "type": "uint256"
        },
        {
          "indexed": false,
          "internalType": "uint256",
          "name": "payableBalance",
          "type": "uint256"
        }
      ],
      "name": "Deposit",
      "type": "event"
    },
    {
      "anonymous": false,
      "inputs": [
        {
          "indexed": true,
          "internalType": "address",
          "name": "previousOwner",
          "type": "address"
        },
        {
          "indexed": true,
          "internalType": "address",
          "name": "newOwner",
          "type": "address"
        }
      ],
      "name": "OwnershipTransferred",
      "type": "event"
    },
    {
      "anonymous": false,
      "inputs": [
        {
          "indexed": true,
          "internalType": "uint256",
          "name": "tradeId",
          "type": "uint256"
        },
        {
          "indexed": false,
          "internalType": "address",
          "name": "from",
          "type": "address"
        },
        {
          "indexed": false,
          "internalType": "address",
          "name": "to",
          "type": "address"
        },
        {
          "indexed": false,
          "internalType": "uint256",
          "name": "amount",
          "type": "uint256"
        },
        {
          "indexed": false,
          "internalType": "uint256",
          "name": "timestamp",
          "type": "uint256"
        },
        {
          "indexed": false,
          "internalType": "uint256",
          "name": "fromBalance",
          "type": "uint256"
        },
        {
          "indexed": false,
          "internalType": "uint256",
          "name": "toBalance",
          "type": "uint256"
        }
      ],
      "name": "TradeRecorded",
      "type": "event"
    },
    {
      "anonymous": false,
      "inputs": [
        {
          "indexed": true,
          "internalType": "address",
          "name": "user",
          "type": "address"
        },
        {
          "indexed": false,
          "internalType": "uint256",
          "name": "amount",
          "type": "uint256"
        },
        {
          "indexed": false,
          "internalType": "uint256",
          "name": "coinBalance",
          "type": "uint256"
        },
        {
          "indexed": false,
          "internalType": "uint256",
          "name": "payableBalance",
          "type": "uint256"
        }
      ],
      "name": "Withdrawal",
      "type": "event"
    },
    {
      "inputs": [],
      "name": "nftContract",
      "outputs": [
        {
          "internalType": "contract NFTFrame",
          "name": "",
          "type": "address"
        }
      ],
      "stateMutability": "view",
      "type": "function"
    },
    {
      "inputs": [],
      "name": "owner",
      "outputs": [
        {
          "internalType": "address",
          "name": "",
          "type": "address"
        }
      ],
      "stateMutability": "view",
      "type": "function"
    },
    {
      "inputs": [],
      "name": "renounceOwnership",
      "outputs": [],
      "stateMutability": "nonpayable",
      "type": "function"
    },
    {
      "inputs": [],
      "name": "tokenContract",
      "outputs": [
        {
          "internalType": "contract AhoraCoin",
          "name": "",
          "type": "address"
        }
      ],
      "stateMutability": "view",
      "type": "function"
    },
    {
      "inputs": [],
      "name": "tradeId",
      "outputs": [
        {
          "internalType": "uint256",
          "name": "",
          "type": "uint256"
        }
      ],
      "stateMutability": "view",
      "type": "function"
    },
    {
      "inputs": [
        {
          "internalType": "uint256",
          "name": "",
          "type": "uint256"
        }
      ],
      "name": "trades",
      "outputs": [
        {
          "internalType": "address",
          "name": "from",
          "type": "address"
        },
        {
          "internalType": "address",
          "name": "to",
          "type": "address"
        },
        {
          "internalType": "uint256",
          "name": "amount",
          "type": "uint256"
        },
        {
          "internalType": "uint256",
          "name": "timestamp",
          "type": "uint256"
        }
      ],
      "stateMutability": "view",
      "type": "function"
    },
    {
      "inputs": [
        {
          "internalType": "address",
          "name": "newOwner",
          "type": "address"
        }
      ],
      "name": "transferOwnership",
      "outputs": [],
      "stateMutability": "nonpayable",
      "type": "function"
    },
    {
      "inputs": [
        {
          "internalType": "address",
          "name": "user",
          "type": "address"
        },
        {
          "internalType": "uint256",
          "name": "page",
          "type": "uint256"
        },
        {
          "internalType": "uint256",
          "name": "size",
          "type": "uint256"
        }
      ],
      "name": "getTradesByAddress",
      "outputs": [
        {
          "components": [
            {
              "components": [
                {
                  "internalType": "address",
                  "name": "from",
                  "type": "address"
                },
                {
                  "internalType": "address",
                  "name": "to",
                  "type": "address"
                },
                {
                  "internalType": "uint256",
                  "name": "amount",
                  "type": "uint256"
                },
                {
                  "internalType": "uint256",
                  "name": "timestamp",
                  "type": "uint256"
                }
              ],
              "internalType": "struct TradeBase.TradeInfo[]",
              "name": "trades",
              "type": "tuple[]"
            },
            {
              "internalType": "uint256",
              "name": "totalTrades",
              "type": "uint256"
            },
            {
              "internalType": "bool",
              "name": "hasNext",
              "type": "bool"
            }
          ],
          "internalType": "struct TradeBase.TradeResult",
          "name": "",
          "type": "tuple"
        }
      ],
      "stateMutability": "view",
      "type": "function"
    },
    {
      "inputs": [
        {
          "internalType": "uint256",
          "name": "_tradeId",
          "type": "uint256"
        }
      ],
      "name": "getTradeInfo",
      "outputs": [
        {
          "components": [
            {
              "internalType": "address",
              "name": "from",
              "type": "address"
            },
            {
              "internalType": "address",
              "name": "to",
              "type": "address"
            },
            {
              "internalType": "uint256",
              "name": "amount",
              "type": "uint256"
            },
            {
              "internalType": "uint256",
              "name": "timestamp",
              "type": "uint256"
            }
          ],
          "internalType": "struct TradeBase.TradeInfo",
          "name": "",
          "type": "tuple"
        }
      ],
      "stateMutability": "view",
      "type": "function"
    },
    {
      "inputs": [
        {
          "internalType": "uint256",
          "name": "amount",
          "type": "uint256"
        }
      ],
      "name": "deposit",
      "outputs": [],
      "stateMutability": "nonpayable",
      "type": "function"
    },
    {
      "inputs": [
        {
          "internalType": "uint256",
          "name": "amount",
          "type": "uint256"
        }
      ],
      "name": "withdraw",
      "outputs": [],
      "stateMutability": "nonpayable",
      "type": "function"
    },
    {
      "inputs": [
        {
          "internalType": "address",
          "name": "from",
          "type": "address"
        },
        {
          "internalType": "address",
          "name": "to",
          "type": "address"
        },
        {
          "internalType": "uint256",
          "name": "amount",
          "type": "uint256"
        }
      ],
      "name": "transferBalanceByAdmin",
      "outputs": [],
      "stateMutability": "nonpayable",
      "type": "function"
    },
    {
      "inputs": [
        {
          "internalType": "address",
          "name": "to",
          "type": "address"
        },
        {
          "internalType": "uint256",
          "name": "amount",
          "type": "uint256"
        }
      ],
      "name": "transferBalance",
      "outputs": [],
      "stateMutability": "nonpayable",
      "type": "function"
    },
    {
      "inputs": [],
      "name": "getContractOwnedNFTs",
      "outputs": [
        {
          "internalType": "uint256[]",
          "name": "",
          "type": "uint256[]"
        }
      ],
      "stateMutability": "view",
      "type": "function"
    },
    {
      "inputs": [],
      "name": "getContractBalance",
      "outputs": [
        {
          "internalType": "uint256",
          "name": "",
          "type": "uint256"
        }
      ],
      "stateMutability": "view",
      "type": "function"
    },
    {
      "inputs": [
        {
          "internalType": "address",
          "name": "user",
          "type": "address"
        }
      ],
      "name": "getUserBalance",
      "outputs": [
        {
          "internalType": "uint256",
          "name": "",
          "type": "uint256"
        }
      ],
      "stateMutability": "view",
      "type": "function"
    }
  ],
  "bytecode": "0x60806040523480156200001157600080fd5b5062000032620000266200003f60201b60201c565b6200004760201b60201c565b600180819055506200010b565b600033905090565b60008060009054906101000a900473ffffffffffffffffffffffffffffffffffffffff169050816000806101000a81548173ffffffffffffffffffffffffffffffffffffffff021916908373ffffffffffffffffffffffffffffffffffffffff1602179055508173ffffffffffffffffffffffffffffffffffffffff168173ffffffffffffffffffffffffffffffffffffffff167f8be0079c531659141344cd1fd0a4f28419497f9722a3daafe3b4186f6b6457e060405160405180910390a35050565b612e6a806200011b6000396000f3fe608060405234801561001057600080fd5b50600436106101005760003560e01c8063715018a611610097578063d3e6fa1911610066578063d3e6fa191461028a578063d56d229d146102a8578063d750558f146102c6578063f2fde38b146102f657610100565b8063715018a61461022a57806389666664146102345780638da5cb5b14610250578063b6b55f251461026e57610100565b806347734892116100d357806347734892146101a257806355a373d6146101d257806356a6d9ef146101f05780636f9fb98a1461020c57610100565b806302c5115b146101055780631e6c598e146101235780632e1a7d4d1461015657806336c6789714610172575b600080fd5b61010d610312565b60405161011a91906127ce565b60405180910390f35b61013d600480360381019061013891906120b7565b610318565b60405161014d9493929190612533565b60405180910390f35b610170600480360381019061016b91906120b7565b610388565b005b61018c600480360381019061018791906120b7565b610732565b6040516101999190612791565b60405180910390f35b6101bc60048036038101906101b79190611f2e565b610870565b6040516101c991906127ce565b60405180910390f35b6101da6108b9565b6040516101e791906125fb565b60405180910390f35b61020a60048036038101906102059190611fae565b6108df565b005b610214610c7a565b60405161022191906127ce565b60405180910390f35b610232610d2c565b005b61024e60048036038101906102499190611f5b565b610db4565b005b6102586111cc565b60405161026591906124e1565b60405180910390f35b610288600480360381019061028391906120b7565b6111f5565b005b61029261151d565b60405161029f91906125d9565b60405180910390f35b6102b06115d4565b6040516102bd9190612616565b60405180910390f35b6102e060048036038101906102db9190611fee565b6115fa565b6040516102ed91906127ac565b60405180910390f35b610310600480360381019061030b9190611f2e565b61194b565b005b60065481565b60056020528060005260406000206000915090508060000160009054906101000a900473ffffffffffffffffffffffffffffffffffffffff16908060010160009054906101000a900473ffffffffffffffffffffffffffffffffffffffff16908060020154908060030154905084565b600260015414156103ce576040517f08c379a00000000000000000000000000000000000000000000000000000000081526004016103c590612771565b60405180910390fd5b600260018190555060008111610419576040517f08c379a0000000000000000000000000000000000000000000000000000000008152600401610410906126f1565b60405180910390fd5b80600460003373ffffffffffffffffffffffffffffffffffffffff1673ffffffffffffffffffffffffffffffffffffffff16815260200190815260200160002054101561049b576040517f08c379a000000000000000000000000000000000000000000000000000000000815260040161049290612691565b60405180910390fd5b600360009054906101000a900473ffffffffffffffffffffffffffffffffffffffff1673ffffffffffffffffffffffffffffffffffffffff16636153fced3033846040518463ffffffff1660e01b81526004016104fa939291906124fc565b602060405180830381600087803b15801561051457600080fd5b505af1158015610528573d6000803e3d6000fd5b505050506040513d601f19601f8201168201806040525081019061054c919061208a565b61058b576040517f08c379a000000000000000000000000000000000000000000000000000000000815260040161058290612671565b60405180910390fd5b80600460003373ffffffffffffffffffffffffffffffffffffffff1673ffffffffffffffffffffffffffffffffffffffff16815260200190815260200160002060008282546105da91906129a4565b925050819055506105ed33600083611a43565b3373ffffffffffffffffffffffffffffffffffffffff167f650fdf669e93aa6c8ff3defe2da9c12b64f1548e5e1e54e803f4c1beb6466c8e82600360009054906101000a900473ffffffffffffffffffffffffffffffffffffffff1673ffffffffffffffffffffffffffffffffffffffff166370a08231336040518263ffffffff1660e01b815260040161068191906124e1565b60206040518083038186803b15801561069957600080fd5b505afa1580156106ad573d6000803e3d6000fd5b505050506040513d601f19601f820116820180604052508101906106d191906120e4565b600460003373ffffffffffffffffffffffffffffffffffffffff1673ffffffffffffffffffffffffffffffffffffffff16815260200190815260200160002054604051610720939291906127e9565b60405180910390a26001808190555050565b61073a611dc5565b60008211801561074c57506006548211155b61078b576040517f08c379a000000000000000000000000000000000000000000000000000000000815260040161078290612731565b60405180910390fd5b600560008381526020019081526020016000206040518060800160405290816000820160009054906101000a900473ffffffffffffffffffffffffffffffffffffffff1673ffffffffffffffffffffffffffffffffffffffff1673ffffffffffffffffffffffffffffffffffffffff1681526020016001820160009054906101000a900473ffffffffffffffffffffffffffffffffffffffff1673ffffffffffffffffffffffffffffffffffffffff1673ffffffffffffffffffffffffffffffffffffffff168152602001600282015481526020016003820154815250509050919050565b6000600460008373ffffffffffffffffffffffffffffffffffffffff1673ffffffffffffffffffffffffffffffffffffffff168152602001908152602001600020549050919050565b600360009054906101000a900473ffffffffffffffffffffffffffffffffffffffff1681565b60026001541415610925576040517f08c379a000000000000000000000000000000000000000000000000000000000815260040161091c90612771565b60405180910390fd5b6002600181905550600073ffffffffffffffffffffffffffffffffffffffff168273ffffffffffffffffffffffffffffffffffffffff16141561099d576040517f08c379a0000000000000000000000000000000000000000000000000000000008152600401610994906126b1565b60405180910390fd5b3373ffffffffffffffffffffffffffffffffffffffff168273ffffffffffffffffffffffffffffffffffffffff161415610a0c576040517f08c379a0000000000000000000000000000000000000000000000000000000008152600401610a0390612711565b60405180910390fd5b60008111610a4f576040517f08c379a0000000000000000000000000000000000000000000000000000000008152600401610a4690612751565b60405180910390fd5b80600460003373ffffffffffffffffffffffffffffffffffffffff1673ffffffffffffffffffffffffffffffffffffffff168152602001908152602001600020541015610ad1576040517f08c379a0000000000000000000000000000000000000000000000000000000008152600401610ac890612691565b60405180910390fd5b80600460003373ffffffffffffffffffffffffffffffffffffffff1673ffffffffffffffffffffffffffffffffffffffff1681526020019081526020016000206000828254610b2091906129a4565b9250508190555080600460008473ffffffffffffffffffffffffffffffffffffffff1673ffffffffffffffffffffffffffffffffffffffff1681526020019081526020016000206000828254610b7691906128f4565b92505081905550610b88338383611a43565b8173ffffffffffffffffffffffffffffffffffffffff163373ffffffffffffffffffffffffffffffffffffffff167f941baa54585e364d2377b71ffcd6321c9e8b3d1b46e3db66121ee5b08bf12acf83600460003373ffffffffffffffffffffffffffffffffffffffff1673ffffffffffffffffffffffffffffffffffffffff16815260200190815260200160002054600460008873ffffffffffffffffffffffffffffffffffffffff1673ffffffffffffffffffffffffffffffffffffffff16815260200190815260200160002054604051610c67939291906127e9565b60405180910390a3600180819055505050565b6000600360009054906101000a900473ffffffffffffffffffffffffffffffffffffffff1673ffffffffffffffffffffffffffffffffffffffff166370a08231306040518263ffffffff1660e01b8152600401610cd791906124e1565b60206040518083038186803b158015610cef57600080fd5b505afa158015610d03573d6000803e3d6000fd5b505050506040513d601f19601f82011682018060405250810190610d2791906120e4565b905090565b610d34611cf9565b73ffffffffffffffffffffffffffffffffffffffff16610d526111cc565b73ffffffffffffffffffffffffffffffffffffffff1614610da8576040517f08c379a0000000000000000000000000000000000000000000000000000000008152600401610d9f906126d1565b60405180910390fd5b610db26000611d01565b565b610dbc611cf9565b73ffffffffffffffffffffffffffffffffffffffff16610dda6111cc565b73ffffffffffffffffffffffffffffffffffffffff1614610e30576040517f08c379a0000000000000000000000000000000000000000000000000000000008152600401610e27906126d1565b60405180910390fd5b60026001541415610e76576040517f08c379a0000000000000000000000000000000000000000000000000000000008152600401610e6d90612771565b60405180910390fd5b6002600181905550600073ffffffffffffffffffffffffffffffffffffffff168273ffffffffffffffffffffffffffffffffffffffff161415610eee576040517f08c379a0000000000000000000000000000000000000000000000000000000008152600401610ee5906126b1565b60405180910390fd5b8273ffffffffffffffffffffffffffffffffffffffff168273ffffffffffffffffffffffffffffffffffffffff161415610f5d576040517f08c379a0000000000000000000000000000000000000000000000000000000008152600401610f5490612711565b60405180910390fd5b60008111610fa0576040517f08c379a0000000000000000000000000000000000000000000000000000000008152600401610f9790612751565b60405180910390fd5b80600460008573ffffffffffffffffffffffffffffffffffffffff1673ffffffffffffffffffffffffffffffffffffffff168152602001908152602001600020541015611022576040517f08c379a000000000000000000000000000000000000000000000000000000000815260040161101990612691565b60405180910390fd5b80600460008573ffffffffffffffffffffffffffffffffffffffff1673ffffffffffffffffffffffffffffffffffffffff168152602001908152602001600020600082825461107191906129a4565b9250508190555080600460008473ffffffffffffffffffffffffffffffffffffffff1673ffffffffffffffffffffffffffffffffffffffff16815260200190815260200160002060008282546110c791906128f4565b925050819055506110d9838383611a43565b8173ffffffffffffffffffffffffffffffffffffffff168373ffffffffffffffffffffffffffffffffffffffff167f941baa54585e364d2377b71ffcd6321c9e8b3d1b46e3db66121ee5b08bf12acf83600460008873ffffffffffffffffffffffffffffffffffffffff1673ffffffffffffffffffffffffffffffffffffffff16815260200190815260200160002054600460008873ffffffffffffffffffffffffffffffffffffffff1673ffffffffffffffffffffffffffffffffffffffff168152602001908152602001600020546040516111b8939291906127e9565b60405180910390a360018081905550505050565b60008060009054906101000a900473ffffffffffffffffffffffffffffffffffffffff16905090565b6002600154141561123b576040517f08c379a000000000000000000000000000000000000000000000000000000000815260040161123290612771565b60405180910390fd5b600260018190555060008111611286576040517f08c379a000000000000000000000000000000000000000000000000000000000815260040161127d90612631565b60405180910390fd5b600360009054906101000a900473ffffffffffffffffffffffffffffffffffffffff1673ffffffffffffffffffffffffffffffffffffffff16636153fced3330846040518463ffffffff1660e01b81526004016112e5939291906124fc565b602060405180830381600087803b1580156112ff57600080fd5b505af1158015611313573d6000803e3d6000fd5b505050506040513d601f19601f82011682018060405250810190611337919061208a565b611376576040517f08c379a000000000000000000000000000000000000000000000000000000000815260040161136d90612671565b60405180910390fd5b80600460003373ffffffffffffffffffffffffffffffffffffffff1673ffffffffffffffffffffffffffffffffffffffff16815260200190815260200160002060008282546113c591906128f4565b925050819055506113d860003383611a43565b3373ffffffffffffffffffffffffffffffffffffffff167f36af321ec8d3c75236829c5317affd40ddb308863a1236d2d277a4025cccee1e82600360009054906101000a900473ffffffffffffffffffffffffffffffffffffffff1673ffffffffffffffffffffffffffffffffffffffff166370a08231336040518263ffffffff1660e01b815260040161146c91906124e1565b60206040518083038186803b15801561148457600080fd5b505afa158015611498573d6000803e3d6000fd5b505050506040513d601f19601f820116820180604052508101906114bc91906120e4565b600460003373ffffffffffffffffffffffffffffffffffffffff1673ffffffffffffffffffffffffffffffffffffffff1681526020019081526020016000205460405161150b939291906127e9565b60405180910390a26001808190555050565b6060600260009054906101000a900473ffffffffffffffffffffffffffffffffffffffff1673ffffffffffffffffffffffffffffffffffffffff1663e6b1fa2a306040518263ffffffff1660e01b815260040161157a91906124e1565b60006040518083038186803b15801561159257600080fd5b505afa1580156115a6573d6000803e3d6000fd5b505050506040513d6000823e3d601f19601f820116820180604052508101906115cf9190612041565b905090565b600260009054906101000a900473ffffffffffffffffffffffffffffffffffffffff1681565b611602611e19565b6000600760008673ffffffffffffffffffffffffffffffffffffffff1673ffffffffffffffffffffffffffffffffffffffff16815260200190815260200160002090506000818054905090506000848661165c919061294a565b821161166957600061168d565b8460018761167791906128f4565b611681919061294a565b8261168c91906129a4565b5b90506000858761169d919061294a565b836116a891906129a4565b9050828211806116b85750600082105b156116c257600091505b6000811115806116dd57508286886116da919061294a565b10155b1561175f576040518060600160405280600067ffffffffffffffff81111561170857611707612b40565b5b60405190808252806020026020018201604052801561174157816020015b61172e611dc5565b8152602001906001900390816117265790505b50815260200184815260200160001515815250945050505050611944565b6000828261176d91906129a4565b905060008167ffffffffffffffff81111561178b5761178a612b40565b5b6040519080825280602002602001820160405280156117c457816020015b6117b1611dc5565b8152602001906001900390816117a95790505b50905060005b82811015611915576005600088836001886117e591906129a4565b6117ef91906129a4565b81548110611800576117ff612b11565b5b906000526020600020015481526020019081526020016000206040518060800160405290816000820160009054906101000a900473ffffffffffffffffffffffffffffffffffffffff1673ffffffffffffffffffffffffffffffffffffffff1673ffffffffffffffffffffffffffffffffffffffff1681526020016001820160009054906101000a900473ffffffffffffffffffffffffffffffffffffffff1673ffffffffffffffffffffffffffffffffffffffff1673ffffffffffffffffffffffffffffffffffffffff168152602001600282015481526020016003820154815250508282815181106118f7576118f6612b11565b5b6020026020010181905250808061190d90612a99565b9150506117ca565b506000808511905060405180606001604052808381526020018781526020018215158152509750505050505050505b9392505050565b611953611cf9565b73ffffffffffffffffffffffffffffffffffffffff166119716111cc565b73ffffffffffffffffffffffffffffffffffffffff16146119c7576040517f08c379a00000000000000000000000000000000000000000000000000000000081526004016119be906126d1565b60405180910390fd5b600073ffffffffffffffffffffffffffffffffffffffff168173ffffffffffffffffffffffffffffffffffffffff161415611a37576040517f08c379a0000000000000000000000000000000000000000000000000000000008152600401611a2e90612651565b60405180910390fd5b611a4081611d01565b50565b60066000815480929190611a5690612a99565b919050555060405180608001604052808473ffffffffffffffffffffffffffffffffffffffff1681526020018373ffffffffffffffffffffffffffffffffffffffff1681526020018281526020014281525060056000600654815260200190815260200160002060008201518160000160006101000a81548173ffffffffffffffffffffffffffffffffffffffff021916908373ffffffffffffffffffffffffffffffffffffffff16021790555060208201518160010160006101000a81548173ffffffffffffffffffffffffffffffffffffffff021916908373ffffffffffffffffffffffffffffffffffffffff1602179055506040820151816002015560608201518160030155905050600760008473ffffffffffffffffffffffffffffffffffffffff1673ffffffffffffffffffffffffffffffffffffffff1681526020019081526020016000206006549080600181540180825580915050600190039060005260206000200160009091909190915055600760008373ffffffffffffffffffffffffffffffffffffffff1673ffffffffffffffffffffffffffffffffffffffff16815260200190815260200160002060065490806001815401808255809150506001900390600052602060002001600090919091909150556006547fc09ae797f474a8568a060562997bd2e2f8dc85b50a348036d10095b3dbbfeeba84848442600460008a73ffffffffffffffffffffffffffffffffffffffff1673ffffffffffffffffffffffffffffffffffffffff16815260200190815260200160002054600460008a73ffffffffffffffffffffffffffffffffffffffff1673ffffffffffffffffffffffffffffffffffffffff16815260200190815260200160002054604051611cec96959493929190612578565b60405180910390a2505050565b600033905090565b60008060009054906101000a900473ffffffffffffffffffffffffffffffffffffffff169050816000806101000a81548173ffffffffffffffffffffffffffffffffffffffff021916908373ffffffffffffffffffffffffffffffffffffffff1602179055508173ffffffffffffffffffffffffffffffffffffffff168173ffffffffffffffffffffffffffffffffffffffff167f8be0079c531659141344cd1fd0a4f28419497f9722a3daafe3b4186f6b6457e060405160405180910390a35050565b6040518060800160405280600073ffffffffffffffffffffffffffffffffffffffff168152602001600073ffffffffffffffffffffffffffffffffffffffff16815260200160008152602001600081525090565b604051806060016040528060608152602001600081526020016000151581525090565b6000611e4f611e4a84612845565b612820565b90508083825260208201905082856020860282011115611e7257611e71612b74565b5b60005b85811015611ea25781611e888882611f19565b845260208401935060208301925050600181019050611e75565b5050509392505050565b600081359050611ebb81612def565b92915050565b600082601f830112611ed657611ed5612b6f565b5b8151611ee6848260208601611e3c565b91505092915050565b600081519050611efe81612e06565b92915050565b600081359050611f1381612e1d565b92915050565b600081519050611f2881612e1d565b92915050565b600060208284031215611f4457611f43612b7e565b5b6000611f5284828501611eac565b91505092915050565b600080600060608486031215611f7457611f73612b7e565b5b6000611f8286828701611eac565b9350506020611f9386828701611eac565b9250506040611fa486828701611f04565b9150509250925092565b60008060408385031215611fc557611fc4612b7e565b5b6000611fd385828601611eac565b9250506020611fe485828601611f04565b9150509250929050565b60008060006060848603121561200757612006612b7e565b5b600061201586828701611eac565b935050602061202686828701611f04565b925050604061203786828701611f04565b9150509250925092565b60006020828403121561205757612056612b7e565b5b600082015167ffffffffffffffff81111561207557612074612b79565b5b61208184828501611ec1565b91505092915050565b6000602082840312156120a05761209f612b7e565b5b60006120ae84828501611eef565b91505092915050565b6000602082840312156120cd576120cc612b7e565b5b60006120db84828501611f04565b91505092915050565b6000602082840312156120fa576120f9612b7e565b5b600061210884828501611f19565b91505092915050565b600061211d83836123c9565b60808301905092915050565b600061213583836124c3565b60208301905092915050565b61214a816129d8565b82525050565b612159816129d8565b82525050565b600061216a82612891565b61217481856128c1565b935061217f83612871565b8060005b838110156121b05781516121978882612111565b97506121a2836128a7565b925050600181019050612183565b5085935050505092915050565b60006121c88261289c565b6121d281856128d2565b93506121dd83612881565b8060005b8381101561220e5781516121f58882612129565b9750612200836128b4565b9250506001810190506121e1565b5085935050505092915050565b612224816129ea565b82525050565b61223381612a20565b82525050565b61224281612a32565b82525050565b60006122556025836128e3565b915061226082612b94565b604082019050919050565b60006122786026836128e3565b915061228382612be3565b604082019050919050565b600061229b600f836128e3565b91506122a682612c32565b602082019050919050565b60006122be6014836128e3565b91506122c982612c5b565b602082019050919050565b60006122e16019836128e3565b91506122ec82612c84565b602082019050919050565b60006123046020836128e3565b915061230f82612cad565b602082019050919050565b60006123276028836128e3565b915061233282612cd6565b604082019050919050565b600061234a601b836128e3565b915061235582612d25565b602082019050919050565b600061236d6010836128e3565b915061237882612d4e565b602082019050919050565b60006123906026836128e3565b915061239b82612d77565b604082019050919050565b60006123b3601f836128e3565b91506123be82612dc6565b602082019050919050565b6080820160008201516123df6000850182612141565b5060208201516123f26020850182612141565b50604082015161240560408501826124c3565b50606082015161241860608501826124c3565b50505050565b6080820160008201516124346000850182612141565b5060208201516124476020850182612141565b50604082015161245a60408501826124c3565b50606082015161246d60608501826124c3565b50505050565b60006060830160008301518482036000860152612490828261215f565b91505060208301516124a560208601826124c3565b5060408301516124b8604086018261221b565b508091505092915050565b6124cc81612a16565b82525050565b6124db81612a16565b82525050565b60006020820190506124f66000830184612150565b92915050565b60006060820190506125116000830186612150565b61251e6020830185612150565b61252b60408301846124d2565b949350505050565b60006080820190506125486000830187612150565b6125556020830186612150565b61256260408301856124d2565b61256f60608301846124d2565b95945050505050565b600060c08201905061258d6000830189612150565b61259a6020830188612150565b6125a760408301876124d2565b6125b460608301866124d2565b6125c160808301856124d2565b6125ce60a08301846124d2565b979650505050505050565b600060208201905081810360008301526125f381846121bd565b905092915050565b6000602082019050612610600083018461222a565b92915050565b600060208201905061262b6000830184612239565b92915050565b6000602082019050818103600083015261264a81612248565b9050919050565b6000602082019050818103600083015261266a8161226b565b9050919050565b6000602082019050818103600083015261268a8161228e565b9050919050565b600060208201905081810360008301526126aa816122b1565b9050919050565b600060208201905081810360008301526126ca816122d4565b9050919050565b600060208201905081810360008301526126ea816122f7565b9050919050565b6000602082019050818103600083015261270a8161231a565b9050919050565b6000602082019050818103600083015261272a8161233d565b9050919050565b6000602082019050818103600083015261274a81612360565b9050919050565b6000602082019050818103600083015261276a81612383565b9050919050565b6000602082019050818103600083015261278a816123a6565b9050919050565b60006080820190506127a6600083018461241e565b92915050565b600060208201905081810360008301526127c68184612473565b905092915050565b60006020820190506127e360008301846124d2565b92915050565b60006060820190506127fe60008301866124d2565b61280b60208301856124d2565b61281860408301846124d2565b949350505050565b600061282a61283b565b90506128368282612a68565b919050565b6000604051905090565b600067ffffffffffffffff8211156128605761285f612b40565b5b602082029050602081019050919050565b6000819050602082019050919050565b6000819050602082019050919050565b600081519050919050565b600081519050919050565b6000602082019050919050565b6000602082019050919050565b600082825260208201905092915050565b600082825260208201905092915050565b600082825260208201905092915050565b60006128ff82612a16565b915061290a83612a16565b9250827fffffffffffffffffffffffffffffffffffffffffffffffffffffffffffffffff0382111561293f5761293e612ae2565b5b828201905092915050565b600061295582612a16565b915061296083612a16565b9250817fffffffffffffffffffffffffffffffffffffffffffffffffffffffffffffffff048311821515161561299957612998612ae2565b5b828202905092915050565b60006129af82612a16565b91506129ba83612a16565b9250828210156129cd576129cc612ae2565b5b828203905092915050565b60006129e3826129f6565b9050919050565b60008115159050919050565b600073ffffffffffffffffffffffffffffffffffffffff82169050919050565b6000819050919050565b6000612a2b82612a44565b9050919050565b6000612a3d82612a44565b9050919050565b6000612a4f82612a56565b9050919050565b6000612a61826129f6565b9050919050565b612a7182612b83565b810181811067ffffffffffffffff82111715612a9057612a8f612b40565b5b80604052505050565b6000612aa482612a16565b91507fffffffffffffffffffffffffffffffffffffffffffffffffffffffffffffffff821415612ad757612ad6612ae2565b5b600182019050919050565b7f4e487b7100000000000000000000000000000000000000000000000000000000600052601160045260246000fd5b7f4e487b7100000000000000000000000000000000000000000000000000000000600052603260045260246000fd5b7f4e487b7100000000000000000000000000000000000000000000000000000000600052604160045260246000fd5b600080fd5b600080fd5b600080fd5b600080fd5b6000601f19601f8301169050919050565b7f4465706f73697420616d6f756e74206d7573742062652067726561746572207460008201527f68616e2030000000000000000000000000000000000000000000000000000000602082015250565b7f4f776e61626c653a206e6577206f776e657220697320746865207a65726f206160008201527f6464726573730000000000000000000000000000000000000000000000000000602082015250565b7f5472616e73666572206661696c65640000000000000000000000000000000000600082015250565b7f496e73756666696369656e742062616c616e6365000000000000000000000000600082015250565b7f496e76616c696420726563697069656e74206164647265737300000000000000600082015250565b7f4f776e61626c653a2063616c6c6572206973206e6f7420746865206f776e6572600082015250565b7f5769746864726177616c20616d6f756e74206d7573742062652067726561746560008201527f72207468616e2030000000000000000000000000000000000000000000000000602082015250565b7f43616e6e6f74207472616e7366657220746f20796f757273656c660000000000600082015250565b7f496e76616c696420747261646520494400000000000000000000000000000000600082015250565b7f5472616e7366657220616d6f756e74206d75737420626520677265617465722060008201527f7468616e20300000000000000000000000000000000000000000000000000000602082015250565b7f5265656e7472616e637947756172643a207265656e7472616e742063616c6c00600082015250565b612df8816129d8565b8114612e0357600080fd5b50565b612e0f816129ea565b8114612e1a57600080fd5b50565b612e2681612a16565b8114612e3157600080fd5b5056fea26469706673582212201a835d828cba53906221c35b40114c8c658c8233fdb16ec21048787c2b8479d564736f6c63430008070033",
  "immutableReferences": {},
  "source": "// SPDX-License-Identifier: MIT\r\npragma solidity ^0.8.7;\r\n\r\nimport \"./NFTFrame.sol\";\r\nimport \"./AhoraCoin.sol\";\r\nimport \"@openzeppelin/contracts/access/Ownable.sol\";\r\nimport \"@openzeppelin/contracts/security/ReentrancyGuard.sol\";\r\n\r\n// Base contract with common functionality\r\ncontract TradeBase is Ownable, ReentrancyGuard {\r\n    NFTFrame public nftContract;\r\n    AhoraCoin public tokenContract;\r\n\r\n    //    \r\n    mapping(address => uint256) private userBalances;\r\n\r\n    struct TradeInfo {\r\n        address from;\r\n        address to;\r\n        uint256 amount;\r\n        uint256 timestamp;\r\n    }\r\n\r\n    struct TradeResult {\r\n        TradeInfo[] trades;\r\n        uint256 totalTrades;\r\n        bool hasNext;\r\n    }\r\n\r\n    //    Id  \r\n    mapping(uint256 => TradeInfo) public trades;\r\n    uint256 public tradeId;\r\n\r\n    //   ID   \r\n    mapping(address => uint256[]) private userTrades;\r\n\r\n    event TradeRecorded(uint256 indexed tradeId, address from, address to, uint256 amount, uint256 timestamp, uint256 fromBalance, uint256 toBalance);\r\n    event Deposit(address indexed user, uint256 amount, uint256 coinBalance, uint256 payableBalance);\r\n    event Withdrawal(address indexed user, uint256 amount, uint256 coinBalance, uint256 payableBalance);\r\n    event BalanceAdjusted(address indexed from, address indexed to, uint256 amount, uint256 fromBalance, uint256 toBalance);\r\n    event BalanceTransferred(address indexed from, address indexed to, uint256 amount, uint256 fromBalance, uint256 toBalance);\r\n\r\n    // \r\n    function initializeContracts(address _nftContractAddress, address _tokenContractAddress) internal {\r\n        require(address(nftContract) == address(0) && address(tokenContract) == address(0), \"Contracts already initialized\");\r\n        nftContract = NFTFrame(_nftContractAddress);\r\n        tokenContract = AhoraCoin(_tokenContractAddress);\r\n    }\r\n\r\n    //  \r\n    function recordTrade(address from, address to, uint256 amount) internal {\r\n        tradeId++;\r\n        trades[tradeId] = TradeInfo(from, to, amount, block.timestamp);\r\n        \r\n        //    ID \r\n        userTrades[from].push(tradeId);\r\n        userTrades[to].push(tradeId);\r\n        \r\n        emit TradeRecorded(tradeId, from, to, amount, block.timestamp, userBalances[from], userBalances[to]);\r\n    }\r\n\r\n    //      \r\n    function getTradesByAddress(address user, uint256 page, uint256 size) public view returns (TradeResult memory) {\r\n        uint256[] storage userTradeIds = userTrades[user];\r\n        uint256 totalUserTrades = userTradeIds.length;\r\n        \r\n        uint256 startIndex = totalUserTrades > page * size ? totalUserTrades - (page + 1) * size : 0;\r\n        uint256 endIndex = totalUserTrades - page * size;\r\n        \r\n        //    startIndex \r\n        if (startIndex > totalUserTrades || startIndex < 0) {\r\n            startIndex = 0;\r\n        }\r\n        \r\n        //      \r\n        if (endIndex <= 0 || page * size >= totalUserTrades) {\r\n            return TradeResult(new TradeInfo[](0), totalUserTrades, false);\r\n        }\r\n        \r\n        uint256 resultLength = endIndex - startIndex;\r\n        TradeInfo[] memory userTradeInfos = new TradeInfo[](resultLength);\r\n        \r\n        for (uint256 i = 0; i < resultLength; i++) {\r\n            userTradeInfos[i] = trades[userTradeIds[endIndex - 1 - i]];\r\n        }\r\n        \r\n        bool hasNext = startIndex > 0;\r\n\r\n        return TradeResult(userTradeInfos, totalUserTrades, hasNext);\r\n    }\r\n\r\n    //  tradeId trade    \r\n    function getTradeInfo(uint256 _tradeId) public view returns (TradeInfo memory) {\r\n        require(_tradeId > 0 && _tradeId <= tradeId, \"Invalid trade ID\");\r\n        return trades[_tradeId];\r\n    }\r\n    \r\n    //  \r\n    function deposit(uint256 amount) external nonReentrant {\r\n        require(amount > 0, \"Deposit amount must be greater than 0\");\r\n        require(tokenContract.transferCoinByAdmin(msg.sender, address(this), amount), \"Transfer failed\");\r\n        \r\n        userBalances[msg.sender] += amount;\r\n        recordTrade(address(0), msg.sender, amount);\r\n        emit Deposit(msg.sender, amount, tokenContract.balanceOf(msg.sender), userBalances[msg.sender]);\r\n    }\r\n\r\n    //  \r\n    function withdraw(uint256 amount) external nonReentrant {\r\n        require(amount > 0, \"Withdrawal amount must be greater than 0\");\r\n        require(userBalances[msg.sender] >= amount, \"Insufficient balance\");\r\n        \r\n        require(tokenContract.transferCoinByAdmin(address(this), msg.sender, amount), \"Transfer failed\");\r\n        userBalances[msg.sender] -= amount;\r\n        \r\n        recordTrade(msg.sender, address(0), amount);\r\n        emit Withdrawal(msg.sender, amount, tokenContract.balanceOf(msg.sender), userBalances[msg.sender]);\r\n    }\r\n\r\n    //  \r\n    function _adjustBalances(address from, address to, uint256 amount) internal {\r\n        require(userBalances[from] >= amount, \"Insufficient balance\");\r\n        userBalances[from] -= amount;\r\n        userBalances[to] += amount;\r\n        recordTrade(from, to, amount);\r\n        emit BalanceAdjusted(from, to, amount, userBalances[from], userBalances[to]);\r\n    }\r\n\r\n    //    \r\n    function transferBalanceByAdmin(address from, address to, uint256 amount) external onlyOwner nonReentrant {\r\n        require(to != address(0), \"Invalid recipient address\");\r\n        require(to != from, \"Cannot transfer to yourself\");\r\n        require(amount > 0, \"Transfer amount must be greater than 0\");\r\n        require(userBalances[from] >= amount, \"Insufficient balance\");\r\n\r\n        userBalances[from] -= amount;\r\n        userBalances[to] += amount;\r\n\r\n        recordTrade(from, to, amount);\r\n        emit BalanceTransferred(from, to, amount, userBalances[from], userBalances[to]);\r\n    }\r\n\r\n    //    \r\n    function transferBalance(address to, uint256 amount) external nonReentrant {\r\n        require(to != address(0), \"Invalid recipient address\");\r\n        require(to != msg.sender, \"Cannot transfer to yourself\");\r\n        require(amount > 0, \"Transfer amount must be greater than 0\");\r\n        require(userBalances[msg.sender] >= amount, \"Insufficient balance\");\r\n\r\n        userBalances[msg.sender] -= amount;\r\n        userBalances[to] += amount;\r\n\r\n        recordTrade(msg.sender, to, amount);\r\n        emit BalanceTransferred(msg.sender, to, amount, userBalances[msg.sender], userBalances[to]);\r\n    }\r\n\r\n    //   NFT\r\n    function getContractOwnedNFTs() public view returns (uint256[] memory) {\r\n        return nftContract.getUserNFTIds(address(this)); \r\n    }\r\n\r\n    //   \r\n    function getContractBalance() public view returns (uint256) {\r\n        return tokenContract.balanceOf(address(this));\r\n    }\r\n\r\n    //   \r\n    function getUserBalance(address user) public view returns (uint256) {\r\n        return userBalances[user];\r\n    }\r\n}",
  "sourcePath": "C:\\Users\\SSAFY\\Desktop\\semonemo\\backend\\blockchain-server\\smartcontract\\contracts\\TradeBase.sol",
  "compiler": {
    "name": "solc",
    "version": "0.8.7+commit.e28d00a7.Emscripten.clang"
  },
  "schemaVersion": "3.4.16",
  "updatedAt": "2024-10-07T06:34:24.350Z",
  "devdoc": {
    "kind": "dev",
    "methods": {
      "owner()": {
        "details": "Returns the address of the current owner."
      },
      "renounceOwnership()": {
        "details": "Leaves the contract without owner. It will not be possible to call `onlyOwner` functions anymore. Can only be called by the current owner. NOTE: Renouncing ownership will leave the contract without an owner, thereby removing any functionality that is only available to the owner."
      },
      "transferOwnership(address)": {
        "details": "Transfers ownership of the contract to a new account (`newOwner`). Can only be called by the current owner."
      }
    },
    "version": 1
  },
  "userdoc": {
    "kind": "user",
    "methods": {},
    "version": 1
  }
}