{
  "contractName": "TradeBase",
  "abi": [
    {
      "anonymous": false,
      "inputs": [
        {
          "indexed": true,
          "internalType": "address",
          "name": "from",
          "type": "address"
        },
        {
          "indexed": true,
          "internalType": "address",
          "name": "to",
          "type": "address"
        },
        {
          "indexed": false,
          "internalType": "uint256",
          "name": "amount",
          "type": "uint256"
        }
      ],
      "name": "BalanceAdjusted",
      "type": "event"
    },
    {
      "anonymous": false,
      "inputs": [
        {
          "indexed": true,
          "internalType": "address",
          "name": "from",
          "type": "address"
        },
        {
          "indexed": true,
          "internalType": "address",
          "name": "to",
          "type": "address"
        },
        {
          "indexed": false,
          "internalType": "uint256",
          "name": "amount",
          "type": "uint256"
        }
      ],
      "name": "BalanceTransferred",
      "type": "event"
    },
    {
      "anonymous": false,
      "inputs": [
        {
          "indexed": true,
          "internalType": "address",
          "name": "user",
          "type": "address"
        },
        {
          "indexed": false,
          "internalType": "uint256",
          "name": "amount",
          "type": "uint256"
        }
      ],
      "name": "Deposit",
      "type": "event"
    },
    {
      "anonymous": false,
      "inputs": [
        {
          "indexed": true,
          "internalType": "address",
          "name": "previousOwner",
          "type": "address"
        },
        {
          "indexed": true,
          "internalType": "address",
          "name": "newOwner",
          "type": "address"
        }
      ],
      "name": "OwnershipTransferred",
      "type": "event"
    },
    {
      "anonymous": false,
      "inputs": [
        {
          "indexed": true,
          "internalType": "address",
          "name": "user",
          "type": "address"
        },
        {
          "indexed": false,
          "internalType": "uint256",
          "name": "amount",
          "type": "uint256"
        }
      ],
      "name": "Withdrawal",
      "type": "event"
    },
    {
      "inputs": [],
      "name": "nftContract",
      "outputs": [
        {
          "internalType": "contract NFTFrame",
          "name": "",
          "type": "address"
        }
      ],
      "stateMutability": "view",
      "type": "function"
    },
    {
      "inputs": [],
      "name": "owner",
      "outputs": [
        {
          "internalType": "address",
          "name": "",
          "type": "address"
        }
      ],
      "stateMutability": "view",
      "type": "function"
    },
    {
      "inputs": [],
      "name": "renounceOwnership",
      "outputs": [],
      "stateMutability": "nonpayable",
      "type": "function"
    },
    {
      "inputs": [],
      "name": "tokenContract",
      "outputs": [
        {
          "internalType": "contract AhoraCoin",
          "name": "",
          "type": "address"
        }
      ],
      "stateMutability": "view",
      "type": "function"
    },
    {
      "inputs": [
        {
          "internalType": "address",
          "name": "newOwner",
          "type": "address"
        }
      ],
      "name": "transferOwnership",
      "outputs": [],
      "stateMutability": "nonpayable",
      "type": "function"
    },
    {
      "inputs": [
        {
          "internalType": "uint256",
          "name": "amount",
          "type": "uint256"
        }
      ],
      "name": "deposit",
      "outputs": [],
      "stateMutability": "nonpayable",
      "type": "function"
    },
    {
      "inputs": [
        {
          "internalType": "uint256",
          "name": "amount",
          "type": "uint256"
        }
      ],
      "name": "withdraw",
      "outputs": [],
      "stateMutability": "nonpayable",
      "type": "function"
    },
    {
      "inputs": [
        {
          "internalType": "address",
          "name": "to",
          "type": "address"
        },
        {
          "internalType": "uint256",
          "name": "amount",
          "type": "uint256"
        }
      ],
      "name": "transferBalance",
      "outputs": [],
      "stateMutability": "nonpayable",
      "type": "function"
    },
    {
      "inputs": [],
      "name": "getContractOwnedNFTs",
      "outputs": [
        {
          "internalType": "uint256[]",
          "name": "",
          "type": "uint256[]"
        }
      ],
      "stateMutability": "view",
      "type": "function"
    },
    {
      "inputs": [],
      "name": "getContractBalance",
      "outputs": [
        {
          "internalType": "uint256",
          "name": "",
          "type": "uint256"
        }
      ],
      "stateMutability": "view",
      "type": "function"
    },
    {
      "inputs": [
        {
          "internalType": "address",
          "name": "user",
          "type": "address"
        }
      ],
      "name": "getUserBalance",
      "outputs": [
        {
          "internalType": "uint256",
          "name": "",
          "type": "uint256"
        }
      ],
      "stateMutability": "view",
      "type": "function"
    }
  ],
  "bytecode": "0x608060405234801561001057600080fd5b5061002d61002261003960201b60201c565b61004160201b60201c565b60018081905550610105565b600033905090565b60008060009054906101000a900473ffffffffffffffffffffffffffffffffffffffff169050816000806101000a81548173ffffffffffffffffffffffffffffffffffffffff021916908373ffffffffffffffffffffffffffffffffffffffff1602179055508173ffffffffffffffffffffffffffffffffffffffff168173ffffffffffffffffffffffffffffffffffffffff167f8be0079c531659141344cd1fd0a4f28419497f9722a3daafe3b4186f6b6457e060405160405180910390a35050565b6119df806101146000396000f3fe608060405234801561001057600080fd5b50600436106100a95760003560e01c8063715018a611610071578063715018a6146101525780638da5cb5b1461015c578063b6b55f251461017a578063d3e6fa1914610196578063d56d229d146101b4578063f2fde38b146101d2576100a9565b80632e1a7d4d146100ae57806347734892146100ca57806355a373d6146100fa57806356a6d9ef146101185780636f9fb98a14610134575b600080fd5b6100c860048036038101906100c39190611022565b6101ee565b005b6100e460048036038101906100df9190610f3f565b61049d565b6040516100f191906114ae565b60405180910390f35b6101026104e6565b60405161010f9190611338565b60405180910390f35b610132600480360381019061012d9190610f6c565b61050c565b005b61013c61081a565b60405161014991906114ae565b60405180910390f35b61015a6108cc565b005b610164610954565b604051610171919061129b565b60405180910390f35b610194600480360381019061018f9190611022565b61097d565b005b61019e610bac565b6040516101ab9190611316565b60405180910390f35b6101bc610c63565b6040516101c99190611353565b60405180910390f35b6101ec60048036038101906101e79190610f3f565b610c89565b005b60026001541415610234576040517f08c379a000000000000000000000000000000000000000000000000000000000815260040161022b9061148e565b60405180910390fd5b60026001819055506000811161027f576040517f08c379a00000000000000000000000000000000000000000000000000000000081526004016102769061142e565b60405180910390fd5b80600460003373ffffffffffffffffffffffffffffffffffffffff1673ffffffffffffffffffffffffffffffffffffffff168152602001908152602001600020541015610301576040517f08c379a00000000000000000000000000000000000000000000000000000000081526004016102f8906113ce565b60405180910390fd5b80600460003373ffffffffffffffffffffffffffffffffffffffff1673ffffffffffffffffffffffffffffffffffffffff168152602001908152602001600020600082825461035091906115ba565b92505081905550600360009054906101000a900473ffffffffffffffffffffffffffffffffffffffff1673ffffffffffffffffffffffffffffffffffffffff16631b33a8db33836040518363ffffffff1660e01b81526004016103b49291906112ed565b602060405180830381600087803b1580156103ce57600080fd5b505af11580156103e2573d6000803e3d6000fd5b505050506040513d601f19601f820116820180604052508101906104069190610ff5565b610445576040517f08c379a000000000000000000000000000000000000000000000000000000000815260040161043c906113ae565b60405180910390fd5b3373ffffffffffffffffffffffffffffffffffffffff167f7fcf532c15f0a6db0bd6d0e038bea71d30d808c7d98cb3bf7268a95bf5081b658260405161048b91906114ae565b60405180910390a26001808190555050565b6000600460008373ffffffffffffffffffffffffffffffffffffffff1673ffffffffffffffffffffffffffffffffffffffff168152602001908152602001600020549050919050565b600360009054906101000a900473ffffffffffffffffffffffffffffffffffffffff1681565b60026001541415610552576040517f08c379a00000000000000000000000000000000000000000000000000000000081526004016105499061148e565b60405180910390fd5b6002600181905550600073ffffffffffffffffffffffffffffffffffffffff168273ffffffffffffffffffffffffffffffffffffffff1614156105ca576040517f08c379a00000000000000000000000000000000000000000000000000000000081526004016105c1906113ee565b60405180910390fd5b3373ffffffffffffffffffffffffffffffffffffffff168273ffffffffffffffffffffffffffffffffffffffff161415610639576040517f08c379a00000000000000000000000000000000000000000000000000000000081526004016106309061144e565b60405180910390fd5b6000811161067c576040517f08c379a00000000000000000000000000000000000000000000000000000000081526004016106739061146e565b60405180910390fd5b80600460003373ffffffffffffffffffffffffffffffffffffffff1673ffffffffffffffffffffffffffffffffffffffff1681526020019081526020016000205410156106fe576040517f08c379a00000000000000000000000000000000000000000000000000000000081526004016106f5906113ce565b60405180910390fd5b80600460003373ffffffffffffffffffffffffffffffffffffffff1673ffffffffffffffffffffffffffffffffffffffff168152602001908152602001600020600082825461074d91906115ba565b9250508190555080600460008473ffffffffffffffffffffffffffffffffffffffff1673ffffffffffffffffffffffffffffffffffffffff16815260200190815260200160002060008282546107a39190611564565b925050819055508173ffffffffffffffffffffffffffffffffffffffff163373ffffffffffffffffffffffffffffffffffffffff167f4163d0b06696468b3d7903f482bcd0097bd38a9a9086157479fd6c6561d242618360405161080791906114ae565b60405180910390a3600180819055505050565b6000600360009054906101000a900473ffffffffffffffffffffffffffffffffffffffff1673ffffffffffffffffffffffffffffffffffffffff166370a08231306040518263ffffffff1660e01b8152600401610877919061129b565b60206040518083038186803b15801561088f57600080fd5b505afa1580156108a3573d6000803e3d6000fd5b505050506040513d601f19601f820116820180604052508101906108c7919061104f565b905090565b6108d4610d81565b73ffffffffffffffffffffffffffffffffffffffff166108f2610954565b73ffffffffffffffffffffffffffffffffffffffff1614610948576040517f08c379a000000000000000000000000000000000000000000000000000000000815260040161093f9061140e565b60405180910390fd5b6109526000610d89565b565b60008060009054906101000a900473ffffffffffffffffffffffffffffffffffffffff16905090565b600260015414156109c3576040517f08c379a00000000000000000000000000000000000000000000000000000000081526004016109ba9061148e565b60405180910390fd5b600260018190555060008111610a0e576040517f08c379a0000000000000000000000000000000000000000000000000000000008152600401610a059061136e565b60405180910390fd5b600360009054906101000a900473ffffffffffffffffffffffffffffffffffffffff1673ffffffffffffffffffffffffffffffffffffffff1663f67ac38c3330846040518463ffffffff1660e01b8152600401610a6d939291906112b6565b602060405180830381600087803b158015610a8757600080fd5b505af1158015610a9b573d6000803e3d6000fd5b505050506040513d601f19601f82011682018060405250810190610abf9190610ff5565b610afe576040517f08c379a0000000000000000000000000000000000000000000000000000000008152600401610af5906113ae565b60405180910390fd5b80600460003373ffffffffffffffffffffffffffffffffffffffff1673ffffffffffffffffffffffffffffffffffffffff1681526020019081526020016000206000828254610b4d9190611564565b925050819055503373ffffffffffffffffffffffffffffffffffffffff167fe1fffcc4923d04b559f4d29a8bfc6cda04eb5b0d3c460751c2402c5c5cc9109c82604051610b9a91906114ae565b60405180910390a26001808190555050565b6060600260009054906101000a900473ffffffffffffffffffffffffffffffffffffffff1673ffffffffffffffffffffffffffffffffffffffff1663e6b1fa2a306040518263ffffffff1660e01b8152600401610c09919061129b565b60006040518083038186803b158015610c2157600080fd5b505afa158015610c35573d6000803e3d6000fd5b505050506040513d6000823e3d601f19601f82011682018060405250810190610c5e9190610fac565b905090565b600260009054906101000a900473ffffffffffffffffffffffffffffffffffffffff1681565b610c91610d81565b73ffffffffffffffffffffffffffffffffffffffff16610caf610954565b73ffffffffffffffffffffffffffffffffffffffff1614610d05576040517f08c379a0000000000000000000000000000000000000000000000000000000008152600401610cfc9061140e565b60405180910390fd5b600073ffffffffffffffffffffffffffffffffffffffff168173ffffffffffffffffffffffffffffffffffffffff161415610d75576040517f08c379a0000000000000000000000000000000000000000000000000000000008152600401610d6c9061138e565b60405180910390fd5b610d7e81610d89565b50565b600033905090565b60008060009054906101000a900473ffffffffffffffffffffffffffffffffffffffff169050816000806101000a81548173ffffffffffffffffffffffffffffffffffffffff021916908373ffffffffffffffffffffffffffffffffffffffff1602179055508173ffffffffffffffffffffffffffffffffffffffff168173ffffffffffffffffffffffffffffffffffffffff167f8be0079c531659141344cd1fd0a4f28419497f9722a3daafe3b4186f6b6457e060405160405180910390a35050565b6000610e60610e5b846114ee565b6114c9565b90508083825260208201905082856020860282011115610e8357610e82611712565b5b60005b85811015610eb35781610e998882610f2a565b845260208401935060208301925050600181019050610e86565b5050509392505050565b600081359050610ecc81611964565b92915050565b600082601f830112610ee757610ee661170d565b5b8151610ef7848260208601610e4d565b91505092915050565b600081519050610f0f8161197b565b92915050565b600081359050610f2481611992565b92915050565b600081519050610f3981611992565b92915050565b600060208284031215610f5557610f5461171c565b5b6000610f6384828501610ebd565b91505092915050565b60008060408385031215610f8357610f8261171c565b5b6000610f9185828601610ebd565b9250506020610fa285828601610f15565b9150509250929050565b600060208284031215610fc257610fc161171c565b5b600082015167ffffffffffffffff811115610fe057610fdf611717565b5b610fec84828501610ed2565b91505092915050565b60006020828403121561100b5761100a61171c565b5b600061101984828501610f00565b91505092915050565b6000602082840312156110385761103761171c565b5b600061104684828501610f15565b91505092915050565b6000602082840312156110655761106461171c565b5b600061107384828501610f2a565b91505092915050565b6000611088838361127d565b60208301905092915050565b61109d816115ee565b82525050565b60006110ae8261152a565b6110b88185611542565b93506110c38361151a565b8060005b838110156110f45781516110db888261107c565b97506110e683611535565b9250506001810190506110c7565b5085935050505092915050565b61110a81611636565b82525050565b61111981611648565b82525050565b600061112c602583611553565b915061113782611732565b604082019050919050565b600061114f602683611553565b915061115a82611781565b604082019050919050565b6000611172600f83611553565b915061117d826117d0565b602082019050919050565b6000611195601483611553565b91506111a0826117f9565b602082019050919050565b60006111b8601983611553565b91506111c382611822565b602082019050919050565b60006111db602083611553565b91506111e68261184b565b602082019050919050565b60006111fe602883611553565b915061120982611874565b604082019050919050565b6000611221601b83611553565b915061122c826118c3565b602082019050919050565b6000611244602683611553565b915061124f826118ec565b604082019050919050565b6000611267601f83611553565b91506112728261193b565b602082019050919050565b6112868161162c565b82525050565b6112958161162c565b82525050565b60006020820190506112b06000830184611094565b92915050565b60006060820190506112cb6000830186611094565b6112d86020830185611094565b6112e5604083018461128c565b949350505050565b60006040820190506113026000830185611094565b61130f602083018461128c565b9392505050565b6000602082019050818103600083015261133081846110a3565b905092915050565b600060208201905061134d6000830184611101565b92915050565b60006020820190506113686000830184611110565b92915050565b600060208201905081810360008301526113878161111f565b9050919050565b600060208201905081810360008301526113a781611142565b9050919050565b600060208201905081810360008301526113c781611165565b9050919050565b600060208201905081810360008301526113e781611188565b9050919050565b60006020820190508181036000830152611407816111ab565b9050919050565b60006020820190508181036000830152611427816111ce565b9050919050565b60006020820190508181036000830152611447816111f1565b9050919050565b6000602082019050818103600083015261146781611214565b9050919050565b6000602082019050818103600083015261148781611237565b9050919050565b600060208201905081810360008301526114a78161125a565b9050919050565b60006020820190506114c3600083018461128c565b92915050565b60006114d36114e4565b90506114df828261167e565b919050565b6000604051905090565b600067ffffffffffffffff821115611509576115086116de565b5b602082029050602081019050919050565b6000819050602082019050919050565b600081519050919050565b6000602082019050919050565b600082825260208201905092915050565b600082825260208201905092915050565b600061156f8261162c565b915061157a8361162c565b9250827fffffffffffffffffffffffffffffffffffffffffffffffffffffffffffffffff038211156115af576115ae6116af565b5b828201905092915050565b60006115c58261162c565b91506115d08361162c565b9250828210156115e3576115e26116af565b5b828203905092915050565b60006115f98261160c565b9050919050565b60008115159050919050565b600073ffffffffffffffffffffffffffffffffffffffff82169050919050565b6000819050919050565b60006116418261165a565b9050919050565b60006116538261165a565b9050919050565b60006116658261166c565b9050919050565b60006116778261160c565b9050919050565b61168782611721565b810181811067ffffffffffffffff821117156116a6576116a56116de565b5b80604052505050565b7f4e487b7100000000000000000000000000000000000000000000000000000000600052601160045260246000fd5b7f4e487b7100000000000000000000000000000000000000000000000000000000600052604160045260246000fd5b600080fd5b600080fd5b600080fd5b600080fd5b6000601f19601f8301169050919050565b7f4465706f73697420616d6f756e74206d7573742062652067726561746572207460008201527f68616e2030000000000000000000000000000000000000000000000000000000602082015250565b7f4f776e61626c653a206e6577206f776e657220697320746865207a65726f206160008201527f6464726573730000000000000000000000000000000000000000000000000000602082015250565b7f5472616e73666572206661696c65640000000000000000000000000000000000600082015250565b7f496e73756666696369656e742062616c616e6365000000000000000000000000600082015250565b7f496e76616c696420726563697069656e74206164647265737300000000000000600082015250565b7f4f776e61626c653a2063616c6c6572206973206e6f7420746865206f776e6572600082015250565b7f5769746864726177616c20616d6f756e74206d7573742062652067726561746560008201527f72207468616e2030000000000000000000000000000000000000000000000000602082015250565b7f43616e6e6f74207472616e7366657220746f20796f757273656c660000000000600082015250565b7f5472616e7366657220616d6f756e74206d75737420626520677265617465722060008201527f7468616e20300000000000000000000000000000000000000000000000000000602082015250565b7f5265656e7472616e637947756172643a207265656e7472616e742063616c6c00600082015250565b61196d816115ee565b811461197857600080fd5b50565b61198481611600565b811461198f57600080fd5b50565b61199b8161162c565b81146119a657600080fd5b5056fea26469706673582212207d54cfc2c4fbb3cfff91bb7ca88ec214a04f38cadcfefb3bb56242d4f3dc197764736f6c63430008070033",
  "immutableReferences": {},
  "source": "// SPDX-License-Identifier: MIT\r\npragma solidity ^0.8.7;\r\n\r\nimport \"./NFTFrame.sol\";\r\nimport \"./AhoraCoin.sol\";\r\nimport \"@openzeppelin/contracts/access/Ownable.sol\";\r\nimport \"@openzeppelin/contracts/security/ReentrancyGuard.sol\";\r\n\r\n// Base contract with common functionality\r\ncontract TradeBase is Ownable, ReentrancyGuard {\r\n    NFTFrame public nftContract;\r\n    AhoraCoin public tokenContract;\r\n\r\n    //    \r\n    mapping(address => uint256) private userBalances;\r\n\r\n    event Deposit(address indexed user, uint256 amount);\r\n    event Withdrawal(address indexed user, uint256 amount);\r\n    event BalanceAdjusted(address indexed from, address indexed to, uint256 amount);\r\n    event BalanceTransferred(address indexed from, address indexed to, uint256 amount);\r\n\r\n    // \r\n    function initializeContracts(address _nftContractAddress, address _tokenContractAddress) internal {\r\n        require(address(nftContract) == address(0) && address(tokenContract) == address(0), \"Contracts already initialized\");\r\n        nftContract = NFTFrame(_nftContractAddress);\r\n        tokenContract = AhoraCoin(_tokenContractAddress);\r\n    }\r\n\r\n    //  \r\n    function deposit(uint256 amount) external nonReentrant {\r\n        require(amount > 0, \"Deposit amount must be greater than 0\");\r\n        require(tokenContract.transferUserToSystem(msg.sender, address(this), amount), \"Transfer failed\");\r\n        \r\n        userBalances[msg.sender] += amount;\r\n        emit Deposit(msg.sender, amount);\r\n    }\r\n\r\n    //  \r\n    function withdraw(uint256 amount) external nonReentrant {\r\n        require(amount > 0, \"Withdrawal amount must be greater than 0\");\r\n        require(userBalances[msg.sender] >= amount, \"Insufficient balance\");\r\n        \r\n        userBalances[msg.sender] -= amount;\r\n        require(tokenContract.transferSenderToUser(msg.sender, amount), \"Transfer failed\");\r\n        \r\n        emit Withdrawal(msg.sender, amount);\r\n    }\r\n\r\n    //  \r\n    function _adjustBalances(address from, address to, uint256 amount) internal {\r\n        require(userBalances[from] >= amount, \"Insufficient balance\");\r\n        userBalances[from] -= amount;\r\n        userBalances[to] += amount;\r\n        emit BalanceAdjusted(from, to, amount);\r\n    }\r\n\r\n    //    \r\n    function transferBalance(address to, uint256 amount) external nonReentrant {\r\n        require(to != address(0), \"Invalid recipient address\");\r\n        require(to != msg.sender, \"Cannot transfer to yourself\");\r\n        require(amount > 0, \"Transfer amount must be greater than 0\");\r\n        require(userBalances[msg.sender] >= amount, \"Insufficient balance\");\r\n\r\n        userBalances[msg.sender] -= amount;\r\n        userBalances[to] += amount;\r\n\r\n        emit BalanceTransferred(msg.sender, to, amount);\r\n    }\r\n\r\n    //   NFT\r\n    function getContractOwnedNFTs() public view returns (uint256[] memory) {\r\n        return nftContract.getUserNFTIds(address(this));\r\n    }\r\n\r\n    //   \r\n    function getContractBalance() public view returns (uint256) {\r\n        return tokenContract.balanceOf(address(this));\r\n    }\r\n\r\n    //   \r\n    function getUserBalance(address user) public view returns (uint256) {\r\n        return userBalances[user];\r\n    }\r\n}",
  "sourcePath": "C:\\Users\\SSAFY\\Desktop\\semonemo\\backend\\blockchain-server\\smartcontract\\contracts\\TradeBase.sol",
  "compiler": {
    "name": "solc",
    "version": "0.8.7+commit.e28d00a7.Emscripten.clang"
  },
  "schemaVersion": "3.4.16",
  "updatedAt": "2024-09-27T00:57:20.654Z",
  "devdoc": {
    "kind": "dev",
    "methods": {
      "owner()": {
        "details": "Returns the address of the current owner."
      },
      "renounceOwnership()": {
        "details": "Leaves the contract without owner. It will not be possible to call `onlyOwner` functions anymore. Can only be called by the current owner. NOTE: Renouncing ownership will leave the contract without an owner, thereby removing any functionality that is only available to the owner."
      },
      "transferOwnership(address)": {
        "details": "Transfers ownership of the contract to a new account (`newOwner`). Can only be called by the current owner."
      }
    },
    "version": 1
  },
  "userdoc": {
    "kind": "user",
    "methods": {},
    "version": 1
  }
}