{
  "contractName": "TradeBase",
  "abi": [
    {
      "anonymous": false,
      "inputs": [
        {
          "indexed": true,
          "internalType": "address",
          "name": "from",
          "type": "address"
        },
        {
          "indexed": true,
          "internalType": "address",
          "name": "to",
          "type": "address"
        },
        {
          "indexed": false,
          "internalType": "uint256",
          "name": "amount",
          "type": "uint256"
        }
      ],
      "name": "BalanceAdjusted",
      "type": "event"
    },
    {
      "anonymous": false,
      "inputs": [
        {
          "indexed": true,
          "internalType": "address",
          "name": "from",
          "type": "address"
        },
        {
          "indexed": true,
          "internalType": "address",
          "name": "to",
          "type": "address"
        },
        {
          "indexed": false,
          "internalType": "uint256",
          "name": "amount",
          "type": "uint256"
        }
      ],
      "name": "BalanceTransferred",
      "type": "event"
    },
    {
      "anonymous": false,
      "inputs": [
        {
          "indexed": true,
          "internalType": "address",
          "name": "user",
          "type": "address"
        },
        {
          "indexed": false,
          "internalType": "uint256",
          "name": "amount",
          "type": "uint256"
        }
      ],
      "name": "Deposit",
      "type": "event"
    },
    {
      "anonymous": false,
      "inputs": [
        {
          "indexed": true,
          "internalType": "address",
          "name": "previousOwner",
          "type": "address"
        },
        {
          "indexed": true,
          "internalType": "address",
          "name": "newOwner",
          "type": "address"
        }
      ],
      "name": "OwnershipTransferred",
      "type": "event"
    },
    {
      "anonymous": false,
      "inputs": [
        {
          "indexed": true,
          "internalType": "uint256",
          "name": "tradeId",
          "type": "uint256"
        },
        {
          "indexed": false,
          "internalType": "address",
          "name": "from",
          "type": "address"
        },
        {
          "indexed": false,
          "internalType": "address",
          "name": "to",
          "type": "address"
        },
        {
          "indexed": false,
          "internalType": "uint256",
          "name": "amount",
          "type": "uint256"
        },
        {
          "indexed": false,
          "internalType": "uint256",
          "name": "timestamp",
          "type": "uint256"
        }
      ],
      "name": "TradeRecorded",
      "type": "event"
    },
    {
      "anonymous": false,
      "inputs": [
        {
          "indexed": true,
          "internalType": "address",
          "name": "user",
          "type": "address"
        },
        {
          "indexed": false,
          "internalType": "uint256",
          "name": "amount",
          "type": "uint256"
        }
      ],
      "name": "Withdrawal",
      "type": "event"
    },
    {
      "inputs": [],
      "name": "nftContract",
      "outputs": [
        {
          "internalType": "contract NFTFrame",
          "name": "",
          "type": "address"
        }
      ],
      "stateMutability": "view",
      "type": "function"
    },
    {
      "inputs": [],
      "name": "owner",
      "outputs": [
        {
          "internalType": "address",
          "name": "",
          "type": "address"
        }
      ],
      "stateMutability": "view",
      "type": "function"
    },
    {
      "inputs": [],
      "name": "renounceOwnership",
      "outputs": [],
      "stateMutability": "nonpayable",
      "type": "function"
    },
    {
      "inputs": [],
      "name": "tokenContract",
      "outputs": [
        {
          "internalType": "contract AhoraCoin",
          "name": "",
          "type": "address"
        }
      ],
      "stateMutability": "view",
      "type": "function"
    },
    {
      "inputs": [],
      "name": "tradeId",
      "outputs": [
        {
          "internalType": "uint256",
          "name": "",
          "type": "uint256"
        }
      ],
      "stateMutability": "view",
      "type": "function"
    },
    {
      "inputs": [
        {
          "internalType": "uint256",
          "name": "",
          "type": "uint256"
        }
      ],
      "name": "trades",
      "outputs": [
        {
          "internalType": "address",
          "name": "from",
          "type": "address"
        },
        {
          "internalType": "address",
          "name": "to",
          "type": "address"
        },
        {
          "internalType": "uint256",
          "name": "amount",
          "type": "uint256"
        },
        {
          "internalType": "uint256",
          "name": "timestamp",
          "type": "uint256"
        }
      ],
      "stateMutability": "view",
      "type": "function"
    },
    {
      "inputs": [
        {
          "internalType": "address",
          "name": "newOwner",
          "type": "address"
        }
      ],
      "name": "transferOwnership",
      "outputs": [],
      "stateMutability": "nonpayable",
      "type": "function"
    },
    {
      "inputs": [
        {
          "internalType": "address",
          "name": "user",
          "type": "address"
        },
        {
          "internalType": "uint256",
          "name": "page",
          "type": "uint256"
        },
        {
          "internalType": "uint256",
          "name": "size",
          "type": "uint256"
        }
      ],
      "name": "getTradesByAddress",
      "outputs": [
        {
          "components": [
            {
              "components": [
                {
                  "internalType": "address",
                  "name": "from",
                  "type": "address"
                },
                {
                  "internalType": "address",
                  "name": "to",
                  "type": "address"
                },
                {
                  "internalType": "uint256",
                  "name": "amount",
                  "type": "uint256"
                },
                {
                  "internalType": "uint256",
                  "name": "timestamp",
                  "type": "uint256"
                }
              ],
              "internalType": "struct TradeBase.TradeInfo[]",
              "name": "trades",
              "type": "tuple[]"
            },
            {
              "internalType": "uint256",
              "name": "totalTrades",
              "type": "uint256"
            },
            {
              "internalType": "bool",
              "name": "hasNext",
              "type": "bool"
            }
          ],
          "internalType": "struct TradeBase.TradeResult",
          "name": "",
          "type": "tuple"
        }
      ],
      "stateMutability": "view",
      "type": "function"
    },
    {
      "inputs": [
        {
          "internalType": "uint256",
          "name": "amount",
          "type": "uint256"
        }
      ],
      "name": "deposit",
      "outputs": [],
      "stateMutability": "nonpayable",
      "type": "function"
    },
    {
      "inputs": [
        {
          "internalType": "uint256",
          "name": "amount",
          "type": "uint256"
        }
      ],
      "name": "withdraw",
      "outputs": [],
      "stateMutability": "nonpayable",
      "type": "function"
    },
    {
      "inputs": [
        {
          "internalType": "address",
          "name": "from",
          "type": "address"
        },
        {
          "internalType": "address",
          "name": "to",
          "type": "address"
        },
        {
          "internalType": "uint256",
          "name": "amount",
          "type": "uint256"
        }
      ],
      "name": "transferBalance",
      "outputs": [],
      "stateMutability": "nonpayable",
      "type": "function"
    },
    {
      "inputs": [],
      "name": "getContractOwnedNFTs",
      "outputs": [
        {
          "internalType": "uint256[]",
          "name": "",
          "type": "uint256[]"
        }
      ],
      "stateMutability": "view",
      "type": "function"
    },
    {
      "inputs": [],
      "name": "getContractBalance",
      "outputs": [
        {
          "internalType": "uint256",
          "name": "",
          "type": "uint256"
        }
      ],
      "stateMutability": "view",
      "type": "function"
    },
    {
      "inputs": [
        {
          "internalType": "address",
          "name": "user",
          "type": "address"
        }
      ],
      "name": "getUserBalance",
      "outputs": [
        {
          "internalType": "uint256",
          "name": "",
          "type": "uint256"
        }
      ],
      "stateMutability": "view",
      "type": "function"
    }
  ],
  "bytecode": "0x608060405234801561001057600080fd5b5061002d61002261003960201b60201c565b61004160201b60201c565b60018081905550610105565b600033905090565b60008060009054906101000a900473ffffffffffffffffffffffffffffffffffffffff169050816000806101000a81548173ffffffffffffffffffffffffffffffffffffffff021916908373ffffffffffffffffffffffffffffffffffffffff1602179055508173ffffffffffffffffffffffffffffffffffffffff168173ffffffffffffffffffffffffffffffffffffffff167f8be0079c531659141344cd1fd0a4f28419497f9722a3daafe3b4186f6b6457e060405160405180910390a35050565b61248580620001156000396000f3fe608060405234801561001057600080fd5b50600436106100ea5760003560e01c80638da5cb5b1161008c578063d3e6fa1911610066578063d3e6fa1914610228578063d56d229d14610246578063d750558f14610264578063f2fde38b14610294576100ea565b80638da5cb5b146101d2578063a606b94a146101f0578063b6b55f251461020c576100ea565b806347734892116100c8578063477348921461015c57806355a373d61461018c5780636f9fb98a146101aa578063715018a6146101c8576100ea565b806302c5115b146100ef5780631e6c598e1461010d5780632e1a7d4d14610140575b600080fd5b6100f76102b0565b6040516101049190611e49565b60405180910390f35b61012760048036038101906101229190611846565b6102b6565b6040516101379493929190611c4a565b60405180910390f35b61015a60048036038101906101559190611846565b610326565b005b610176600480360381019061017191906116fd565b6105d7565b6040516101839190611e49565b60405180910390f35b610194610620565b6040516101a19190611cb1565b60405180910390f35b6101b2610646565b6040516101bf9190611e49565b60405180910390f35b6101d06106f8565b005b6101da610780565b6040516101e79190611bf8565b60405180910390f35b61020a6004803603810190610205919061172a565b6107a9565b005b61022660048036038101906102219190611846565b610b3f565b005b610230610d6e565b60405161023d9190611c8f565b60405180910390f35b61024e610e25565b60405161025b9190611ccc565b60405180910390f35b61027e6004803603810190610279919061177d565b610e4b565b60405161028b9190611e27565b60405180910390f35b6102ae60048036038101906102a991906116fd565b61119c565b005b60065481565b60056020528060005260406000206000915090508060000160009054906101000a900473ffffffffffffffffffffffffffffffffffffffff16908060010160009054906101000a900473ffffffffffffffffffffffffffffffffffffffff16908060020154908060030154905084565b6002600154141561036c576040517f08c379a000000000000000000000000000000000000000000000000000000000815260040161036390611e07565b60405180910390fd5b6002600181905550600081116103b7576040517f08c379a00000000000000000000000000000000000000000000000000000000081526004016103ae90611da7565b60405180910390fd5b80600460003373ffffffffffffffffffffffffffffffffffffffff1673ffffffffffffffffffffffffffffffffffffffff168152602001908152602001600020541015610439576040517f08c379a000000000000000000000000000000000000000000000000000000000815260040161043090611d47565b60405180910390fd5b80600460003373ffffffffffffffffffffffffffffffffffffffff1673ffffffffffffffffffffffffffffffffffffffff16815260200190815260200160002060008282546104889190611fe8565b92505081905550600360009054906101000a900473ffffffffffffffffffffffffffffffffffffffff1673ffffffffffffffffffffffffffffffffffffffff16636153fced3033846040518463ffffffff1660e01b81526004016104ee93929190611c13565b602060405180830381600087803b15801561050857600080fd5b505af115801561051c573d6000803e3d6000fd5b505050506040513d601f19601f820116820180604052508101906105409190611819565b61057f576040517f08c379a000000000000000000000000000000000000000000000000000000000815260040161057690611d27565b60405180910390fd5b3373ffffffffffffffffffffffffffffffffffffffff167f7fcf532c15f0a6db0bd6d0e038bea71d30d808c7d98cb3bf7268a95bf5081b65826040516105c59190611e49565b60405180910390a26001808190555050565b6000600460008373ffffffffffffffffffffffffffffffffffffffff1673ffffffffffffffffffffffffffffffffffffffff168152602001908152602001600020549050919050565b600360009054906101000a900473ffffffffffffffffffffffffffffffffffffffff1681565b6000600360009054906101000a900473ffffffffffffffffffffffffffffffffffffffff1673ffffffffffffffffffffffffffffffffffffffff166370a08231306040518263ffffffff1660e01b81526004016106a39190611bf8565b60206040518083038186803b1580156106bb57600080fd5b505afa1580156106cf573d6000803e3d6000fd5b505050506040513d601f19601f820116820180604052508101906106f39190611873565b905090565b610700611294565b73ffffffffffffffffffffffffffffffffffffffff1661071e610780565b73ffffffffffffffffffffffffffffffffffffffff1614610774576040517f08c379a000000000000000000000000000000000000000000000000000000000815260040161076b90611d87565b60405180910390fd5b61077e600061129c565b565b60008060009054906101000a900473ffffffffffffffffffffffffffffffffffffffff16905090565b6107b1611294565b73ffffffffffffffffffffffffffffffffffffffff166107cf610780565b73ffffffffffffffffffffffffffffffffffffffff1614610825576040517f08c379a000000000000000000000000000000000000000000000000000000000815260040161081c90611d87565b60405180910390fd5b6002600154141561086b576040517f08c379a000000000000000000000000000000000000000000000000000000000815260040161086290611e07565b60405180910390fd5b6002600181905550600073ffffffffffffffffffffffffffffffffffffffff168273ffffffffffffffffffffffffffffffffffffffff1614156108e3576040517f08c379a00000000000000000000000000000000000000000000000000000000081526004016108da90611d67565b60405180910390fd5b8273ffffffffffffffffffffffffffffffffffffffff168273ffffffffffffffffffffffffffffffffffffffff161415610952576040517f08c379a000000000000000000000000000000000000000000000000000000000815260040161094990611dc7565b60405180910390fd5b60008111610995576040517f08c379a000000000000000000000000000000000000000000000000000000000815260040161098c90611de7565b60405180910390fd5b80600460008573ffffffffffffffffffffffffffffffffffffffff1673ffffffffffffffffffffffffffffffffffffffff168152602001908152602001600020541015610a17576040517f08c379a0000000000000000000000000000000000000000000000000000000008152600401610a0e90611d47565b60405180910390fd5b80600460008573ffffffffffffffffffffffffffffffffffffffff1673ffffffffffffffffffffffffffffffffffffffff1681526020019081526020016000206000828254610a669190611fe8565b9250508190555080600460008473ffffffffffffffffffffffffffffffffffffffff1673ffffffffffffffffffffffffffffffffffffffff1681526020019081526020016000206000828254610abc9190611f38565b92505081905550610ace838383611360565b8173ffffffffffffffffffffffffffffffffffffffff168373ffffffffffffffffffffffffffffffffffffffff167f4163d0b06696468b3d7903f482bcd0097bd38a9a9086157479fd6c6561d2426183604051610b2b9190611e49565b60405180910390a360018081905550505050565b60026001541415610b85576040517f08c379a0000000000000000000000000000000000000000000000000000000008152600401610b7c90611e07565b60405180910390fd5b600260018190555060008111610bd0576040517f08c379a0000000000000000000000000000000000000000000000000000000008152600401610bc790611ce7565b60405180910390fd5b600360009054906101000a900473ffffffffffffffffffffffffffffffffffffffff1673ffffffffffffffffffffffffffffffffffffffff16636153fced3330846040518463ffffffff1660e01b8152600401610c2f93929190611c13565b602060405180830381600087803b158015610c4957600080fd5b505af1158015610c5d573d6000803e3d6000fd5b505050506040513d601f19601f82011682018060405250810190610c819190611819565b610cc0576040517f08c379a0000000000000000000000000000000000000000000000000000000008152600401610cb790611d27565b60405180910390fd5b80600460003373ffffffffffffffffffffffffffffffffffffffff1673ffffffffffffffffffffffffffffffffffffffff1681526020019081526020016000206000828254610d0f9190611f38565b925050819055503373ffffffffffffffffffffffffffffffffffffffff167fe1fffcc4923d04b559f4d29a8bfc6cda04eb5b0d3c460751c2402c5c5cc9109c82604051610d5c9190611e49565b60405180910390a26001808190555050565b6060600260009054906101000a900473ffffffffffffffffffffffffffffffffffffffff1673ffffffffffffffffffffffffffffffffffffffff1663e6b1fa2a306040518263ffffffff1660e01b8152600401610dcb9190611bf8565b60006040518083038186803b158015610de357600080fd5b505afa158015610df7573d6000803e3d6000fd5b505050506040513d6000823e3d601f19601f82011682018060405250810190610e2091906117d0565b905090565b600260009054906101000a900473ffffffffffffffffffffffffffffffffffffffff1681565b610e53611594565b6000600760008673ffffffffffffffffffffffffffffffffffffffff1673ffffffffffffffffffffffffffffffffffffffff168152602001908152602001600020905060008180549050905060008486610ead9190611f8e565b8211610eba576000610ede565b84600187610ec89190611f38565b610ed29190611f8e565b82610edd9190611fe8565b5b905060008587610eee9190611f8e565b83610ef99190611fe8565b905082821180610f095750600082105b15610f1357600091505b600081111580610f2e5750828688610f2b9190611f8e565b10155b15610fb0576040518060600160405280600067ffffffffffffffff811115610f5957610f58612184565b5b604051908082528060200260200182016040528015610f9257816020015b610f7f6115b7565b815260200190600190039081610f775790505b50815260200184815260200160001515815250945050505050611195565b60008282610fbe9190611fe8565b905060008167ffffffffffffffff811115610fdc57610fdb612184565b5b60405190808252806020026020018201604052801561101557816020015b6110026115b7565b815260200190600190039081610ffa5790505b50905060005b82811015611166576005600088836001886110369190611fe8565b6110409190611fe8565b8154811061105157611050612155565b5b906000526020600020015481526020019081526020016000206040518060800160405290816000820160009054906101000a900473ffffffffffffffffffffffffffffffffffffffff1673ffffffffffffffffffffffffffffffffffffffff1673ffffffffffffffffffffffffffffffffffffffff1681526020016001820160009054906101000a900473ffffffffffffffffffffffffffffffffffffffff1673ffffffffffffffffffffffffffffffffffffffff1673ffffffffffffffffffffffffffffffffffffffff1681526020016002820154815260200160038201548152505082828151811061114857611147612155565b5b6020026020010181905250808061115e906120dd565b91505061101b565b506000808511905060405180606001604052808381526020018781526020018215158152509750505050505050505b9392505050565b6111a4611294565b73ffffffffffffffffffffffffffffffffffffffff166111c2610780565b73ffffffffffffffffffffffffffffffffffffffff1614611218576040517f08c379a000000000000000000000000000000000000000000000000000000000815260040161120f90611d87565b60405180910390fd5b600073ffffffffffffffffffffffffffffffffffffffff168173ffffffffffffffffffffffffffffffffffffffff161415611288576040517f08c379a000000000000000000000000000000000000000000000000000000000815260040161127f90611d07565b60405180910390fd5b6112918161129c565b50565b600033905090565b60008060009054906101000a900473ffffffffffffffffffffffffffffffffffffffff169050816000806101000a81548173ffffffffffffffffffffffffffffffffffffffff021916908373ffffffffffffffffffffffffffffffffffffffff1602179055508173ffffffffffffffffffffffffffffffffffffffff168173ffffffffffffffffffffffffffffffffffffffff167f8be0079c531659141344cd1fd0a4f28419497f9722a3daafe3b4186f6b6457e060405160405180910390a35050565b60066000815480929190611373906120dd565b919050555060405180608001604052808473ffffffffffffffffffffffffffffffffffffffff1681526020018373ffffffffffffffffffffffffffffffffffffffff1681526020018281526020014281525060056000600654815260200190815260200160002060008201518160000160006101000a81548173ffffffffffffffffffffffffffffffffffffffff021916908373ffffffffffffffffffffffffffffffffffffffff16021790555060208201518160010160006101000a81548173ffffffffffffffffffffffffffffffffffffffff021916908373ffffffffffffffffffffffffffffffffffffffff1602179055506040820151816002015560608201518160030155905050600760008473ffffffffffffffffffffffffffffffffffffffff1673ffffffffffffffffffffffffffffffffffffffff1681526020019081526020016000206006549080600181540180825580915050600190039060005260206000200160009091909190915055600760008373ffffffffffffffffffffffffffffffffffffffff1673ffffffffffffffffffffffffffffffffffffffff16815260200190815260200160002060065490806001815401808255809150506001900390600052602060002001600090919091909150556006547f753ae2aaaf39e14f83785986367e2865dbbccf8c9b24ce246f61939bc0f5d7a8848484426040516115879493929190611c4a565b60405180910390a2505050565b604051806060016040528060608152602001600081526020016000151581525090565b6040518060800160405280600073ffffffffffffffffffffffffffffffffffffffff168152602001600073ffffffffffffffffffffffffffffffffffffffff16815260200160008152602001600081525090565b600061161e61161984611e89565b611e64565b90508083825260208201905082856020860282011115611641576116406121b8565b5b60005b85811015611671578161165788826116e8565b845260208401935060208301925050600181019050611644565b5050509392505050565b60008135905061168a8161240a565b92915050565b600082601f8301126116a5576116a46121b3565b5b81516116b584826020860161160b565b91505092915050565b6000815190506116cd81612421565b92915050565b6000813590506116e281612438565b92915050565b6000815190506116f781612438565b92915050565b600060208284031215611713576117126121c2565b5b60006117218482850161167b565b91505092915050565b600080600060608486031215611743576117426121c2565b5b60006117518682870161167b565b93505060206117628682870161167b565b9250506040611773868287016116d3565b9150509250925092565b600080600060608486031215611796576117956121c2565b5b60006117a48682870161167b565b93505060206117b5868287016116d3565b92505060406117c6868287016116d3565b9150509250925092565b6000602082840312156117e6576117e56121c2565b5b600082015167ffffffffffffffff811115611804576118036121bd565b5b61181084828501611690565b91505092915050565b60006020828403121561182f5761182e6121c2565b5b600061183d848285016116be565b91505092915050565b60006020828403121561185c5761185b6121c2565b5b600061186a848285016116d3565b91505092915050565b600060208284031215611889576118886121c2565b5b6000611897848285016116e8565b91505092915050565b60006118ac8383611b35565b60808301905092915050565b60006118c48383611bda565b60208301905092915050565b6118d98161201c565b82525050565b6118e88161201c565b82525050565b60006118f982611ed5565b6119038185611f05565b935061190e83611eb5565b8060005b8381101561193f57815161192688826118a0565b975061193183611eeb565b925050600181019050611912565b5085935050505092915050565b600061195782611ee0565b6119618185611f16565b935061196c83611ec5565b8060005b8381101561199d57815161198488826118b8565b975061198f83611ef8565b925050600181019050611970565b5085935050505092915050565b6119b38161202e565b82525050565b6119c281612064565b82525050565b6119d181612076565b82525050565b60006119e4602583611f27565b91506119ef826121d8565b604082019050919050565b6000611a07602683611f27565b9150611a1282612227565b604082019050919050565b6000611a2a600f83611f27565b9150611a3582612276565b602082019050919050565b6000611a4d601483611f27565b9150611a588261229f565b602082019050919050565b6000611a70601983611f27565b9150611a7b826122c8565b602082019050919050565b6000611a93602083611f27565b9150611a9e826122f1565b602082019050919050565b6000611ab6602883611f27565b9150611ac18261231a565b604082019050919050565b6000611ad9601b83611f27565b9150611ae482612369565b602082019050919050565b6000611afc602683611f27565b9150611b0782612392565b604082019050919050565b6000611b1f601f83611f27565b9150611b2a826123e1565b602082019050919050565b608082016000820151611b4b60008501826118d0565b506020820151611b5e60208501826118d0565b506040820151611b716040850182611bda565b506060820151611b846060850182611bda565b50505050565b60006060830160008301518482036000860152611ba782826118ee565b9150506020830151611bbc6020860182611bda565b506040830151611bcf60408601826119aa565b508091505092915050565b611be38161205a565b82525050565b611bf28161205a565b82525050565b6000602082019050611c0d60008301846118df565b92915050565b6000606082019050611c2860008301866118df565b611c3560208301856118df565b611c426040830184611be9565b949350505050565b6000608082019050611c5f60008301876118df565b611c6c60208301866118df565b611c796040830185611be9565b611c866060830184611be9565b95945050505050565b60006020820190508181036000830152611ca9818461194c565b905092915050565b6000602082019050611cc660008301846119b9565b92915050565b6000602082019050611ce160008301846119c8565b92915050565b60006020820190508181036000830152611d00816119d7565b9050919050565b60006020820190508181036000830152611d20816119fa565b9050919050565b60006020820190508181036000830152611d4081611a1d565b9050919050565b60006020820190508181036000830152611d6081611a40565b9050919050565b60006020820190508181036000830152611d8081611a63565b9050919050565b60006020820190508181036000830152611da081611a86565b9050919050565b60006020820190508181036000830152611dc081611aa9565b9050919050565b60006020820190508181036000830152611de081611acc565b9050919050565b60006020820190508181036000830152611e0081611aef565b9050919050565b60006020820190508181036000830152611e2081611b12565b9050919050565b60006020820190508181036000830152611e418184611b8a565b905092915050565b6000602082019050611e5e6000830184611be9565b92915050565b6000611e6e611e7f565b9050611e7a82826120ac565b919050565b6000604051905090565b600067ffffffffffffffff821115611ea457611ea3612184565b5b602082029050602081019050919050565b6000819050602082019050919050565b6000819050602082019050919050565b600081519050919050565b600081519050919050565b6000602082019050919050565b6000602082019050919050565b600082825260208201905092915050565b600082825260208201905092915050565b600082825260208201905092915050565b6000611f438261205a565b9150611f4e8361205a565b9250827fffffffffffffffffffffffffffffffffffffffffffffffffffffffffffffffff03821115611f8357611f82612126565b5b828201905092915050565b6000611f998261205a565b9150611fa48361205a565b9250817fffffffffffffffffffffffffffffffffffffffffffffffffffffffffffffffff0483118215151615611fdd57611fdc612126565b5b828202905092915050565b6000611ff38261205a565b9150611ffe8361205a565b92508282101561201157612010612126565b5b828203905092915050565b60006120278261203a565b9050919050565b60008115159050919050565b600073ffffffffffffffffffffffffffffffffffffffff82169050919050565b6000819050919050565b600061206f82612088565b9050919050565b600061208182612088565b9050919050565b60006120938261209a565b9050919050565b60006120a58261203a565b9050919050565b6120b5826121c7565b810181811067ffffffffffffffff821117156120d4576120d3612184565b5b80604052505050565b60006120e88261205a565b91507fffffffffffffffffffffffffffffffffffffffffffffffffffffffffffffffff82141561211b5761211a612126565b5b600182019050919050565b7f4e487b7100000000000000000000000000000000000000000000000000000000600052601160045260246000fd5b7f4e487b7100000000000000000000000000000000000000000000000000000000600052603260045260246000fd5b7f4e487b7100000000000000000000000000000000000000000000000000000000600052604160045260246000fd5b600080fd5b600080fd5b600080fd5b600080fd5b6000601f19601f8301169050919050565b7f4465706f73697420616d6f756e74206d7573742062652067726561746572207460008201527f68616e2030000000000000000000000000000000000000000000000000000000602082015250565b7f4f776e61626c653a206e6577206f776e657220697320746865207a65726f206160008201527f6464726573730000000000000000000000000000000000000000000000000000602082015250565b7f5472616e73666572206661696c65640000000000000000000000000000000000600082015250565b7f496e73756666696369656e742062616c616e6365000000000000000000000000600082015250565b7f496e76616c696420726563697069656e74206164647265737300000000000000600082015250565b7f4f776e61626c653a2063616c6c6572206973206e6f7420746865206f776e6572600082015250565b7f5769746864726177616c20616d6f756e74206d7573742062652067726561746560008201527f72207468616e2030000000000000000000000000000000000000000000000000602082015250565b7f43616e6e6f74207472616e7366657220746f20796f757273656c660000000000600082015250565b7f5472616e7366657220616d6f756e74206d75737420626520677265617465722060008201527f7468616e20300000000000000000000000000000000000000000000000000000602082015250565b7f5265656e7472616e637947756172643a207265656e7472616e742063616c6c00600082015250565b6124138161201c565b811461241e57600080fd5b50565b61242a8161202e565b811461243557600080fd5b50565b6124418161205a565b811461244c57600080fd5b5056fea2646970667358221220aa3f8fd79a8be5f8fa32feae597879b066bf577549cdbd36b8eeb6469533616164736f6c63430008070033",
  "immutableReferences": {},
  "source": "// SPDX-License-Identifier: MIT\r\npragma solidity ^0.8.7;\r\n\r\nimport \"./NFTFrame.sol\";\r\nimport \"./AhoraCoin.sol\";\r\nimport \"@openzeppelin/contracts/access/Ownable.sol\";\r\nimport \"@openzeppelin/contracts/security/ReentrancyGuard.sol\";\r\n\r\n// Base contract with common functionality\r\ncontract TradeBase is Ownable, ReentrancyGuard {\r\n    NFTFrame public nftContract;\r\n    AhoraCoin public tokenContract;\r\n\r\n    //    \r\n    mapping(address => uint256) private userBalances;\r\n\r\n    struct TradeInfo {\r\n        address from;\r\n        address to;\r\n        uint256 amount;\r\n        uint256 timestamp;\r\n    }\r\n\r\n    struct TradeResult {\r\n        TradeInfo[] trades;\r\n        uint256 totalTrades;\r\n        bool hasNext;\r\n    }\r\n\r\n    //    Id  \r\n    mapping(uint256 => TradeInfo) public trades;\r\n    uint256 public tradeId;\r\n\r\n    //   ID   \r\n    mapping(address => uint256[]) private userTrades;\r\n\r\n    event TradeRecorded(uint256 indexed tradeId, address from, address to, uint256 amount, uint256 timestamp);\r\n    event Deposit(address indexed user, uint256 amount);\r\n    event Withdrawal(address indexed user, uint256 amount);\r\n    event BalanceAdjusted(address indexed from, address indexed to, uint256 amount);\r\n    event BalanceTransferred(address indexed from, address indexed to, uint256 amount);\r\n\r\n    // \r\n    function initializeContracts(address _nftContractAddress, address _tokenContractAddress) internal {\r\n        require(address(nftContract) == address(0) && address(tokenContract) == address(0), \"Contracts already initialized\");\r\n        nftContract = NFTFrame(_nftContractAddress);\r\n        tokenContract = AhoraCoin(_tokenContractAddress);\r\n    }\r\n\r\n    //  \r\n    function recordTrade(address from, address to, uint256 amount) internal {\r\n        tradeId++;\r\n        trades[tradeId] = TradeInfo(from, to, amount, block.timestamp);\r\n        \r\n        //    ID \r\n        userTrades[from].push(tradeId);\r\n        userTrades[to].push(tradeId);\r\n        \r\n        emit TradeRecorded(tradeId, from, to, amount, block.timestamp);\r\n    }\r\n\r\n    //      \r\n    function getTradesByAddress(address user, uint256 page, uint256 size) public view returns (TradeResult memory) {\r\n        uint256[] storage userTradeIds = userTrades[user];\r\n        uint256 totalUserTrades = userTradeIds.length;\r\n        \r\n        uint256 startIndex = totalUserTrades > page * size ? totalUserTrades - (page + 1) * size : 0;\r\n        uint256 endIndex = totalUserTrades - page * size;\r\n        \r\n        //    startIndex \r\n        if (startIndex > totalUserTrades || startIndex < 0) {\r\n            startIndex = 0;\r\n        }\r\n        \r\n        //      \r\n        if (endIndex <= 0 || page * size >= totalUserTrades) {\r\n            return TradeResult(new TradeInfo[](0), totalUserTrades, false);\r\n        }\r\n        \r\n        uint256 resultLength = endIndex - startIndex;\r\n        TradeInfo[] memory userTradeInfos = new TradeInfo[](resultLength);\r\n        \r\n        for (uint256 i = 0; i < resultLength; i++) {\r\n            userTradeInfos[i] = trades[userTradeIds[endIndex - 1 - i]];\r\n        }\r\n        \r\n        bool hasNext = startIndex > 0;\r\n\r\n        return TradeResult(userTradeInfos, totalUserTrades, hasNext);\r\n    }\r\n\r\n\r\n    //  \r\n    function deposit(uint256 amount) external nonReentrant {\r\n        require(amount > 0, \"Deposit amount must be greater than 0\");\r\n        require(tokenContract.transferCoinByAdmin(msg.sender, address(this), amount), \"Transfer failed\");\r\n        \r\n        userBalances[msg.sender] += amount;\r\n        emit Deposit(msg.sender, amount);\r\n    }\r\n\r\n    //  \r\n    function withdraw(uint256 amount) external nonReentrant {\r\n        require(amount > 0, \"Withdrawal amount must be greater than 0\");\r\n        require(userBalances[msg.sender] >= amount, \"Insufficient balance\");\r\n        \r\n        userBalances[msg.sender] -= amount;\r\n        require(tokenContract.transferCoinByAdmin(address(this), msg.sender, amount), \"Transfer failed\");\r\n        \r\n        emit Withdrawal(msg.sender, amount);\r\n    }\r\n\r\n    //  \r\n    function _adjustBalances(address from, address to, uint256 amount) internal {\r\n        require(userBalances[from] >= amount, \"Insufficient balance\");\r\n        userBalances[from] -= amount;\r\n        userBalances[to] += amount;\r\n        recordTrade(from, to, amount);\r\n        emit BalanceAdjusted(from, to, amount);\r\n    }\r\n\r\n    //    \r\n    function transferBalance(address from, address to, uint256 amount) external onlyOwner nonReentrant {\r\n        require(to != address(0), \"Invalid recipient address\");\r\n        require(to != from, \"Cannot transfer to yourself\");\r\n        require(amount > 0, \"Transfer amount must be greater than 0\");\r\n        require(userBalances[from] >= amount, \"Insufficient balance\");\r\n\r\n        userBalances[from] -= amount;\r\n        userBalances[to] += amount;\r\n\r\n        recordTrade(from, to, amount);\r\n        emit BalanceTransferred(from, to, amount);\r\n    }\r\n\r\n    //   NFT\r\n    function getContractOwnedNFTs() public view returns (uint256[] memory) {\r\n        return nftContract.getUserNFTIds(address(this)); \r\n    }\r\n\r\n    //   \r\n    function getContractBalance() public view returns (uint256) {\r\n        return tokenContract.balanceOf(address(this));\r\n    }\r\n\r\n    //   \r\n    function getUserBalance(address user) public view returns (uint256) {\r\n        return userBalances[user];\r\n    }\r\n}",
  "sourcePath": "C:\\Users\\SSAFY\\Desktop\\semonemo\\backend\\blockchain-server\\smartcontract\\contracts\\TradeBase.sol",
  "compiler": {
    "name": "solc",
    "version": "0.8.7+commit.e28d00a7.Emscripten.clang"
  },
  "schemaVersion": "3.4.16",
  "updatedAt": "2024-10-03T07:17:05.406Z",
  "devdoc": {
    "kind": "dev",
    "methods": {
      "owner()": {
        "details": "Returns the address of the current owner."
      },
      "renounceOwnership()": {
        "details": "Leaves the contract without owner. It will not be possible to call `onlyOwner` functions anymore. Can only be called by the current owner. NOTE: Renouncing ownership will leave the contract without an owner, thereby removing any functionality that is only available to the owner."
      },
      "transferOwnership(address)": {
        "details": "Transfers ownership of the contract to a new account (`newOwner`). Can only be called by the current owner."
      }
    },
    "version": 1
  },
  "userdoc": {
    "kind": "user",
    "methods": {},
    "version": 1
  }
}